{
  "abi": [
    {
      "inputs": [],
      "stateMutability": "nonpayable",
      "type": "constructor"
    },
    {
      "inputs": [
        {
          "internalType": "string",
          "name": "_id",
          "type": "string"
        },
        {
          "internalType": "string",
          "name": "_gulaDarah",
          "type": "string"
        },
        {
          "internalType": "string",
          "name": "_tekananDarah",
          "type": "string"
        },
        {
          "internalType": "uint8",
          "name": "_bb",
          "type": "uint8"
        },
        {
          "internalType": "uint8",
          "name": "_tb",
          "type": "uint8"
        }
      ],
      "name": "addInfoKesehatan",
      "outputs": [],
      "stateMutability": "nonpayable",
      "type": "function"
    },
    {
      "inputs": [
        {
          "internalType": "string",
          "name": "_nik",
          "type": "string"
        },
        {
          "internalType": "string",
          "name": "_nama",
          "type": "string"
        },
        {
          "internalType": "uint8",
          "name": "_umur",
          "type": "uint8"
        },
        {
          "internalType": "string",
          "name": "_alamat",
          "type": "string"
        }
      ],
      "name": "addPasien",
      "outputs": [],
      "stateMutability": "nonpayable",
      "type": "function"
    },
    {
      "inputs": [
        {
          "internalType": "string",
          "name": "_id",
          "type": "string"
        },
        {
          "internalType": "string",
          "name": "_penyakit",
          "type": "string"
        }
      ],
      "name": "addPenyakit",
      "outputs": [],
      "stateMutability": "nonpayable",
      "type": "function"
    },
    {
      "inputs": [
        {
          "internalType": "address",
          "name": "_ethaddress",
          "type": "address"
        },
        {
          "internalType": "string",
          "name": "_nama",
          "type": "string"
        },
        {
          "internalType": "string",
          "name": "_idRS",
          "type": "string"
        },
        {
          "internalType": "string",
          "name": "_alamat",
          "type": "string"
        }
      ],
      "name": "addRumahSakit",
      "outputs": [],
      "stateMutability": "nonpayable",
      "type": "function"
    },
    {
      "inputs": [],
      "name": "check_manager",
      "outputs": [
        {
          "internalType": "bool",
          "name": "",
          "type": "bool"
        }
      ],
      "stateMutability": "view",
      "type": "function"
    },
    {
      "inputs": [],
      "name": "check_rs",
      "outputs": [
        {
          "internalType": "bool",
          "name": "",
          "type": "bool"
        }
      ],
      "stateMutability": "view",
      "type": "function"
    },
    {
      "inputs": [],
      "name": "getManager",
      "outputs": [
        {
          "internalType": "address",
          "name": "",
          "type": "address"
        }
      ],
      "stateMutability": "view",
      "type": "function"
    },
    {
      "inputs": [
        {
          "internalType": "string",
          "name": "_idRS",
          "type": "string"
        }
      ],
      "name": "getinfors",
      "outputs": [
        {
          "internalType": "address",
          "name": "",
          "type": "address"
        },
        {
          "internalType": "string",
          "name": "",
          "type": "string"
        },
        {
          "internalType": "string",
          "name": "",
          "type": "string"
        },
        {
          "internalType": "string",
          "name": "",
          "type": "string"
        }
      ],
      "stateMutability": "view",
      "type": "function"
    },
    {
      "inputs": [
        {
          "internalType": "string",
          "name": "_nik",
          "type": "string"
        }
      ],
      "name": "getpasien_rs",
      "outputs": [
        {
          "internalType": "string",
          "name": "",
          "type": "string"
        },
        {
          "internalType": "string",
          "name": "",
          "type": "string"
        },
        {
          "internalType": "uint8",
          "name": "",
          "type": "uint8"
        },
        {
          "internalType": "string",
          "name": "",
          "type": "string"
        },
        {
          "internalType": "string",
          "name": "",
          "type": "string"
        },
        {
          "internalType": "string",
          "name": "",
          "type": "string"
        },
        {
          "internalType": "uint8",
          "name": "",
          "type": "uint8"
        },
        {
          "internalType": "uint8",
          "name": "",
          "type": "uint8"
        },
        {
          "internalType": "string[]",
          "name": "",
          "type": "string[]"
        }
      ],
      "stateMutability": "view",
      "type": "function"
    },
    {
      "inputs": [
        {
          "internalType": "string",
          "name": "_nik",
          "type": "string"
        }
      ],
      "name": "getpenyakit_rs",
      "outputs": [
        {
          "internalType": "string[]",
          "name": "",
          "type": "string[]"
        }
      ],
      "stateMutability": "view",
      "type": "function"
    }
  ],
  "devdoc": {
    "methods": {}
  },
  "evm": {
    "assembly": "    /* \"Ehealth.sol\":95:5158  contract Ehealth{\r... */\n  mstore(0x40, 0x80)\n    /* \"Ehealth.sol\":169:375  constructor () public {\r... */\n  callvalue\n    /* \"--CODEGEN--\":5:14   */\n  dup1\n    /* \"--CODEGEN--\":2:4   */\n  iszero\n  tag_1\n  jumpi\n    /* \"--CODEGEN--\":27:28   */\n  0x00\n    /* \"--CODEGEN--\":24:25   */\n  dup1\n    /* \"--CODEGEN--\":17:29   */\n  revert\n    /* \"--CODEGEN--\":2:4   */\ntag_1:\n    /* \"Ehealth.sol\":169:375  constructor () public {\r... */\n  pop\n    /* \"Ehealth.sol\":212:222  msg.sender */\n  caller\n    /* \"Ehealth.sol\":202:209  manager */\n  0x00\n  dup1\n    /* \"Ehealth.sol\":202:222  manager = msg.sender */\n  0x0100\n  exp\n  dup2\n  sload\n  dup2\n  0xffffffffffffffffffffffffffffffffffffffff\n  mul\n  not\n  and\n  swap1\n  dup4\n  0xffffffffffffffffffffffffffffffffffffffff\n  and\n  mul\n  or\n  swap1\n  sstore\n  pop\n    /* \"Ehealth.sol\":245:246  0 */\n  0x00\n    /* \"Ehealth.sol\":233:242  idCounter */\n  0x01\n    /* \"Ehealth.sol\":233:246  idCounter = 0 */\n  dup2\n  swap1\n  sstore\n  pop\n    /* \"Ehealth.sol\":257:367  addRumahSakit(0x8bD997ab0ABd89E9A23ff3cCCE5A71ddE6326f9A, \"Rumah Sakit Wijaya Wiyung\",\"123\",\"Wiyung Surabaya\") */\n  tag_4\n    /* \"Ehealth.sol\":271:313  0x8bD997ab0ABd89E9A23ff3cCCE5A71ddE6326f9A */\n  0x8bd997ab0abd89e9a23ff3ccce5a71dde6326f9a\n    /* \"Ehealth.sol\":257:367  addRumahSakit(0x8bD997ab0ABd89E9A23ff3cCCE5A71ddE6326f9A, \"Rumah Sakit Wijaya Wiyung\",\"123\",\"Wiyung Surabaya\") */\n  mload(0x40)\n  dup1\n  0x40\n  add\n  0x40\n  mstore\n  dup1\n  0x19\n  dup2\n  mstore\n  0x20\n  add\n  0x52756d61682053616b69742057696a61796120576979756e6700000000000000\n  dup2\n  mstore\n  pop\n  mload(0x40)\n  dup1\n  0x40\n  add\n  0x40\n  mstore\n  dup1\n  0x03\n  dup2\n  mstore\n  0x20\n  add\n  0x3132330000000000000000000000000000000000000000000000000000000000\n  dup2\n  mstore\n  pop\n  mload(0x40)\n  dup1\n  0x40\n  add\n  0x40\n  mstore\n  dup1\n  0x0f\n  dup2\n  mstore\n  0x20\n  add\n  0x576979756e672053757261626179610000000000000000000000000000000000\n  dup2\n  mstore\n  pop\n    /* \"Ehealth.sol\":257:270  addRumahSakit */\n  shl(0x20, tag_5)\n    /* \"Ehealth.sol\":257:367  addRumahSakit(0x8bD997ab0ABd89E9A23ff3cCCE5A71ddE6326f9A, \"Rumah Sakit Wijaya Wiyung\",\"123\",\"Wiyung Surabaya\") */\n  0x20\n  shr\n  jump\t// in\ntag_4:\n    /* \"Ehealth.sol\":95:5158  contract Ehealth{\r... */\n  jump(tag_6)\n    /* \"Ehealth.sol\":1478:1823  function addRumahSakit(address _ethaddress, string memory _nama, string memory _idRS, string memory _alamat) isManager public {\r... */\ntag_5:\n    /* \"Ehealth.sol\":5052:5062  msg.sender */\n  caller\n    /* \"Ehealth.sol\":5041:5062  manager == msg.sender */\n  0xffffffffffffffffffffffffffffffffffffffff\n  and\n    /* \"Ehealth.sol\":5041:5048  manager */\n  0x00\n  dup1\n  swap1\n  sload\n  swap1\n  0x0100\n  exp\n  swap1\n  div\n  0xffffffffffffffffffffffffffffffffffffffff\n  and\n    /* \"Ehealth.sol\":5041:5062  manager == msg.sender */\n  0xffffffffffffffffffffffffffffffffffffffff\n  and\n  eq\n    /* \"Ehealth.sol\":5032:5063  require (manager == msg.sender) */\n  tag_8\n  jumpi\n    /* \"--CODEGEN--\":12:13   */\n  0x00\n    /* \"--CODEGEN--\":9:10   */\n  dup1\n    /* \"--CODEGEN--\":2:14   */\n  revert\n    /* \"Ehealth.sol\":5032:5063  require (manager == msg.sender) */\ntag_8:\n    /* \"Ehealth.sol\":1615:1641  Rumah_Sakit memory newData */\n  tag_10\n  tag_11\n  jump\t// in\ntag_10:\n    /* \"Ehealth.sol\":1644:1784  Rumah_Sakit({\r... */\n  mload(0x40)\n  dup1\n  0x80\n  add\n  0x40\n  mstore\n  dup1\n    /* \"Ehealth.sol\":1682:1693  _ethaddress */\n  dup7\n    /* \"Ehealth.sol\":1644:1784  Rumah_Sakit({\r... */\n  0xffffffffffffffffffffffffffffffffffffffff\n  and\n  dup2\n  mstore\n  0x20\n  add\n    /* \"Ehealth.sol\":1713:1718  _nama */\n  dup6\n    /* \"Ehealth.sol\":1644:1784  Rumah_Sakit({\r... */\n  dup2\n  mstore\n  0x20\n  add\n    /* \"Ehealth.sol\":1738:1743  _idRS */\n  dup5\n    /* \"Ehealth.sol\":1644:1784  Rumah_Sakit({\r... */\n  dup2\n  mstore\n  0x20\n  add\n    /* \"Ehealth.sol\":1765:1772  _alamat */\n  dup4\n    /* \"Ehealth.sol\":1644:1784  Rumah_Sakit({\r... */\n  dup2\n  mstore\n  pop\n    /* \"Ehealth.sol\":1615:1784  Rumah_Sakit memory newData = Rumah_Sakit({\r... */\n  swap1\n  pop\n    /* \"Ehealth.sol\":1795:1801  rsList */\n  0x03\n    /* \"Ehealth.sol\":1807:1814  newData */\n  dup2\n    /* \"Ehealth.sol\":1795:1815  rsList.push(newData) */\n  swap1\n  dup1\n    /* \"--CODEGEN--\":39:40   */\n  0x01\n    /* \"--CODEGEN--\":33:36   */\n  dup2\n    /* \"--CODEGEN--\":27:37   */\n  sload\n    /* \"--CODEGEN--\":23:41   */\n  add\n    /* \"--CODEGEN--\":57:67   */\n  dup1\n    /* \"--CODEGEN--\":52:55   */\n  dup3\n    /* \"--CODEGEN--\":45:68   */\n  sstore\n    /* \"--CODEGEN--\":79:89   */\n  dup1\n    /* \"--CODEGEN--\":72:89   */\n  swap2\n  pop\n    /* \"--CODEGEN--\":0:93   */\n  pop\n    /* \"Ehealth.sol\":1795:1815  rsList.push(newData) */\n  0x01\n  swap1\n  sub\n  swap1\n  0x00\n  mstore\n  keccak256(0x00, 0x20)\n  swap1\n  0x04\n  mul\n  add\n  0x00\n  swap1\n  swap2\n  swap1\n  swap2\n  swap1\n  swap2\n  pop\n  0x00\n  dup3\n  add\n  mload\n  dup2\n  0x00\n  add\n  exp(0x0100, 0x00)\n  dup2\n  sload\n  dup2\n  0xffffffffffffffffffffffffffffffffffffffff\n  mul\n  not\n  and\n  swap1\n  dup4\n  0xffffffffffffffffffffffffffffffffffffffff\n  and\n  mul\n  or\n  swap1\n  sstore\n  pop\n  0x20\n  dup3\n  add\n  mload\n  dup2\n  0x01\n  add\n  swap1\n  dup1\n  mload\n  swap1\n  0x20\n  add\n  swap1\n  tag_13\n  swap3\n  swap2\n  swap1\n  tag_14\n  jump\t// in\ntag_13:\n  pop\n  0x40\n  dup3\n  add\n  mload\n  dup2\n  0x02\n  add\n  swap1\n  dup1\n  mload\n  swap1\n  0x20\n  add\n  swap1\n  tag_15\n  swap3\n  swap2\n  swap1\n  tag_14\n  jump\t// in\ntag_15:\n  pop\n  0x60\n  dup3\n  add\n  mload\n  dup2\n  0x03\n  add\n  swap1\n  dup1\n  mload\n  swap1\n  0x20\n  add\n  swap1\n  tag_16\n  swap3\n  swap2\n  swap1\n  tag_14\n  jump\t// in\ntag_16:\n  pop\n  pop\n  pop\n    /* \"Ehealth.sol\":5074:5075  _ */\n  pop\n    /* \"Ehealth.sol\":1478:1823  function addRumahSakit(address _ethaddress, string memory _nama, string memory _idRS, string memory _alamat) isManager public {\r... */\n  pop\n  pop\n  pop\n  pop\n  jump\t// out\n    /* \"Ehealth.sol\":95:5158  contract Ehealth{\r... */\ntag_11:\n  mload(0x40)\n  dup1\n  0x80\n  add\n  0x40\n  mstore\n  dup1\n  and(0xffffffffffffffffffffffffffffffffffffffff, 0x00)\n  dup2\n  mstore\n  0x20\n  add\n  0x60\n  dup2\n  mstore\n  0x20\n  add\n  0x60\n  dup2\n  mstore\n  0x20\n  add\n  0x60\n  dup2\n  mstore\n  pop\n  swap1\n  jump\t// out\ntag_14:\n  dup3\n  dup1\n  sload\n  0x01\n  dup2\n  0x01\n  and\n  iszero\n  0x0100\n  mul\n  sub\n  and\n  0x02\n  swap1\n  div\n  swap1\n  0x00\n  mstore\n  keccak256(0x00, 0x20)\n  swap1\n  0x1f\n  add\n  0x20\n  swap1\n  div\n  dup2\n  add\n  swap3\n  dup3\n  0x1f\n  lt\n  tag_18\n  jumpi\n  dup1\n  mload\n  not(0xff)\n  and\n  dup4\n  dup1\n  add\n  or\n  dup6\n  sstore\n  jump(tag_17)\ntag_18:\n  dup3\n  dup1\n  add\n  0x01\n  add\n  dup6\n  sstore\n  dup3\n  iszero\n  tag_17\n  jumpi\n  swap2\n  dup3\n  add\ntag_19:\n  dup3\n  dup2\n  gt\n  iszero\n  tag_20\n  jumpi\n  dup3\n  mload\n  dup3\n  sstore\n  swap2\n  0x20\n  add\n  swap2\n  swap1\n  0x01\n  add\n  swap1\n  jump(tag_19)\ntag_20:\ntag_17:\n  pop\n  swap1\n  pop\n  tag_21\n  swap2\n  swap1\n  tag_22\n  jump\t// in\ntag_21:\n  pop\n  swap1\n  jump\t// out\ntag_22:\n  tag_23\n  swap2\n  swap1\ntag_24:\n  dup1\n  dup3\n  gt\n  iszero\n  tag_25\n  jumpi\n  0x00\n  dup2\n  0x00\n  swap1\n  sstore\n  pop\n  0x01\n  add\n  jump(tag_24)\ntag_25:\n  pop\n  swap1\n  jump\ntag_23:\n  swap1\n  jump\t// out\ntag_6:\n  dataSize(sub_0)\n  dup1\n  dataOffset(sub_0)\n  0x00\n  codecopy\n  0x00\n  return\nstop\n\nsub_0: assembly {\n        /* \"Ehealth.sol\":95:5158  contract Ehealth{\r... */\n      mstore(0x40, 0x80)\n      callvalue\n        /* \"--CODEGEN--\":5:14   */\n      dup1\n        /* \"--CODEGEN--\":2:4   */\n      iszero\n      tag_1\n      jumpi\n        /* \"--CODEGEN--\":27:28   */\n      0x00\n        /* \"--CODEGEN--\":24:25   */\n      dup1\n        /* \"--CODEGEN--\":17:29   */\n      revert\n        /* \"--CODEGEN--\":2:4   */\n    tag_1:\n        /* \"Ehealth.sol\":95:5158  contract Ehealth{\r... */\n      pop\n      jumpi(tag_2, lt(calldatasize, 0x04))\n      shr(0xe0, calldataload(0x00))\n      dup1\n      0xa480fef3\n      gt\n      tag_13\n      jumpi\n      dup1\n      0xa480fef3\n      eq\n      tag_8\n      jumpi\n      dup1\n      0xa61cef0c\n      eq\n      tag_9\n      jumpi\n      dup1\n      0xd5009584\n      eq\n      tag_10\n      jumpi\n      dup1\n      0xe39be646\n      eq\n      tag_11\n      jumpi\n      dup1\n      0xfb2cb8f3\n      eq\n      tag_12\n      jumpi\n      jump(tag_2)\n    tag_13:\n      dup1\n      0x115ada66\n      eq\n      tag_3\n      jumpi\n      dup1\n      0x2db67237\n      eq\n      tag_4\n      jumpi\n      dup1\n      0x571f2ac1\n      eq\n      tag_5\n      jumpi\n      dup1\n      0x694e54bf\n      eq\n      tag_6\n      jumpi\n      dup1\n      0xa3e9b558\n      eq\n      tag_7\n      jumpi\n    tag_2:\n        /* \"--CODEGEN--\":12:13   */\n      0x00\n        /* \"--CODEGEN--\":9:10   */\n      dup1\n        /* \"--CODEGEN--\":2:14   */\n      revert\n        /* \"Ehealth.sol\":4645:4855  function check_rs() public view returns(bool) {\r... */\n    tag_3:\n      tag_14\n      tag_15\n      jump\t// in\n    tag_14:\n      mload(0x40)\n      tag_16\n      swap2\n      swap1\n      jump(tag_17)\n    tag_16:\n      mload(0x40)\n      dup1\n      swap2\n      sub\n      swap1\n      return\n        /* \"Ehealth.sol\":3387:3940  function getpenyakit_rs(string memory _nik) isRs public view returns(string[] memory){\r... */\n    tag_4:\n      tag_18\n      0x04\n      dup1\n      calldatasize\n      sub\n      dup2\n      add\n      swap1\n      tag_19\n      swap2\n      swap1\n      jump(tag_20)\n    tag_19:\n      tag_21\n      jump\t// in\n    tag_18:\n      mload(0x40)\n      tag_22\n      swap2\n      swap1\n      jump(tag_23)\n    tag_22:\n      mload(0x40)\n      dup1\n      swap2\n      sub\n      swap1\n      return\n        /* \"Ehealth.sol\":2820:3381  function getpasien_rs(string memory _nik) isRs public view returns(string memory, string memory, uint8, string memory, string memory, string memory, uint8, uint8, string[] memory){\r... */\n    tag_5:\n      tag_24\n      0x04\n      dup1\n      calldatasize\n      sub\n      dup2\n      add\n      swap1\n      tag_25\n      swap2\n      swap1\n      jump(tag_20)\n    tag_25:\n      tag_26\n      jump\t// in\n    tag_24:\n      mload(0x40)\n      tag_27\n      swap10\n      swap9\n      swap8\n      swap7\n      swap6\n      swap5\n      swap4\n      swap3\n      swap2\n      swap1\n      jump(tag_28)\n    tag_27:\n      mload(0x40)\n      dup1\n      swap2\n      sub\n      swap1\n      return\n        /* \"Ehealth.sol\":1829:2181  function addPenyakit (string memory _id, string memory _penyakit) isRs public {\r... */\n    tag_6:\n      tag_29\n      0x04\n      dup1\n      calldatasize\n      sub\n      dup2\n      add\n      swap1\n      tag_30\n      swap2\n      swap1\n      jump(tag_31)\n    tag_30:\n      tag_32\n      jump\t// in\n    tag_29:\n      stop\n        /* \"Ehealth.sol\":1478:1823  function addRumahSakit(address _ethaddress, string memory _nama, string memory _idRS, string memory _alamat) isManager public {\r... */\n    tag_7:\n      tag_33\n      0x04\n      dup1\n      calldatasize\n      sub\n      dup2\n      add\n      swap1\n      tag_34\n      swap2\n      swap1\n      jump(tag_35)\n    tag_34:\n      tag_36\n      jump\t// in\n    tag_33:\n      stop\n        /* \"Ehealth.sol\":1017:1466  function addPasien(string memory _nik, string memory _nama, uint8 _umur, string memory _alamat) isRs public{\r... */\n    tag_8:\n      tag_37\n      0x04\n      dup1\n      calldatasize\n      sub\n      dup2\n      add\n      swap1\n      tag_38\n      swap2\n      swap1\n      jump(tag_39)\n    tag_38:\n      tag_40\n      jump\t// in\n    tag_37:\n      stop\n        /* \"Ehealth.sol\":2187:2673  function addInfoKesehatan (string memory _id, string memory _gulaDarah, string memory _tekananDarah, uint8 _bb, uint8 _tb) isRs public {\r... */\n    tag_9:\n      tag_41\n      0x04\n      dup1\n      calldatasize\n      sub\n      dup2\n      add\n      swap1\n      tag_42\n      swap2\n      swap1\n      jump(tag_43)\n    tag_42:\n      tag_44\n      jump\t// in\n    tag_41:\n      stop\n        /* \"Ehealth.sol\":846:930  function getManager() public view returns(address) {\r... */\n    tag_10:\n      tag_45\n      tag_46\n      jump\t// in\n    tag_45:\n      mload(0x40)\n      tag_47\n      swap2\n      swap1\n      jump(tag_48)\n    tag_47:\n      mload(0x40)\n      dup1\n      swap2\n      sub\n      swap1\n      return\n        /* \"Ehealth.sol\":4010:4627  function getinfors(string memory _idRS) isManager public view returns(address, string memory, string memory, string memory){\r... */\n    tag_11:\n      tag_49\n      0x04\n      dup1\n      calldatasize\n      sub\n      dup2\n      add\n      swap1\n      tag_50\n      swap2\n      swap1\n      jump(tag_20)\n    tag_50:\n      tag_51\n      jump\t// in\n    tag_49:\n      mload(0x40)\n      tag_52\n      swap5\n      swap4\n      swap3\n      swap2\n      swap1\n      jump(tag_53)\n    tag_52:\n      mload(0x40)\n      dup1\n      swap2\n      sub\n      swap1\n      return\n        /* \"Ehealth.sol\":4861:4993  function check_manager() public view returns(bool) {\r... */\n    tag_12:\n      tag_54\n      tag_55\n      jump\t// in\n    tag_54:\n      mload(0x40)\n      tag_56\n      swap2\n      swap1\n      jump(tag_17)\n    tag_56:\n      mload(0x40)\n      dup1\n      swap2\n      sub\n      swap1\n      return\n        /* \"Ehealth.sol\":4645:4855  function check_rs() public view returns(bool) {\r... */\n    tag_15:\n        /* \"Ehealth.sol\":4685:4689  bool */\n      0x00\n        /* \"Ehealth.sol\":4706:4712  uint i */\n      dup1\n        /* \"Ehealth.sol\":4715:4716  0 */\n      0x00\n        /* \"Ehealth.sol\":4706:4716  uint i = 0 */\n      swap1\n      pop\n        /* \"Ehealth.sol\":4702:4848  for(uint i = 0; i<rsList.length;i++){\r... */\n    tag_58:\n        /* \"Ehealth.sol\":4720:4726  rsList */\n      0x03\n        /* \"Ehealth.sol\":4720:4733  rsList.length */\n      dup1\n      sload\n      swap1\n      pop\n        /* \"Ehealth.sol\":4718:4719  i */\n      dup2\n        /* \"Ehealth.sol\":4718:4733  i<rsList.length */\n      lt\n        /* \"Ehealth.sol\":4702:4848  for(uint i = 0; i<rsList.length;i++){\r... */\n      iszero\n      tag_59\n      jumpi\n        /* \"Ehealth.sol\":4770:4776  rsList */\n      0x03\n        /* \"Ehealth.sol\":4777:4778  i */\n      dup2\n        /* \"Ehealth.sol\":4770:4779  rsList[i] */\n      dup2\n      sload\n      dup2\n      lt\n      tag_61\n      jumpi\n      invalid\n    tag_61:\n      swap1\n      0x00\n      mstore\n      keccak256(0x00, 0x20)\n      swap1\n      0x04\n      mul\n      add\n        /* \"Ehealth.sol\":4770:4790  rsList[i].ethaddress */\n      0x00\n      add\n      0x00\n      swap1\n      sload\n      swap1\n      0x0100\n      exp\n      swap1\n      div\n      0xffffffffffffffffffffffffffffffffffffffff\n      and\n        /* \"Ehealth.sol\":4756:4790  msg.sender == rsList[i].ethaddress */\n      0xffffffffffffffffffffffffffffffffffffffff\n      and\n        /* \"Ehealth.sol\":4756:4766  msg.sender */\n      caller\n        /* \"Ehealth.sol\":4756:4790  msg.sender == rsList[i].ethaddress */\n      0xffffffffffffffffffffffffffffffffffffffff\n      and\n      eq\n        /* \"Ehealth.sol\":4753:4837  if(msg.sender == rsList[i].ethaddress){\r... */\n      iszero\n      tag_63\n      jumpi\n        /* \"Ehealth.sol\":4817:4821  true */\n      0x01\n        /* \"Ehealth.sol\":4810:4821  return true */\n      swap2\n      pop\n      pop\n      jump(tag_57)\n        /* \"Ehealth.sol\":4753:4837  if(msg.sender == rsList[i].ethaddress){\r... */\n    tag_63:\n        /* \"Ehealth.sol\":4734:4737  i++ */\n      dup1\n      dup1\n      0x01\n      add\n      swap2\n      pop\n      pop\n        /* \"Ehealth.sol\":4702:4848  for(uint i = 0; i<rsList.length;i++){\r... */\n      jump(tag_58)\n    tag_59:\n      pop\n        /* \"Ehealth.sol\":4645:4855  function check_rs() public view returns(bool) {\r... */\n    tag_57:\n      swap1\n      jump\t// out\n        /* \"Ehealth.sol\":3387:3940  function getpenyakit_rs(string memory _nik) isRs public view returns(string[] memory){\r... */\n    tag_21:\n        /* \"Ehealth.sol\":3456:3471  string[] memory */\n      0x60\n        /* \"Ehealth.sol\":5124:5134  check_rs() */\n      tag_65\n        /* \"Ehealth.sol\":5124:5132  check_rs */\n      tag_15\n        /* \"Ehealth.sol\":5124:5134  check_rs() */\n      jump\t// in\n    tag_65:\n        /* \"Ehealth.sol\":5115:5135  require (check_rs()) */\n      tag_66\n      jumpi\n        /* \"--CODEGEN--\":12:13   */\n      0x00\n        /* \"--CODEGEN--\":9:10   */\n      dup1\n        /* \"--CODEGEN--\":2:14   */\n      revert\n        /* \"Ehealth.sol\":5115:5135  require (check_rs()) */\n    tag_66:\n        /* \"Ehealth.sol\":3483:3504  string[] memory _info */\n      0x60\n        /* \"Ehealth.sol\":3519:3525  uint i */\n      0x00\n        /* \"Ehealth.sol\":3528:3529  0 */\n      dup1\n        /* \"Ehealth.sol\":3519:3529  uint i = 0 */\n      swap1\n      pop\n        /* \"Ehealth.sol\":3515:3909  for(uint i = 0;i<pasienList.length;i++){\r... */\n    tag_68:\n        /* \"Ehealth.sol\":3532:3542  pasienList */\n      0x02\n        /* \"Ehealth.sol\":3532:3549  pasienList.length */\n      dup1\n      sload\n      swap1\n      pop\n        /* \"Ehealth.sol\":3530:3531  i */\n      dup2\n        /* \"Ehealth.sol\":3530:3549  i<pasienList.length */\n      lt\n        /* \"Ehealth.sol\":3515:3909  for(uint i = 0;i<pasienList.length;i++){\r... */\n      iszero\n      tag_69\n      jumpi\n        /* \"Ehealth.sol\":3614:3624  pasienList */\n      0x02\n        /* \"Ehealth.sol\":3625:3626  i */\n      dup2\n        /* \"Ehealth.sol\":3614:3627  pasienList[i] */\n      dup2\n      sload\n      dup2\n      lt\n      tag_71\n      jumpi\n      invalid\n    tag_71:\n      swap1\n      0x00\n      mstore\n      keccak256(0x00, 0x20)\n      swap1\n      0x08\n      mul\n      add\n        /* \"Ehealth.sol\":3614:3631  pasienList[i].nik */\n      0x00\n      add\n        /* \"Ehealth.sol\":3598:3633  keccak256(bytes(pasienList[i].nik)) */\n      mload(0x40)\n      tag_73\n      swap2\n      swap1\n      jump(tag_74)\n    tag_73:\n      mload(0x40)\n      dup1\n      swap2\n      sub\n      swap1\n      keccak256\n        /* \"Ehealth.sol\":3588:3592  _nik */\n      dup5\n        /* \"Ehealth.sol\":3572:3594  keccak256(bytes(_nik)) */\n      dup1\n      mload\n      swap1\n      0x20\n      add\n      keccak256\n        /* \"Ehealth.sol\":3572:3633  keccak256(bytes(_nik)) == keccak256(bytes(pasienList[i].nik)) */\n      eq\n        /* \"Ehealth.sol\":3569:3898  if(keccak256(bytes(_nik)) == keccak256(bytes(pasienList[i].nik))){\r... */\n      iszero\n      tag_75\n      jumpi\n        /* \"Ehealth.sol\":3674:3684  pasienList */\n      0x02\n        /* \"Ehealth.sol\":3685:3686  i */\n      dup2\n        /* \"Ehealth.sol\":3674:3687  pasienList[i] */\n      dup2\n      sload\n      dup2\n      lt\n      tag_76\n      jumpi\n      invalid\n    tag_76:\n      swap1\n      0x00\n      mstore\n      keccak256(0x00, 0x20)\n      swap1\n      0x08\n      mul\n      add\n        /* \"Ehealth.sol\":3674:3706  pasienList[i].informasi_penyakit */\n      0x07\n      add\n        /* \"Ehealth.sol\":3674:3713  pasienList[i].informasi_penyakit.length */\n      dup1\n      sload\n      swap1\n      pop\n        /* \"Ehealth.sol\":3661:3714  new string[](pasienList[i].informasi_penyakit.length) */\n      0xffffffffffffffff\n      dup2\n      gt\n        /* \"--CODEGEN--\":5:14   */\n      dup1\n        /* \"--CODEGEN--\":2:4   */\n      iszero\n      tag_78\n      jumpi\n        /* \"--CODEGEN--\":27:28   */\n      0x00\n        /* \"--CODEGEN--\":24:25   */\n      dup1\n        /* \"--CODEGEN--\":17:29   */\n      revert\n        /* \"--CODEGEN--\":2:4   */\n    tag_78:\n        /* \"Ehealth.sol\":3661:3714  new string[](pasienList[i].informasi_penyakit.length) */\n      pop\n      mload(0x40)\n      swap1\n      dup1\n      dup3\n      mstore\n      dup1\n      0x20\n      mul\n      0x20\n      add\n      dup3\n      add\n      0x40\n      mstore\n      dup1\n      iszero\n      tag_79\n      jumpi\n      dup2\n      0x20\n      add\n    tag_80:\n      0x60\n      dup2\n      mstore\n      0x20\n      add\n      swap1\n      0x01\n      swap1\n      sub\n      swap1\n      dup2\n      tag_80\n      jumpi\n      swap1\n      pop\n    tag_79:\n      pop\n        /* \"Ehealth.sol\":3653:3714  _info = new string[](pasienList[i].informasi_penyakit.length) */\n      swap2\n      pop\n        /* \"Ehealth.sol\":3737:3743  uint j */\n      0x00\n        /* \"Ehealth.sol\":3746:3747  0 */\n      dup1\n        /* \"Ehealth.sol\":3737:3747  uint j = 0 */\n      swap1\n      pop\n        /* \"Ehealth.sol\":3733:3883  for(uint j = 0;j<pasienList[i].informasi_penyakit.length;j++){\r... */\n    tag_81:\n        /* \"Ehealth.sol\":3750:3760  pasienList */\n      0x02\n        /* \"Ehealth.sol\":3761:3762  i */\n      dup3\n        /* \"Ehealth.sol\":3750:3763  pasienList[i] */\n      dup2\n      sload\n      dup2\n      lt\n      tag_84\n      jumpi\n      invalid\n    tag_84:\n      swap1\n      0x00\n      mstore\n      keccak256(0x00, 0x20)\n      swap1\n      0x08\n      mul\n      add\n        /* \"Ehealth.sol\":3750:3782  pasienList[i].informasi_penyakit */\n      0x07\n      add\n        /* \"Ehealth.sol\":3750:3789  pasienList[i].informasi_penyakit.length */\n      dup1\n      sload\n      swap1\n      pop\n        /* \"Ehealth.sol\":3748:3749  j */\n      dup2\n        /* \"Ehealth.sol\":3748:3789  j<pasienList[i].informasi_penyakit.length */\n      lt\n        /* \"Ehealth.sol\":3733:3883  for(uint j = 0;j<pasienList[i].informasi_penyakit.length;j++){\r... */\n      iszero\n      tag_82\n      jumpi\n        /* \"Ehealth.sol\":3828:3838  pasienList */\n      0x02\n        /* \"Ehealth.sol\":3839:3840  i */\n      dup3\n        /* \"Ehealth.sol\":3828:3841  pasienList[i] */\n      dup2\n      sload\n      dup2\n      lt\n      tag_86\n      jumpi\n      invalid\n    tag_86:\n      swap1\n      0x00\n      mstore\n      keccak256(0x00, 0x20)\n      swap1\n      0x08\n      mul\n      add\n        /* \"Ehealth.sol\":3828:3860  pasienList[i].informasi_penyakit */\n      0x07\n      add\n        /* \"Ehealth.sol\":3861:3862  j */\n      dup2\n        /* \"Ehealth.sol\":3828:3863  pasienList[i].informasi_penyakit[j] */\n      dup2\n      sload\n      dup2\n      lt\n      tag_88\n      jumpi\n      invalid\n    tag_88:\n      swap1\n      0x00\n      mstore\n      keccak256(0x00, 0x20)\n      add\n        /* \"Ehealth.sol\":3817:3863  _info[j] = pasienList[i].informasi_penyakit[j] */\n      dup1\n      sload\n      0x01\n      dup2\n      0x01\n      and\n      iszero\n      0x0100\n      mul\n      sub\n      and\n      0x02\n      swap1\n      div\n      dup1\n      0x1f\n      add\n      0x20\n      dup1\n      swap2\n      div\n      mul\n      0x20\n      add\n      mload(0x40)\n      swap1\n      dup2\n      add\n      0x40\n      mstore\n      dup1\n      swap3\n      swap2\n      swap1\n      dup2\n      dup2\n      mstore\n      0x20\n      add\n      dup3\n      dup1\n      sload\n      0x01\n      dup2\n      0x01\n      and\n      iszero\n      0x0100\n      mul\n      sub\n      and\n      0x02\n      swap1\n      div\n      dup1\n      iszero\n      tag_90\n      jumpi\n      dup1\n      0x1f\n      lt\n      tag_91\n      jumpi\n      0x0100\n      dup1\n      dup4\n      sload\n      div\n      mul\n      dup4\n      mstore\n      swap2\n      0x20\n      add\n      swap2\n      jump(tag_90)\n    tag_91:\n      dup3\n      add\n      swap2\n      swap1\n      0x00\n      mstore\n      keccak256(0x00, 0x20)\n      swap1\n    tag_92:\n      dup2\n      sload\n      dup2\n      mstore\n      swap1\n      0x01\n      add\n      swap1\n      0x20\n      add\n      dup1\n      dup4\n      gt\n      tag_92\n      jumpi\n      dup3\n      swap1\n      sub\n      0x1f\n      and\n      dup3\n      add\n      swap2\n    tag_90:\n      pop\n      pop\n      pop\n      pop\n      pop\n        /* \"Ehealth.sol\":3817:3822  _info */\n      dup4\n        /* \"Ehealth.sol\":3823:3824  j */\n      dup3\n        /* \"Ehealth.sol\":3817:3825  _info[j] */\n      dup2\n      mload\n      dup2\n      lt\n      tag_93\n      jumpi\n      invalid\n    tag_93:\n      0x20\n      mul\n      0x20\n      add\n      add\n        /* \"Ehealth.sol\":3817:3863  _info[j] = pasienList[i].informasi_penyakit[j] */\n      dup2\n      swap1\n      mstore\n      pop\n        /* \"Ehealth.sol\":3790:3793  j++ */\n      dup1\n      dup1\n      0x01\n      add\n      swap2\n      pop\n      pop\n        /* \"Ehealth.sol\":3733:3883  for(uint j = 0;j<pasienList[i].informasi_penyakit.length;j++){\r... */\n      jump(tag_81)\n    tag_82:\n      pop\n        /* \"Ehealth.sol\":3569:3898  if(keccak256(bytes(_nik)) == keccak256(bytes(pasienList[i].nik))){\r... */\n    tag_75:\n        /* \"Ehealth.sol\":3550:3553  i++ */\n      dup1\n      dup1\n      0x01\n      add\n      swap2\n      pop\n      pop\n        /* \"Ehealth.sol\":3515:3909  for(uint i = 0;i<pasienList.length;i++){\r... */\n      jump(tag_68)\n    tag_69:\n      pop\n        /* \"Ehealth.sol\":3926:3931  _info */\n      dup1\n        /* \"Ehealth.sol\":3919:3932  return(_info) */\n      swap2\n      pop\n      pop\n        /* \"Ehealth.sol\":3387:3940  function getpenyakit_rs(string memory _nik) isRs public view returns(string[] memory){\r... */\n      swap2\n      swap1\n      pop\n      jump\t// out\n        /* \"Ehealth.sol\":2820:3381  function getpasien_rs(string memory _nik) isRs public view returns(string memory, string memory, uint8, string memory, string memory, string memory, uint8, uint8, string[] memory){\r... */\n    tag_26:\n        /* \"Ehealth.sol\":2887:2900  string memory */\n      0x60\n        /* \"Ehealth.sol\":2902:2915  string memory */\n      dup1\n        /* \"Ehealth.sol\":2917:2922  uint8 */\n      0x00\n        /* \"Ehealth.sol\":2924:2937  string memory */\n      0x60\n        /* \"Ehealth.sol\":2939:2952  string memory */\n      dup1\n        /* \"Ehealth.sol\":2954:2967  string memory */\n      0x60\n        /* \"Ehealth.sol\":2969:2974  uint8 */\n      0x00\n        /* \"Ehealth.sol\":2976:2981  uint8 */\n      dup1\n        /* \"Ehealth.sol\":2983:2998  string[] memory */\n      0x60\n        /* \"Ehealth.sol\":5124:5134  check_rs() */\n      tag_95\n        /* \"Ehealth.sol\":5124:5132  check_rs */\n      tag_15\n        /* \"Ehealth.sol\":5124:5134  check_rs() */\n      jump\t// in\n    tag_95:\n        /* \"Ehealth.sol\":5115:5135  require (check_rs()) */\n      tag_96\n      jumpi\n        /* \"--CODEGEN--\":12:13   */\n      0x00\n        /* \"--CODEGEN--\":9:10   */\n      dup1\n        /* \"--CODEGEN--\":2:14   */\n      revert\n        /* \"Ehealth.sol\":5115:5135  require (check_rs()) */\n    tag_96:\n        /* \"Ehealth.sol\":3014:3020  uint i */\n      0x00\n        /* \"Ehealth.sol\":3010:3374  for(uint i; i<pasienList.length;i++){\r... */\n    tag_98:\n        /* \"Ehealth.sol\":3024:3034  pasienList */\n      0x02\n        /* \"Ehealth.sol\":3024:3041  pasienList.length */\n      dup1\n      sload\n      swap1\n      pop\n        /* \"Ehealth.sol\":3022:3023  i */\n      dup2\n        /* \"Ehealth.sol\":3022:3041  i<pasienList.length */\n      lt\n        /* \"Ehealth.sol\":3010:3374  for(uint i; i<pasienList.length;i++){\r... */\n      iszero\n      tag_99\n      jumpi\n        /* \"Ehealth.sol\":3106:3116  pasienList */\n      0x02\n        /* \"Ehealth.sol\":3117:3118  i */\n      dup2\n        /* \"Ehealth.sol\":3106:3119  pasienList[i] */\n      dup2\n      sload\n      dup2\n      lt\n      tag_101\n      jumpi\n      invalid\n    tag_101:\n      swap1\n      0x00\n      mstore\n      keccak256(0x00, 0x20)\n      swap1\n      0x08\n      mul\n      add\n        /* \"Ehealth.sol\":3106:3123  pasienList[i].nik */\n      0x00\n      add\n        /* \"Ehealth.sol\":3090:3125  keccak256(bytes(pasienList[i].nik)) */\n      mload(0x40)\n      tag_103\n      swap2\n      swap1\n      jump(tag_74)\n    tag_103:\n      mload(0x40)\n      dup1\n      swap2\n      sub\n      swap1\n      keccak256\n        /* \"Ehealth.sol\":3080:3084  _nik */\n      dup12\n        /* \"Ehealth.sol\":3064:3086  keccak256(bytes(_nik)) */\n      dup1\n      mload\n      swap1\n      0x20\n      add\n      keccak256\n        /* \"Ehealth.sol\":3064:3125  keccak256(bytes(_nik)) == keccak256(bytes(pasienList[i].nik)) */\n      eq\n        /* \"Ehealth.sol\":3061:3363  if(keccak256(bytes(_nik)) == keccak256(bytes(pasienList[i].nik))){\r... */\n      iszero\n      tag_104\n      jumpi\n        /* \"Ehealth.sol\":3152:3162  pasienList */\n      0x02\n        /* \"Ehealth.sol\":3163:3164  i */\n      dup2\n        /* \"Ehealth.sol\":3152:3165  pasienList[i] */\n      dup2\n      sload\n      dup2\n      lt\n      tag_105\n      jumpi\n      invalid\n    tag_105:\n      swap1\n      0x00\n      mstore\n      keccak256(0x00, 0x20)\n      swap1\n      0x08\n      mul\n      add\n        /* \"Ehealth.sol\":3152:3169  pasienList[i].nik */\n      0x00\n      add\n        /* \"Ehealth.sol\":3170:3180  pasienList */\n      0x02\n        /* \"Ehealth.sol\":3181:3182  i */\n      dup3\n        /* \"Ehealth.sol\":3170:3183  pasienList[i] */\n      dup2\n      sload\n      dup2\n      lt\n      tag_107\n      jumpi\n      invalid\n    tag_107:\n      swap1\n      0x00\n      mstore\n      keccak256(0x00, 0x20)\n      swap1\n      0x08\n      mul\n      add\n        /* \"Ehealth.sol\":3170:3188  pasienList[i].nama */\n      0x01\n      add\n        /* \"Ehealth.sol\":3189:3199  pasienList */\n      0x02\n        /* \"Ehealth.sol\":3200:3201  i */\n      dup4\n        /* \"Ehealth.sol\":3189:3202  pasienList[i] */\n      dup2\n      sload\n      dup2\n      lt\n      tag_109\n      jumpi\n      invalid\n    tag_109:\n      swap1\n      0x00\n      mstore\n      keccak256(0x00, 0x20)\n      swap1\n      0x08\n      mul\n      add\n        /* \"Ehealth.sol\":3189:3207  pasienList[i].umur */\n      0x02\n      add\n      0x00\n      swap1\n      sload\n      swap1\n      0x0100\n      exp\n      swap1\n      div\n      0xff\n      and\n        /* \"Ehealth.sol\":3208:3218  pasienList */\n      0x02\n        /* \"Ehealth.sol\":3219:3220  i */\n      dup5\n        /* \"Ehealth.sol\":3208:3221  pasienList[i] */\n      dup2\n      sload\n      dup2\n      lt\n      tag_111\n      jumpi\n      invalid\n    tag_111:\n      swap1\n      0x00\n      mstore\n      keccak256(0x00, 0x20)\n      swap1\n      0x08\n      mul\n      add\n        /* \"Ehealth.sol\":3208:3228  pasienList[i].alamat */\n      0x03\n      add\n        /* \"Ehealth.sol\":3229:3239  pasienList */\n      0x02\n        /* \"Ehealth.sol\":3240:3241  i */\n      dup6\n        /* \"Ehealth.sol\":3229:3242  pasienList[i] */\n      dup2\n      sload\n      dup2\n      lt\n      tag_113\n      jumpi\n      invalid\n    tag_113:\n      swap1\n      0x00\n      mstore\n      keccak256(0x00, 0x20)\n      swap1\n      0x08\n      mul\n      add\n        /* \"Ehealth.sol\":3229:3252  pasienList[i].gulaDarah */\n      0x04\n      add\n        /* \"Ehealth.sol\":3253:3263  pasienList */\n      0x02\n        /* \"Ehealth.sol\":3264:3265  i */\n      dup7\n        /* \"Ehealth.sol\":3253:3266  pasienList[i] */\n      dup2\n      sload\n      dup2\n      lt\n      tag_115\n      jumpi\n      invalid\n    tag_115:\n      swap1\n      0x00\n      mstore\n      keccak256(0x00, 0x20)\n      swap1\n      0x08\n      mul\n      add\n        /* \"Ehealth.sol\":3253:3279  pasienList[i].tekananDarah */\n      0x05\n      add\n        /* \"Ehealth.sol\":3280:3290  pasienList */\n      0x02\n        /* \"Ehealth.sol\":3291:3292  i */\n      dup8\n        /* \"Ehealth.sol\":3280:3293  pasienList[i] */\n      dup2\n      sload\n      dup2\n      lt\n      tag_117\n      jumpi\n      invalid\n    tag_117:\n      swap1\n      0x00\n      mstore\n      keccak256(0x00, 0x20)\n      swap1\n      0x08\n      mul\n      add\n        /* \"Ehealth.sol\":3280:3296  pasienList[i].bb */\n      0x06\n      add\n      0x01\n      swap1\n      sload\n      swap1\n      0x0100\n      exp\n      swap1\n      div\n      0xff\n      and\n        /* \"Ehealth.sol\":3297:3307  pasienList */\n      0x02\n        /* \"Ehealth.sol\":3308:3309  i */\n      dup9\n        /* \"Ehealth.sol\":3297:3310  pasienList[i] */\n      dup2\n      sload\n      dup2\n      lt\n      tag_119\n      jumpi\n      invalid\n    tag_119:\n      swap1\n      0x00\n      mstore\n      keccak256(0x00, 0x20)\n      swap1\n      0x08\n      mul\n      add\n        /* \"Ehealth.sol\":3297:3313  pasienList[i].tb */\n      0x06\n      add\n      0x00\n      swap1\n      sload\n      swap1\n      0x0100\n      exp\n      swap1\n      div\n      0xff\n      and\n        /* \"Ehealth.sol\":3314:3324  pasienList */\n      0x02\n        /* \"Ehealth.sol\":3325:3326  i */\n      dup10\n        /* \"Ehealth.sol\":3314:3327  pasienList[i] */\n      dup2\n      sload\n      dup2\n      lt\n      tag_121\n      jumpi\n      invalid\n    tag_121:\n      swap1\n      0x00\n      mstore\n      keccak256(0x00, 0x20)\n      swap1\n      0x08\n      mul\n      add\n        /* \"Ehealth.sol\":3314:3346  pasienList[i].informasi_penyakit */\n      0x07\n      add\n        /* \"Ehealth.sol\":3145:3347  return(pasienList[i].nik,pasienList[i].nama,pasienList[i].umur,pasienList[i].alamat,pasienList[i].gulaDarah,pasienList[i].tekananDarah,pasienList[i].bb,pasienList[i].tb,pasienList[i].informasi_penyakit) */\n      dup9\n      dup1\n      sload\n      0x01\n      dup2\n      0x01\n      and\n      iszero\n      0x0100\n      mul\n      sub\n      and\n      0x02\n      swap1\n      div\n      dup1\n      0x1f\n      add\n      0x20\n      dup1\n      swap2\n      div\n      mul\n      0x20\n      add\n      mload(0x40)\n      swap1\n      dup2\n      add\n      0x40\n      mstore\n      dup1\n      swap3\n      swap2\n      swap1\n      dup2\n      dup2\n      mstore\n      0x20\n      add\n      dup3\n      dup1\n      sload\n      0x01\n      dup2\n      0x01\n      and\n      iszero\n      0x0100\n      mul\n      sub\n      and\n      0x02\n      swap1\n      div\n      dup1\n      iszero\n      tag_123\n      jumpi\n      dup1\n      0x1f\n      lt\n      tag_124\n      jumpi\n      0x0100\n      dup1\n      dup4\n      sload\n      div\n      mul\n      dup4\n      mstore\n      swap2\n      0x20\n      add\n      swap2\n      jump(tag_123)\n    tag_124:\n      dup3\n      add\n      swap2\n      swap1\n      0x00\n      mstore\n      keccak256(0x00, 0x20)\n      swap1\n    tag_125:\n      dup2\n      sload\n      dup2\n      mstore\n      swap1\n      0x01\n      add\n      swap1\n      0x20\n      add\n      dup1\n      dup4\n      gt\n      tag_125\n      jumpi\n      dup3\n      swap1\n      sub\n      0x1f\n      and\n      dup3\n      add\n      swap2\n    tag_123:\n      pop\n      pop\n      pop\n      pop\n      pop\n      swap9\n      pop\n      dup8\n      dup1\n      sload\n      0x01\n      dup2\n      0x01\n      and\n      iszero\n      0x0100\n      mul\n      sub\n      and\n      0x02\n      swap1\n      div\n      dup1\n      0x1f\n      add\n      0x20\n      dup1\n      swap2\n      div\n      mul\n      0x20\n      add\n      mload(0x40)\n      swap1\n      dup2\n      add\n      0x40\n      mstore\n      dup1\n      swap3\n      swap2\n      swap1\n      dup2\n      dup2\n      mstore\n      0x20\n      add\n      dup3\n      dup1\n      sload\n      0x01\n      dup2\n      0x01\n      and\n      iszero\n      0x0100\n      mul\n      sub\n      and\n      0x02\n      swap1\n      div\n      dup1\n      iszero\n      tag_126\n      jumpi\n      dup1\n      0x1f\n      lt\n      tag_127\n      jumpi\n      0x0100\n      dup1\n      dup4\n      sload\n      div\n      mul\n      dup4\n      mstore\n      swap2\n      0x20\n      add\n      swap2\n      jump(tag_126)\n    tag_127:\n      dup3\n      add\n      swap2\n      swap1\n      0x00\n      mstore\n      keccak256(0x00, 0x20)\n      swap1\n    tag_128:\n      dup2\n      sload\n      dup2\n      mstore\n      swap1\n      0x01\n      add\n      swap1\n      0x20\n      add\n      dup1\n      dup4\n      gt\n      tag_128\n      jumpi\n      dup3\n      swap1\n      sub\n      0x1f\n      and\n      dup3\n      add\n      swap2\n    tag_126:\n      pop\n      pop\n      pop\n      pop\n      pop\n      swap8\n      pop\n      dup6\n      dup1\n      sload\n      0x01\n      dup2\n      0x01\n      and\n      iszero\n      0x0100\n      mul\n      sub\n      and\n      0x02\n      swap1\n      div\n      dup1\n      0x1f\n      add\n      0x20\n      dup1\n      swap2\n      div\n      mul\n      0x20\n      add\n      mload(0x40)\n      swap1\n      dup2\n      add\n      0x40\n      mstore\n      dup1\n      swap3\n      swap2\n      swap1\n      dup2\n      dup2\n      mstore\n      0x20\n      add\n      dup3\n      dup1\n      sload\n      0x01\n      dup2\n      0x01\n      and\n      iszero\n      0x0100\n      mul\n      sub\n      and\n      0x02\n      swap1\n      div\n      dup1\n      iszero\n      tag_129\n      jumpi\n      dup1\n      0x1f\n      lt\n      tag_130\n      jumpi\n      0x0100\n      dup1\n      dup4\n      sload\n      div\n      mul\n      dup4\n      mstore\n      swap2\n      0x20\n      add\n      swap2\n      jump(tag_129)\n    tag_130:\n      dup3\n      add\n      swap2\n      swap1\n      0x00\n      mstore\n      keccak256(0x00, 0x20)\n      swap1\n    tag_131:\n      dup2\n      sload\n      dup2\n      mstore\n      swap1\n      0x01\n      add\n      swap1\n      0x20\n      add\n      dup1\n      dup4\n      gt\n      tag_131\n      jumpi\n      dup3\n      swap1\n      sub\n      0x1f\n      and\n      dup3\n      add\n      swap2\n    tag_129:\n      pop\n      pop\n      pop\n      pop\n      pop\n      swap6\n      pop\n      dup5\n      dup1\n      sload\n      0x01\n      dup2\n      0x01\n      and\n      iszero\n      0x0100\n      mul\n      sub\n      and\n      0x02\n      swap1\n      div\n      dup1\n      0x1f\n      add\n      0x20\n      dup1\n      swap2\n      div\n      mul\n      0x20\n      add\n      mload(0x40)\n      swap1\n      dup2\n      add\n      0x40\n      mstore\n      dup1\n      swap3\n      swap2\n      swap1\n      dup2\n      dup2\n      mstore\n      0x20\n      add\n      dup3\n      dup1\n      sload\n      0x01\n      dup2\n      0x01\n      and\n      iszero\n      0x0100\n      mul\n      sub\n      and\n      0x02\n      swap1\n      div\n      dup1\n      iszero\n      tag_132\n      jumpi\n      dup1\n      0x1f\n      lt\n      tag_133\n      jumpi\n      0x0100\n      dup1\n      dup4\n      sload\n      div\n      mul\n      dup4\n      mstore\n      swap2\n      0x20\n      add\n      swap2\n      jump(tag_132)\n    tag_133:\n      dup3\n      add\n      swap2\n      swap1\n      0x00\n      mstore\n      keccak256(0x00, 0x20)\n      swap1\n    tag_134:\n      dup2\n      sload\n      dup2\n      mstore\n      swap1\n      0x01\n      add\n      swap1\n      0x20\n      add\n      dup1\n      dup4\n      gt\n      tag_134\n      jumpi\n      dup3\n      swap1\n      sub\n      0x1f\n      and\n      dup3\n      add\n      swap2\n    tag_132:\n      pop\n      pop\n      pop\n      pop\n      pop\n      swap5\n      pop\n      dup4\n      dup1\n      sload\n      0x01\n      dup2\n      0x01\n      and\n      iszero\n      0x0100\n      mul\n      sub\n      and\n      0x02\n      swap1\n      div\n      dup1\n      0x1f\n      add\n      0x20\n      dup1\n      swap2\n      div\n      mul\n      0x20\n      add\n      mload(0x40)\n      swap1\n      dup2\n      add\n      0x40\n      mstore\n      dup1\n      swap3\n      swap2\n      swap1\n      dup2\n      dup2\n      mstore\n      0x20\n      add\n      dup3\n      dup1\n      sload\n      0x01\n      dup2\n      0x01\n      and\n      iszero\n      0x0100\n      mul\n      sub\n      and\n      0x02\n      swap1\n      div\n      dup1\n      iszero\n      tag_135\n      jumpi\n      dup1\n      0x1f\n      lt\n      tag_136\n      jumpi\n      0x0100\n      dup1\n      dup4\n      sload\n      div\n      mul\n      dup4\n      mstore\n      swap2\n      0x20\n      add\n      swap2\n      jump(tag_135)\n    tag_136:\n      dup3\n      add\n      swap2\n      swap1\n      0x00\n      mstore\n      keccak256(0x00, 0x20)\n      swap1\n    tag_137:\n      dup2\n      sload\n      dup2\n      mstore\n      swap1\n      0x01\n      add\n      swap1\n      0x20\n      add\n      dup1\n      dup4\n      gt\n      tag_137\n      jumpi\n      dup3\n      swap1\n      sub\n      0x1f\n      and\n      dup3\n      add\n      swap2\n    tag_135:\n      pop\n      pop\n      pop\n      pop\n      pop\n      swap4\n      pop\n      dup1\n      dup1\n      sload\n      dup1\n      0x20\n      mul\n      0x20\n      add\n      mload(0x40)\n      swap1\n      dup2\n      add\n      0x40\n      mstore\n      dup1\n      swap3\n      swap2\n      swap1\n      dup2\n      dup2\n      mstore\n      0x20\n      add\n      0x00\n      swap1\n    tag_138:\n      dup3\n      dup3\n      lt\n      iszero\n      tag_139\n      jumpi\n      dup4\n      dup3\n      swap1\n      0x00\n      mstore\n      keccak256(0x00, 0x20)\n      add\n      dup1\n      sload\n      0x01\n      dup2\n      0x01\n      and\n      iszero\n      0x0100\n      mul\n      sub\n      and\n      0x02\n      swap1\n      div\n      dup1\n      0x1f\n      add\n      0x20\n      dup1\n      swap2\n      div\n      mul\n      0x20\n      add\n      mload(0x40)\n      swap1\n      dup2\n      add\n      0x40\n      mstore\n      dup1\n      swap3\n      swap2\n      swap1\n      dup2\n      dup2\n      mstore\n      0x20\n      add\n      dup3\n      dup1\n      sload\n      0x01\n      dup2\n      0x01\n      and\n      iszero\n      0x0100\n      mul\n      sub\n      and\n      0x02\n      swap1\n      div\n      dup1\n      iszero\n      tag_141\n      jumpi\n      dup1\n      0x1f\n      lt\n      tag_142\n      jumpi\n      0x0100\n      dup1\n      dup4\n      sload\n      div\n      mul\n      dup4\n      mstore\n      swap2\n      0x20\n      add\n      swap2\n      jump(tag_141)\n    tag_142:\n      dup3\n      add\n      swap2\n      swap1\n      0x00\n      mstore\n      keccak256(0x00, 0x20)\n      swap1\n    tag_143:\n      dup2\n      sload\n      dup2\n      mstore\n      swap1\n      0x01\n      add\n      swap1\n      0x20\n      add\n      dup1\n      dup4\n      gt\n      tag_143\n      jumpi\n      dup3\n      swap1\n      sub\n      0x1f\n      and\n      dup3\n      add\n      swap2\n    tag_141:\n      pop\n      pop\n      pop\n      pop\n      pop\n      dup2\n      mstore\n      0x20\n      add\n      swap1\n      0x01\n      add\n      swap1\n      jump(tag_138)\n    tag_139:\n      pop\n      pop\n      pop\n      pop\n      swap1\n      pop\n      swap10\n      pop\n      swap10\n      pop\n      swap10\n      pop\n      swap10\n      pop\n      swap10\n      pop\n      swap10\n      pop\n      swap10\n      pop\n      swap10\n      pop\n      swap10\n      pop\n      pop\n      jump(tag_97)\n        /* \"Ehealth.sol\":3061:3363  if(keccak256(bytes(_nik)) == keccak256(bytes(pasienList[i].nik))){\r... */\n    tag_104:\n        /* \"Ehealth.sol\":3042:3045  i++ */\n      dup1\n      dup1\n      0x01\n      add\n      swap2\n      pop\n      pop\n        /* \"Ehealth.sol\":3010:3374  for(uint i; i<pasienList.length;i++){\r... */\n      jump(tag_98)\n    tag_99:\n      pop\n        /* \"Ehealth.sol\":5146:5147  _ */\n    tag_97:\n        /* \"Ehealth.sol\":2820:3381  function getpasien_rs(string memory _nik) isRs public view returns(string memory, string memory, uint8, string memory, string memory, string memory, uint8, uint8, string[] memory){\r... */\n      swap2\n      swap4\n      swap6\n      swap8\n      swap10\n      swap1\n      swap3\n      swap5\n      swap7\n      swap9\n      pop\n      jump\t// out\n        /* \"Ehealth.sol\":1829:2181  function addPenyakit (string memory _id, string memory _penyakit) isRs public {\r... */\n    tag_32:\n        /* \"Ehealth.sol\":5124:5134  check_rs() */\n      tag_145\n        /* \"Ehealth.sol\":5124:5132  check_rs */\n      tag_15\n        /* \"Ehealth.sol\":5124:5134  check_rs() */\n      jump\t// in\n    tag_145:\n        /* \"Ehealth.sol\":5115:5135  require (check_rs()) */\n      tag_146\n      jumpi\n        /* \"--CODEGEN--\":12:13   */\n      0x00\n        /* \"--CODEGEN--\":9:10   */\n      dup1\n        /* \"--CODEGEN--\":2:14   */\n      revert\n        /* \"Ehealth.sol\":5115:5135  require (check_rs()) */\n    tag_146:\n        /* \"Ehealth.sol\":1952:1953  0 */\n      0x00\n        /* \"Ehealth.sol\":1932:1941  _penyakit */\n      dup2\n        /* \"Ehealth.sol\":1926:1949  bytes(_penyakit).length */\n      mload\n        /* \"Ehealth.sol\":1926:1953  bytes(_penyakit).length > 0 */\n      gt\n        /* \"Ehealth.sol\":1918:1954  require(bytes(_penyakit).length > 0) */\n      tag_148\n      jumpi\n        /* \"--CODEGEN--\":12:13   */\n      0x00\n        /* \"--CODEGEN--\":9:10   */\n      dup1\n        /* \"--CODEGEN--\":2:14   */\n      revert\n        /* \"Ehealth.sol\":1918:1954  require(bytes(_penyakit).length > 0) */\n    tag_148:\n        /* \"Ehealth.sol\":1969:1975  uint i */\n      0x00\n        /* \"Ehealth.sol\":1965:2174  for(uint i; i<pasienList.length;i++){\r... */\n    tag_149:\n        /* \"Ehealth.sol\":1979:1989  pasienList */\n      0x02\n        /* \"Ehealth.sol\":1979:1996  pasienList.length */\n      dup1\n      sload\n      swap1\n      pop\n        /* \"Ehealth.sol\":1977:1978  i */\n      dup2\n        /* \"Ehealth.sol\":1977:1996  i<pasienList.length */\n      lt\n        /* \"Ehealth.sol\":1965:2174  for(uint i; i<pasienList.length;i++){\r... */\n      iszero\n      tag_150\n      jumpi\n        /* \"Ehealth.sol\":2060:2070  pasienList */\n      0x02\n        /* \"Ehealth.sol\":2071:2072  i */\n      dup2\n        /* \"Ehealth.sol\":2060:2073  pasienList[i] */\n      dup2\n      sload\n      dup2\n      lt\n      tag_152\n      jumpi\n      invalid\n    tag_152:\n      swap1\n      0x00\n      mstore\n      keccak256(0x00, 0x20)\n      swap1\n      0x08\n      mul\n      add\n        /* \"Ehealth.sol\":2060:2077  pasienList[i].nik */\n      0x00\n      add\n        /* \"Ehealth.sol\":2044:2079  keccak256(bytes(pasienList[i].nik)) */\n      mload(0x40)\n      tag_154\n      swap2\n      swap1\n      jump(tag_74)\n    tag_154:\n      mload(0x40)\n      dup1\n      swap2\n      sub\n      swap1\n      keccak256\n        /* \"Ehealth.sol\":2035:2038  _id */\n      dup4\n        /* \"Ehealth.sol\":2019:2040  keccak256(bytes(_id)) */\n      dup1\n      mload\n      swap1\n      0x20\n      add\n      keccak256\n        /* \"Ehealth.sol\":2019:2079  keccak256(bytes(_id)) == keccak256(bytes(pasienList[i].nik)) */\n      eq\n        /* \"Ehealth.sol\":2016:2163  if(keccak256(bytes(_id)) == keccak256(bytes(pasienList[i].nik))){\r... */\n      iszero\n      tag_155\n      jumpi\n        /* \"Ehealth.sol\":2099:2109  pasienList */\n      0x02\n        /* \"Ehealth.sol\":2110:2111  i */\n      dup2\n        /* \"Ehealth.sol\":2099:2112  pasienList[i] */\n      dup2\n      sload\n      dup2\n      lt\n      tag_156\n      jumpi\n      invalid\n    tag_156:\n      swap1\n      0x00\n      mstore\n      keccak256(0x00, 0x20)\n      swap1\n      0x08\n      mul\n      add\n        /* \"Ehealth.sol\":2099:2131  pasienList[i].informasi_penyakit */\n      0x07\n      add\n        /* \"Ehealth.sol\":2137:2146  _penyakit */\n      dup3\n        /* \"Ehealth.sol\":2099:2147  pasienList[i].informasi_penyakit.push(_penyakit) */\n      swap1\n      dup1\n        /* \"--CODEGEN--\":39:40   */\n      0x01\n        /* \"--CODEGEN--\":33:36   */\n      dup2\n        /* \"--CODEGEN--\":27:37   */\n      sload\n        /* \"--CODEGEN--\":23:41   */\n      add\n        /* \"--CODEGEN--\":57:67   */\n      dup1\n        /* \"--CODEGEN--\":52:55   */\n      dup3\n        /* \"--CODEGEN--\":45:68   */\n      sstore\n        /* \"--CODEGEN--\":79:89   */\n      dup1\n        /* \"--CODEGEN--\":72:89   */\n      swap2\n      pop\n        /* \"--CODEGEN--\":0:93   */\n      pop\n        /* \"Ehealth.sol\":2099:2147  pasienList[i].informasi_penyakit.push(_penyakit) */\n      0x01\n      swap1\n      sub\n      swap1\n      0x00\n      mstore\n      keccak256(0x00, 0x20)\n      add\n      0x00\n      swap1\n      swap2\n      swap1\n      swap2\n      swap1\n      swap2\n      pop\n      swap1\n      dup1\n      mload\n      swap1\n      0x20\n      add\n      swap1\n      tag_159\n      swap3\n      swap2\n      swap1\n      tag_160\n      jump\t// in\n    tag_159:\n      pop\n        /* \"Ehealth.sol\":2016:2163  if(keccak256(bytes(_id)) == keccak256(bytes(pasienList[i].nik))){\r... */\n    tag_155:\n        /* \"Ehealth.sol\":1997:2000  i++ */\n      dup1\n      dup1\n      0x01\n      add\n      swap2\n      pop\n      pop\n        /* \"Ehealth.sol\":1965:2174  for(uint i; i<pasienList.length;i++){\r... */\n      jump(tag_149)\n    tag_150:\n      pop\n        /* \"Ehealth.sol\":1829:2181  function addPenyakit (string memory _id, string memory _penyakit) isRs public {\r... */\n      pop\n      pop\n      jump\t// out\n        /* \"Ehealth.sol\":1478:1823  function addRumahSakit(address _ethaddress, string memory _nama, string memory _idRS, string memory _alamat) isManager public {\r... */\n    tag_36:\n        /* \"Ehealth.sol\":5052:5062  msg.sender */\n      caller\n        /* \"Ehealth.sol\":5041:5062  manager == msg.sender */\n      0xffffffffffffffffffffffffffffffffffffffff\n      and\n        /* \"Ehealth.sol\":5041:5048  manager */\n      0x00\n      dup1\n      swap1\n      sload\n      swap1\n      0x0100\n      exp\n      swap1\n      div\n      0xffffffffffffffffffffffffffffffffffffffff\n      and\n        /* \"Ehealth.sol\":5041:5062  manager == msg.sender */\n      0xffffffffffffffffffffffffffffffffffffffff\n      and\n      eq\n        /* \"Ehealth.sol\":5032:5063  require (manager == msg.sender) */\n      tag_162\n      jumpi\n        /* \"--CODEGEN--\":12:13   */\n      0x00\n        /* \"--CODEGEN--\":9:10   */\n      dup1\n        /* \"--CODEGEN--\":2:14   */\n      revert\n        /* \"Ehealth.sol\":5032:5063  require (manager == msg.sender) */\n    tag_162:\n        /* \"Ehealth.sol\":1615:1641  Rumah_Sakit memory newData */\n      tag_164\n      tag_165\n      jump\t// in\n    tag_164:\n        /* \"Ehealth.sol\":1644:1784  Rumah_Sakit({\r... */\n      mload(0x40)\n      dup1\n      0x80\n      add\n      0x40\n      mstore\n      dup1\n        /* \"Ehealth.sol\":1682:1693  _ethaddress */\n      dup7\n        /* \"Ehealth.sol\":1644:1784  Rumah_Sakit({\r... */\n      0xffffffffffffffffffffffffffffffffffffffff\n      and\n      dup2\n      mstore\n      0x20\n      add\n        /* \"Ehealth.sol\":1713:1718  _nama */\n      dup6\n        /* \"Ehealth.sol\":1644:1784  Rumah_Sakit({\r... */\n      dup2\n      mstore\n      0x20\n      add\n        /* \"Ehealth.sol\":1738:1743  _idRS */\n      dup5\n        /* \"Ehealth.sol\":1644:1784  Rumah_Sakit({\r... */\n      dup2\n      mstore\n      0x20\n      add\n        /* \"Ehealth.sol\":1765:1772  _alamat */\n      dup4\n        /* \"Ehealth.sol\":1644:1784  Rumah_Sakit({\r... */\n      dup2\n      mstore\n      pop\n        /* \"Ehealth.sol\":1615:1784  Rumah_Sakit memory newData = Rumah_Sakit({\r... */\n      swap1\n      pop\n        /* \"Ehealth.sol\":1795:1801  rsList */\n      0x03\n        /* \"Ehealth.sol\":1807:1814  newData */\n      dup2\n        /* \"Ehealth.sol\":1795:1815  rsList.push(newData) */\n      swap1\n      dup1\n        /* \"--CODEGEN--\":39:40   */\n      0x01\n        /* \"--CODEGEN--\":33:36   */\n      dup2\n        /* \"--CODEGEN--\":27:37   */\n      sload\n        /* \"--CODEGEN--\":23:41   */\n      add\n        /* \"--CODEGEN--\":57:67   */\n      dup1\n        /* \"--CODEGEN--\":52:55   */\n      dup3\n        /* \"--CODEGEN--\":45:68   */\n      sstore\n        /* \"--CODEGEN--\":79:89   */\n      dup1\n        /* \"--CODEGEN--\":72:89   */\n      swap2\n      pop\n        /* \"--CODEGEN--\":0:93   */\n      pop\n        /* \"Ehealth.sol\":1795:1815  rsList.push(newData) */\n      0x01\n      swap1\n      sub\n      swap1\n      0x00\n      mstore\n      keccak256(0x00, 0x20)\n      swap1\n      0x04\n      mul\n      add\n      0x00\n      swap1\n      swap2\n      swap1\n      swap2\n      swap1\n      swap2\n      pop\n      0x00\n      dup3\n      add\n      mload\n      dup2\n      0x00\n      add\n      exp(0x0100, 0x00)\n      dup2\n      sload\n      dup2\n      0xffffffffffffffffffffffffffffffffffffffff\n      mul\n      not\n      and\n      swap1\n      dup4\n      0xffffffffffffffffffffffffffffffffffffffff\n      and\n      mul\n      or\n      swap1\n      sstore\n      pop\n      0x20\n      dup3\n      add\n      mload\n      dup2\n      0x01\n      add\n      swap1\n      dup1\n      mload\n      swap1\n      0x20\n      add\n      swap1\n      tag_167\n      swap3\n      swap2\n      swap1\n      tag_160\n      jump\t// in\n    tag_167:\n      pop\n      0x40\n      dup3\n      add\n      mload\n      dup2\n      0x02\n      add\n      swap1\n      dup1\n      mload\n      swap1\n      0x20\n      add\n      swap1\n      tag_168\n      swap3\n      swap2\n      swap1\n      tag_160\n      jump\t// in\n    tag_168:\n      pop\n      0x60\n      dup3\n      add\n      mload\n      dup2\n      0x03\n      add\n      swap1\n      dup1\n      mload\n      swap1\n      0x20\n      add\n      swap1\n      tag_169\n      swap3\n      swap2\n      swap1\n      tag_160\n      jump\t// in\n    tag_169:\n      pop\n      pop\n      pop\n        /* \"Ehealth.sol\":5074:5075  _ */\n      pop\n        /* \"Ehealth.sol\":1478:1823  function addRumahSakit(address _ethaddress, string memory _nama, string memory _idRS, string memory _alamat) isManager public {\r... */\n      pop\n      pop\n      pop\n      pop\n      jump\t// out\n        /* \"Ehealth.sol\":1017:1466  function addPasien(string memory _nik, string memory _nama, uint8 _umur, string memory _alamat) isRs public{\r... */\n    tag_40:\n        /* \"Ehealth.sol\":5124:5134  check_rs() */\n      tag_171\n        /* \"Ehealth.sol\":5124:5132  check_rs */\n      tag_15\n        /* \"Ehealth.sol\":5124:5134  check_rs() */\n      jump\t// in\n    tag_171:\n        /* \"Ehealth.sol\":5115:5135  require (check_rs()) */\n      tag_172\n      jumpi\n        /* \"--CODEGEN--\":12:13   */\n      0x00\n        /* \"--CODEGEN--\":9:10   */\n      dup1\n        /* \"--CODEGEN--\":2:14   */\n      revert\n        /* \"Ehealth.sol\":5115:5135  require (check_rs()) */\n    tag_172:\n        /* \"Ehealth.sol\":1135:1158  Pasien memory newPasien */\n      tag_174\n      tag_175\n      jump\t// in\n    tag_174:\n        /* \"Ehealth.sol\":1162:1421  Pasien({\r... */\n      mload(0x40)\n      dup1\n      0x0120\n      add\n      0x40\n      mstore\n      dup1\n        /* \"Ehealth.sol\":1187:1191  _nik */\n      dup7\n        /* \"Ehealth.sol\":1162:1421  Pasien({\r... */\n      dup2\n      mstore\n      0x20\n      add\n        /* \"Ehealth.sol\":1211:1216  _nama */\n      dup6\n        /* \"Ehealth.sol\":1162:1421  Pasien({\r... */\n      dup2\n      mstore\n      0x20\n      add\n        /* \"Ehealth.sol\":1236:1241  _umur */\n      dup5\n        /* \"Ehealth.sol\":1162:1421  Pasien({\r... */\n      0xff\n      and\n      dup2\n      mstore\n      0x20\n      add\n        /* \"Ehealth.sol\":1262:1269  _alamat */\n      dup4\n        /* \"Ehealth.sol\":1162:1421  Pasien({\r... */\n      dup2\n      mstore\n      0x20\n      add\n      mload(0x40)\n      dup1\n      0x20\n      add\n      0x40\n      mstore\n      dup1\n      0x00\n      dup2\n      mstore\n      pop\n      dup2\n      mstore\n      0x20\n      add\n      mload(0x40)\n      dup1\n      0x20\n      add\n      0x40\n      mstore\n      dup1\n      0x00\n      dup2\n      mstore\n      pop\n      dup2\n      mstore\n      0x20\n      add\n        /* \"Ehealth.sol\":1359:1360  0 */\n      0x00\n        /* \"Ehealth.sol\":1162:1421  Pasien({\r... */\n      0xff\n      and\n      dup2\n      mstore\n      0x20\n      add\n        /* \"Ehealth.sol\":1341:1342  0 */\n      0x00\n        /* \"Ehealth.sol\":1162:1421  Pasien({\r... */\n      0xff\n      and\n      dup2\n      mstore\n      0x20\n      add\n        /* \"Ehealth.sol\":1407:1408  0 */\n      0x00\n        /* \"Ehealth.sol\":1394:1409  new string[](0) */\n      0xffffffffffffffff\n      dup2\n      gt\n        /* \"--CODEGEN--\":5:14   */\n      dup1\n        /* \"--CODEGEN--\":2:4   */\n      iszero\n      tag_176\n      jumpi\n        /* \"--CODEGEN--\":27:28   */\n      0x00\n        /* \"--CODEGEN--\":24:25   */\n      dup1\n        /* \"--CODEGEN--\":17:29   */\n      revert\n        /* \"--CODEGEN--\":2:4   */\n    tag_176:\n        /* \"Ehealth.sol\":1394:1409  new string[](0) */\n      pop\n      mload(0x40)\n      swap1\n      dup1\n      dup3\n      mstore\n      dup1\n      0x20\n      mul\n      0x20\n      add\n      dup3\n      add\n      0x40\n      mstore\n      dup1\n      iszero\n      tag_177\n      jumpi\n      dup2\n      0x20\n      add\n    tag_178:\n      0x60\n      dup2\n      mstore\n      0x20\n      add\n      swap1\n      0x01\n      swap1\n      sub\n      swap1\n      dup2\n      tag_178\n      jumpi\n      swap1\n      pop\n    tag_177:\n      pop\n        /* \"Ehealth.sol\":1162:1421  Pasien({\r... */\n      dup2\n      mstore\n      pop\n        /* \"Ehealth.sol\":1135:1421  Pasien memory newPasien =  Pasien({\r... */\n      swap1\n      pop\n        /* \"Ehealth.sol\":1432:1442  pasienList */\n      0x02\n        /* \"Ehealth.sol\":1448:1457  newPasien */\n      dup2\n        /* \"Ehealth.sol\":1432:1458  pasienList.push(newPasien) */\n      swap1\n      dup1\n        /* \"--CODEGEN--\":39:40   */\n      0x01\n        /* \"--CODEGEN--\":33:36   */\n      dup2\n        /* \"--CODEGEN--\":27:37   */\n      sload\n        /* \"--CODEGEN--\":23:41   */\n      add\n        /* \"--CODEGEN--\":57:67   */\n      dup1\n        /* \"--CODEGEN--\":52:55   */\n      dup3\n        /* \"--CODEGEN--\":45:68   */\n      sstore\n        /* \"--CODEGEN--\":79:89   */\n      dup1\n        /* \"--CODEGEN--\":72:89   */\n      swap2\n      pop\n        /* \"--CODEGEN--\":0:93   */\n      pop\n        /* \"Ehealth.sol\":1432:1458  pasienList.push(newPasien) */\n      0x01\n      swap1\n      sub\n      swap1\n      0x00\n      mstore\n      keccak256(0x00, 0x20)\n      swap1\n      0x08\n      mul\n      add\n      0x00\n      swap1\n      swap2\n      swap1\n      swap2\n      swap1\n      swap2\n      pop\n      0x00\n      dup3\n      add\n      mload\n      dup2\n      0x00\n      add\n      swap1\n      dup1\n      mload\n      swap1\n      0x20\n      add\n      swap1\n      tag_180\n      swap3\n      swap2\n      swap1\n      tag_160\n      jump\t// in\n    tag_180:\n      pop\n      0x20\n      dup3\n      add\n      mload\n      dup2\n      0x01\n      add\n      swap1\n      dup1\n      mload\n      swap1\n      0x20\n      add\n      swap1\n      tag_181\n      swap3\n      swap2\n      swap1\n      tag_160\n      jump\t// in\n    tag_181:\n      pop\n      0x40\n      dup3\n      add\n      mload\n      dup2\n      0x02\n      add\n      exp(0x0100, 0x00)\n      dup2\n      sload\n      dup2\n      0xff\n      mul\n      not\n      and\n      swap1\n      dup4\n      0xff\n      and\n      mul\n      or\n      swap1\n      sstore\n      pop\n      0x60\n      dup3\n      add\n      mload\n      dup2\n      0x03\n      add\n      swap1\n      dup1\n      mload\n      swap1\n      0x20\n      add\n      swap1\n      tag_182\n      swap3\n      swap2\n      swap1\n      tag_160\n      jump\t// in\n    tag_182:\n      pop\n      0x80\n      dup3\n      add\n      mload\n      dup2\n      0x04\n      add\n      swap1\n      dup1\n      mload\n      swap1\n      0x20\n      add\n      swap1\n      tag_183\n      swap3\n      swap2\n      swap1\n      tag_160\n      jump\t// in\n    tag_183:\n      pop\n      0xa0\n      dup3\n      add\n      mload\n      dup2\n      0x05\n      add\n      swap1\n      dup1\n      mload\n      swap1\n      0x20\n      add\n      swap1\n      tag_184\n      swap3\n      swap2\n      swap1\n      tag_160\n      jump\t// in\n    tag_184:\n      pop\n      0xc0\n      dup3\n      add\n      mload\n      dup2\n      0x06\n      add\n      exp(0x0100, 0x00)\n      dup2\n      sload\n      dup2\n      0xff\n      mul\n      not\n      and\n      swap1\n      dup4\n      0xff\n      and\n      mul\n      or\n      swap1\n      sstore\n      pop\n      0xe0\n      dup3\n      add\n      mload\n      dup2\n      0x06\n      add\n      exp(0x0100, 0x01)\n      dup2\n      sload\n      dup2\n      0xff\n      mul\n      not\n      and\n      swap1\n      dup4\n      0xff\n      and\n      mul\n      or\n      swap1\n      sstore\n      pop\n      0x0100\n      dup3\n      add\n      mload\n      dup2\n      0x07\n      add\n      swap1\n      dup1\n      mload\n      swap1\n      0x20\n      add\n      swap1\n      tag_185\n      swap3\n      swap2\n      swap1\n      tag_186\n      jump\t// in\n    tag_185:\n      pop\n      pop\n      pop\n        /* \"Ehealth.sol\":5146:5147  _ */\n      pop\n        /* \"Ehealth.sol\":1017:1466  function addPasien(string memory _nik, string memory _nama, uint8 _umur, string memory _alamat) isRs public{\r... */\n      pop\n      pop\n      pop\n      pop\n      jump\t// out\n        /* \"Ehealth.sol\":2187:2673  function addInfoKesehatan (string memory _id, string memory _gulaDarah, string memory _tekananDarah, uint8 _bb, uint8 _tb) isRs public {\r... */\n    tag_44:\n        /* \"Ehealth.sol\":5124:5134  check_rs() */\n      tag_188\n        /* \"Ehealth.sol\":5124:5132  check_rs */\n      tag_15\n        /* \"Ehealth.sol\":5124:5134  check_rs() */\n      jump\t// in\n    tag_188:\n        /* \"Ehealth.sol\":5115:5135  require (check_rs()) */\n      tag_189\n      jumpi\n        /* \"--CODEGEN--\":12:13   */\n      0x00\n        /* \"--CODEGEN--\":9:10   */\n      dup1\n        /* \"--CODEGEN--\":2:14   */\n      revert\n        /* \"Ehealth.sol\":5115:5135  require (check_rs()) */\n    tag_189:\n        /* \"Ehealth.sol\":2337:2343  uint i */\n      0x00\n        /* \"Ehealth.sol\":2333:2666  for(uint i; i<pasienList.length; i++){\r... */\n    tag_191:\n        /* \"Ehealth.sol\":2347:2357  pasienList */\n      0x02\n        /* \"Ehealth.sol\":2347:2364  pasienList.length */\n      dup1\n      sload\n      swap1\n      pop\n        /* \"Ehealth.sol\":2345:2346  i */\n      dup2\n        /* \"Ehealth.sol\":2345:2364  i<pasienList.length */\n      lt\n        /* \"Ehealth.sol\":2333:2666  for(uint i; i<pasienList.length; i++){\r... */\n      iszero\n      tag_192\n      jumpi\n        /* \"Ehealth.sol\":2429:2439  pasienList */\n      0x02\n        /* \"Ehealth.sol\":2440:2441  i */\n      dup2\n        /* \"Ehealth.sol\":2429:2442  pasienList[i] */\n      dup2\n      sload\n      dup2\n      lt\n      tag_194\n      jumpi\n      invalid\n    tag_194:\n      swap1\n      0x00\n      mstore\n      keccak256(0x00, 0x20)\n      swap1\n      0x08\n      mul\n      add\n        /* \"Ehealth.sol\":2429:2446  pasienList[i].nik */\n      0x00\n      add\n        /* \"Ehealth.sol\":2413:2448  keccak256(bytes(pasienList[i].nik)) */\n      mload(0x40)\n      tag_196\n      swap2\n      swap1\n      jump(tag_74)\n    tag_196:\n      mload(0x40)\n      dup1\n      swap2\n      sub\n      swap1\n      keccak256\n        /* \"Ehealth.sol\":2404:2407  _id */\n      dup7\n        /* \"Ehealth.sol\":2388:2409  keccak256(bytes(_id)) */\n      dup1\n      mload\n      swap1\n      0x20\n      add\n      keccak256\n        /* \"Ehealth.sol\":2388:2448  keccak256(bytes(_id)) == keccak256(bytes(pasienList[i].nik)) */\n      eq\n        /* \"Ehealth.sol\":2385:2655  if(keccak256(bytes(_id)) == keccak256(bytes(pasienList[i].nik))){\r... */\n      iszero\n      tag_197\n      jumpi\n        /* \"Ehealth.sol\":2492:2502  _gulaDarah */\n      dup5\n        /* \"Ehealth.sol\":2468:2478  pasienList */\n      0x02\n        /* \"Ehealth.sol\":2479:2480  i */\n      dup3\n        /* \"Ehealth.sol\":2468:2481  pasienList[i] */\n      dup2\n      sload\n      dup2\n      lt\n      tag_198\n      jumpi\n      invalid\n    tag_198:\n      swap1\n      0x00\n      mstore\n      keccak256(0x00, 0x20)\n      swap1\n      0x08\n      mul\n      add\n        /* \"Ehealth.sol\":2468:2491  pasienList[i].gulaDarah */\n      0x04\n      add\n        /* \"Ehealth.sol\":2468:2502  pasienList[i].gulaDarah=_gulaDarah */\n      swap1\n      dup1\n      mload\n      swap1\n      0x20\n      add\n      swap1\n      tag_200\n      swap3\n      swap2\n      swap1\n      tag_160\n      jump\t// in\n    tag_200:\n      pop\n        /* \"Ehealth.sol\":2548:2561  _tekananDarah */\n      dup4\n        /* \"Ehealth.sol\":2521:2531  pasienList */\n      0x02\n        /* \"Ehealth.sol\":2532:2533  i */\n      dup3\n        /* \"Ehealth.sol\":2521:2534  pasienList[i] */\n      dup2\n      sload\n      dup2\n      lt\n      tag_201\n      jumpi\n      invalid\n    tag_201:\n      swap1\n      0x00\n      mstore\n      keccak256(0x00, 0x20)\n      swap1\n      0x08\n      mul\n      add\n        /* \"Ehealth.sol\":2521:2547  pasienList[i].tekananDarah */\n      0x05\n      add\n        /* \"Ehealth.sol\":2521:2561  pasienList[i].tekananDarah=_tekananDarah */\n      swap1\n      dup1\n      mload\n      swap1\n      0x20\n      add\n      swap1\n      tag_203\n      swap3\n      swap2\n      swap1\n      tag_160\n      jump\t// in\n    tag_203:\n      pop\n        /* \"Ehealth.sol\":2597:2600  _bb */\n      dup3\n        /* \"Ehealth.sol\":2580:2590  pasienList */\n      0x02\n        /* \"Ehealth.sol\":2591:2592  i */\n      dup3\n        /* \"Ehealth.sol\":2580:2593  pasienList[i] */\n      dup2\n      sload\n      dup2\n      lt\n      tag_204\n      jumpi\n      invalid\n    tag_204:\n      swap1\n      0x00\n      mstore\n      keccak256(0x00, 0x20)\n      swap1\n      0x08\n      mul\n      add\n        /* \"Ehealth.sol\":2580:2596  pasienList[i].bb */\n      0x06\n      add\n      0x01\n        /* \"Ehealth.sol\":2580:2600  pasienList[i].bb=_bb */\n      0x0100\n      exp\n      dup2\n      sload\n      dup2\n      0xff\n      mul\n      not\n      and\n      swap1\n      dup4\n      0xff\n      and\n      mul\n      or\n      swap1\n      sstore\n      pop\n        /* \"Ehealth.sol\":2636:2639  _tb */\n      dup2\n        /* \"Ehealth.sol\":2619:2629  pasienList */\n      0x02\n        /* \"Ehealth.sol\":2630:2631  i */\n      dup3\n        /* \"Ehealth.sol\":2619:2632  pasienList[i] */\n      dup2\n      sload\n      dup2\n      lt\n      tag_206\n      jumpi\n      invalid\n    tag_206:\n      swap1\n      0x00\n      mstore\n      keccak256(0x00, 0x20)\n      swap1\n      0x08\n      mul\n      add\n        /* \"Ehealth.sol\":2619:2635  pasienList[i].tb */\n      0x06\n      add\n      0x00\n        /* \"Ehealth.sol\":2619:2639  pasienList[i].tb=_tb */\n      0x0100\n      exp\n      dup2\n      sload\n      dup2\n      0xff\n      mul\n      not\n      and\n      swap1\n      dup4\n      0xff\n      and\n      mul\n      or\n      swap1\n      sstore\n      pop\n        /* \"Ehealth.sol\":2385:2655  if(keccak256(bytes(_id)) == keccak256(bytes(pasienList[i].nik))){\r... */\n    tag_197:\n        /* \"Ehealth.sol\":2366:2369  i++ */\n      dup1\n      dup1\n      0x01\n      add\n      swap2\n      pop\n      pop\n        /* \"Ehealth.sol\":2333:2666  for(uint i; i<pasienList.length; i++){\r... */\n      jump(tag_191)\n    tag_192:\n      pop\n        /* \"Ehealth.sol\":2187:2673  function addInfoKesehatan (string memory _id, string memory _gulaDarah, string memory _tekananDarah, uint8 _bb, uint8 _tb) isRs public {\r... */\n      pop\n      pop\n      pop\n      pop\n      pop\n      jump\t// out\n        /* \"Ehealth.sol\":846:930  function getManager() public view returns(address) {\r... */\n    tag_46:\n        /* \"Ehealth.sol\":888:895  address */\n      0x00\n        /* \"Ehealth.sol\":915:922  manager */\n      dup1\n      0x00\n      swap1\n      sload\n      swap1\n      0x0100\n      exp\n      swap1\n      div\n      0xffffffffffffffffffffffffffffffffffffffff\n      and\n        /* \"Ehealth.sol\":908:922  return manager */\n      swap1\n      pop\n        /* \"Ehealth.sol\":846:930  function getManager() public view returns(address) {\r... */\n      swap1\n      jump\t// out\n        /* \"Ehealth.sol\":4010:4627  function getinfors(string memory _idRS) isManager public view returns(address, string memory, string memory, string memory){\r... */\n    tag_51:\n        /* \"Ehealth.sol\":4080:4087  address */\n      0x00\n        /* \"Ehealth.sol\":4089:4102  string memory */\n      0x60\n        /* \"Ehealth.sol\":4104:4117  string memory */\n      dup1\n        /* \"Ehealth.sol\":4119:4132  string memory */\n      0x60\n        /* \"Ehealth.sol\":5052:5062  msg.sender */\n      caller\n        /* \"Ehealth.sol\":5041:5062  manager == msg.sender */\n      0xffffffffffffffffffffffffffffffffffffffff\n      and\n        /* \"Ehealth.sol\":5041:5048  manager */\n      0x00\n      dup1\n      swap1\n      sload\n      swap1\n      0x0100\n      exp\n      swap1\n      div\n      0xffffffffffffffffffffffffffffffffffffffff\n      and\n        /* \"Ehealth.sol\":5041:5062  manager == msg.sender */\n      0xffffffffffffffffffffffffffffffffffffffff\n      and\n      eq\n        /* \"Ehealth.sol\":5032:5063  require (manager == msg.sender) */\n      tag_210\n      jumpi\n        /* \"--CODEGEN--\":12:13   */\n      0x00\n        /* \"--CODEGEN--\":9:10   */\n      dup1\n        /* \"--CODEGEN--\":2:14   */\n      revert\n        /* \"Ehealth.sol\":5032:5063  require (manager == msg.sender) */\n    tag_210:\n        /* \"Ehealth.sol\":4144:4163  address _ethaddress */\n      0x00\n        /* \"Ehealth.sol\":4174:4193  string memory _nama */\n      0x60\n        /* \"Ehealth.sol\":4204:4225  string memory _alamat */\n      dup1\n        /* \"Ehealth.sol\":4250:4256  uint i */\n      0x00\n        /* \"Ehealth.sol\":4259:4260  0 */\n      dup1\n        /* \"Ehealth.sol\":4250:4260  uint i = 0 */\n      swap1\n      pop\n        /* \"Ehealth.sol\":4246:4567  for(uint i = 0; i<rsList.length;i++){\r... */\n    tag_212:\n        /* \"Ehealth.sol\":4264:4270  rsList */\n      0x03\n        /* \"Ehealth.sol\":4264:4277  rsList.length */\n      dup1\n      sload\n      swap1\n      pop\n        /* \"Ehealth.sol\":4262:4263  i */\n      dup2\n        /* \"Ehealth.sol\":4262:4277  i<rsList.length */\n      lt\n        /* \"Ehealth.sol\":4246:4567  for(uint i = 0; i<rsList.length;i++){\r... */\n      iszero\n      tag_213\n      jumpi\n        /* \"Ehealth.sol\":4343:4349  rsList */\n      0x03\n        /* \"Ehealth.sol\":4350:4351  i */\n      dup2\n        /* \"Ehealth.sol\":4343:4352  rsList[i] */\n      dup2\n      sload\n      dup2\n      lt\n      tag_215\n      jumpi\n      invalid\n    tag_215:\n      swap1\n      0x00\n      mstore\n      keccak256(0x00, 0x20)\n      swap1\n      0x04\n      mul\n      add\n        /* \"Ehealth.sol\":4343:4357  rsList[i].idRS */\n      0x02\n      add\n        /* \"Ehealth.sol\":4327:4359  keccak256(bytes(rsList[i].idRS)) */\n      mload(0x40)\n      tag_217\n      swap2\n      swap1\n      jump(tag_74)\n    tag_217:\n      mload(0x40)\n      dup1\n      swap2\n      sub\n      swap1\n      keccak256\n        /* \"Ehealth.sol\":4316:4321  _idRS */\n      dup10\n        /* \"Ehealth.sol\":4300:4323  keccak256(bytes(_idRS)) */\n      dup1\n      mload\n      swap1\n      0x20\n      add\n      keccak256\n        /* \"Ehealth.sol\":4300:4359  keccak256(bytes(_idRS)) == keccak256(bytes(rsList[i].idRS)) */\n      eq\n        /* \"Ehealth.sol\":4297:4556  if(keccak256(bytes(_idRS)) == keccak256(bytes(rsList[i].idRS))){\r... */\n      iszero\n      tag_218\n      jumpi\n        /* \"Ehealth.sol\":4393:4399  rsList */\n      0x03\n        /* \"Ehealth.sol\":4400:4401  i */\n      dup2\n        /* \"Ehealth.sol\":4393:4402  rsList[i] */\n      dup2\n      sload\n      dup2\n      lt\n      tag_219\n      jumpi\n      invalid\n    tag_219:\n      swap1\n      0x00\n      mstore\n      keccak256(0x00, 0x20)\n      swap1\n      0x04\n      mul\n      add\n        /* \"Ehealth.sol\":4393:4413  rsList[i].ethaddress */\n      0x00\n      add\n      0x00\n      swap1\n      sload\n      swap1\n      0x0100\n      exp\n      swap1\n      div\n      0xffffffffffffffffffffffffffffffffffffffff\n      and\n        /* \"Ehealth.sol\":4379:4413  _ethaddress = rsList[i].ethaddress */\n      swap4\n      pop\n        /* \"Ehealth.sol\":4440:4446  rsList */\n      0x03\n        /* \"Ehealth.sol\":4447:4448  i */\n      dup2\n        /* \"Ehealth.sol\":4440:4449  rsList[i] */\n      dup2\n      sload\n      dup2\n      lt\n      tag_221\n      jumpi\n      invalid\n    tag_221:\n      swap1\n      0x00\n      mstore\n      keccak256(0x00, 0x20)\n      swap1\n      0x04\n      mul\n      add\n        /* \"Ehealth.sol\":4440:4454  rsList[i].nama */\n      0x01\n      add\n        /* \"Ehealth.sol\":4432:4454  _nama = rsList[i].nama */\n      dup1\n      sload\n      0x01\n      dup2\n      0x01\n      and\n      iszero\n      0x0100\n      mul\n      sub\n      and\n      0x02\n      swap1\n      div\n      dup1\n      0x1f\n      add\n      0x20\n      dup1\n      swap2\n      div\n      mul\n      0x20\n      add\n      mload(0x40)\n      swap1\n      dup2\n      add\n      0x40\n      mstore\n      dup1\n      swap3\n      swap2\n      swap1\n      dup2\n      dup2\n      mstore\n      0x20\n      add\n      dup3\n      dup1\n      sload\n      0x01\n      dup2\n      0x01\n      and\n      iszero\n      0x0100\n      mul\n      sub\n      and\n      0x02\n      swap1\n      div\n      dup1\n      iszero\n      tag_223\n      jumpi\n      dup1\n      0x1f\n      lt\n      tag_224\n      jumpi\n      0x0100\n      dup1\n      dup4\n      sload\n      div\n      mul\n      dup4\n      mstore\n      swap2\n      0x20\n      add\n      swap2\n      jump(tag_223)\n    tag_224:\n      dup3\n      add\n      swap2\n      swap1\n      0x00\n      mstore\n      keccak256(0x00, 0x20)\n      swap1\n    tag_225:\n      dup2\n      sload\n      dup2\n      mstore\n      swap1\n      0x01\n      add\n      swap1\n      0x20\n      add\n      dup1\n      dup4\n      gt\n      tag_225\n      jumpi\n      dup3\n      swap1\n      sub\n      0x1f\n      and\n      dup3\n      add\n      swap2\n    tag_223:\n      pop\n      pop\n      pop\n      pop\n      pop\n      swap3\n      pop\n        /* \"Ehealth.sol\":4481:4487  rsList */\n      0x03\n        /* \"Ehealth.sol\":4488:4489  i */\n      dup2\n        /* \"Ehealth.sol\":4481:4490  rsList[i] */\n      dup2\n      sload\n      dup2\n      lt\n      tag_226\n      jumpi\n      invalid\n    tag_226:\n      swap1\n      0x00\n      mstore\n      keccak256(0x00, 0x20)\n      swap1\n      0x04\n      mul\n      add\n        /* \"Ehealth.sol\":4481:4495  rsList[i].idRS */\n      0x02\n      add\n        /* \"Ehealth.sol\":4473:4495  _idRS = rsList[i].idRS */\n      dup1\n      sload\n      0x01\n      dup2\n      0x01\n      and\n      iszero\n      0x0100\n      mul\n      sub\n      and\n      0x02\n      swap1\n      div\n      dup1\n      0x1f\n      add\n      0x20\n      dup1\n      swap2\n      div\n      mul\n      0x20\n      add\n      mload(0x40)\n      swap1\n      dup2\n      add\n      0x40\n      mstore\n      dup1\n      swap3\n      swap2\n      swap1\n      dup2\n      dup2\n      mstore\n      0x20\n      add\n      dup3\n      dup1\n      sload\n      0x01\n      dup2\n      0x01\n      and\n      iszero\n      0x0100\n      mul\n      sub\n      and\n      0x02\n      swap1\n      div\n      dup1\n      iszero\n      tag_228\n      jumpi\n      dup1\n      0x1f\n      lt\n      tag_229\n      jumpi\n      0x0100\n      dup1\n      dup4\n      sload\n      div\n      mul\n      dup4\n      mstore\n      swap2\n      0x20\n      add\n      swap2\n      jump(tag_228)\n    tag_229:\n      dup3\n      add\n      swap2\n      swap1\n      0x00\n      mstore\n      keccak256(0x00, 0x20)\n      swap1\n    tag_230:\n      dup2\n      sload\n      dup2\n      mstore\n      swap1\n      0x01\n      add\n      swap1\n      0x20\n      add\n      dup1\n      dup4\n      gt\n      tag_230\n      jumpi\n      dup3\n      swap1\n      sub\n      0x1f\n      and\n      dup3\n      add\n      swap2\n    tag_228:\n      pop\n      pop\n      pop\n      pop\n      pop\n      swap9\n      pop\n        /* \"Ehealth.sol\":4524:4530  rsList */\n      0x03\n        /* \"Ehealth.sol\":4531:4532  i */\n      dup2\n        /* \"Ehealth.sol\":4524:4533  rsList[i] */\n      dup2\n      sload\n      dup2\n      lt\n      tag_231\n      jumpi\n      invalid\n    tag_231:\n      swap1\n      0x00\n      mstore\n      keccak256(0x00, 0x20)\n      swap1\n      0x04\n      mul\n      add\n        /* \"Ehealth.sol\":4524:4540  rsList[i].alamat */\n      0x03\n      add\n        /* \"Ehealth.sol\":4514:4540  _alamat = rsList[i].alamat */\n      dup1\n      sload\n      0x01\n      dup2\n      0x01\n      and\n      iszero\n      0x0100\n      mul\n      sub\n      and\n      0x02\n      swap1\n      div\n      dup1\n      0x1f\n      add\n      0x20\n      dup1\n      swap2\n      div\n      mul\n      0x20\n      add\n      mload(0x40)\n      swap1\n      dup2\n      add\n      0x40\n      mstore\n      dup1\n      swap3\n      swap2\n      swap1\n      dup2\n      dup2\n      mstore\n      0x20\n      add\n      dup3\n      dup1\n      sload\n      0x01\n      dup2\n      0x01\n      and\n      iszero\n      0x0100\n      mul\n      sub\n      and\n      0x02\n      swap1\n      div\n      dup1\n      iszero\n      tag_233\n      jumpi\n      dup1\n      0x1f\n      lt\n      tag_234\n      jumpi\n      0x0100\n      dup1\n      dup4\n      sload\n      div\n      mul\n      dup4\n      mstore\n      swap2\n      0x20\n      add\n      swap2\n      jump(tag_233)\n    tag_234:\n      dup3\n      add\n      swap2\n      swap1\n      0x00\n      mstore\n      keccak256(0x00, 0x20)\n      swap1\n    tag_235:\n      dup2\n      sload\n      dup2\n      mstore\n      swap1\n      0x01\n      add\n      swap1\n      0x20\n      add\n      dup1\n      dup4\n      gt\n      tag_235\n      jumpi\n      dup3\n      swap1\n      sub\n      0x1f\n      and\n      dup3\n      add\n      swap2\n    tag_233:\n      pop\n      pop\n      pop\n      pop\n      pop\n      swap2\n      pop\n        /* \"Ehealth.sol\":4297:4556  if(keccak256(bytes(_idRS)) == keccak256(bytes(rsList[i].idRS))){\r... */\n    tag_218:\n        /* \"Ehealth.sol\":4278:4281  i++ */\n      dup1\n      dup1\n      0x01\n      add\n      swap2\n      pop\n      pop\n        /* \"Ehealth.sol\":4246:4567  for(uint i = 0; i<rsList.length;i++){\r... */\n      jump(tag_212)\n    tag_213:\n      pop\n        /* \"Ehealth.sol\":4584:4595  _ethaddress */\n      dup3\n        /* \"Ehealth.sol\":4597:4602  _nama */\n      dup3\n        /* \"Ehealth.sol\":4604:4609  _idRS */\n      dup10\n        /* \"Ehealth.sol\":4611:4618  _alamat */\n      dup4\n        /* \"Ehealth.sol\":4577:4619  return(_ethaddress, _nama, _idRS, _alamat) */\n      swap7\n      pop\n      swap7\n      pop\n      swap7\n      pop\n      swap7\n      pop\n      pop\n      pop\n      pop\n        /* \"Ehealth.sol\":4010:4627  function getinfors(string memory _idRS) isManager public view returns(address, string memory, string memory, string memory){\r... */\n      swap2\n      swap4\n      pop\n      swap2\n      swap4\n      jump\t// out\n        /* \"Ehealth.sol\":4861:4993  function check_manager() public view returns(bool) {\r... */\n    tag_55:\n        /* \"Ehealth.sol\":4906:4910  bool */\n      0x00\n        /* \"Ehealth.sol\":4937:4947  msg.sender */\n      caller\n        /* \"Ehealth.sol\":4926:4947  manager == msg.sender */\n      0xffffffffffffffffffffffffffffffffffffffff\n      and\n        /* \"Ehealth.sol\":4926:4933  manager */\n      0x00\n      dup1\n      swap1\n      sload\n      swap1\n      0x0100\n      exp\n      swap1\n      div\n      0xffffffffffffffffffffffffffffffffffffffff\n      and\n        /* \"Ehealth.sol\":4926:4947  manager == msg.sender */\n      0xffffffffffffffffffffffffffffffffffffffff\n      and\n      eq\n        /* \"Ehealth.sol\":4923:4986  if(manager == msg.sender){\r... */\n      iszero\n      tag_237\n      jumpi\n        /* \"Ehealth.sol\":4970:4974  true */\n      0x01\n        /* \"Ehealth.sol\":4963:4974  return true */\n      swap1\n      pop\n      jump(tag_236)\n        /* \"Ehealth.sol\":4923:4986  if(manager == msg.sender){\r... */\n    tag_237:\n        /* \"Ehealth.sol\":4861:4993  function check_manager() public view returns(bool) {\r... */\n    tag_236:\n      swap1\n      jump\t// out\n        /* \"Ehealth.sol\":95:5158  contract Ehealth{\r... */\n    tag_160:\n      dup3\n      dup1\n      sload\n      0x01\n      dup2\n      0x01\n      and\n      iszero\n      0x0100\n      mul\n      sub\n      and\n      0x02\n      swap1\n      div\n      swap1\n      0x00\n      mstore\n      keccak256(0x00, 0x20)\n      swap1\n      0x1f\n      add\n      0x20\n      swap1\n      div\n      dup2\n      add\n      swap3\n      dup3\n      0x1f\n      lt\n      tag_239\n      jumpi\n      dup1\n      mload\n      not(0xff)\n      and\n      dup4\n      dup1\n      add\n      or\n      dup6\n      sstore\n      jump(tag_238)\n    tag_239:\n      dup3\n      dup1\n      add\n      0x01\n      add\n      dup6\n      sstore\n      dup3\n      iszero\n      tag_238\n      jumpi\n      swap2\n      dup3\n      add\n    tag_240:\n      dup3\n      dup2\n      gt\n      iszero\n      tag_241\n      jumpi\n      dup3\n      mload\n      dup3\n      sstore\n      swap2\n      0x20\n      add\n      swap2\n      swap1\n      0x01\n      add\n      swap1\n      jump(tag_240)\n    tag_241:\n    tag_238:\n      pop\n      swap1\n      pop\n      tag_242\n      swap2\n      swap1\n      tag_243\n      jump\t// in\n    tag_242:\n      pop\n      swap1\n      jump\t// out\n    tag_165:\n      mload(0x40)\n      dup1\n      0x80\n      add\n      0x40\n      mstore\n      dup1\n      and(0xffffffffffffffffffffffffffffffffffffffff, 0x00)\n      dup2\n      mstore\n      0x20\n      add\n      0x60\n      dup2\n      mstore\n      0x20\n      add\n      0x60\n      dup2\n      mstore\n      0x20\n      add\n      0x60\n      dup2\n      mstore\n      pop\n      swap1\n      jump\t// out\n    tag_175:\n      mload(0x40)\n      dup1\n      0x0120\n      add\n      0x40\n      mstore\n      dup1\n      0x60\n      dup2\n      mstore\n      0x20\n      add\n      0x60\n      dup2\n      mstore\n      0x20\n      add\n      and(0xff, 0x00)\n      dup2\n      mstore\n      0x20\n      add\n      0x60\n      dup2\n      mstore\n      0x20\n      add\n      0x60\n      dup2\n      mstore\n      0x20\n      add\n      0x60\n      dup2\n      mstore\n      0x20\n      add\n      and(0xff, 0x00)\n      dup2\n      mstore\n      0x20\n      add\n      and(0xff, 0x00)\n      dup2\n      mstore\n      0x20\n      add\n      0x60\n      dup2\n      mstore\n      pop\n      swap1\n      jump\t// out\n    tag_186:\n      dup3\n      dup1\n      sload\n      dup3\n      dup3\n      sstore\n      swap1\n      0x00\n      mstore\n      keccak256(0x00, 0x20)\n      swap1\n      dup2\n      add\n      swap3\n      dup3\n      iszero\n      tag_244\n      jumpi\n      swap2\n      0x20\n      mul\n      dup3\n      add\n    tag_245:\n      dup3\n      dup2\n      gt\n      iszero\n      tag_246\n      jumpi\n      dup3\n      mload\n      dup3\n      swap1\n      dup1\n      mload\n      swap1\n      0x20\n      add\n      swap1\n      tag_247\n      swap3\n      swap2\n      swap1\n      tag_160\n      jump\t// in\n    tag_247:\n      pop\n      swap2\n      0x20\n      add\n      swap2\n      swap1\n      0x01\n      add\n      swap1\n      jump(tag_245)\n    tag_246:\n    tag_244:\n      pop\n      swap1\n      pop\n      tag_248\n      swap2\n      swap1\n      tag_249\n      jump\t// in\n    tag_248:\n      pop\n      swap1\n      jump\t// out\n    tag_243:\n      tag_250\n      swap2\n      swap1\n    tag_251:\n      dup1\n      dup3\n      gt\n      iszero\n      tag_252\n      jumpi\n      0x00\n      dup2\n      0x00\n      swap1\n      sstore\n      pop\n      0x01\n      add\n      jump(tag_251)\n    tag_252:\n      pop\n      swap1\n      jump\n    tag_250:\n      swap1\n      jump\t// out\n    tag_249:\n      tag_253\n      swap2\n      swap1\n    tag_254:\n      dup1\n      dup3\n      gt\n      iszero\n      tag_255\n      jumpi\n      0x00\n      dup2\n      dup2\n      tag_256\n      swap2\n      swap1\n      tag_257\n      jump\t// in\n    tag_256:\n      pop\n      0x01\n      add\n      jump(tag_254)\n    tag_255:\n      pop\n      swap1\n      jump\n    tag_253:\n      swap1\n      jump\t// out\n    tag_257:\n      pop\n      dup1\n      sload\n      0x01\n      dup2\n      0x01\n      and\n      iszero\n      0x0100\n      mul\n      sub\n      and\n      0x02\n      swap1\n      div\n      0x00\n      dup3\n      sstore\n      dup1\n      0x1f\n      lt\n      tag_259\n      jumpi\n      pop\n      jump(tag_258)\n    tag_259:\n      0x1f\n      add\n      0x20\n      swap1\n      div\n      swap1\n      0x00\n      mstore\n      keccak256(0x00, 0x20)\n      swap1\n      dup2\n      add\n      swap1\n      tag_260\n      swap2\n      swap1\n      tag_243\n      jump\t// in\n    tag_260:\n    tag_258:\n      pop\n      jump\t// out\n        /* \"--CODEGEN--\":5:135   */\n    tag_262:\n      0x00\n        /* \"--CODEGEN--\":85:91   */\n      dup2\n        /* \"--CODEGEN--\":72:92   */\n      calldataload\n        /* \"--CODEGEN--\":63:92   */\n      swap1\n      pop\n        /* \"--CODEGEN--\":97:130   */\n      tag_264\n        /* \"--CODEGEN--\":124:129   */\n      dup2\n        /* \"--CODEGEN--\":97:130   */\n      jump(tag_265)\n    tag_264:\n        /* \"--CODEGEN--\":57:135   */\n      swap3\n      swap2\n      pop\n      pop\n      jump\n        /* \"--CODEGEN--\":143:585   */\n    tag_266:\n      0x00\n        /* \"--CODEGEN--\":245:248   */\n      dup3\n        /* \"--CODEGEN--\":238:242   */\n      0x1f\n        /* \"--CODEGEN--\":230:236   */\n      dup4\n        /* \"--CODEGEN--\":226:243   */\n      add\n        /* \"--CODEGEN--\":222:249   */\n      slt\n        /* \"--CODEGEN--\":212:214   */\n      tag_268\n      jumpi\n        /* \"--CODEGEN--\":263:264   */\n      0x00\n        /* \"--CODEGEN--\":260:261   */\n      dup1\n        /* \"--CODEGEN--\":253:265   */\n      revert\n        /* \"--CODEGEN--\":212:214   */\n    tag_268:\n        /* \"--CODEGEN--\":300:306   */\n      dup2\n        /* \"--CODEGEN--\":287:307   */\n      calldataload\n        /* \"--CODEGEN--\":322:387   */\n      tag_269\n        /* \"--CODEGEN--\":337:386   */\n      tag_270\n        /* \"--CODEGEN--\":379:385   */\n      dup3\n        /* \"--CODEGEN--\":337:386   */\n      jump(tag_271)\n    tag_270:\n        /* \"--CODEGEN--\":322:387   */\n      jump(tag_272)\n    tag_269:\n        /* \"--CODEGEN--\":313:387   */\n      swap2\n      pop\n        /* \"--CODEGEN--\":407:413   */\n      dup1\n        /* \"--CODEGEN--\":400:405   */\n      dup3\n        /* \"--CODEGEN--\":393:414   */\n      mstore\n        /* \"--CODEGEN--\":443:447   */\n      0x20\n        /* \"--CODEGEN--\":435:441   */\n      dup4\n        /* \"--CODEGEN--\":431:448   */\n      add\n        /* \"--CODEGEN--\":476:480   */\n      0x20\n        /* \"--CODEGEN--\":469:474   */\n      dup4\n        /* \"--CODEGEN--\":465:481   */\n      add\n        /* \"--CODEGEN--\":511:514   */\n      dup6\n        /* \"--CODEGEN--\":502:508   */\n      dup4\n        /* \"--CODEGEN--\":497:500   */\n      dup4\n        /* \"--CODEGEN--\":493:509   */\n      add\n        /* \"--CODEGEN--\":490:515   */\n      gt\n        /* \"--CODEGEN--\":487:489   */\n      iszero\n      tag_273\n      jumpi\n        /* \"--CODEGEN--\":528:529   */\n      0x00\n        /* \"--CODEGEN--\":525:526   */\n      dup1\n        /* \"--CODEGEN--\":518:530   */\n      revert\n        /* \"--CODEGEN--\":487:489   */\n    tag_273:\n        /* \"--CODEGEN--\":538:579   */\n      tag_274\n        /* \"--CODEGEN--\":572:578   */\n      dup4\n        /* \"--CODEGEN--\":567:570   */\n      dup3\n        /* \"--CODEGEN--\":562:565   */\n      dup5\n        /* \"--CODEGEN--\":538:579   */\n      jump(tag_275)\n    tag_274:\n        /* \"--CODEGEN--\":205:585   */\n      pop\n      pop\n      pop\n      swap3\n      swap2\n      pop\n      pop\n      jump\n        /* \"--CODEGEN--\":593:719   */\n    tag_276:\n      0x00\n        /* \"--CODEGEN--\":671:677   */\n      dup2\n        /* \"--CODEGEN--\":658:678   */\n      calldataload\n        /* \"--CODEGEN--\":649:678   */\n      swap1\n      pop\n        /* \"--CODEGEN--\":683:714   */\n      tag_278\n        /* \"--CODEGEN--\":708:713   */\n      dup2\n        /* \"--CODEGEN--\":683:714   */\n      jump(tag_279)\n    tag_278:\n        /* \"--CODEGEN--\":643:719   */\n      swap3\n      swap2\n      pop\n      pop\n      jump\n        /* \"--CODEGEN--\":726:1661   */\n    tag_35:\n      0x00\n      dup1\n      0x00\n      dup1\n        /* \"--CODEGEN--\":911:914   */\n      0x80\n        /* \"--CODEGEN--\":899:908   */\n      dup6\n        /* \"--CODEGEN--\":890:897   */\n      dup8\n        /* \"--CODEGEN--\":886:909   */\n      sub\n        /* \"--CODEGEN--\":882:915   */\n      slt\n        /* \"--CODEGEN--\":879:881   */\n      iszero\n      tag_281\n      jumpi\n        /* \"--CODEGEN--\":928:929   */\n      0x00\n        /* \"--CODEGEN--\":925:926   */\n      dup1\n        /* \"--CODEGEN--\":918:930   */\n      revert\n        /* \"--CODEGEN--\":879:881   */\n    tag_281:\n        /* \"--CODEGEN--\":963:964   */\n      0x00\n        /* \"--CODEGEN--\":980:1033   */\n      tag_282\n        /* \"--CODEGEN--\":1025:1032   */\n      dup8\n        /* \"--CODEGEN--\":1016:1022   */\n      dup3\n        /* \"--CODEGEN--\":1005:1014   */\n      dup9\n        /* \"--CODEGEN--\":1001:1023   */\n      add\n        /* \"--CODEGEN--\":980:1033   */\n      jump(tag_262)\n    tag_282:\n        /* \"--CODEGEN--\":970:1033   */\n      swap5\n      pop\n        /* \"--CODEGEN--\":942:1039   */\n      pop\n        /* \"--CODEGEN--\":1098:1100   */\n      0x20\n        /* \"--CODEGEN--\":1087:1096   */\n      dup6\n        /* \"--CODEGEN--\":1083:1101   */\n      add\n        /* \"--CODEGEN--\":1070:1102   */\n      calldataload\n        /* \"--CODEGEN--\":1122:1140   */\n      0xffffffffffffffff\n        /* \"--CODEGEN--\":1114:1120   */\n      dup2\n        /* \"--CODEGEN--\":1111:1141   */\n      gt\n        /* \"--CODEGEN--\":1108:1110   */\n      iszero\n      tag_283\n      jumpi\n        /* \"--CODEGEN--\":1154:1155   */\n      0x00\n        /* \"--CODEGEN--\":1151:1152   */\n      dup1\n        /* \"--CODEGEN--\":1144:1156   */\n      revert\n        /* \"--CODEGEN--\":1108:1110   */\n    tag_283:\n        /* \"--CODEGEN--\":1174:1237   */\n      tag_284\n        /* \"--CODEGEN--\":1229:1236   */\n      dup8\n        /* \"--CODEGEN--\":1220:1226   */\n      dup3\n        /* \"--CODEGEN--\":1209:1218   */\n      dup9\n        /* \"--CODEGEN--\":1205:1227   */\n      add\n        /* \"--CODEGEN--\":1174:1237   */\n      jump(tag_266)\n    tag_284:\n        /* \"--CODEGEN--\":1164:1237   */\n      swap4\n      pop\n        /* \"--CODEGEN--\":1049:1243   */\n      pop\n        /* \"--CODEGEN--\":1302:1304   */\n      0x40\n        /* \"--CODEGEN--\":1291:1300   */\n      dup6\n        /* \"--CODEGEN--\":1287:1305   */\n      add\n        /* \"--CODEGEN--\":1274:1306   */\n      calldataload\n        /* \"--CODEGEN--\":1326:1344   */\n      0xffffffffffffffff\n        /* \"--CODEGEN--\":1318:1324   */\n      dup2\n        /* \"--CODEGEN--\":1315:1345   */\n      gt\n        /* \"--CODEGEN--\":1312:1314   */\n      iszero\n      tag_285\n      jumpi\n        /* \"--CODEGEN--\":1358:1359   */\n      0x00\n        /* \"--CODEGEN--\":1355:1356   */\n      dup1\n        /* \"--CODEGEN--\":1348:1360   */\n      revert\n        /* \"--CODEGEN--\":1312:1314   */\n    tag_285:\n        /* \"--CODEGEN--\":1378:1441   */\n      tag_286\n        /* \"--CODEGEN--\":1433:1440   */\n      dup8\n        /* \"--CODEGEN--\":1424:1430   */\n      dup3\n        /* \"--CODEGEN--\":1413:1422   */\n      dup9\n        /* \"--CODEGEN--\":1409:1431   */\n      add\n        /* \"--CODEGEN--\":1378:1441   */\n      jump(tag_266)\n    tag_286:\n        /* \"--CODEGEN--\":1368:1441   */\n      swap3\n      pop\n        /* \"--CODEGEN--\":1253:1447   */\n      pop\n        /* \"--CODEGEN--\":1506:1508   */\n      0x60\n        /* \"--CODEGEN--\":1495:1504   */\n      dup6\n        /* \"--CODEGEN--\":1491:1509   */\n      add\n        /* \"--CODEGEN--\":1478:1510   */\n      calldataload\n        /* \"--CODEGEN--\":1530:1548   */\n      0xffffffffffffffff\n        /* \"--CODEGEN--\":1522:1528   */\n      dup2\n        /* \"--CODEGEN--\":1519:1549   */\n      gt\n        /* \"--CODEGEN--\":1516:1518   */\n      iszero\n      tag_287\n      jumpi\n        /* \"--CODEGEN--\":1562:1563   */\n      0x00\n        /* \"--CODEGEN--\":1559:1560   */\n      dup1\n        /* \"--CODEGEN--\":1552:1564   */\n      revert\n        /* \"--CODEGEN--\":1516:1518   */\n    tag_287:\n        /* \"--CODEGEN--\":1582:1645   */\n      tag_288\n        /* \"--CODEGEN--\":1637:1644   */\n      dup8\n        /* \"--CODEGEN--\":1628:1634   */\n      dup3\n        /* \"--CODEGEN--\":1617:1626   */\n      dup9\n        /* \"--CODEGEN--\":1613:1635   */\n      add\n        /* \"--CODEGEN--\":1582:1645   */\n      jump(tag_266)\n    tag_288:\n        /* \"--CODEGEN--\":1572:1645   */\n      swap2\n      pop\n        /* \"--CODEGEN--\":1457:1651   */\n      pop\n        /* \"--CODEGEN--\":873:1661   */\n      swap3\n      swap6\n      swap2\n      swap5\n      pop\n      swap3\n      pop\n      jump\n        /* \"--CODEGEN--\":1668:2015   */\n    tag_20:\n      0x00\n        /* \"--CODEGEN--\":1782:1784   */\n      0x20\n        /* \"--CODEGEN--\":1770:1779   */\n      dup3\n        /* \"--CODEGEN--\":1761:1768   */\n      dup5\n        /* \"--CODEGEN--\":1757:1780   */\n      sub\n        /* \"--CODEGEN--\":1753:1785   */\n      slt\n        /* \"--CODEGEN--\":1750:1752   */\n      iszero\n      tag_290\n      jumpi\n        /* \"--CODEGEN--\":1798:1799   */\n      0x00\n        /* \"--CODEGEN--\":1795:1796   */\n      dup1\n        /* \"--CODEGEN--\":1788:1800   */\n      revert\n        /* \"--CODEGEN--\":1750:1752   */\n    tag_290:\n        /* \"--CODEGEN--\":1861:1862   */\n      0x00\n        /* \"--CODEGEN--\":1850:1859   */\n      dup3\n        /* \"--CODEGEN--\":1846:1863   */\n      add\n        /* \"--CODEGEN--\":1833:1864   */\n      calldataload\n        /* \"--CODEGEN--\":1884:1902   */\n      0xffffffffffffffff\n        /* \"--CODEGEN--\":1876:1882   */\n      dup2\n        /* \"--CODEGEN--\":1873:1903   */\n      gt\n        /* \"--CODEGEN--\":1870:1872   */\n      iszero\n      tag_291\n      jumpi\n        /* \"--CODEGEN--\":1916:1917   */\n      0x00\n        /* \"--CODEGEN--\":1913:1914   */\n      dup1\n        /* \"--CODEGEN--\":1906:1918   */\n      revert\n        /* \"--CODEGEN--\":1870:1872   */\n    tag_291:\n        /* \"--CODEGEN--\":1936:1999   */\n      tag_292\n        /* \"--CODEGEN--\":1991:1998   */\n      dup5\n        /* \"--CODEGEN--\":1982:1988   */\n      dup3\n        /* \"--CODEGEN--\":1971:1980   */\n      dup6\n        /* \"--CODEGEN--\":1967:1989   */\n      add\n        /* \"--CODEGEN--\":1936:1999   */\n      jump(tag_266)\n    tag_292:\n        /* \"--CODEGEN--\":1926:1999   */\n      swap2\n      pop\n        /* \"--CODEGEN--\":1812:2005   */\n      pop\n        /* \"--CODEGEN--\":1744:2015   */\n      swap3\n      swap2\n      pop\n      pop\n      jump\n        /* \"--CODEGEN--\":2022:2600   */\n    tag_31:\n      0x00\n      dup1\n        /* \"--CODEGEN--\":2163:2165   */\n      0x40\n        /* \"--CODEGEN--\":2151:2160   */\n      dup4\n        /* \"--CODEGEN--\":2142:2149   */\n      dup6\n        /* \"--CODEGEN--\":2138:2161   */\n      sub\n        /* \"--CODEGEN--\":2134:2166   */\n      slt\n        /* \"--CODEGEN--\":2131:2133   */\n      iszero\n      tag_294\n      jumpi\n        /* \"--CODEGEN--\":2179:2180   */\n      0x00\n        /* \"--CODEGEN--\":2176:2177   */\n      dup1\n        /* \"--CODEGEN--\":2169:2181   */\n      revert\n        /* \"--CODEGEN--\":2131:2133   */\n    tag_294:\n        /* \"--CODEGEN--\":2242:2243   */\n      0x00\n        /* \"--CODEGEN--\":2231:2240   */\n      dup4\n        /* \"--CODEGEN--\":2227:2244   */\n      add\n        /* \"--CODEGEN--\":2214:2245   */\n      calldataload\n        /* \"--CODEGEN--\":2265:2283   */\n      0xffffffffffffffff\n        /* \"--CODEGEN--\":2257:2263   */\n      dup2\n        /* \"--CODEGEN--\":2254:2284   */\n      gt\n        /* \"--CODEGEN--\":2251:2253   */\n      iszero\n      tag_295\n      jumpi\n        /* \"--CODEGEN--\":2297:2298   */\n      0x00\n        /* \"--CODEGEN--\":2294:2295   */\n      dup1\n        /* \"--CODEGEN--\":2287:2299   */\n      revert\n        /* \"--CODEGEN--\":2251:2253   */\n    tag_295:\n        /* \"--CODEGEN--\":2317:2380   */\n      tag_296\n        /* \"--CODEGEN--\":2372:2379   */\n      dup6\n        /* \"--CODEGEN--\":2363:2369   */\n      dup3\n        /* \"--CODEGEN--\":2352:2361   */\n      dup7\n        /* \"--CODEGEN--\":2348:2370   */\n      add\n        /* \"--CODEGEN--\":2317:2380   */\n      jump(tag_266)\n    tag_296:\n        /* \"--CODEGEN--\":2307:2380   */\n      swap3\n      pop\n        /* \"--CODEGEN--\":2193:2386   */\n      pop\n        /* \"--CODEGEN--\":2445:2447   */\n      0x20\n        /* \"--CODEGEN--\":2434:2443   */\n      dup4\n        /* \"--CODEGEN--\":2430:2448   */\n      add\n        /* \"--CODEGEN--\":2417:2449   */\n      calldataload\n        /* \"--CODEGEN--\":2469:2487   */\n      0xffffffffffffffff\n        /* \"--CODEGEN--\":2461:2467   */\n      dup2\n        /* \"--CODEGEN--\":2458:2488   */\n      gt\n        /* \"--CODEGEN--\":2455:2457   */\n      iszero\n      tag_297\n      jumpi\n        /* \"--CODEGEN--\":2501:2502   */\n      0x00\n        /* \"--CODEGEN--\":2498:2499   */\n      dup1\n        /* \"--CODEGEN--\":2491:2503   */\n      revert\n        /* \"--CODEGEN--\":2455:2457   */\n    tag_297:\n        /* \"--CODEGEN--\":2521:2584   */\n      tag_298\n        /* \"--CODEGEN--\":2576:2583   */\n      dup6\n        /* \"--CODEGEN--\":2567:2573   */\n      dup3\n        /* \"--CODEGEN--\":2556:2565   */\n      dup7\n        /* \"--CODEGEN--\":2552:2574   */\n      add\n        /* \"--CODEGEN--\":2521:2584   */\n      jump(tag_266)\n    tag_298:\n        /* \"--CODEGEN--\":2511:2584   */\n      swap2\n      pop\n        /* \"--CODEGEN--\":2396:2590   */\n      pop\n        /* \"--CODEGEN--\":2125:2600   */\n      swap3\n      pop\n      swap3\n      swap1\n      pop\n      jump\n        /* \"--CODEGEN--\":2607:3660   */\n    tag_43:\n      0x00\n      dup1\n      0x00\n      dup1\n      0x00\n        /* \"--CODEGEN--\":2805:2808   */\n      0xa0\n        /* \"--CODEGEN--\":2793:2802   */\n      dup7\n        /* \"--CODEGEN--\":2784:2791   */\n      dup9\n        /* \"--CODEGEN--\":2780:2803   */\n      sub\n        /* \"--CODEGEN--\":2776:2809   */\n      slt\n        /* \"--CODEGEN--\":2773:2775   */\n      iszero\n      tag_300\n      jumpi\n        /* \"--CODEGEN--\":2822:2823   */\n      0x00\n        /* \"--CODEGEN--\":2819:2820   */\n      dup1\n        /* \"--CODEGEN--\":2812:2824   */\n      revert\n        /* \"--CODEGEN--\":2773:2775   */\n    tag_300:\n        /* \"--CODEGEN--\":2885:2886   */\n      0x00\n        /* \"--CODEGEN--\":2874:2883   */\n      dup7\n        /* \"--CODEGEN--\":2870:2887   */\n      add\n        /* \"--CODEGEN--\":2857:2888   */\n      calldataload\n        /* \"--CODEGEN--\":2908:2926   */\n      0xffffffffffffffff\n        /* \"--CODEGEN--\":2900:2906   */\n      dup2\n        /* \"--CODEGEN--\":2897:2927   */\n      gt\n        /* \"--CODEGEN--\":2894:2896   */\n      iszero\n      tag_301\n      jumpi\n        /* \"--CODEGEN--\":2940:2941   */\n      0x00\n        /* \"--CODEGEN--\":2937:2938   */\n      dup1\n        /* \"--CODEGEN--\":2930:2942   */\n      revert\n        /* \"--CODEGEN--\":2894:2896   */\n    tag_301:\n        /* \"--CODEGEN--\":2960:3023   */\n      tag_302\n        /* \"--CODEGEN--\":3015:3022   */\n      dup9\n        /* \"--CODEGEN--\":3006:3012   */\n      dup3\n        /* \"--CODEGEN--\":2995:3004   */\n      dup10\n        /* \"--CODEGEN--\":2991:3013   */\n      add\n        /* \"--CODEGEN--\":2960:3023   */\n      jump(tag_266)\n    tag_302:\n        /* \"--CODEGEN--\":2950:3023   */\n      swap6\n      pop\n        /* \"--CODEGEN--\":2836:3029   */\n      pop\n        /* \"--CODEGEN--\":3088:3090   */\n      0x20\n        /* \"--CODEGEN--\":3077:3086   */\n      dup7\n        /* \"--CODEGEN--\":3073:3091   */\n      add\n        /* \"--CODEGEN--\":3060:3092   */\n      calldataload\n        /* \"--CODEGEN--\":3112:3130   */\n      0xffffffffffffffff\n        /* \"--CODEGEN--\":3104:3110   */\n      dup2\n        /* \"--CODEGEN--\":3101:3131   */\n      gt\n        /* \"--CODEGEN--\":3098:3100   */\n      iszero\n      tag_303\n      jumpi\n        /* \"--CODEGEN--\":3144:3145   */\n      0x00\n        /* \"--CODEGEN--\":3141:3142   */\n      dup1\n        /* \"--CODEGEN--\":3134:3146   */\n      revert\n        /* \"--CODEGEN--\":3098:3100   */\n    tag_303:\n        /* \"--CODEGEN--\":3164:3227   */\n      tag_304\n        /* \"--CODEGEN--\":3219:3226   */\n      dup9\n        /* \"--CODEGEN--\":3210:3216   */\n      dup3\n        /* \"--CODEGEN--\":3199:3208   */\n      dup10\n        /* \"--CODEGEN--\":3195:3217   */\n      add\n        /* \"--CODEGEN--\":3164:3227   */\n      jump(tag_266)\n    tag_304:\n        /* \"--CODEGEN--\":3154:3227   */\n      swap5\n      pop\n        /* \"--CODEGEN--\":3039:3233   */\n      pop\n        /* \"--CODEGEN--\":3292:3294   */\n      0x40\n        /* \"--CODEGEN--\":3281:3290   */\n      dup7\n        /* \"--CODEGEN--\":3277:3295   */\n      add\n        /* \"--CODEGEN--\":3264:3296   */\n      calldataload\n        /* \"--CODEGEN--\":3316:3334   */\n      0xffffffffffffffff\n        /* \"--CODEGEN--\":3308:3314   */\n      dup2\n        /* \"--CODEGEN--\":3305:3335   */\n      gt\n        /* \"--CODEGEN--\":3302:3304   */\n      iszero\n      tag_305\n      jumpi\n        /* \"--CODEGEN--\":3348:3349   */\n      0x00\n        /* \"--CODEGEN--\":3345:3346   */\n      dup1\n        /* \"--CODEGEN--\":3338:3350   */\n      revert\n        /* \"--CODEGEN--\":3302:3304   */\n    tag_305:\n        /* \"--CODEGEN--\":3368:3431   */\n      tag_306\n        /* \"--CODEGEN--\":3423:3430   */\n      dup9\n        /* \"--CODEGEN--\":3414:3420   */\n      dup3\n        /* \"--CODEGEN--\":3403:3412   */\n      dup10\n        /* \"--CODEGEN--\":3399:3421   */\n      add\n        /* \"--CODEGEN--\":3368:3431   */\n      jump(tag_266)\n    tag_306:\n        /* \"--CODEGEN--\":3358:3431   */\n      swap4\n      pop\n        /* \"--CODEGEN--\":3243:3437   */\n      pop\n        /* \"--CODEGEN--\":3468:3470   */\n      0x60\n        /* \"--CODEGEN--\":3486:3537   */\n      tag_307\n        /* \"--CODEGEN--\":3529:3536   */\n      dup9\n        /* \"--CODEGEN--\":3520:3526   */\n      dup3\n        /* \"--CODEGEN--\":3509:3518   */\n      dup10\n        /* \"--CODEGEN--\":3505:3527   */\n      add\n        /* \"--CODEGEN--\":3486:3537   */\n      jump(tag_276)\n    tag_307:\n        /* \"--CODEGEN--\":3476:3537   */\n      swap3\n      pop\n        /* \"--CODEGEN--\":3447:3543   */\n      pop\n        /* \"--CODEGEN--\":3574:3577   */\n      0x80\n        /* \"--CODEGEN--\":3593:3644   */\n      tag_308\n        /* \"--CODEGEN--\":3636:3643   */\n      dup9\n        /* \"--CODEGEN--\":3627:3633   */\n      dup3\n        /* \"--CODEGEN--\":3616:3625   */\n      dup10\n        /* \"--CODEGEN--\":3612:3634   */\n      add\n        /* \"--CODEGEN--\":3593:3644   */\n      jump(tag_276)\n    tag_308:\n        /* \"--CODEGEN--\":3583:3644   */\n      swap2\n      pop\n        /* \"--CODEGEN--\":3553:3650   */\n      pop\n        /* \"--CODEGEN--\":2767:3660   */\n      swap3\n      swap6\n      pop\n      swap3\n      swap6\n      swap1\n      swap4\n      pop\n      jump\n        /* \"--CODEGEN--\":3667:4598   */\n    tag_39:\n      0x00\n      dup1\n      0x00\n      dup1\n        /* \"--CODEGEN--\":3850:3853   */\n      0x80\n        /* \"--CODEGEN--\":3838:3847   */\n      dup6\n        /* \"--CODEGEN--\":3829:3836   */\n      dup8\n        /* \"--CODEGEN--\":3825:3848   */\n      sub\n        /* \"--CODEGEN--\":3821:3854   */\n      slt\n        /* \"--CODEGEN--\":3818:3820   */\n      iszero\n      tag_310\n      jumpi\n        /* \"--CODEGEN--\":3867:3868   */\n      0x00\n        /* \"--CODEGEN--\":3864:3865   */\n      dup1\n        /* \"--CODEGEN--\":3857:3869   */\n      revert\n        /* \"--CODEGEN--\":3818:3820   */\n    tag_310:\n        /* \"--CODEGEN--\":3930:3931   */\n      0x00\n        /* \"--CODEGEN--\":3919:3928   */\n      dup6\n        /* \"--CODEGEN--\":3915:3932   */\n      add\n        /* \"--CODEGEN--\":3902:3933   */\n      calldataload\n        /* \"--CODEGEN--\":3953:3971   */\n      0xffffffffffffffff\n        /* \"--CODEGEN--\":3945:3951   */\n      dup2\n        /* \"--CODEGEN--\":3942:3972   */\n      gt\n        /* \"--CODEGEN--\":3939:3941   */\n      iszero\n      tag_311\n      jumpi\n        /* \"--CODEGEN--\":3985:3986   */\n      0x00\n        /* \"--CODEGEN--\":3982:3983   */\n      dup1\n        /* \"--CODEGEN--\":3975:3987   */\n      revert\n        /* \"--CODEGEN--\":3939:3941   */\n    tag_311:\n        /* \"--CODEGEN--\":4005:4068   */\n      tag_312\n        /* \"--CODEGEN--\":4060:4067   */\n      dup8\n        /* \"--CODEGEN--\":4051:4057   */\n      dup3\n        /* \"--CODEGEN--\":4040:4049   */\n      dup9\n        /* \"--CODEGEN--\":4036:4058   */\n      add\n        /* \"--CODEGEN--\":4005:4068   */\n      jump(tag_266)\n    tag_312:\n        /* \"--CODEGEN--\":3995:4068   */\n      swap5\n      pop\n        /* \"--CODEGEN--\":3881:4074   */\n      pop\n        /* \"--CODEGEN--\":4133:4135   */\n      0x20\n        /* \"--CODEGEN--\":4122:4131   */\n      dup6\n        /* \"--CODEGEN--\":4118:4136   */\n      add\n        /* \"--CODEGEN--\":4105:4137   */\n      calldataload\n        /* \"--CODEGEN--\":4157:4175   */\n      0xffffffffffffffff\n        /* \"--CODEGEN--\":4149:4155   */\n      dup2\n        /* \"--CODEGEN--\":4146:4176   */\n      gt\n        /* \"--CODEGEN--\":4143:4145   */\n      iszero\n      tag_313\n      jumpi\n        /* \"--CODEGEN--\":4189:4190   */\n      0x00\n        /* \"--CODEGEN--\":4186:4187   */\n      dup1\n        /* \"--CODEGEN--\":4179:4191   */\n      revert\n        /* \"--CODEGEN--\":4143:4145   */\n    tag_313:\n        /* \"--CODEGEN--\":4209:4272   */\n      tag_314\n        /* \"--CODEGEN--\":4264:4271   */\n      dup8\n        /* \"--CODEGEN--\":4255:4261   */\n      dup3\n        /* \"--CODEGEN--\":4244:4253   */\n      dup9\n        /* \"--CODEGEN--\":4240:4262   */\n      add\n        /* \"--CODEGEN--\":4209:4272   */\n      jump(tag_266)\n    tag_314:\n        /* \"--CODEGEN--\":4199:4272   */\n      swap4\n      pop\n        /* \"--CODEGEN--\":4084:4278   */\n      pop\n        /* \"--CODEGEN--\":4309:4311   */\n      0x40\n        /* \"--CODEGEN--\":4327:4378   */\n      tag_315\n        /* \"--CODEGEN--\":4370:4377   */\n      dup8\n        /* \"--CODEGEN--\":4361:4367   */\n      dup3\n        /* \"--CODEGEN--\":4350:4359   */\n      dup9\n        /* \"--CODEGEN--\":4346:4368   */\n      add\n        /* \"--CODEGEN--\":4327:4378   */\n      jump(tag_276)\n    tag_315:\n        /* \"--CODEGEN--\":4317:4378   */\n      swap3\n      pop\n        /* \"--CODEGEN--\":4288:4384   */\n      pop\n        /* \"--CODEGEN--\":4443:4445   */\n      0x60\n        /* \"--CODEGEN--\":4432:4441   */\n      dup6\n        /* \"--CODEGEN--\":4428:4446   */\n      add\n        /* \"--CODEGEN--\":4415:4447   */\n      calldataload\n        /* \"--CODEGEN--\":4467:4485   */\n      0xffffffffffffffff\n        /* \"--CODEGEN--\":4459:4465   */\n      dup2\n        /* \"--CODEGEN--\":4456:4486   */\n      gt\n        /* \"--CODEGEN--\":4453:4455   */\n      iszero\n      tag_316\n      jumpi\n        /* \"--CODEGEN--\":4499:4500   */\n      0x00\n        /* \"--CODEGEN--\":4496:4497   */\n      dup1\n        /* \"--CODEGEN--\":4489:4501   */\n      revert\n        /* \"--CODEGEN--\":4453:4455   */\n    tag_316:\n        /* \"--CODEGEN--\":4519:4582   */\n      tag_317\n        /* \"--CODEGEN--\":4574:4581   */\n      dup8\n        /* \"--CODEGEN--\":4565:4571   */\n      dup3\n        /* \"--CODEGEN--\":4554:4563   */\n      dup9\n        /* \"--CODEGEN--\":4550:4572   */\n      add\n        /* \"--CODEGEN--\":4519:4582   */\n      jump(tag_266)\n    tag_317:\n        /* \"--CODEGEN--\":4509:4582   */\n      swap2\n      pop\n        /* \"--CODEGEN--\":4394:4588   */\n      pop\n        /* \"--CODEGEN--\":3812:4598   */\n      swap3\n      swap6\n      swap2\n      swap5\n      pop\n      swap3\n      pop\n      jump\n        /* \"--CODEGEN--\":4606:4799   */\n    tag_318:\n      0x00\n        /* \"--CODEGEN--\":4727:4793   */\n      tag_320\n        /* \"--CODEGEN--\":4789:4792   */\n      dup4\n        /* \"--CODEGEN--\":4781:4787   */\n      dup4\n        /* \"--CODEGEN--\":4727:4793   */\n      jump(tag_321)\n    tag_320:\n        /* \"--CODEGEN--\":4713:4793   */\n      swap1\n      pop\n        /* \"--CODEGEN--\":4706:4799   */\n      swap3\n      swap2\n      pop\n      pop\n      jump\n        /* \"--CODEGEN--\":4807:4920   */\n    tag_322:\n        /* \"--CODEGEN--\":4890:4914   */\n      tag_324\n        /* \"--CODEGEN--\":4908:4913   */\n      dup2\n        /* \"--CODEGEN--\":4890:4914   */\n      jump(tag_325)\n    tag_324:\n        /* \"--CODEGEN--\":4885:4888   */\n      dup3\n        /* \"--CODEGEN--\":4878:4915   */\n      mstore\n        /* \"--CODEGEN--\":4872:4920   */\n      pop\n      pop\n      jump\n        /* \"--CODEGEN--\":4956:5884   */\n    tag_326:\n      0x00\n        /* \"--CODEGEN--\":5121:5185   */\n      tag_328\n        /* \"--CODEGEN--\":5179:5184   */\n      dup3\n        /* \"--CODEGEN--\":5121:5185   */\n      jump(tag_329)\n    tag_328:\n        /* \"--CODEGEN--\":5198:5294   */\n      tag_330\n        /* \"--CODEGEN--\":5287:5293   */\n      dup2\n        /* \"--CODEGEN--\":5282:5285   */\n      dup6\n        /* \"--CODEGEN--\":5198:5294   */\n      jump(tag_331)\n    tag_330:\n        /* \"--CODEGEN--\":5191:5294   */\n      swap4\n      pop\n        /* \"--CODEGEN--\":5317:5320   */\n      dup4\n        /* \"--CODEGEN--\":5359:5363   */\n      0x20\n        /* \"--CODEGEN--\":5351:5357   */\n      dup3\n        /* \"--CODEGEN--\":5347:5364   */\n      mul\n        /* \"--CODEGEN--\":5342:5345   */\n      dup6\n        /* \"--CODEGEN--\":5338:5365   */\n      add\n        /* \"--CODEGEN--\":5386:5452   */\n      tag_332\n        /* \"--CODEGEN--\":5446:5451   */\n      dup6\n        /* \"--CODEGEN--\":5386:5452   */\n      jump(tag_333)\n    tag_332:\n        /* \"--CODEGEN--\":5472:5479   */\n      dup1\n        /* \"--CODEGEN--\":5500:5501   */\n      0x00\n        /* \"--CODEGEN--\":5485:5845   */\n    tag_334:\n        /* \"--CODEGEN--\":5510:5516   */\n      dup6\n        /* \"--CODEGEN--\":5507:5508   */\n      dup2\n        /* \"--CODEGEN--\":5504:5517   */\n      lt\n        /* \"--CODEGEN--\":5485:5845   */\n      iszero\n      tag_336\n      jumpi\n        /* \"--CODEGEN--\":5572:5581   */\n      dup5\n        /* \"--CODEGEN--\":5566:5570   */\n      dup5\n        /* \"--CODEGEN--\":5562:5582   */\n      sub\n        /* \"--CODEGEN--\":5557:5560   */\n      dup10\n        /* \"--CODEGEN--\":5550:5583   */\n      mstore\n        /* \"--CODEGEN--\":5617:5623   */\n      dup2\n        /* \"--CODEGEN--\":5611:5624   */\n      mload\n        /* \"--CODEGEN--\":5639:5723   */\n      tag_337\n        /* \"--CODEGEN--\":5718:5722   */\n      dup6\n        /* \"--CODEGEN--\":5703:5716   */\n      dup3\n        /* \"--CODEGEN--\":5639:5723   */\n      jump(tag_318)\n    tag_337:\n        /* \"--CODEGEN--\":5631:5723   */\n      swap5\n      pop\n        /* \"--CODEGEN--\":5740:5810   */\n      tag_338\n        /* \"--CODEGEN--\":5803:5809   */\n      dup4\n        /* \"--CODEGEN--\":5740:5810   */\n      jump(tag_339)\n    tag_338:\n        /* \"--CODEGEN--\":5730:5810   */\n      swap3\n      pop\n        /* \"--CODEGEN--\":5833:5837   */\n      0x20\n        /* \"--CODEGEN--\":5828:5831   */\n      dup11\n        /* \"--CODEGEN--\":5824:5838   */\n      add\n        /* \"--CODEGEN--\":5817:5838   */\n      swap10\n      pop\n        /* \"--CODEGEN--\":5542:5845   */\n      pop\n        /* \"--CODEGEN--\":5532:5533   */\n      0x01\n        /* \"--CODEGEN--\":5529:5530   */\n      dup2\n        /* \"--CODEGEN--\":5525:5534   */\n      add\n        /* \"--CODEGEN--\":5520:5534   */\n      swap1\n      pop\n        /* \"--CODEGEN--\":5485:5845   */\n      jump(tag_334)\n    tag_336:\n        /* \"--CODEGEN--\":5489:5503   */\n      pop\n        /* \"--CODEGEN--\":5858:5862   */\n      dup3\n        /* \"--CODEGEN--\":5851:5862   */\n      swap8\n      pop\n        /* \"--CODEGEN--\":5875:5878   */\n      dup8\n        /* \"--CODEGEN--\":5868:5878   */\n      swap6\n      pop\n        /* \"--CODEGEN--\":5100:5884   */\n      pop\n      pop\n      pop\n      pop\n      pop\n      swap3\n      swap2\n      pop\n      pop\n      jump\n        /* \"--CODEGEN--\":5892:5996   */\n    tag_340:\n        /* \"--CODEGEN--\":5969:5990   */\n      tag_342\n        /* \"--CODEGEN--\":5984:5989   */\n      dup2\n        /* \"--CODEGEN--\":5969:5990   */\n      jump(tag_343)\n    tag_342:\n        /* \"--CODEGEN--\":5964:5967   */\n      dup3\n        /* \"--CODEGEN--\":5957:5991   */\n      mstore\n        /* \"--CODEGEN--\":5951:5996   */\n      pop\n      pop\n      jump\n        /* \"--CODEGEN--\":6026:6913   */\n    tag_344:\n      0x00\n        /* \"--CODEGEN--\":6165:6170   */\n      dup2\n        /* \"--CODEGEN--\":6159:6171   */\n      sload\n        /* \"--CODEGEN--\":6199:6200   */\n      0x01\n        /* \"--CODEGEN--\":6188:6197   */\n      dup2\n        /* \"--CODEGEN--\":6184:6201   */\n      and\n        /* \"--CODEGEN--\":6212:6213   */\n      0x00\n        /* \"--CODEGEN--\":6207:6474   */\n      dup2\n      eq\n      tag_347\n      jumpi\n        /* \"--CODEGEN--\":6485:6486   */\n      0x01\n        /* \"--CODEGEN--\":6480:6907   */\n      dup2\n      eq\n      tag_348\n      jumpi\n        /* \"--CODEGEN--\":6177:6907   */\n      jump(tag_346)\n        /* \"--CODEGEN--\":6207:6474   */\n    tag_347:\n        /* \"--CODEGEN--\":6285:6289   */\n      0x7f\n        /* \"--CODEGEN--\":6281:6282   */\n      0x02\n        /* \"--CODEGEN--\":6270:6279   */\n      dup4\n        /* \"--CODEGEN--\":6266:6283   */\n      div\n        /* \"--CODEGEN--\":6262:6290   */\n      and\n        /* \"--CODEGEN--\":6304:6392   */\n      tag_349\n        /* \"--CODEGEN--\":6385:6391   */\n      dup2\n        /* \"--CODEGEN--\":6380:6383   */\n      dup8\n        /* \"--CODEGEN--\":6304:6392   */\n      jump(tag_350)\n    tag_349:\n        /* \"--CODEGEN--\":6297:6392   */\n      swap6\n      pop\n        /* \"--CODEGEN--\":6430:6434   */\n      0xff\n        /* \"--CODEGEN--\":6426:6435   */\n      not\n        /* \"--CODEGEN--\":6415:6424   */\n      dup4\n        /* \"--CODEGEN--\":6411:6436   */\n      and\n        /* \"--CODEGEN--\":6406:6409   */\n      dup7\n        /* \"--CODEGEN--\":6399:6437   */\n      mstore\n        /* \"--CODEGEN--\":6460:6466   */\n      dup1\n        /* \"--CODEGEN--\":6455:6458   */\n      dup7\n        /* \"--CODEGEN--\":6451:6467   */\n      add\n        /* \"--CODEGEN--\":6444:6467   */\n      swap4\n      pop\n        /* \"--CODEGEN--\":6214:6474   */\n      pop\n        /* \"--CODEGEN--\":6207:6474   */\n      jump(tag_346)\n        /* \"--CODEGEN--\":6480:6907   */\n    tag_348:\n        /* \"--CODEGEN--\":6549:6550   */\n      0x02\n        /* \"--CODEGEN--\":6538:6547   */\n      dup3\n        /* \"--CODEGEN--\":6534:6551   */\n      div\n        /* \"--CODEGEN--\":6565:6653   */\n      tag_351\n        /* \"--CODEGEN--\":6646:6652   */\n      dup2\n        /* \"--CODEGEN--\":6641:6644   */\n      dup8\n        /* \"--CODEGEN--\":6565:6653   */\n      jump(tag_350)\n    tag_351:\n        /* \"--CODEGEN--\":6558:6653   */\n      swap6\n      pop\n        /* \"--CODEGEN--\":6675:6716   */\n      tag_352\n        /* \"--CODEGEN--\":6710:6715   */\n      dup6\n        /* \"--CODEGEN--\":6675:6716   */\n      jump(tag_353)\n    tag_352:\n        /* \"--CODEGEN--\":6732:6733   */\n      0x00\n        /* \"--CODEGEN--\":6740:6870   */\n    tag_354:\n        /* \"--CODEGEN--\":6754:6760   */\n      dup3\n        /* \"--CODEGEN--\":6751:6752   */\n      dup2\n        /* \"--CODEGEN--\":6748:6761   */\n      lt\n        /* \"--CODEGEN--\":6740:6870   */\n      iszero\n      tag_356\n      jumpi\n        /* \"--CODEGEN--\":6819:6826   */\n      dup2\n        /* \"--CODEGEN--\":6813:6827   */\n      sload\n        /* \"--CODEGEN--\":6809:6810   */\n      dup2\n        /* \"--CODEGEN--\":6804:6807   */\n      dup10\n        /* \"--CODEGEN--\":6800:6811   */\n      add\n        /* \"--CODEGEN--\":6793:6828   */\n      mstore\n        /* \"--CODEGEN--\":6860:6861   */\n      0x01\n        /* \"--CODEGEN--\":6851:6858   */\n      dup3\n        /* \"--CODEGEN--\":6847:6862   */\n      add\n        /* \"--CODEGEN--\":6836:6862   */\n      swap2\n      pop\n        /* \"--CODEGEN--\":6776:6780   */\n      0x20\n        /* \"--CODEGEN--\":6773:6774   */\n      dup2\n        /* \"--CODEGEN--\":6769:6781   */\n      add\n        /* \"--CODEGEN--\":6764:6781   */\n      swap1\n      pop\n        /* \"--CODEGEN--\":6740:6870   */\n      jump(tag_354)\n    tag_356:\n        /* \"--CODEGEN--\":6893:6899   */\n      dup3\n        /* \"--CODEGEN--\":6888:6891   */\n      dup9\n        /* \"--CODEGEN--\":6884:6900   */\n      add\n        /* \"--CODEGEN--\":6877:6900   */\n      swap6\n      pop\n        /* \"--CODEGEN--\":6487:6907   */\n      pop\n      pop\n      pop\n        /* \"--CODEGEN--\":6177:6907   */\n    tag_346:\n      pop\n        /* \"--CODEGEN--\":6135:6913   */\n      pop\n      swap3\n      swap2\n      pop\n      pop\n      jump\n        /* \"--CODEGEN--\":6921:7248   */\n    tag_321:\n      0x00\n        /* \"--CODEGEN--\":7023:7062   */\n      tag_358\n        /* \"--CODEGEN--\":7056:7061   */\n      dup3\n        /* \"--CODEGEN--\":7023:7062   */\n      jump(tag_359)\n    tag_358:\n        /* \"--CODEGEN--\":7074:7135   */\n      tag_360\n        /* \"--CODEGEN--\":7128:7134   */\n      dup2\n        /* \"--CODEGEN--\":7123:7126   */\n      dup6\n        /* \"--CODEGEN--\":7074:7135   */\n      jump(tag_361)\n    tag_360:\n        /* \"--CODEGEN--\":7067:7135   */\n      swap4\n      pop\n        /* \"--CODEGEN--\":7140:7192   */\n      tag_362\n        /* \"--CODEGEN--\":7185:7191   */\n      dup2\n        /* \"--CODEGEN--\":7180:7183   */\n      dup6\n        /* \"--CODEGEN--\":7173:7177   */\n      0x20\n        /* \"--CODEGEN--\":7166:7171   */\n      dup7\n        /* \"--CODEGEN--\":7162:7178   */\n      add\n        /* \"--CODEGEN--\":7140:7192   */\n      jump(tag_363)\n    tag_362:\n        /* \"--CODEGEN--\":7213:7242   */\n      tag_364\n        /* \"--CODEGEN--\":7235:7241   */\n      dup2\n        /* \"--CODEGEN--\":7213:7242   */\n      jump(tag_365)\n    tag_364:\n        /* \"--CODEGEN--\":7208:7211   */\n      dup5\n        /* \"--CODEGEN--\":7204:7243   */\n      add\n        /* \"--CODEGEN--\":7197:7243   */\n      swap2\n      pop\n        /* \"--CODEGEN--\":7003:7248   */\n      pop\n      swap3\n      swap2\n      pop\n      pop\n      jump\n        /* \"--CODEGEN--\":7255:7602   */\n    tag_366:\n      0x00\n        /* \"--CODEGEN--\":7367:7406   */\n      tag_368\n        /* \"--CODEGEN--\":7400:7405   */\n      dup3\n        /* \"--CODEGEN--\":7367:7406   */\n      jump(tag_359)\n    tag_368:\n        /* \"--CODEGEN--\":7418:7489   */\n      tag_369\n        /* \"--CODEGEN--\":7482:7488   */\n      dup2\n        /* \"--CODEGEN--\":7477:7480   */\n      dup6\n        /* \"--CODEGEN--\":7418:7489   */\n      jump(tag_370)\n    tag_369:\n        /* \"--CODEGEN--\":7411:7489   */\n      swap4\n      pop\n        /* \"--CODEGEN--\":7494:7546   */\n      tag_371\n        /* \"--CODEGEN--\":7539:7545   */\n      dup2\n        /* \"--CODEGEN--\":7534:7537   */\n      dup6\n        /* \"--CODEGEN--\":7527:7531   */\n      0x20\n        /* \"--CODEGEN--\":7520:7525   */\n      dup7\n        /* \"--CODEGEN--\":7516:7532   */\n      add\n        /* \"--CODEGEN--\":7494:7546   */\n      jump(tag_363)\n    tag_371:\n        /* \"--CODEGEN--\":7567:7596   */\n      tag_372\n        /* \"--CODEGEN--\":7589:7595   */\n      dup2\n        /* \"--CODEGEN--\":7567:7596   */\n      jump(tag_365)\n    tag_372:\n        /* \"--CODEGEN--\":7562:7565   */\n      dup5\n        /* \"--CODEGEN--\":7558:7597   */\n      add\n        /* \"--CODEGEN--\":7551:7597   */\n      swap2\n      pop\n        /* \"--CODEGEN--\":7347:7602   */\n      pop\n      swap3\n      swap2\n      pop\n      pop\n      jump\n        /* \"--CODEGEN--\":7609:7716   */\n    tag_373:\n        /* \"--CODEGEN--\":7688:7710   */\n      tag_375\n        /* \"--CODEGEN--\":7704:7709   */\n      dup2\n        /* \"--CODEGEN--\":7688:7710   */\n      jump(tag_376)\n    tag_375:\n        /* \"--CODEGEN--\":7683:7686   */\n      dup3\n        /* \"--CODEGEN--\":7676:7711   */\n      mstore\n        /* \"--CODEGEN--\":7670:7716   */\n      pop\n      pop\n      jump\n        /* \"--CODEGEN--\":7723:7987   */\n    tag_74:\n      0x00\n        /* \"--CODEGEN--\":7868:7962   */\n      tag_378\n        /* \"--CODEGEN--\":7958:7961   */\n      dup3\n        /* \"--CODEGEN--\":7949:7955   */\n      dup5\n        /* \"--CODEGEN--\":7868:7962   */\n      jump(tag_344)\n    tag_378:\n        /* \"--CODEGEN--\":7861:7962   */\n      swap2\n      pop\n        /* \"--CODEGEN--\":7979:7982   */\n      dup2\n        /* \"--CODEGEN--\":7972:7982   */\n      swap1\n      pop\n        /* \"--CODEGEN--\":7849:7987   */\n      swap3\n      swap2\n      pop\n      pop\n      jump\n        /* \"--CODEGEN--\":7994:8207   */\n    tag_48:\n      0x00\n        /* \"--CODEGEN--\":8112:8114   */\n      0x20\n        /* \"--CODEGEN--\":8101:8110   */\n      dup3\n        /* \"--CODEGEN--\":8097:8115   */\n      add\n        /* \"--CODEGEN--\":8089:8115   */\n      swap1\n      pop\n        /* \"--CODEGEN--\":8126:8197   */\n      tag_380\n        /* \"--CODEGEN--\":8194:8195   */\n      0x00\n        /* \"--CODEGEN--\":8183:8192   */\n      dup4\n        /* \"--CODEGEN--\":8179:8196   */\n      add\n        /* \"--CODEGEN--\":8170:8176   */\n      dup5\n        /* \"--CODEGEN--\":8126:8197   */\n      jump(tag_322)\n    tag_380:\n        /* \"--CODEGEN--\":8083:8207   */\n      swap3\n      swap2\n      pop\n      pop\n      jump\n        /* \"--CODEGEN--\":8214:9025   */\n    tag_53:\n      0x00\n        /* \"--CODEGEN--\":8476:8479   */\n      0x80\n        /* \"--CODEGEN--\":8465:8474   */\n      dup3\n        /* \"--CODEGEN--\":8461:8480   */\n      add\n        /* \"--CODEGEN--\":8453:8480   */\n      swap1\n      pop\n        /* \"--CODEGEN--\":8491:8562   */\n      tag_382\n        /* \"--CODEGEN--\":8559:8560   */\n      0x00\n        /* \"--CODEGEN--\":8548:8557   */\n      dup4\n        /* \"--CODEGEN--\":8544:8561   */\n      add\n        /* \"--CODEGEN--\":8535:8541   */\n      dup8\n        /* \"--CODEGEN--\":8491:8562   */\n      jump(tag_322)\n    tag_382:\n        /* \"--CODEGEN--\":8610:8619   */\n      dup2\n        /* \"--CODEGEN--\":8604:8608   */\n      dup2\n        /* \"--CODEGEN--\":8600:8620   */\n      sub\n        /* \"--CODEGEN--\":8595:8597   */\n      0x20\n        /* \"--CODEGEN--\":8584:8593   */\n      dup4\n        /* \"--CODEGEN--\":8580:8598   */\n      add\n        /* \"--CODEGEN--\":8573:8621   */\n      mstore\n        /* \"--CODEGEN--\":8635:8713   */\n      tag_383\n        /* \"--CODEGEN--\":8708:8712   */\n      dup2\n        /* \"--CODEGEN--\":8699:8705   */\n      dup7\n        /* \"--CODEGEN--\":8635:8713   */\n      jump(tag_366)\n    tag_383:\n        /* \"--CODEGEN--\":8627:8713   */\n      swap1\n      pop\n        /* \"--CODEGEN--\":8761:8770   */\n      dup2\n        /* \"--CODEGEN--\":8755:8759   */\n      dup2\n        /* \"--CODEGEN--\":8751:8771   */\n      sub\n        /* \"--CODEGEN--\":8746:8748   */\n      0x40\n        /* \"--CODEGEN--\":8735:8744   */\n      dup4\n        /* \"--CODEGEN--\":8731:8749   */\n      add\n        /* \"--CODEGEN--\":8724:8772   */\n      mstore\n        /* \"--CODEGEN--\":8786:8864   */\n      tag_384\n        /* \"--CODEGEN--\":8859:8863   */\n      dup2\n        /* \"--CODEGEN--\":8850:8856   */\n      dup6\n        /* \"--CODEGEN--\":8786:8864   */\n      jump(tag_366)\n    tag_384:\n        /* \"--CODEGEN--\":8778:8864   */\n      swap1\n      pop\n        /* \"--CODEGEN--\":8912:8921   */\n      dup2\n        /* \"--CODEGEN--\":8906:8910   */\n      dup2\n        /* \"--CODEGEN--\":8902:8922   */\n      sub\n        /* \"--CODEGEN--\":8897:8899   */\n      0x60\n        /* \"--CODEGEN--\":8886:8895   */\n      dup4\n        /* \"--CODEGEN--\":8882:8900   */\n      add\n        /* \"--CODEGEN--\":8875:8923   */\n      mstore\n        /* \"--CODEGEN--\":8937:9015   */\n      tag_385\n        /* \"--CODEGEN--\":9010:9014   */\n      dup2\n        /* \"--CODEGEN--\":9001:9007   */\n      dup5\n        /* \"--CODEGEN--\":8937:9015   */\n      jump(tag_366)\n    tag_385:\n        /* \"--CODEGEN--\":8929:9015   */\n      swap1\n      pop\n        /* \"--CODEGEN--\":8447:9025   */\n      swap6\n      swap5\n      pop\n      pop\n      pop\n      pop\n      pop\n      jump\n        /* \"--CODEGEN--\":9032:9433   */\n    tag_23:\n      0x00\n        /* \"--CODEGEN--\":9220:9222   */\n      0x20\n        /* \"--CODEGEN--\":9209:9218   */\n      dup3\n        /* \"--CODEGEN--\":9205:9223   */\n      add\n        /* \"--CODEGEN--\":9197:9223   */\n      swap1\n      pop\n        /* \"--CODEGEN--\":9270:9279   */\n      dup2\n        /* \"--CODEGEN--\":9264:9268   */\n      dup2\n        /* \"--CODEGEN--\":9260:9280   */\n      sub\n        /* \"--CODEGEN--\":9256:9257   */\n      0x00\n        /* \"--CODEGEN--\":9245:9254   */\n      dup4\n        /* \"--CODEGEN--\":9241:9258   */\n      add\n        /* \"--CODEGEN--\":9234:9281   */\n      mstore\n        /* \"--CODEGEN--\":9295:9423   */\n      tag_387\n        /* \"--CODEGEN--\":9418:9422   */\n      dup2\n        /* \"--CODEGEN--\":9409:9415   */\n      dup5\n        /* \"--CODEGEN--\":9295:9423   */\n      jump(tag_326)\n    tag_387:\n        /* \"--CODEGEN--\":9287:9423   */\n      swap1\n      pop\n        /* \"--CODEGEN--\":9191:9433   */\n      swap3\n      swap2\n      pop\n      pop\n      jump\n        /* \"--CODEGEN--\":9440:9641   */\n    tag_17:\n      0x00\n        /* \"--CODEGEN--\":9552:9554   */\n      0x20\n        /* \"--CODEGEN--\":9541:9550   */\n      dup3\n        /* \"--CODEGEN--\":9537:9555   */\n      add\n        /* \"--CODEGEN--\":9529:9555   */\n      swap1\n      pop\n        /* \"--CODEGEN--\":9566:9631   */\n      tag_389\n        /* \"--CODEGEN--\":9628:9629   */\n      0x00\n        /* \"--CODEGEN--\":9617:9626   */\n      dup4\n        /* \"--CODEGEN--\":9613:9630   */\n      add\n        /* \"--CODEGEN--\":9604:9610   */\n      dup5\n        /* \"--CODEGEN--\":9566:9631   */\n      jump(tag_340)\n    tag_389:\n        /* \"--CODEGEN--\":9523:9641   */\n      swap3\n      swap2\n      pop\n      pop\n      jump\n        /* \"--CODEGEN--\":9648:11359   */\n    tag_28:\n      0x00\n        /* \"--CODEGEN--\":10148:10151   */\n      0x0120\n        /* \"--CODEGEN--\":10137:10146   */\n      dup3\n        /* \"--CODEGEN--\":10133:10152   */\n      add\n        /* \"--CODEGEN--\":10125:10152   */\n      swap1\n      pop\n        /* \"--CODEGEN--\":10199:10208   */\n      dup2\n        /* \"--CODEGEN--\":10193:10197   */\n      dup2\n        /* \"--CODEGEN--\":10189:10209   */\n      sub\n        /* \"--CODEGEN--\":10185:10186   */\n      0x00\n        /* \"--CODEGEN--\":10174:10183   */\n      dup4\n        /* \"--CODEGEN--\":10170:10187   */\n      add\n        /* \"--CODEGEN--\":10163:10210   */\n      mstore\n        /* \"--CODEGEN--\":10224:10302   */\n      tag_391\n        /* \"--CODEGEN--\":10297:10301   */\n      dup2\n        /* \"--CODEGEN--\":10288:10294   */\n      dup13\n        /* \"--CODEGEN--\":10224:10302   */\n      jump(tag_366)\n    tag_391:\n        /* \"--CODEGEN--\":10216:10302   */\n      swap1\n      pop\n        /* \"--CODEGEN--\":10350:10359   */\n      dup2\n        /* \"--CODEGEN--\":10344:10348   */\n      dup2\n        /* \"--CODEGEN--\":10340:10360   */\n      sub\n        /* \"--CODEGEN--\":10335:10337   */\n      0x20\n        /* \"--CODEGEN--\":10324:10333   */\n      dup4\n        /* \"--CODEGEN--\":10320:10338   */\n      add\n        /* \"--CODEGEN--\":10313:10361   */\n      mstore\n        /* \"--CODEGEN--\":10375:10453   */\n      tag_392\n        /* \"--CODEGEN--\":10448:10452   */\n      dup2\n        /* \"--CODEGEN--\":10439:10445   */\n      dup12\n        /* \"--CODEGEN--\":10375:10453   */\n      jump(tag_366)\n    tag_392:\n        /* \"--CODEGEN--\":10367:10453   */\n      swap1\n      pop\n        /* \"--CODEGEN--\":10464:10532   */\n      tag_393\n        /* \"--CODEGEN--\":10528:10530   */\n      0x40\n        /* \"--CODEGEN--\":10517:10526   */\n      dup4\n        /* \"--CODEGEN--\":10513:10531   */\n      add\n        /* \"--CODEGEN--\":10504:10510   */\n      dup11\n        /* \"--CODEGEN--\":10464:10532   */\n      jump(tag_373)\n    tag_393:\n        /* \"--CODEGEN--\":10580:10589   */\n      dup2\n        /* \"--CODEGEN--\":10574:10578   */\n      dup2\n        /* \"--CODEGEN--\":10570:10590   */\n      sub\n        /* \"--CODEGEN--\":10565:10567   */\n      0x60\n        /* \"--CODEGEN--\":10554:10563   */\n      dup4\n        /* \"--CODEGEN--\":10550:10568   */\n      add\n        /* \"--CODEGEN--\":10543:10591   */\n      mstore\n        /* \"--CODEGEN--\":10605:10683   */\n      tag_394\n        /* \"--CODEGEN--\":10678:10682   */\n      dup2\n        /* \"--CODEGEN--\":10669:10675   */\n      dup10\n        /* \"--CODEGEN--\":10605:10683   */\n      jump(tag_366)\n    tag_394:\n        /* \"--CODEGEN--\":10597:10683   */\n      swap1\n      pop\n        /* \"--CODEGEN--\":10732:10741   */\n      dup2\n        /* \"--CODEGEN--\":10726:10730   */\n      dup2\n        /* \"--CODEGEN--\":10722:10742   */\n      sub\n        /* \"--CODEGEN--\":10716:10719   */\n      0x80\n        /* \"--CODEGEN--\":10705:10714   */\n      dup4\n        /* \"--CODEGEN--\":10701:10720   */\n      add\n        /* \"--CODEGEN--\":10694:10743   */\n      mstore\n        /* \"--CODEGEN--\":10757:10835   */\n      tag_395\n        /* \"--CODEGEN--\":10830:10834   */\n      dup2\n        /* \"--CODEGEN--\":10821:10827   */\n      dup9\n        /* \"--CODEGEN--\":10757:10835   */\n      jump(tag_366)\n    tag_395:\n        /* \"--CODEGEN--\":10749:10835   */\n      swap1\n      pop\n        /* \"--CODEGEN--\":10884:10893   */\n      dup2\n        /* \"--CODEGEN--\":10878:10882   */\n      dup2\n        /* \"--CODEGEN--\":10874:10894   */\n      sub\n        /* \"--CODEGEN--\":10868:10871   */\n      0xa0\n        /* \"--CODEGEN--\":10857:10866   */\n      dup4\n        /* \"--CODEGEN--\":10853:10872   */\n      add\n        /* \"--CODEGEN--\":10846:10895   */\n      mstore\n        /* \"--CODEGEN--\":10909:10987   */\n      tag_396\n        /* \"--CODEGEN--\":10982:10986   */\n      dup2\n        /* \"--CODEGEN--\":10973:10979   */\n      dup8\n        /* \"--CODEGEN--\":10909:10987   */\n      jump(tag_366)\n    tag_396:\n        /* \"--CODEGEN--\":10901:10987   */\n      swap1\n      pop\n        /* \"--CODEGEN--\":10998:11067   */\n      tag_397\n        /* \"--CODEGEN--\":11062:11065   */\n      0xc0\n        /* \"--CODEGEN--\":11051:11060   */\n      dup4\n        /* \"--CODEGEN--\":11047:11066   */\n      add\n        /* \"--CODEGEN--\":11038:11044   */\n      dup7\n        /* \"--CODEGEN--\":10998:11067   */\n      jump(tag_373)\n    tag_397:\n        /* \"--CODEGEN--\":11078:11147   */\n      tag_398\n        /* \"--CODEGEN--\":11142:11145   */\n      0xe0\n        /* \"--CODEGEN--\":11131:11140   */\n      dup4\n        /* \"--CODEGEN--\":11127:11146   */\n      add\n        /* \"--CODEGEN--\":11118:11124   */\n      dup6\n        /* \"--CODEGEN--\":11078:11147   */\n      jump(tag_373)\n    tag_398:\n        /* \"--CODEGEN--\":11196:11205   */\n      dup2\n        /* \"--CODEGEN--\":11190:11194   */\n      dup2\n        /* \"--CODEGEN--\":11186:11206   */\n      sub\n        /* \"--CODEGEN--\":11180:11183   */\n      0x0100\n        /* \"--CODEGEN--\":11169:11178   */\n      dup4\n        /* \"--CODEGEN--\":11165:11184   */\n      add\n        /* \"--CODEGEN--\":11158:11207   */\n      mstore\n        /* \"--CODEGEN--\":11221:11349   */\n      tag_399\n        /* \"--CODEGEN--\":11344:11348   */\n      dup2\n        /* \"--CODEGEN--\":11335:11341   */\n      dup5\n        /* \"--CODEGEN--\":11221:11349   */\n      jump(tag_326)\n    tag_399:\n        /* \"--CODEGEN--\":11213:11349   */\n      swap1\n      pop\n        /* \"--CODEGEN--\":10119:11359   */\n      swap11\n      swap10\n      pop\n      pop\n      pop\n      pop\n      pop\n      pop\n      pop\n      pop\n      pop\n      pop\n      jump\n        /* \"--CODEGEN--\":11366:11622   */\n    tag_272:\n      0x00\n        /* \"--CODEGEN--\":11428:11430   */\n      0x40\n        /* \"--CODEGEN--\":11422:11431   */\n      mload\n        /* \"--CODEGEN--\":11412:11431   */\n      swap1\n      pop\n        /* \"--CODEGEN--\":11466:11470   */\n      dup2\n        /* \"--CODEGEN--\":11458:11464   */\n      dup2\n        /* \"--CODEGEN--\":11454:11471   */\n      add\n        /* \"--CODEGEN--\":11565:11571   */\n      dup2\n        /* \"--CODEGEN--\":11553:11563   */\n      dup2\n        /* \"--CODEGEN--\":11550:11572   */\n      lt\n        /* \"--CODEGEN--\":11529:11547   */\n      0xffffffffffffffff\n        /* \"--CODEGEN--\":11517:11527   */\n      dup3\n        /* \"--CODEGEN--\":11514:11548   */\n      gt\n        /* \"--CODEGEN--\":11511:11573   */\n      or\n        /* \"--CODEGEN--\":11508:11510   */\n      iszero\n      tag_401\n      jumpi\n        /* \"--CODEGEN--\":11586:11587   */\n      0x00\n        /* \"--CODEGEN--\":11583:11584   */\n      dup1\n        /* \"--CODEGEN--\":11576:11588   */\n      revert\n        /* \"--CODEGEN--\":11508:11510   */\n    tag_401:\n        /* \"--CODEGEN--\":11606:11616   */\n      dup1\n        /* \"--CODEGEN--\":11602:11604   */\n      0x40\n        /* \"--CODEGEN--\":11595:11617   */\n      mstore\n        /* \"--CODEGEN--\":11406:11622   */\n      pop\n      swap2\n      swap1\n      pop\n      jump\n        /* \"--CODEGEN--\":11629:11951   */\n    tag_271:\n      0x00\n        /* \"--CODEGEN--\":11773:11791   */\n      0xffffffffffffffff\n        /* \"--CODEGEN--\":11765:11771   */\n      dup3\n        /* \"--CODEGEN--\":11762:11792   */\n      gt\n        /* \"--CODEGEN--\":11759:11761   */\n      iszero\n      tag_403\n      jumpi\n        /* \"--CODEGEN--\":11805:11806   */\n      0x00\n        /* \"--CODEGEN--\":11802:11803   */\n      dup1\n        /* \"--CODEGEN--\":11795:11807   */\n      revert\n        /* \"--CODEGEN--\":11759:11761   */\n    tag_403:\n        /* \"--CODEGEN--\":11872:11876   */\n      0x1f\n        /* \"--CODEGEN--\":11868:11877   */\n      not\n        /* \"--CODEGEN--\":11861:11865   */\n      0x1f\n        /* \"--CODEGEN--\":11853:11859   */\n      dup4\n        /* \"--CODEGEN--\":11849:11866   */\n      add\n        /* \"--CODEGEN--\":11845:11878   */\n      and\n        /* \"--CODEGEN--\":11837:11878   */\n      swap1\n      pop\n        /* \"--CODEGEN--\":11936:11940   */\n      0x20\n        /* \"--CODEGEN--\":11930:11934   */\n      dup2\n        /* \"--CODEGEN--\":11926:11941   */\n      add\n        /* \"--CODEGEN--\":11918:11941   */\n      swap1\n      pop\n        /* \"--CODEGEN--\":11696:11951   */\n      swap2\n      swap1\n      pop\n      jump\n        /* \"--CODEGEN--\":11958:12119   */\n    tag_333:\n      0x00\n        /* \"--CODEGEN--\":12054:12057   */\n      dup2\n        /* \"--CODEGEN--\":12046:12057   */\n      swap1\n      pop\n        /* \"--CODEGEN--\":12092:12096   */\n      0x20\n        /* \"--CODEGEN--\":12087:12090   */\n      dup3\n        /* \"--CODEGEN--\":12083:12097   */\n      add\n        /* \"--CODEGEN--\":12075:12097   */\n      swap1\n      pop\n        /* \"--CODEGEN--\":12040:12119   */\n      swap2\n      swap1\n      pop\n      jump\n        /* \"--CODEGEN--\":12126:12287   */\n    tag_353:\n      0x00\n        /* \"--CODEGEN--\":12197:12200   */\n      dup2\n        /* \"--CODEGEN--\":12189:12200   */\n      swap1\n      pop\n        /* \"--CODEGEN--\":12234:12237   */\n      dup2\n        /* \"--CODEGEN--\":12231:12232   */\n      0x00\n        /* \"--CODEGEN--\":12224:12238   */\n      mstore\n        /* \"--CODEGEN--\":12266:12270   */\n      0x20\n        /* \"--CODEGEN--\":12263:12264   */\n      0x00\n        /* \"--CODEGEN--\":12253:12271   */\n      keccak256\n        /* \"--CODEGEN--\":12245:12271   */\n      swap1\n      pop\n        /* \"--CODEGEN--\":12183:12287   */\n      swap2\n      swap1\n      pop\n      jump\n        /* \"--CODEGEN--\":12294:12441   */\n    tag_329:\n      0x00\n        /* \"--CODEGEN--\":12413:12418   */\n      dup2\n        /* \"--CODEGEN--\":12407:12419   */\n      mload\n        /* \"--CODEGEN--\":12397:12419   */\n      swap1\n      pop\n        /* \"--CODEGEN--\":12378:12441   */\n      swap2\n      swap1\n      pop\n      jump\n        /* \"--CODEGEN--\":12448:12570   */\n    tag_359:\n      0x00\n        /* \"--CODEGEN--\":12542:12547   */\n      dup2\n        /* \"--CODEGEN--\":12536:12548   */\n      mload\n        /* \"--CODEGEN--\":12526:12548   */\n      swap1\n      pop\n        /* \"--CODEGEN--\":12507:12570   */\n      swap2\n      swap1\n      pop\n      jump\n        /* \"--CODEGEN--\":12577:12695   */\n    tag_339:\n      0x00\n        /* \"--CODEGEN--\":12685:12689   */\n      0x20\n        /* \"--CODEGEN--\":12680:12683   */\n      dup3\n        /* \"--CODEGEN--\":12676:12690   */\n      add\n        /* \"--CODEGEN--\":12668:12690   */\n      swap1\n      pop\n        /* \"--CODEGEN--\":12662:12695   */\n      swap2\n      swap1\n      pop\n      jump\n        /* \"--CODEGEN--\":12703:12891   */\n    tag_331:\n      0x00\n        /* \"--CODEGEN--\":12843:12849   */\n      dup3\n        /* \"--CODEGEN--\":12838:12841   */\n      dup3\n        /* \"--CODEGEN--\":12831:12850   */\n      mstore\n        /* \"--CODEGEN--\":12880:12884   */\n      0x20\n        /* \"--CODEGEN--\":12875:12878   */\n      dup3\n        /* \"--CODEGEN--\":12871:12885   */\n      add\n        /* \"--CODEGEN--\":12856:12885   */\n      swap1\n      pop\n        /* \"--CODEGEN--\":12824:12891   */\n      swap3\n      swap2\n      pop\n      pop\n      jump\n        /* \"--CODEGEN--\":12900:13044   */\n    tag_350:\n      0x00\n        /* \"--CODEGEN--\":13035:13038   */\n      dup2\n        /* \"--CODEGEN--\":13020:13038   */\n      swap1\n      pop\n        /* \"--CODEGEN--\":13013:13044   */\n      swap3\n      swap2\n      pop\n      pop\n      jump\n        /* \"--CODEGEN--\":13053:13206   */\n    tag_361:\n      0x00\n        /* \"--CODEGEN--\":13158:13164   */\n      dup3\n        /* \"--CODEGEN--\":13153:13156   */\n      dup3\n        /* \"--CODEGEN--\":13146:13165   */\n      mstore\n        /* \"--CODEGEN--\":13195:13199   */\n      0x20\n        /* \"--CODEGEN--\":13190:13193   */\n      dup3\n        /* \"--CODEGEN--\":13186:13200   */\n      add\n        /* \"--CODEGEN--\":13171:13200   */\n      swap1\n      pop\n        /* \"--CODEGEN--\":13139:13206   */\n      swap3\n      swap2\n      pop\n      pop\n      jump\n        /* \"--CODEGEN--\":13215:13378   */\n    tag_370:\n      0x00\n        /* \"--CODEGEN--\":13330:13336   */\n      dup3\n        /* \"--CODEGEN--\":13325:13328   */\n      dup3\n        /* \"--CODEGEN--\":13318:13337   */\n      mstore\n        /* \"--CODEGEN--\":13367:13371   */\n      0x20\n        /* \"--CODEGEN--\":13362:13365   */\n      dup3\n        /* \"--CODEGEN--\":13358:13372   */\n      add\n        /* \"--CODEGEN--\":13343:13372   */\n      swap1\n      pop\n        /* \"--CODEGEN--\":13311:13378   */\n      swap3\n      swap2\n      pop\n      pop\n      jump\n        /* \"--CODEGEN--\":13386:13477   */\n    tag_325:\n      0x00\n        /* \"--CODEGEN--\":13448:13472   */\n      tag_414\n        /* \"--CODEGEN--\":13466:13471   */\n      dup3\n        /* \"--CODEGEN--\":13448:13472   */\n      jump(tag_415)\n    tag_414:\n        /* \"--CODEGEN--\":13437:13472   */\n      swap1\n      pop\n        /* \"--CODEGEN--\":13431:13477   */\n      swap2\n      swap1\n      pop\n      jump\n        /* \"--CODEGEN--\":13484:13569   */\n    tag_343:\n      0x00\n        /* \"--CODEGEN--\":13557:13562   */\n      dup2\n        /* \"--CODEGEN--\":13550:13563   */\n      iszero\n        /* \"--CODEGEN--\":13543:13564   */\n      iszero\n        /* \"--CODEGEN--\":13532:13564   */\n      swap1\n      pop\n        /* \"--CODEGEN--\":13526:13569   */\n      swap2\n      swap1\n      pop\n      jump\n        /* \"--CODEGEN--\":13576:13697   */\n    tag_415:\n      0x00\n        /* \"--CODEGEN--\":13649:13691   */\n      0xffffffffffffffffffffffffffffffffffffffff\n        /* \"--CODEGEN--\":13642:13647   */\n      dup3\n        /* \"--CODEGEN--\":13638:13692   */\n      and\n        /* \"--CODEGEN--\":13627:13692   */\n      swap1\n      pop\n        /* \"--CODEGEN--\":13621:13697   */\n      swap2\n      swap1\n      pop\n      jump\n        /* \"--CODEGEN--\":13704:13785   */\n    tag_376:\n      0x00\n        /* \"--CODEGEN--\":13775:13779   */\n      0xff\n        /* \"--CODEGEN--\":13768:13773   */\n      dup3\n        /* \"--CODEGEN--\":13764:13780   */\n      and\n        /* \"--CODEGEN--\":13753:13780   */\n      swap1\n      pop\n        /* \"--CODEGEN--\":13747:13785   */\n      swap2\n      swap1\n      pop\n      jump\n        /* \"--CODEGEN--\":13793:13938   */\n    tag_275:\n        /* \"--CODEGEN--\":13874:13880   */\n      dup3\n        /* \"--CODEGEN--\":13869:13872   */\n      dup2\n        /* \"--CODEGEN--\":13864:13867   */\n      dup4\n        /* \"--CODEGEN--\":13851:13881   */\n      calldatacopy\n        /* \"--CODEGEN--\":13930:13931   */\n      0x00\n        /* \"--CODEGEN--\":13921:13927   */\n      dup4\n        /* \"--CODEGEN--\":13916:13919   */\n      dup4\n        /* \"--CODEGEN--\":13912:13928   */\n      add\n        /* \"--CODEGEN--\":13905:13932   */\n      mstore\n        /* \"--CODEGEN--\":13844:13938   */\n      pop\n      pop\n      pop\n      jump\n        /* \"--CODEGEN--\":13947:14215   */\n    tag_363:\n        /* \"--CODEGEN--\":14012:14013   */\n      0x00\n        /* \"--CODEGEN--\":14019:14120   */\n    tag_421:\n        /* \"--CODEGEN--\":14033:14039   */\n      dup4\n        /* \"--CODEGEN--\":14030:14031   */\n      dup2\n        /* \"--CODEGEN--\":14027:14040   */\n      lt\n        /* \"--CODEGEN--\":14019:14120   */\n      iszero\n      tag_423\n      jumpi\n        /* \"--CODEGEN--\":14109:14110   */\n      dup1\n        /* \"--CODEGEN--\":14104:14107   */\n      dup3\n        /* \"--CODEGEN--\":14100:14111   */\n      add\n        /* \"--CODEGEN--\":14094:14112   */\n      mload\n        /* \"--CODEGEN--\":14090:14091   */\n      dup2\n        /* \"--CODEGEN--\":14085:14088   */\n      dup5\n        /* \"--CODEGEN--\":14081:14092   */\n      add\n        /* \"--CODEGEN--\":14074:14113   */\n      mstore\n        /* \"--CODEGEN--\":14055:14057   */\n      0x20\n        /* \"--CODEGEN--\":14052:14053   */\n      dup2\n        /* \"--CODEGEN--\":14048:14058   */\n      add\n        /* \"--CODEGEN--\":14043:14058   */\n      swap1\n      pop\n        /* \"--CODEGEN--\":14019:14120   */\n      jump(tag_421)\n    tag_423:\n        /* \"--CODEGEN--\":14135:14141   */\n      dup4\n        /* \"--CODEGEN--\":14132:14133   */\n      dup2\n        /* \"--CODEGEN--\":14129:14142   */\n      gt\n        /* \"--CODEGEN--\":14126:14128   */\n      iszero\n      tag_424\n      jumpi\n        /* \"--CODEGEN--\":14200:14201   */\n      0x00\n        /* \"--CODEGEN--\":14191:14197   */\n      dup5\n        /* \"--CODEGEN--\":14186:14189   */\n      dup5\n        /* \"--CODEGEN--\":14182:14198   */\n      add\n        /* \"--CODEGEN--\":14175:14202   */\n      mstore\n        /* \"--CODEGEN--\":14126:14128   */\n    tag_424:\n        /* \"--CODEGEN--\":13996:14215   */\n      pop\n      pop\n      pop\n      pop\n      jump\n        /* \"--CODEGEN--\":14223:14320   */\n    tag_365:\n      0x00\n        /* \"--CODEGEN--\":14311:14313   */\n      0x1f\n        /* \"--CODEGEN--\":14307:14314   */\n      not\n        /* \"--CODEGEN--\":14302:14304   */\n      0x1f\n        /* \"--CODEGEN--\":14295:14300   */\n      dup4\n        /* \"--CODEGEN--\":14291:14305   */\n      add\n        /* \"--CODEGEN--\":14287:14315   */\n      and\n        /* \"--CODEGEN--\":14277:14315   */\n      swap1\n      pop\n        /* \"--CODEGEN--\":14271:14320   */\n      swap2\n      swap1\n      pop\n      jump\n        /* \"--CODEGEN--\":14328:14445   */\n    tag_265:\n        /* \"--CODEGEN--\":14397:14421   */\n      tag_427\n        /* \"--CODEGEN--\":14415:14420   */\n      dup2\n        /* \"--CODEGEN--\":14397:14421   */\n      jump(tag_325)\n    tag_427:\n        /* \"--CODEGEN--\":14390:14395   */\n      dup2\n        /* \"--CODEGEN--\":14387:14422   */\n      eq\n        /* \"--CODEGEN--\":14377:14379   */\n      tag_428\n      jumpi\n        /* \"--CODEGEN--\":14436:14437   */\n      0x00\n        /* \"--CODEGEN--\":14433:14434   */\n      dup1\n        /* \"--CODEGEN--\":14426:14438   */\n      revert\n        /* \"--CODEGEN--\":14377:14379   */\n    tag_428:\n        /* \"--CODEGEN--\":14371:14445   */\n      pop\n      jump\n        /* \"--CODEGEN--\":14452:14565   */\n    tag_279:\n        /* \"--CODEGEN--\":14519:14541   */\n      tag_430\n        /* \"--CODEGEN--\":14535:14540   */\n      dup2\n        /* \"--CODEGEN--\":14519:14541   */\n      jump(tag_376)\n    tag_430:\n        /* \"--CODEGEN--\":14512:14517   */\n      dup2\n        /* \"--CODEGEN--\":14509:14542   */\n      eq\n        /* \"--CODEGEN--\":14499:14501   */\n      tag_431\n      jumpi\n        /* \"--CODEGEN--\":14556:14557   */\n      0x00\n        /* \"--CODEGEN--\":14553:14554   */\n      dup1\n        /* \"--CODEGEN--\":14546:14558   */\n      revert\n        /* \"--CODEGEN--\":14499:14501   */\n    tag_431:\n        /* \"--CODEGEN--\":14493:14565   */\n      pop\n      jump\n\n    auxdata: 0xa2646970667358221220bbddd41f885e4e3daa55398538fde5a37556d34562f48f26b0d84ba35f9b973864736f6c63430006060033\n}\n",
    "bytecode": {
      "linkReferences": {},
      "object": "60806040523480156200001157600080fd5b50336000806101000a81548173ffffffffffffffffffffffffffffffffffffffff021916908373ffffffffffffffffffffffffffffffffffffffff160217905550600060018190555062000121738bd997ab0abd89e9a23ff3ccce5a71dde6326f9a6040518060400160405280601981526020017f52756d61682053616b69742057696a61796120576979756e67000000000000008152506040518060400160405280600381526020017f31323300000000000000000000000000000000000000000000000000000000008152506040518060400160405280600f81526020017f576979756e6720537572616261796100000000000000000000000000000000008152506200012760201b60201c565b6200038a565b3373ffffffffffffffffffffffffffffffffffffffff166000809054906101000a900473ffffffffffffffffffffffffffffffffffffffff1673ffffffffffffffffffffffffffffffffffffffff16146200018157600080fd5b6200018b6200029d565b60405180608001604052808673ffffffffffffffffffffffffffffffffffffffff168152602001858152602001848152602001838152509050600381908060018154018082558091505060019003906000526020600020906004020160009091909190915060008201518160000160006101000a81548173ffffffffffffffffffffffffffffffffffffffff021916908373ffffffffffffffffffffffffffffffffffffffff160217905550602082015181600101908051906020019062000255929190620002db565b50604082015181600201908051906020019062000274929190620002db565b50606082015181600301908051906020019062000293929190620002db565b5050505050505050565b6040518060800160405280600073ffffffffffffffffffffffffffffffffffffffff1681526020016060815260200160608152602001606081525090565b828054600181600116156101000203166002900490600052602060002090601f016020900481019282601f106200031e57805160ff19168380011785556200034f565b828001600101855582156200034f579182015b828111156200034e57825182559160200191906001019062000331565b5b5090506200035e919062000362565b5090565b6200038791905b808211156200038357600081600090555060010162000369565b5090565b90565b611e6c806200039a6000396000f3fe608060405234801561001057600080fd5b506004361061009e5760003560e01c8063a480fef311610066578063a480fef314610161578063a61cef0c1461017d578063d500958414610199578063e39be646146101b7578063fb2cb8f3146101ea5761009e565b8063115ada66146100a35780632db67237146100c1578063571f2ac1146100f1578063694e54bf14610129578063a3e9b55814610145575b600080fd5b6100ab610208565b6040516100b89190611bb9565b60405180910390f35b6100db60048036038101906100d6919061173e565b6102ab565b6040516100e89190611b97565b60405180910390f35b61010b6004803603810190610106919061173e565b6104bb565b60405161012099989796959493929190611bd4565b60405180910390f35b610143600480360381019061013e919061177f565b610a87565b005b61015f600480360381019061015a9190611693565b610b62565b005b61017b600480360381019061017691906118aa565b610ccf565b005b610197600480360381019061019291906117eb565b610ee6565b005b6101a1611032565b6040516101ae9190611b22565b60405180910390f35b6101d160048036038101906101cc919061173e565b61105b565b6040516101e19493929190611b3d565b60405180910390f35b6101f26113a5565b6040516101ff9190611bb9565b60405180910390f35b600080600090505b6003805490508110156102a6576003818154811061022a57fe5b906000526020600020906004020160000160009054906101000a900473ffffffffffffffffffffffffffffffffffffffff1673ffffffffffffffffffffffffffffffffffffffff163373ffffffffffffffffffffffffffffffffffffffff1614156102995760019150506102a8565b8080600101915050610210565b505b90565b60606102b5610208565b6102be57600080fd5b606060008090505b6002805490508110156104b157600281815481106102e057fe5b90600052602060002090600802016000016040516102fe9190611b0b565b6040518091039020848051906020012014156104a4576002818154811061032157fe5b90600052602060002090600802016007018054905067ffffffffffffffff8111801561034c57600080fd5b5060405190808252806020026020018201604052801561038057816020015b606081526020019060019003908161036b5790505b50915060008090505b6002828154811061039657fe5b9060005260206000209060080201600701805490508110156104a257600282815481106103bf57fe5b906000526020600020906008020160070181815481106103db57fe5b906000526020600020018054600181600116156101000203166002900480601f0160208091040260200160405190810160405280929190818152602001828054600181600116156101000203166002900480156104795780601f1061044e57610100808354040283529160200191610479565b820191906000526020600020905b81548152906001019060200180831161045c57829003601f168201915b505050505083828151811061048a57fe5b60200260200101819052508080600101915050610389565b505b80806001019150506102c6565b5080915050919050565b6060806000606080606060008060606104d2610208565b6104db57600080fd5b60005b600280549050811015610a7857600281815481106104f857fe5b90600052602060002090600802016000016040516105169190611b0b565b60405180910390208b805190602001201415610a6b576002818154811061053957fe5b90600052602060002090600802016000016002828154811061055757fe5b90600052602060002090600802016001016002838154811061057557fe5b906000526020600020906008020160020160009054906101000a900460ff16600284815481106105a157fe5b9060005260206000209060080201600301600285815481106105bf57fe5b9060005260206000209060080201600401600286815481106105dd57fe5b9060005260206000209060080201600501600287815481106105fb57fe5b906000526020600020906008020160060160019054906101000a900460ff166002888154811061062757fe5b906000526020600020906008020160060160009054906101000a900460ff166002898154811061065357fe5b9060005260206000209060080201600701888054600181600116156101000203166002900480601f0160208091040260200160405190810160405280929190818152602001828054600181600116156101000203166002900480156106f95780601f106106ce576101008083540402835291602001916106f9565b820191906000526020600020905b8154815290600101906020018083116106dc57829003601f168201915b50505050509850878054600181600116156101000203166002900480601f0160208091040260200160405190810160405280929190818152602001828054600181600116156101000203166002900480156107955780601f1061076a57610100808354040283529160200191610795565b820191906000526020600020905b81548152906001019060200180831161077857829003601f168201915b50505050509750858054600181600116156101000203166002900480601f0160208091040260200160405190810160405280929190818152602001828054600181600116156101000203166002900480156108315780601f1061080657610100808354040283529160200191610831565b820191906000526020600020905b81548152906001019060200180831161081457829003601f168201915b50505050509550848054600181600116156101000203166002900480601f0160208091040260200160405190810160405280929190818152602001828054600181600116156101000203166002900480156108cd5780601f106108a2576101008083540402835291602001916108cd565b820191906000526020600020905b8154815290600101906020018083116108b057829003601f168201915b50505050509450838054600181600116156101000203166002900480601f0160208091040260200160405190810160405280929190818152602001828054600181600116156101000203166002900480156109695780601f1061093e57610100808354040283529160200191610969565b820191906000526020600020905b81548152906001019060200180831161094c57829003601f168201915b5050505050935080805480602002602001604051908101604052809291908181526020016000905b82821015610a4d578382906000526020600020018054600181600116156101000203166002900480601f016020809104026020016040519081016040528092919081815260200182805460018160011615610100020316600290048015610a395780601f10610a0e57610100808354040283529160200191610a39565b820191906000526020600020905b815481529060010190602001808311610a1c57829003601f168201915b505050505081526020019060010190610991565b50505050905099509950995099509950995099509950995050610a7a565b80806001019150506104de565b505b9193959799909294969850565b610a8f610208565b610a9857600080fd5b6000815111610aa657600080fd5b60005b600280549050811015610b5d5760028181548110610ac357fe5b9060005260206000209060080201600001604051610ae19190611b0b565b604051809103902083805190602001201415610b505760028181548110610b0457fe5b906000526020600020906008020160070182908060018154018082558091505060019003906000526020600020016000909190919091509080519060200190610b4e929190611409565b505b8080600101915050610aa9565b505050565b3373ffffffffffffffffffffffffffffffffffffffff166000809054906101000a900473ffffffffffffffffffffffffffffffffffffffff1673ffffffffffffffffffffffffffffffffffffffff1614610bbb57600080fd5b610bc3611489565b60405180608001604052808673ffffffffffffffffffffffffffffffffffffffff168152602001858152602001848152602001838152509050600381908060018154018082558091505060019003906000526020600020906004020160009091909190915060008201518160000160006101000a81548173ffffffffffffffffffffffffffffffffffffffff021916908373ffffffffffffffffffffffffffffffffffffffff1602179055506020820151816001019080519060200190610c8b929190611409565b506040820151816002019080519060200190610ca8929190611409565b506060820151816003019080519060200190610cc5929190611409565b5050505050505050565b610cd7610208565b610ce057600080fd5b610ce86114c7565b6040518061012001604052808681526020018581526020018460ff168152602001838152602001604051806020016040528060008152508152602001604051806020016040528060008152508152602001600060ff168152602001600060ff168152602001600067ffffffffffffffff81118015610d6557600080fd5b50604051908082528060200260200182016040528015610d9957816020015b6060815260200190600190039081610d845790505b50815250905060028190806001815401808255809150506001900390600052602060002090600802016000909190919091506000820151816000019080519060200190610de7929190611409565b506020820151816001019080519060200190610e04929190611409565b5060408201518160020160006101000a81548160ff021916908360ff1602179055506060820151816003019080519060200190610e42929190611409565b506080820151816004019080519060200190610e5f929190611409565b5060a0820151816005019080519060200190610e7c929190611409565b5060c08201518160060160006101000a81548160ff021916908360ff16021790555060e08201518160060160016101000a81548160ff021916908360ff160217905550610100820151816007019080519060200190610edc92919061151c565b5050505050505050565b610eee610208565b610ef757600080fd5b60005b60028054905081101561102a5760028181548110610f1457fe5b9060005260206000209060080201600001604051610f329190611b0b565b60405180910390208680519060200120141561101d578460028281548110610f5657fe5b90600052602060002090600802016004019080519060200190610f7a929190611409565b508360028281548110610f8957fe5b90600052602060002090600802016005019080519060200190610fad929190611409565b508260028281548110610fbc57fe5b906000526020600020906008020160060160016101000a81548160ff021916908360ff1602179055508160028281548110610ff357fe5b906000526020600020906008020160060160006101000a81548160ff021916908360ff1602179055505b8080600101915050610efa565b505050505050565b60008060009054906101000a900473ffffffffffffffffffffffffffffffffffffffff16905090565b600060608060603373ffffffffffffffffffffffffffffffffffffffff166000809054906101000a900473ffffffffffffffffffffffffffffffffffffffff1673ffffffffffffffffffffffffffffffffffffffff16146110bb57600080fd5b600060608060008090505b60038054905081101561138e57600381815481106110e057fe5b90600052602060002090600402016002016040516110fe9190611b0b565b604051809103902089805190602001201415611381576003818154811061112157fe5b906000526020600020906004020160000160009054906101000a900473ffffffffffffffffffffffffffffffffffffffff1693506003818154811061116257fe5b90600052602060002090600402016001018054600181600116156101000203166002900480601f0160208091040260200160405190810160405280929190818152602001828054600181600116156101000203166002900480156112075780601f106111dc57610100808354040283529160200191611207565b820191906000526020600020905b8154815290600101906020018083116111ea57829003601f168201915b505050505092506003818154811061121b57fe5b90600052602060002090600402016002018054600181600116156101000203166002900480601f0160208091040260200160405190810160405280929190818152602001828054600181600116156101000203166002900480156112c05780601f10611295576101008083540402835291602001916112c0565b820191906000526020600020905b8154815290600101906020018083116112a357829003601f168201915b50505050509850600381815481106112d457fe5b90600052602060002090600402016003018054600181600116156101000203166002900480601f0160208091040260200160405190810160405280929190818152602001828054600181600116156101000203166002900480156113795780601f1061134e57610100808354040283529160200191611379565b820191906000526020600020905b81548152906001019060200180831161135c57829003601f168201915b505050505091505b80806001019150506110c6565b508282898396509650965096505050509193509193565b60003373ffffffffffffffffffffffffffffffffffffffff166000809054906101000a900473ffffffffffffffffffffffffffffffffffffffff1673ffffffffffffffffffffffffffffffffffffffff1614156114055760019050611406565b5b90565b828054600181600116156101000203166002900490600052602060002090601f016020900481019282601f1061144a57805160ff1916838001178555611478565b82800160010185558215611478579182015b8281111561147757825182559160200191906001019061145c565b5b509050611485919061157c565b5090565b6040518060800160405280600073ffffffffffffffffffffffffffffffffffffffff1681526020016060815260200160608152602001606081525090565b6040518061012001604052806060815260200160608152602001600060ff168152602001606081526020016060815260200160608152602001600060ff168152602001600060ff168152602001606081525090565b82805482825590600052602060002090810192821561156b579160200282015b8281111561156a57825182908051906020019061155a929190611409565b509160200191906001019061153c565b5b50905061157891906115a1565b5090565b61159e91905b8082111561159a576000816000905550600101611582565b5090565b90565b6115ca91905b808211156115c657600081816115bd91906115cd565b506001016115a7565b5090565b90565b50805460018160011615610100020316600290046000825580601f106115f35750611612565b601f016020900490600052602060002090810190611611919061157c565b5b50565b60008135905061162481611e08565b92915050565b600082601f83011261163b57600080fd5b813561164e61164982611cb8565b611c8b565b9150808252602083016020830185838301111561166a57600080fd5b611675838284611db5565b50505092915050565b60008135905061168d81611e1f565b92915050565b600080600080608085870312156116a957600080fd5b60006116b787828801611615565b945050602085013567ffffffffffffffff8111156116d457600080fd5b6116e08782880161162a565b935050604085013567ffffffffffffffff8111156116fd57600080fd5b6117098782880161162a565b925050606085013567ffffffffffffffff81111561172657600080fd5b6117328782880161162a565b91505092959194509250565b60006020828403121561175057600080fd5b600082013567ffffffffffffffff81111561176a57600080fd5b6117768482850161162a565b91505092915050565b6000806040838503121561179257600080fd5b600083013567ffffffffffffffff8111156117ac57600080fd5b6117b88582860161162a565b925050602083013567ffffffffffffffff8111156117d557600080fd5b6117e18582860161162a565b9150509250929050565b600080600080600060a0868803121561180357600080fd5b600086013567ffffffffffffffff81111561181d57600080fd5b6118298882890161162a565b955050602086013567ffffffffffffffff81111561184657600080fd5b6118528882890161162a565b945050604086013567ffffffffffffffff81111561186f57600080fd5b61187b8882890161162a565b935050606061188c8882890161167e565b925050608061189d8882890161167e565b9150509295509295909350565b600080600080608085870312156118c057600080fd5b600085013567ffffffffffffffff8111156118da57600080fd5b6118e68782880161162a565b945050602085013567ffffffffffffffff81111561190357600080fd5b61190f8782880161162a565b93505060406119208782880161167e565b925050606085013567ffffffffffffffff81111561193d57600080fd5b6119498782880161162a565b91505092959194509250565b60006119618383611a8a565b905092915050565b61197281611d6a565b82525050565b600061198382611d09565b61198d8185611d2c565b93508360208202850161199f85611ce4565b8060005b858110156119db57848403895281516119bc8582611955565b94506119c783611d1f565b925060208a019950506001810190506119a3565b50829750879550505050505092915050565b6119f681611d7c565b82525050565b600081546001811660008114611a195760018114611a3e57611a82565b607f6002830416611a2a8187611d3d565b955060ff1983168652808601935050611a82565b60028204611a4c8187611d3d565b9550611a5785611cf4565b60005b82811015611a7957815481890152600182019150602081019050611a5a565b82880195505050505b505092915050565b6000611a9582611d14565b611a9f8185611d48565b9350611aaf818560208601611dc4565b611ab881611df7565b840191505092915050565b6000611ace82611d14565b611ad88185611d59565b9350611ae8818560208601611dc4565b611af181611df7565b840191505092915050565b611b0581611da8565b82525050565b6000611b1782846119fc565b915081905092915050565b6000602082019050611b376000830184611969565b92915050565b6000608082019050611b526000830187611969565b8181036020830152611b648186611ac3565b90508181036040830152611b788185611ac3565b90508181036060830152611b8c8184611ac3565b905095945050505050565b60006020820190508181036000830152611bb18184611978565b905092915050565b6000602082019050611bce60008301846119ed565b92915050565b6000610120820190508181036000830152611bef818c611ac3565b90508181036020830152611c03818b611ac3565b9050611c12604083018a611afc565b8181036060830152611c248189611ac3565b90508181036080830152611c388188611ac3565b905081810360a0830152611c4c8187611ac3565b9050611c5b60c0830186611afc565b611c6860e0830185611afc565b818103610100830152611c7b8184611978565b90509a9950505050505050505050565b6000604051905081810181811067ffffffffffffffff82111715611cae57600080fd5b8060405250919050565b600067ffffffffffffffff821115611ccf57600080fd5b601f19601f8301169050602081019050919050565b6000819050602082019050919050565b60008190508160005260206000209050919050565b600081519050919050565b600081519050919050565b6000602082019050919050565b600082825260208201905092915050565b600081905092915050565b600082825260208201905092915050565b600082825260208201905092915050565b6000611d7582611d88565b9050919050565b60008115159050919050565b600073ffffffffffffffffffffffffffffffffffffffff82169050919050565b600060ff82169050919050565b82818337600083830152505050565b60005b83811015611de2578082015181840152602081019050611dc7565b83811115611df1576000848401525b50505050565b6000601f19601f8301169050919050565b611e1181611d6a565b8114611e1c57600080fd5b50565b611e2881611da8565b8114611e3357600080fd5b5056fea2646970667358221220bbddd41f885e4e3daa55398538fde5a37556d34562f48f26b0d84ba35f9b973864736f6c63430006060033",
      "opcodes": "PUSH1 0x80 PUSH1 0x40 MSTORE CALLVALUE DUP1 ISZERO PUSH3 0x11 JUMPI PUSH1 0x0 DUP1 REVERT JUMPDEST POP CALLER PUSH1 0x0 DUP1 PUSH2 0x100 EXP DUP2 SLOAD DUP2 PUSH20 0xFFFFFFFFFFFFFFFFFFFFFFFFFFFFFFFFFFFFFFFF MUL NOT AND SWAP1 DUP4 PUSH20 0xFFFFFFFFFFFFFFFFFFFFFFFFFFFFFFFFFFFFFFFF AND MUL OR SWAP1 SSTORE POP PUSH1 0x0 PUSH1 0x1 DUP2 SWAP1 SSTORE POP PUSH3 0x121 PUSH20 0x8BD997AB0ABD89E9A23FF3CCCE5A71DDE6326F9A PUSH1 0x40 MLOAD DUP1 PUSH1 0x40 ADD PUSH1 0x40 MSTORE DUP1 PUSH1 0x19 DUP2 MSTORE PUSH1 0x20 ADD PUSH32 0x52756D61682053616B69742057696A61796120576979756E6700000000000000 DUP2 MSTORE POP PUSH1 0x40 MLOAD DUP1 PUSH1 0x40 ADD PUSH1 0x40 MSTORE DUP1 PUSH1 0x3 DUP2 MSTORE PUSH1 0x20 ADD PUSH32 0x3132330000000000000000000000000000000000000000000000000000000000 DUP2 MSTORE POP PUSH1 0x40 MLOAD DUP1 PUSH1 0x40 ADD PUSH1 0x40 MSTORE DUP1 PUSH1 0xF DUP2 MSTORE PUSH1 0x20 ADD PUSH32 0x576979756E672053757261626179610000000000000000000000000000000000 DUP2 MSTORE POP PUSH3 0x127 PUSH1 0x20 SHL PUSH1 0x20 SHR JUMP JUMPDEST PUSH3 0x38A JUMP JUMPDEST CALLER PUSH20 0xFFFFFFFFFFFFFFFFFFFFFFFFFFFFFFFFFFFFFFFF AND PUSH1 0x0 DUP1 SWAP1 SLOAD SWAP1 PUSH2 0x100 EXP SWAP1 DIV PUSH20 0xFFFFFFFFFFFFFFFFFFFFFFFFFFFFFFFFFFFFFFFF AND PUSH20 0xFFFFFFFFFFFFFFFFFFFFFFFFFFFFFFFFFFFFFFFF AND EQ PUSH3 0x181 JUMPI PUSH1 0x0 DUP1 REVERT JUMPDEST PUSH3 0x18B PUSH3 0x29D JUMP JUMPDEST PUSH1 0x40 MLOAD DUP1 PUSH1 0x80 ADD PUSH1 0x40 MSTORE DUP1 DUP7 PUSH20 0xFFFFFFFFFFFFFFFFFFFFFFFFFFFFFFFFFFFFFFFF AND DUP2 MSTORE PUSH1 0x20 ADD DUP6 DUP2 MSTORE PUSH1 0x20 ADD DUP5 DUP2 MSTORE PUSH1 0x20 ADD DUP4 DUP2 MSTORE POP SWAP1 POP PUSH1 0x3 DUP2 SWAP1 DUP1 PUSH1 0x1 DUP2 SLOAD ADD DUP1 DUP3 SSTORE DUP1 SWAP2 POP POP PUSH1 0x1 SWAP1 SUB SWAP1 PUSH1 0x0 MSTORE PUSH1 0x20 PUSH1 0x0 KECCAK256 SWAP1 PUSH1 0x4 MUL ADD PUSH1 0x0 SWAP1 SWAP2 SWAP1 SWAP2 SWAP1 SWAP2 POP PUSH1 0x0 DUP3 ADD MLOAD DUP2 PUSH1 0x0 ADD PUSH1 0x0 PUSH2 0x100 EXP DUP2 SLOAD DUP2 PUSH20 0xFFFFFFFFFFFFFFFFFFFFFFFFFFFFFFFFFFFFFFFF MUL NOT AND SWAP1 DUP4 PUSH20 0xFFFFFFFFFFFFFFFFFFFFFFFFFFFFFFFFFFFFFFFF AND MUL OR SWAP1 SSTORE POP PUSH1 0x20 DUP3 ADD MLOAD DUP2 PUSH1 0x1 ADD SWAP1 DUP1 MLOAD SWAP1 PUSH1 0x20 ADD SWAP1 PUSH3 0x255 SWAP3 SWAP2 SWAP1 PUSH3 0x2DB JUMP JUMPDEST POP PUSH1 0x40 DUP3 ADD MLOAD DUP2 PUSH1 0x2 ADD SWAP1 DUP1 MLOAD SWAP1 PUSH1 0x20 ADD SWAP1 PUSH3 0x274 SWAP3 SWAP2 SWAP1 PUSH3 0x2DB JUMP JUMPDEST POP PUSH1 0x60 DUP3 ADD MLOAD DUP2 PUSH1 0x3 ADD SWAP1 DUP1 MLOAD SWAP1 PUSH1 0x20 ADD SWAP1 PUSH3 0x293 SWAP3 SWAP2 SWAP1 PUSH3 0x2DB JUMP JUMPDEST POP POP POP POP POP POP POP POP JUMP JUMPDEST PUSH1 0x40 MLOAD DUP1 PUSH1 0x80 ADD PUSH1 0x40 MSTORE DUP1 PUSH1 0x0 PUSH20 0xFFFFFFFFFFFFFFFFFFFFFFFFFFFFFFFFFFFFFFFF AND DUP2 MSTORE PUSH1 0x20 ADD PUSH1 0x60 DUP2 MSTORE PUSH1 0x20 ADD PUSH1 0x60 DUP2 MSTORE PUSH1 0x20 ADD PUSH1 0x60 DUP2 MSTORE POP SWAP1 JUMP JUMPDEST DUP3 DUP1 SLOAD PUSH1 0x1 DUP2 PUSH1 0x1 AND ISZERO PUSH2 0x100 MUL SUB AND PUSH1 0x2 SWAP1 DIV SWAP1 PUSH1 0x0 MSTORE PUSH1 0x20 PUSH1 0x0 KECCAK256 SWAP1 PUSH1 0x1F ADD PUSH1 0x20 SWAP1 DIV DUP2 ADD SWAP3 DUP3 PUSH1 0x1F LT PUSH3 0x31E JUMPI DUP1 MLOAD PUSH1 0xFF NOT AND DUP4 DUP1 ADD OR DUP6 SSTORE PUSH3 0x34F JUMP JUMPDEST DUP3 DUP1 ADD PUSH1 0x1 ADD DUP6 SSTORE DUP3 ISZERO PUSH3 0x34F JUMPI SWAP2 DUP3 ADD JUMPDEST DUP3 DUP2 GT ISZERO PUSH3 0x34E JUMPI DUP3 MLOAD DUP3 SSTORE SWAP2 PUSH1 0x20 ADD SWAP2 SWAP1 PUSH1 0x1 ADD SWAP1 PUSH3 0x331 JUMP JUMPDEST JUMPDEST POP SWAP1 POP PUSH3 0x35E SWAP2 SWAP1 PUSH3 0x362 JUMP JUMPDEST POP SWAP1 JUMP JUMPDEST PUSH3 0x387 SWAP2 SWAP1 JUMPDEST DUP1 DUP3 GT ISZERO PUSH3 0x383 JUMPI PUSH1 0x0 DUP2 PUSH1 0x0 SWAP1 SSTORE POP PUSH1 0x1 ADD PUSH3 0x369 JUMP JUMPDEST POP SWAP1 JUMP JUMPDEST SWAP1 JUMP JUMPDEST PUSH2 0x1E6C DUP1 PUSH3 0x39A PUSH1 0x0 CODECOPY PUSH1 0x0 RETURN INVALID PUSH1 0x80 PUSH1 0x40 MSTORE CALLVALUE DUP1 ISZERO PUSH2 0x10 JUMPI PUSH1 0x0 DUP1 REVERT JUMPDEST POP PUSH1 0x4 CALLDATASIZE LT PUSH2 0x9E JUMPI PUSH1 0x0 CALLDATALOAD PUSH1 0xE0 SHR DUP1 PUSH4 0xA480FEF3 GT PUSH2 0x66 JUMPI DUP1 PUSH4 0xA480FEF3 EQ PUSH2 0x161 JUMPI DUP1 PUSH4 0xA61CEF0C EQ PUSH2 0x17D JUMPI DUP1 PUSH4 0xD5009584 EQ PUSH2 0x199 JUMPI DUP1 PUSH4 0xE39BE646 EQ PUSH2 0x1B7 JUMPI DUP1 PUSH4 0xFB2CB8F3 EQ PUSH2 0x1EA JUMPI PUSH2 0x9E JUMP JUMPDEST DUP1 PUSH4 0x115ADA66 EQ PUSH2 0xA3 JUMPI DUP1 PUSH4 0x2DB67237 EQ PUSH2 0xC1 JUMPI DUP1 PUSH4 0x571F2AC1 EQ PUSH2 0xF1 JUMPI DUP1 PUSH4 0x694E54BF EQ PUSH2 0x129 JUMPI DUP1 PUSH4 0xA3E9B558 EQ PUSH2 0x145 JUMPI JUMPDEST PUSH1 0x0 DUP1 REVERT JUMPDEST PUSH2 0xAB PUSH2 0x208 JUMP JUMPDEST PUSH1 0x40 MLOAD PUSH2 0xB8 SWAP2 SWAP1 PUSH2 0x1BB9 JUMP JUMPDEST PUSH1 0x40 MLOAD DUP1 SWAP2 SUB SWAP1 RETURN JUMPDEST PUSH2 0xDB PUSH1 0x4 DUP1 CALLDATASIZE SUB DUP2 ADD SWAP1 PUSH2 0xD6 SWAP2 SWAP1 PUSH2 0x173E JUMP JUMPDEST PUSH2 0x2AB JUMP JUMPDEST PUSH1 0x40 MLOAD PUSH2 0xE8 SWAP2 SWAP1 PUSH2 0x1B97 JUMP JUMPDEST PUSH1 0x40 MLOAD DUP1 SWAP2 SUB SWAP1 RETURN JUMPDEST PUSH2 0x10B PUSH1 0x4 DUP1 CALLDATASIZE SUB DUP2 ADD SWAP1 PUSH2 0x106 SWAP2 SWAP1 PUSH2 0x173E JUMP JUMPDEST PUSH2 0x4BB JUMP JUMPDEST PUSH1 0x40 MLOAD PUSH2 0x120 SWAP10 SWAP9 SWAP8 SWAP7 SWAP6 SWAP5 SWAP4 SWAP3 SWAP2 SWAP1 PUSH2 0x1BD4 JUMP JUMPDEST PUSH1 0x40 MLOAD DUP1 SWAP2 SUB SWAP1 RETURN JUMPDEST PUSH2 0x143 PUSH1 0x4 DUP1 CALLDATASIZE SUB DUP2 ADD SWAP1 PUSH2 0x13E SWAP2 SWAP1 PUSH2 0x177F JUMP JUMPDEST PUSH2 0xA87 JUMP JUMPDEST STOP JUMPDEST PUSH2 0x15F PUSH1 0x4 DUP1 CALLDATASIZE SUB DUP2 ADD SWAP1 PUSH2 0x15A SWAP2 SWAP1 PUSH2 0x1693 JUMP JUMPDEST PUSH2 0xB62 JUMP JUMPDEST STOP JUMPDEST PUSH2 0x17B PUSH1 0x4 DUP1 CALLDATASIZE SUB DUP2 ADD SWAP1 PUSH2 0x176 SWAP2 SWAP1 PUSH2 0x18AA JUMP JUMPDEST PUSH2 0xCCF JUMP JUMPDEST STOP JUMPDEST PUSH2 0x197 PUSH1 0x4 DUP1 CALLDATASIZE SUB DUP2 ADD SWAP1 PUSH2 0x192 SWAP2 SWAP1 PUSH2 0x17EB JUMP JUMPDEST PUSH2 0xEE6 JUMP JUMPDEST STOP JUMPDEST PUSH2 0x1A1 PUSH2 0x1032 JUMP JUMPDEST PUSH1 0x40 MLOAD PUSH2 0x1AE SWAP2 SWAP1 PUSH2 0x1B22 JUMP JUMPDEST PUSH1 0x40 MLOAD DUP1 SWAP2 SUB SWAP1 RETURN JUMPDEST PUSH2 0x1D1 PUSH1 0x4 DUP1 CALLDATASIZE SUB DUP2 ADD SWAP1 PUSH2 0x1CC SWAP2 SWAP1 PUSH2 0x173E JUMP JUMPDEST PUSH2 0x105B JUMP JUMPDEST PUSH1 0x40 MLOAD PUSH2 0x1E1 SWAP5 SWAP4 SWAP3 SWAP2 SWAP1 PUSH2 0x1B3D JUMP JUMPDEST PUSH1 0x40 MLOAD DUP1 SWAP2 SUB SWAP1 RETURN JUMPDEST PUSH2 0x1F2 PUSH2 0x13A5 JUMP JUMPDEST PUSH1 0x40 MLOAD PUSH2 0x1FF SWAP2 SWAP1 PUSH2 0x1BB9 JUMP JUMPDEST PUSH1 0x40 MLOAD DUP1 SWAP2 SUB SWAP1 RETURN JUMPDEST PUSH1 0x0 DUP1 PUSH1 0x0 SWAP1 POP JUMPDEST PUSH1 0x3 DUP1 SLOAD SWAP1 POP DUP2 LT ISZERO PUSH2 0x2A6 JUMPI PUSH1 0x3 DUP2 DUP2 SLOAD DUP2 LT PUSH2 0x22A JUMPI INVALID JUMPDEST SWAP1 PUSH1 0x0 MSTORE PUSH1 0x20 PUSH1 0x0 KECCAK256 SWAP1 PUSH1 0x4 MUL ADD PUSH1 0x0 ADD PUSH1 0x0 SWAP1 SLOAD SWAP1 PUSH2 0x100 EXP SWAP1 DIV PUSH20 0xFFFFFFFFFFFFFFFFFFFFFFFFFFFFFFFFFFFFFFFF AND PUSH20 0xFFFFFFFFFFFFFFFFFFFFFFFFFFFFFFFFFFFFFFFF AND CALLER PUSH20 0xFFFFFFFFFFFFFFFFFFFFFFFFFFFFFFFFFFFFFFFF AND EQ ISZERO PUSH2 0x299 JUMPI PUSH1 0x1 SWAP2 POP POP PUSH2 0x2A8 JUMP JUMPDEST DUP1 DUP1 PUSH1 0x1 ADD SWAP2 POP POP PUSH2 0x210 JUMP JUMPDEST POP JUMPDEST SWAP1 JUMP JUMPDEST PUSH1 0x60 PUSH2 0x2B5 PUSH2 0x208 JUMP JUMPDEST PUSH2 0x2BE JUMPI PUSH1 0x0 DUP1 REVERT JUMPDEST PUSH1 0x60 PUSH1 0x0 DUP1 SWAP1 POP JUMPDEST PUSH1 0x2 DUP1 SLOAD SWAP1 POP DUP2 LT ISZERO PUSH2 0x4B1 JUMPI PUSH1 0x2 DUP2 DUP2 SLOAD DUP2 LT PUSH2 0x2E0 JUMPI INVALID JUMPDEST SWAP1 PUSH1 0x0 MSTORE PUSH1 0x20 PUSH1 0x0 KECCAK256 SWAP1 PUSH1 0x8 MUL ADD PUSH1 0x0 ADD PUSH1 0x40 MLOAD PUSH2 0x2FE SWAP2 SWAP1 PUSH2 0x1B0B JUMP JUMPDEST PUSH1 0x40 MLOAD DUP1 SWAP2 SUB SWAP1 KECCAK256 DUP5 DUP1 MLOAD SWAP1 PUSH1 0x20 ADD KECCAK256 EQ ISZERO PUSH2 0x4A4 JUMPI PUSH1 0x2 DUP2 DUP2 SLOAD DUP2 LT PUSH2 0x321 JUMPI INVALID JUMPDEST SWAP1 PUSH1 0x0 MSTORE PUSH1 0x20 PUSH1 0x0 KECCAK256 SWAP1 PUSH1 0x8 MUL ADD PUSH1 0x7 ADD DUP1 SLOAD SWAP1 POP PUSH8 0xFFFFFFFFFFFFFFFF DUP2 GT DUP1 ISZERO PUSH2 0x34C JUMPI PUSH1 0x0 DUP1 REVERT JUMPDEST POP PUSH1 0x40 MLOAD SWAP1 DUP1 DUP3 MSTORE DUP1 PUSH1 0x20 MUL PUSH1 0x20 ADD DUP3 ADD PUSH1 0x40 MSTORE DUP1 ISZERO PUSH2 0x380 JUMPI DUP2 PUSH1 0x20 ADD JUMPDEST PUSH1 0x60 DUP2 MSTORE PUSH1 0x20 ADD SWAP1 PUSH1 0x1 SWAP1 SUB SWAP1 DUP2 PUSH2 0x36B JUMPI SWAP1 POP JUMPDEST POP SWAP2 POP PUSH1 0x0 DUP1 SWAP1 POP JUMPDEST PUSH1 0x2 DUP3 DUP2 SLOAD DUP2 LT PUSH2 0x396 JUMPI INVALID JUMPDEST SWAP1 PUSH1 0x0 MSTORE PUSH1 0x20 PUSH1 0x0 KECCAK256 SWAP1 PUSH1 0x8 MUL ADD PUSH1 0x7 ADD DUP1 SLOAD SWAP1 POP DUP2 LT ISZERO PUSH2 0x4A2 JUMPI PUSH1 0x2 DUP3 DUP2 SLOAD DUP2 LT PUSH2 0x3BF JUMPI INVALID JUMPDEST SWAP1 PUSH1 0x0 MSTORE PUSH1 0x20 PUSH1 0x0 KECCAK256 SWAP1 PUSH1 0x8 MUL ADD PUSH1 0x7 ADD DUP2 DUP2 SLOAD DUP2 LT PUSH2 0x3DB JUMPI INVALID JUMPDEST SWAP1 PUSH1 0x0 MSTORE PUSH1 0x20 PUSH1 0x0 KECCAK256 ADD DUP1 SLOAD PUSH1 0x1 DUP2 PUSH1 0x1 AND ISZERO PUSH2 0x100 MUL SUB AND PUSH1 0x2 SWAP1 DIV DUP1 PUSH1 0x1F ADD PUSH1 0x20 DUP1 SWAP2 DIV MUL PUSH1 0x20 ADD PUSH1 0x40 MLOAD SWAP1 DUP2 ADD PUSH1 0x40 MSTORE DUP1 SWAP3 SWAP2 SWAP1 DUP2 DUP2 MSTORE PUSH1 0x20 ADD DUP3 DUP1 SLOAD PUSH1 0x1 DUP2 PUSH1 0x1 AND ISZERO PUSH2 0x100 MUL SUB AND PUSH1 0x2 SWAP1 DIV DUP1 ISZERO PUSH2 0x479 JUMPI DUP1 PUSH1 0x1F LT PUSH2 0x44E JUMPI PUSH2 0x100 DUP1 DUP4 SLOAD DIV MUL DUP4 MSTORE SWAP2 PUSH1 0x20 ADD SWAP2 PUSH2 0x479 JUMP JUMPDEST DUP3 ADD SWAP2 SWAP1 PUSH1 0x0 MSTORE PUSH1 0x20 PUSH1 0x0 KECCAK256 SWAP1 JUMPDEST DUP2 SLOAD DUP2 MSTORE SWAP1 PUSH1 0x1 ADD SWAP1 PUSH1 0x20 ADD DUP1 DUP4 GT PUSH2 0x45C JUMPI DUP3 SWAP1 SUB PUSH1 0x1F AND DUP3 ADD SWAP2 JUMPDEST POP POP POP POP POP DUP4 DUP3 DUP2 MLOAD DUP2 LT PUSH2 0x48A JUMPI INVALID JUMPDEST PUSH1 0x20 MUL PUSH1 0x20 ADD ADD DUP2 SWAP1 MSTORE POP DUP1 DUP1 PUSH1 0x1 ADD SWAP2 POP POP PUSH2 0x389 JUMP JUMPDEST POP JUMPDEST DUP1 DUP1 PUSH1 0x1 ADD SWAP2 POP POP PUSH2 0x2C6 JUMP JUMPDEST POP DUP1 SWAP2 POP POP SWAP2 SWAP1 POP JUMP JUMPDEST PUSH1 0x60 DUP1 PUSH1 0x0 PUSH1 0x60 DUP1 PUSH1 0x60 PUSH1 0x0 DUP1 PUSH1 0x60 PUSH2 0x4D2 PUSH2 0x208 JUMP JUMPDEST PUSH2 0x4DB JUMPI PUSH1 0x0 DUP1 REVERT JUMPDEST PUSH1 0x0 JUMPDEST PUSH1 0x2 DUP1 SLOAD SWAP1 POP DUP2 LT ISZERO PUSH2 0xA78 JUMPI PUSH1 0x2 DUP2 DUP2 SLOAD DUP2 LT PUSH2 0x4F8 JUMPI INVALID JUMPDEST SWAP1 PUSH1 0x0 MSTORE PUSH1 0x20 PUSH1 0x0 KECCAK256 SWAP1 PUSH1 0x8 MUL ADD PUSH1 0x0 ADD PUSH1 0x40 MLOAD PUSH2 0x516 SWAP2 SWAP1 PUSH2 0x1B0B JUMP JUMPDEST PUSH1 0x40 MLOAD DUP1 SWAP2 SUB SWAP1 KECCAK256 DUP12 DUP1 MLOAD SWAP1 PUSH1 0x20 ADD KECCAK256 EQ ISZERO PUSH2 0xA6B JUMPI PUSH1 0x2 DUP2 DUP2 SLOAD DUP2 LT PUSH2 0x539 JUMPI INVALID JUMPDEST SWAP1 PUSH1 0x0 MSTORE PUSH1 0x20 PUSH1 0x0 KECCAK256 SWAP1 PUSH1 0x8 MUL ADD PUSH1 0x0 ADD PUSH1 0x2 DUP3 DUP2 SLOAD DUP2 LT PUSH2 0x557 JUMPI INVALID JUMPDEST SWAP1 PUSH1 0x0 MSTORE PUSH1 0x20 PUSH1 0x0 KECCAK256 SWAP1 PUSH1 0x8 MUL ADD PUSH1 0x1 ADD PUSH1 0x2 DUP4 DUP2 SLOAD DUP2 LT PUSH2 0x575 JUMPI INVALID JUMPDEST SWAP1 PUSH1 0x0 MSTORE PUSH1 0x20 PUSH1 0x0 KECCAK256 SWAP1 PUSH1 0x8 MUL ADD PUSH1 0x2 ADD PUSH1 0x0 SWAP1 SLOAD SWAP1 PUSH2 0x100 EXP SWAP1 DIV PUSH1 0xFF AND PUSH1 0x2 DUP5 DUP2 SLOAD DUP2 LT PUSH2 0x5A1 JUMPI INVALID JUMPDEST SWAP1 PUSH1 0x0 MSTORE PUSH1 0x20 PUSH1 0x0 KECCAK256 SWAP1 PUSH1 0x8 MUL ADD PUSH1 0x3 ADD PUSH1 0x2 DUP6 DUP2 SLOAD DUP2 LT PUSH2 0x5BF JUMPI INVALID JUMPDEST SWAP1 PUSH1 0x0 MSTORE PUSH1 0x20 PUSH1 0x0 KECCAK256 SWAP1 PUSH1 0x8 MUL ADD PUSH1 0x4 ADD PUSH1 0x2 DUP7 DUP2 SLOAD DUP2 LT PUSH2 0x5DD JUMPI INVALID JUMPDEST SWAP1 PUSH1 0x0 MSTORE PUSH1 0x20 PUSH1 0x0 KECCAK256 SWAP1 PUSH1 0x8 MUL ADD PUSH1 0x5 ADD PUSH1 0x2 DUP8 DUP2 SLOAD DUP2 LT PUSH2 0x5FB JUMPI INVALID JUMPDEST SWAP1 PUSH1 0x0 MSTORE PUSH1 0x20 PUSH1 0x0 KECCAK256 SWAP1 PUSH1 0x8 MUL ADD PUSH1 0x6 ADD PUSH1 0x1 SWAP1 SLOAD SWAP1 PUSH2 0x100 EXP SWAP1 DIV PUSH1 0xFF AND PUSH1 0x2 DUP9 DUP2 SLOAD DUP2 LT PUSH2 0x627 JUMPI INVALID JUMPDEST SWAP1 PUSH1 0x0 MSTORE PUSH1 0x20 PUSH1 0x0 KECCAK256 SWAP1 PUSH1 0x8 MUL ADD PUSH1 0x6 ADD PUSH1 0x0 SWAP1 SLOAD SWAP1 PUSH2 0x100 EXP SWAP1 DIV PUSH1 0xFF AND PUSH1 0x2 DUP10 DUP2 SLOAD DUP2 LT PUSH2 0x653 JUMPI INVALID JUMPDEST SWAP1 PUSH1 0x0 MSTORE PUSH1 0x20 PUSH1 0x0 KECCAK256 SWAP1 PUSH1 0x8 MUL ADD PUSH1 0x7 ADD DUP9 DUP1 SLOAD PUSH1 0x1 DUP2 PUSH1 0x1 AND ISZERO PUSH2 0x100 MUL SUB AND PUSH1 0x2 SWAP1 DIV DUP1 PUSH1 0x1F ADD PUSH1 0x20 DUP1 SWAP2 DIV MUL PUSH1 0x20 ADD PUSH1 0x40 MLOAD SWAP1 DUP2 ADD PUSH1 0x40 MSTORE DUP1 SWAP3 SWAP2 SWAP1 DUP2 DUP2 MSTORE PUSH1 0x20 ADD DUP3 DUP1 SLOAD PUSH1 0x1 DUP2 PUSH1 0x1 AND ISZERO PUSH2 0x100 MUL SUB AND PUSH1 0x2 SWAP1 DIV DUP1 ISZERO PUSH2 0x6F9 JUMPI DUP1 PUSH1 0x1F LT PUSH2 0x6CE JUMPI PUSH2 0x100 DUP1 DUP4 SLOAD DIV MUL DUP4 MSTORE SWAP2 PUSH1 0x20 ADD SWAP2 PUSH2 0x6F9 JUMP JUMPDEST DUP3 ADD SWAP2 SWAP1 PUSH1 0x0 MSTORE PUSH1 0x20 PUSH1 0x0 KECCAK256 SWAP1 JUMPDEST DUP2 SLOAD DUP2 MSTORE SWAP1 PUSH1 0x1 ADD SWAP1 PUSH1 0x20 ADD DUP1 DUP4 GT PUSH2 0x6DC JUMPI DUP3 SWAP1 SUB PUSH1 0x1F AND DUP3 ADD SWAP2 JUMPDEST POP POP POP POP POP SWAP9 POP DUP8 DUP1 SLOAD PUSH1 0x1 DUP2 PUSH1 0x1 AND ISZERO PUSH2 0x100 MUL SUB AND PUSH1 0x2 SWAP1 DIV DUP1 PUSH1 0x1F ADD PUSH1 0x20 DUP1 SWAP2 DIV MUL PUSH1 0x20 ADD PUSH1 0x40 MLOAD SWAP1 DUP2 ADD PUSH1 0x40 MSTORE DUP1 SWAP3 SWAP2 SWAP1 DUP2 DUP2 MSTORE PUSH1 0x20 ADD DUP3 DUP1 SLOAD PUSH1 0x1 DUP2 PUSH1 0x1 AND ISZERO PUSH2 0x100 MUL SUB AND PUSH1 0x2 SWAP1 DIV DUP1 ISZERO PUSH2 0x795 JUMPI DUP1 PUSH1 0x1F LT PUSH2 0x76A JUMPI PUSH2 0x100 DUP1 DUP4 SLOAD DIV MUL DUP4 MSTORE SWAP2 PUSH1 0x20 ADD SWAP2 PUSH2 0x795 JUMP JUMPDEST DUP3 ADD SWAP2 SWAP1 PUSH1 0x0 MSTORE PUSH1 0x20 PUSH1 0x0 KECCAK256 SWAP1 JUMPDEST DUP2 SLOAD DUP2 MSTORE SWAP1 PUSH1 0x1 ADD SWAP1 PUSH1 0x20 ADD DUP1 DUP4 GT PUSH2 0x778 JUMPI DUP3 SWAP1 SUB PUSH1 0x1F AND DUP3 ADD SWAP2 JUMPDEST POP POP POP POP POP SWAP8 POP DUP6 DUP1 SLOAD PUSH1 0x1 DUP2 PUSH1 0x1 AND ISZERO PUSH2 0x100 MUL SUB AND PUSH1 0x2 SWAP1 DIV DUP1 PUSH1 0x1F ADD PUSH1 0x20 DUP1 SWAP2 DIV MUL PUSH1 0x20 ADD PUSH1 0x40 MLOAD SWAP1 DUP2 ADD PUSH1 0x40 MSTORE DUP1 SWAP3 SWAP2 SWAP1 DUP2 DUP2 MSTORE PUSH1 0x20 ADD DUP3 DUP1 SLOAD PUSH1 0x1 DUP2 PUSH1 0x1 AND ISZERO PUSH2 0x100 MUL SUB AND PUSH1 0x2 SWAP1 DIV DUP1 ISZERO PUSH2 0x831 JUMPI DUP1 PUSH1 0x1F LT PUSH2 0x806 JUMPI PUSH2 0x100 DUP1 DUP4 SLOAD DIV MUL DUP4 MSTORE SWAP2 PUSH1 0x20 ADD SWAP2 PUSH2 0x831 JUMP JUMPDEST DUP3 ADD SWAP2 SWAP1 PUSH1 0x0 MSTORE PUSH1 0x20 PUSH1 0x0 KECCAK256 SWAP1 JUMPDEST DUP2 SLOAD DUP2 MSTORE SWAP1 PUSH1 0x1 ADD SWAP1 PUSH1 0x20 ADD DUP1 DUP4 GT PUSH2 0x814 JUMPI DUP3 SWAP1 SUB PUSH1 0x1F AND DUP3 ADD SWAP2 JUMPDEST POP POP POP POP POP SWAP6 POP DUP5 DUP1 SLOAD PUSH1 0x1 DUP2 PUSH1 0x1 AND ISZERO PUSH2 0x100 MUL SUB AND PUSH1 0x2 SWAP1 DIV DUP1 PUSH1 0x1F ADD PUSH1 0x20 DUP1 SWAP2 DIV MUL PUSH1 0x20 ADD PUSH1 0x40 MLOAD SWAP1 DUP2 ADD PUSH1 0x40 MSTORE DUP1 SWAP3 SWAP2 SWAP1 DUP2 DUP2 MSTORE PUSH1 0x20 ADD DUP3 DUP1 SLOAD PUSH1 0x1 DUP2 PUSH1 0x1 AND ISZERO PUSH2 0x100 MUL SUB AND PUSH1 0x2 SWAP1 DIV DUP1 ISZERO PUSH2 0x8CD JUMPI DUP1 PUSH1 0x1F LT PUSH2 0x8A2 JUMPI PUSH2 0x100 DUP1 DUP4 SLOAD DIV MUL DUP4 MSTORE SWAP2 PUSH1 0x20 ADD SWAP2 PUSH2 0x8CD JUMP JUMPDEST DUP3 ADD SWAP2 SWAP1 PUSH1 0x0 MSTORE PUSH1 0x20 PUSH1 0x0 KECCAK256 SWAP1 JUMPDEST DUP2 SLOAD DUP2 MSTORE SWAP1 PUSH1 0x1 ADD SWAP1 PUSH1 0x20 ADD DUP1 DUP4 GT PUSH2 0x8B0 JUMPI DUP3 SWAP1 SUB PUSH1 0x1F AND DUP3 ADD SWAP2 JUMPDEST POP POP POP POP POP SWAP5 POP DUP4 DUP1 SLOAD PUSH1 0x1 DUP2 PUSH1 0x1 AND ISZERO PUSH2 0x100 MUL SUB AND PUSH1 0x2 SWAP1 DIV DUP1 PUSH1 0x1F ADD PUSH1 0x20 DUP1 SWAP2 DIV MUL PUSH1 0x20 ADD PUSH1 0x40 MLOAD SWAP1 DUP2 ADD PUSH1 0x40 MSTORE DUP1 SWAP3 SWAP2 SWAP1 DUP2 DUP2 MSTORE PUSH1 0x20 ADD DUP3 DUP1 SLOAD PUSH1 0x1 DUP2 PUSH1 0x1 AND ISZERO PUSH2 0x100 MUL SUB AND PUSH1 0x2 SWAP1 DIV DUP1 ISZERO PUSH2 0x969 JUMPI DUP1 PUSH1 0x1F LT PUSH2 0x93E JUMPI PUSH2 0x100 DUP1 DUP4 SLOAD DIV MUL DUP4 MSTORE SWAP2 PUSH1 0x20 ADD SWAP2 PUSH2 0x969 JUMP JUMPDEST DUP3 ADD SWAP2 SWAP1 PUSH1 0x0 MSTORE PUSH1 0x20 PUSH1 0x0 KECCAK256 SWAP1 JUMPDEST DUP2 SLOAD DUP2 MSTORE SWAP1 PUSH1 0x1 ADD SWAP1 PUSH1 0x20 ADD DUP1 DUP4 GT PUSH2 0x94C JUMPI DUP3 SWAP1 SUB PUSH1 0x1F AND DUP3 ADD SWAP2 JUMPDEST POP POP POP POP POP SWAP4 POP DUP1 DUP1 SLOAD DUP1 PUSH1 0x20 MUL PUSH1 0x20 ADD PUSH1 0x40 MLOAD SWAP1 DUP2 ADD PUSH1 0x40 MSTORE DUP1 SWAP3 SWAP2 SWAP1 DUP2 DUP2 MSTORE PUSH1 0x20 ADD PUSH1 0x0 SWAP1 JUMPDEST DUP3 DUP3 LT ISZERO PUSH2 0xA4D JUMPI DUP4 DUP3 SWAP1 PUSH1 0x0 MSTORE PUSH1 0x20 PUSH1 0x0 KECCAK256 ADD DUP1 SLOAD PUSH1 0x1 DUP2 PUSH1 0x1 AND ISZERO PUSH2 0x100 MUL SUB AND PUSH1 0x2 SWAP1 DIV DUP1 PUSH1 0x1F ADD PUSH1 0x20 DUP1 SWAP2 DIV MUL PUSH1 0x20 ADD PUSH1 0x40 MLOAD SWAP1 DUP2 ADD PUSH1 0x40 MSTORE DUP1 SWAP3 SWAP2 SWAP1 DUP2 DUP2 MSTORE PUSH1 0x20 ADD DUP3 DUP1 SLOAD PUSH1 0x1 DUP2 PUSH1 0x1 AND ISZERO PUSH2 0x100 MUL SUB AND PUSH1 0x2 SWAP1 DIV DUP1 ISZERO PUSH2 0xA39 JUMPI DUP1 PUSH1 0x1F LT PUSH2 0xA0E JUMPI PUSH2 0x100 DUP1 DUP4 SLOAD DIV MUL DUP4 MSTORE SWAP2 PUSH1 0x20 ADD SWAP2 PUSH2 0xA39 JUMP JUMPDEST DUP3 ADD SWAP2 SWAP1 PUSH1 0x0 MSTORE PUSH1 0x20 PUSH1 0x0 KECCAK256 SWAP1 JUMPDEST DUP2 SLOAD DUP2 MSTORE SWAP1 PUSH1 0x1 ADD SWAP1 PUSH1 0x20 ADD DUP1 DUP4 GT PUSH2 0xA1C JUMPI DUP3 SWAP1 SUB PUSH1 0x1F AND DUP3 ADD SWAP2 JUMPDEST POP POP POP POP POP DUP2 MSTORE PUSH1 0x20 ADD SWAP1 PUSH1 0x1 ADD SWAP1 PUSH2 0x991 JUMP JUMPDEST POP POP POP POP SWAP1 POP SWAP10 POP SWAP10 POP SWAP10 POP SWAP10 POP SWAP10 POP SWAP10 POP SWAP10 POP SWAP10 POP SWAP10 POP POP PUSH2 0xA7A JUMP JUMPDEST DUP1 DUP1 PUSH1 0x1 ADD SWAP2 POP POP PUSH2 0x4DE JUMP JUMPDEST POP JUMPDEST SWAP2 SWAP4 SWAP6 SWAP8 SWAP10 SWAP1 SWAP3 SWAP5 SWAP7 SWAP9 POP JUMP JUMPDEST PUSH2 0xA8F PUSH2 0x208 JUMP JUMPDEST PUSH2 0xA98 JUMPI PUSH1 0x0 DUP1 REVERT JUMPDEST PUSH1 0x0 DUP2 MLOAD GT PUSH2 0xAA6 JUMPI PUSH1 0x0 DUP1 REVERT JUMPDEST PUSH1 0x0 JUMPDEST PUSH1 0x2 DUP1 SLOAD SWAP1 POP DUP2 LT ISZERO PUSH2 0xB5D JUMPI PUSH1 0x2 DUP2 DUP2 SLOAD DUP2 LT PUSH2 0xAC3 JUMPI INVALID JUMPDEST SWAP1 PUSH1 0x0 MSTORE PUSH1 0x20 PUSH1 0x0 KECCAK256 SWAP1 PUSH1 0x8 MUL ADD PUSH1 0x0 ADD PUSH1 0x40 MLOAD PUSH2 0xAE1 SWAP2 SWAP1 PUSH2 0x1B0B JUMP JUMPDEST PUSH1 0x40 MLOAD DUP1 SWAP2 SUB SWAP1 KECCAK256 DUP4 DUP1 MLOAD SWAP1 PUSH1 0x20 ADD KECCAK256 EQ ISZERO PUSH2 0xB50 JUMPI PUSH1 0x2 DUP2 DUP2 SLOAD DUP2 LT PUSH2 0xB04 JUMPI INVALID JUMPDEST SWAP1 PUSH1 0x0 MSTORE PUSH1 0x20 PUSH1 0x0 KECCAK256 SWAP1 PUSH1 0x8 MUL ADD PUSH1 0x7 ADD DUP3 SWAP1 DUP1 PUSH1 0x1 DUP2 SLOAD ADD DUP1 DUP3 SSTORE DUP1 SWAP2 POP POP PUSH1 0x1 SWAP1 SUB SWAP1 PUSH1 0x0 MSTORE PUSH1 0x20 PUSH1 0x0 KECCAK256 ADD PUSH1 0x0 SWAP1 SWAP2 SWAP1 SWAP2 SWAP1 SWAP2 POP SWAP1 DUP1 MLOAD SWAP1 PUSH1 0x20 ADD SWAP1 PUSH2 0xB4E SWAP3 SWAP2 SWAP1 PUSH2 0x1409 JUMP JUMPDEST POP JUMPDEST DUP1 DUP1 PUSH1 0x1 ADD SWAP2 POP POP PUSH2 0xAA9 JUMP JUMPDEST POP POP POP JUMP JUMPDEST CALLER PUSH20 0xFFFFFFFFFFFFFFFFFFFFFFFFFFFFFFFFFFFFFFFF AND PUSH1 0x0 DUP1 SWAP1 SLOAD SWAP1 PUSH2 0x100 EXP SWAP1 DIV PUSH20 0xFFFFFFFFFFFFFFFFFFFFFFFFFFFFFFFFFFFFFFFF AND PUSH20 0xFFFFFFFFFFFFFFFFFFFFFFFFFFFFFFFFFFFFFFFF AND EQ PUSH2 0xBBB JUMPI PUSH1 0x0 DUP1 REVERT JUMPDEST PUSH2 0xBC3 PUSH2 0x1489 JUMP JUMPDEST PUSH1 0x40 MLOAD DUP1 PUSH1 0x80 ADD PUSH1 0x40 MSTORE DUP1 DUP7 PUSH20 0xFFFFFFFFFFFFFFFFFFFFFFFFFFFFFFFFFFFFFFFF AND DUP2 MSTORE PUSH1 0x20 ADD DUP6 DUP2 MSTORE PUSH1 0x20 ADD DUP5 DUP2 MSTORE PUSH1 0x20 ADD DUP4 DUP2 MSTORE POP SWAP1 POP PUSH1 0x3 DUP2 SWAP1 DUP1 PUSH1 0x1 DUP2 SLOAD ADD DUP1 DUP3 SSTORE DUP1 SWAP2 POP POP PUSH1 0x1 SWAP1 SUB SWAP1 PUSH1 0x0 MSTORE PUSH1 0x20 PUSH1 0x0 KECCAK256 SWAP1 PUSH1 0x4 MUL ADD PUSH1 0x0 SWAP1 SWAP2 SWAP1 SWAP2 SWAP1 SWAP2 POP PUSH1 0x0 DUP3 ADD MLOAD DUP2 PUSH1 0x0 ADD PUSH1 0x0 PUSH2 0x100 EXP DUP2 SLOAD DUP2 PUSH20 0xFFFFFFFFFFFFFFFFFFFFFFFFFFFFFFFFFFFFFFFF MUL NOT AND SWAP1 DUP4 PUSH20 0xFFFFFFFFFFFFFFFFFFFFFFFFFFFFFFFFFFFFFFFF AND MUL OR SWAP1 SSTORE POP PUSH1 0x20 DUP3 ADD MLOAD DUP2 PUSH1 0x1 ADD SWAP1 DUP1 MLOAD SWAP1 PUSH1 0x20 ADD SWAP1 PUSH2 0xC8B SWAP3 SWAP2 SWAP1 PUSH2 0x1409 JUMP JUMPDEST POP PUSH1 0x40 DUP3 ADD MLOAD DUP2 PUSH1 0x2 ADD SWAP1 DUP1 MLOAD SWAP1 PUSH1 0x20 ADD SWAP1 PUSH2 0xCA8 SWAP3 SWAP2 SWAP1 PUSH2 0x1409 JUMP JUMPDEST POP PUSH1 0x60 DUP3 ADD MLOAD DUP2 PUSH1 0x3 ADD SWAP1 DUP1 MLOAD SWAP1 PUSH1 0x20 ADD SWAP1 PUSH2 0xCC5 SWAP3 SWAP2 SWAP1 PUSH2 0x1409 JUMP JUMPDEST POP POP POP POP POP POP POP POP JUMP JUMPDEST PUSH2 0xCD7 PUSH2 0x208 JUMP JUMPDEST PUSH2 0xCE0 JUMPI PUSH1 0x0 DUP1 REVERT JUMPDEST PUSH2 0xCE8 PUSH2 0x14C7 JUMP JUMPDEST PUSH1 0x40 MLOAD DUP1 PUSH2 0x120 ADD PUSH1 0x40 MSTORE DUP1 DUP7 DUP2 MSTORE PUSH1 0x20 ADD DUP6 DUP2 MSTORE PUSH1 0x20 ADD DUP5 PUSH1 0xFF AND DUP2 MSTORE PUSH1 0x20 ADD DUP4 DUP2 MSTORE PUSH1 0x20 ADD PUSH1 0x40 MLOAD DUP1 PUSH1 0x20 ADD PUSH1 0x40 MSTORE DUP1 PUSH1 0x0 DUP2 MSTORE POP DUP2 MSTORE PUSH1 0x20 ADD PUSH1 0x40 MLOAD DUP1 PUSH1 0x20 ADD PUSH1 0x40 MSTORE DUP1 PUSH1 0x0 DUP2 MSTORE POP DUP2 MSTORE PUSH1 0x20 ADD PUSH1 0x0 PUSH1 0xFF AND DUP2 MSTORE PUSH1 0x20 ADD PUSH1 0x0 PUSH1 0xFF AND DUP2 MSTORE PUSH1 0x20 ADD PUSH1 0x0 PUSH8 0xFFFFFFFFFFFFFFFF DUP2 GT DUP1 ISZERO PUSH2 0xD65 JUMPI PUSH1 0x0 DUP1 REVERT JUMPDEST POP PUSH1 0x40 MLOAD SWAP1 DUP1 DUP3 MSTORE DUP1 PUSH1 0x20 MUL PUSH1 0x20 ADD DUP3 ADD PUSH1 0x40 MSTORE DUP1 ISZERO PUSH2 0xD99 JUMPI DUP2 PUSH1 0x20 ADD JUMPDEST PUSH1 0x60 DUP2 MSTORE PUSH1 0x20 ADD SWAP1 PUSH1 0x1 SWAP1 SUB SWAP1 DUP2 PUSH2 0xD84 JUMPI SWAP1 POP JUMPDEST POP DUP2 MSTORE POP SWAP1 POP PUSH1 0x2 DUP2 SWAP1 DUP1 PUSH1 0x1 DUP2 SLOAD ADD DUP1 DUP3 SSTORE DUP1 SWAP2 POP POP PUSH1 0x1 SWAP1 SUB SWAP1 PUSH1 0x0 MSTORE PUSH1 0x20 PUSH1 0x0 KECCAK256 SWAP1 PUSH1 0x8 MUL ADD PUSH1 0x0 SWAP1 SWAP2 SWAP1 SWAP2 SWAP1 SWAP2 POP PUSH1 0x0 DUP3 ADD MLOAD DUP2 PUSH1 0x0 ADD SWAP1 DUP1 MLOAD SWAP1 PUSH1 0x20 ADD SWAP1 PUSH2 0xDE7 SWAP3 SWAP2 SWAP1 PUSH2 0x1409 JUMP JUMPDEST POP PUSH1 0x20 DUP3 ADD MLOAD DUP2 PUSH1 0x1 ADD SWAP1 DUP1 MLOAD SWAP1 PUSH1 0x20 ADD SWAP1 PUSH2 0xE04 SWAP3 SWAP2 SWAP1 PUSH2 0x1409 JUMP JUMPDEST POP PUSH1 0x40 DUP3 ADD MLOAD DUP2 PUSH1 0x2 ADD PUSH1 0x0 PUSH2 0x100 EXP DUP2 SLOAD DUP2 PUSH1 0xFF MUL NOT AND SWAP1 DUP4 PUSH1 0xFF AND MUL OR SWAP1 SSTORE POP PUSH1 0x60 DUP3 ADD MLOAD DUP2 PUSH1 0x3 ADD SWAP1 DUP1 MLOAD SWAP1 PUSH1 0x20 ADD SWAP1 PUSH2 0xE42 SWAP3 SWAP2 SWAP1 PUSH2 0x1409 JUMP JUMPDEST POP PUSH1 0x80 DUP3 ADD MLOAD DUP2 PUSH1 0x4 ADD SWAP1 DUP1 MLOAD SWAP1 PUSH1 0x20 ADD SWAP1 PUSH2 0xE5F SWAP3 SWAP2 SWAP1 PUSH2 0x1409 JUMP JUMPDEST POP PUSH1 0xA0 DUP3 ADD MLOAD DUP2 PUSH1 0x5 ADD SWAP1 DUP1 MLOAD SWAP1 PUSH1 0x20 ADD SWAP1 PUSH2 0xE7C SWAP3 SWAP2 SWAP1 PUSH2 0x1409 JUMP JUMPDEST POP PUSH1 0xC0 DUP3 ADD MLOAD DUP2 PUSH1 0x6 ADD PUSH1 0x0 PUSH2 0x100 EXP DUP2 SLOAD DUP2 PUSH1 0xFF MUL NOT AND SWAP1 DUP4 PUSH1 0xFF AND MUL OR SWAP1 SSTORE POP PUSH1 0xE0 DUP3 ADD MLOAD DUP2 PUSH1 0x6 ADD PUSH1 0x1 PUSH2 0x100 EXP DUP2 SLOAD DUP2 PUSH1 0xFF MUL NOT AND SWAP1 DUP4 PUSH1 0xFF AND MUL OR SWAP1 SSTORE POP PUSH2 0x100 DUP3 ADD MLOAD DUP2 PUSH1 0x7 ADD SWAP1 DUP1 MLOAD SWAP1 PUSH1 0x20 ADD SWAP1 PUSH2 0xEDC SWAP3 SWAP2 SWAP1 PUSH2 0x151C JUMP JUMPDEST POP POP POP POP POP POP POP POP JUMP JUMPDEST PUSH2 0xEEE PUSH2 0x208 JUMP JUMPDEST PUSH2 0xEF7 JUMPI PUSH1 0x0 DUP1 REVERT JUMPDEST PUSH1 0x0 JUMPDEST PUSH1 0x2 DUP1 SLOAD SWAP1 POP DUP2 LT ISZERO PUSH2 0x102A JUMPI PUSH1 0x2 DUP2 DUP2 SLOAD DUP2 LT PUSH2 0xF14 JUMPI INVALID JUMPDEST SWAP1 PUSH1 0x0 MSTORE PUSH1 0x20 PUSH1 0x0 KECCAK256 SWAP1 PUSH1 0x8 MUL ADD PUSH1 0x0 ADD PUSH1 0x40 MLOAD PUSH2 0xF32 SWAP2 SWAP1 PUSH2 0x1B0B JUMP JUMPDEST PUSH1 0x40 MLOAD DUP1 SWAP2 SUB SWAP1 KECCAK256 DUP7 DUP1 MLOAD SWAP1 PUSH1 0x20 ADD KECCAK256 EQ ISZERO PUSH2 0x101D JUMPI DUP5 PUSH1 0x2 DUP3 DUP2 SLOAD DUP2 LT PUSH2 0xF56 JUMPI INVALID JUMPDEST SWAP1 PUSH1 0x0 MSTORE PUSH1 0x20 PUSH1 0x0 KECCAK256 SWAP1 PUSH1 0x8 MUL ADD PUSH1 0x4 ADD SWAP1 DUP1 MLOAD SWAP1 PUSH1 0x20 ADD SWAP1 PUSH2 0xF7A SWAP3 SWAP2 SWAP1 PUSH2 0x1409 JUMP JUMPDEST POP DUP4 PUSH1 0x2 DUP3 DUP2 SLOAD DUP2 LT PUSH2 0xF89 JUMPI INVALID JUMPDEST SWAP1 PUSH1 0x0 MSTORE PUSH1 0x20 PUSH1 0x0 KECCAK256 SWAP1 PUSH1 0x8 MUL ADD PUSH1 0x5 ADD SWAP1 DUP1 MLOAD SWAP1 PUSH1 0x20 ADD SWAP1 PUSH2 0xFAD SWAP3 SWAP2 SWAP1 PUSH2 0x1409 JUMP JUMPDEST POP DUP3 PUSH1 0x2 DUP3 DUP2 SLOAD DUP2 LT PUSH2 0xFBC JUMPI INVALID JUMPDEST SWAP1 PUSH1 0x0 MSTORE PUSH1 0x20 PUSH1 0x0 KECCAK256 SWAP1 PUSH1 0x8 MUL ADD PUSH1 0x6 ADD PUSH1 0x1 PUSH2 0x100 EXP DUP2 SLOAD DUP2 PUSH1 0xFF MUL NOT AND SWAP1 DUP4 PUSH1 0xFF AND MUL OR SWAP1 SSTORE POP DUP2 PUSH1 0x2 DUP3 DUP2 SLOAD DUP2 LT PUSH2 0xFF3 JUMPI INVALID JUMPDEST SWAP1 PUSH1 0x0 MSTORE PUSH1 0x20 PUSH1 0x0 KECCAK256 SWAP1 PUSH1 0x8 MUL ADD PUSH1 0x6 ADD PUSH1 0x0 PUSH2 0x100 EXP DUP2 SLOAD DUP2 PUSH1 0xFF MUL NOT AND SWAP1 DUP4 PUSH1 0xFF AND MUL OR SWAP1 SSTORE POP JUMPDEST DUP1 DUP1 PUSH1 0x1 ADD SWAP2 POP POP PUSH2 0xEFA JUMP JUMPDEST POP POP POP POP POP POP JUMP JUMPDEST PUSH1 0x0 DUP1 PUSH1 0x0 SWAP1 SLOAD SWAP1 PUSH2 0x100 EXP SWAP1 DIV PUSH20 0xFFFFFFFFFFFFFFFFFFFFFFFFFFFFFFFFFFFFFFFF AND SWAP1 POP SWAP1 JUMP JUMPDEST PUSH1 0x0 PUSH1 0x60 DUP1 PUSH1 0x60 CALLER PUSH20 0xFFFFFFFFFFFFFFFFFFFFFFFFFFFFFFFFFFFFFFFF AND PUSH1 0x0 DUP1 SWAP1 SLOAD SWAP1 PUSH2 0x100 EXP SWAP1 DIV PUSH20 0xFFFFFFFFFFFFFFFFFFFFFFFFFFFFFFFFFFFFFFFF AND PUSH20 0xFFFFFFFFFFFFFFFFFFFFFFFFFFFFFFFFFFFFFFFF AND EQ PUSH2 0x10BB JUMPI PUSH1 0x0 DUP1 REVERT JUMPDEST PUSH1 0x0 PUSH1 0x60 DUP1 PUSH1 0x0 DUP1 SWAP1 POP JUMPDEST PUSH1 0x3 DUP1 SLOAD SWAP1 POP DUP2 LT ISZERO PUSH2 0x138E JUMPI PUSH1 0x3 DUP2 DUP2 SLOAD DUP2 LT PUSH2 0x10E0 JUMPI INVALID JUMPDEST SWAP1 PUSH1 0x0 MSTORE PUSH1 0x20 PUSH1 0x0 KECCAK256 SWAP1 PUSH1 0x4 MUL ADD PUSH1 0x2 ADD PUSH1 0x40 MLOAD PUSH2 0x10FE SWAP2 SWAP1 PUSH2 0x1B0B JUMP JUMPDEST PUSH1 0x40 MLOAD DUP1 SWAP2 SUB SWAP1 KECCAK256 DUP10 DUP1 MLOAD SWAP1 PUSH1 0x20 ADD KECCAK256 EQ ISZERO PUSH2 0x1381 JUMPI PUSH1 0x3 DUP2 DUP2 SLOAD DUP2 LT PUSH2 0x1121 JUMPI INVALID JUMPDEST SWAP1 PUSH1 0x0 MSTORE PUSH1 0x20 PUSH1 0x0 KECCAK256 SWAP1 PUSH1 0x4 MUL ADD PUSH1 0x0 ADD PUSH1 0x0 SWAP1 SLOAD SWAP1 PUSH2 0x100 EXP SWAP1 DIV PUSH20 0xFFFFFFFFFFFFFFFFFFFFFFFFFFFFFFFFFFFFFFFF AND SWAP4 POP PUSH1 0x3 DUP2 DUP2 SLOAD DUP2 LT PUSH2 0x1162 JUMPI INVALID JUMPDEST SWAP1 PUSH1 0x0 MSTORE PUSH1 0x20 PUSH1 0x0 KECCAK256 SWAP1 PUSH1 0x4 MUL ADD PUSH1 0x1 ADD DUP1 SLOAD PUSH1 0x1 DUP2 PUSH1 0x1 AND ISZERO PUSH2 0x100 MUL SUB AND PUSH1 0x2 SWAP1 DIV DUP1 PUSH1 0x1F ADD PUSH1 0x20 DUP1 SWAP2 DIV MUL PUSH1 0x20 ADD PUSH1 0x40 MLOAD SWAP1 DUP2 ADD PUSH1 0x40 MSTORE DUP1 SWAP3 SWAP2 SWAP1 DUP2 DUP2 MSTORE PUSH1 0x20 ADD DUP3 DUP1 SLOAD PUSH1 0x1 DUP2 PUSH1 0x1 AND ISZERO PUSH2 0x100 MUL SUB AND PUSH1 0x2 SWAP1 DIV DUP1 ISZERO PUSH2 0x1207 JUMPI DUP1 PUSH1 0x1F LT PUSH2 0x11DC JUMPI PUSH2 0x100 DUP1 DUP4 SLOAD DIV MUL DUP4 MSTORE SWAP2 PUSH1 0x20 ADD SWAP2 PUSH2 0x1207 JUMP JUMPDEST DUP3 ADD SWAP2 SWAP1 PUSH1 0x0 MSTORE PUSH1 0x20 PUSH1 0x0 KECCAK256 SWAP1 JUMPDEST DUP2 SLOAD DUP2 MSTORE SWAP1 PUSH1 0x1 ADD SWAP1 PUSH1 0x20 ADD DUP1 DUP4 GT PUSH2 0x11EA JUMPI DUP3 SWAP1 SUB PUSH1 0x1F AND DUP3 ADD SWAP2 JUMPDEST POP POP POP POP POP SWAP3 POP PUSH1 0x3 DUP2 DUP2 SLOAD DUP2 LT PUSH2 0x121B JUMPI INVALID JUMPDEST SWAP1 PUSH1 0x0 MSTORE PUSH1 0x20 PUSH1 0x0 KECCAK256 SWAP1 PUSH1 0x4 MUL ADD PUSH1 0x2 ADD DUP1 SLOAD PUSH1 0x1 DUP2 PUSH1 0x1 AND ISZERO PUSH2 0x100 MUL SUB AND PUSH1 0x2 SWAP1 DIV DUP1 PUSH1 0x1F ADD PUSH1 0x20 DUP1 SWAP2 DIV MUL PUSH1 0x20 ADD PUSH1 0x40 MLOAD SWAP1 DUP2 ADD PUSH1 0x40 MSTORE DUP1 SWAP3 SWAP2 SWAP1 DUP2 DUP2 MSTORE PUSH1 0x20 ADD DUP3 DUP1 SLOAD PUSH1 0x1 DUP2 PUSH1 0x1 AND ISZERO PUSH2 0x100 MUL SUB AND PUSH1 0x2 SWAP1 DIV DUP1 ISZERO PUSH2 0x12C0 JUMPI DUP1 PUSH1 0x1F LT PUSH2 0x1295 JUMPI PUSH2 0x100 DUP1 DUP4 SLOAD DIV MUL DUP4 MSTORE SWAP2 PUSH1 0x20 ADD SWAP2 PUSH2 0x12C0 JUMP JUMPDEST DUP3 ADD SWAP2 SWAP1 PUSH1 0x0 MSTORE PUSH1 0x20 PUSH1 0x0 KECCAK256 SWAP1 JUMPDEST DUP2 SLOAD DUP2 MSTORE SWAP1 PUSH1 0x1 ADD SWAP1 PUSH1 0x20 ADD DUP1 DUP4 GT PUSH2 0x12A3 JUMPI DUP3 SWAP1 SUB PUSH1 0x1F AND DUP3 ADD SWAP2 JUMPDEST POP POP POP POP POP SWAP9 POP PUSH1 0x3 DUP2 DUP2 SLOAD DUP2 LT PUSH2 0x12D4 JUMPI INVALID JUMPDEST SWAP1 PUSH1 0x0 MSTORE PUSH1 0x20 PUSH1 0x0 KECCAK256 SWAP1 PUSH1 0x4 MUL ADD PUSH1 0x3 ADD DUP1 SLOAD PUSH1 0x1 DUP2 PUSH1 0x1 AND ISZERO PUSH2 0x100 MUL SUB AND PUSH1 0x2 SWAP1 DIV DUP1 PUSH1 0x1F ADD PUSH1 0x20 DUP1 SWAP2 DIV MUL PUSH1 0x20 ADD PUSH1 0x40 MLOAD SWAP1 DUP2 ADD PUSH1 0x40 MSTORE DUP1 SWAP3 SWAP2 SWAP1 DUP2 DUP2 MSTORE PUSH1 0x20 ADD DUP3 DUP1 SLOAD PUSH1 0x1 DUP2 PUSH1 0x1 AND ISZERO PUSH2 0x100 MUL SUB AND PUSH1 0x2 SWAP1 DIV DUP1 ISZERO PUSH2 0x1379 JUMPI DUP1 PUSH1 0x1F LT PUSH2 0x134E JUMPI PUSH2 0x100 DUP1 DUP4 SLOAD DIV MUL DUP4 MSTORE SWAP2 PUSH1 0x20 ADD SWAP2 PUSH2 0x1379 JUMP JUMPDEST DUP3 ADD SWAP2 SWAP1 PUSH1 0x0 MSTORE PUSH1 0x20 PUSH1 0x0 KECCAK256 SWAP1 JUMPDEST DUP2 SLOAD DUP2 MSTORE SWAP1 PUSH1 0x1 ADD SWAP1 PUSH1 0x20 ADD DUP1 DUP4 GT PUSH2 0x135C JUMPI DUP3 SWAP1 SUB PUSH1 0x1F AND DUP3 ADD SWAP2 JUMPDEST POP POP POP POP POP SWAP2 POP JUMPDEST DUP1 DUP1 PUSH1 0x1 ADD SWAP2 POP POP PUSH2 0x10C6 JUMP JUMPDEST POP DUP3 DUP3 DUP10 DUP4 SWAP7 POP SWAP7 POP SWAP7 POP SWAP7 POP POP POP POP SWAP2 SWAP4 POP SWAP2 SWAP4 JUMP JUMPDEST PUSH1 0x0 CALLER PUSH20 0xFFFFFFFFFFFFFFFFFFFFFFFFFFFFFFFFFFFFFFFF AND PUSH1 0x0 DUP1 SWAP1 SLOAD SWAP1 PUSH2 0x100 EXP SWAP1 DIV PUSH20 0xFFFFFFFFFFFFFFFFFFFFFFFFFFFFFFFFFFFFFFFF AND PUSH20 0xFFFFFFFFFFFFFFFFFFFFFFFFFFFFFFFFFFFFFFFF AND EQ ISZERO PUSH2 0x1405 JUMPI PUSH1 0x1 SWAP1 POP PUSH2 0x1406 JUMP JUMPDEST JUMPDEST SWAP1 JUMP JUMPDEST DUP3 DUP1 SLOAD PUSH1 0x1 DUP2 PUSH1 0x1 AND ISZERO PUSH2 0x100 MUL SUB AND PUSH1 0x2 SWAP1 DIV SWAP1 PUSH1 0x0 MSTORE PUSH1 0x20 PUSH1 0x0 KECCAK256 SWAP1 PUSH1 0x1F ADD PUSH1 0x20 SWAP1 DIV DUP2 ADD SWAP3 DUP3 PUSH1 0x1F LT PUSH2 0x144A JUMPI DUP1 MLOAD PUSH1 0xFF NOT AND DUP4 DUP1 ADD OR DUP6 SSTORE PUSH2 0x1478 JUMP JUMPDEST DUP3 DUP1 ADD PUSH1 0x1 ADD DUP6 SSTORE DUP3 ISZERO PUSH2 0x1478 JUMPI SWAP2 DUP3 ADD JUMPDEST DUP3 DUP2 GT ISZERO PUSH2 0x1477 JUMPI DUP3 MLOAD DUP3 SSTORE SWAP2 PUSH1 0x20 ADD SWAP2 SWAP1 PUSH1 0x1 ADD SWAP1 PUSH2 0x145C JUMP JUMPDEST JUMPDEST POP SWAP1 POP PUSH2 0x1485 SWAP2 SWAP1 PUSH2 0x157C JUMP JUMPDEST POP SWAP1 JUMP JUMPDEST PUSH1 0x40 MLOAD DUP1 PUSH1 0x80 ADD PUSH1 0x40 MSTORE DUP1 PUSH1 0x0 PUSH20 0xFFFFFFFFFFFFFFFFFFFFFFFFFFFFFFFFFFFFFFFF AND DUP2 MSTORE PUSH1 0x20 ADD PUSH1 0x60 DUP2 MSTORE PUSH1 0x20 ADD PUSH1 0x60 DUP2 MSTORE PUSH1 0x20 ADD PUSH1 0x60 DUP2 MSTORE POP SWAP1 JUMP JUMPDEST PUSH1 0x40 MLOAD DUP1 PUSH2 0x120 ADD PUSH1 0x40 MSTORE DUP1 PUSH1 0x60 DUP2 MSTORE PUSH1 0x20 ADD PUSH1 0x60 DUP2 MSTORE PUSH1 0x20 ADD PUSH1 0x0 PUSH1 0xFF AND DUP2 MSTORE PUSH1 0x20 ADD PUSH1 0x60 DUP2 MSTORE PUSH1 0x20 ADD PUSH1 0x60 DUP2 MSTORE PUSH1 0x20 ADD PUSH1 0x60 DUP2 MSTORE PUSH1 0x20 ADD PUSH1 0x0 PUSH1 0xFF AND DUP2 MSTORE PUSH1 0x20 ADD PUSH1 0x0 PUSH1 0xFF AND DUP2 MSTORE PUSH1 0x20 ADD PUSH1 0x60 DUP2 MSTORE POP SWAP1 JUMP JUMPDEST DUP3 DUP1 SLOAD DUP3 DUP3 SSTORE SWAP1 PUSH1 0x0 MSTORE PUSH1 0x20 PUSH1 0x0 KECCAK256 SWAP1 DUP2 ADD SWAP3 DUP3 ISZERO PUSH2 0x156B JUMPI SWAP2 PUSH1 0x20 MUL DUP3 ADD JUMPDEST DUP3 DUP2 GT ISZERO PUSH2 0x156A JUMPI DUP3 MLOAD DUP3 SWAP1 DUP1 MLOAD SWAP1 PUSH1 0x20 ADD SWAP1 PUSH2 0x155A SWAP3 SWAP2 SWAP1 PUSH2 0x1409 JUMP JUMPDEST POP SWAP2 PUSH1 0x20 ADD SWAP2 SWAP1 PUSH1 0x1 ADD SWAP1 PUSH2 0x153C JUMP JUMPDEST JUMPDEST POP SWAP1 POP PUSH2 0x1578 SWAP2 SWAP1 PUSH2 0x15A1 JUMP JUMPDEST POP SWAP1 JUMP JUMPDEST PUSH2 0x159E SWAP2 SWAP1 JUMPDEST DUP1 DUP3 GT ISZERO PUSH2 0x159A JUMPI PUSH1 0x0 DUP2 PUSH1 0x0 SWAP1 SSTORE POP PUSH1 0x1 ADD PUSH2 0x1582 JUMP JUMPDEST POP SWAP1 JUMP JUMPDEST SWAP1 JUMP JUMPDEST PUSH2 0x15CA SWAP2 SWAP1 JUMPDEST DUP1 DUP3 GT ISZERO PUSH2 0x15C6 JUMPI PUSH1 0x0 DUP2 DUP2 PUSH2 0x15BD SWAP2 SWAP1 PUSH2 0x15CD JUMP JUMPDEST POP PUSH1 0x1 ADD PUSH2 0x15A7 JUMP JUMPDEST POP SWAP1 JUMP JUMPDEST SWAP1 JUMP JUMPDEST POP DUP1 SLOAD PUSH1 0x1 DUP2 PUSH1 0x1 AND ISZERO PUSH2 0x100 MUL SUB AND PUSH1 0x2 SWAP1 DIV PUSH1 0x0 DUP3 SSTORE DUP1 PUSH1 0x1F LT PUSH2 0x15F3 JUMPI POP PUSH2 0x1612 JUMP JUMPDEST PUSH1 0x1F ADD PUSH1 0x20 SWAP1 DIV SWAP1 PUSH1 0x0 MSTORE PUSH1 0x20 PUSH1 0x0 KECCAK256 SWAP1 DUP2 ADD SWAP1 PUSH2 0x1611 SWAP2 SWAP1 PUSH2 0x157C JUMP JUMPDEST JUMPDEST POP JUMP JUMPDEST PUSH1 0x0 DUP2 CALLDATALOAD SWAP1 POP PUSH2 0x1624 DUP2 PUSH2 0x1E08 JUMP JUMPDEST SWAP3 SWAP2 POP POP JUMP JUMPDEST PUSH1 0x0 DUP3 PUSH1 0x1F DUP4 ADD SLT PUSH2 0x163B JUMPI PUSH1 0x0 DUP1 REVERT JUMPDEST DUP2 CALLDATALOAD PUSH2 0x164E PUSH2 0x1649 DUP3 PUSH2 0x1CB8 JUMP JUMPDEST PUSH2 0x1C8B JUMP JUMPDEST SWAP2 POP DUP1 DUP3 MSTORE PUSH1 0x20 DUP4 ADD PUSH1 0x20 DUP4 ADD DUP6 DUP4 DUP4 ADD GT ISZERO PUSH2 0x166A JUMPI PUSH1 0x0 DUP1 REVERT JUMPDEST PUSH2 0x1675 DUP4 DUP3 DUP5 PUSH2 0x1DB5 JUMP JUMPDEST POP POP POP SWAP3 SWAP2 POP POP JUMP JUMPDEST PUSH1 0x0 DUP2 CALLDATALOAD SWAP1 POP PUSH2 0x168D DUP2 PUSH2 0x1E1F JUMP JUMPDEST SWAP3 SWAP2 POP POP JUMP JUMPDEST PUSH1 0x0 DUP1 PUSH1 0x0 DUP1 PUSH1 0x80 DUP6 DUP8 SUB SLT ISZERO PUSH2 0x16A9 JUMPI PUSH1 0x0 DUP1 REVERT JUMPDEST PUSH1 0x0 PUSH2 0x16B7 DUP8 DUP3 DUP9 ADD PUSH2 0x1615 JUMP JUMPDEST SWAP5 POP POP PUSH1 0x20 DUP6 ADD CALLDATALOAD PUSH8 0xFFFFFFFFFFFFFFFF DUP2 GT ISZERO PUSH2 0x16D4 JUMPI PUSH1 0x0 DUP1 REVERT JUMPDEST PUSH2 0x16E0 DUP8 DUP3 DUP9 ADD PUSH2 0x162A JUMP JUMPDEST SWAP4 POP POP PUSH1 0x40 DUP6 ADD CALLDATALOAD PUSH8 0xFFFFFFFFFFFFFFFF DUP2 GT ISZERO PUSH2 0x16FD JUMPI PUSH1 0x0 DUP1 REVERT JUMPDEST PUSH2 0x1709 DUP8 DUP3 DUP9 ADD PUSH2 0x162A JUMP JUMPDEST SWAP3 POP POP PUSH1 0x60 DUP6 ADD CALLDATALOAD PUSH8 0xFFFFFFFFFFFFFFFF DUP2 GT ISZERO PUSH2 0x1726 JUMPI PUSH1 0x0 DUP1 REVERT JUMPDEST PUSH2 0x1732 DUP8 DUP3 DUP9 ADD PUSH2 0x162A JUMP JUMPDEST SWAP2 POP POP SWAP3 SWAP6 SWAP2 SWAP5 POP SWAP3 POP JUMP JUMPDEST PUSH1 0x0 PUSH1 0x20 DUP3 DUP5 SUB SLT ISZERO PUSH2 0x1750 JUMPI PUSH1 0x0 DUP1 REVERT JUMPDEST PUSH1 0x0 DUP3 ADD CALLDATALOAD PUSH8 0xFFFFFFFFFFFFFFFF DUP2 GT ISZERO PUSH2 0x176A JUMPI PUSH1 0x0 DUP1 REVERT JUMPDEST PUSH2 0x1776 DUP5 DUP3 DUP6 ADD PUSH2 0x162A JUMP JUMPDEST SWAP2 POP POP SWAP3 SWAP2 POP POP JUMP JUMPDEST PUSH1 0x0 DUP1 PUSH1 0x40 DUP4 DUP6 SUB SLT ISZERO PUSH2 0x1792 JUMPI PUSH1 0x0 DUP1 REVERT JUMPDEST PUSH1 0x0 DUP4 ADD CALLDATALOAD PUSH8 0xFFFFFFFFFFFFFFFF DUP2 GT ISZERO PUSH2 0x17AC JUMPI PUSH1 0x0 DUP1 REVERT JUMPDEST PUSH2 0x17B8 DUP6 DUP3 DUP7 ADD PUSH2 0x162A JUMP JUMPDEST SWAP3 POP POP PUSH1 0x20 DUP4 ADD CALLDATALOAD PUSH8 0xFFFFFFFFFFFFFFFF DUP2 GT ISZERO PUSH2 0x17D5 JUMPI PUSH1 0x0 DUP1 REVERT JUMPDEST PUSH2 0x17E1 DUP6 DUP3 DUP7 ADD PUSH2 0x162A JUMP JUMPDEST SWAP2 POP POP SWAP3 POP SWAP3 SWAP1 POP JUMP JUMPDEST PUSH1 0x0 DUP1 PUSH1 0x0 DUP1 PUSH1 0x0 PUSH1 0xA0 DUP7 DUP9 SUB SLT ISZERO PUSH2 0x1803 JUMPI PUSH1 0x0 DUP1 REVERT JUMPDEST PUSH1 0x0 DUP7 ADD CALLDATALOAD PUSH8 0xFFFFFFFFFFFFFFFF DUP2 GT ISZERO PUSH2 0x181D JUMPI PUSH1 0x0 DUP1 REVERT JUMPDEST PUSH2 0x1829 DUP9 DUP3 DUP10 ADD PUSH2 0x162A JUMP JUMPDEST SWAP6 POP POP PUSH1 0x20 DUP7 ADD CALLDATALOAD PUSH8 0xFFFFFFFFFFFFFFFF DUP2 GT ISZERO PUSH2 0x1846 JUMPI PUSH1 0x0 DUP1 REVERT JUMPDEST PUSH2 0x1852 DUP9 DUP3 DUP10 ADD PUSH2 0x162A JUMP JUMPDEST SWAP5 POP POP PUSH1 0x40 DUP7 ADD CALLDATALOAD PUSH8 0xFFFFFFFFFFFFFFFF DUP2 GT ISZERO PUSH2 0x186F JUMPI PUSH1 0x0 DUP1 REVERT JUMPDEST PUSH2 0x187B DUP9 DUP3 DUP10 ADD PUSH2 0x162A JUMP JUMPDEST SWAP4 POP POP PUSH1 0x60 PUSH2 0x188C DUP9 DUP3 DUP10 ADD PUSH2 0x167E JUMP JUMPDEST SWAP3 POP POP PUSH1 0x80 PUSH2 0x189D DUP9 DUP3 DUP10 ADD PUSH2 0x167E JUMP JUMPDEST SWAP2 POP POP SWAP3 SWAP6 POP SWAP3 SWAP6 SWAP1 SWAP4 POP JUMP JUMPDEST PUSH1 0x0 DUP1 PUSH1 0x0 DUP1 PUSH1 0x80 DUP6 DUP8 SUB SLT ISZERO PUSH2 0x18C0 JUMPI PUSH1 0x0 DUP1 REVERT JUMPDEST PUSH1 0x0 DUP6 ADD CALLDATALOAD PUSH8 0xFFFFFFFFFFFFFFFF DUP2 GT ISZERO PUSH2 0x18DA JUMPI PUSH1 0x0 DUP1 REVERT JUMPDEST PUSH2 0x18E6 DUP8 DUP3 DUP9 ADD PUSH2 0x162A JUMP JUMPDEST SWAP5 POP POP PUSH1 0x20 DUP6 ADD CALLDATALOAD PUSH8 0xFFFFFFFFFFFFFFFF DUP2 GT ISZERO PUSH2 0x1903 JUMPI PUSH1 0x0 DUP1 REVERT JUMPDEST PUSH2 0x190F DUP8 DUP3 DUP9 ADD PUSH2 0x162A JUMP JUMPDEST SWAP4 POP POP PUSH1 0x40 PUSH2 0x1920 DUP8 DUP3 DUP9 ADD PUSH2 0x167E JUMP JUMPDEST SWAP3 POP POP PUSH1 0x60 DUP6 ADD CALLDATALOAD PUSH8 0xFFFFFFFFFFFFFFFF DUP2 GT ISZERO PUSH2 0x193D JUMPI PUSH1 0x0 DUP1 REVERT JUMPDEST PUSH2 0x1949 DUP8 DUP3 DUP9 ADD PUSH2 0x162A JUMP JUMPDEST SWAP2 POP POP SWAP3 SWAP6 SWAP2 SWAP5 POP SWAP3 POP JUMP JUMPDEST PUSH1 0x0 PUSH2 0x1961 DUP4 DUP4 PUSH2 0x1A8A JUMP JUMPDEST SWAP1 POP SWAP3 SWAP2 POP POP JUMP JUMPDEST PUSH2 0x1972 DUP2 PUSH2 0x1D6A JUMP JUMPDEST DUP3 MSTORE POP POP JUMP JUMPDEST PUSH1 0x0 PUSH2 0x1983 DUP3 PUSH2 0x1D09 JUMP JUMPDEST PUSH2 0x198D DUP2 DUP6 PUSH2 0x1D2C JUMP JUMPDEST SWAP4 POP DUP4 PUSH1 0x20 DUP3 MUL DUP6 ADD PUSH2 0x199F DUP6 PUSH2 0x1CE4 JUMP JUMPDEST DUP1 PUSH1 0x0 JUMPDEST DUP6 DUP2 LT ISZERO PUSH2 0x19DB JUMPI DUP5 DUP5 SUB DUP10 MSTORE DUP2 MLOAD PUSH2 0x19BC DUP6 DUP3 PUSH2 0x1955 JUMP JUMPDEST SWAP5 POP PUSH2 0x19C7 DUP4 PUSH2 0x1D1F JUMP JUMPDEST SWAP3 POP PUSH1 0x20 DUP11 ADD SWAP10 POP POP PUSH1 0x1 DUP2 ADD SWAP1 POP PUSH2 0x19A3 JUMP JUMPDEST POP DUP3 SWAP8 POP DUP8 SWAP6 POP POP POP POP POP POP SWAP3 SWAP2 POP POP JUMP JUMPDEST PUSH2 0x19F6 DUP2 PUSH2 0x1D7C JUMP JUMPDEST DUP3 MSTORE POP POP JUMP JUMPDEST PUSH1 0x0 DUP2 SLOAD PUSH1 0x1 DUP2 AND PUSH1 0x0 DUP2 EQ PUSH2 0x1A19 JUMPI PUSH1 0x1 DUP2 EQ PUSH2 0x1A3E JUMPI PUSH2 0x1A82 JUMP JUMPDEST PUSH1 0x7F PUSH1 0x2 DUP4 DIV AND PUSH2 0x1A2A DUP2 DUP8 PUSH2 0x1D3D JUMP JUMPDEST SWAP6 POP PUSH1 0xFF NOT DUP4 AND DUP7 MSTORE DUP1 DUP7 ADD SWAP4 POP POP PUSH2 0x1A82 JUMP JUMPDEST PUSH1 0x2 DUP3 DIV PUSH2 0x1A4C DUP2 DUP8 PUSH2 0x1D3D JUMP JUMPDEST SWAP6 POP PUSH2 0x1A57 DUP6 PUSH2 0x1CF4 JUMP JUMPDEST PUSH1 0x0 JUMPDEST DUP3 DUP2 LT ISZERO PUSH2 0x1A79 JUMPI DUP2 SLOAD DUP2 DUP10 ADD MSTORE PUSH1 0x1 DUP3 ADD SWAP2 POP PUSH1 0x20 DUP2 ADD SWAP1 POP PUSH2 0x1A5A JUMP JUMPDEST DUP3 DUP9 ADD SWAP6 POP POP POP POP JUMPDEST POP POP SWAP3 SWAP2 POP POP JUMP JUMPDEST PUSH1 0x0 PUSH2 0x1A95 DUP3 PUSH2 0x1D14 JUMP JUMPDEST PUSH2 0x1A9F DUP2 DUP6 PUSH2 0x1D48 JUMP JUMPDEST SWAP4 POP PUSH2 0x1AAF DUP2 DUP6 PUSH1 0x20 DUP7 ADD PUSH2 0x1DC4 JUMP JUMPDEST PUSH2 0x1AB8 DUP2 PUSH2 0x1DF7 JUMP JUMPDEST DUP5 ADD SWAP2 POP POP SWAP3 SWAP2 POP POP JUMP JUMPDEST PUSH1 0x0 PUSH2 0x1ACE DUP3 PUSH2 0x1D14 JUMP JUMPDEST PUSH2 0x1AD8 DUP2 DUP6 PUSH2 0x1D59 JUMP JUMPDEST SWAP4 POP PUSH2 0x1AE8 DUP2 DUP6 PUSH1 0x20 DUP7 ADD PUSH2 0x1DC4 JUMP JUMPDEST PUSH2 0x1AF1 DUP2 PUSH2 0x1DF7 JUMP JUMPDEST DUP5 ADD SWAP2 POP POP SWAP3 SWAP2 POP POP JUMP JUMPDEST PUSH2 0x1B05 DUP2 PUSH2 0x1DA8 JUMP JUMPDEST DUP3 MSTORE POP POP JUMP JUMPDEST PUSH1 0x0 PUSH2 0x1B17 DUP3 DUP5 PUSH2 0x19FC JUMP JUMPDEST SWAP2 POP DUP2 SWAP1 POP SWAP3 SWAP2 POP POP JUMP JUMPDEST PUSH1 0x0 PUSH1 0x20 DUP3 ADD SWAP1 POP PUSH2 0x1B37 PUSH1 0x0 DUP4 ADD DUP5 PUSH2 0x1969 JUMP JUMPDEST SWAP3 SWAP2 POP POP JUMP JUMPDEST PUSH1 0x0 PUSH1 0x80 DUP3 ADD SWAP1 POP PUSH2 0x1B52 PUSH1 0x0 DUP4 ADD DUP8 PUSH2 0x1969 JUMP JUMPDEST DUP2 DUP2 SUB PUSH1 0x20 DUP4 ADD MSTORE PUSH2 0x1B64 DUP2 DUP7 PUSH2 0x1AC3 JUMP JUMPDEST SWAP1 POP DUP2 DUP2 SUB PUSH1 0x40 DUP4 ADD MSTORE PUSH2 0x1B78 DUP2 DUP6 PUSH2 0x1AC3 JUMP JUMPDEST SWAP1 POP DUP2 DUP2 SUB PUSH1 0x60 DUP4 ADD MSTORE PUSH2 0x1B8C DUP2 DUP5 PUSH2 0x1AC3 JUMP JUMPDEST SWAP1 POP SWAP6 SWAP5 POP POP POP POP POP JUMP JUMPDEST PUSH1 0x0 PUSH1 0x20 DUP3 ADD SWAP1 POP DUP2 DUP2 SUB PUSH1 0x0 DUP4 ADD MSTORE PUSH2 0x1BB1 DUP2 DUP5 PUSH2 0x1978 JUMP JUMPDEST SWAP1 POP SWAP3 SWAP2 POP POP JUMP JUMPDEST PUSH1 0x0 PUSH1 0x20 DUP3 ADD SWAP1 POP PUSH2 0x1BCE PUSH1 0x0 DUP4 ADD DUP5 PUSH2 0x19ED JUMP JUMPDEST SWAP3 SWAP2 POP POP JUMP JUMPDEST PUSH1 0x0 PUSH2 0x120 DUP3 ADD SWAP1 POP DUP2 DUP2 SUB PUSH1 0x0 DUP4 ADD MSTORE PUSH2 0x1BEF DUP2 DUP13 PUSH2 0x1AC3 JUMP JUMPDEST SWAP1 POP DUP2 DUP2 SUB PUSH1 0x20 DUP4 ADD MSTORE PUSH2 0x1C03 DUP2 DUP12 PUSH2 0x1AC3 JUMP JUMPDEST SWAP1 POP PUSH2 0x1C12 PUSH1 0x40 DUP4 ADD DUP11 PUSH2 0x1AFC JUMP JUMPDEST DUP2 DUP2 SUB PUSH1 0x60 DUP4 ADD MSTORE PUSH2 0x1C24 DUP2 DUP10 PUSH2 0x1AC3 JUMP JUMPDEST SWAP1 POP DUP2 DUP2 SUB PUSH1 0x80 DUP4 ADD MSTORE PUSH2 0x1C38 DUP2 DUP9 PUSH2 0x1AC3 JUMP JUMPDEST SWAP1 POP DUP2 DUP2 SUB PUSH1 0xA0 DUP4 ADD MSTORE PUSH2 0x1C4C DUP2 DUP8 PUSH2 0x1AC3 JUMP JUMPDEST SWAP1 POP PUSH2 0x1C5B PUSH1 0xC0 DUP4 ADD DUP7 PUSH2 0x1AFC JUMP JUMPDEST PUSH2 0x1C68 PUSH1 0xE0 DUP4 ADD DUP6 PUSH2 0x1AFC JUMP JUMPDEST DUP2 DUP2 SUB PUSH2 0x100 DUP4 ADD MSTORE PUSH2 0x1C7B DUP2 DUP5 PUSH2 0x1978 JUMP JUMPDEST SWAP1 POP SWAP11 SWAP10 POP POP POP POP POP POP POP POP POP POP JUMP JUMPDEST PUSH1 0x0 PUSH1 0x40 MLOAD SWAP1 POP DUP2 DUP2 ADD DUP2 DUP2 LT PUSH8 0xFFFFFFFFFFFFFFFF DUP3 GT OR ISZERO PUSH2 0x1CAE JUMPI PUSH1 0x0 DUP1 REVERT JUMPDEST DUP1 PUSH1 0x40 MSTORE POP SWAP2 SWAP1 POP JUMP JUMPDEST PUSH1 0x0 PUSH8 0xFFFFFFFFFFFFFFFF DUP3 GT ISZERO PUSH2 0x1CCF JUMPI PUSH1 0x0 DUP1 REVERT JUMPDEST PUSH1 0x1F NOT PUSH1 0x1F DUP4 ADD AND SWAP1 POP PUSH1 0x20 DUP2 ADD SWAP1 POP SWAP2 SWAP1 POP JUMP JUMPDEST PUSH1 0x0 DUP2 SWAP1 POP PUSH1 0x20 DUP3 ADD SWAP1 POP SWAP2 SWAP1 POP JUMP JUMPDEST PUSH1 0x0 DUP2 SWAP1 POP DUP2 PUSH1 0x0 MSTORE PUSH1 0x20 PUSH1 0x0 KECCAK256 SWAP1 POP SWAP2 SWAP1 POP JUMP JUMPDEST PUSH1 0x0 DUP2 MLOAD SWAP1 POP SWAP2 SWAP1 POP JUMP JUMPDEST PUSH1 0x0 DUP2 MLOAD SWAP1 POP SWAP2 SWAP1 POP JUMP JUMPDEST PUSH1 0x0 PUSH1 0x20 DUP3 ADD SWAP1 POP SWAP2 SWAP1 POP JUMP JUMPDEST PUSH1 0x0 DUP3 DUP3 MSTORE PUSH1 0x20 DUP3 ADD SWAP1 POP SWAP3 SWAP2 POP POP JUMP JUMPDEST PUSH1 0x0 DUP2 SWAP1 POP SWAP3 SWAP2 POP POP JUMP JUMPDEST PUSH1 0x0 DUP3 DUP3 MSTORE PUSH1 0x20 DUP3 ADD SWAP1 POP SWAP3 SWAP2 POP POP JUMP JUMPDEST PUSH1 0x0 DUP3 DUP3 MSTORE PUSH1 0x20 DUP3 ADD SWAP1 POP SWAP3 SWAP2 POP POP JUMP JUMPDEST PUSH1 0x0 PUSH2 0x1D75 DUP3 PUSH2 0x1D88 JUMP JUMPDEST SWAP1 POP SWAP2 SWAP1 POP JUMP JUMPDEST PUSH1 0x0 DUP2 ISZERO ISZERO SWAP1 POP SWAP2 SWAP1 POP JUMP JUMPDEST PUSH1 0x0 PUSH20 0xFFFFFFFFFFFFFFFFFFFFFFFFFFFFFFFFFFFFFFFF DUP3 AND SWAP1 POP SWAP2 SWAP1 POP JUMP JUMPDEST PUSH1 0x0 PUSH1 0xFF DUP3 AND SWAP1 POP SWAP2 SWAP1 POP JUMP JUMPDEST DUP3 DUP2 DUP4 CALLDATACOPY PUSH1 0x0 DUP4 DUP4 ADD MSTORE POP POP POP JUMP JUMPDEST PUSH1 0x0 JUMPDEST DUP4 DUP2 LT ISZERO PUSH2 0x1DE2 JUMPI DUP1 DUP3 ADD MLOAD DUP2 DUP5 ADD MSTORE PUSH1 0x20 DUP2 ADD SWAP1 POP PUSH2 0x1DC7 JUMP JUMPDEST DUP4 DUP2 GT ISZERO PUSH2 0x1DF1 JUMPI PUSH1 0x0 DUP5 DUP5 ADD MSTORE JUMPDEST POP POP POP POP JUMP JUMPDEST PUSH1 0x0 PUSH1 0x1F NOT PUSH1 0x1F DUP4 ADD AND SWAP1 POP SWAP2 SWAP1 POP JUMP JUMPDEST PUSH2 0x1E11 DUP2 PUSH2 0x1D6A JUMP JUMPDEST DUP2 EQ PUSH2 0x1E1C JUMPI PUSH1 0x0 DUP1 REVERT JUMPDEST POP JUMP JUMPDEST PUSH2 0x1E28 DUP2 PUSH2 0x1DA8 JUMP JUMPDEST DUP2 EQ PUSH2 0x1E33 JUMPI PUSH1 0x0 DUP1 REVERT JUMPDEST POP JUMP INVALID LOG2 PUSH5 0x6970667358 0x22 SLT KECCAK256 0xBB 0xDD 0xD4 0x1F DUP9 0x5E 0x4E RETURNDATASIZE 0xAA SSTORE CODECOPY DUP6 CODESIZE REVERT 0xE5 LOG3 PUSH22 0x56D34562F48F26B0D84BA35F9B973864736F6C634300 MOD MOD STOP CALLER "
    },
    "gasEstimates": {
      "creation": {
        "codeDepositCost": "1557600",
        "executionCost": "infinite",
        "totalCost": "infinite"
      },
      "external": {
        "addInfoKesehatan(string,string,string,uint8,uint8)": "infinite",
        "addPasien(string,string,uint8,string)": "infinite",
        "addPenyakit(string,string)": "infinite",
        "addRumahSakit(address,string,string,string)": "infinite",
        "check_manager()": "1315",
        "check_rs()": "infinite",
        "getManager()": "1266",
        "getinfors(string)": "infinite",
        "getpasien_rs(string)": "infinite",
        "getpenyakit_rs(string)": "infinite"
      }
    },
    "methodIdentifiers": {
      "addInfoKesehatan(string,string,string,uint8,uint8)": "a61cef0c",
      "addPasien(string,string,uint8,string)": "a480fef3",
      "addPenyakit(string,string)": "694e54bf",
      "addRumahSakit(address,string,string,string)": "a3e9b558",
      "check_manager()": "fb2cb8f3",
      "check_rs()": "115ada66",
      "getManager()": "d5009584",
      "getinfors(string)": "e39be646",
      "getpasien_rs(string)": "571f2ac1",
      "getpenyakit_rs(string)": "2db67237"
    }
  },
  "storageLayout": {
    "storage": [
      {
        "astId": 4,
        "contract": "Ehealth.sol:Ehealth",
        "label": "manager",
        "offset": 0,
        "slot": "0",
        "type": "t_address"
      },
      {
        "astId": 6,
        "contract": "Ehealth.sol:Ehealth",
        "label": "idCounter",
        "offset": 0,
        "slot": "1",
        "type": "t_uint256"
      },
      {
        "astId": 58,
        "contract": "Ehealth.sol:Ehealth",
        "label": "pasienList",
        "offset": 0,
        "slot": "2",
        "type": "t_array(t_struct(Pasien)46_storage)dyn_storage"
      },
      {
        "astId": 61,
        "contract": "Ehealth.sol:Ehealth",
        "label": "rsList",
        "offset": 0,
        "slot": "3",
        "type": "t_array(t_struct(Rumah_Sakit)55_storage)dyn_storage"
      }
    ],
    "types": {
      "t_address": {
        "encoding": "inplace",
        "label": "address",
        "numberOfBytes": "20"
      },
      "t_array(t_string_storage)dyn_storage": {
        "base": "t_string_storage",
        "encoding": "dynamic_array",
        "label": "string[]",
        "numberOfBytes": "32"
      },
      "t_array(t_struct(Pasien)46_storage)dyn_storage": {
        "base": "t_struct(Pasien)46_storage",
        "encoding": "dynamic_array",
        "label": "struct Ehealth.Pasien[]",
        "numberOfBytes": "32"
      },
      "t_array(t_struct(Rumah_Sakit)55_storage)dyn_storage": {
        "base": "t_struct(Rumah_Sakit)55_storage",
        "encoding": "dynamic_array",
        "label": "struct Ehealth.Rumah_Sakit[]",
        "numberOfBytes": "32"
      },
      "t_string_storage": {
        "encoding": "bytes",
        "label": "string",
        "numberOfBytes": "32"
      },
      "t_struct(Pasien)46_storage": {
        "encoding": "inplace",
        "label": "struct Ehealth.Pasien",
        "members": [
          {
            "astId": 28,
            "contract": "Ehealth.sol:Ehealth",
            "label": "nik",
            "offset": 0,
            "slot": "0",
            "type": "t_string_storage"
          },
          {
            "astId": 30,
            "contract": "Ehealth.sol:Ehealth",
            "label": "nama",
            "offset": 0,
            "slot": "1",
            "type": "t_string_storage"
          },
          {
            "astId": 32,
            "contract": "Ehealth.sol:Ehealth",
            "label": "umur",
            "offset": 0,
            "slot": "2",
            "type": "t_uint8"
          },
          {
            "astId": 34,
            "contract": "Ehealth.sol:Ehealth",
            "label": "alamat",
            "offset": 0,
            "slot": "3",
            "type": "t_string_storage"
          },
          {
            "astId": 36,
            "contract": "Ehealth.sol:Ehealth",
            "label": "gulaDarah",
            "offset": 0,
            "slot": "4",
            "type": "t_string_storage"
          },
          {
            "astId": 38,
            "contract": "Ehealth.sol:Ehealth",
            "label": "tekananDarah",
            "offset": 0,
            "slot": "5",
            "type": "t_string_storage"
          },
          {
            "astId": 40,
            "contract": "Ehealth.sol:Ehealth",
            "label": "tb",
            "offset": 0,
            "slot": "6",
            "type": "t_uint8"
          },
          {
            "astId": 42,
            "contract": "Ehealth.sol:Ehealth",
            "label": "bb",
            "offset": 1,
            "slot": "6",
            "type": "t_uint8"
          },
          {
            "astId": 45,
            "contract": "Ehealth.sol:Ehealth",
            "label": "informasi_penyakit",
            "offset": 0,
            "slot": "7",
            "type": "t_array(t_string_storage)dyn_storage"
          }
        ],
        "numberOfBytes": "256"
      },
      "t_struct(Rumah_Sakit)55_storage": {
        "encoding": "inplace",
        "label": "struct Ehealth.Rumah_Sakit",
        "members": [
          {
            "astId": 48,
            "contract": "Ehealth.sol:Ehealth",
            "label": "ethaddress",
            "offset": 0,
            "slot": "0",
            "type": "t_address"
          },
          {
            "astId": 50,
            "contract": "Ehealth.sol:Ehealth",
            "label": "nama",
            "offset": 0,
            "slot": "1",
            "type": "t_string_storage"
          },
          {
            "astId": 52,
            "contract": "Ehealth.sol:Ehealth",
            "label": "idRS",
            "offset": 0,
            "slot": "2",
            "type": "t_string_storage"
          },
          {
            "astId": 54,
            "contract": "Ehealth.sol:Ehealth",
            "label": "alamat",
            "offset": 0,
            "slot": "3",
            "type": "t_string_storage"
          }
        ],
        "numberOfBytes": "128"
      },
      "t_uint256": {
        "encoding": "inplace",
        "label": "uint256",
        "numberOfBytes": "32"
      },
      "t_uint8": {
        "encoding": "inplace",
        "label": "uint8",
        "numberOfBytes": "1"
      }
    }
  },
  "userdoc": {
    "methods": {}
  }
}