{
  "abi": [
    {
      "inputs": [],
      "stateMutability": "nonpayable",
      "type": "constructor"
    },
    {
      "inputs": [
        {
          "internalType": "uint256",
          "name": "_nik",
          "type": "uint256"
        },
        {
          "internalType": "string",
          "name": "_nama",
          "type": "string"
        },
        {
          "internalType": "uint8",
          "name": "_umur",
          "type": "uint8"
        },
        {
          "internalType": "string",
          "name": "_alamat",
          "type": "string"
        }
      ],
      "name": "addPasien",
      "outputs": [],
      "stateMutability": "nonpayable",
      "type": "function"
    },
    {
      "inputs": [
        {
          "internalType": "uint256",
          "name": "_id",
          "type": "uint256"
        },
        {
          "internalType": "string",
          "name": "_penyakit",
          "type": "string"
        }
      ],
      "name": "addPenyakit",
      "outputs": [],
      "stateMutability": "nonpayable",
      "type": "function"
    },
    {
      "inputs": [
        {
          "internalType": "string",
          "name": "_nama",
          "type": "string"
        },
        {
          "internalType": "uint8",
          "name": "_umur",
          "type": "uint8"
        },
        {
          "internalType": "string",
          "name": "_alamat",
          "type": "string"
        }
      ],
      "name": "addTenkes",
      "outputs": [],
      "stateMutability": "nonpayable",
      "type": "function"
    },
    {
      "inputs": [],
      "name": "check_pasien",
      "outputs": [
        {
          "internalType": "bool",
          "name": "",
          "type": "bool"
        }
      ],
      "stateMutability": "view",
      "type": "function"
    },
    {
      "inputs": [],
      "name": "check_tenkes",
      "outputs": [
        {
          "internalType": "bool",
          "name": "",
          "type": "bool"
        }
      ],
      "stateMutability": "view",
      "type": "function"
    },
    {
      "inputs": [],
      "name": "getManager",
      "outputs": [
        {
          "internalType": "address",
          "name": "",
          "type": "address"
        }
      ],
      "stateMutability": "view",
      "type": "function"
    },
    {
      "inputs": [],
      "name": "getpasien_pasien",
      "outputs": [
        {
          "internalType": "uint256",
          "name": "",
          "type": "uint256"
        },
        {
          "internalType": "string",
          "name": "",
          "type": "string"
        },
        {
          "internalType": "uint8",
          "name": "",
          "type": "uint8"
        },
        {
          "internalType": "string",
          "name": "",
          "type": "string"
        }
      ],
      "stateMutability": "view",
      "type": "function"
    },
    {
      "inputs": [
        {
          "internalType": "uint256",
          "name": "_nik",
          "type": "uint256"
        }
      ],
      "name": "getpasien_tenkes",
      "outputs": [
        {
          "internalType": "uint256",
          "name": "",
          "type": "uint256"
        },
        {
          "internalType": "string",
          "name": "",
          "type": "string"
        },
        {
          "internalType": "uint8",
          "name": "",
          "type": "uint8"
        },
        {
          "internalType": "string",
          "name": "",
          "type": "string"
        }
      ],
      "stateMutability": "view",
      "type": "function"
    },
    {
      "inputs": [],
      "name": "getpenyakit_pasien",
      "outputs": [
        {
          "internalType": "string[]",
          "name": "",
          "type": "string[]"
        }
      ],
      "stateMutability": "view",
      "type": "function"
    },
    {
      "inputs": [
        {
          "internalType": "uint256",
          "name": "_nik",
          "type": "uint256"
        }
      ],
      "name": "getpenyakit_tenkes",
      "outputs": [
        {
          "internalType": "string[]",
          "name": "",
          "type": "string[]"
        }
      ],
      "stateMutability": "view",
      "type": "function"
    }
  ],
  "devdoc": {
    "methods": {}
  },
  "evm": {
    "assembly": "    /* \"Ehealth.sol\":91:4958  contract Ehealth{... */\n  mstore(0x40, 0x80)\n    /* \"Ehealth.sol\":162:244  constructor () public {... */\n  callvalue\n    /* \"--CODEGEN--\":5:14   */\n  dup1\n    /* \"--CODEGEN--\":2:4   */\n  iszero\n  tag_1\n  jumpi\n    /* \"--CODEGEN--\":27:28   */\n  0x00\n    /* \"--CODEGEN--\":24:25   */\n  dup1\n    /* \"--CODEGEN--\":17:29   */\n  revert\n    /* \"--CODEGEN--\":2:4   */\ntag_1:\n    /* \"Ehealth.sol\":162:244  constructor () public {... */\n  pop\n    /* \"Ehealth.sol\":204:214  msg.sender */\n  caller\n    /* \"Ehealth.sol\":194:201  manager */\n  0x00\n  dup1\n    /* \"Ehealth.sol\":194:214  manager = msg.sender */\n  0x0100\n  exp\n  dup2\n  sload\n  dup2\n  0xffffffffffffffffffffffffffffffffffffffff\n  mul\n  not\n  and\n  swap1\n  dup4\n  0xffffffffffffffffffffffffffffffffffffffff\n  and\n  mul\n  or\n  swap1\n  sstore\n  pop\n    /* \"Ehealth.sol\":236:237  0 */\n  0x00\n    /* \"Ehealth.sol\":224:233  idCounter */\n  0x01\n    /* \"Ehealth.sol\":224:237  idCounter = 0 */\n  dup2\n  swap1\n  sstore\n  pop\n    /* \"Ehealth.sol\":91:4958  contract Ehealth{... */\n  dataSize(sub_0)\n  dup1\n  dataOffset(sub_0)\n  0x00\n  codecopy\n  0x00\n  return\nstop\n\nsub_0: assembly {\n        /* \"Ehealth.sol\":91:4958  contract Ehealth{... */\n      mstore(0x40, 0x80)\n      callvalue\n        /* \"--CODEGEN--\":5:14   */\n      dup1\n        /* \"--CODEGEN--\":2:4   */\n      iszero\n      tag_1\n      jumpi\n        /* \"--CODEGEN--\":27:28   */\n      0x00\n        /* \"--CODEGEN--\":24:25   */\n      dup1\n        /* \"--CODEGEN--\":17:29   */\n      revert\n        /* \"--CODEGEN--\":2:4   */\n    tag_1:\n        /* \"Ehealth.sol\":91:4958  contract Ehealth{... */\n      pop\n      jumpi(tag_2, lt(calldatasize, 0x04))\n      shr(0xe0, calldataload(0x00))\n      dup1\n      0x39472d30\n      gt\n      tag_13\n      jumpi\n      dup1\n      0x39472d30\n      eq\n      tag_8\n      jumpi\n      dup1\n      0xbc18d251\n      eq\n      tag_9\n      jumpi\n      dup1\n      0xbdd92af9\n      eq\n      tag_10\n      jumpi\n      dup1\n      0xc83e3078\n      eq\n      tag_11\n      jumpi\n      dup1\n      0xd5009584\n      eq\n      tag_12\n      jumpi\n      jump(tag_2)\n    tag_13:\n      dup1\n      0x063ce528\n      eq\n      tag_3\n      jumpi\n      dup1\n      0x1a6c3cc7\n      eq\n      tag_4\n      jumpi\n      dup1\n      0x2468b257\n      eq\n      tag_5\n      jumpi\n      dup1\n      0x2f720955\n      eq\n      tag_6\n      jumpi\n      dup1\n      0x32814c08\n      eq\n      tag_7\n      jumpi\n    tag_2:\n        /* \"--CODEGEN--\":12:13   */\n      0x00\n        /* \"--CODEGEN--\":9:10   */\n      dup1\n        /* \"--CODEGEN--\":2:14   */\n      revert\n        /* \"Ehealth.sol\":4400:4616  function check_tenkes() public view returns(bool) {... */\n    tag_3:\n      tag_14\n      tag_15\n      jump\t// in\n    tag_14:\n      mload(0x40)\n      tag_16\n      swap2\n      swap1\n      jump(tag_17)\n    tag_16:\n      mload(0x40)\n      dup1\n      swap2\n      sub\n      swap1\n      return\n        /* \"Ehealth.sol\":3033:3613  function getpasien_pasien() isPasien public view returns(uint, string memory, uint8, string memory){... */\n    tag_4:\n      tag_18\n      tag_19\n      jump\t// in\n    tag_18:\n      mload(0x40)\n      tag_20\n      swap5\n      swap4\n      swap3\n      swap2\n      swap1\n      jump(tag_21)\n    tag_20:\n      mload(0x40)\n      dup1\n      swap2\n      sub\n      swap1\n      return\n        /* \"Ehealth.sol\":1181:1492  function addTenkes(string memory _nama, uint8 _umur, string memory _alamat) public {... */\n    tag_5:\n      tag_22\n      0x04\n      dup1\n      calldatasize\n      sub\n      dup2\n      add\n      swap1\n      tag_23\n      swap2\n      swap1\n      jump(tag_24)\n    tag_23:\n      tag_25\n      jump\t// in\n    tag_22:\n      stop\n        /* \"Ehealth.sol\":1939:2518  function getpasien_tenkes(uint _nik) isTenkes public view returns(uint, string memory, uint8, string memory){... */\n    tag_6:\n      tag_26\n      0x04\n      dup1\n      calldatasize\n      sub\n      dup2\n      add\n      swap1\n      tag_27\n      swap2\n      swap1\n      jump(tag_28)\n    tag_27:\n      tag_29\n      jump\t// in\n    tag_26:\n      mload(0x40)\n      tag_30\n      swap5\n      swap4\n      swap3\n      swap2\n      swap1\n      jump(tag_21)\n    tag_30:\n      mload(0x40)\n      dup1\n      swap2\n      sub\n      swap1\n      return\n        /* \"Ehealth.sol\":4178:4395  function check_pasien() public view returns(bool){... */\n    tag_7:\n      tag_31\n      tag_32\n      jump\t// in\n    tag_31:\n      mload(0x40)\n      tag_33\n      swap2\n      swap1\n      jump(tag_17)\n    tag_33:\n      mload(0x40)\n      dup1\n      swap2\n      sub\n      swap1\n      return\n        /* \"Ehealth.sol\":2523:3028  function getpenyakit_tenkes(uint _nik) isTenkes public view returns(string[] memory){... */\n    tag_8:\n      tag_34\n      0x04\n      dup1\n      calldatasize\n      sub\n      dup2\n      add\n      swap1\n      tag_35\n      swap2\n      swap1\n      jump(tag_28)\n    tag_35:\n      tag_36\n      jump\t// in\n    tag_34:\n      mload(0x40)\n      tag_37\n      swap2\n      swap1\n      jump(tag_38)\n    tag_37:\n      mload(0x40)\n      dup1\n      swap2\n      sub\n      swap1\n      return\n        /* \"Ehealth.sol\":3618:4127  function getpenyakit_pasien() isPasien public view returns(string[] memory){... */\n    tag_9:\n      tag_39\n      tag_40\n      jump\t// in\n    tag_39:\n      mload(0x40)\n      tag_41\n      swap2\n      swap1\n      jump(tag_38)\n    tag_41:\n      mload(0x40)\n      dup1\n      swap2\n      sub\n      swap1\n      return\n        /* \"Ehealth.sol\":801:1171  function addPasien(uint _nik, string memory _nama, uint8 _umur, string memory _alamat) public{... */\n    tag_10:\n      tag_42\n      0x04\n      dup1\n      calldatasize\n      sub\n      dup2\n      add\n      swap1\n      tag_43\n      swap2\n      swap1\n      jump(tag_44)\n    tag_43:\n      tag_45\n      jump\t// in\n    tag_42:\n      stop\n        /* \"Ehealth.sol\":1497:1801  function addPenyakit (uint _id, string memory _penyakit) isTenkes public {... */\n    tag_11:\n      tag_46\n      0x04\n      dup1\n      calldatasize\n      sub\n      dup2\n      add\n      swap1\n      tag_47\n      swap2\n      swap1\n      jump(tag_48)\n    tag_47:\n      tag_49\n      jump\t// in\n    tag_46:\n      stop\n        /* \"Ehealth.sol\":640:722  function getManager() public view returns(address) {... */\n    tag_12:\n      tag_50\n      tag_51\n      jump\t// in\n    tag_50:\n      mload(0x40)\n      tag_52\n      swap2\n      swap1\n      jump(tag_53)\n    tag_52:\n      mload(0x40)\n      dup1\n      swap2\n      sub\n      swap1\n      return\n        /* \"Ehealth.sol\":4400:4616  function check_tenkes() public view returns(bool) {... */\n    tag_15:\n        /* \"Ehealth.sol\":4444:4448  bool */\n      0x00\n        /* \"Ehealth.sol\":4464:4470  uint i */\n      dup1\n        /* \"Ehealth.sol\":4473:4474  0 */\n      0x00\n        /* \"Ehealth.sol\":4464:4474  uint i = 0 */\n      swap1\n      pop\n        /* \"Ehealth.sol\":4460:4610  for(uint i = 0; i<tenKesList.length;i++){... */\n    tag_55:\n        /* \"Ehealth.sol\":4478:4488  tenKesList */\n      0x03\n        /* \"Ehealth.sol\":4478:4495  tenKesList.length */\n      dup1\n      sload\n      swap1\n      pop\n        /* \"Ehealth.sol\":4476:4477  i */\n      dup2\n        /* \"Ehealth.sol\":4476:4495  i<tenKesList.length */\n      lt\n        /* \"Ehealth.sol\":4460:4610  for(uint i = 0; i<tenKesList.length;i++){... */\n      iszero\n      tag_56\n      jumpi\n        /* \"Ehealth.sol\":4531:4541  tenKesList */\n      0x03\n        /* \"Ehealth.sol\":4542:4543  i */\n      dup2\n        /* \"Ehealth.sol\":4531:4544  tenKesList[i] */\n      dup2\n      sload\n      dup2\n      lt\n      tag_58\n      jumpi\n      invalid\n    tag_58:\n      swap1\n      0x00\n      mstore\n      keccak256(0x00, 0x20)\n      swap1\n      0x04\n      mul\n      add\n        /* \"Ehealth.sol\":4531:4555  tenKesList[i].ethaddress */\n      0x00\n      add\n      0x00\n      swap1\n      sload\n      swap1\n      0x0100\n      exp\n      swap1\n      div\n      0xffffffffffffffffffffffffffffffffffffffff\n      and\n        /* \"Ehealth.sol\":4517:4555  msg.sender == tenKesList[i].ethaddress */\n      0xffffffffffffffffffffffffffffffffffffffff\n      and\n        /* \"Ehealth.sol\":4517:4527  msg.sender */\n      caller\n        /* \"Ehealth.sol\":4517:4555  msg.sender == tenKesList[i].ethaddress */\n      0xffffffffffffffffffffffffffffffffffffffff\n      and\n      eq\n        /* \"Ehealth.sol\":4514:4600  if(msg.sender == tenKesList[i].ethaddress){... */\n      iszero\n      tag_60\n      jumpi\n        /* \"Ehealth.sol\":4581:4585  true */\n      0x01\n        /* \"Ehealth.sol\":4574:4585  return true */\n      swap2\n      pop\n      pop\n      jump(tag_54)\n        /* \"Ehealth.sol\":4514:4600  if(msg.sender == tenKesList[i].ethaddress){... */\n    tag_60:\n        /* \"Ehealth.sol\":4496:4499  i++ */\n      dup1\n      dup1\n      0x01\n      add\n      swap2\n      pop\n      pop\n        /* \"Ehealth.sol\":4460:4610  for(uint i = 0; i<tenKesList.length;i++){... */\n      jump(tag_55)\n    tag_56:\n      pop\n        /* \"Ehealth.sol\":4400:4616  function check_tenkes() public view returns(bool) {... */\n    tag_54:\n      swap1\n      jump\t// out\n        /* \"Ehealth.sol\":3033:3613  function getpasien_pasien() isPasien public view returns(uint, string memory, uint8, string memory){... */\n    tag_19:\n        /* \"Ehealth.sol\":3090:3094  uint */\n      0x00\n        /* \"Ehealth.sol\":3096:3109  string memory */\n      0x60\n        /* \"Ehealth.sol\":3111:3116  uint8 */\n      0x00\n        /* \"Ehealth.sol\":3118:3131  string memory */\n      0x60\n        /* \"Ehealth.sol\":4819:4833  check_pasien() */\n      tag_62\n        /* \"Ehealth.sol\":4819:4831  check_pasien */\n      tag_32\n        /* \"Ehealth.sol\":4819:4833  check_pasien() */\n      jump\t// in\n    tag_62:\n        /* \"Ehealth.sol\":4811:4834  require(check_pasien()) */\n      tag_63\n      jumpi\n        /* \"--CODEGEN--\":12:13   */\n      0x00\n        /* \"--CODEGEN--\":9:10   */\n      dup1\n        /* \"--CODEGEN--\":2:14   */\n      revert\n        /* \"Ehealth.sol\":4811:4834  require(check_pasien()) */\n    tag_63:\n        /* \"Ehealth.sol\":3142:3150  uint _id */\n      0x00\n        /* \"Ehealth.sol\":3153:3154  0 */\n      dup1\n        /* \"Ehealth.sol\":3142:3154  uint _id = 0 */\n      swap1\n      pop\n        /* \"Ehealth.sol\":3164:3183  string memory _nama */\n      0x60\n        /* \"Ehealth.sol\":3164:3188  string memory _nama = '' */\n      mload(0x40)\n      dup1\n      0x20\n      add\n      0x40\n      mstore\n      dup1\n      0x00\n      dup2\n      mstore\n      pop\n      swap1\n      pop\n        /* \"Ehealth.sol\":3198:3209  uint8 _umur */\n      0x00\n        /* \"Ehealth.sol\":3212:3213  0 */\n      dup1\n        /* \"Ehealth.sol\":3198:3213  uint8 _umur = 0 */\n      swap1\n      pop\n        /* \"Ehealth.sol\":3223:3244  string memory _alamat */\n      0x60\n        /* \"Ehealth.sol\":3223:3249  string memory _alamat = '' */\n      mload(0x40)\n      dup1\n      0x20\n      add\n      0x40\n      mstore\n      dup1\n      0x00\n      dup2\n      mstore\n      pop\n      swap1\n      pop\n        /* \"Ehealth.sol\":3272:3278  uint i */\n      0x00\n        /* \"Ehealth.sol\":3281:3282  0 */\n      dup1\n        /* \"Ehealth.sol\":3272:3282  uint i = 0 */\n      swap1\n      pop\n        /* \"Ehealth.sol\":3268:3565  for(uint i = 0;i<pasienList.length;i++){... */\n    tag_65:\n        /* \"Ehealth.sol\":3285:3295  pasienList */\n      0x02\n        /* \"Ehealth.sol\":3285:3302  pasienList.length */\n      dup1\n      sload\n      swap1\n      pop\n        /* \"Ehealth.sol\":3283:3284  i */\n      dup2\n        /* \"Ehealth.sol\":3283:3302  i<pasienList.length */\n      lt\n        /* \"Ehealth.sol\":3268:3565  for(uint i = 0;i<pasienList.length;i++){... */\n      iszero\n      tag_66\n      jumpi\n        /* \"Ehealth.sol\":3338:3348  pasienList */\n      0x02\n        /* \"Ehealth.sol\":3349:3350  i */\n      dup2\n        /* \"Ehealth.sol\":3338:3351  pasienList[i] */\n      dup2\n      sload\n      dup2\n      lt\n      tag_68\n      jumpi\n      invalid\n    tag_68:\n      swap1\n      0x00\n      mstore\n      keccak256(0x00, 0x20)\n      swap1\n      0x06\n      mul\n      add\n        /* \"Ehealth.sol\":3338:3362  pasienList[i].ethaddress */\n      0x00\n      add\n      0x00\n      swap1\n      sload\n      swap1\n      0x0100\n      exp\n      swap1\n      div\n      0xffffffffffffffffffffffffffffffffffffffff\n      and\n        /* \"Ehealth.sol\":3324:3362  msg.sender == pasienList[i].ethaddress */\n      0xffffffffffffffffffffffffffffffffffffffff\n      and\n        /* \"Ehealth.sol\":3324:3334  msg.sender */\n      caller\n        /* \"Ehealth.sol\":3324:3362  msg.sender == pasienList[i].ethaddress */\n      0xffffffffffffffffffffffffffffffffffffffff\n      and\n      eq\n        /* \"Ehealth.sol\":3321:3555  if(msg.sender == pasienList[i].ethaddress){... */\n      iszero\n      tag_70\n      jumpi\n        /* \"Ehealth.sol\":3387:3397  pasienList */\n      0x02\n        /* \"Ehealth.sol\":3398:3399  i */\n      dup2\n        /* \"Ehealth.sol\":3387:3400  pasienList[i] */\n      dup2\n      sload\n      dup2\n      lt\n      tag_71\n      jumpi\n      invalid\n    tag_71:\n      swap1\n      0x00\n      mstore\n      keccak256(0x00, 0x20)\n      swap1\n      0x06\n      mul\n      add\n        /* \"Ehealth.sol\":3387:3404  pasienList[i].nik */\n      0x01\n      add\n      sload\n        /* \"Ehealth.sol\":3381:3404  _id = pasienList[i].nik */\n      swap5\n      pop\n        /* \"Ehealth.sol\":3430:3440  pasienList */\n      0x02\n        /* \"Ehealth.sol\":3441:3442  i */\n      dup2\n        /* \"Ehealth.sol\":3430:3443  pasienList[i] */\n      dup2\n      sload\n      dup2\n      lt\n      tag_73\n      jumpi\n      invalid\n    tag_73:\n      swap1\n      0x00\n      mstore\n      keccak256(0x00, 0x20)\n      swap1\n      0x06\n      mul\n      add\n        /* \"Ehealth.sol\":3430:3448  pasienList[i].nama */\n      0x02\n      add\n        /* \"Ehealth.sol\":3422:3448  _nama = pasienList[i].nama */\n      dup1\n      sload\n      0x01\n      dup2\n      0x01\n      and\n      iszero\n      0x0100\n      mul\n      sub\n      and\n      0x02\n      swap1\n      div\n      dup1\n      0x1f\n      add\n      0x20\n      dup1\n      swap2\n      div\n      mul\n      0x20\n      add\n      mload(0x40)\n      swap1\n      dup2\n      add\n      0x40\n      mstore\n      dup1\n      swap3\n      swap2\n      swap1\n      dup2\n      dup2\n      mstore\n      0x20\n      add\n      dup3\n      dup1\n      sload\n      0x01\n      dup2\n      0x01\n      and\n      iszero\n      0x0100\n      mul\n      sub\n      and\n      0x02\n      swap1\n      div\n      dup1\n      iszero\n      tag_75\n      jumpi\n      dup1\n      0x1f\n      lt\n      tag_76\n      jumpi\n      0x0100\n      dup1\n      dup4\n      sload\n      div\n      mul\n      dup4\n      mstore\n      swap2\n      0x20\n      add\n      swap2\n      jump(tag_75)\n    tag_76:\n      dup3\n      add\n      swap2\n      swap1\n      0x00\n      mstore\n      keccak256(0x00, 0x20)\n      swap1\n    tag_77:\n      dup2\n      sload\n      dup2\n      mstore\n      swap1\n      0x01\n      add\n      swap1\n      0x20\n      add\n      dup1\n      dup4\n      gt\n      tag_77\n      jumpi\n      dup3\n      swap1\n      sub\n      0x1f\n      and\n      dup3\n      add\n      swap2\n    tag_75:\n      pop\n      pop\n      pop\n      pop\n      pop\n      swap4\n      pop\n        /* \"Ehealth.sol\":3474:3484  pasienList */\n      0x02\n        /* \"Ehealth.sol\":3485:3486  i */\n      dup2\n        /* \"Ehealth.sol\":3474:3487  pasienList[i] */\n      dup2\n      sload\n      dup2\n      lt\n      tag_78\n      jumpi\n      invalid\n    tag_78:\n      swap1\n      0x00\n      mstore\n      keccak256(0x00, 0x20)\n      swap1\n      0x06\n      mul\n      add\n        /* \"Ehealth.sol\":3474:3492  pasienList[i].umur */\n      0x03\n      add\n      0x00\n      swap1\n      sload\n      swap1\n      0x0100\n      exp\n      swap1\n      div\n      0xff\n      and\n        /* \"Ehealth.sol\":3466:3492  _umur = pasienList[i].umur */\n      swap3\n      pop\n        /* \"Ehealth.sol\":3520:3530  pasienList */\n      0x02\n        /* \"Ehealth.sol\":3531:3532  i */\n      dup2\n        /* \"Ehealth.sol\":3520:3533  pasienList[i] */\n      dup2\n      sload\n      dup2\n      lt\n      tag_80\n      jumpi\n      invalid\n    tag_80:\n      swap1\n      0x00\n      mstore\n      keccak256(0x00, 0x20)\n      swap1\n      0x06\n      mul\n      add\n        /* \"Ehealth.sol\":3520:3540  pasienList[i].alamat */\n      0x04\n      add\n        /* \"Ehealth.sol\":3510:3540  _alamat = pasienList[i].alamat */\n      dup1\n      sload\n      0x01\n      dup2\n      0x01\n      and\n      iszero\n      0x0100\n      mul\n      sub\n      and\n      0x02\n      swap1\n      div\n      dup1\n      0x1f\n      add\n      0x20\n      dup1\n      swap2\n      div\n      mul\n      0x20\n      add\n      mload(0x40)\n      swap1\n      dup2\n      add\n      0x40\n      mstore\n      dup1\n      swap3\n      swap2\n      swap1\n      dup2\n      dup2\n      mstore\n      0x20\n      add\n      dup3\n      dup1\n      sload\n      0x01\n      dup2\n      0x01\n      and\n      iszero\n      0x0100\n      mul\n      sub\n      and\n      0x02\n      swap1\n      div\n      dup1\n      iszero\n      tag_82\n      jumpi\n      dup1\n      0x1f\n      lt\n      tag_83\n      jumpi\n      0x0100\n      dup1\n      dup4\n      sload\n      div\n      mul\n      dup4\n      mstore\n      swap2\n      0x20\n      add\n      swap2\n      jump(tag_82)\n    tag_83:\n      dup3\n      add\n      swap2\n      swap1\n      0x00\n      mstore\n      keccak256(0x00, 0x20)\n      swap1\n    tag_84:\n      dup2\n      sload\n      dup2\n      mstore\n      swap1\n      0x01\n      add\n      swap1\n      0x20\n      add\n      dup1\n      dup4\n      gt\n      tag_84\n      jumpi\n      dup3\n      swap1\n      sub\n      0x1f\n      and\n      dup3\n      add\n      swap2\n    tag_82:\n      pop\n      pop\n      pop\n      pop\n      pop\n      swap2\n      pop\n        /* \"Ehealth.sol\":3321:3555  if(msg.sender == pasienList[i].ethaddress){... */\n    tag_70:\n        /* \"Ehealth.sol\":3303:3306  i++ */\n      dup1\n      dup1\n      0x01\n      add\n      swap2\n      pop\n      pop\n        /* \"Ehealth.sol\":3268:3565  for(uint i = 0;i<pasienList.length;i++){... */\n      jump(tag_65)\n    tag_66:\n      pop\n        /* \"Ehealth.sol\":3581:3584  _id */\n      dup4\n        /* \"Ehealth.sol\":3585:3590  _nama */\n      dup4\n        /* \"Ehealth.sol\":3592:3597  _umur */\n      dup4\n        /* \"Ehealth.sol\":3598:3605  _alamat */\n      dup4\n        /* \"Ehealth.sol\":3574:3606  return(_id,_nama, _umur,_alamat) */\n      swap8\n      pop\n      swap8\n      pop\n      swap8\n      pop\n      swap8\n      pop\n      pop\n      pop\n      pop\n      pop\n        /* \"Ehealth.sol\":3033:3613  function getpasien_pasien() isPasien public view returns(uint, string memory, uint8, string memory){... */\n      swap1\n      swap2\n      swap3\n      swap4\n      jump\t// out\n        /* \"Ehealth.sol\":1181:1492  function addTenkes(string memory _nama, uint8 _umur, string memory _alamat) public {... */\n    tag_25:\n        /* \"Ehealth.sol\":1274:1307  Tenaga_Kesehatan memory newTenkes */\n      tag_86\n      tag_87\n      jump\t// in\n    tag_86:\n        /* \"Ehealth.sol\":1310:1449  Tenaga_Kesehatan({... */\n      mload(0x40)\n      dup1\n      0x80\n      add\n      0x40\n      mstore\n      dup1\n        /* \"Ehealth.sol\":1352:1362  msg.sender */\n      caller\n        /* \"Ehealth.sol\":1310:1449  Tenaga_Kesehatan({... */\n      0xffffffffffffffffffffffffffffffffffffffff\n      and\n      dup2\n      mstore\n      0x20\n      add\n        /* \"Ehealth.sol\":1381:1386  _nama */\n      dup6\n        /* \"Ehealth.sol\":1310:1449  Tenaga_Kesehatan({... */\n      dup2\n      mstore\n      0x20\n      add\n        /* \"Ehealth.sol\":1405:1410  _umur */\n      dup5\n        /* \"Ehealth.sol\":1310:1449  Tenaga_Kesehatan({... */\n      0xff\n      and\n      dup2\n      mstore\n      0x20\n      add\n        /* \"Ehealth.sol\":1431:1438  _alamat */\n      dup4\n        /* \"Ehealth.sol\":1310:1449  Tenaga_Kesehatan({... */\n      dup2\n      mstore\n      pop\n        /* \"Ehealth.sol\":1274:1449  Tenaga_Kesehatan memory newTenkes = Tenaga_Kesehatan({... */\n      swap1\n      pop\n        /* \"Ehealth.sol\":1459:1469  tenKesList */\n      0x03\n        /* \"Ehealth.sol\":1475:1484  newTenkes */\n      dup2\n        /* \"Ehealth.sol\":1459:1485  tenKesList.push(newTenkes) */\n      swap1\n      dup1\n        /* \"--CODEGEN--\":39:40   */\n      0x01\n        /* \"--CODEGEN--\":33:36   */\n      dup2\n        /* \"--CODEGEN--\":27:37   */\n      sload\n        /* \"--CODEGEN--\":23:41   */\n      add\n        /* \"--CODEGEN--\":57:67   */\n      dup1\n        /* \"--CODEGEN--\":52:55   */\n      dup3\n        /* \"--CODEGEN--\":45:68   */\n      sstore\n        /* \"--CODEGEN--\":79:89   */\n      dup1\n        /* \"--CODEGEN--\":72:89   */\n      swap2\n      pop\n        /* \"--CODEGEN--\":0:93   */\n      pop\n        /* \"Ehealth.sol\":1459:1485  tenKesList.push(newTenkes) */\n      0x01\n      swap1\n      sub\n      swap1\n      0x00\n      mstore\n      keccak256(0x00, 0x20)\n      swap1\n      0x04\n      mul\n      add\n      0x00\n      swap1\n      swap2\n      swap1\n      swap2\n      swap1\n      swap2\n      pop\n      0x00\n      dup3\n      add\n      mload\n      dup2\n      0x00\n      add\n      exp(0x0100, 0x00)\n      dup2\n      sload\n      dup2\n      0xffffffffffffffffffffffffffffffffffffffff\n      mul\n      not\n      and\n      swap1\n      dup4\n      0xffffffffffffffffffffffffffffffffffffffff\n      and\n      mul\n      or\n      swap1\n      sstore\n      pop\n      0x20\n      dup3\n      add\n      mload\n      dup2\n      0x01\n      add\n      swap1\n      dup1\n      mload\n      swap1\n      0x20\n      add\n      swap1\n      tag_89\n      swap3\n      swap2\n      swap1\n      tag_90\n      jump\t// in\n    tag_89:\n      pop\n      0x40\n      dup3\n      add\n      mload\n      dup2\n      0x02\n      add\n      exp(0x0100, 0x00)\n      dup2\n      sload\n      dup2\n      0xff\n      mul\n      not\n      and\n      swap1\n      dup4\n      0xff\n      and\n      mul\n      or\n      swap1\n      sstore\n      pop\n      0x60\n      dup3\n      add\n      mload\n      dup2\n      0x03\n      add\n      swap1\n      dup1\n      mload\n      swap1\n      0x20\n      add\n      swap1\n      tag_91\n      swap3\n      swap2\n      swap1\n      tag_90\n      jump\t// in\n    tag_91:\n      pop\n      pop\n      pop\n        /* \"Ehealth.sol\":1181:1492  function addTenkes(string memory _nama, uint8 _umur, string memory _alamat) public {... */\n      pop\n      pop\n      pop\n      pop\n      jump\t// out\n        /* \"Ehealth.sol\":1939:2518  function getpasien_tenkes(uint _nik) isTenkes public view returns(uint, string memory, uint8, string memory){... */\n    tag_29:\n        /* \"Ehealth.sol\":2005:2009  uint */\n      0x00\n        /* \"Ehealth.sol\":2011:2024  string memory */\n      0x60\n        /* \"Ehealth.sol\":2026:2031  uint8 */\n      0x00\n        /* \"Ehealth.sol\":2033:2046  string memory */\n      0x60\n        /* \"Ehealth.sol\":4744:4758  check_tenkes() */\n      tag_93\n        /* \"Ehealth.sol\":4744:4756  check_tenkes */\n      tag_15\n        /* \"Ehealth.sol\":4744:4758  check_tenkes() */\n      jump\t// in\n    tag_93:\n        /* \"Ehealth.sol\":4735:4759  require (check_tenkes()) */\n      tag_94\n      jumpi\n        /* \"--CODEGEN--\":12:13   */\n      0x00\n        /* \"--CODEGEN--\":9:10   */\n      dup1\n        /* \"--CODEGEN--\":2:14   */\n      revert\n        /* \"Ehealth.sol\":4735:4759  require (check_tenkes()) */\n    tag_94:\n        /* \"Ehealth.sol\":2057:2065  uint _id */\n      0x00\n        /* \"Ehealth.sol\":2068:2069  0 */\n      dup1\n        /* \"Ehealth.sol\":2057:2069  uint _id = 0 */\n      swap1\n      pop\n        /* \"Ehealth.sol\":2079:2098  string memory _nama */\n      0x60\n        /* \"Ehealth.sol\":2079:2103  string memory _nama = '' */\n      mload(0x40)\n      dup1\n      0x20\n      add\n      0x40\n      mstore\n      dup1\n      0x00\n      dup2\n      mstore\n      pop\n      swap1\n      pop\n        /* \"Ehealth.sol\":2113:2124  uint8 _umur */\n      0x00\n        /* \"Ehealth.sol\":2127:2128  0 */\n      dup1\n        /* \"Ehealth.sol\":2113:2128  uint8 _umur = 0 */\n      swap1\n      pop\n        /* \"Ehealth.sol\":2138:2159  string memory _alamat */\n      0x60\n        /* \"Ehealth.sol\":2138:2164  string memory _alamat = '' */\n      mload(0x40)\n      dup1\n      0x20\n      add\n      0x40\n      mstore\n      dup1\n      0x00\n      dup2\n      mstore\n      pop\n      swap1\n      pop\n        /* \"Ehealth.sol\":2187:2193  uint i */\n      0x00\n        /* \"Ehealth.sol\":2196:2197  0 */\n      dup1\n        /* \"Ehealth.sol\":2187:2197  uint i = 0 */\n      swap1\n      pop\n        /* \"Ehealth.sol\":2183:2468  for(uint i = 0; i<pasienList.length;i++){... */\n    tag_96:\n        /* \"Ehealth.sol\":2201:2211  pasienList */\n      0x02\n        /* \"Ehealth.sol\":2201:2218  pasienList.length */\n      dup1\n      sload\n      swap1\n      pop\n        /* \"Ehealth.sol\":2199:2200  i */\n      dup2\n        /* \"Ehealth.sol\":2199:2218  i<pasienList.length */\n      lt\n        /* \"Ehealth.sol\":2183:2468  for(uint i = 0; i<pasienList.length;i++){... */\n      iszero\n      tag_97\n      jumpi\n        /* \"Ehealth.sol\":2248:2258  pasienList */\n      0x02\n        /* \"Ehealth.sol\":2259:2260  i */\n      dup2\n        /* \"Ehealth.sol\":2248:2261  pasienList[i] */\n      dup2\n      sload\n      dup2\n      lt\n      tag_99\n      jumpi\n      invalid\n    tag_99:\n      swap1\n      0x00\n      mstore\n      keccak256(0x00, 0x20)\n      swap1\n      0x06\n      mul\n      add\n        /* \"Ehealth.sol\":2248:2265  pasienList[i].nik */\n      0x01\n      add\n      sload\n        /* \"Ehealth.sol\":2240:2244  _nik */\n      dup11\n        /* \"Ehealth.sol\":2240:2265  _nik == pasienList[i].nik */\n      eq\n        /* \"Ehealth.sol\":2237:2458  if(_nik == pasienList[i].nik){... */\n      iszero\n      tag_101\n      jumpi\n        /* \"Ehealth.sol\":2290:2300  pasienList */\n      0x02\n        /* \"Ehealth.sol\":2301:2302  i */\n      dup2\n        /* \"Ehealth.sol\":2290:2303  pasienList[i] */\n      dup2\n      sload\n      dup2\n      lt\n      tag_102\n      jumpi\n      invalid\n    tag_102:\n      swap1\n      0x00\n      mstore\n      keccak256(0x00, 0x20)\n      swap1\n      0x06\n      mul\n      add\n        /* \"Ehealth.sol\":2290:2307  pasienList[i].nik */\n      0x01\n      add\n      sload\n        /* \"Ehealth.sol\":2284:2307  _id = pasienList[i].nik */\n      swap5\n      pop\n        /* \"Ehealth.sol\":2333:2343  pasienList */\n      0x02\n        /* \"Ehealth.sol\":2344:2345  i */\n      dup2\n        /* \"Ehealth.sol\":2333:2346  pasienList[i] */\n      dup2\n      sload\n      dup2\n      lt\n      tag_104\n      jumpi\n      invalid\n    tag_104:\n      swap1\n      0x00\n      mstore\n      keccak256(0x00, 0x20)\n      swap1\n      0x06\n      mul\n      add\n        /* \"Ehealth.sol\":2333:2351  pasienList[i].nama */\n      0x02\n      add\n        /* \"Ehealth.sol\":2325:2351  _nama = pasienList[i].nama */\n      dup1\n      sload\n      0x01\n      dup2\n      0x01\n      and\n      iszero\n      0x0100\n      mul\n      sub\n      and\n      0x02\n      swap1\n      div\n      dup1\n      0x1f\n      add\n      0x20\n      dup1\n      swap2\n      div\n      mul\n      0x20\n      add\n      mload(0x40)\n      swap1\n      dup2\n      add\n      0x40\n      mstore\n      dup1\n      swap3\n      swap2\n      swap1\n      dup2\n      dup2\n      mstore\n      0x20\n      add\n      dup3\n      dup1\n      sload\n      0x01\n      dup2\n      0x01\n      and\n      iszero\n      0x0100\n      mul\n      sub\n      and\n      0x02\n      swap1\n      div\n      dup1\n      iszero\n      tag_106\n      jumpi\n      dup1\n      0x1f\n      lt\n      tag_107\n      jumpi\n      0x0100\n      dup1\n      dup4\n      sload\n      div\n      mul\n      dup4\n      mstore\n      swap2\n      0x20\n      add\n      swap2\n      jump(tag_106)\n    tag_107:\n      dup3\n      add\n      swap2\n      swap1\n      0x00\n      mstore\n      keccak256(0x00, 0x20)\n      swap1\n    tag_108:\n      dup2\n      sload\n      dup2\n      mstore\n      swap1\n      0x01\n      add\n      swap1\n      0x20\n      add\n      dup1\n      dup4\n      gt\n      tag_108\n      jumpi\n      dup3\n      swap1\n      sub\n      0x1f\n      and\n      dup3\n      add\n      swap2\n    tag_106:\n      pop\n      pop\n      pop\n      pop\n      pop\n      swap4\n      pop\n        /* \"Ehealth.sol\":2377:2387  pasienList */\n      0x02\n        /* \"Ehealth.sol\":2388:2389  i */\n      dup2\n        /* \"Ehealth.sol\":2377:2390  pasienList[i] */\n      dup2\n      sload\n      dup2\n      lt\n      tag_109\n      jumpi\n      invalid\n    tag_109:\n      swap1\n      0x00\n      mstore\n      keccak256(0x00, 0x20)\n      swap1\n      0x06\n      mul\n      add\n        /* \"Ehealth.sol\":2377:2395  pasienList[i].umur */\n      0x03\n      add\n      0x00\n      swap1\n      sload\n      swap1\n      0x0100\n      exp\n      swap1\n      div\n      0xff\n      and\n        /* \"Ehealth.sol\":2369:2395  _umur = pasienList[i].umur */\n      swap3\n      pop\n        /* \"Ehealth.sol\":2423:2433  pasienList */\n      0x02\n        /* \"Ehealth.sol\":2434:2435  i */\n      dup2\n        /* \"Ehealth.sol\":2423:2436  pasienList[i] */\n      dup2\n      sload\n      dup2\n      lt\n      tag_111\n      jumpi\n      invalid\n    tag_111:\n      swap1\n      0x00\n      mstore\n      keccak256(0x00, 0x20)\n      swap1\n      0x06\n      mul\n      add\n        /* \"Ehealth.sol\":2423:2443  pasienList[i].alamat */\n      0x04\n      add\n        /* \"Ehealth.sol\":2413:2443  _alamat = pasienList[i].alamat */\n      dup1\n      sload\n      0x01\n      dup2\n      0x01\n      and\n      iszero\n      0x0100\n      mul\n      sub\n      and\n      0x02\n      swap1\n      div\n      dup1\n      0x1f\n      add\n      0x20\n      dup1\n      swap2\n      div\n      mul\n      0x20\n      add\n      mload(0x40)\n      swap1\n      dup2\n      add\n      0x40\n      mstore\n      dup1\n      swap3\n      swap2\n      swap1\n      dup2\n      dup2\n      mstore\n      0x20\n      add\n      dup3\n      dup1\n      sload\n      0x01\n      dup2\n      0x01\n      and\n      iszero\n      0x0100\n      mul\n      sub\n      and\n      0x02\n      swap1\n      div\n      dup1\n      iszero\n      tag_113\n      jumpi\n      dup1\n      0x1f\n      lt\n      tag_114\n      jumpi\n      0x0100\n      dup1\n      dup4\n      sload\n      div\n      mul\n      dup4\n      mstore\n      swap2\n      0x20\n      add\n      swap2\n      jump(tag_113)\n    tag_114:\n      dup3\n      add\n      swap2\n      swap1\n      0x00\n      mstore\n      keccak256(0x00, 0x20)\n      swap1\n    tag_115:\n      dup2\n      sload\n      dup2\n      mstore\n      swap1\n      0x01\n      add\n      swap1\n      0x20\n      add\n      dup1\n      dup4\n      gt\n      tag_115\n      jumpi\n      dup3\n      swap1\n      sub\n      0x1f\n      and\n      dup3\n      add\n      swap2\n    tag_113:\n      pop\n      pop\n      pop\n      pop\n      pop\n      swap2\n      pop\n        /* \"Ehealth.sol\":2237:2458  if(_nik == pasienList[i].nik){... */\n    tag_101:\n        /* \"Ehealth.sol\":2219:2222  i++ */\n      dup1\n      dup1\n      0x01\n      add\n      swap2\n      pop\n      pop\n        /* \"Ehealth.sol\":2183:2468  for(uint i = 0; i<pasienList.length;i++){... */\n      jump(tag_96)\n    tag_97:\n      pop\n        /* \"Ehealth.sol\":2484:2487  _id */\n      dup4\n        /* \"Ehealth.sol\":2489:2494  _nama */\n      dup4\n        /* \"Ehealth.sol\":2496:2501  _umur */\n      dup4\n        /* \"Ehealth.sol\":2503:2510  _alamat */\n      dup4\n        /* \"Ehealth.sol\":2477:2511  return(_id, _nama, _umur, _alamat) */\n      swap8\n      pop\n      swap8\n      pop\n      swap8\n      pop\n      swap8\n      pop\n      pop\n      pop\n      pop\n      pop\n        /* \"Ehealth.sol\":1939:2518  function getpasien_tenkes(uint _nik) isTenkes public view returns(uint, string memory, uint8, string memory){... */\n      swap2\n      swap4\n      pop\n      swap2\n      swap4\n      jump\t// out\n        /* \"Ehealth.sol\":4178:4395  function check_pasien() public view returns(bool){... */\n    tag_32:\n        /* \"Ehealth.sol\":4222:4226  bool */\n      0x00\n        /* \"Ehealth.sol\":4241:4247  uint i */\n      dup1\n        /* \"Ehealth.sol\":4250:4251  0 */\n      0x00\n        /* \"Ehealth.sol\":4241:4251  uint i = 0 */\n      swap1\n      pop\n        /* \"Ehealth.sol\":4237:4389  for(uint i = 0; i < pasienList.length;i++){... */\n    tag_117:\n        /* \"Ehealth.sol\":4257:4267  pasienList */\n      0x02\n        /* \"Ehealth.sol\":4257:4274  pasienList.length */\n      dup1\n      sload\n      swap1\n      pop\n        /* \"Ehealth.sol\":4253:4254  i */\n      dup2\n        /* \"Ehealth.sol\":4253:4274  i < pasienList.length */\n      lt\n        /* \"Ehealth.sol\":4237:4389  for(uint i = 0; i < pasienList.length;i++){... */\n      iszero\n      tag_118\n      jumpi\n        /* \"Ehealth.sol\":4310:4320  pasienList */\n      0x02\n        /* \"Ehealth.sol\":4321:4322  i */\n      dup2\n        /* \"Ehealth.sol\":4310:4323  pasienList[i] */\n      dup2\n      sload\n      dup2\n      lt\n      tag_120\n      jumpi\n      invalid\n    tag_120:\n      swap1\n      0x00\n      mstore\n      keccak256(0x00, 0x20)\n      swap1\n      0x06\n      mul\n      add\n        /* \"Ehealth.sol\":4310:4334  pasienList[i].ethaddress */\n      0x00\n      add\n      0x00\n      swap1\n      sload\n      swap1\n      0x0100\n      exp\n      swap1\n      div\n      0xffffffffffffffffffffffffffffffffffffffff\n      and\n        /* \"Ehealth.sol\":4296:4334  msg.sender == pasienList[i].ethaddress */\n      0xffffffffffffffffffffffffffffffffffffffff\n      and\n        /* \"Ehealth.sol\":4296:4306  msg.sender */\n      caller\n        /* \"Ehealth.sol\":4296:4334  msg.sender == pasienList[i].ethaddress */\n      0xffffffffffffffffffffffffffffffffffffffff\n      and\n      eq\n        /* \"Ehealth.sol\":4293:4379  if(msg.sender == pasienList[i].ethaddress){... */\n      iszero\n      tag_122\n      jumpi\n        /* \"Ehealth.sol\":4360:4364  true */\n      0x01\n        /* \"Ehealth.sol\":4353:4364  return true */\n      swap2\n      pop\n      pop\n      jump(tag_116)\n        /* \"Ehealth.sol\":4293:4379  if(msg.sender == pasienList[i].ethaddress){... */\n    tag_122:\n        /* \"Ehealth.sol\":4275:4278  i++ */\n      dup1\n      dup1\n      0x01\n      add\n      swap2\n      pop\n      pop\n        /* \"Ehealth.sol\":4237:4389  for(uint i = 0; i < pasienList.length;i++){... */\n      jump(tag_117)\n    tag_118:\n      pop\n        /* \"Ehealth.sol\":4178:4395  function check_pasien() public view returns(bool){... */\n    tag_116:\n      swap1\n      jump\t// out\n        /* \"Ehealth.sol\":2523:3028  function getpenyakit_tenkes(uint _nik) isTenkes public view returns(string[] memory){... */\n    tag_36:\n        /* \"Ehealth.sol\":2591:2606  string[] memory */\n      0x60\n        /* \"Ehealth.sol\":4744:4758  check_tenkes() */\n      tag_124\n        /* \"Ehealth.sol\":4744:4756  check_tenkes */\n      tag_15\n        /* \"Ehealth.sol\":4744:4758  check_tenkes() */\n      jump\t// in\n    tag_124:\n        /* \"Ehealth.sol\":4735:4759  require (check_tenkes()) */\n      tag_125\n      jumpi\n        /* \"--CODEGEN--\":12:13   */\n      0x00\n        /* \"--CODEGEN--\":9:10   */\n      dup1\n        /* \"--CODEGEN--\":2:14   */\n      revert\n        /* \"Ehealth.sol\":4735:4759  require (check_tenkes()) */\n    tag_125:\n        /* \"Ehealth.sol\":2617:2638  string[] memory _info */\n      0x60\n        /* \"Ehealth.sol\":2652:2658  uint i */\n      0x00\n        /* \"Ehealth.sol\":2661:2662  0 */\n      dup1\n        /* \"Ehealth.sol\":2652:2662  uint i = 0 */\n      swap1\n      pop\n        /* \"Ehealth.sol\":2648:2999  for(uint i = 0;i<pasienList.length;i++){... */\n    tag_127:\n        /* \"Ehealth.sol\":2665:2675  pasienList */\n      0x02\n        /* \"Ehealth.sol\":2665:2682  pasienList.length */\n      dup1\n      sload\n      swap1\n      pop\n        /* \"Ehealth.sol\":2663:2664  i */\n      dup2\n        /* \"Ehealth.sol\":2663:2682  i<pasienList.length */\n      lt\n        /* \"Ehealth.sol\":2648:2999  for(uint i = 0;i<pasienList.length;i++){... */\n      iszero\n      tag_128\n      jumpi\n        /* \"Ehealth.sol\":2712:2722  pasienList */\n      0x02\n        /* \"Ehealth.sol\":2723:2724  i */\n      dup2\n        /* \"Ehealth.sol\":2712:2725  pasienList[i] */\n      dup2\n      sload\n      dup2\n      lt\n      tag_130\n      jumpi\n      invalid\n    tag_130:\n      swap1\n      0x00\n      mstore\n      keccak256(0x00, 0x20)\n      swap1\n      0x06\n      mul\n      add\n        /* \"Ehealth.sol\":2712:2729  pasienList[i].nik */\n      0x01\n      add\n      sload\n        /* \"Ehealth.sol\":2704:2708  _nik */\n      dup5\n        /* \"Ehealth.sol\":2704:2729  _nik == pasienList[i].nik */\n      eq\n        /* \"Ehealth.sol\":2701:2989  if(_nik == pasienList[i].nik){... */\n      iszero\n      tag_132\n      jumpi\n        /* \"Ehealth.sol\":2769:2779  pasienList */\n      0x02\n        /* \"Ehealth.sol\":2780:2781  i */\n      dup2\n        /* \"Ehealth.sol\":2769:2782  pasienList[i] */\n      dup2\n      sload\n      dup2\n      lt\n      tag_133\n      jumpi\n      invalid\n    tag_133:\n      swap1\n      0x00\n      mstore\n      keccak256(0x00, 0x20)\n      swap1\n      0x06\n      mul\n      add\n        /* \"Ehealth.sol\":2769:2801  pasienList[i].informasi_penyakit */\n      0x05\n      add\n        /* \"Ehealth.sol\":2769:2808  pasienList[i].informasi_penyakit.length */\n      dup1\n      sload\n      swap1\n      pop\n        /* \"Ehealth.sol\":2756:2809  new string[](pasienList[i].informasi_penyakit.length) */\n      0xffffffffffffffff\n      dup2\n      gt\n        /* \"--CODEGEN--\":5:14   */\n      dup1\n        /* \"--CODEGEN--\":2:4   */\n      iszero\n      tag_135\n      jumpi\n        /* \"--CODEGEN--\":27:28   */\n      0x00\n        /* \"--CODEGEN--\":24:25   */\n      dup1\n        /* \"--CODEGEN--\":17:29   */\n      revert\n        /* \"--CODEGEN--\":2:4   */\n    tag_135:\n        /* \"Ehealth.sol\":2756:2809  new string[](pasienList[i].informasi_penyakit.length) */\n      pop\n      mload(0x40)\n      swap1\n      dup1\n      dup3\n      mstore\n      dup1\n      0x20\n      mul\n      0x20\n      add\n      dup3\n      add\n      0x40\n      mstore\n      dup1\n      iszero\n      tag_136\n      jumpi\n      dup2\n      0x20\n      add\n    tag_137:\n      0x60\n      dup2\n      mstore\n      0x20\n      add\n      swap1\n      0x01\n      swap1\n      sub\n      swap1\n      dup2\n      tag_137\n      jumpi\n      swap1\n      pop\n    tag_136:\n      pop\n        /* \"Ehealth.sol\":2748:2809  _info = new string[](pasienList[i].informasi_penyakit.length) */\n      swap2\n      pop\n        /* \"Ehealth.sol\":2831:2837  uint j */\n      0x00\n        /* \"Ehealth.sol\":2840:2841  0 */\n      dup1\n        /* \"Ehealth.sol\":2831:2841  uint j = 0 */\n      swap1\n      pop\n        /* \"Ehealth.sol\":2827:2975  for(uint j = 0;j<pasienList[i].informasi_penyakit.length;j++){... */\n    tag_138:\n        /* \"Ehealth.sol\":2844:2854  pasienList */\n      0x02\n        /* \"Ehealth.sol\":2855:2856  i */\n      dup3\n        /* \"Ehealth.sol\":2844:2857  pasienList[i] */\n      dup2\n      sload\n      dup2\n      lt\n      tag_141\n      jumpi\n      invalid\n    tag_141:\n      swap1\n      0x00\n      mstore\n      keccak256(0x00, 0x20)\n      swap1\n      0x06\n      mul\n      add\n        /* \"Ehealth.sol\":2844:2876  pasienList[i].informasi_penyakit */\n      0x05\n      add\n        /* \"Ehealth.sol\":2844:2883  pasienList[i].informasi_penyakit.length */\n      dup1\n      sload\n      swap1\n      pop\n        /* \"Ehealth.sol\":2842:2843  j */\n      dup2\n        /* \"Ehealth.sol\":2842:2883  j<pasienList[i].informasi_penyakit.length */\n      lt\n        /* \"Ehealth.sol\":2827:2975  for(uint j = 0;j<pasienList[i].informasi_penyakit.length;j++){... */\n      iszero\n      tag_139\n      jumpi\n        /* \"Ehealth.sol\":2921:2931  pasienList */\n      0x02\n        /* \"Ehealth.sol\":2932:2933  i */\n      dup3\n        /* \"Ehealth.sol\":2921:2934  pasienList[i] */\n      dup2\n      sload\n      dup2\n      lt\n      tag_143\n      jumpi\n      invalid\n    tag_143:\n      swap1\n      0x00\n      mstore\n      keccak256(0x00, 0x20)\n      swap1\n      0x06\n      mul\n      add\n        /* \"Ehealth.sol\":2921:2953  pasienList[i].informasi_penyakit */\n      0x05\n      add\n        /* \"Ehealth.sol\":2954:2955  j */\n      dup2\n        /* \"Ehealth.sol\":2921:2956  pasienList[i].informasi_penyakit[j] */\n      dup2\n      sload\n      dup2\n      lt\n      tag_145\n      jumpi\n      invalid\n    tag_145:\n      swap1\n      0x00\n      mstore\n      keccak256(0x00, 0x20)\n      add\n        /* \"Ehealth.sol\":2910:2956  _info[j] = pasienList[i].informasi_penyakit[j] */\n      dup1\n      sload\n      0x01\n      dup2\n      0x01\n      and\n      iszero\n      0x0100\n      mul\n      sub\n      and\n      0x02\n      swap1\n      div\n      dup1\n      0x1f\n      add\n      0x20\n      dup1\n      swap2\n      div\n      mul\n      0x20\n      add\n      mload(0x40)\n      swap1\n      dup2\n      add\n      0x40\n      mstore\n      dup1\n      swap3\n      swap2\n      swap1\n      dup2\n      dup2\n      mstore\n      0x20\n      add\n      dup3\n      dup1\n      sload\n      0x01\n      dup2\n      0x01\n      and\n      iszero\n      0x0100\n      mul\n      sub\n      and\n      0x02\n      swap1\n      div\n      dup1\n      iszero\n      tag_147\n      jumpi\n      dup1\n      0x1f\n      lt\n      tag_148\n      jumpi\n      0x0100\n      dup1\n      dup4\n      sload\n      div\n      mul\n      dup4\n      mstore\n      swap2\n      0x20\n      add\n      swap2\n      jump(tag_147)\n    tag_148:\n      dup3\n      add\n      swap2\n      swap1\n      0x00\n      mstore\n      keccak256(0x00, 0x20)\n      swap1\n    tag_149:\n      dup2\n      sload\n      dup2\n      mstore\n      swap1\n      0x01\n      add\n      swap1\n      0x20\n      add\n      dup1\n      dup4\n      gt\n      tag_149\n      jumpi\n      dup3\n      swap1\n      sub\n      0x1f\n      and\n      dup3\n      add\n      swap2\n    tag_147:\n      pop\n      pop\n      pop\n      pop\n      pop\n        /* \"Ehealth.sol\":2910:2915  _info */\n      dup4\n        /* \"Ehealth.sol\":2916:2917  j */\n      dup3\n        /* \"Ehealth.sol\":2910:2918  _info[j] */\n      dup2\n      mload\n      dup2\n      lt\n      tag_150\n      jumpi\n      invalid\n    tag_150:\n      0x20\n      mul\n      0x20\n      add\n      add\n        /* \"Ehealth.sol\":2910:2956  _info[j] = pasienList[i].informasi_penyakit[j] */\n      dup2\n      swap1\n      mstore\n      pop\n        /* \"Ehealth.sol\":2884:2887  j++ */\n      dup1\n      dup1\n      0x01\n      add\n      swap2\n      pop\n      pop\n        /* \"Ehealth.sol\":2827:2975  for(uint j = 0;j<pasienList[i].informasi_penyakit.length;j++){... */\n      jump(tag_138)\n    tag_139:\n      pop\n        /* \"Ehealth.sol\":2701:2989  if(_nik == pasienList[i].nik){... */\n    tag_132:\n        /* \"Ehealth.sol\":2683:2686  i++ */\n      dup1\n      dup1\n      0x01\n      add\n      swap2\n      pop\n      pop\n        /* \"Ehealth.sol\":2648:2999  for(uint i = 0;i<pasienList.length;i++){... */\n      jump(tag_127)\n    tag_128:\n      pop\n        /* \"Ehealth.sol\":3015:3020  _info */\n      dup1\n        /* \"Ehealth.sol\":3008:3021  return(_info) */\n      swap2\n      pop\n      pop\n        /* \"Ehealth.sol\":2523:3028  function getpenyakit_tenkes(uint _nik) isTenkes public view returns(string[] memory){... */\n      swap2\n      swap1\n      pop\n      jump\t// out\n        /* \"Ehealth.sol\":3618:4127  function getpenyakit_pasien() isPasien public view returns(string[] memory){... */\n    tag_40:\n        /* \"Ehealth.sol\":3677:3692  string[] memory */\n      0x60\n        /* \"Ehealth.sol\":4819:4833  check_pasien() */\n      tag_152\n        /* \"Ehealth.sol\":4819:4831  check_pasien */\n      tag_32\n        /* \"Ehealth.sol\":4819:4833  check_pasien() */\n      jump\t// in\n    tag_152:\n        /* \"Ehealth.sol\":4811:4834  require(check_pasien()) */\n      tag_153\n      jumpi\n        /* \"--CODEGEN--\":12:13   */\n      0x00\n        /* \"--CODEGEN--\":9:10   */\n      dup1\n        /* \"--CODEGEN--\":2:14   */\n      revert\n        /* \"Ehealth.sol\":4811:4834  require(check_pasien()) */\n    tag_153:\n        /* \"Ehealth.sol\":3703:3724  string[] memory _info */\n      0x60\n        /* \"Ehealth.sol\":3738:3744  uint i */\n      0x00\n        /* \"Ehealth.sol\":3747:3748  0 */\n      dup1\n        /* \"Ehealth.sol\":3738:3748  uint i = 0 */\n      swap1\n      pop\n        /* \"Ehealth.sol\":3734:4098  for(uint i = 0;i<pasienList.length;i++){... */\n    tag_155:\n        /* \"Ehealth.sol\":3751:3761  pasienList */\n      0x02\n        /* \"Ehealth.sol\":3751:3768  pasienList.length */\n      dup1\n      sload\n      swap1\n      pop\n        /* \"Ehealth.sol\":3749:3750  i */\n      dup2\n        /* \"Ehealth.sol\":3749:3768  i<pasienList.length */\n      lt\n        /* \"Ehealth.sol\":3734:4098  for(uint i = 0;i<pasienList.length;i++){... */\n      iszero\n      tag_156\n      jumpi\n        /* \"Ehealth.sol\":3804:3814  pasienList */\n      0x02\n        /* \"Ehealth.sol\":3815:3816  i */\n      dup2\n        /* \"Ehealth.sol\":3804:3817  pasienList[i] */\n      dup2\n      sload\n      dup2\n      lt\n      tag_158\n      jumpi\n      invalid\n    tag_158:\n      swap1\n      0x00\n      mstore\n      keccak256(0x00, 0x20)\n      swap1\n      0x06\n      mul\n      add\n        /* \"Ehealth.sol\":3804:3828  pasienList[i].ethaddress */\n      0x00\n      add\n      0x00\n      swap1\n      sload\n      swap1\n      0x0100\n      exp\n      swap1\n      div\n      0xffffffffffffffffffffffffffffffffffffffff\n      and\n        /* \"Ehealth.sol\":3790:3828  msg.sender == pasienList[i].ethaddress */\n      0xffffffffffffffffffffffffffffffffffffffff\n      and\n        /* \"Ehealth.sol\":3790:3800  msg.sender */\n      caller\n        /* \"Ehealth.sol\":3790:3828  msg.sender == pasienList[i].ethaddress */\n      0xffffffffffffffffffffffffffffffffffffffff\n      and\n      eq\n        /* \"Ehealth.sol\":3787:4088  if(msg.sender == pasienList[i].ethaddress){... */\n      iszero\n      tag_160\n      jumpi\n        /* \"Ehealth.sol\":3868:3878  pasienList */\n      0x02\n        /* \"Ehealth.sol\":3879:3880  i */\n      dup2\n        /* \"Ehealth.sol\":3868:3881  pasienList[i] */\n      dup2\n      sload\n      dup2\n      lt\n      tag_161\n      jumpi\n      invalid\n    tag_161:\n      swap1\n      0x00\n      mstore\n      keccak256(0x00, 0x20)\n      swap1\n      0x06\n      mul\n      add\n        /* \"Ehealth.sol\":3868:3900  pasienList[i].informasi_penyakit */\n      0x05\n      add\n        /* \"Ehealth.sol\":3868:3907  pasienList[i].informasi_penyakit.length */\n      dup1\n      sload\n      swap1\n      pop\n        /* \"Ehealth.sol\":3855:3908  new string[](pasienList[i].informasi_penyakit.length) */\n      0xffffffffffffffff\n      dup2\n      gt\n        /* \"--CODEGEN--\":5:14   */\n      dup1\n        /* \"--CODEGEN--\":2:4   */\n      iszero\n      tag_163\n      jumpi\n        /* \"--CODEGEN--\":27:28   */\n      0x00\n        /* \"--CODEGEN--\":24:25   */\n      dup1\n        /* \"--CODEGEN--\":17:29   */\n      revert\n        /* \"--CODEGEN--\":2:4   */\n    tag_163:\n        /* \"Ehealth.sol\":3855:3908  new string[](pasienList[i].informasi_penyakit.length) */\n      pop\n      mload(0x40)\n      swap1\n      dup1\n      dup3\n      mstore\n      dup1\n      0x20\n      mul\n      0x20\n      add\n      dup3\n      add\n      0x40\n      mstore\n      dup1\n      iszero\n      tag_164\n      jumpi\n      dup2\n      0x20\n      add\n    tag_165:\n      0x60\n      dup2\n      mstore\n      0x20\n      add\n      swap1\n      0x01\n      swap1\n      sub\n      swap1\n      dup2\n      tag_165\n      jumpi\n      swap1\n      pop\n    tag_164:\n      pop\n        /* \"Ehealth.sol\":3847:3908  _info = new string[](pasienList[i].informasi_penyakit.length) */\n      swap2\n      pop\n        /* \"Ehealth.sol\":3930:3936  uint j */\n      0x00\n        /* \"Ehealth.sol\":3939:3940  0 */\n      dup1\n        /* \"Ehealth.sol\":3930:3940  uint j = 0 */\n      swap1\n      pop\n        /* \"Ehealth.sol\":3926:4074  for(uint j = 0;j<pasienList[i].informasi_penyakit.length;j++){... */\n    tag_166:\n        /* \"Ehealth.sol\":3943:3953  pasienList */\n      0x02\n        /* \"Ehealth.sol\":3954:3955  i */\n      dup3\n        /* \"Ehealth.sol\":3943:3956  pasienList[i] */\n      dup2\n      sload\n      dup2\n      lt\n      tag_169\n      jumpi\n      invalid\n    tag_169:\n      swap1\n      0x00\n      mstore\n      keccak256(0x00, 0x20)\n      swap1\n      0x06\n      mul\n      add\n        /* \"Ehealth.sol\":3943:3975  pasienList[i].informasi_penyakit */\n      0x05\n      add\n        /* \"Ehealth.sol\":3943:3982  pasienList[i].informasi_penyakit.length */\n      dup1\n      sload\n      swap1\n      pop\n        /* \"Ehealth.sol\":3941:3942  j */\n      dup2\n        /* \"Ehealth.sol\":3941:3982  j<pasienList[i].informasi_penyakit.length */\n      lt\n        /* \"Ehealth.sol\":3926:4074  for(uint j = 0;j<pasienList[i].informasi_penyakit.length;j++){... */\n      iszero\n      tag_167\n      jumpi\n        /* \"Ehealth.sol\":4020:4030  pasienList */\n      0x02\n        /* \"Ehealth.sol\":4031:4032  i */\n      dup3\n        /* \"Ehealth.sol\":4020:4033  pasienList[i] */\n      dup2\n      sload\n      dup2\n      lt\n      tag_171\n      jumpi\n      invalid\n    tag_171:\n      swap1\n      0x00\n      mstore\n      keccak256(0x00, 0x20)\n      swap1\n      0x06\n      mul\n      add\n        /* \"Ehealth.sol\":4020:4052  pasienList[i].informasi_penyakit */\n      0x05\n      add\n        /* \"Ehealth.sol\":4053:4054  j */\n      dup2\n        /* \"Ehealth.sol\":4020:4055  pasienList[i].informasi_penyakit[j] */\n      dup2\n      sload\n      dup2\n      lt\n      tag_173\n      jumpi\n      invalid\n    tag_173:\n      swap1\n      0x00\n      mstore\n      keccak256(0x00, 0x20)\n      add\n        /* \"Ehealth.sol\":4009:4055  _info[j] = pasienList[i].informasi_penyakit[j] */\n      dup1\n      sload\n      0x01\n      dup2\n      0x01\n      and\n      iszero\n      0x0100\n      mul\n      sub\n      and\n      0x02\n      swap1\n      div\n      dup1\n      0x1f\n      add\n      0x20\n      dup1\n      swap2\n      div\n      mul\n      0x20\n      add\n      mload(0x40)\n      swap1\n      dup2\n      add\n      0x40\n      mstore\n      dup1\n      swap3\n      swap2\n      swap1\n      dup2\n      dup2\n      mstore\n      0x20\n      add\n      dup3\n      dup1\n      sload\n      0x01\n      dup2\n      0x01\n      and\n      iszero\n      0x0100\n      mul\n      sub\n      and\n      0x02\n      swap1\n      div\n      dup1\n      iszero\n      tag_175\n      jumpi\n      dup1\n      0x1f\n      lt\n      tag_176\n      jumpi\n      0x0100\n      dup1\n      dup4\n      sload\n      div\n      mul\n      dup4\n      mstore\n      swap2\n      0x20\n      add\n      swap2\n      jump(tag_175)\n    tag_176:\n      dup3\n      add\n      swap2\n      swap1\n      0x00\n      mstore\n      keccak256(0x00, 0x20)\n      swap1\n    tag_177:\n      dup2\n      sload\n      dup2\n      mstore\n      swap1\n      0x01\n      add\n      swap1\n      0x20\n      add\n      dup1\n      dup4\n      gt\n      tag_177\n      jumpi\n      dup3\n      swap1\n      sub\n      0x1f\n      and\n      dup3\n      add\n      swap2\n    tag_175:\n      pop\n      pop\n      pop\n      pop\n      pop\n        /* \"Ehealth.sol\":4009:4014  _info */\n      dup4\n        /* \"Ehealth.sol\":4015:4016  j */\n      dup3\n        /* \"Ehealth.sol\":4009:4017  _info[j] */\n      dup2\n      mload\n      dup2\n      lt\n      tag_178\n      jumpi\n      invalid\n    tag_178:\n      0x20\n      mul\n      0x20\n      add\n      add\n        /* \"Ehealth.sol\":4009:4055  _info[j] = pasienList[i].informasi_penyakit[j] */\n      dup2\n      swap1\n      mstore\n      pop\n        /* \"Ehealth.sol\":3983:3986  j++ */\n      dup1\n      dup1\n      0x01\n      add\n      swap2\n      pop\n      pop\n        /* \"Ehealth.sol\":3926:4074  for(uint j = 0;j<pasienList[i].informasi_penyakit.length;j++){... */\n      jump(tag_166)\n    tag_167:\n      pop\n        /* \"Ehealth.sol\":3787:4088  if(msg.sender == pasienList[i].ethaddress){... */\n    tag_160:\n        /* \"Ehealth.sol\":3769:3772  i++ */\n      dup1\n      dup1\n      0x01\n      add\n      swap2\n      pop\n      pop\n        /* \"Ehealth.sol\":3734:4098  for(uint i = 0;i<pasienList.length;i++){... */\n      jump(tag_155)\n    tag_156:\n      pop\n        /* \"Ehealth.sol\":4114:4119  _info */\n      dup1\n        /* \"Ehealth.sol\":4107:4120  return(_info) */\n      swap2\n      pop\n      pop\n        /* \"Ehealth.sol\":3618:4127  function getpenyakit_pasien() isPasien public view returns(string[] memory){... */\n      swap1\n      jump\t// out\n        /* \"Ehealth.sol\":801:1171  function addPasien(uint _nik, string memory _nama, uint8 _umur, string memory _alamat) public{... */\n    tag_45:\n        /* \"Ehealth.sol\":904:927  Pasien memory newPasien */\n      tag_180\n      tag_181\n      jump\t// in\n    tag_180:\n        /* \"Ehealth.sol\":931:1128  Pasien({... */\n      mload(0x40)\n      dup1\n      0xc0\n      add\n      0x40\n      mstore\n      dup1\n        /* \"Ehealth.sol\":963:973  msg.sender */\n      caller\n        /* \"Ehealth.sol\":931:1128  Pasien({... */\n      0xffffffffffffffffffffffffffffffffffffffff\n      and\n      dup2\n      mstore\n      0x20\n      add\n        /* \"Ehealth.sol\":990:994  _nik */\n      dup7\n        /* \"Ehealth.sol\":931:1128  Pasien({... */\n      dup2\n      mstore\n      0x20\n      add\n        /* \"Ehealth.sol\":1013:1018  _nama */\n      dup6\n        /* \"Ehealth.sol\":931:1128  Pasien({... */\n      dup2\n      mstore\n      0x20\n      add\n        /* \"Ehealth.sol\":1037:1042  _umur */\n      dup5\n        /* \"Ehealth.sol\":931:1128  Pasien({... */\n      0xff\n      and\n      dup2\n      mstore\n      0x20\n      add\n        /* \"Ehealth.sol\":1062:1069  _alamat */\n      dup4\n        /* \"Ehealth.sol\":931:1128  Pasien({... */\n      dup2\n      mstore\n      0x20\n      add\n        /* \"Ehealth.sol\":1115:1116  0 */\n      0x00\n        /* \"Ehealth.sol\":1102:1117  new string[](0) */\n      0xffffffffffffffff\n      dup2\n      gt\n        /* \"--CODEGEN--\":5:14   */\n      dup1\n        /* \"--CODEGEN--\":2:4   */\n      iszero\n      tag_182\n      jumpi\n        /* \"--CODEGEN--\":27:28   */\n      0x00\n        /* \"--CODEGEN--\":24:25   */\n      dup1\n        /* \"--CODEGEN--\":17:29   */\n      revert\n        /* \"--CODEGEN--\":2:4   */\n    tag_182:\n        /* \"Ehealth.sol\":1102:1117  new string[](0) */\n      pop\n      mload(0x40)\n      swap1\n      dup1\n      dup3\n      mstore\n      dup1\n      0x20\n      mul\n      0x20\n      add\n      dup3\n      add\n      0x40\n      mstore\n      dup1\n      iszero\n      tag_183\n      jumpi\n      dup2\n      0x20\n      add\n    tag_184:\n      0x60\n      dup2\n      mstore\n      0x20\n      add\n      swap1\n      0x01\n      swap1\n      sub\n      swap1\n      dup2\n      tag_184\n      jumpi\n      swap1\n      pop\n    tag_183:\n      pop\n        /* \"Ehealth.sol\":931:1128  Pasien({... */\n      dup2\n      mstore\n      pop\n        /* \"Ehealth.sol\":904:1128  Pasien memory newPasien =  Pasien({... */\n      swap1\n      pop\n        /* \"Ehealth.sol\":1138:1148  pasienList */\n      0x02\n        /* \"Ehealth.sol\":1154:1163  newPasien */\n      dup2\n        /* \"Ehealth.sol\":1138:1164  pasienList.push(newPasien) */\n      swap1\n      dup1\n        /* \"--CODEGEN--\":39:40   */\n      0x01\n        /* \"--CODEGEN--\":33:36   */\n      dup2\n        /* \"--CODEGEN--\":27:37   */\n      sload\n        /* \"--CODEGEN--\":23:41   */\n      add\n        /* \"--CODEGEN--\":57:67   */\n      dup1\n        /* \"--CODEGEN--\":52:55   */\n      dup3\n        /* \"--CODEGEN--\":45:68   */\n      sstore\n        /* \"--CODEGEN--\":79:89   */\n      dup1\n        /* \"--CODEGEN--\":72:89   */\n      swap2\n      pop\n        /* \"--CODEGEN--\":0:93   */\n      pop\n        /* \"Ehealth.sol\":1138:1164  pasienList.push(newPasien) */\n      0x01\n      swap1\n      sub\n      swap1\n      0x00\n      mstore\n      keccak256(0x00, 0x20)\n      swap1\n      0x06\n      mul\n      add\n      0x00\n      swap1\n      swap2\n      swap1\n      swap2\n      swap1\n      swap2\n      pop\n      0x00\n      dup3\n      add\n      mload\n      dup2\n      0x00\n      add\n      exp(0x0100, 0x00)\n      dup2\n      sload\n      dup2\n      0xffffffffffffffffffffffffffffffffffffffff\n      mul\n      not\n      and\n      swap1\n      dup4\n      0xffffffffffffffffffffffffffffffffffffffff\n      and\n      mul\n      or\n      swap1\n      sstore\n      pop\n      0x20\n      dup3\n      add\n      mload\n      dup2\n      0x01\n      add\n      sstore\n      0x40\n      dup3\n      add\n      mload\n      dup2\n      0x02\n      add\n      swap1\n      dup1\n      mload\n      swap1\n      0x20\n      add\n      swap1\n      tag_186\n      swap3\n      swap2\n      swap1\n      tag_90\n      jump\t// in\n    tag_186:\n      pop\n      0x60\n      dup3\n      add\n      mload\n      dup2\n      0x03\n      add\n      exp(0x0100, 0x00)\n      dup2\n      sload\n      dup2\n      0xff\n      mul\n      not\n      and\n      swap1\n      dup4\n      0xff\n      and\n      mul\n      or\n      swap1\n      sstore\n      pop\n      0x80\n      dup3\n      add\n      mload\n      dup2\n      0x04\n      add\n      swap1\n      dup1\n      mload\n      swap1\n      0x20\n      add\n      swap1\n      tag_187\n      swap3\n      swap2\n      swap1\n      tag_90\n      jump\t// in\n    tag_187:\n      pop\n      0xa0\n      dup3\n      add\n      mload\n      dup2\n      0x05\n      add\n      swap1\n      dup1\n      mload\n      swap1\n      0x20\n      add\n      swap1\n      tag_188\n      swap3\n      swap2\n      swap1\n      tag_189\n      jump\t// in\n    tag_188:\n      pop\n      pop\n      pop\n        /* \"Ehealth.sol\":801:1171  function addPasien(uint _nik, string memory _nama, uint8 _umur, string memory _alamat) public{... */\n      pop\n      pop\n      pop\n      pop\n      pop\n      jump\t// out\n        /* \"Ehealth.sol\":1497:1801  function addPenyakit (uint _id, string memory _penyakit) isTenkes public {... */\n    tag_49:\n        /* \"Ehealth.sol\":4744:4758  check_tenkes() */\n      tag_191\n        /* \"Ehealth.sol\":4744:4756  check_tenkes */\n      tag_15\n        /* \"Ehealth.sol\":4744:4758  check_tenkes() */\n      jump\t// in\n    tag_191:\n        /* \"Ehealth.sol\":4735:4759  require (check_tenkes()) */\n      tag_192\n      jumpi\n        /* \"--CODEGEN--\":12:13   */\n      0x00\n        /* \"--CODEGEN--\":9:10   */\n      dup1\n        /* \"--CODEGEN--\":2:14   */\n      revert\n        /* \"Ehealth.sol\":4735:4759  require (check_tenkes()) */\n    tag_192:\n        /* \"Ehealth.sol\":1614:1615  0 */\n      0x00\n        /* \"Ehealth.sol\":1594:1603  _penyakit */\n      dup2\n        /* \"Ehealth.sol\":1588:1611  bytes(_penyakit).length */\n      mload\n        /* \"Ehealth.sol\":1588:1615  bytes(_penyakit).length > 0 */\n      gt\n        /* \"Ehealth.sol\":1580:1616  require(bytes(_penyakit).length > 0) */\n      tag_194\n      jumpi\n        /* \"--CODEGEN--\":12:13   */\n      0x00\n        /* \"--CODEGEN--\":9:10   */\n      dup1\n        /* \"--CODEGEN--\":2:14   */\n      revert\n        /* \"Ehealth.sol\":1580:1616  require(bytes(_penyakit).length > 0) */\n    tag_194:\n        /* \"Ehealth.sol\":1630:1636  uint i */\n      0x00\n        /* \"Ehealth.sol\":1626:1795  for(uint i; i<pasienList.length;i++){... */\n    tag_195:\n        /* \"Ehealth.sol\":1640:1650  pasienList */\n      0x02\n        /* \"Ehealth.sol\":1640:1657  pasienList.length */\n      dup1\n      sload\n      swap1\n      pop\n        /* \"Ehealth.sol\":1638:1639  i */\n      dup2\n        /* \"Ehealth.sol\":1638:1657  i<pasienList.length */\n      lt\n        /* \"Ehealth.sol\":1626:1795  for(uint i; i<pasienList.length;i++){... */\n      iszero\n      tag_196\n      jumpi\n        /* \"Ehealth.sol\":1686:1696  pasienList */\n      0x02\n        /* \"Ehealth.sol\":1697:1698  i */\n      dup2\n        /* \"Ehealth.sol\":1686:1699  pasienList[i] */\n      dup2\n      sload\n      dup2\n      lt\n      tag_198\n      jumpi\n      invalid\n    tag_198:\n      swap1\n      0x00\n      mstore\n      keccak256(0x00, 0x20)\n      swap1\n      0x06\n      mul\n      add\n        /* \"Ehealth.sol\":1686:1703  pasienList[i].nik */\n      0x01\n      add\n      sload\n        /* \"Ehealth.sol\":1679:1682  _id */\n      dup4\n        /* \"Ehealth.sol\":1679:1703  _id == pasienList[i].nik */\n      eq\n        /* \"Ehealth.sol\":1676:1785  if(_id == pasienList[i].nik){... */\n      iszero\n      tag_200\n      jumpi\n        /* \"Ehealth.sol\":1722:1732  pasienList */\n      0x02\n        /* \"Ehealth.sol\":1733:1734  i */\n      dup2\n        /* \"Ehealth.sol\":1722:1735  pasienList[i] */\n      dup2\n      sload\n      dup2\n      lt\n      tag_201\n      jumpi\n      invalid\n    tag_201:\n      swap1\n      0x00\n      mstore\n      keccak256(0x00, 0x20)\n      swap1\n      0x06\n      mul\n      add\n        /* \"Ehealth.sol\":1722:1754  pasienList[i].informasi_penyakit */\n      0x05\n      add\n        /* \"Ehealth.sol\":1760:1769  _penyakit */\n      dup3\n        /* \"Ehealth.sol\":1722:1770  pasienList[i].informasi_penyakit.push(_penyakit) */\n      swap1\n      dup1\n        /* \"--CODEGEN--\":39:40   */\n      0x01\n        /* \"--CODEGEN--\":33:36   */\n      dup2\n        /* \"--CODEGEN--\":27:37   */\n      sload\n        /* \"--CODEGEN--\":23:41   */\n      add\n        /* \"--CODEGEN--\":57:67   */\n      dup1\n        /* \"--CODEGEN--\":52:55   */\n      dup3\n        /* \"--CODEGEN--\":45:68   */\n      sstore\n        /* \"--CODEGEN--\":79:89   */\n      dup1\n        /* \"--CODEGEN--\":72:89   */\n      swap2\n      pop\n        /* \"--CODEGEN--\":0:93   */\n      pop\n        /* \"Ehealth.sol\":1722:1770  pasienList[i].informasi_penyakit.push(_penyakit) */\n      0x01\n      swap1\n      sub\n      swap1\n      0x00\n      mstore\n      keccak256(0x00, 0x20)\n      add\n      0x00\n      swap1\n      swap2\n      swap1\n      swap2\n      swap1\n      swap2\n      pop\n      swap1\n      dup1\n      mload\n      swap1\n      0x20\n      add\n      swap1\n      tag_204\n      swap3\n      swap2\n      swap1\n      tag_90\n      jump\t// in\n    tag_204:\n      pop\n        /* \"Ehealth.sol\":1676:1785  if(_id == pasienList[i].nik){... */\n    tag_200:\n        /* \"Ehealth.sol\":1658:1661  i++ */\n      dup1\n      dup1\n      0x01\n      add\n      swap2\n      pop\n      pop\n        /* \"Ehealth.sol\":1626:1795  for(uint i; i<pasienList.length;i++){... */\n      jump(tag_195)\n    tag_196:\n      pop\n        /* \"Ehealth.sol\":1497:1801  function addPenyakit (uint _id, string memory _penyakit) isTenkes public {... */\n      pop\n      pop\n      jump\t// out\n        /* \"Ehealth.sol\":640:722  function getManager() public view returns(address) {... */\n    tag_51:\n        /* \"Ehealth.sol\":682:689  address */\n      0x00\n        /* \"Ehealth.sol\":708:715  manager */\n      dup1\n      0x00\n      swap1\n      sload\n      swap1\n      0x0100\n      exp\n      swap1\n      div\n      0xffffffffffffffffffffffffffffffffffffffff\n      and\n        /* \"Ehealth.sol\":701:715  return manager */\n      swap1\n      pop\n        /* \"Ehealth.sol\":640:722  function getManager() public view returns(address) {... */\n      swap1\n      jump\t// out\n        /* \"Ehealth.sol\":91:4958  contract Ehealth{... */\n    tag_87:\n      mload(0x40)\n      dup1\n      0x80\n      add\n      0x40\n      mstore\n      dup1\n      and(0xffffffffffffffffffffffffffffffffffffffff, 0x00)\n      dup2\n      mstore\n      0x20\n      add\n      0x60\n      dup2\n      mstore\n      0x20\n      add\n      and(0xff, 0x00)\n      dup2\n      mstore\n      0x20\n      add\n      0x60\n      dup2\n      mstore\n      pop\n      swap1\n      jump\t// out\n    tag_90:\n      dup3\n      dup1\n      sload\n      0x01\n      dup2\n      0x01\n      and\n      iszero\n      0x0100\n      mul\n      sub\n      and\n      0x02\n      swap1\n      div\n      swap1\n      0x00\n      mstore\n      keccak256(0x00, 0x20)\n      swap1\n      0x1f\n      add\n      0x20\n      swap1\n      div\n      dup2\n      add\n      swap3\n      dup3\n      0x1f\n      lt\n      tag_207\n      jumpi\n      dup1\n      mload\n      not(0xff)\n      and\n      dup4\n      dup1\n      add\n      or\n      dup6\n      sstore\n      jump(tag_206)\n    tag_207:\n      dup3\n      dup1\n      add\n      0x01\n      add\n      dup6\n      sstore\n      dup3\n      iszero\n      tag_206\n      jumpi\n      swap2\n      dup3\n      add\n    tag_208:\n      dup3\n      dup2\n      gt\n      iszero\n      tag_209\n      jumpi\n      dup3\n      mload\n      dup3\n      sstore\n      swap2\n      0x20\n      add\n      swap2\n      swap1\n      0x01\n      add\n      swap1\n      jump(tag_208)\n    tag_209:\n    tag_206:\n      pop\n      swap1\n      pop\n      tag_210\n      swap2\n      swap1\n      tag_211\n      jump\t// in\n    tag_210:\n      pop\n      swap1\n      jump\t// out\n    tag_181:\n      mload(0x40)\n      dup1\n      0xc0\n      add\n      0x40\n      mstore\n      dup1\n      and(0xffffffffffffffffffffffffffffffffffffffff, 0x00)\n      dup2\n      mstore\n      0x20\n      add\n      0x00\n      dup2\n      mstore\n      0x20\n      add\n      0x60\n      dup2\n      mstore\n      0x20\n      add\n      and(0xff, 0x00)\n      dup2\n      mstore\n      0x20\n      add\n      0x60\n      dup2\n      mstore\n      0x20\n      add\n      0x60\n      dup2\n      mstore\n      pop\n      swap1\n      jump\t// out\n    tag_189:\n      dup3\n      dup1\n      sload\n      dup3\n      dup3\n      sstore\n      swap1\n      0x00\n      mstore\n      keccak256(0x00, 0x20)\n      swap1\n      dup2\n      add\n      swap3\n      dup3\n      iszero\n      tag_212\n      jumpi\n      swap2\n      0x20\n      mul\n      dup3\n      add\n    tag_213:\n      dup3\n      dup2\n      gt\n      iszero\n      tag_214\n      jumpi\n      dup3\n      mload\n      dup3\n      swap1\n      dup1\n      mload\n      swap1\n      0x20\n      add\n      swap1\n      tag_215\n      swap3\n      swap2\n      swap1\n      tag_90\n      jump\t// in\n    tag_215:\n      pop\n      swap2\n      0x20\n      add\n      swap2\n      swap1\n      0x01\n      add\n      swap1\n      jump(tag_213)\n    tag_214:\n    tag_212:\n      pop\n      swap1\n      pop\n      tag_216\n      swap2\n      swap1\n      tag_217\n      jump\t// in\n    tag_216:\n      pop\n      swap1\n      jump\t// out\n    tag_211:\n      tag_218\n      swap2\n      swap1\n    tag_219:\n      dup1\n      dup3\n      gt\n      iszero\n      tag_220\n      jumpi\n      0x00\n      dup2\n      0x00\n      swap1\n      sstore\n      pop\n      0x01\n      add\n      jump(tag_219)\n    tag_220:\n      pop\n      swap1\n      jump\n    tag_218:\n      swap1\n      jump\t// out\n    tag_217:\n      tag_221\n      swap2\n      swap1\n    tag_222:\n      dup1\n      dup3\n      gt\n      iszero\n      tag_223\n      jumpi\n      0x00\n      dup2\n      dup2\n      tag_224\n      swap2\n      swap1\n      tag_225\n      jump\t// in\n    tag_224:\n      pop\n      0x01\n      add\n      jump(tag_222)\n    tag_223:\n      pop\n      swap1\n      jump\n    tag_221:\n      swap1\n      jump\t// out\n    tag_225:\n      pop\n      dup1\n      sload\n      0x01\n      dup2\n      0x01\n      and\n      iszero\n      0x0100\n      mul\n      sub\n      and\n      0x02\n      swap1\n      div\n      0x00\n      dup3\n      sstore\n      dup1\n      0x1f\n      lt\n      tag_227\n      jumpi\n      pop\n      jump(tag_226)\n    tag_227:\n      0x1f\n      add\n      0x20\n      swap1\n      div\n      swap1\n      0x00\n      mstore\n      keccak256(0x00, 0x20)\n      swap1\n      dup2\n      add\n      swap1\n      tag_228\n      swap2\n      swap1\n      tag_211\n      jump\t// in\n    tag_228:\n    tag_226:\n      pop\n      jump\t// out\n        /* \"--CODEGEN--\":6:448   */\n    tag_230:\n      0x00\n        /* \"--CODEGEN--\":108:111   */\n      dup3\n        /* \"--CODEGEN--\":101:105   */\n      0x1f\n        /* \"--CODEGEN--\":93:99   */\n      dup4\n        /* \"--CODEGEN--\":89:106   */\n      add\n        /* \"--CODEGEN--\":85:112   */\n      slt\n        /* \"--CODEGEN--\":75:77   */\n      tag_232\n      jumpi\n        /* \"--CODEGEN--\":126:127   */\n      0x00\n        /* \"--CODEGEN--\":123:124   */\n      dup1\n        /* \"--CODEGEN--\":116:128   */\n      revert\n        /* \"--CODEGEN--\":75:77   */\n    tag_232:\n        /* \"--CODEGEN--\":163:169   */\n      dup2\n        /* \"--CODEGEN--\":150:170   */\n      calldataload\n        /* \"--CODEGEN--\":185:250   */\n      tag_233\n        /* \"--CODEGEN--\":200:249   */\n      tag_234\n        /* \"--CODEGEN--\":242:248   */\n      dup3\n        /* \"--CODEGEN--\":200:249   */\n      jump(tag_235)\n    tag_234:\n        /* \"--CODEGEN--\":185:250   */\n      jump(tag_236)\n    tag_233:\n        /* \"--CODEGEN--\":176:250   */\n      swap2\n      pop\n        /* \"--CODEGEN--\":270:276   */\n      dup1\n        /* \"--CODEGEN--\":263:268   */\n      dup3\n        /* \"--CODEGEN--\":256:277   */\n      mstore\n        /* \"--CODEGEN--\":306:310   */\n      0x20\n        /* \"--CODEGEN--\":298:304   */\n      dup4\n        /* \"--CODEGEN--\":294:311   */\n      add\n        /* \"--CODEGEN--\":339:343   */\n      0x20\n        /* \"--CODEGEN--\":332:337   */\n      dup4\n        /* \"--CODEGEN--\":328:344   */\n      add\n        /* \"--CODEGEN--\":374:377   */\n      dup6\n        /* \"--CODEGEN--\":365:371   */\n      dup4\n        /* \"--CODEGEN--\":360:363   */\n      dup4\n        /* \"--CODEGEN--\":356:372   */\n      add\n        /* \"--CODEGEN--\":353:378   */\n      gt\n        /* \"--CODEGEN--\":350:352   */\n      iszero\n      tag_237\n      jumpi\n        /* \"--CODEGEN--\":391:392   */\n      0x00\n        /* \"--CODEGEN--\":388:389   */\n      dup1\n        /* \"--CODEGEN--\":381:393   */\n      revert\n        /* \"--CODEGEN--\":350:352   */\n    tag_237:\n        /* \"--CODEGEN--\":401:442   */\n      tag_238\n        /* \"--CODEGEN--\":435:441   */\n      dup4\n        /* \"--CODEGEN--\":430:433   */\n      dup3\n        /* \"--CODEGEN--\":425:428   */\n      dup5\n        /* \"--CODEGEN--\":401:442   */\n      jump(tag_239)\n    tag_238:\n        /* \"--CODEGEN--\":68:448   */\n      pop\n      pop\n      pop\n      swap3\n      swap2\n      pop\n      pop\n      jump\n        /* \"--CODEGEN--\":456:586   */\n    tag_240:\n      0x00\n        /* \"--CODEGEN--\":536:542   */\n      dup2\n        /* \"--CODEGEN--\":523:543   */\n      calldataload\n        /* \"--CODEGEN--\":514:543   */\n      swap1\n      pop\n        /* \"--CODEGEN--\":548:581   */\n      tag_242\n        /* \"--CODEGEN--\":575:580   */\n      dup2\n        /* \"--CODEGEN--\":548:581   */\n      jump(tag_243)\n    tag_242:\n        /* \"--CODEGEN--\":508:586   */\n      swap3\n      swap2\n      pop\n      pop\n      jump\n        /* \"--CODEGEN--\":593:719   */\n    tag_244:\n      0x00\n        /* \"--CODEGEN--\":671:677   */\n      dup2\n        /* \"--CODEGEN--\":658:678   */\n      calldataload\n        /* \"--CODEGEN--\":649:678   */\n      swap1\n      pop\n        /* \"--CODEGEN--\":683:714   */\n      tag_246\n        /* \"--CODEGEN--\":708:713   */\n      dup2\n        /* \"--CODEGEN--\":683:714   */\n      jump(tag_247)\n    tag_246:\n        /* \"--CODEGEN--\":643:719   */\n      swap3\n      swap2\n      pop\n      pop\n      jump\n        /* \"--CODEGEN--\":726:1425   */\n    tag_24:\n      0x00\n      dup1\n      0x00\n        /* \"--CODEGEN--\":882:884   */\n      0x60\n        /* \"--CODEGEN--\":870:879   */\n      dup5\n        /* \"--CODEGEN--\":861:868   */\n      dup7\n        /* \"--CODEGEN--\":857:880   */\n      sub\n        /* \"--CODEGEN--\":853:885   */\n      slt\n        /* \"--CODEGEN--\":850:852   */\n      iszero\n      tag_249\n      jumpi\n        /* \"--CODEGEN--\":898:899   */\n      0x00\n        /* \"--CODEGEN--\":895:896   */\n      dup1\n        /* \"--CODEGEN--\":888:900   */\n      revert\n        /* \"--CODEGEN--\":850:852   */\n    tag_249:\n        /* \"--CODEGEN--\":961:962   */\n      0x00\n        /* \"--CODEGEN--\":950:959   */\n      dup5\n        /* \"--CODEGEN--\":946:963   */\n      add\n        /* \"--CODEGEN--\":933:964   */\n      calldataload\n        /* \"--CODEGEN--\":984:1002   */\n      0xffffffffffffffff\n        /* \"--CODEGEN--\":976:982   */\n      dup2\n        /* \"--CODEGEN--\":973:1003   */\n      gt\n        /* \"--CODEGEN--\":970:972   */\n      iszero\n      tag_250\n      jumpi\n        /* \"--CODEGEN--\":1016:1017   */\n      0x00\n        /* \"--CODEGEN--\":1013:1014   */\n      dup1\n        /* \"--CODEGEN--\":1006:1018   */\n      revert\n        /* \"--CODEGEN--\":970:972   */\n    tag_250:\n        /* \"--CODEGEN--\":1036:1099   */\n      tag_251\n        /* \"--CODEGEN--\":1091:1098   */\n      dup7\n        /* \"--CODEGEN--\":1082:1088   */\n      dup3\n        /* \"--CODEGEN--\":1071:1080   */\n      dup8\n        /* \"--CODEGEN--\":1067:1089   */\n      add\n        /* \"--CODEGEN--\":1036:1099   */\n      jump(tag_230)\n    tag_251:\n        /* \"--CODEGEN--\":1026:1099   */\n      swap4\n      pop\n        /* \"--CODEGEN--\":912:1105   */\n      pop\n        /* \"--CODEGEN--\":1136:1138   */\n      0x20\n        /* \"--CODEGEN--\":1154:1205   */\n      tag_252\n        /* \"--CODEGEN--\":1197:1204   */\n      dup7\n        /* \"--CODEGEN--\":1188:1194   */\n      dup3\n        /* \"--CODEGEN--\":1177:1186   */\n      dup8\n        /* \"--CODEGEN--\":1173:1195   */\n      add\n        /* \"--CODEGEN--\":1154:1205   */\n      jump(tag_244)\n    tag_252:\n        /* \"--CODEGEN--\":1144:1205   */\n      swap3\n      pop\n        /* \"--CODEGEN--\":1115:1211   */\n      pop\n        /* \"--CODEGEN--\":1270:1272   */\n      0x40\n        /* \"--CODEGEN--\":1259:1268   */\n      dup5\n        /* \"--CODEGEN--\":1255:1273   */\n      add\n        /* \"--CODEGEN--\":1242:1274   */\n      calldataload\n        /* \"--CODEGEN--\":1294:1312   */\n      0xffffffffffffffff\n        /* \"--CODEGEN--\":1286:1292   */\n      dup2\n        /* \"--CODEGEN--\":1283:1313   */\n      gt\n        /* \"--CODEGEN--\":1280:1282   */\n      iszero\n      tag_253\n      jumpi\n        /* \"--CODEGEN--\":1326:1327   */\n      0x00\n        /* \"--CODEGEN--\":1323:1324   */\n      dup1\n        /* \"--CODEGEN--\":1316:1328   */\n      revert\n        /* \"--CODEGEN--\":1280:1282   */\n    tag_253:\n        /* \"--CODEGEN--\":1346:1409   */\n      tag_254\n        /* \"--CODEGEN--\":1401:1408   */\n      dup7\n        /* \"--CODEGEN--\":1392:1398   */\n      dup3\n        /* \"--CODEGEN--\":1381:1390   */\n      dup8\n        /* \"--CODEGEN--\":1377:1399   */\n      add\n        /* \"--CODEGEN--\":1346:1409   */\n      jump(tag_230)\n    tag_254:\n        /* \"--CODEGEN--\":1336:1409   */\n      swap2\n      pop\n        /* \"--CODEGEN--\":1221:1415   */\n      pop\n        /* \"--CODEGEN--\":844:1425   */\n      swap3\n      pop\n      swap3\n      pop\n      swap3\n      jump\n        /* \"--CODEGEN--\":1432:1673   */\n    tag_28:\n      0x00\n        /* \"--CODEGEN--\":1536:1538   */\n      0x20\n        /* \"--CODEGEN--\":1524:1533   */\n      dup3\n        /* \"--CODEGEN--\":1515:1522   */\n      dup5\n        /* \"--CODEGEN--\":1511:1534   */\n      sub\n        /* \"--CODEGEN--\":1507:1539   */\n      slt\n        /* \"--CODEGEN--\":1504:1506   */\n      iszero\n      tag_256\n      jumpi\n        /* \"--CODEGEN--\":1552:1553   */\n      0x00\n        /* \"--CODEGEN--\":1549:1550   */\n      dup1\n        /* \"--CODEGEN--\":1542:1554   */\n      revert\n        /* \"--CODEGEN--\":1504:1506   */\n    tag_256:\n        /* \"--CODEGEN--\":1587:1588   */\n      0x00\n        /* \"--CODEGEN--\":1604:1657   */\n      tag_257\n        /* \"--CODEGEN--\":1649:1656   */\n      dup5\n        /* \"--CODEGEN--\":1640:1646   */\n      dup3\n        /* \"--CODEGEN--\":1629:1638   */\n      dup6\n        /* \"--CODEGEN--\":1625:1647   */\n      add\n        /* \"--CODEGEN--\":1604:1657   */\n      jump(tag_240)\n    tag_257:\n        /* \"--CODEGEN--\":1594:1657   */\n      swap2\n      pop\n        /* \"--CODEGEN--\":1566:1663   */\n      pop\n        /* \"--CODEGEN--\":1498:1673   */\n      swap3\n      swap2\n      pop\n      pop\n      jump\n        /* \"--CODEGEN--\":1680:2152   */\n    tag_48:\n      0x00\n      dup1\n        /* \"--CODEGEN--\":1811:1813   */\n      0x40\n        /* \"--CODEGEN--\":1799:1808   */\n      dup4\n        /* \"--CODEGEN--\":1790:1797   */\n      dup6\n        /* \"--CODEGEN--\":1786:1809   */\n      sub\n        /* \"--CODEGEN--\":1782:1814   */\n      slt\n        /* \"--CODEGEN--\":1779:1781   */\n      iszero\n      tag_259\n      jumpi\n        /* \"--CODEGEN--\":1827:1828   */\n      0x00\n        /* \"--CODEGEN--\":1824:1825   */\n      dup1\n        /* \"--CODEGEN--\":1817:1829   */\n      revert\n        /* \"--CODEGEN--\":1779:1781   */\n    tag_259:\n        /* \"--CODEGEN--\":1862:1863   */\n      0x00\n        /* \"--CODEGEN--\":1879:1932   */\n      tag_260\n        /* \"--CODEGEN--\":1924:1931   */\n      dup6\n        /* \"--CODEGEN--\":1915:1921   */\n      dup3\n        /* \"--CODEGEN--\":1904:1913   */\n      dup7\n        /* \"--CODEGEN--\":1900:1922   */\n      add\n        /* \"--CODEGEN--\":1879:1932   */\n      jump(tag_240)\n    tag_260:\n        /* \"--CODEGEN--\":1869:1932   */\n      swap3\n      pop\n        /* \"--CODEGEN--\":1841:1938   */\n      pop\n        /* \"--CODEGEN--\":1997:1999   */\n      0x20\n        /* \"--CODEGEN--\":1986:1995   */\n      dup4\n        /* \"--CODEGEN--\":1982:2000   */\n      add\n        /* \"--CODEGEN--\":1969:2001   */\n      calldataload\n        /* \"--CODEGEN--\":2021:2039   */\n      0xffffffffffffffff\n        /* \"--CODEGEN--\":2013:2019   */\n      dup2\n        /* \"--CODEGEN--\":2010:2040   */\n      gt\n        /* \"--CODEGEN--\":2007:2009   */\n      iszero\n      tag_261\n      jumpi\n        /* \"--CODEGEN--\":2053:2054   */\n      0x00\n        /* \"--CODEGEN--\":2050:2051   */\n      dup1\n        /* \"--CODEGEN--\":2043:2055   */\n      revert\n        /* \"--CODEGEN--\":2007:2009   */\n    tag_261:\n        /* \"--CODEGEN--\":2073:2136   */\n      tag_262\n        /* \"--CODEGEN--\":2128:2135   */\n      dup6\n        /* \"--CODEGEN--\":2119:2125   */\n      dup3\n        /* \"--CODEGEN--\":2108:2117   */\n      dup7\n        /* \"--CODEGEN--\":2104:2126   */\n      add\n        /* \"--CODEGEN--\":2073:2136   */\n      jump(tag_230)\n    tag_262:\n        /* \"--CODEGEN--\":2063:2136   */\n      swap2\n      pop\n        /* \"--CODEGEN--\":1948:2142   */\n      pop\n        /* \"--CODEGEN--\":1773:2152   */\n      swap3\n      pop\n      swap3\n      swap1\n      pop\n      jump\n        /* \"--CODEGEN--\":2159:2984   */\n    tag_44:\n      0x00\n      dup1\n      0x00\n      dup1\n        /* \"--CODEGEN--\":2332:2335   */\n      0x80\n        /* \"--CODEGEN--\":2320:2329   */\n      dup6\n        /* \"--CODEGEN--\":2311:2318   */\n      dup8\n        /* \"--CODEGEN--\":2307:2330   */\n      sub\n        /* \"--CODEGEN--\":2303:2336   */\n      slt\n        /* \"--CODEGEN--\":2300:2302   */\n      iszero\n      tag_264\n      jumpi\n        /* \"--CODEGEN--\":2349:2350   */\n      0x00\n        /* \"--CODEGEN--\":2346:2347   */\n      dup1\n        /* \"--CODEGEN--\":2339:2351   */\n      revert\n        /* \"--CODEGEN--\":2300:2302   */\n    tag_264:\n        /* \"--CODEGEN--\":2384:2385   */\n      0x00\n        /* \"--CODEGEN--\":2401:2454   */\n      tag_265\n        /* \"--CODEGEN--\":2446:2453   */\n      dup8\n        /* \"--CODEGEN--\":2437:2443   */\n      dup3\n        /* \"--CODEGEN--\":2426:2435   */\n      dup9\n        /* \"--CODEGEN--\":2422:2444   */\n      add\n        /* \"--CODEGEN--\":2401:2454   */\n      jump(tag_240)\n    tag_265:\n        /* \"--CODEGEN--\":2391:2454   */\n      swap5\n      pop\n        /* \"--CODEGEN--\":2363:2460   */\n      pop\n        /* \"--CODEGEN--\":2519:2521   */\n      0x20\n        /* \"--CODEGEN--\":2508:2517   */\n      dup6\n        /* \"--CODEGEN--\":2504:2522   */\n      add\n        /* \"--CODEGEN--\":2491:2523   */\n      calldataload\n        /* \"--CODEGEN--\":2543:2561   */\n      0xffffffffffffffff\n        /* \"--CODEGEN--\":2535:2541   */\n      dup2\n        /* \"--CODEGEN--\":2532:2562   */\n      gt\n        /* \"--CODEGEN--\":2529:2531   */\n      iszero\n      tag_266\n      jumpi\n        /* \"--CODEGEN--\":2575:2576   */\n      0x00\n        /* \"--CODEGEN--\":2572:2573   */\n      dup1\n        /* \"--CODEGEN--\":2565:2577   */\n      revert\n        /* \"--CODEGEN--\":2529:2531   */\n    tag_266:\n        /* \"--CODEGEN--\":2595:2658   */\n      tag_267\n        /* \"--CODEGEN--\":2650:2657   */\n      dup8\n        /* \"--CODEGEN--\":2641:2647   */\n      dup3\n        /* \"--CODEGEN--\":2630:2639   */\n      dup9\n        /* \"--CODEGEN--\":2626:2648   */\n      add\n        /* \"--CODEGEN--\":2595:2658   */\n      jump(tag_230)\n    tag_267:\n        /* \"--CODEGEN--\":2585:2658   */\n      swap4\n      pop\n        /* \"--CODEGEN--\":2470:2664   */\n      pop\n        /* \"--CODEGEN--\":2695:2697   */\n      0x40\n        /* \"--CODEGEN--\":2713:2764   */\n      tag_268\n        /* \"--CODEGEN--\":2756:2763   */\n      dup8\n        /* \"--CODEGEN--\":2747:2753   */\n      dup3\n        /* \"--CODEGEN--\":2736:2745   */\n      dup9\n        /* \"--CODEGEN--\":2732:2754   */\n      add\n        /* \"--CODEGEN--\":2713:2764   */\n      jump(tag_244)\n    tag_268:\n        /* \"--CODEGEN--\":2703:2764   */\n      swap3\n      pop\n        /* \"--CODEGEN--\":2674:2770   */\n      pop\n        /* \"--CODEGEN--\":2829:2831   */\n      0x60\n        /* \"--CODEGEN--\":2818:2827   */\n      dup6\n        /* \"--CODEGEN--\":2814:2832   */\n      add\n        /* \"--CODEGEN--\":2801:2833   */\n      calldataload\n        /* \"--CODEGEN--\":2853:2871   */\n      0xffffffffffffffff\n        /* \"--CODEGEN--\":2845:2851   */\n      dup2\n        /* \"--CODEGEN--\":2842:2872   */\n      gt\n        /* \"--CODEGEN--\":2839:2841   */\n      iszero\n      tag_269\n      jumpi\n        /* \"--CODEGEN--\":2885:2886   */\n      0x00\n        /* \"--CODEGEN--\":2882:2883   */\n      dup1\n        /* \"--CODEGEN--\":2875:2887   */\n      revert\n        /* \"--CODEGEN--\":2839:2841   */\n    tag_269:\n        /* \"--CODEGEN--\":2905:2968   */\n      tag_270\n        /* \"--CODEGEN--\":2960:2967   */\n      dup8\n        /* \"--CODEGEN--\":2951:2957   */\n      dup3\n        /* \"--CODEGEN--\":2940:2949   */\n      dup9\n        /* \"--CODEGEN--\":2936:2958   */\n      add\n        /* \"--CODEGEN--\":2905:2968   */\n      jump(tag_230)\n    tag_270:\n        /* \"--CODEGEN--\":2895:2968   */\n      swap2\n      pop\n        /* \"--CODEGEN--\":2780:2974   */\n      pop\n        /* \"--CODEGEN--\":2294:2984   */\n      swap3\n      swap6\n      swap2\n      swap5\n      pop\n      swap3\n      pop\n      jump\n        /* \"--CODEGEN--\":2992:3185   */\n    tag_271:\n      0x00\n        /* \"--CODEGEN--\":3113:3179   */\n      tag_273\n        /* \"--CODEGEN--\":3175:3178   */\n      dup4\n        /* \"--CODEGEN--\":3167:3173   */\n      dup4\n        /* \"--CODEGEN--\":3113:3179   */\n      jump(tag_274)\n    tag_273:\n        /* \"--CODEGEN--\":3099:3179   */\n      swap1\n      pop\n        /* \"--CODEGEN--\":3092:3185   */\n      swap3\n      swap2\n      pop\n      pop\n      jump\n        /* \"--CODEGEN--\":3193:3306   */\n    tag_275:\n        /* \"--CODEGEN--\":3276:3300   */\n      tag_277\n        /* \"--CODEGEN--\":3294:3299   */\n      dup2\n        /* \"--CODEGEN--\":3276:3300   */\n      jump(tag_278)\n    tag_277:\n        /* \"--CODEGEN--\":3271:3274   */\n      dup3\n        /* \"--CODEGEN--\":3264:3301   */\n      mstore\n        /* \"--CODEGEN--\":3258:3306   */\n      pop\n      pop\n      jump\n        /* \"--CODEGEN--\":3342:4270   */\n    tag_279:\n      0x00\n        /* \"--CODEGEN--\":3507:3571   */\n      tag_281\n        /* \"--CODEGEN--\":3565:3570   */\n      dup3\n        /* \"--CODEGEN--\":3507:3571   */\n      jump(tag_282)\n    tag_281:\n        /* \"--CODEGEN--\":3584:3680   */\n      tag_283\n        /* \"--CODEGEN--\":3673:3679   */\n      dup2\n        /* \"--CODEGEN--\":3668:3671   */\n      dup6\n        /* \"--CODEGEN--\":3584:3680   */\n      jump(tag_284)\n    tag_283:\n        /* \"--CODEGEN--\":3577:3680   */\n      swap4\n      pop\n        /* \"--CODEGEN--\":3703:3706   */\n      dup4\n        /* \"--CODEGEN--\":3745:3749   */\n      0x20\n        /* \"--CODEGEN--\":3737:3743   */\n      dup3\n        /* \"--CODEGEN--\":3733:3750   */\n      mul\n        /* \"--CODEGEN--\":3728:3731   */\n      dup6\n        /* \"--CODEGEN--\":3724:3751   */\n      add\n        /* \"--CODEGEN--\":3772:3838   */\n      tag_285\n        /* \"--CODEGEN--\":3832:3837   */\n      dup6\n        /* \"--CODEGEN--\":3772:3838   */\n      jump(tag_286)\n    tag_285:\n        /* \"--CODEGEN--\":3858:3865   */\n      dup1\n        /* \"--CODEGEN--\":3886:3887   */\n      0x00\n        /* \"--CODEGEN--\":3871:4231   */\n    tag_287:\n        /* \"--CODEGEN--\":3896:3902   */\n      dup6\n        /* \"--CODEGEN--\":3893:3894   */\n      dup2\n        /* \"--CODEGEN--\":3890:3903   */\n      lt\n        /* \"--CODEGEN--\":3871:4231   */\n      iszero\n      tag_289\n      jumpi\n        /* \"--CODEGEN--\":3958:3967   */\n      dup5\n        /* \"--CODEGEN--\":3952:3956   */\n      dup5\n        /* \"--CODEGEN--\":3948:3968   */\n      sub\n        /* \"--CODEGEN--\":3943:3946   */\n      dup10\n        /* \"--CODEGEN--\":3936:3969   */\n      mstore\n        /* \"--CODEGEN--\":4003:4009   */\n      dup2\n        /* \"--CODEGEN--\":3997:4010   */\n      mload\n        /* \"--CODEGEN--\":4025:4109   */\n      tag_290\n        /* \"--CODEGEN--\":4104:4108   */\n      dup6\n        /* \"--CODEGEN--\":4089:4102   */\n      dup3\n        /* \"--CODEGEN--\":4025:4109   */\n      jump(tag_271)\n    tag_290:\n        /* \"--CODEGEN--\":4017:4109   */\n      swap5\n      pop\n        /* \"--CODEGEN--\":4126:4196   */\n      tag_291\n        /* \"--CODEGEN--\":4189:4195   */\n      dup4\n        /* \"--CODEGEN--\":4126:4196   */\n      jump(tag_292)\n    tag_291:\n        /* \"--CODEGEN--\":4116:4196   */\n      swap3\n      pop\n        /* \"--CODEGEN--\":4219:4223   */\n      0x20\n        /* \"--CODEGEN--\":4214:4217   */\n      dup11\n        /* \"--CODEGEN--\":4210:4224   */\n      add\n        /* \"--CODEGEN--\":4203:4224   */\n      swap10\n      pop\n        /* \"--CODEGEN--\":3928:4231   */\n      pop\n        /* \"--CODEGEN--\":3918:3919   */\n      0x01\n        /* \"--CODEGEN--\":3915:3916   */\n      dup2\n        /* \"--CODEGEN--\":3911:3920   */\n      add\n        /* \"--CODEGEN--\":3906:3920   */\n      swap1\n      pop\n        /* \"--CODEGEN--\":3871:4231   */\n      jump(tag_287)\n    tag_289:\n        /* \"--CODEGEN--\":3875:3889   */\n      pop\n        /* \"--CODEGEN--\":4244:4248   */\n      dup3\n        /* \"--CODEGEN--\":4237:4248   */\n      swap8\n      pop\n        /* \"--CODEGEN--\":4261:4264   */\n      dup8\n        /* \"--CODEGEN--\":4254:4264   */\n      swap6\n      pop\n        /* \"--CODEGEN--\":3486:4270   */\n      pop\n      pop\n      pop\n      pop\n      pop\n      swap3\n      swap2\n      pop\n      pop\n      jump\n        /* \"--CODEGEN--\":4278:4382   */\n    tag_293:\n        /* \"--CODEGEN--\":4355:4376   */\n      tag_295\n        /* \"--CODEGEN--\":4370:4375   */\n      dup2\n        /* \"--CODEGEN--\":4355:4376   */\n      jump(tag_296)\n    tag_295:\n        /* \"--CODEGEN--\":4350:4353   */\n      dup3\n        /* \"--CODEGEN--\":4343:4377   */\n      mstore\n        /* \"--CODEGEN--\":4337:4382   */\n      pop\n      pop\n      jump\n        /* \"--CODEGEN--\":4389:4716   */\n    tag_274:\n      0x00\n        /* \"--CODEGEN--\":4491:4530   */\n      tag_298\n        /* \"--CODEGEN--\":4524:4529   */\n      dup3\n        /* \"--CODEGEN--\":4491:4530   */\n      jump(tag_299)\n    tag_298:\n        /* \"--CODEGEN--\":4542:4603   */\n      tag_300\n        /* \"--CODEGEN--\":4596:4602   */\n      dup2\n        /* \"--CODEGEN--\":4591:4594   */\n      dup6\n        /* \"--CODEGEN--\":4542:4603   */\n      jump(tag_301)\n    tag_300:\n        /* \"--CODEGEN--\":4535:4603   */\n      swap4\n      pop\n        /* \"--CODEGEN--\":4608:4660   */\n      tag_302\n        /* \"--CODEGEN--\":4653:4659   */\n      dup2\n        /* \"--CODEGEN--\":4648:4651   */\n      dup6\n        /* \"--CODEGEN--\":4641:4645   */\n      0x20\n        /* \"--CODEGEN--\":4634:4639   */\n      dup7\n        /* \"--CODEGEN--\":4630:4646   */\n      add\n        /* \"--CODEGEN--\":4608:4660   */\n      jump(tag_303)\n    tag_302:\n        /* \"--CODEGEN--\":4681:4710   */\n      tag_304\n        /* \"--CODEGEN--\":4703:4709   */\n      dup2\n        /* \"--CODEGEN--\":4681:4710   */\n      jump(tag_305)\n    tag_304:\n        /* \"--CODEGEN--\":4676:4679   */\n      dup5\n        /* \"--CODEGEN--\":4672:4711   */\n      add\n        /* \"--CODEGEN--\":4665:4711   */\n      swap2\n      pop\n        /* \"--CODEGEN--\":4471:4716   */\n      pop\n      swap3\n      swap2\n      pop\n      pop\n      jump\n        /* \"--CODEGEN--\":4723:5070   */\n    tag_306:\n      0x00\n        /* \"--CODEGEN--\":4835:4874   */\n      tag_308\n        /* \"--CODEGEN--\":4868:4873   */\n      dup3\n        /* \"--CODEGEN--\":4835:4874   */\n      jump(tag_299)\n    tag_308:\n        /* \"--CODEGEN--\":4886:4957   */\n      tag_309\n        /* \"--CODEGEN--\":4950:4956   */\n      dup2\n        /* \"--CODEGEN--\":4945:4948   */\n      dup6\n        /* \"--CODEGEN--\":4886:4957   */\n      jump(tag_310)\n    tag_309:\n        /* \"--CODEGEN--\":4879:4957   */\n      swap4\n      pop\n        /* \"--CODEGEN--\":4962:5014   */\n      tag_311\n        /* \"--CODEGEN--\":5007:5013   */\n      dup2\n        /* \"--CODEGEN--\":5002:5005   */\n      dup6\n        /* \"--CODEGEN--\":4995:4999   */\n      0x20\n        /* \"--CODEGEN--\":4988:4993   */\n      dup7\n        /* \"--CODEGEN--\":4984:5000   */\n      add\n        /* \"--CODEGEN--\":4962:5014   */\n      jump(tag_303)\n    tag_311:\n        /* \"--CODEGEN--\":5035:5064   */\n      tag_312\n        /* \"--CODEGEN--\":5057:5063   */\n      dup2\n        /* \"--CODEGEN--\":5035:5064   */\n      jump(tag_305)\n    tag_312:\n        /* \"--CODEGEN--\":5030:5033   */\n      dup5\n        /* \"--CODEGEN--\":5026:5065   */\n      add\n        /* \"--CODEGEN--\":5019:5065   */\n      swap2\n      pop\n        /* \"--CODEGEN--\":4815:5070   */\n      pop\n      swap3\n      swap2\n      pop\n      pop\n      jump\n        /* \"--CODEGEN--\":5077:5190   */\n    tag_313:\n        /* \"--CODEGEN--\":5160:5184   */\n      tag_315\n        /* \"--CODEGEN--\":5178:5183   */\n      dup2\n        /* \"--CODEGEN--\":5160:5184   */\n      jump(tag_316)\n    tag_315:\n        /* \"--CODEGEN--\":5155:5158   */\n      dup3\n        /* \"--CODEGEN--\":5148:5185   */\n      mstore\n        /* \"--CODEGEN--\":5142:5190   */\n      pop\n      pop\n      jump\n        /* \"--CODEGEN--\":5197:5304   */\n    tag_317:\n        /* \"--CODEGEN--\":5276:5298   */\n      tag_319\n        /* \"--CODEGEN--\":5292:5297   */\n      dup2\n        /* \"--CODEGEN--\":5276:5298   */\n      jump(tag_320)\n    tag_319:\n        /* \"--CODEGEN--\":5271:5274   */\n      dup3\n        /* \"--CODEGEN--\":5264:5299   */\n      mstore\n        /* \"--CODEGEN--\":5258:5304   */\n      pop\n      pop\n      jump\n        /* \"--CODEGEN--\":5311:5524   */\n    tag_53:\n      0x00\n        /* \"--CODEGEN--\":5429:5431   */\n      0x20\n        /* \"--CODEGEN--\":5418:5427   */\n      dup3\n        /* \"--CODEGEN--\":5414:5432   */\n      add\n        /* \"--CODEGEN--\":5406:5432   */\n      swap1\n      pop\n        /* \"--CODEGEN--\":5443:5514   */\n      tag_322\n        /* \"--CODEGEN--\":5511:5512   */\n      0x00\n        /* \"--CODEGEN--\":5500:5509   */\n      dup4\n        /* \"--CODEGEN--\":5496:5513   */\n      add\n        /* \"--CODEGEN--\":5487:5493   */\n      dup5\n        /* \"--CODEGEN--\":5443:5514   */\n      jump(tag_275)\n    tag_322:\n        /* \"--CODEGEN--\":5400:5524   */\n      swap3\n      swap2\n      pop\n      pop\n      jump\n        /* \"--CODEGEN--\":5531:5932   */\n    tag_38:\n      0x00\n        /* \"--CODEGEN--\":5719:5721   */\n      0x20\n        /* \"--CODEGEN--\":5708:5717   */\n      dup3\n        /* \"--CODEGEN--\":5704:5722   */\n      add\n        /* \"--CODEGEN--\":5696:5722   */\n      swap1\n      pop\n        /* \"--CODEGEN--\":5769:5778   */\n      dup2\n        /* \"--CODEGEN--\":5763:5767   */\n      dup2\n        /* \"--CODEGEN--\":5759:5779   */\n      sub\n        /* \"--CODEGEN--\":5755:5756   */\n      0x00\n        /* \"--CODEGEN--\":5744:5753   */\n      dup4\n        /* \"--CODEGEN--\":5740:5757   */\n      add\n        /* \"--CODEGEN--\":5733:5780   */\n      mstore\n        /* \"--CODEGEN--\":5794:5922   */\n      tag_324\n        /* \"--CODEGEN--\":5917:5921   */\n      dup2\n        /* \"--CODEGEN--\":5908:5914   */\n      dup5\n        /* \"--CODEGEN--\":5794:5922   */\n      jump(tag_279)\n    tag_324:\n        /* \"--CODEGEN--\":5786:5922   */\n      swap1\n      pop\n        /* \"--CODEGEN--\":5690:5932   */\n      swap3\n      swap2\n      pop\n      pop\n      jump\n        /* \"--CODEGEN--\":5939:6140   */\n    tag_17:\n      0x00\n        /* \"--CODEGEN--\":6051:6053   */\n      0x20\n        /* \"--CODEGEN--\":6040:6049   */\n      dup3\n        /* \"--CODEGEN--\":6036:6054   */\n      add\n        /* \"--CODEGEN--\":6028:6054   */\n      swap1\n      pop\n        /* \"--CODEGEN--\":6065:6130   */\n      tag_326\n        /* \"--CODEGEN--\":6127:6128   */\n      0x00\n        /* \"--CODEGEN--\":6116:6125   */\n      dup4\n        /* \"--CODEGEN--\":6112:6129   */\n      add\n        /* \"--CODEGEN--\":6103:6109   */\n      dup5\n        /* \"--CODEGEN--\":6065:6130   */\n      jump(tag_293)\n    tag_326:\n        /* \"--CODEGEN--\":6022:6140   */\n      swap3\n      swap2\n      pop\n      pop\n      jump\n        /* \"--CODEGEN--\":6147:6862   */\n    tag_21:\n      0x00\n        /* \"--CODEGEN--\":6385:6388   */\n      0x80\n        /* \"--CODEGEN--\":6374:6383   */\n      dup3\n        /* \"--CODEGEN--\":6370:6389   */\n      add\n        /* \"--CODEGEN--\":6362:6389   */\n      swap1\n      pop\n        /* \"--CODEGEN--\":6400:6471   */\n      tag_328\n        /* \"--CODEGEN--\":6468:6469   */\n      0x00\n        /* \"--CODEGEN--\":6457:6466   */\n      dup4\n        /* \"--CODEGEN--\":6453:6470   */\n      add\n        /* \"--CODEGEN--\":6444:6450   */\n      dup8\n        /* \"--CODEGEN--\":6400:6471   */\n      jump(tag_313)\n    tag_328:\n        /* \"--CODEGEN--\":6519:6528   */\n      dup2\n        /* \"--CODEGEN--\":6513:6517   */\n      dup2\n        /* \"--CODEGEN--\":6509:6529   */\n      sub\n        /* \"--CODEGEN--\":6504:6506   */\n      0x20\n        /* \"--CODEGEN--\":6493:6502   */\n      dup4\n        /* \"--CODEGEN--\":6489:6507   */\n      add\n        /* \"--CODEGEN--\":6482:6530   */\n      mstore\n        /* \"--CODEGEN--\":6544:6622   */\n      tag_329\n        /* \"--CODEGEN--\":6617:6621   */\n      dup2\n        /* \"--CODEGEN--\":6608:6614   */\n      dup7\n        /* \"--CODEGEN--\":6544:6622   */\n      jump(tag_306)\n    tag_329:\n        /* \"--CODEGEN--\":6536:6622   */\n      swap1\n      pop\n        /* \"--CODEGEN--\":6633:6701   */\n      tag_330\n        /* \"--CODEGEN--\":6697:6699   */\n      0x40\n        /* \"--CODEGEN--\":6686:6695   */\n      dup4\n        /* \"--CODEGEN--\":6682:6700   */\n      add\n        /* \"--CODEGEN--\":6673:6679   */\n      dup6\n        /* \"--CODEGEN--\":6633:6701   */\n      jump(tag_317)\n    tag_330:\n        /* \"--CODEGEN--\":6749:6758   */\n      dup2\n        /* \"--CODEGEN--\":6743:6747   */\n      dup2\n        /* \"--CODEGEN--\":6739:6759   */\n      sub\n        /* \"--CODEGEN--\":6734:6736   */\n      0x60\n        /* \"--CODEGEN--\":6723:6732   */\n      dup4\n        /* \"--CODEGEN--\":6719:6737   */\n      add\n        /* \"--CODEGEN--\":6712:6760   */\n      mstore\n        /* \"--CODEGEN--\":6774:6852   */\n      tag_331\n        /* \"--CODEGEN--\":6847:6851   */\n      dup2\n        /* \"--CODEGEN--\":6838:6844   */\n      dup5\n        /* \"--CODEGEN--\":6774:6852   */\n      jump(tag_306)\n    tag_331:\n        /* \"--CODEGEN--\":6766:6852   */\n      swap1\n      pop\n        /* \"--CODEGEN--\":6356:6862   */\n      swap6\n      swap5\n      pop\n      pop\n      pop\n      pop\n      pop\n      jump\n        /* \"--CODEGEN--\":6869:7125   */\n    tag_236:\n      0x00\n        /* \"--CODEGEN--\":6931:6933   */\n      0x40\n        /* \"--CODEGEN--\":6925:6934   */\n      mload\n        /* \"--CODEGEN--\":6915:6934   */\n      swap1\n      pop\n        /* \"--CODEGEN--\":6969:6973   */\n      dup2\n        /* \"--CODEGEN--\":6961:6967   */\n      dup2\n        /* \"--CODEGEN--\":6957:6974   */\n      add\n        /* \"--CODEGEN--\":7068:7074   */\n      dup2\n        /* \"--CODEGEN--\":7056:7066   */\n      dup2\n        /* \"--CODEGEN--\":7053:7075   */\n      lt\n        /* \"--CODEGEN--\":7032:7050   */\n      0xffffffffffffffff\n        /* \"--CODEGEN--\":7020:7030   */\n      dup3\n        /* \"--CODEGEN--\":7017:7051   */\n      gt\n        /* \"--CODEGEN--\":7014:7076   */\n      or\n        /* \"--CODEGEN--\":7011:7013   */\n      iszero\n      tag_333\n      jumpi\n        /* \"--CODEGEN--\":7089:7090   */\n      0x00\n        /* \"--CODEGEN--\":7086:7087   */\n      dup1\n        /* \"--CODEGEN--\":7079:7091   */\n      revert\n        /* \"--CODEGEN--\":7011:7013   */\n    tag_333:\n        /* \"--CODEGEN--\":7109:7119   */\n      dup1\n        /* \"--CODEGEN--\":7105:7107   */\n      0x40\n        /* \"--CODEGEN--\":7098:7120   */\n      mstore\n        /* \"--CODEGEN--\":6909:7125   */\n      pop\n      swap2\n      swap1\n      pop\n      jump\n        /* \"--CODEGEN--\":7132:7454   */\n    tag_235:\n      0x00\n        /* \"--CODEGEN--\":7276:7294   */\n      0xffffffffffffffff\n        /* \"--CODEGEN--\":7268:7274   */\n      dup3\n        /* \"--CODEGEN--\":7265:7295   */\n      gt\n        /* \"--CODEGEN--\":7262:7264   */\n      iszero\n      tag_335\n      jumpi\n        /* \"--CODEGEN--\":7308:7309   */\n      0x00\n        /* \"--CODEGEN--\":7305:7306   */\n      dup1\n        /* \"--CODEGEN--\":7298:7310   */\n      revert\n        /* \"--CODEGEN--\":7262:7264   */\n    tag_335:\n        /* \"--CODEGEN--\":7375:7379   */\n      0x1f\n        /* \"--CODEGEN--\":7371:7380   */\n      not\n        /* \"--CODEGEN--\":7364:7368   */\n      0x1f\n        /* \"--CODEGEN--\":7356:7362   */\n      dup4\n        /* \"--CODEGEN--\":7352:7369   */\n      add\n        /* \"--CODEGEN--\":7348:7381   */\n      and\n        /* \"--CODEGEN--\":7340:7381   */\n      swap1\n      pop\n        /* \"--CODEGEN--\":7439:7443   */\n      0x20\n        /* \"--CODEGEN--\":7433:7437   */\n      dup2\n        /* \"--CODEGEN--\":7429:7444   */\n      add\n        /* \"--CODEGEN--\":7421:7444   */\n      swap1\n      pop\n        /* \"--CODEGEN--\":7199:7454   */\n      swap2\n      swap1\n      pop\n      jump\n        /* \"--CODEGEN--\":7461:7622   */\n    tag_286:\n      0x00\n        /* \"--CODEGEN--\":7557:7560   */\n      dup2\n        /* \"--CODEGEN--\":7549:7560   */\n      swap1\n      pop\n        /* \"--CODEGEN--\":7595:7599   */\n      0x20\n        /* \"--CODEGEN--\":7590:7593   */\n      dup3\n        /* \"--CODEGEN--\":7586:7600   */\n      add\n        /* \"--CODEGEN--\":7578:7600   */\n      swap1\n      pop\n        /* \"--CODEGEN--\":7543:7622   */\n      swap2\n      swap1\n      pop\n      jump\n        /* \"--CODEGEN--\":7629:7776   */\n    tag_282:\n      0x00\n        /* \"--CODEGEN--\":7748:7753   */\n      dup2\n        /* \"--CODEGEN--\":7742:7754   */\n      mload\n        /* \"--CODEGEN--\":7732:7754   */\n      swap1\n      pop\n        /* \"--CODEGEN--\":7713:7776   */\n      swap2\n      swap1\n      pop\n      jump\n        /* \"--CODEGEN--\":7783:7905   */\n    tag_299:\n      0x00\n        /* \"--CODEGEN--\":7877:7882   */\n      dup2\n        /* \"--CODEGEN--\":7871:7883   */\n      mload\n        /* \"--CODEGEN--\":7861:7883   */\n      swap1\n      pop\n        /* \"--CODEGEN--\":7842:7905   */\n      swap2\n      swap1\n      pop\n      jump\n        /* \"--CODEGEN--\":7912:8030   */\n    tag_292:\n      0x00\n        /* \"--CODEGEN--\":8020:8024   */\n      0x20\n        /* \"--CODEGEN--\":8015:8018   */\n      dup3\n        /* \"--CODEGEN--\":8011:8025   */\n      add\n        /* \"--CODEGEN--\":8003:8025   */\n      swap1\n      pop\n        /* \"--CODEGEN--\":7997:8030   */\n      swap2\n      swap1\n      pop\n      jump\n        /* \"--CODEGEN--\":8038:8226   */\n    tag_284:\n      0x00\n        /* \"--CODEGEN--\":8178:8184   */\n      dup3\n        /* \"--CODEGEN--\":8173:8176   */\n      dup3\n        /* \"--CODEGEN--\":8166:8185   */\n      mstore\n        /* \"--CODEGEN--\":8215:8219   */\n      0x20\n        /* \"--CODEGEN--\":8210:8213   */\n      dup3\n        /* \"--CODEGEN--\":8206:8220   */\n      add\n        /* \"--CODEGEN--\":8191:8220   */\n      swap1\n      pop\n        /* \"--CODEGEN--\":8159:8226   */\n      swap3\n      swap2\n      pop\n      pop\n      jump\n        /* \"--CODEGEN--\":8235:8388   */\n    tag_301:\n      0x00\n        /* \"--CODEGEN--\":8340:8346   */\n      dup3\n        /* \"--CODEGEN--\":8335:8338   */\n      dup3\n        /* \"--CODEGEN--\":8328:8347   */\n      mstore\n        /* \"--CODEGEN--\":8377:8381   */\n      0x20\n        /* \"--CODEGEN--\":8372:8375   */\n      dup3\n        /* \"--CODEGEN--\":8368:8382   */\n      add\n        /* \"--CODEGEN--\":8353:8382   */\n      swap1\n      pop\n        /* \"--CODEGEN--\":8321:8388   */\n      swap3\n      swap2\n      pop\n      pop\n      jump\n        /* \"--CODEGEN--\":8397:8560   */\n    tag_310:\n      0x00\n        /* \"--CODEGEN--\":8512:8518   */\n      dup3\n        /* \"--CODEGEN--\":8507:8510   */\n      dup3\n        /* \"--CODEGEN--\":8500:8519   */\n      mstore\n        /* \"--CODEGEN--\":8549:8553   */\n      0x20\n        /* \"--CODEGEN--\":8544:8547   */\n      dup3\n        /* \"--CODEGEN--\":8540:8554   */\n      add\n        /* \"--CODEGEN--\":8525:8554   */\n      swap1\n      pop\n        /* \"--CODEGEN--\":8493:8560   */\n      swap3\n      swap2\n      pop\n      pop\n      jump\n        /* \"--CODEGEN--\":8568:8659   */\n    tag_278:\n      0x00\n        /* \"--CODEGEN--\":8630:8654   */\n      tag_344\n        /* \"--CODEGEN--\":8648:8653   */\n      dup3\n        /* \"--CODEGEN--\":8630:8654   */\n      jump(tag_345)\n    tag_344:\n        /* \"--CODEGEN--\":8619:8654   */\n      swap1\n      pop\n        /* \"--CODEGEN--\":8613:8659   */\n      swap2\n      swap1\n      pop\n      jump\n        /* \"--CODEGEN--\":8666:8751   */\n    tag_296:\n      0x00\n        /* \"--CODEGEN--\":8739:8744   */\n      dup2\n        /* \"--CODEGEN--\":8732:8745   */\n      iszero\n        /* \"--CODEGEN--\":8725:8746   */\n      iszero\n        /* \"--CODEGEN--\":8714:8746   */\n      swap1\n      pop\n        /* \"--CODEGEN--\":8708:8751   */\n      swap2\n      swap1\n      pop\n      jump\n        /* \"--CODEGEN--\":8758:8879   */\n    tag_345:\n      0x00\n        /* \"--CODEGEN--\":8831:8873   */\n      0xffffffffffffffffffffffffffffffffffffffff\n        /* \"--CODEGEN--\":8824:8829   */\n      dup3\n        /* \"--CODEGEN--\":8820:8874   */\n      and\n        /* \"--CODEGEN--\":8809:8874   */\n      swap1\n      pop\n        /* \"--CODEGEN--\":8803:8879   */\n      swap2\n      swap1\n      pop\n      jump\n        /* \"--CODEGEN--\":8886:8958   */\n    tag_316:\n      0x00\n        /* \"--CODEGEN--\":8948:8953   */\n      dup2\n        /* \"--CODEGEN--\":8937:8953   */\n      swap1\n      pop\n        /* \"--CODEGEN--\":8931:8958   */\n      swap2\n      swap1\n      pop\n      jump\n        /* \"--CODEGEN--\":8965:9046   */\n    tag_320:\n      0x00\n        /* \"--CODEGEN--\":9036:9040   */\n      0xff\n        /* \"--CODEGEN--\":9029:9034   */\n      dup3\n        /* \"--CODEGEN--\":9025:9041   */\n      and\n        /* \"--CODEGEN--\":9014:9041   */\n      swap1\n      pop\n        /* \"--CODEGEN--\":9008:9046   */\n      swap2\n      swap1\n      pop\n      jump\n        /* \"--CODEGEN--\":9054:9199   */\n    tag_239:\n        /* \"--CODEGEN--\":9135:9141   */\n      dup3\n        /* \"--CODEGEN--\":9130:9133   */\n      dup2\n        /* \"--CODEGEN--\":9125:9128   */\n      dup4\n        /* \"--CODEGEN--\":9112:9142   */\n      calldatacopy\n        /* \"--CODEGEN--\":9191:9192   */\n      0x00\n        /* \"--CODEGEN--\":9182:9188   */\n      dup4\n        /* \"--CODEGEN--\":9177:9180   */\n      dup4\n        /* \"--CODEGEN--\":9173:9189   */\n      add\n        /* \"--CODEGEN--\":9166:9193   */\n      mstore\n        /* \"--CODEGEN--\":9105:9199   */\n      pop\n      pop\n      pop\n      jump\n        /* \"--CODEGEN--\":9208:9476   */\n    tag_303:\n        /* \"--CODEGEN--\":9273:9274   */\n      0x00\n        /* \"--CODEGEN--\":9280:9381   */\n    tag_352:\n        /* \"--CODEGEN--\":9294:9300   */\n      dup4\n        /* \"--CODEGEN--\":9291:9292   */\n      dup2\n        /* \"--CODEGEN--\":9288:9301   */\n      lt\n        /* \"--CODEGEN--\":9280:9381   */\n      iszero\n      tag_354\n      jumpi\n        /* \"--CODEGEN--\":9370:9371   */\n      dup1\n        /* \"--CODEGEN--\":9365:9368   */\n      dup3\n        /* \"--CODEGEN--\":9361:9372   */\n      add\n        /* \"--CODEGEN--\":9355:9373   */\n      mload\n        /* \"--CODEGEN--\":9351:9352   */\n      dup2\n        /* \"--CODEGEN--\":9346:9349   */\n      dup5\n        /* \"--CODEGEN--\":9342:9353   */\n      add\n        /* \"--CODEGEN--\":9335:9374   */\n      mstore\n        /* \"--CODEGEN--\":9316:9318   */\n      0x20\n        /* \"--CODEGEN--\":9313:9314   */\n      dup2\n        /* \"--CODEGEN--\":9309:9319   */\n      add\n        /* \"--CODEGEN--\":9304:9319   */\n      swap1\n      pop\n        /* \"--CODEGEN--\":9280:9381   */\n      jump(tag_352)\n    tag_354:\n        /* \"--CODEGEN--\":9396:9402   */\n      dup4\n        /* \"--CODEGEN--\":9393:9394   */\n      dup2\n        /* \"--CODEGEN--\":9390:9403   */\n      gt\n        /* \"--CODEGEN--\":9387:9389   */\n      iszero\n      tag_355\n      jumpi\n        /* \"--CODEGEN--\":9461:9462   */\n      0x00\n        /* \"--CODEGEN--\":9452:9458   */\n      dup5\n        /* \"--CODEGEN--\":9447:9450   */\n      dup5\n        /* \"--CODEGEN--\":9443:9459   */\n      add\n        /* \"--CODEGEN--\":9436:9463   */\n      mstore\n        /* \"--CODEGEN--\":9387:9389   */\n    tag_355:\n        /* \"--CODEGEN--\":9257:9476   */\n      pop\n      pop\n      pop\n      pop\n      jump\n        /* \"--CODEGEN--\":9484:9581   */\n    tag_305:\n      0x00\n        /* \"--CODEGEN--\":9572:9574   */\n      0x1f\n        /* \"--CODEGEN--\":9568:9575   */\n      not\n        /* \"--CODEGEN--\":9563:9565   */\n      0x1f\n        /* \"--CODEGEN--\":9556:9561   */\n      dup4\n        /* \"--CODEGEN--\":9552:9566   */\n      add\n        /* \"--CODEGEN--\":9548:9576   */\n      and\n        /* \"--CODEGEN--\":9538:9576   */\n      swap1\n      pop\n        /* \"--CODEGEN--\":9532:9581   */\n      swap2\n      swap1\n      pop\n      jump\n        /* \"--CODEGEN--\":9589:9706   */\n    tag_243:\n        /* \"--CODEGEN--\":9658:9682   */\n      tag_358\n        /* \"--CODEGEN--\":9676:9681   */\n      dup2\n        /* \"--CODEGEN--\":9658:9682   */\n      jump(tag_316)\n    tag_358:\n        /* \"--CODEGEN--\":9651:9656   */\n      dup2\n        /* \"--CODEGEN--\":9648:9683   */\n      eq\n        /* \"--CODEGEN--\":9638:9640   */\n      tag_359\n      jumpi\n        /* \"--CODEGEN--\":9697:9698   */\n      0x00\n        /* \"--CODEGEN--\":9694:9695   */\n      dup1\n        /* \"--CODEGEN--\":9687:9699   */\n      revert\n        /* \"--CODEGEN--\":9638:9640   */\n    tag_359:\n        /* \"--CODEGEN--\":9632:9706   */\n      pop\n      jump\n        /* \"--CODEGEN--\":9713:9826   */\n    tag_247:\n        /* \"--CODEGEN--\":9780:9802   */\n      tag_361\n        /* \"--CODEGEN--\":9796:9801   */\n      dup2\n        /* \"--CODEGEN--\":9780:9802   */\n      jump(tag_320)\n    tag_361:\n        /* \"--CODEGEN--\":9773:9778   */\n      dup2\n        /* \"--CODEGEN--\":9770:9803   */\n      eq\n        /* \"--CODEGEN--\":9760:9762   */\n      tag_362\n      jumpi\n        /* \"--CODEGEN--\":9817:9818   */\n      0x00\n        /* \"--CODEGEN--\":9814:9815   */\n      dup1\n        /* \"--CODEGEN--\":9807:9819   */\n      revert\n        /* \"--CODEGEN--\":9760:9762   */\n    tag_362:\n        /* \"--CODEGEN--\":9754:9826   */\n      pop\n      jump\n\n    auxdata: 0xa2646970667358221220d8bf4288797514c713a39ea1302af625643d4c07590bfede59af3b96093af42f64736f6c63430006060033\n}\n",
    "bytecode": {
      "linkReferences": {},
      "object": "608060405234801561001057600080fd5b50336000806101000a81548173ffffffffffffffffffffffffffffffffffffffff021916908373ffffffffffffffffffffffffffffffffffffffff16021790555060006001819055506117ee806100686000396000f3fe608060405234801561001057600080fd5b506004361061009e5760003560e01c806339472d301161006657806339472d301461014f578063bc18d2511461017f578063bdd92af91461019d578063c83e3078146101b9578063d5009584146101d55761009e565b8063063ce528146100a35780631a6c3cc7146100c15780632468b257146100e25780632f720955146100fe57806332814c0814610131575b600080fd5b6100ab6101f3565b6040516100b891906115b5565b60405180910390f35b6100c9610296565b6040516100d994939291906115d0565b60405180910390f35b6100fc60048036038101906100f791906112b2565b61054c565b005b61011860048036038101906101139190611331565b610666565b60405161012894939291906115d0565b60405180910390f35b6101396108d1565b60405161014691906115b5565b60405180910390f35b61016960048036038101906101649190611331565b610974565b6040516101769190611593565b60405180910390f35b610187610b69565b6040516101949190611593565b60405180910390f35b6101b760048036038101906101b291906113ae565b610da8565b005b6101d360048036038101906101ce919061135a565b610f42565b005b6101dd611002565b6040516101ea9190611578565b60405180910390f35b600080600090505b600380549050811015610291576003818154811061021557fe5b906000526020600020906004020160000160009054906101000a900473ffffffffffffffffffffffffffffffffffffffff1673ffffffffffffffffffffffffffffffffffffffff163373ffffffffffffffffffffffffffffffffffffffff161415610284576001915050610293565b80806001019150506101fb565b505b90565b60006060600060606102a66108d1565b6102af57600080fd5b600080905060606040518060200160405280600081525090506000809050606060405180602001604052806000815250905060008090505b600280549050811015610535576002818154811061030157fe5b906000526020600020906006020160000160009054906101000a900473ffffffffffffffffffffffffffffffffffffffff1673ffffffffffffffffffffffffffffffffffffffff163373ffffffffffffffffffffffffffffffffffffffff161415610528576002818154811061037357fe5b90600052602060002090600602016001015494506002818154811061039457fe5b90600052602060002090600602016002018054600181600116156101000203166002900480601f0160208091040260200160405190810160405280929190818152602001828054600181600116156101000203166002900480156104395780601f1061040e57610100808354040283529160200191610439565b820191906000526020600020905b81548152906001019060200180831161041c57829003601f168201915b505050505093506002818154811061044d57fe5b906000526020600020906006020160030160009054906101000a900460ff1692506002818154811061047b57fe5b90600052602060002090600602016004018054600181600116156101000203166002900480601f0160208091040260200160405190810160405280929190818152602001828054600181600116156101000203166002900480156105205780601f106104f557610100808354040283529160200191610520565b820191906000526020600020905b81548152906001019060200180831161050357829003601f168201915b505050505091505b80806001019150506102e7565b508383838397509750975097505050505090919293565b61055461102b565b60405180608001604052803373ffffffffffffffffffffffffffffffffffffffff1681526020018581526020018460ff168152602001838152509050600381908060018154018082558091505060019003906000526020600020906004020160009091909190915060008201518160000160006101000a81548173ffffffffffffffffffffffffffffffffffffffff021916908373ffffffffffffffffffffffffffffffffffffffff160217905550602082015181600101908051906020019061061f92919061106c565b5060408201518160020160006101000a81548160ff021916908360ff160217905550606082015181600301908051906020019061065d92919061106c565b50505050505050565b60006060600060606106766101f3565b61067f57600080fd5b600080905060606040518060200160405280600081525090506000809050606060405180602001604052806000815250905060008090505b6002805490508110156108b957600281815481106106d157fe5b9060005260206000209060060201600101548a14156108ac57600281815481106106f757fe5b90600052602060002090600602016001015494506002818154811061071857fe5b90600052602060002090600602016002018054600181600116156101000203166002900480601f0160208091040260200160405190810160405280929190818152602001828054600181600116156101000203166002900480156107bd5780601f10610792576101008083540402835291602001916107bd565b820191906000526020600020905b8154815290600101906020018083116107a057829003601f168201915b50505050509350600281815481106107d157fe5b906000526020600020906006020160030160009054906101000a900460ff169250600281815481106107ff57fe5b90600052602060002090600602016004018054600181600116156101000203166002900480601f0160208091040260200160405190810160405280929190818152602001828054600181600116156101000203166002900480156108a45780601f10610879576101008083540402835291602001916108a4565b820191906000526020600020905b81548152906001019060200180831161088757829003601f168201915b505050505091505b80806001019150506106b7565b50838383839750975097509750505050509193509193565b600080600090505b60028054905081101561096f57600281815481106108f357fe5b906000526020600020906006020160000160009054906101000a900473ffffffffffffffffffffffffffffffffffffffff1673ffffffffffffffffffffffffffffffffffffffff163373ffffffffffffffffffffffffffffffffffffffff161415610962576001915050610971565b80806001019150506108d9565b505b90565b606061097e6101f3565b61098757600080fd5b606060008090505b600280549050811015610b5f57600281815481106109a957fe5b906000526020600020906006020160010154841415610b5257600281815481106109cf57fe5b90600052602060002090600602016005018054905067ffffffffffffffff811180156109fa57600080fd5b50604051908082528060200260200182016040528015610a2e57816020015b6060815260200190600190039081610a195790505b50915060008090505b60028281548110610a4457fe5b906000526020600020906006020160050180549050811015610b505760028281548110610a6d57fe5b90600052602060002090600602016005018181548110610a8957fe5b906000526020600020018054600181600116156101000203166002900480601f016020809104026020016040519081016040528092919081815260200182805460018160011615610100020316600290048015610b275780601f10610afc57610100808354040283529160200191610b27565b820191906000526020600020905b815481529060010190602001808311610b0a57829003601f168201915b5050505050838281518110610b3857fe5b60200260200101819052508080600101915050610a37565b505b808060010191505061098f565b5080915050919050565b6060610b736108d1565b610b7c57600080fd5b606060008090505b600280549050811015610da05760028181548110610b9e57fe5b906000526020600020906006020160000160009054906101000a900473ffffffffffffffffffffffffffffffffffffffff1673ffffffffffffffffffffffffffffffffffffffff163373ffffffffffffffffffffffffffffffffffffffff161415610d935760028181548110610c1057fe5b90600052602060002090600602016005018054905067ffffffffffffffff81118015610c3b57600080fd5b50604051908082528060200260200182016040528015610c6f57816020015b6060815260200190600190039081610c5a5790505b50915060008090505b60028281548110610c8557fe5b906000526020600020906006020160050180549050811015610d915760028281548110610cae57fe5b90600052602060002090600602016005018181548110610cca57fe5b906000526020600020018054600181600116156101000203166002900480601f016020809104026020016040519081016040528092919081815260200182805460018160011615610100020316600290048015610d685780601f10610d3d57610100808354040283529160200191610d68565b820191906000526020600020905b815481529060010190602001808311610d4b57829003601f168201915b5050505050838281518110610d7957fe5b60200260200101819052508080600101915050610c78565b505b8080600101915050610b84565b508091505090565b610db06110ec565b6040518060c001604052803373ffffffffffffffffffffffffffffffffffffffff1681526020018681526020018581526020018460ff168152602001838152602001600067ffffffffffffffff81118015610e0a57600080fd5b50604051908082528060200260200182016040528015610e3e57816020015b6060815260200190600190039081610e295790505b508152509050600281908060018154018082558091505060019003906000526020600020906006020160009091909190915060008201518160000160006101000a81548173ffffffffffffffffffffffffffffffffffffffff021916908373ffffffffffffffffffffffffffffffffffffffff160217905550602082015181600101556040820151816002019080519060200190610edd92919061106c565b5060608201518160030160006101000a81548160ff021916908360ff1602179055506080820151816004019080519060200190610f1b92919061106c565b5060a0820151816005019080519060200190610f3892919061113b565b5050505050505050565b610f4a6101f3565b610f5357600080fd5b6000815111610f6157600080fd5b60005b600280549050811015610ffd5760028181548110610f7e57fe5b906000526020600020906006020160010154831415610ff05760028181548110610fa457fe5b906000526020600020906006020160050182908060018154018082558091505060019003906000526020600020016000909190919091509080519060200190610fee92919061106c565b505b8080600101915050610f64565b505050565b60008060009054906101000a900473ffffffffffffffffffffffffffffffffffffffff16905090565b6040518060800160405280600073ffffffffffffffffffffffffffffffffffffffff16815260200160608152602001600060ff168152602001606081525090565b828054600181600116156101000203166002900490600052602060002090601f016020900481019282601f106110ad57805160ff19168380011785556110db565b828001600101855582156110db579182015b828111156110da5782518255916020019190600101906110bf565b5b5090506110e8919061119b565b5090565b6040518060c00160405280600073ffffffffffffffffffffffffffffffffffffffff1681526020016000815260200160608152602001600060ff16815260200160608152602001606081525090565b82805482825590600052602060002090810192821561118a579160200282015b8281111561118957825182908051906020019061117992919061106c565b509160200191906001019061115b565b5b50905061119791906111c0565b5090565b6111bd91905b808211156111b95760008160009055506001016111a1565b5090565b90565b6111e991905b808211156111e557600081816111dc91906111ec565b506001016111c6565b5090565b90565b50805460018160011615610100020316600290046000825580601f106112125750611231565b601f016020900490600052602060002090810190611230919061119b565b5b50565b600082601f83011261124557600080fd5b813561125861125382611650565b611623565b9150808252602083016020830185838301111561127457600080fd5b61127f838284611737565b50505092915050565b6000813590506112978161178a565b92915050565b6000813590506112ac816117a1565b92915050565b6000806000606084860312156112c757600080fd5b600084013567ffffffffffffffff8111156112e157600080fd5b6112ed86828701611234565b93505060206112fe8682870161129d565b925050604084013567ffffffffffffffff81111561131b57600080fd5b61132786828701611234565b9150509250925092565b60006020828403121561134357600080fd5b600061135184828501611288565b91505092915050565b6000806040838503121561136d57600080fd5b600061137b85828601611288565b925050602083013567ffffffffffffffff81111561139857600080fd5b6113a485828601611234565b9150509250929050565b600080600080608085870312156113c457600080fd5b60006113d287828801611288565b945050602085013567ffffffffffffffff8111156113ef57600080fd5b6113fb87828801611234565b935050604061140c8782880161129d565b925050606085013567ffffffffffffffff81111561142957600080fd5b61143587828801611234565b91505092959194509250565b600061144d83836114e8565b905092915050565b61145e816116e2565b82525050565b600061146f8261168c565b61147981856116af565b93508360208202850161148b8561167c565b8060005b858110156114c757848403895281516114a88582611441565b94506114b3836116a2565b925060208a0199505060018101905061148f565b50829750879550505050505092915050565b6114e2816116f4565b82525050565b60006114f382611697565b6114fd81856116c0565b935061150d818560208601611746565b61151681611779565b840191505092915050565b600061152c82611697565b61153681856116d1565b9350611546818560208601611746565b61154f81611779565b840191505092915050565b61156381611720565b82525050565b6115728161172a565b82525050565b600060208201905061158d6000830184611455565b92915050565b600060208201905081810360008301526115ad8184611464565b905092915050565b60006020820190506115ca60008301846114d9565b92915050565b60006080820190506115e5600083018761155a565b81810360208301526115f78186611521565b90506116066040830185611569565b81810360608301526116188184611521565b905095945050505050565b6000604051905081810181811067ffffffffffffffff8211171561164657600080fd5b8060405250919050565b600067ffffffffffffffff82111561166757600080fd5b601f19601f8301169050602081019050919050565b6000819050602082019050919050565b600081519050919050565b600081519050919050565b6000602082019050919050565b600082825260208201905092915050565b600082825260208201905092915050565b600082825260208201905092915050565b60006116ed82611700565b9050919050565b60008115159050919050565b600073ffffffffffffffffffffffffffffffffffffffff82169050919050565b6000819050919050565b600060ff82169050919050565b82818337600083830152505050565b60005b83811015611764578082015181840152602081019050611749565b83811115611773576000848401525b50505050565b6000601f19601f8301169050919050565b61179381611720565b811461179e57600080fd5b50565b6117aa8161172a565b81146117b557600080fd5b5056fea2646970667358221220d8bf4288797514c713a39ea1302af625643d4c07590bfede59af3b96093af42f64736f6c63430006060033",
      "opcodes": "PUSH1 0x80 PUSH1 0x40 MSTORE CALLVALUE DUP1 ISZERO PUSH2 0x10 JUMPI PUSH1 0x0 DUP1 REVERT JUMPDEST POP CALLER PUSH1 0x0 DUP1 PUSH2 0x100 EXP DUP2 SLOAD DUP2 PUSH20 0xFFFFFFFFFFFFFFFFFFFFFFFFFFFFFFFFFFFFFFFF MUL NOT AND SWAP1 DUP4 PUSH20 0xFFFFFFFFFFFFFFFFFFFFFFFFFFFFFFFFFFFFFFFF AND MUL OR SWAP1 SSTORE POP PUSH1 0x0 PUSH1 0x1 DUP2 SWAP1 SSTORE POP PUSH2 0x17EE DUP1 PUSH2 0x68 PUSH1 0x0 CODECOPY PUSH1 0x0 RETURN INVALID PUSH1 0x80 PUSH1 0x40 MSTORE CALLVALUE DUP1 ISZERO PUSH2 0x10 JUMPI PUSH1 0x0 DUP1 REVERT JUMPDEST POP PUSH1 0x4 CALLDATASIZE LT PUSH2 0x9E JUMPI PUSH1 0x0 CALLDATALOAD PUSH1 0xE0 SHR DUP1 PUSH4 0x39472D30 GT PUSH2 0x66 JUMPI DUP1 PUSH4 0x39472D30 EQ PUSH2 0x14F JUMPI DUP1 PUSH4 0xBC18D251 EQ PUSH2 0x17F JUMPI DUP1 PUSH4 0xBDD92AF9 EQ PUSH2 0x19D JUMPI DUP1 PUSH4 0xC83E3078 EQ PUSH2 0x1B9 JUMPI DUP1 PUSH4 0xD5009584 EQ PUSH2 0x1D5 JUMPI PUSH2 0x9E JUMP JUMPDEST DUP1 PUSH4 0x63CE528 EQ PUSH2 0xA3 JUMPI DUP1 PUSH4 0x1A6C3CC7 EQ PUSH2 0xC1 JUMPI DUP1 PUSH4 0x2468B257 EQ PUSH2 0xE2 JUMPI DUP1 PUSH4 0x2F720955 EQ PUSH2 0xFE JUMPI DUP1 PUSH4 0x32814C08 EQ PUSH2 0x131 JUMPI JUMPDEST PUSH1 0x0 DUP1 REVERT JUMPDEST PUSH2 0xAB PUSH2 0x1F3 JUMP JUMPDEST PUSH1 0x40 MLOAD PUSH2 0xB8 SWAP2 SWAP1 PUSH2 0x15B5 JUMP JUMPDEST PUSH1 0x40 MLOAD DUP1 SWAP2 SUB SWAP1 RETURN JUMPDEST PUSH2 0xC9 PUSH2 0x296 JUMP JUMPDEST PUSH1 0x40 MLOAD PUSH2 0xD9 SWAP5 SWAP4 SWAP3 SWAP2 SWAP1 PUSH2 0x15D0 JUMP JUMPDEST PUSH1 0x40 MLOAD DUP1 SWAP2 SUB SWAP1 RETURN JUMPDEST PUSH2 0xFC PUSH1 0x4 DUP1 CALLDATASIZE SUB DUP2 ADD SWAP1 PUSH2 0xF7 SWAP2 SWAP1 PUSH2 0x12B2 JUMP JUMPDEST PUSH2 0x54C JUMP JUMPDEST STOP JUMPDEST PUSH2 0x118 PUSH1 0x4 DUP1 CALLDATASIZE SUB DUP2 ADD SWAP1 PUSH2 0x113 SWAP2 SWAP1 PUSH2 0x1331 JUMP JUMPDEST PUSH2 0x666 JUMP JUMPDEST PUSH1 0x40 MLOAD PUSH2 0x128 SWAP5 SWAP4 SWAP3 SWAP2 SWAP1 PUSH2 0x15D0 JUMP JUMPDEST PUSH1 0x40 MLOAD DUP1 SWAP2 SUB SWAP1 RETURN JUMPDEST PUSH2 0x139 PUSH2 0x8D1 JUMP JUMPDEST PUSH1 0x40 MLOAD PUSH2 0x146 SWAP2 SWAP1 PUSH2 0x15B5 JUMP JUMPDEST PUSH1 0x40 MLOAD DUP1 SWAP2 SUB SWAP1 RETURN JUMPDEST PUSH2 0x169 PUSH1 0x4 DUP1 CALLDATASIZE SUB DUP2 ADD SWAP1 PUSH2 0x164 SWAP2 SWAP1 PUSH2 0x1331 JUMP JUMPDEST PUSH2 0x974 JUMP JUMPDEST PUSH1 0x40 MLOAD PUSH2 0x176 SWAP2 SWAP1 PUSH2 0x1593 JUMP JUMPDEST PUSH1 0x40 MLOAD DUP1 SWAP2 SUB SWAP1 RETURN JUMPDEST PUSH2 0x187 PUSH2 0xB69 JUMP JUMPDEST PUSH1 0x40 MLOAD PUSH2 0x194 SWAP2 SWAP1 PUSH2 0x1593 JUMP JUMPDEST PUSH1 0x40 MLOAD DUP1 SWAP2 SUB SWAP1 RETURN JUMPDEST PUSH2 0x1B7 PUSH1 0x4 DUP1 CALLDATASIZE SUB DUP2 ADD SWAP1 PUSH2 0x1B2 SWAP2 SWAP1 PUSH2 0x13AE JUMP JUMPDEST PUSH2 0xDA8 JUMP JUMPDEST STOP JUMPDEST PUSH2 0x1D3 PUSH1 0x4 DUP1 CALLDATASIZE SUB DUP2 ADD SWAP1 PUSH2 0x1CE SWAP2 SWAP1 PUSH2 0x135A JUMP JUMPDEST PUSH2 0xF42 JUMP JUMPDEST STOP JUMPDEST PUSH2 0x1DD PUSH2 0x1002 JUMP JUMPDEST PUSH1 0x40 MLOAD PUSH2 0x1EA SWAP2 SWAP1 PUSH2 0x1578 JUMP JUMPDEST PUSH1 0x40 MLOAD DUP1 SWAP2 SUB SWAP1 RETURN JUMPDEST PUSH1 0x0 DUP1 PUSH1 0x0 SWAP1 POP JUMPDEST PUSH1 0x3 DUP1 SLOAD SWAP1 POP DUP2 LT ISZERO PUSH2 0x291 JUMPI PUSH1 0x3 DUP2 DUP2 SLOAD DUP2 LT PUSH2 0x215 JUMPI INVALID JUMPDEST SWAP1 PUSH1 0x0 MSTORE PUSH1 0x20 PUSH1 0x0 KECCAK256 SWAP1 PUSH1 0x4 MUL ADD PUSH1 0x0 ADD PUSH1 0x0 SWAP1 SLOAD SWAP1 PUSH2 0x100 EXP SWAP1 DIV PUSH20 0xFFFFFFFFFFFFFFFFFFFFFFFFFFFFFFFFFFFFFFFF AND PUSH20 0xFFFFFFFFFFFFFFFFFFFFFFFFFFFFFFFFFFFFFFFF AND CALLER PUSH20 0xFFFFFFFFFFFFFFFFFFFFFFFFFFFFFFFFFFFFFFFF AND EQ ISZERO PUSH2 0x284 JUMPI PUSH1 0x1 SWAP2 POP POP PUSH2 0x293 JUMP JUMPDEST DUP1 DUP1 PUSH1 0x1 ADD SWAP2 POP POP PUSH2 0x1FB JUMP JUMPDEST POP JUMPDEST SWAP1 JUMP JUMPDEST PUSH1 0x0 PUSH1 0x60 PUSH1 0x0 PUSH1 0x60 PUSH2 0x2A6 PUSH2 0x8D1 JUMP JUMPDEST PUSH2 0x2AF JUMPI PUSH1 0x0 DUP1 REVERT JUMPDEST PUSH1 0x0 DUP1 SWAP1 POP PUSH1 0x60 PUSH1 0x40 MLOAD DUP1 PUSH1 0x20 ADD PUSH1 0x40 MSTORE DUP1 PUSH1 0x0 DUP2 MSTORE POP SWAP1 POP PUSH1 0x0 DUP1 SWAP1 POP PUSH1 0x60 PUSH1 0x40 MLOAD DUP1 PUSH1 0x20 ADD PUSH1 0x40 MSTORE DUP1 PUSH1 0x0 DUP2 MSTORE POP SWAP1 POP PUSH1 0x0 DUP1 SWAP1 POP JUMPDEST PUSH1 0x2 DUP1 SLOAD SWAP1 POP DUP2 LT ISZERO PUSH2 0x535 JUMPI PUSH1 0x2 DUP2 DUP2 SLOAD DUP2 LT PUSH2 0x301 JUMPI INVALID JUMPDEST SWAP1 PUSH1 0x0 MSTORE PUSH1 0x20 PUSH1 0x0 KECCAK256 SWAP1 PUSH1 0x6 MUL ADD PUSH1 0x0 ADD PUSH1 0x0 SWAP1 SLOAD SWAP1 PUSH2 0x100 EXP SWAP1 DIV PUSH20 0xFFFFFFFFFFFFFFFFFFFFFFFFFFFFFFFFFFFFFFFF AND PUSH20 0xFFFFFFFFFFFFFFFFFFFFFFFFFFFFFFFFFFFFFFFF AND CALLER PUSH20 0xFFFFFFFFFFFFFFFFFFFFFFFFFFFFFFFFFFFFFFFF AND EQ ISZERO PUSH2 0x528 JUMPI PUSH1 0x2 DUP2 DUP2 SLOAD DUP2 LT PUSH2 0x373 JUMPI INVALID JUMPDEST SWAP1 PUSH1 0x0 MSTORE PUSH1 0x20 PUSH1 0x0 KECCAK256 SWAP1 PUSH1 0x6 MUL ADD PUSH1 0x1 ADD SLOAD SWAP5 POP PUSH1 0x2 DUP2 DUP2 SLOAD DUP2 LT PUSH2 0x394 JUMPI INVALID JUMPDEST SWAP1 PUSH1 0x0 MSTORE PUSH1 0x20 PUSH1 0x0 KECCAK256 SWAP1 PUSH1 0x6 MUL ADD PUSH1 0x2 ADD DUP1 SLOAD PUSH1 0x1 DUP2 PUSH1 0x1 AND ISZERO PUSH2 0x100 MUL SUB AND PUSH1 0x2 SWAP1 DIV DUP1 PUSH1 0x1F ADD PUSH1 0x20 DUP1 SWAP2 DIV MUL PUSH1 0x20 ADD PUSH1 0x40 MLOAD SWAP1 DUP2 ADD PUSH1 0x40 MSTORE DUP1 SWAP3 SWAP2 SWAP1 DUP2 DUP2 MSTORE PUSH1 0x20 ADD DUP3 DUP1 SLOAD PUSH1 0x1 DUP2 PUSH1 0x1 AND ISZERO PUSH2 0x100 MUL SUB AND PUSH1 0x2 SWAP1 DIV DUP1 ISZERO PUSH2 0x439 JUMPI DUP1 PUSH1 0x1F LT PUSH2 0x40E JUMPI PUSH2 0x100 DUP1 DUP4 SLOAD DIV MUL DUP4 MSTORE SWAP2 PUSH1 0x20 ADD SWAP2 PUSH2 0x439 JUMP JUMPDEST DUP3 ADD SWAP2 SWAP1 PUSH1 0x0 MSTORE PUSH1 0x20 PUSH1 0x0 KECCAK256 SWAP1 JUMPDEST DUP2 SLOAD DUP2 MSTORE SWAP1 PUSH1 0x1 ADD SWAP1 PUSH1 0x20 ADD DUP1 DUP4 GT PUSH2 0x41C JUMPI DUP3 SWAP1 SUB PUSH1 0x1F AND DUP3 ADD SWAP2 JUMPDEST POP POP POP POP POP SWAP4 POP PUSH1 0x2 DUP2 DUP2 SLOAD DUP2 LT PUSH2 0x44D JUMPI INVALID JUMPDEST SWAP1 PUSH1 0x0 MSTORE PUSH1 0x20 PUSH1 0x0 KECCAK256 SWAP1 PUSH1 0x6 MUL ADD PUSH1 0x3 ADD PUSH1 0x0 SWAP1 SLOAD SWAP1 PUSH2 0x100 EXP SWAP1 DIV PUSH1 0xFF AND SWAP3 POP PUSH1 0x2 DUP2 DUP2 SLOAD DUP2 LT PUSH2 0x47B JUMPI INVALID JUMPDEST SWAP1 PUSH1 0x0 MSTORE PUSH1 0x20 PUSH1 0x0 KECCAK256 SWAP1 PUSH1 0x6 MUL ADD PUSH1 0x4 ADD DUP1 SLOAD PUSH1 0x1 DUP2 PUSH1 0x1 AND ISZERO PUSH2 0x100 MUL SUB AND PUSH1 0x2 SWAP1 DIV DUP1 PUSH1 0x1F ADD PUSH1 0x20 DUP1 SWAP2 DIV MUL PUSH1 0x20 ADD PUSH1 0x40 MLOAD SWAP1 DUP2 ADD PUSH1 0x40 MSTORE DUP1 SWAP3 SWAP2 SWAP1 DUP2 DUP2 MSTORE PUSH1 0x20 ADD DUP3 DUP1 SLOAD PUSH1 0x1 DUP2 PUSH1 0x1 AND ISZERO PUSH2 0x100 MUL SUB AND PUSH1 0x2 SWAP1 DIV DUP1 ISZERO PUSH2 0x520 JUMPI DUP1 PUSH1 0x1F LT PUSH2 0x4F5 JUMPI PUSH2 0x100 DUP1 DUP4 SLOAD DIV MUL DUP4 MSTORE SWAP2 PUSH1 0x20 ADD SWAP2 PUSH2 0x520 JUMP JUMPDEST DUP3 ADD SWAP2 SWAP1 PUSH1 0x0 MSTORE PUSH1 0x20 PUSH1 0x0 KECCAK256 SWAP1 JUMPDEST DUP2 SLOAD DUP2 MSTORE SWAP1 PUSH1 0x1 ADD SWAP1 PUSH1 0x20 ADD DUP1 DUP4 GT PUSH2 0x503 JUMPI DUP3 SWAP1 SUB PUSH1 0x1F AND DUP3 ADD SWAP2 JUMPDEST POP POP POP POP POP SWAP2 POP JUMPDEST DUP1 DUP1 PUSH1 0x1 ADD SWAP2 POP POP PUSH2 0x2E7 JUMP JUMPDEST POP DUP4 DUP4 DUP4 DUP4 SWAP8 POP SWAP8 POP SWAP8 POP SWAP8 POP POP POP POP POP SWAP1 SWAP2 SWAP3 SWAP4 JUMP JUMPDEST PUSH2 0x554 PUSH2 0x102B JUMP JUMPDEST PUSH1 0x40 MLOAD DUP1 PUSH1 0x80 ADD PUSH1 0x40 MSTORE DUP1 CALLER PUSH20 0xFFFFFFFFFFFFFFFFFFFFFFFFFFFFFFFFFFFFFFFF AND DUP2 MSTORE PUSH1 0x20 ADD DUP6 DUP2 MSTORE PUSH1 0x20 ADD DUP5 PUSH1 0xFF AND DUP2 MSTORE PUSH1 0x20 ADD DUP4 DUP2 MSTORE POP SWAP1 POP PUSH1 0x3 DUP2 SWAP1 DUP1 PUSH1 0x1 DUP2 SLOAD ADD DUP1 DUP3 SSTORE DUP1 SWAP2 POP POP PUSH1 0x1 SWAP1 SUB SWAP1 PUSH1 0x0 MSTORE PUSH1 0x20 PUSH1 0x0 KECCAK256 SWAP1 PUSH1 0x4 MUL ADD PUSH1 0x0 SWAP1 SWAP2 SWAP1 SWAP2 SWAP1 SWAP2 POP PUSH1 0x0 DUP3 ADD MLOAD DUP2 PUSH1 0x0 ADD PUSH1 0x0 PUSH2 0x100 EXP DUP2 SLOAD DUP2 PUSH20 0xFFFFFFFFFFFFFFFFFFFFFFFFFFFFFFFFFFFFFFFF MUL NOT AND SWAP1 DUP4 PUSH20 0xFFFFFFFFFFFFFFFFFFFFFFFFFFFFFFFFFFFFFFFF AND MUL OR SWAP1 SSTORE POP PUSH1 0x20 DUP3 ADD MLOAD DUP2 PUSH1 0x1 ADD SWAP1 DUP1 MLOAD SWAP1 PUSH1 0x20 ADD SWAP1 PUSH2 0x61F SWAP3 SWAP2 SWAP1 PUSH2 0x106C JUMP JUMPDEST POP PUSH1 0x40 DUP3 ADD MLOAD DUP2 PUSH1 0x2 ADD PUSH1 0x0 PUSH2 0x100 EXP DUP2 SLOAD DUP2 PUSH1 0xFF MUL NOT AND SWAP1 DUP4 PUSH1 0xFF AND MUL OR SWAP1 SSTORE POP PUSH1 0x60 DUP3 ADD MLOAD DUP2 PUSH1 0x3 ADD SWAP1 DUP1 MLOAD SWAP1 PUSH1 0x20 ADD SWAP1 PUSH2 0x65D SWAP3 SWAP2 SWAP1 PUSH2 0x106C JUMP JUMPDEST POP POP POP POP POP POP POP JUMP JUMPDEST PUSH1 0x0 PUSH1 0x60 PUSH1 0x0 PUSH1 0x60 PUSH2 0x676 PUSH2 0x1F3 JUMP JUMPDEST PUSH2 0x67F JUMPI PUSH1 0x0 DUP1 REVERT JUMPDEST PUSH1 0x0 DUP1 SWAP1 POP PUSH1 0x60 PUSH1 0x40 MLOAD DUP1 PUSH1 0x20 ADD PUSH1 0x40 MSTORE DUP1 PUSH1 0x0 DUP2 MSTORE POP SWAP1 POP PUSH1 0x0 DUP1 SWAP1 POP PUSH1 0x60 PUSH1 0x40 MLOAD DUP1 PUSH1 0x20 ADD PUSH1 0x40 MSTORE DUP1 PUSH1 0x0 DUP2 MSTORE POP SWAP1 POP PUSH1 0x0 DUP1 SWAP1 POP JUMPDEST PUSH1 0x2 DUP1 SLOAD SWAP1 POP DUP2 LT ISZERO PUSH2 0x8B9 JUMPI PUSH1 0x2 DUP2 DUP2 SLOAD DUP2 LT PUSH2 0x6D1 JUMPI INVALID JUMPDEST SWAP1 PUSH1 0x0 MSTORE PUSH1 0x20 PUSH1 0x0 KECCAK256 SWAP1 PUSH1 0x6 MUL ADD PUSH1 0x1 ADD SLOAD DUP11 EQ ISZERO PUSH2 0x8AC JUMPI PUSH1 0x2 DUP2 DUP2 SLOAD DUP2 LT PUSH2 0x6F7 JUMPI INVALID JUMPDEST SWAP1 PUSH1 0x0 MSTORE PUSH1 0x20 PUSH1 0x0 KECCAK256 SWAP1 PUSH1 0x6 MUL ADD PUSH1 0x1 ADD SLOAD SWAP5 POP PUSH1 0x2 DUP2 DUP2 SLOAD DUP2 LT PUSH2 0x718 JUMPI INVALID JUMPDEST SWAP1 PUSH1 0x0 MSTORE PUSH1 0x20 PUSH1 0x0 KECCAK256 SWAP1 PUSH1 0x6 MUL ADD PUSH1 0x2 ADD DUP1 SLOAD PUSH1 0x1 DUP2 PUSH1 0x1 AND ISZERO PUSH2 0x100 MUL SUB AND PUSH1 0x2 SWAP1 DIV DUP1 PUSH1 0x1F ADD PUSH1 0x20 DUP1 SWAP2 DIV MUL PUSH1 0x20 ADD PUSH1 0x40 MLOAD SWAP1 DUP2 ADD PUSH1 0x40 MSTORE DUP1 SWAP3 SWAP2 SWAP1 DUP2 DUP2 MSTORE PUSH1 0x20 ADD DUP3 DUP1 SLOAD PUSH1 0x1 DUP2 PUSH1 0x1 AND ISZERO PUSH2 0x100 MUL SUB AND PUSH1 0x2 SWAP1 DIV DUP1 ISZERO PUSH2 0x7BD JUMPI DUP1 PUSH1 0x1F LT PUSH2 0x792 JUMPI PUSH2 0x100 DUP1 DUP4 SLOAD DIV MUL DUP4 MSTORE SWAP2 PUSH1 0x20 ADD SWAP2 PUSH2 0x7BD JUMP JUMPDEST DUP3 ADD SWAP2 SWAP1 PUSH1 0x0 MSTORE PUSH1 0x20 PUSH1 0x0 KECCAK256 SWAP1 JUMPDEST DUP2 SLOAD DUP2 MSTORE SWAP1 PUSH1 0x1 ADD SWAP1 PUSH1 0x20 ADD DUP1 DUP4 GT PUSH2 0x7A0 JUMPI DUP3 SWAP1 SUB PUSH1 0x1F AND DUP3 ADD SWAP2 JUMPDEST POP POP POP POP POP SWAP4 POP PUSH1 0x2 DUP2 DUP2 SLOAD DUP2 LT PUSH2 0x7D1 JUMPI INVALID JUMPDEST SWAP1 PUSH1 0x0 MSTORE PUSH1 0x20 PUSH1 0x0 KECCAK256 SWAP1 PUSH1 0x6 MUL ADD PUSH1 0x3 ADD PUSH1 0x0 SWAP1 SLOAD SWAP1 PUSH2 0x100 EXP SWAP1 DIV PUSH1 0xFF AND SWAP3 POP PUSH1 0x2 DUP2 DUP2 SLOAD DUP2 LT PUSH2 0x7FF JUMPI INVALID JUMPDEST SWAP1 PUSH1 0x0 MSTORE PUSH1 0x20 PUSH1 0x0 KECCAK256 SWAP1 PUSH1 0x6 MUL ADD PUSH1 0x4 ADD DUP1 SLOAD PUSH1 0x1 DUP2 PUSH1 0x1 AND ISZERO PUSH2 0x100 MUL SUB AND PUSH1 0x2 SWAP1 DIV DUP1 PUSH1 0x1F ADD PUSH1 0x20 DUP1 SWAP2 DIV MUL PUSH1 0x20 ADD PUSH1 0x40 MLOAD SWAP1 DUP2 ADD PUSH1 0x40 MSTORE DUP1 SWAP3 SWAP2 SWAP1 DUP2 DUP2 MSTORE PUSH1 0x20 ADD DUP3 DUP1 SLOAD PUSH1 0x1 DUP2 PUSH1 0x1 AND ISZERO PUSH2 0x100 MUL SUB AND PUSH1 0x2 SWAP1 DIV DUP1 ISZERO PUSH2 0x8A4 JUMPI DUP1 PUSH1 0x1F LT PUSH2 0x879 JUMPI PUSH2 0x100 DUP1 DUP4 SLOAD DIV MUL DUP4 MSTORE SWAP2 PUSH1 0x20 ADD SWAP2 PUSH2 0x8A4 JUMP JUMPDEST DUP3 ADD SWAP2 SWAP1 PUSH1 0x0 MSTORE PUSH1 0x20 PUSH1 0x0 KECCAK256 SWAP1 JUMPDEST DUP2 SLOAD DUP2 MSTORE SWAP1 PUSH1 0x1 ADD SWAP1 PUSH1 0x20 ADD DUP1 DUP4 GT PUSH2 0x887 JUMPI DUP3 SWAP1 SUB PUSH1 0x1F AND DUP3 ADD SWAP2 JUMPDEST POP POP POP POP POP SWAP2 POP JUMPDEST DUP1 DUP1 PUSH1 0x1 ADD SWAP2 POP POP PUSH2 0x6B7 JUMP JUMPDEST POP DUP4 DUP4 DUP4 DUP4 SWAP8 POP SWAP8 POP SWAP8 POP SWAP8 POP POP POP POP POP SWAP2 SWAP4 POP SWAP2 SWAP4 JUMP JUMPDEST PUSH1 0x0 DUP1 PUSH1 0x0 SWAP1 POP JUMPDEST PUSH1 0x2 DUP1 SLOAD SWAP1 POP DUP2 LT ISZERO PUSH2 0x96F JUMPI PUSH1 0x2 DUP2 DUP2 SLOAD DUP2 LT PUSH2 0x8F3 JUMPI INVALID JUMPDEST SWAP1 PUSH1 0x0 MSTORE PUSH1 0x20 PUSH1 0x0 KECCAK256 SWAP1 PUSH1 0x6 MUL ADD PUSH1 0x0 ADD PUSH1 0x0 SWAP1 SLOAD SWAP1 PUSH2 0x100 EXP SWAP1 DIV PUSH20 0xFFFFFFFFFFFFFFFFFFFFFFFFFFFFFFFFFFFFFFFF AND PUSH20 0xFFFFFFFFFFFFFFFFFFFFFFFFFFFFFFFFFFFFFFFF AND CALLER PUSH20 0xFFFFFFFFFFFFFFFFFFFFFFFFFFFFFFFFFFFFFFFF AND EQ ISZERO PUSH2 0x962 JUMPI PUSH1 0x1 SWAP2 POP POP PUSH2 0x971 JUMP JUMPDEST DUP1 DUP1 PUSH1 0x1 ADD SWAP2 POP POP PUSH2 0x8D9 JUMP JUMPDEST POP JUMPDEST SWAP1 JUMP JUMPDEST PUSH1 0x60 PUSH2 0x97E PUSH2 0x1F3 JUMP JUMPDEST PUSH2 0x987 JUMPI PUSH1 0x0 DUP1 REVERT JUMPDEST PUSH1 0x60 PUSH1 0x0 DUP1 SWAP1 POP JUMPDEST PUSH1 0x2 DUP1 SLOAD SWAP1 POP DUP2 LT ISZERO PUSH2 0xB5F JUMPI PUSH1 0x2 DUP2 DUP2 SLOAD DUP2 LT PUSH2 0x9A9 JUMPI INVALID JUMPDEST SWAP1 PUSH1 0x0 MSTORE PUSH1 0x20 PUSH1 0x0 KECCAK256 SWAP1 PUSH1 0x6 MUL ADD PUSH1 0x1 ADD SLOAD DUP5 EQ ISZERO PUSH2 0xB52 JUMPI PUSH1 0x2 DUP2 DUP2 SLOAD DUP2 LT PUSH2 0x9CF JUMPI INVALID JUMPDEST SWAP1 PUSH1 0x0 MSTORE PUSH1 0x20 PUSH1 0x0 KECCAK256 SWAP1 PUSH1 0x6 MUL ADD PUSH1 0x5 ADD DUP1 SLOAD SWAP1 POP PUSH8 0xFFFFFFFFFFFFFFFF DUP2 GT DUP1 ISZERO PUSH2 0x9FA JUMPI PUSH1 0x0 DUP1 REVERT JUMPDEST POP PUSH1 0x40 MLOAD SWAP1 DUP1 DUP3 MSTORE DUP1 PUSH1 0x20 MUL PUSH1 0x20 ADD DUP3 ADD PUSH1 0x40 MSTORE DUP1 ISZERO PUSH2 0xA2E JUMPI DUP2 PUSH1 0x20 ADD JUMPDEST PUSH1 0x60 DUP2 MSTORE PUSH1 0x20 ADD SWAP1 PUSH1 0x1 SWAP1 SUB SWAP1 DUP2 PUSH2 0xA19 JUMPI SWAP1 POP JUMPDEST POP SWAP2 POP PUSH1 0x0 DUP1 SWAP1 POP JUMPDEST PUSH1 0x2 DUP3 DUP2 SLOAD DUP2 LT PUSH2 0xA44 JUMPI INVALID JUMPDEST SWAP1 PUSH1 0x0 MSTORE PUSH1 0x20 PUSH1 0x0 KECCAK256 SWAP1 PUSH1 0x6 MUL ADD PUSH1 0x5 ADD DUP1 SLOAD SWAP1 POP DUP2 LT ISZERO PUSH2 0xB50 JUMPI PUSH1 0x2 DUP3 DUP2 SLOAD DUP2 LT PUSH2 0xA6D JUMPI INVALID JUMPDEST SWAP1 PUSH1 0x0 MSTORE PUSH1 0x20 PUSH1 0x0 KECCAK256 SWAP1 PUSH1 0x6 MUL ADD PUSH1 0x5 ADD DUP2 DUP2 SLOAD DUP2 LT PUSH2 0xA89 JUMPI INVALID JUMPDEST SWAP1 PUSH1 0x0 MSTORE PUSH1 0x20 PUSH1 0x0 KECCAK256 ADD DUP1 SLOAD PUSH1 0x1 DUP2 PUSH1 0x1 AND ISZERO PUSH2 0x100 MUL SUB AND PUSH1 0x2 SWAP1 DIV DUP1 PUSH1 0x1F ADD PUSH1 0x20 DUP1 SWAP2 DIV MUL PUSH1 0x20 ADD PUSH1 0x40 MLOAD SWAP1 DUP2 ADD PUSH1 0x40 MSTORE DUP1 SWAP3 SWAP2 SWAP1 DUP2 DUP2 MSTORE PUSH1 0x20 ADD DUP3 DUP1 SLOAD PUSH1 0x1 DUP2 PUSH1 0x1 AND ISZERO PUSH2 0x100 MUL SUB AND PUSH1 0x2 SWAP1 DIV DUP1 ISZERO PUSH2 0xB27 JUMPI DUP1 PUSH1 0x1F LT PUSH2 0xAFC JUMPI PUSH2 0x100 DUP1 DUP4 SLOAD DIV MUL DUP4 MSTORE SWAP2 PUSH1 0x20 ADD SWAP2 PUSH2 0xB27 JUMP JUMPDEST DUP3 ADD SWAP2 SWAP1 PUSH1 0x0 MSTORE PUSH1 0x20 PUSH1 0x0 KECCAK256 SWAP1 JUMPDEST DUP2 SLOAD DUP2 MSTORE SWAP1 PUSH1 0x1 ADD SWAP1 PUSH1 0x20 ADD DUP1 DUP4 GT PUSH2 0xB0A JUMPI DUP3 SWAP1 SUB PUSH1 0x1F AND DUP3 ADD SWAP2 JUMPDEST POP POP POP POP POP DUP4 DUP3 DUP2 MLOAD DUP2 LT PUSH2 0xB38 JUMPI INVALID JUMPDEST PUSH1 0x20 MUL PUSH1 0x20 ADD ADD DUP2 SWAP1 MSTORE POP DUP1 DUP1 PUSH1 0x1 ADD SWAP2 POP POP PUSH2 0xA37 JUMP JUMPDEST POP JUMPDEST DUP1 DUP1 PUSH1 0x1 ADD SWAP2 POP POP PUSH2 0x98F JUMP JUMPDEST POP DUP1 SWAP2 POP POP SWAP2 SWAP1 POP JUMP JUMPDEST PUSH1 0x60 PUSH2 0xB73 PUSH2 0x8D1 JUMP JUMPDEST PUSH2 0xB7C JUMPI PUSH1 0x0 DUP1 REVERT JUMPDEST PUSH1 0x60 PUSH1 0x0 DUP1 SWAP1 POP JUMPDEST PUSH1 0x2 DUP1 SLOAD SWAP1 POP DUP2 LT ISZERO PUSH2 0xDA0 JUMPI PUSH1 0x2 DUP2 DUP2 SLOAD DUP2 LT PUSH2 0xB9E JUMPI INVALID JUMPDEST SWAP1 PUSH1 0x0 MSTORE PUSH1 0x20 PUSH1 0x0 KECCAK256 SWAP1 PUSH1 0x6 MUL ADD PUSH1 0x0 ADD PUSH1 0x0 SWAP1 SLOAD SWAP1 PUSH2 0x100 EXP SWAP1 DIV PUSH20 0xFFFFFFFFFFFFFFFFFFFFFFFFFFFFFFFFFFFFFFFF AND PUSH20 0xFFFFFFFFFFFFFFFFFFFFFFFFFFFFFFFFFFFFFFFF AND CALLER PUSH20 0xFFFFFFFFFFFFFFFFFFFFFFFFFFFFFFFFFFFFFFFF AND EQ ISZERO PUSH2 0xD93 JUMPI PUSH1 0x2 DUP2 DUP2 SLOAD DUP2 LT PUSH2 0xC10 JUMPI INVALID JUMPDEST SWAP1 PUSH1 0x0 MSTORE PUSH1 0x20 PUSH1 0x0 KECCAK256 SWAP1 PUSH1 0x6 MUL ADD PUSH1 0x5 ADD DUP1 SLOAD SWAP1 POP PUSH8 0xFFFFFFFFFFFFFFFF DUP2 GT DUP1 ISZERO PUSH2 0xC3B JUMPI PUSH1 0x0 DUP1 REVERT JUMPDEST POP PUSH1 0x40 MLOAD SWAP1 DUP1 DUP3 MSTORE DUP1 PUSH1 0x20 MUL PUSH1 0x20 ADD DUP3 ADD PUSH1 0x40 MSTORE DUP1 ISZERO PUSH2 0xC6F JUMPI DUP2 PUSH1 0x20 ADD JUMPDEST PUSH1 0x60 DUP2 MSTORE PUSH1 0x20 ADD SWAP1 PUSH1 0x1 SWAP1 SUB SWAP1 DUP2 PUSH2 0xC5A JUMPI SWAP1 POP JUMPDEST POP SWAP2 POP PUSH1 0x0 DUP1 SWAP1 POP JUMPDEST PUSH1 0x2 DUP3 DUP2 SLOAD DUP2 LT PUSH2 0xC85 JUMPI INVALID JUMPDEST SWAP1 PUSH1 0x0 MSTORE PUSH1 0x20 PUSH1 0x0 KECCAK256 SWAP1 PUSH1 0x6 MUL ADD PUSH1 0x5 ADD DUP1 SLOAD SWAP1 POP DUP2 LT ISZERO PUSH2 0xD91 JUMPI PUSH1 0x2 DUP3 DUP2 SLOAD DUP2 LT PUSH2 0xCAE JUMPI INVALID JUMPDEST SWAP1 PUSH1 0x0 MSTORE PUSH1 0x20 PUSH1 0x0 KECCAK256 SWAP1 PUSH1 0x6 MUL ADD PUSH1 0x5 ADD DUP2 DUP2 SLOAD DUP2 LT PUSH2 0xCCA JUMPI INVALID JUMPDEST SWAP1 PUSH1 0x0 MSTORE PUSH1 0x20 PUSH1 0x0 KECCAK256 ADD DUP1 SLOAD PUSH1 0x1 DUP2 PUSH1 0x1 AND ISZERO PUSH2 0x100 MUL SUB AND PUSH1 0x2 SWAP1 DIV DUP1 PUSH1 0x1F ADD PUSH1 0x20 DUP1 SWAP2 DIV MUL PUSH1 0x20 ADD PUSH1 0x40 MLOAD SWAP1 DUP2 ADD PUSH1 0x40 MSTORE DUP1 SWAP3 SWAP2 SWAP1 DUP2 DUP2 MSTORE PUSH1 0x20 ADD DUP3 DUP1 SLOAD PUSH1 0x1 DUP2 PUSH1 0x1 AND ISZERO PUSH2 0x100 MUL SUB AND PUSH1 0x2 SWAP1 DIV DUP1 ISZERO PUSH2 0xD68 JUMPI DUP1 PUSH1 0x1F LT PUSH2 0xD3D JUMPI PUSH2 0x100 DUP1 DUP4 SLOAD DIV MUL DUP4 MSTORE SWAP2 PUSH1 0x20 ADD SWAP2 PUSH2 0xD68 JUMP JUMPDEST DUP3 ADD SWAP2 SWAP1 PUSH1 0x0 MSTORE PUSH1 0x20 PUSH1 0x0 KECCAK256 SWAP1 JUMPDEST DUP2 SLOAD DUP2 MSTORE SWAP1 PUSH1 0x1 ADD SWAP1 PUSH1 0x20 ADD DUP1 DUP4 GT PUSH2 0xD4B JUMPI DUP3 SWAP1 SUB PUSH1 0x1F AND DUP3 ADD SWAP2 JUMPDEST POP POP POP POP POP DUP4 DUP3 DUP2 MLOAD DUP2 LT PUSH2 0xD79 JUMPI INVALID JUMPDEST PUSH1 0x20 MUL PUSH1 0x20 ADD ADD DUP2 SWAP1 MSTORE POP DUP1 DUP1 PUSH1 0x1 ADD SWAP2 POP POP PUSH2 0xC78 JUMP JUMPDEST POP JUMPDEST DUP1 DUP1 PUSH1 0x1 ADD SWAP2 POP POP PUSH2 0xB84 JUMP JUMPDEST POP DUP1 SWAP2 POP POP SWAP1 JUMP JUMPDEST PUSH2 0xDB0 PUSH2 0x10EC JUMP JUMPDEST PUSH1 0x40 MLOAD DUP1 PUSH1 0xC0 ADD PUSH1 0x40 MSTORE DUP1 CALLER PUSH20 0xFFFFFFFFFFFFFFFFFFFFFFFFFFFFFFFFFFFFFFFF AND DUP2 MSTORE PUSH1 0x20 ADD DUP7 DUP2 MSTORE PUSH1 0x20 ADD DUP6 DUP2 MSTORE PUSH1 0x20 ADD DUP5 PUSH1 0xFF AND DUP2 MSTORE PUSH1 0x20 ADD DUP4 DUP2 MSTORE PUSH1 0x20 ADD PUSH1 0x0 PUSH8 0xFFFFFFFFFFFFFFFF DUP2 GT DUP1 ISZERO PUSH2 0xE0A JUMPI PUSH1 0x0 DUP1 REVERT JUMPDEST POP PUSH1 0x40 MLOAD SWAP1 DUP1 DUP3 MSTORE DUP1 PUSH1 0x20 MUL PUSH1 0x20 ADD DUP3 ADD PUSH1 0x40 MSTORE DUP1 ISZERO PUSH2 0xE3E JUMPI DUP2 PUSH1 0x20 ADD JUMPDEST PUSH1 0x60 DUP2 MSTORE PUSH1 0x20 ADD SWAP1 PUSH1 0x1 SWAP1 SUB SWAP1 DUP2 PUSH2 0xE29 JUMPI SWAP1 POP JUMPDEST POP DUP2 MSTORE POP SWAP1 POP PUSH1 0x2 DUP2 SWAP1 DUP1 PUSH1 0x1 DUP2 SLOAD ADD DUP1 DUP3 SSTORE DUP1 SWAP2 POP POP PUSH1 0x1 SWAP1 SUB SWAP1 PUSH1 0x0 MSTORE PUSH1 0x20 PUSH1 0x0 KECCAK256 SWAP1 PUSH1 0x6 MUL ADD PUSH1 0x0 SWAP1 SWAP2 SWAP1 SWAP2 SWAP1 SWAP2 POP PUSH1 0x0 DUP3 ADD MLOAD DUP2 PUSH1 0x0 ADD PUSH1 0x0 PUSH2 0x100 EXP DUP2 SLOAD DUP2 PUSH20 0xFFFFFFFFFFFFFFFFFFFFFFFFFFFFFFFFFFFFFFFF MUL NOT AND SWAP1 DUP4 PUSH20 0xFFFFFFFFFFFFFFFFFFFFFFFFFFFFFFFFFFFFFFFF AND MUL OR SWAP1 SSTORE POP PUSH1 0x20 DUP3 ADD MLOAD DUP2 PUSH1 0x1 ADD SSTORE PUSH1 0x40 DUP3 ADD MLOAD DUP2 PUSH1 0x2 ADD SWAP1 DUP1 MLOAD SWAP1 PUSH1 0x20 ADD SWAP1 PUSH2 0xEDD SWAP3 SWAP2 SWAP1 PUSH2 0x106C JUMP JUMPDEST POP PUSH1 0x60 DUP3 ADD MLOAD DUP2 PUSH1 0x3 ADD PUSH1 0x0 PUSH2 0x100 EXP DUP2 SLOAD DUP2 PUSH1 0xFF MUL NOT AND SWAP1 DUP4 PUSH1 0xFF AND MUL OR SWAP1 SSTORE POP PUSH1 0x80 DUP3 ADD MLOAD DUP2 PUSH1 0x4 ADD SWAP1 DUP1 MLOAD SWAP1 PUSH1 0x20 ADD SWAP1 PUSH2 0xF1B SWAP3 SWAP2 SWAP1 PUSH2 0x106C JUMP JUMPDEST POP PUSH1 0xA0 DUP3 ADD MLOAD DUP2 PUSH1 0x5 ADD SWAP1 DUP1 MLOAD SWAP1 PUSH1 0x20 ADD SWAP1 PUSH2 0xF38 SWAP3 SWAP2 SWAP1 PUSH2 0x113B JUMP JUMPDEST POP POP POP POP POP POP POP POP JUMP JUMPDEST PUSH2 0xF4A PUSH2 0x1F3 JUMP JUMPDEST PUSH2 0xF53 JUMPI PUSH1 0x0 DUP1 REVERT JUMPDEST PUSH1 0x0 DUP2 MLOAD GT PUSH2 0xF61 JUMPI PUSH1 0x0 DUP1 REVERT JUMPDEST PUSH1 0x0 JUMPDEST PUSH1 0x2 DUP1 SLOAD SWAP1 POP DUP2 LT ISZERO PUSH2 0xFFD JUMPI PUSH1 0x2 DUP2 DUP2 SLOAD DUP2 LT PUSH2 0xF7E JUMPI INVALID JUMPDEST SWAP1 PUSH1 0x0 MSTORE PUSH1 0x20 PUSH1 0x0 KECCAK256 SWAP1 PUSH1 0x6 MUL ADD PUSH1 0x1 ADD SLOAD DUP4 EQ ISZERO PUSH2 0xFF0 JUMPI PUSH1 0x2 DUP2 DUP2 SLOAD DUP2 LT PUSH2 0xFA4 JUMPI INVALID JUMPDEST SWAP1 PUSH1 0x0 MSTORE PUSH1 0x20 PUSH1 0x0 KECCAK256 SWAP1 PUSH1 0x6 MUL ADD PUSH1 0x5 ADD DUP3 SWAP1 DUP1 PUSH1 0x1 DUP2 SLOAD ADD DUP1 DUP3 SSTORE DUP1 SWAP2 POP POP PUSH1 0x1 SWAP1 SUB SWAP1 PUSH1 0x0 MSTORE PUSH1 0x20 PUSH1 0x0 KECCAK256 ADD PUSH1 0x0 SWAP1 SWAP2 SWAP1 SWAP2 SWAP1 SWAP2 POP SWAP1 DUP1 MLOAD SWAP1 PUSH1 0x20 ADD SWAP1 PUSH2 0xFEE SWAP3 SWAP2 SWAP1 PUSH2 0x106C JUMP JUMPDEST POP JUMPDEST DUP1 DUP1 PUSH1 0x1 ADD SWAP2 POP POP PUSH2 0xF64 JUMP JUMPDEST POP POP POP JUMP JUMPDEST PUSH1 0x0 DUP1 PUSH1 0x0 SWAP1 SLOAD SWAP1 PUSH2 0x100 EXP SWAP1 DIV PUSH20 0xFFFFFFFFFFFFFFFFFFFFFFFFFFFFFFFFFFFFFFFF AND SWAP1 POP SWAP1 JUMP JUMPDEST PUSH1 0x40 MLOAD DUP1 PUSH1 0x80 ADD PUSH1 0x40 MSTORE DUP1 PUSH1 0x0 PUSH20 0xFFFFFFFFFFFFFFFFFFFFFFFFFFFFFFFFFFFFFFFF AND DUP2 MSTORE PUSH1 0x20 ADD PUSH1 0x60 DUP2 MSTORE PUSH1 0x20 ADD PUSH1 0x0 PUSH1 0xFF AND DUP2 MSTORE PUSH1 0x20 ADD PUSH1 0x60 DUP2 MSTORE POP SWAP1 JUMP JUMPDEST DUP3 DUP1 SLOAD PUSH1 0x1 DUP2 PUSH1 0x1 AND ISZERO PUSH2 0x100 MUL SUB AND PUSH1 0x2 SWAP1 DIV SWAP1 PUSH1 0x0 MSTORE PUSH1 0x20 PUSH1 0x0 KECCAK256 SWAP1 PUSH1 0x1F ADD PUSH1 0x20 SWAP1 DIV DUP2 ADD SWAP3 DUP3 PUSH1 0x1F LT PUSH2 0x10AD JUMPI DUP1 MLOAD PUSH1 0xFF NOT AND DUP4 DUP1 ADD OR DUP6 SSTORE PUSH2 0x10DB JUMP JUMPDEST DUP3 DUP1 ADD PUSH1 0x1 ADD DUP6 SSTORE DUP3 ISZERO PUSH2 0x10DB JUMPI SWAP2 DUP3 ADD JUMPDEST DUP3 DUP2 GT ISZERO PUSH2 0x10DA JUMPI DUP3 MLOAD DUP3 SSTORE SWAP2 PUSH1 0x20 ADD SWAP2 SWAP1 PUSH1 0x1 ADD SWAP1 PUSH2 0x10BF JUMP JUMPDEST JUMPDEST POP SWAP1 POP PUSH2 0x10E8 SWAP2 SWAP1 PUSH2 0x119B JUMP JUMPDEST POP SWAP1 JUMP JUMPDEST PUSH1 0x40 MLOAD DUP1 PUSH1 0xC0 ADD PUSH1 0x40 MSTORE DUP1 PUSH1 0x0 PUSH20 0xFFFFFFFFFFFFFFFFFFFFFFFFFFFFFFFFFFFFFFFF AND DUP2 MSTORE PUSH1 0x20 ADD PUSH1 0x0 DUP2 MSTORE PUSH1 0x20 ADD PUSH1 0x60 DUP2 MSTORE PUSH1 0x20 ADD PUSH1 0x0 PUSH1 0xFF AND DUP2 MSTORE PUSH1 0x20 ADD PUSH1 0x60 DUP2 MSTORE PUSH1 0x20 ADD PUSH1 0x60 DUP2 MSTORE POP SWAP1 JUMP JUMPDEST DUP3 DUP1 SLOAD DUP3 DUP3 SSTORE SWAP1 PUSH1 0x0 MSTORE PUSH1 0x20 PUSH1 0x0 KECCAK256 SWAP1 DUP2 ADD SWAP3 DUP3 ISZERO PUSH2 0x118A JUMPI SWAP2 PUSH1 0x20 MUL DUP3 ADD JUMPDEST DUP3 DUP2 GT ISZERO PUSH2 0x1189 JUMPI DUP3 MLOAD DUP3 SWAP1 DUP1 MLOAD SWAP1 PUSH1 0x20 ADD SWAP1 PUSH2 0x1179 SWAP3 SWAP2 SWAP1 PUSH2 0x106C JUMP JUMPDEST POP SWAP2 PUSH1 0x20 ADD SWAP2 SWAP1 PUSH1 0x1 ADD SWAP1 PUSH2 0x115B JUMP JUMPDEST JUMPDEST POP SWAP1 POP PUSH2 0x1197 SWAP2 SWAP1 PUSH2 0x11C0 JUMP JUMPDEST POP SWAP1 JUMP JUMPDEST PUSH2 0x11BD SWAP2 SWAP1 JUMPDEST DUP1 DUP3 GT ISZERO PUSH2 0x11B9 JUMPI PUSH1 0x0 DUP2 PUSH1 0x0 SWAP1 SSTORE POP PUSH1 0x1 ADD PUSH2 0x11A1 JUMP JUMPDEST POP SWAP1 JUMP JUMPDEST SWAP1 JUMP JUMPDEST PUSH2 0x11E9 SWAP2 SWAP1 JUMPDEST DUP1 DUP3 GT ISZERO PUSH2 0x11E5 JUMPI PUSH1 0x0 DUP2 DUP2 PUSH2 0x11DC SWAP2 SWAP1 PUSH2 0x11EC JUMP JUMPDEST POP PUSH1 0x1 ADD PUSH2 0x11C6 JUMP JUMPDEST POP SWAP1 JUMP JUMPDEST SWAP1 JUMP JUMPDEST POP DUP1 SLOAD PUSH1 0x1 DUP2 PUSH1 0x1 AND ISZERO PUSH2 0x100 MUL SUB AND PUSH1 0x2 SWAP1 DIV PUSH1 0x0 DUP3 SSTORE DUP1 PUSH1 0x1F LT PUSH2 0x1212 JUMPI POP PUSH2 0x1231 JUMP JUMPDEST PUSH1 0x1F ADD PUSH1 0x20 SWAP1 DIV SWAP1 PUSH1 0x0 MSTORE PUSH1 0x20 PUSH1 0x0 KECCAK256 SWAP1 DUP2 ADD SWAP1 PUSH2 0x1230 SWAP2 SWAP1 PUSH2 0x119B JUMP JUMPDEST JUMPDEST POP JUMP JUMPDEST PUSH1 0x0 DUP3 PUSH1 0x1F DUP4 ADD SLT PUSH2 0x1245 JUMPI PUSH1 0x0 DUP1 REVERT JUMPDEST DUP2 CALLDATALOAD PUSH2 0x1258 PUSH2 0x1253 DUP3 PUSH2 0x1650 JUMP JUMPDEST PUSH2 0x1623 JUMP JUMPDEST SWAP2 POP DUP1 DUP3 MSTORE PUSH1 0x20 DUP4 ADD PUSH1 0x20 DUP4 ADD DUP6 DUP4 DUP4 ADD GT ISZERO PUSH2 0x1274 JUMPI PUSH1 0x0 DUP1 REVERT JUMPDEST PUSH2 0x127F DUP4 DUP3 DUP5 PUSH2 0x1737 JUMP JUMPDEST POP POP POP SWAP3 SWAP2 POP POP JUMP JUMPDEST PUSH1 0x0 DUP2 CALLDATALOAD SWAP1 POP PUSH2 0x1297 DUP2 PUSH2 0x178A JUMP JUMPDEST SWAP3 SWAP2 POP POP JUMP JUMPDEST PUSH1 0x0 DUP2 CALLDATALOAD SWAP1 POP PUSH2 0x12AC DUP2 PUSH2 0x17A1 JUMP JUMPDEST SWAP3 SWAP2 POP POP JUMP JUMPDEST PUSH1 0x0 DUP1 PUSH1 0x0 PUSH1 0x60 DUP5 DUP7 SUB SLT ISZERO PUSH2 0x12C7 JUMPI PUSH1 0x0 DUP1 REVERT JUMPDEST PUSH1 0x0 DUP5 ADD CALLDATALOAD PUSH8 0xFFFFFFFFFFFFFFFF DUP2 GT ISZERO PUSH2 0x12E1 JUMPI PUSH1 0x0 DUP1 REVERT JUMPDEST PUSH2 0x12ED DUP7 DUP3 DUP8 ADD PUSH2 0x1234 JUMP JUMPDEST SWAP4 POP POP PUSH1 0x20 PUSH2 0x12FE DUP7 DUP3 DUP8 ADD PUSH2 0x129D JUMP JUMPDEST SWAP3 POP POP PUSH1 0x40 DUP5 ADD CALLDATALOAD PUSH8 0xFFFFFFFFFFFFFFFF DUP2 GT ISZERO PUSH2 0x131B JUMPI PUSH1 0x0 DUP1 REVERT JUMPDEST PUSH2 0x1327 DUP7 DUP3 DUP8 ADD PUSH2 0x1234 JUMP JUMPDEST SWAP2 POP POP SWAP3 POP SWAP3 POP SWAP3 JUMP JUMPDEST PUSH1 0x0 PUSH1 0x20 DUP3 DUP5 SUB SLT ISZERO PUSH2 0x1343 JUMPI PUSH1 0x0 DUP1 REVERT JUMPDEST PUSH1 0x0 PUSH2 0x1351 DUP5 DUP3 DUP6 ADD PUSH2 0x1288 JUMP JUMPDEST SWAP2 POP POP SWAP3 SWAP2 POP POP JUMP JUMPDEST PUSH1 0x0 DUP1 PUSH1 0x40 DUP4 DUP6 SUB SLT ISZERO PUSH2 0x136D JUMPI PUSH1 0x0 DUP1 REVERT JUMPDEST PUSH1 0x0 PUSH2 0x137B DUP6 DUP3 DUP7 ADD PUSH2 0x1288 JUMP JUMPDEST SWAP3 POP POP PUSH1 0x20 DUP4 ADD CALLDATALOAD PUSH8 0xFFFFFFFFFFFFFFFF DUP2 GT ISZERO PUSH2 0x1398 JUMPI PUSH1 0x0 DUP1 REVERT JUMPDEST PUSH2 0x13A4 DUP6 DUP3 DUP7 ADD PUSH2 0x1234 JUMP JUMPDEST SWAP2 POP POP SWAP3 POP SWAP3 SWAP1 POP JUMP JUMPDEST PUSH1 0x0 DUP1 PUSH1 0x0 DUP1 PUSH1 0x80 DUP6 DUP8 SUB SLT ISZERO PUSH2 0x13C4 JUMPI PUSH1 0x0 DUP1 REVERT JUMPDEST PUSH1 0x0 PUSH2 0x13D2 DUP8 DUP3 DUP9 ADD PUSH2 0x1288 JUMP JUMPDEST SWAP5 POP POP PUSH1 0x20 DUP6 ADD CALLDATALOAD PUSH8 0xFFFFFFFFFFFFFFFF DUP2 GT ISZERO PUSH2 0x13EF JUMPI PUSH1 0x0 DUP1 REVERT JUMPDEST PUSH2 0x13FB DUP8 DUP3 DUP9 ADD PUSH2 0x1234 JUMP JUMPDEST SWAP4 POP POP PUSH1 0x40 PUSH2 0x140C DUP8 DUP3 DUP9 ADD PUSH2 0x129D JUMP JUMPDEST SWAP3 POP POP PUSH1 0x60 DUP6 ADD CALLDATALOAD PUSH8 0xFFFFFFFFFFFFFFFF DUP2 GT ISZERO PUSH2 0x1429 JUMPI PUSH1 0x0 DUP1 REVERT JUMPDEST PUSH2 0x1435 DUP8 DUP3 DUP9 ADD PUSH2 0x1234 JUMP JUMPDEST SWAP2 POP POP SWAP3 SWAP6 SWAP2 SWAP5 POP SWAP3 POP JUMP JUMPDEST PUSH1 0x0 PUSH2 0x144D DUP4 DUP4 PUSH2 0x14E8 JUMP JUMPDEST SWAP1 POP SWAP3 SWAP2 POP POP JUMP JUMPDEST PUSH2 0x145E DUP2 PUSH2 0x16E2 JUMP JUMPDEST DUP3 MSTORE POP POP JUMP JUMPDEST PUSH1 0x0 PUSH2 0x146F DUP3 PUSH2 0x168C JUMP JUMPDEST PUSH2 0x1479 DUP2 DUP6 PUSH2 0x16AF JUMP JUMPDEST SWAP4 POP DUP4 PUSH1 0x20 DUP3 MUL DUP6 ADD PUSH2 0x148B DUP6 PUSH2 0x167C JUMP JUMPDEST DUP1 PUSH1 0x0 JUMPDEST DUP6 DUP2 LT ISZERO PUSH2 0x14C7 JUMPI DUP5 DUP5 SUB DUP10 MSTORE DUP2 MLOAD PUSH2 0x14A8 DUP6 DUP3 PUSH2 0x1441 JUMP JUMPDEST SWAP5 POP PUSH2 0x14B3 DUP4 PUSH2 0x16A2 JUMP JUMPDEST SWAP3 POP PUSH1 0x20 DUP11 ADD SWAP10 POP POP PUSH1 0x1 DUP2 ADD SWAP1 POP PUSH2 0x148F JUMP JUMPDEST POP DUP3 SWAP8 POP DUP8 SWAP6 POP POP POP POP POP POP SWAP3 SWAP2 POP POP JUMP JUMPDEST PUSH2 0x14E2 DUP2 PUSH2 0x16F4 JUMP JUMPDEST DUP3 MSTORE POP POP JUMP JUMPDEST PUSH1 0x0 PUSH2 0x14F3 DUP3 PUSH2 0x1697 JUMP JUMPDEST PUSH2 0x14FD DUP2 DUP6 PUSH2 0x16C0 JUMP JUMPDEST SWAP4 POP PUSH2 0x150D DUP2 DUP6 PUSH1 0x20 DUP7 ADD PUSH2 0x1746 JUMP JUMPDEST PUSH2 0x1516 DUP2 PUSH2 0x1779 JUMP JUMPDEST DUP5 ADD SWAP2 POP POP SWAP3 SWAP2 POP POP JUMP JUMPDEST PUSH1 0x0 PUSH2 0x152C DUP3 PUSH2 0x1697 JUMP JUMPDEST PUSH2 0x1536 DUP2 DUP6 PUSH2 0x16D1 JUMP JUMPDEST SWAP4 POP PUSH2 0x1546 DUP2 DUP6 PUSH1 0x20 DUP7 ADD PUSH2 0x1746 JUMP JUMPDEST PUSH2 0x154F DUP2 PUSH2 0x1779 JUMP JUMPDEST DUP5 ADD SWAP2 POP POP SWAP3 SWAP2 POP POP JUMP JUMPDEST PUSH2 0x1563 DUP2 PUSH2 0x1720 JUMP JUMPDEST DUP3 MSTORE POP POP JUMP JUMPDEST PUSH2 0x1572 DUP2 PUSH2 0x172A JUMP JUMPDEST DUP3 MSTORE POP POP JUMP JUMPDEST PUSH1 0x0 PUSH1 0x20 DUP3 ADD SWAP1 POP PUSH2 0x158D PUSH1 0x0 DUP4 ADD DUP5 PUSH2 0x1455 JUMP JUMPDEST SWAP3 SWAP2 POP POP JUMP JUMPDEST PUSH1 0x0 PUSH1 0x20 DUP3 ADD SWAP1 POP DUP2 DUP2 SUB PUSH1 0x0 DUP4 ADD MSTORE PUSH2 0x15AD DUP2 DUP5 PUSH2 0x1464 JUMP JUMPDEST SWAP1 POP SWAP3 SWAP2 POP POP JUMP JUMPDEST PUSH1 0x0 PUSH1 0x20 DUP3 ADD SWAP1 POP PUSH2 0x15CA PUSH1 0x0 DUP4 ADD DUP5 PUSH2 0x14D9 JUMP JUMPDEST SWAP3 SWAP2 POP POP JUMP JUMPDEST PUSH1 0x0 PUSH1 0x80 DUP3 ADD SWAP1 POP PUSH2 0x15E5 PUSH1 0x0 DUP4 ADD DUP8 PUSH2 0x155A JUMP JUMPDEST DUP2 DUP2 SUB PUSH1 0x20 DUP4 ADD MSTORE PUSH2 0x15F7 DUP2 DUP7 PUSH2 0x1521 JUMP JUMPDEST SWAP1 POP PUSH2 0x1606 PUSH1 0x40 DUP4 ADD DUP6 PUSH2 0x1569 JUMP JUMPDEST DUP2 DUP2 SUB PUSH1 0x60 DUP4 ADD MSTORE PUSH2 0x1618 DUP2 DUP5 PUSH2 0x1521 JUMP JUMPDEST SWAP1 POP SWAP6 SWAP5 POP POP POP POP POP JUMP JUMPDEST PUSH1 0x0 PUSH1 0x40 MLOAD SWAP1 POP DUP2 DUP2 ADD DUP2 DUP2 LT PUSH8 0xFFFFFFFFFFFFFFFF DUP3 GT OR ISZERO PUSH2 0x1646 JUMPI PUSH1 0x0 DUP1 REVERT JUMPDEST DUP1 PUSH1 0x40 MSTORE POP SWAP2 SWAP1 POP JUMP JUMPDEST PUSH1 0x0 PUSH8 0xFFFFFFFFFFFFFFFF DUP3 GT ISZERO PUSH2 0x1667 JUMPI PUSH1 0x0 DUP1 REVERT JUMPDEST PUSH1 0x1F NOT PUSH1 0x1F DUP4 ADD AND SWAP1 POP PUSH1 0x20 DUP2 ADD SWAP1 POP SWAP2 SWAP1 POP JUMP JUMPDEST PUSH1 0x0 DUP2 SWAP1 POP PUSH1 0x20 DUP3 ADD SWAP1 POP SWAP2 SWAP1 POP JUMP JUMPDEST PUSH1 0x0 DUP2 MLOAD SWAP1 POP SWAP2 SWAP1 POP JUMP JUMPDEST PUSH1 0x0 DUP2 MLOAD SWAP1 POP SWAP2 SWAP1 POP JUMP JUMPDEST PUSH1 0x0 PUSH1 0x20 DUP3 ADD SWAP1 POP SWAP2 SWAP1 POP JUMP JUMPDEST PUSH1 0x0 DUP3 DUP3 MSTORE PUSH1 0x20 DUP3 ADD SWAP1 POP SWAP3 SWAP2 POP POP JUMP JUMPDEST PUSH1 0x0 DUP3 DUP3 MSTORE PUSH1 0x20 DUP3 ADD SWAP1 POP SWAP3 SWAP2 POP POP JUMP JUMPDEST PUSH1 0x0 DUP3 DUP3 MSTORE PUSH1 0x20 DUP3 ADD SWAP1 POP SWAP3 SWAP2 POP POP JUMP JUMPDEST PUSH1 0x0 PUSH2 0x16ED DUP3 PUSH2 0x1700 JUMP JUMPDEST SWAP1 POP SWAP2 SWAP1 POP JUMP JUMPDEST PUSH1 0x0 DUP2 ISZERO ISZERO SWAP1 POP SWAP2 SWAP1 POP JUMP JUMPDEST PUSH1 0x0 PUSH20 0xFFFFFFFFFFFFFFFFFFFFFFFFFFFFFFFFFFFFFFFF DUP3 AND SWAP1 POP SWAP2 SWAP1 POP JUMP JUMPDEST PUSH1 0x0 DUP2 SWAP1 POP SWAP2 SWAP1 POP JUMP JUMPDEST PUSH1 0x0 PUSH1 0xFF DUP3 AND SWAP1 POP SWAP2 SWAP1 POP JUMP JUMPDEST DUP3 DUP2 DUP4 CALLDATACOPY PUSH1 0x0 DUP4 DUP4 ADD MSTORE POP POP POP JUMP JUMPDEST PUSH1 0x0 JUMPDEST DUP4 DUP2 LT ISZERO PUSH2 0x1764 JUMPI DUP1 DUP3 ADD MLOAD DUP2 DUP5 ADD MSTORE PUSH1 0x20 DUP2 ADD SWAP1 POP PUSH2 0x1749 JUMP JUMPDEST DUP4 DUP2 GT ISZERO PUSH2 0x1773 JUMPI PUSH1 0x0 DUP5 DUP5 ADD MSTORE JUMPDEST POP POP POP POP JUMP JUMPDEST PUSH1 0x0 PUSH1 0x1F NOT PUSH1 0x1F DUP4 ADD AND SWAP1 POP SWAP2 SWAP1 POP JUMP JUMPDEST PUSH2 0x1793 DUP2 PUSH2 0x1720 JUMP JUMPDEST DUP2 EQ PUSH2 0x179E JUMPI PUSH1 0x0 DUP1 REVERT JUMPDEST POP JUMP JUMPDEST PUSH2 0x17AA DUP2 PUSH2 0x172A JUMP JUMPDEST DUP2 EQ PUSH2 0x17B5 JUMPI PUSH1 0x0 DUP1 REVERT JUMPDEST POP JUMP INVALID LOG2 PUSH5 0x6970667358 0x22 SLT KECCAK256 0xD8 0xBF TIMESTAMP DUP9 PUSH26 0x7514C713A39EA1302AF625643D4C07590BFEDE59AF3B96093AF4 0x2F PUSH5 0x736F6C6343 STOP MOD MOD STOP CALLER "
    },
    "gasEstimates": {
      "creation": {
        "codeDepositCost": "1225200",
        "executionCost": "27155",
        "totalCost": "1252355"
      },
      "external": {
        "addPasien(uint256,string,uint8,string)": "infinite",
        "addPenyakit(uint256,string)": "infinite",
        "addTenkes(string,uint8,string)": "infinite",
        "check_pasien()": "infinite",
        "check_tenkes()": "infinite",
        "getManager()": "1310",
        "getpasien_pasien()": "infinite",
        "getpasien_tenkes(uint256)": "infinite",
        "getpenyakit_pasien()": "infinite",
        "getpenyakit_tenkes(uint256)": "infinite"
      }
    },
    "methodIdentifiers": {
      "addPasien(uint256,string,uint8,string)": "bdd92af9",
      "addPenyakit(uint256,string)": "c83e3078",
      "addTenkes(string,uint8,string)": "2468b257",
      "check_pasien()": "32814c08",
      "check_tenkes()": "063ce528",
      "getManager()": "d5009584",
      "getpasien_pasien()": "1a6c3cc7",
      "getpasien_tenkes(uint256)": "2f720955",
      "getpenyakit_pasien()": "bc18d251",
      "getpenyakit_tenkes(uint256)": "39472d30"
    }
  },
  "storageLayout": {
    "storage": [
      {
        "astId": 4,
        "contract": "Ehealth.sol:Ehealth",
        "label": "manager",
        "offset": 0,
        "slot": "0",
        "type": "t_address"
      },
      {
        "astId": 6,
        "contract": "Ehealth.sol:Ehealth",
        "label": "idCounter",
        "offset": 0,
        "slot": "1",
        "type": "t_uint256"
      },
      {
        "astId": 45,
        "contract": "Ehealth.sol:Ehealth",
        "label": "pasienList",
        "offset": 0,
        "slot": "2",
        "type": "t_array(t_struct(Pasien)33_storage)dyn_storage"
      },
      {
        "astId": 48,
        "contract": "Ehealth.sol:Ehealth",
        "label": "tenKesList",
        "offset": 0,
        "slot": "3",
        "type": "t_array(t_struct(Tenaga_Kesehatan)42_storage)dyn_storage"
      }
    ],
    "types": {
      "t_address": {
        "encoding": "inplace",
        "label": "address",
        "numberOfBytes": "20"
      },
      "t_array(t_string_storage)dyn_storage": {
        "base": "t_string_storage",
        "encoding": "dynamic_array",
        "label": "string[]",
        "numberOfBytes": "32"
      },
      "t_array(t_struct(Pasien)33_storage)dyn_storage": {
        "base": "t_struct(Pasien)33_storage",
        "encoding": "dynamic_array",
        "label": "struct Ehealth.Pasien[]",
        "numberOfBytes": "32"
      },
      "t_array(t_struct(Tenaga_Kesehatan)42_storage)dyn_storage": {
        "base": "t_struct(Tenaga_Kesehatan)42_storage",
        "encoding": "dynamic_array",
        "label": "struct Ehealth.Tenaga_Kesehatan[]",
        "numberOfBytes": "32"
      },
      "t_string_storage": {
        "encoding": "bytes",
        "label": "string",
        "numberOfBytes": "32"
      },
      "t_struct(Pasien)33_storage": {
        "encoding": "inplace",
        "label": "struct Ehealth.Pasien",
        "members": [
          {
            "astId": 21,
            "contract": "Ehealth.sol:Ehealth",
            "label": "ethaddress",
            "offset": 0,
            "slot": "0",
            "type": "t_address"
          },
          {
            "astId": 23,
            "contract": "Ehealth.sol:Ehealth",
            "label": "nik",
            "offset": 0,
            "slot": "1",
            "type": "t_uint256"
          },
          {
            "astId": 25,
            "contract": "Ehealth.sol:Ehealth",
            "label": "nama",
            "offset": 0,
            "slot": "2",
            "type": "t_string_storage"
          },
          {
            "astId": 27,
            "contract": "Ehealth.sol:Ehealth",
            "label": "umur",
            "offset": 0,
            "slot": "3",
            "type": "t_uint8"
          },
          {
            "astId": 29,
            "contract": "Ehealth.sol:Ehealth",
            "label": "alamat",
            "offset": 0,
            "slot": "4",
            "type": "t_string_storage"
          },
          {
            "astId": 32,
            "contract": "Ehealth.sol:Ehealth",
            "label": "informasi_penyakit",
            "offset": 0,
            "slot": "5",
            "type": "t_array(t_string_storage)dyn_storage"
          }
        ],
        "numberOfBytes": "192"
      },
      "t_struct(Tenaga_Kesehatan)42_storage": {
        "encoding": "inplace",
        "label": "struct Ehealth.Tenaga_Kesehatan",
        "members": [
          {
            "astId": 35,
            "contract": "Ehealth.sol:Ehealth",
            "label": "ethaddress",
            "offset": 0,
            "slot": "0",
            "type": "t_address"
          },
          {
            "astId": 37,
            "contract": "Ehealth.sol:Ehealth",
            "label": "nama",
            "offset": 0,
            "slot": "1",
            "type": "t_string_storage"
          },
          {
            "astId": 39,
            "contract": "Ehealth.sol:Ehealth",
            "label": "umur",
            "offset": 0,
            "slot": "2",
            "type": "t_uint8"
          },
          {
            "astId": 41,
            "contract": "Ehealth.sol:Ehealth",
            "label": "alamat",
            "offset": 0,
            "slot": "3",
            "type": "t_string_storage"
          }
        ],
        "numberOfBytes": "128"
      },
      "t_uint256": {
        "encoding": "inplace",
        "label": "uint256",
        "numberOfBytes": "32"
      },
      "t_uint8": {
        "encoding": "inplace",
        "label": "uint8",
        "numberOfBytes": "1"
      }
    }
  },
  "userdoc": {
    "methods": {}
  }
}