{
  "abi": [
    {
      "inputs": [],
      "stateMutability": "nonpayable",
      "type": "constructor"
    },
    {
      "inputs": [
        {
          "internalType": "string",
          "name": "_id",
          "type": "string"
        },
        {
          "internalType": "string",
          "name": "_gulaDarah",
          "type": "string"
        },
        {
          "internalType": "string",
          "name": "_tekananDarah",
          "type": "string"
        },
        {
          "internalType": "uint8",
          "name": "_bb",
          "type": "uint8"
        },
        {
          "internalType": "uint8",
          "name": "_tb",
          "type": "uint8"
        }
      ],
      "name": "addInfoKesehatan",
      "outputs": [],
      "stateMutability": "nonpayable",
      "type": "function"
    },
    {
      "inputs": [
        {
          "internalType": "string",
          "name": "_nik",
          "type": "string"
        },
        {
          "internalType": "string",
          "name": "_nama",
          "type": "string"
        },
        {
          "internalType": "uint8",
          "name": "_umur",
          "type": "uint8"
        },
        {
          "internalType": "string",
          "name": "_alamat",
          "type": "string"
        }
      ],
      "name": "addPasien",
      "outputs": [],
      "stateMutability": "nonpayable",
      "type": "function"
    },
    {
      "inputs": [
        {
          "internalType": "string",
          "name": "_id",
          "type": "string"
        },
        {
          "internalType": "string",
          "name": "_penyakit",
          "type": "string"
        }
      ],
      "name": "addPenyakit",
      "outputs": [],
      "stateMutability": "nonpayable",
      "type": "function"
    },
    {
      "inputs": [
        {
          "internalType": "address",
          "name": "_ethaddress",
          "type": "address"
        },
        {
          "internalType": "string",
          "name": "_nama",
          "type": "string"
        },
        {
          "internalType": "string",
          "name": "_idRS",
          "type": "string"
        },
        {
          "internalType": "string",
          "name": "_alamat",
          "type": "string"
        }
      ],
      "name": "addRumahSakit",
      "outputs": [],
      "stateMutability": "nonpayable",
      "type": "function"
    },
    {
      "inputs": [],
      "name": "check_rs",
      "outputs": [
        {
          "internalType": "bool",
          "name": "",
          "type": "bool"
        }
      ],
      "stateMutability": "view",
      "type": "function"
    },
    {
      "inputs": [],
      "name": "getManager",
      "outputs": [
        {
          "internalType": "address",
          "name": "",
          "type": "address"
        }
      ],
      "stateMutability": "view",
      "type": "function"
    },
    {
      "inputs": [
        {
          "internalType": "string",
          "name": "_idRS",
          "type": "string"
        }
      ],
      "name": "getinfors",
      "outputs": [
        {
          "internalType": "address",
          "name": "",
          "type": "address"
        },
        {
          "internalType": "string",
          "name": "",
          "type": "string"
        },
        {
          "internalType": "string",
          "name": "",
          "type": "string"
        },
        {
          "internalType": "string",
          "name": "",
          "type": "string"
        }
      ],
      "stateMutability": "view",
      "type": "function"
    },
    {
      "inputs": [
        {
          "internalType": "string",
          "name": "_nik",
          "type": "string"
        }
      ],
      "name": "getpasien_rs",
      "outputs": [
        {
          "internalType": "string",
          "name": "",
          "type": "string"
        },
        {
          "internalType": "string",
          "name": "",
          "type": "string"
        },
        {
          "internalType": "uint8",
          "name": "",
          "type": "uint8"
        },
        {
          "internalType": "string",
          "name": "",
          "type": "string"
        },
        {
          "internalType": "string",
          "name": "",
          "type": "string"
        },
        {
          "internalType": "string",
          "name": "",
          "type": "string"
        },
        {
          "internalType": "uint8",
          "name": "",
          "type": "uint8"
        },
        {
          "internalType": "uint8",
          "name": "",
          "type": "uint8"
        },
        {
          "internalType": "string[]",
          "name": "",
          "type": "string[]"
        }
      ],
      "stateMutability": "view",
      "type": "function"
    },
    {
      "inputs": [
        {
          "internalType": "string",
          "name": "_nik",
          "type": "string"
        }
      ],
      "name": "getpenyakit_rs",
      "outputs": [
        {
          "internalType": "string[]",
          "name": "",
          "type": "string[]"
        }
      ],
      "stateMutability": "view",
      "type": "function"
    }
  ],
  "devdoc": {
    "methods": {}
  },
  "evm": {
    "assembly": "    /* \"Ehealth.sol\":95:5196  contract Ehealth{\r... */\n  mstore(0x40, 0x80)\n    /* \"Ehealth.sol\":169:375  constructor () public {\r... */\n  callvalue\n    /* \"--CODEGEN--\":5:14   */\n  dup1\n    /* \"--CODEGEN--\":2:4   */\n  iszero\n  tag_1\n  jumpi\n    /* \"--CODEGEN--\":27:28   */\n  0x00\n    /* \"--CODEGEN--\":24:25   */\n  dup1\n    /* \"--CODEGEN--\":17:29   */\n  revert\n    /* \"--CODEGEN--\":2:4   */\ntag_1:\n    /* \"Ehealth.sol\":169:375  constructor () public {\r... */\n  pop\n    /* \"Ehealth.sol\":212:222  msg.sender */\n  caller\n    /* \"Ehealth.sol\":202:209  manager */\n  0x00\n  dup1\n    /* \"Ehealth.sol\":202:222  manager = msg.sender */\n  0x0100\n  exp\n  dup2\n  sload\n  dup2\n  0xffffffffffffffffffffffffffffffffffffffff\n  mul\n  not\n  and\n  swap1\n  dup4\n  0xffffffffffffffffffffffffffffffffffffffff\n  and\n  mul\n  or\n  swap1\n  sstore\n  pop\n    /* \"Ehealth.sol\":245:246  0 */\n  0x00\n    /* \"Ehealth.sol\":233:242  idCounter */\n  0x01\n    /* \"Ehealth.sol\":233:246  idCounter = 0 */\n  dup2\n  swap1\n  sstore\n  pop\n    /* \"Ehealth.sol\":257:367  addRumahSakit(0x8bD997ab0ABd89E9A23ff3cCCE5A71ddE6326f9A, \"Rumah Sakit Wijaya Wiyung\",\"123\",\"Wiyung Surabaya\") */\n  tag_4\n    /* \"Ehealth.sol\":271:313  0x8bD997ab0ABd89E9A23ff3cCCE5A71ddE6326f9A */\n  0x8bd997ab0abd89e9a23ff3ccce5a71dde6326f9a\n    /* \"Ehealth.sol\":257:367  addRumahSakit(0x8bD997ab0ABd89E9A23ff3cCCE5A71ddE6326f9A, \"Rumah Sakit Wijaya Wiyung\",\"123\",\"Wiyung Surabaya\") */\n  mload(0x40)\n  dup1\n  0x40\n  add\n  0x40\n  mstore\n  dup1\n  0x19\n  dup2\n  mstore\n  0x20\n  add\n  0x52756d61682053616b69742057696a61796120576979756e6700000000000000\n  dup2\n  mstore\n  pop\n  mload(0x40)\n  dup1\n  0x40\n  add\n  0x40\n  mstore\n  dup1\n  0x03\n  dup2\n  mstore\n  0x20\n  add\n  0x3132330000000000000000000000000000000000000000000000000000000000\n  dup2\n  mstore\n  pop\n  mload(0x40)\n  dup1\n  0x40\n  add\n  0x40\n  mstore\n  dup1\n  0x0f\n  dup2\n  mstore\n  0x20\n  add\n  0x576979756e672053757261626179610000000000000000000000000000000000\n  dup2\n  mstore\n  pop\n    /* \"Ehealth.sol\":257:270  addRumahSakit */\n  shl(0x20, tag_5)\n    /* \"Ehealth.sol\":257:367  addRumahSakit(0x8bD997ab0ABd89E9A23ff3cCCE5A71ddE6326f9A, \"Rumah Sakit Wijaya Wiyung\",\"123\",\"Wiyung Surabaya\") */\n  0x20\n  shr\n  jump\t// in\ntag_4:\n    /* \"Ehealth.sol\":95:5196  contract Ehealth{\r... */\n  jump(tag_6)\n    /* \"Ehealth.sol\":1478:1823  function addRumahSakit(address _ethaddress, string memory _nama, string memory _idRS, string memory _alamat) isManager public {\r... */\ntag_5:\n    /* \"Ehealth.sol\":5090:5100  msg.sender */\n  caller\n    /* \"Ehealth.sol\":5079:5100  manager == msg.sender */\n  0xffffffffffffffffffffffffffffffffffffffff\n  and\n    /* \"Ehealth.sol\":5079:5086  manager */\n  0x00\n  dup1\n  swap1\n  sload\n  swap1\n  0x0100\n  exp\n  swap1\n  div\n  0xffffffffffffffffffffffffffffffffffffffff\n  and\n    /* \"Ehealth.sol\":5079:5100  manager == msg.sender */\n  0xffffffffffffffffffffffffffffffffffffffff\n  and\n  eq\n    /* \"Ehealth.sol\":5070:5101  require (manager == msg.sender) */\n  tag_8\n  jumpi\n    /* \"--CODEGEN--\":12:13   */\n  0x00\n    /* \"--CODEGEN--\":9:10   */\n  dup1\n    /* \"--CODEGEN--\":2:14   */\n  revert\n    /* \"Ehealth.sol\":5070:5101  require (manager == msg.sender) */\ntag_8:\n    /* \"Ehealth.sol\":1615:1641  Rumah_Sakit memory newData */\n  tag_10\n  tag_11\n  jump\t// in\ntag_10:\n    /* \"Ehealth.sol\":1644:1784  Rumah_Sakit({\r... */\n  mload(0x40)\n  dup1\n  0x80\n  add\n  0x40\n  mstore\n  dup1\n    /* \"Ehealth.sol\":1682:1693  _ethaddress */\n  dup7\n    /* \"Ehealth.sol\":1644:1784  Rumah_Sakit({\r... */\n  0xffffffffffffffffffffffffffffffffffffffff\n  and\n  dup2\n  mstore\n  0x20\n  add\n    /* \"Ehealth.sol\":1713:1718  _nama */\n  dup6\n    /* \"Ehealth.sol\":1644:1784  Rumah_Sakit({\r... */\n  dup2\n  mstore\n  0x20\n  add\n    /* \"Ehealth.sol\":1738:1743  _idRS */\n  dup5\n    /* \"Ehealth.sol\":1644:1784  Rumah_Sakit({\r... */\n  dup2\n  mstore\n  0x20\n  add\n    /* \"Ehealth.sol\":1765:1772  _alamat */\n  dup4\n    /* \"Ehealth.sol\":1644:1784  Rumah_Sakit({\r... */\n  dup2\n  mstore\n  pop\n    /* \"Ehealth.sol\":1615:1784  Rumah_Sakit memory newData = Rumah_Sakit({\r... */\n  swap1\n  pop\n    /* \"Ehealth.sol\":1795:1801  rsList */\n  0x03\n    /* \"Ehealth.sol\":1807:1814  newData */\n  dup2\n    /* \"Ehealth.sol\":1795:1815  rsList.push(newData) */\n  swap1\n  dup1\n    /* \"--CODEGEN--\":39:40   */\n  0x01\n    /* \"--CODEGEN--\":33:36   */\n  dup2\n    /* \"--CODEGEN--\":27:37   */\n  sload\n    /* \"--CODEGEN--\":23:41   */\n  add\n    /* \"--CODEGEN--\":57:67   */\n  dup1\n    /* \"--CODEGEN--\":52:55   */\n  dup3\n    /* \"--CODEGEN--\":45:68   */\n  sstore\n    /* \"--CODEGEN--\":79:89   */\n  dup1\n    /* \"--CODEGEN--\":72:89   */\n  swap2\n  pop\n    /* \"--CODEGEN--\":0:93   */\n  pop\n    /* \"Ehealth.sol\":1795:1815  rsList.push(newData) */\n  0x01\n  swap1\n  sub\n  swap1\n  0x00\n  mstore\n  keccak256(0x00, 0x20)\n  swap1\n  0x04\n  mul\n  add\n  0x00\n  swap1\n  swap2\n  swap1\n  swap2\n  swap1\n  swap2\n  pop\n  0x00\n  dup3\n  add\n  mload\n  dup2\n  0x00\n  add\n  exp(0x0100, 0x00)\n  dup2\n  sload\n  dup2\n  0xffffffffffffffffffffffffffffffffffffffff\n  mul\n  not\n  and\n  swap1\n  dup4\n  0xffffffffffffffffffffffffffffffffffffffff\n  and\n  mul\n  or\n  swap1\n  sstore\n  pop\n  0x20\n  dup3\n  add\n  mload\n  dup2\n  0x01\n  add\n  swap1\n  dup1\n  mload\n  swap1\n  0x20\n  add\n  swap1\n  tag_13\n  swap3\n  swap2\n  swap1\n  tag_14\n  jump\t// in\ntag_13:\n  pop\n  0x40\n  dup3\n  add\n  mload\n  dup2\n  0x02\n  add\n  swap1\n  dup1\n  mload\n  swap1\n  0x20\n  add\n  swap1\n  tag_15\n  swap3\n  swap2\n  swap1\n  tag_14\n  jump\t// in\ntag_15:\n  pop\n  0x60\n  dup3\n  add\n  mload\n  dup2\n  0x03\n  add\n  swap1\n  dup1\n  mload\n  swap1\n  0x20\n  add\n  swap1\n  tag_16\n  swap3\n  swap2\n  swap1\n  tag_14\n  jump\t// in\ntag_16:\n  pop\n  pop\n  pop\n    /* \"Ehealth.sol\":5112:5113  _ */\n  pop\n    /* \"Ehealth.sol\":1478:1823  function addRumahSakit(address _ethaddress, string memory _nama, string memory _idRS, string memory _alamat) isManager public {\r... */\n  pop\n  pop\n  pop\n  pop\n  jump\t// out\n    /* \"Ehealth.sol\":95:5196  contract Ehealth{\r... */\ntag_11:\n  mload(0x40)\n  dup1\n  0x80\n  add\n  0x40\n  mstore\n  dup1\n  and(0xffffffffffffffffffffffffffffffffffffffff, 0x00)\n  dup2\n  mstore\n  0x20\n  add\n  0x60\n  dup2\n  mstore\n  0x20\n  add\n  0x60\n  dup2\n  mstore\n  0x20\n  add\n  0x60\n  dup2\n  mstore\n  pop\n  swap1\n  jump\t// out\ntag_14:\n  dup3\n  dup1\n  sload\n  0x01\n  dup2\n  0x01\n  and\n  iszero\n  0x0100\n  mul\n  sub\n  and\n  0x02\n  swap1\n  div\n  swap1\n  0x00\n  mstore\n  keccak256(0x00, 0x20)\n  swap1\n  0x1f\n  add\n  0x20\n  swap1\n  div\n  dup2\n  add\n  swap3\n  dup3\n  0x1f\n  lt\n  tag_18\n  jumpi\n  dup1\n  mload\n  not(0xff)\n  and\n  dup4\n  dup1\n  add\n  or\n  dup6\n  sstore\n  jump(tag_17)\ntag_18:\n  dup3\n  dup1\n  add\n  0x01\n  add\n  dup6\n  sstore\n  dup3\n  iszero\n  tag_17\n  jumpi\n  swap2\n  dup3\n  add\ntag_19:\n  dup3\n  dup2\n  gt\n  iszero\n  tag_20\n  jumpi\n  dup3\n  mload\n  dup3\n  sstore\n  swap2\n  0x20\n  add\n  swap2\n  swap1\n  0x01\n  add\n  swap1\n  jump(tag_19)\ntag_20:\ntag_17:\n  pop\n  swap1\n  pop\n  tag_21\n  swap2\n  swap1\n  tag_22\n  jump\t// in\ntag_21:\n  pop\n  swap1\n  jump\t// out\ntag_22:\n  tag_23\n  swap2\n  swap1\ntag_24:\n  dup1\n  dup3\n  gt\n  iszero\n  tag_25\n  jumpi\n  0x00\n  dup2\n  0x00\n  swap1\n  sstore\n  pop\n  0x01\n  add\n  jump(tag_24)\ntag_25:\n  pop\n  swap1\n  jump\ntag_23:\n  swap1\n  jump\t// out\ntag_6:\n  dataSize(sub_0)\n  dup1\n  dataOffset(sub_0)\n  0x00\n  codecopy\n  0x00\n  return\nstop\n\nsub_0: assembly {\n        /* \"Ehealth.sol\":95:5196  contract Ehealth{\r... */\n      mstore(0x40, 0x80)\n      callvalue\n        /* \"--CODEGEN--\":5:14   */\n      dup1\n        /* \"--CODEGEN--\":2:4   */\n      iszero\n      tag_1\n      jumpi\n        /* \"--CODEGEN--\":27:28   */\n      0x00\n        /* \"--CODEGEN--\":24:25   */\n      dup1\n        /* \"--CODEGEN--\":17:29   */\n      revert\n        /* \"--CODEGEN--\":2:4   */\n    tag_1:\n        /* \"Ehealth.sol\":95:5196  contract Ehealth{\r... */\n      pop\n      jumpi(tag_2, lt(calldatasize, 0x04))\n      shr(0xe0, calldataload(0x00))\n      dup1\n      0xa3e9b558\n      gt\n      tag_12\n      jumpi\n      dup1\n      0xa3e9b558\n      eq\n      tag_7\n      jumpi\n      dup1\n      0xa480fef3\n      eq\n      tag_8\n      jumpi\n      dup1\n      0xa61cef0c\n      eq\n      tag_9\n      jumpi\n      dup1\n      0xd5009584\n      eq\n      tag_10\n      jumpi\n      dup1\n      0xe39be646\n      eq\n      tag_11\n      jumpi\n      jump(tag_2)\n    tag_12:\n      dup1\n      0x115ada66\n      eq\n      tag_3\n      jumpi\n      dup1\n      0x2db67237\n      eq\n      tag_4\n      jumpi\n      dup1\n      0x571f2ac1\n      eq\n      tag_5\n      jumpi\n      dup1\n      0x694e54bf\n      eq\n      tag_6\n      jumpi\n    tag_2:\n        /* \"--CODEGEN--\":12:13   */\n      0x00\n        /* \"--CODEGEN--\":9:10   */\n      dup1\n        /* \"--CODEGEN--\":2:14   */\n      revert\n        /* \"Ehealth.sol\":4821:5031  function check_rs() public view returns(bool) {\r... */\n    tag_3:\n      tag_13\n      tag_14\n      jump\t// in\n    tag_13:\n      mload(0x40)\n      tag_15\n      swap2\n      swap1\n      jump(tag_16)\n    tag_15:\n      mload(0x40)\n      dup1\n      swap2\n      sub\n      swap1\n      return\n        /* \"Ehealth.sol\":3445:4056  function getpenyakit_rs(string memory _nik) isRs public view returns(string[] memory){\r... */\n    tag_4:\n      tag_17\n      0x04\n      dup1\n      calldatasize\n      sub\n      dup2\n      add\n      swap1\n      tag_18\n      swap2\n      swap1\n      jump(tag_19)\n    tag_18:\n      tag_20\n      jump\t// in\n    tag_17:\n      mload(0x40)\n      tag_21\n      swap2\n      swap1\n      jump(tag_22)\n    tag_21:\n      mload(0x40)\n      dup1\n      swap2\n      sub\n      swap1\n      return\n        /* \"Ehealth.sol\":2878:3439  function getpasien_rs(string memory _nik) isRs public view returns(string memory, string memory, uint8, string memory, string memory, string memory, uint8, uint8, string[] memory){\r... */\n    tag_5:\n      tag_23\n      0x04\n      dup1\n      calldatasize\n      sub\n      dup2\n      add\n      swap1\n      tag_24\n      swap2\n      swap1\n      jump(tag_19)\n    tag_24:\n      tag_25\n      jump\t// in\n    tag_23:\n      mload(0x40)\n      tag_26\n      swap10\n      swap9\n      swap8\n      swap7\n      swap6\n      swap5\n      swap4\n      swap3\n      swap2\n      swap1\n      jump(tag_27)\n    tag_26:\n      mload(0x40)\n      dup1\n      swap2\n      sub\n      swap1\n      return\n        /* \"Ehealth.sol\":1829:2181  function addPenyakit (string memory _id, string memory _penyakit) isRs public {\r... */\n    tag_6:\n      tag_28\n      0x04\n      dup1\n      calldatasize\n      sub\n      dup2\n      add\n      swap1\n      tag_29\n      swap2\n      swap1\n      jump(tag_30)\n    tag_29:\n      tag_31\n      jump\t// in\n    tag_28:\n      stop\n        /* \"Ehealth.sol\":1478:1823  function addRumahSakit(address _ethaddress, string memory _nama, string memory _idRS, string memory _alamat) isManager public {\r... */\n    tag_7:\n      tag_32\n      0x04\n      dup1\n      calldatasize\n      sub\n      dup2\n      add\n      swap1\n      tag_33\n      swap2\n      swap1\n      jump(tag_34)\n    tag_33:\n      tag_35\n      jump\t// in\n    tag_32:\n      stop\n        /* \"Ehealth.sol\":1017:1466  function addPasien(string memory _nik, string memory _nama, uint8 _umur, string memory _alamat) isRs public{\r... */\n    tag_8:\n      tag_36\n      0x04\n      dup1\n      calldatasize\n      sub\n      dup2\n      add\n      swap1\n      tag_37\n      swap2\n      swap1\n      jump(tag_38)\n    tag_37:\n      tag_39\n      jump\t// in\n    tag_36:\n      stop\n        /* \"Ehealth.sol\":2187:2731  function addInfoKesehatan (string memory _id, string memory _gulaDarah, string memory _tekananDarah, uint8 _bb, uint8 _tb) isRs public {\r... */\n    tag_9:\n      tag_40\n      0x04\n      dup1\n      calldatasize\n      sub\n      dup2\n      add\n      swap1\n      tag_41\n      swap2\n      swap1\n      jump(tag_42)\n    tag_41:\n      tag_43\n      jump\t// in\n    tag_40:\n      stop\n        /* \"Ehealth.sol\":846:930  function getManager() public view returns(address) {\r... */\n    tag_10:\n      tag_44\n      tag_45\n      jump\t// in\n    tag_44:\n      mload(0x40)\n      tag_46\n      swap2\n      swap1\n      jump(tag_47)\n    tag_46:\n      mload(0x40)\n      dup1\n      swap2\n      sub\n      swap1\n      return\n        /* \"Ehealth.sol\":4126:4803  function getinfors(string memory _idRS) isManager public view returns(address, string memory, string memory, string memory){\r... */\n    tag_11:\n      tag_48\n      0x04\n      dup1\n      calldatasize\n      sub\n      dup2\n      add\n      swap1\n      tag_49\n      swap2\n      swap1\n      jump(tag_19)\n    tag_49:\n      tag_50\n      jump\t// in\n    tag_48:\n      mload(0x40)\n      tag_51\n      swap5\n      swap4\n      swap3\n      swap2\n      swap1\n      jump(tag_52)\n    tag_51:\n      mload(0x40)\n      dup1\n      swap2\n      sub\n      swap1\n      return\n        /* \"Ehealth.sol\":4821:5031  function check_rs() public view returns(bool) {\r... */\n    tag_14:\n        /* \"Ehealth.sol\":4861:4865  bool */\n      0x00\n        /* \"Ehealth.sol\":4882:4888  uint i */\n      dup1\n        /* \"Ehealth.sol\":4891:4892  0 */\n      0x00\n        /* \"Ehealth.sol\":4882:4892  uint i = 0 */\n      swap1\n      pop\n        /* \"Ehealth.sol\":4878:5024  for(uint i = 0; i<rsList.length;i++){\r... */\n    tag_54:\n        /* \"Ehealth.sol\":4896:4902  rsList */\n      0x03\n        /* \"Ehealth.sol\":4896:4909  rsList.length */\n      dup1\n      sload\n      swap1\n      pop\n        /* \"Ehealth.sol\":4894:4895  i */\n      dup2\n        /* \"Ehealth.sol\":4894:4909  i<rsList.length */\n      lt\n        /* \"Ehealth.sol\":4878:5024  for(uint i = 0; i<rsList.length;i++){\r... */\n      iszero\n      tag_55\n      jumpi\n        /* \"Ehealth.sol\":4946:4952  rsList */\n      0x03\n        /* \"Ehealth.sol\":4953:4954  i */\n      dup2\n        /* \"Ehealth.sol\":4946:4955  rsList[i] */\n      dup2\n      sload\n      dup2\n      lt\n      tag_57\n      jumpi\n      invalid\n    tag_57:\n      swap1\n      0x00\n      mstore\n      keccak256(0x00, 0x20)\n      swap1\n      0x04\n      mul\n      add\n        /* \"Ehealth.sol\":4946:4966  rsList[i].ethaddress */\n      0x00\n      add\n      0x00\n      swap1\n      sload\n      swap1\n      0x0100\n      exp\n      swap1\n      div\n      0xffffffffffffffffffffffffffffffffffffffff\n      and\n        /* \"Ehealth.sol\":4932:4966  msg.sender == rsList[i].ethaddress */\n      0xffffffffffffffffffffffffffffffffffffffff\n      and\n        /* \"Ehealth.sol\":4932:4942  msg.sender */\n      caller\n        /* \"Ehealth.sol\":4932:4966  msg.sender == rsList[i].ethaddress */\n      0xffffffffffffffffffffffffffffffffffffffff\n      and\n      eq\n        /* \"Ehealth.sol\":4929:5013  if(msg.sender == rsList[i].ethaddress){\r... */\n      iszero\n      tag_59\n      jumpi\n        /* \"Ehealth.sol\":4993:4997  true */\n      0x01\n        /* \"Ehealth.sol\":4986:4997  return true */\n      swap2\n      pop\n      pop\n      jump(tag_53)\n        /* \"Ehealth.sol\":4929:5013  if(msg.sender == rsList[i].ethaddress){\r... */\n    tag_59:\n        /* \"Ehealth.sol\":4910:4913  i++ */\n      dup1\n      dup1\n      0x01\n      add\n      swap2\n      pop\n      pop\n        /* \"Ehealth.sol\":4878:5024  for(uint i = 0; i<rsList.length;i++){\r... */\n      jump(tag_54)\n    tag_55:\n      pop\n        /* \"Ehealth.sol\":4821:5031  function check_rs() public view returns(bool) {\r... */\n    tag_53:\n      swap1\n      jump\t// out\n        /* \"Ehealth.sol\":3445:4056  function getpenyakit_rs(string memory _nik) isRs public view returns(string[] memory){\r... */\n    tag_20:\n        /* \"Ehealth.sol\":3514:3529  string[] memory */\n      0x60\n        /* \"Ehealth.sol\":5162:5172  check_rs() */\n      tag_61\n        /* \"Ehealth.sol\":5162:5170  check_rs */\n      tag_14\n        /* \"Ehealth.sol\":5162:5172  check_rs() */\n      jump\t// in\n    tag_61:\n        /* \"Ehealth.sol\":5153:5173  require (check_rs()) */\n      tag_62\n      jumpi\n        /* \"--CODEGEN--\":12:13   */\n      0x00\n        /* \"--CODEGEN--\":9:10   */\n      dup1\n        /* \"--CODEGEN--\":2:14   */\n      revert\n        /* \"Ehealth.sol\":5153:5173  require (check_rs()) */\n    tag_62:\n        /* \"Ehealth.sol\":3541:3562  string[] memory _info */\n      0x60\n        /* \"Ehealth.sol\":3577:3583  uint i */\n      0x00\n        /* \"Ehealth.sol\":3586:3587  0 */\n      dup1\n        /* \"Ehealth.sol\":3577:3587  uint i = 0 */\n      swap1\n      pop\n        /* \"Ehealth.sol\":3573:4025  for(uint i = 0;i<pasienList.length;i++){\r... */\n    tag_64:\n        /* \"Ehealth.sol\":3590:3600  pasienList */\n      0x02\n        /* \"Ehealth.sol\":3590:3607  pasienList.length */\n      dup1\n      sload\n      swap1\n      pop\n        /* \"Ehealth.sol\":3588:3589  i */\n      dup2\n        /* \"Ehealth.sol\":3588:3607  i<pasienList.length */\n      lt\n        /* \"Ehealth.sol\":3573:4025  for(uint i = 0;i<pasienList.length;i++){\r... */\n      iszero\n      tag_65\n      jumpi\n        /* \"Ehealth.sol\":3672:3682  pasienList */\n      0x02\n        /* \"Ehealth.sol\":3683:3684  i */\n      dup2\n        /* \"Ehealth.sol\":3672:3685  pasienList[i] */\n      dup2\n      sload\n      dup2\n      lt\n      tag_67\n      jumpi\n      invalid\n    tag_67:\n      swap1\n      0x00\n      mstore\n      keccak256(0x00, 0x20)\n      swap1\n      0x08\n      mul\n      add\n        /* \"Ehealth.sol\":3672:3689  pasienList[i].nik */\n      0x00\n      add\n        /* \"Ehealth.sol\":3656:3691  keccak256(bytes(pasienList[i].nik)) */\n      mload(0x40)\n      tag_69\n      swap2\n      swap1\n      jump(tag_70)\n    tag_69:\n      mload(0x40)\n      dup1\n      swap2\n      sub\n      swap1\n      keccak256\n        /* \"Ehealth.sol\":3646:3650  _nik */\n      dup5\n        /* \"Ehealth.sol\":3630:3652  keccak256(bytes(_nik)) */\n      dup1\n      mload\n      swap1\n      0x20\n      add\n      keccak256\n        /* \"Ehealth.sol\":3630:3691  keccak256(bytes(_nik)) == keccak256(bytes(pasienList[i].nik)) */\n      eq\n        /* \"Ehealth.sol\":3627:4014  if(keccak256(bytes(_nik)) == keccak256(bytes(pasienList[i].nik))){\r... */\n      iszero\n      tag_71\n      jumpi\n        /* \"Ehealth.sol\":3732:3742  pasienList */\n      0x02\n        /* \"Ehealth.sol\":3743:3744  i */\n      dup2\n        /* \"Ehealth.sol\":3732:3745  pasienList[i] */\n      dup2\n      sload\n      dup2\n      lt\n      tag_72\n      jumpi\n      invalid\n    tag_72:\n      swap1\n      0x00\n      mstore\n      keccak256(0x00, 0x20)\n      swap1\n      0x08\n      mul\n      add\n        /* \"Ehealth.sol\":3732:3764  pasienList[i].informasi_penyakit */\n      0x07\n      add\n        /* \"Ehealth.sol\":3732:3771  pasienList[i].informasi_penyakit.length */\n      dup1\n      sload\n      swap1\n      pop\n        /* \"Ehealth.sol\":3719:3772  new string[](pasienList[i].informasi_penyakit.length) */\n      0xffffffffffffffff\n      dup2\n      gt\n        /* \"--CODEGEN--\":5:14   */\n      dup1\n        /* \"--CODEGEN--\":2:4   */\n      iszero\n      tag_74\n      jumpi\n        /* \"--CODEGEN--\":27:28   */\n      0x00\n        /* \"--CODEGEN--\":24:25   */\n      dup1\n        /* \"--CODEGEN--\":17:29   */\n      revert\n        /* \"--CODEGEN--\":2:4   */\n    tag_74:\n        /* \"Ehealth.sol\":3719:3772  new string[](pasienList[i].informasi_penyakit.length) */\n      pop\n      mload(0x40)\n      swap1\n      dup1\n      dup3\n      mstore\n      dup1\n      0x20\n      mul\n      0x20\n      add\n      dup3\n      add\n      0x40\n      mstore\n      dup1\n      iszero\n      tag_75\n      jumpi\n      dup2\n      0x20\n      add\n    tag_76:\n      0x60\n      dup2\n      mstore\n      0x20\n      add\n      swap1\n      0x01\n      swap1\n      sub\n      swap1\n      dup2\n      tag_76\n      jumpi\n      swap1\n      pop\n    tag_75:\n      pop\n        /* \"Ehealth.sol\":3711:3772  _info = new string[](pasienList[i].informasi_penyakit.length) */\n      swap2\n      pop\n        /* \"Ehealth.sol\":3795:3801  uint j */\n      0x00\n        /* \"Ehealth.sol\":3804:3805  0 */\n      dup1\n        /* \"Ehealth.sol\":3795:3805  uint j = 0 */\n      swap1\n      pop\n        /* \"Ehealth.sol\":3791:3941  for(uint j = 0;j<pasienList[i].informasi_penyakit.length;j++){\r... */\n    tag_77:\n        /* \"Ehealth.sol\":3808:3818  pasienList */\n      0x02\n        /* \"Ehealth.sol\":3819:3820  i */\n      dup3\n        /* \"Ehealth.sol\":3808:3821  pasienList[i] */\n      dup2\n      sload\n      dup2\n      lt\n      tag_80\n      jumpi\n      invalid\n    tag_80:\n      swap1\n      0x00\n      mstore\n      keccak256(0x00, 0x20)\n      swap1\n      0x08\n      mul\n      add\n        /* \"Ehealth.sol\":3808:3840  pasienList[i].informasi_penyakit */\n      0x07\n      add\n        /* \"Ehealth.sol\":3808:3847  pasienList[i].informasi_penyakit.length */\n      dup1\n      sload\n      swap1\n      pop\n        /* \"Ehealth.sol\":3806:3807  j */\n      dup2\n        /* \"Ehealth.sol\":3806:3847  j<pasienList[i].informasi_penyakit.length */\n      lt\n        /* \"Ehealth.sol\":3791:3941  for(uint j = 0;j<pasienList[i].informasi_penyakit.length;j++){\r... */\n      iszero\n      tag_78\n      jumpi\n        /* \"Ehealth.sol\":3886:3896  pasienList */\n      0x02\n        /* \"Ehealth.sol\":3897:3898  i */\n      dup3\n        /* \"Ehealth.sol\":3886:3899  pasienList[i] */\n      dup2\n      sload\n      dup2\n      lt\n      tag_82\n      jumpi\n      invalid\n    tag_82:\n      swap1\n      0x00\n      mstore\n      keccak256(0x00, 0x20)\n      swap1\n      0x08\n      mul\n      add\n        /* \"Ehealth.sol\":3886:3918  pasienList[i].informasi_penyakit */\n      0x07\n      add\n        /* \"Ehealth.sol\":3919:3920  j */\n      dup2\n        /* \"Ehealth.sol\":3886:3921  pasienList[i].informasi_penyakit[j] */\n      dup2\n      sload\n      dup2\n      lt\n      tag_84\n      jumpi\n      invalid\n    tag_84:\n      swap1\n      0x00\n      mstore\n      keccak256(0x00, 0x20)\n      add\n        /* \"Ehealth.sol\":3875:3921  _info[j] = pasienList[i].informasi_penyakit[j] */\n      dup1\n      sload\n      0x01\n      dup2\n      0x01\n      and\n      iszero\n      0x0100\n      mul\n      sub\n      and\n      0x02\n      swap1\n      div\n      dup1\n      0x1f\n      add\n      0x20\n      dup1\n      swap2\n      div\n      mul\n      0x20\n      add\n      mload(0x40)\n      swap1\n      dup2\n      add\n      0x40\n      mstore\n      dup1\n      swap3\n      swap2\n      swap1\n      dup2\n      dup2\n      mstore\n      0x20\n      add\n      dup3\n      dup1\n      sload\n      0x01\n      dup2\n      0x01\n      and\n      iszero\n      0x0100\n      mul\n      sub\n      and\n      0x02\n      swap1\n      div\n      dup1\n      iszero\n      tag_86\n      jumpi\n      dup1\n      0x1f\n      lt\n      tag_87\n      jumpi\n      0x0100\n      dup1\n      dup4\n      sload\n      div\n      mul\n      dup4\n      mstore\n      swap2\n      0x20\n      add\n      swap2\n      jump(tag_86)\n    tag_87:\n      dup3\n      add\n      swap2\n      swap1\n      0x00\n      mstore\n      keccak256(0x00, 0x20)\n      swap1\n    tag_88:\n      dup2\n      sload\n      dup2\n      mstore\n      swap1\n      0x01\n      add\n      swap1\n      0x20\n      add\n      dup1\n      dup4\n      gt\n      tag_88\n      jumpi\n      dup3\n      swap1\n      sub\n      0x1f\n      and\n      dup3\n      add\n      swap2\n    tag_86:\n      pop\n      pop\n      pop\n      pop\n      pop\n        /* \"Ehealth.sol\":3875:3880  _info */\n      dup4\n        /* \"Ehealth.sol\":3881:3882  j */\n      dup3\n        /* \"Ehealth.sol\":3875:3883  _info[j] */\n      dup2\n      mload\n      dup2\n      lt\n      tag_89\n      jumpi\n      invalid\n    tag_89:\n      0x20\n      mul\n      0x20\n      add\n      add\n        /* \"Ehealth.sol\":3875:3921  _info[j] = pasienList[i].informasi_penyakit[j] */\n      dup2\n      swap1\n      mstore\n      pop\n        /* \"Ehealth.sol\":3848:3851  j++ */\n      dup1\n      dup1\n      0x01\n      add\n      swap2\n      pop\n      pop\n        /* \"Ehealth.sol\":3791:3941  for(uint j = 0;j<pasienList[i].informasi_penyakit.length;j++){\r... */\n      jump(tag_77)\n    tag_78:\n      pop\n        /* \"Ehealth.sol\":3627:4014  if(keccak256(bytes(_nik)) == keccak256(bytes(pasienList[i].nik))){\r... */\n      jump(tag_90)\n    tag_71:\n        /* \"Ehealth.sol\":3979:3998  revert(\"NIK salah\") */\n      mload(0x40)\n      0x08c379a000000000000000000000000000000000000000000000000000000000\n      dup2\n      mstore\n      0x04\n      add\n      tag_91\n      swap1\n      jump(tag_92)\n    tag_91:\n      mload(0x40)\n      dup1\n      swap2\n      sub\n      swap1\n      revert\n        /* \"Ehealth.sol\":3627:4014  if(keccak256(bytes(_nik)) == keccak256(bytes(pasienList[i].nik))){\r... */\n    tag_90:\n        /* \"Ehealth.sol\":3608:3611  i++ */\n      dup1\n      dup1\n      0x01\n      add\n      swap2\n      pop\n      pop\n        /* \"Ehealth.sol\":3573:4025  for(uint i = 0;i<pasienList.length;i++){\r... */\n      jump(tag_64)\n    tag_65:\n      pop\n        /* \"Ehealth.sol\":4042:4047  _info */\n      dup1\n        /* \"Ehealth.sol\":4035:4048  return(_info) */\n      swap2\n      pop\n      pop\n        /* \"Ehealth.sol\":3445:4056  function getpenyakit_rs(string memory _nik) isRs public view returns(string[] memory){\r... */\n      swap2\n      swap1\n      pop\n      jump\t// out\n        /* \"Ehealth.sol\":2878:3439  function getpasien_rs(string memory _nik) isRs public view returns(string memory, string memory, uint8, string memory, string memory, string memory, uint8, uint8, string[] memory){\r... */\n    tag_25:\n        /* \"Ehealth.sol\":2945:2958  string memory */\n      0x60\n        /* \"Ehealth.sol\":2960:2973  string memory */\n      dup1\n        /* \"Ehealth.sol\":2975:2980  uint8 */\n      0x00\n        /* \"Ehealth.sol\":2982:2995  string memory */\n      0x60\n        /* \"Ehealth.sol\":2997:3010  string memory */\n      dup1\n        /* \"Ehealth.sol\":3012:3025  string memory */\n      0x60\n        /* \"Ehealth.sol\":3027:3032  uint8 */\n      0x00\n        /* \"Ehealth.sol\":3034:3039  uint8 */\n      dup1\n        /* \"Ehealth.sol\":3041:3056  string[] memory */\n      0x60\n        /* \"Ehealth.sol\":5162:5172  check_rs() */\n      tag_94\n        /* \"Ehealth.sol\":5162:5170  check_rs */\n      tag_14\n        /* \"Ehealth.sol\":5162:5172  check_rs() */\n      jump\t// in\n    tag_94:\n        /* \"Ehealth.sol\":5153:5173  require (check_rs()) */\n      tag_95\n      jumpi\n        /* \"--CODEGEN--\":12:13   */\n      0x00\n        /* \"--CODEGEN--\":9:10   */\n      dup1\n        /* \"--CODEGEN--\":2:14   */\n      revert\n        /* \"Ehealth.sol\":5153:5173  require (check_rs()) */\n    tag_95:\n        /* \"Ehealth.sol\":3072:3078  uint i */\n      0x00\n        /* \"Ehealth.sol\":3068:3432  for(uint i; i<pasienList.length;i++){\r... */\n    tag_97:\n        /* \"Ehealth.sol\":3082:3092  pasienList */\n      0x02\n        /* \"Ehealth.sol\":3082:3099  pasienList.length */\n      dup1\n      sload\n      swap1\n      pop\n        /* \"Ehealth.sol\":3080:3081  i */\n      dup2\n        /* \"Ehealth.sol\":3080:3099  i<pasienList.length */\n      lt\n        /* \"Ehealth.sol\":3068:3432  for(uint i; i<pasienList.length;i++){\r... */\n      iszero\n      tag_98\n      jumpi\n        /* \"Ehealth.sol\":3164:3174  pasienList */\n      0x02\n        /* \"Ehealth.sol\":3175:3176  i */\n      dup2\n        /* \"Ehealth.sol\":3164:3177  pasienList[i] */\n      dup2\n      sload\n      dup2\n      lt\n      tag_100\n      jumpi\n      invalid\n    tag_100:\n      swap1\n      0x00\n      mstore\n      keccak256(0x00, 0x20)\n      swap1\n      0x08\n      mul\n      add\n        /* \"Ehealth.sol\":3164:3181  pasienList[i].nik */\n      0x00\n      add\n        /* \"Ehealth.sol\":3148:3183  keccak256(bytes(pasienList[i].nik)) */\n      mload(0x40)\n      tag_102\n      swap2\n      swap1\n      jump(tag_70)\n    tag_102:\n      mload(0x40)\n      dup1\n      swap2\n      sub\n      swap1\n      keccak256\n        /* \"Ehealth.sol\":3138:3142  _nik */\n      dup12\n        /* \"Ehealth.sol\":3122:3144  keccak256(bytes(_nik)) */\n      dup1\n      mload\n      swap1\n      0x20\n      add\n      keccak256\n        /* \"Ehealth.sol\":3122:3183  keccak256(bytes(_nik)) == keccak256(bytes(pasienList[i].nik)) */\n      eq\n        /* \"Ehealth.sol\":3119:3421  if(keccak256(bytes(_nik)) == keccak256(bytes(pasienList[i].nik))){\r... */\n      iszero\n      tag_103\n      jumpi\n        /* \"Ehealth.sol\":3210:3220  pasienList */\n      0x02\n        /* \"Ehealth.sol\":3221:3222  i */\n      dup2\n        /* \"Ehealth.sol\":3210:3223  pasienList[i] */\n      dup2\n      sload\n      dup2\n      lt\n      tag_104\n      jumpi\n      invalid\n    tag_104:\n      swap1\n      0x00\n      mstore\n      keccak256(0x00, 0x20)\n      swap1\n      0x08\n      mul\n      add\n        /* \"Ehealth.sol\":3210:3227  pasienList[i].nik */\n      0x00\n      add\n        /* \"Ehealth.sol\":3228:3238  pasienList */\n      0x02\n        /* \"Ehealth.sol\":3239:3240  i */\n      dup3\n        /* \"Ehealth.sol\":3228:3241  pasienList[i] */\n      dup2\n      sload\n      dup2\n      lt\n      tag_106\n      jumpi\n      invalid\n    tag_106:\n      swap1\n      0x00\n      mstore\n      keccak256(0x00, 0x20)\n      swap1\n      0x08\n      mul\n      add\n        /* \"Ehealth.sol\":3228:3246  pasienList[i].nama */\n      0x01\n      add\n        /* \"Ehealth.sol\":3247:3257  pasienList */\n      0x02\n        /* \"Ehealth.sol\":3258:3259  i */\n      dup4\n        /* \"Ehealth.sol\":3247:3260  pasienList[i] */\n      dup2\n      sload\n      dup2\n      lt\n      tag_108\n      jumpi\n      invalid\n    tag_108:\n      swap1\n      0x00\n      mstore\n      keccak256(0x00, 0x20)\n      swap1\n      0x08\n      mul\n      add\n        /* \"Ehealth.sol\":3247:3265  pasienList[i].umur */\n      0x02\n      add\n      0x00\n      swap1\n      sload\n      swap1\n      0x0100\n      exp\n      swap1\n      div\n      0xff\n      and\n        /* \"Ehealth.sol\":3266:3276  pasienList */\n      0x02\n        /* \"Ehealth.sol\":3277:3278  i */\n      dup5\n        /* \"Ehealth.sol\":3266:3279  pasienList[i] */\n      dup2\n      sload\n      dup2\n      lt\n      tag_110\n      jumpi\n      invalid\n    tag_110:\n      swap1\n      0x00\n      mstore\n      keccak256(0x00, 0x20)\n      swap1\n      0x08\n      mul\n      add\n        /* \"Ehealth.sol\":3266:3286  pasienList[i].alamat */\n      0x03\n      add\n        /* \"Ehealth.sol\":3287:3297  pasienList */\n      0x02\n        /* \"Ehealth.sol\":3298:3299  i */\n      dup6\n        /* \"Ehealth.sol\":3287:3300  pasienList[i] */\n      dup2\n      sload\n      dup2\n      lt\n      tag_112\n      jumpi\n      invalid\n    tag_112:\n      swap1\n      0x00\n      mstore\n      keccak256(0x00, 0x20)\n      swap1\n      0x08\n      mul\n      add\n        /* \"Ehealth.sol\":3287:3310  pasienList[i].gulaDarah */\n      0x04\n      add\n        /* \"Ehealth.sol\":3311:3321  pasienList */\n      0x02\n        /* \"Ehealth.sol\":3322:3323  i */\n      dup7\n        /* \"Ehealth.sol\":3311:3324  pasienList[i] */\n      dup2\n      sload\n      dup2\n      lt\n      tag_114\n      jumpi\n      invalid\n    tag_114:\n      swap1\n      0x00\n      mstore\n      keccak256(0x00, 0x20)\n      swap1\n      0x08\n      mul\n      add\n        /* \"Ehealth.sol\":3311:3337  pasienList[i].tekananDarah */\n      0x05\n      add\n        /* \"Ehealth.sol\":3338:3348  pasienList */\n      0x02\n        /* \"Ehealth.sol\":3349:3350  i */\n      dup8\n        /* \"Ehealth.sol\":3338:3351  pasienList[i] */\n      dup2\n      sload\n      dup2\n      lt\n      tag_116\n      jumpi\n      invalid\n    tag_116:\n      swap1\n      0x00\n      mstore\n      keccak256(0x00, 0x20)\n      swap1\n      0x08\n      mul\n      add\n        /* \"Ehealth.sol\":3338:3354  pasienList[i].bb */\n      0x06\n      add\n      0x01\n      swap1\n      sload\n      swap1\n      0x0100\n      exp\n      swap1\n      div\n      0xff\n      and\n        /* \"Ehealth.sol\":3355:3365  pasienList */\n      0x02\n        /* \"Ehealth.sol\":3366:3367  i */\n      dup9\n        /* \"Ehealth.sol\":3355:3368  pasienList[i] */\n      dup2\n      sload\n      dup2\n      lt\n      tag_118\n      jumpi\n      invalid\n    tag_118:\n      swap1\n      0x00\n      mstore\n      keccak256(0x00, 0x20)\n      swap1\n      0x08\n      mul\n      add\n        /* \"Ehealth.sol\":3355:3371  pasienList[i].tb */\n      0x06\n      add\n      0x00\n      swap1\n      sload\n      swap1\n      0x0100\n      exp\n      swap1\n      div\n      0xff\n      and\n        /* \"Ehealth.sol\":3372:3382  pasienList */\n      0x02\n        /* \"Ehealth.sol\":3383:3384  i */\n      dup10\n        /* \"Ehealth.sol\":3372:3385  pasienList[i] */\n      dup2\n      sload\n      dup2\n      lt\n      tag_120\n      jumpi\n      invalid\n    tag_120:\n      swap1\n      0x00\n      mstore\n      keccak256(0x00, 0x20)\n      swap1\n      0x08\n      mul\n      add\n        /* \"Ehealth.sol\":3372:3404  pasienList[i].informasi_penyakit */\n      0x07\n      add\n        /* \"Ehealth.sol\":3203:3405  return(pasienList[i].nik,pasienList[i].nama,pasienList[i].umur,pasienList[i].alamat,pasienList[i].gulaDarah,pasienList[i].tekananDarah,pasienList[i].bb,pasienList[i].tb,pasienList[i].informasi_penyakit) */\n      dup9\n      dup1\n      sload\n      0x01\n      dup2\n      0x01\n      and\n      iszero\n      0x0100\n      mul\n      sub\n      and\n      0x02\n      swap1\n      div\n      dup1\n      0x1f\n      add\n      0x20\n      dup1\n      swap2\n      div\n      mul\n      0x20\n      add\n      mload(0x40)\n      swap1\n      dup2\n      add\n      0x40\n      mstore\n      dup1\n      swap3\n      swap2\n      swap1\n      dup2\n      dup2\n      mstore\n      0x20\n      add\n      dup3\n      dup1\n      sload\n      0x01\n      dup2\n      0x01\n      and\n      iszero\n      0x0100\n      mul\n      sub\n      and\n      0x02\n      swap1\n      div\n      dup1\n      iszero\n      tag_122\n      jumpi\n      dup1\n      0x1f\n      lt\n      tag_123\n      jumpi\n      0x0100\n      dup1\n      dup4\n      sload\n      div\n      mul\n      dup4\n      mstore\n      swap2\n      0x20\n      add\n      swap2\n      jump(tag_122)\n    tag_123:\n      dup3\n      add\n      swap2\n      swap1\n      0x00\n      mstore\n      keccak256(0x00, 0x20)\n      swap1\n    tag_124:\n      dup2\n      sload\n      dup2\n      mstore\n      swap1\n      0x01\n      add\n      swap1\n      0x20\n      add\n      dup1\n      dup4\n      gt\n      tag_124\n      jumpi\n      dup3\n      swap1\n      sub\n      0x1f\n      and\n      dup3\n      add\n      swap2\n    tag_122:\n      pop\n      pop\n      pop\n      pop\n      pop\n      swap9\n      pop\n      dup8\n      dup1\n      sload\n      0x01\n      dup2\n      0x01\n      and\n      iszero\n      0x0100\n      mul\n      sub\n      and\n      0x02\n      swap1\n      div\n      dup1\n      0x1f\n      add\n      0x20\n      dup1\n      swap2\n      div\n      mul\n      0x20\n      add\n      mload(0x40)\n      swap1\n      dup2\n      add\n      0x40\n      mstore\n      dup1\n      swap3\n      swap2\n      swap1\n      dup2\n      dup2\n      mstore\n      0x20\n      add\n      dup3\n      dup1\n      sload\n      0x01\n      dup2\n      0x01\n      and\n      iszero\n      0x0100\n      mul\n      sub\n      and\n      0x02\n      swap1\n      div\n      dup1\n      iszero\n      tag_125\n      jumpi\n      dup1\n      0x1f\n      lt\n      tag_126\n      jumpi\n      0x0100\n      dup1\n      dup4\n      sload\n      div\n      mul\n      dup4\n      mstore\n      swap2\n      0x20\n      add\n      swap2\n      jump(tag_125)\n    tag_126:\n      dup3\n      add\n      swap2\n      swap1\n      0x00\n      mstore\n      keccak256(0x00, 0x20)\n      swap1\n    tag_127:\n      dup2\n      sload\n      dup2\n      mstore\n      swap1\n      0x01\n      add\n      swap1\n      0x20\n      add\n      dup1\n      dup4\n      gt\n      tag_127\n      jumpi\n      dup3\n      swap1\n      sub\n      0x1f\n      and\n      dup3\n      add\n      swap2\n    tag_125:\n      pop\n      pop\n      pop\n      pop\n      pop\n      swap8\n      pop\n      dup6\n      dup1\n      sload\n      0x01\n      dup2\n      0x01\n      and\n      iszero\n      0x0100\n      mul\n      sub\n      and\n      0x02\n      swap1\n      div\n      dup1\n      0x1f\n      add\n      0x20\n      dup1\n      swap2\n      div\n      mul\n      0x20\n      add\n      mload(0x40)\n      swap1\n      dup2\n      add\n      0x40\n      mstore\n      dup1\n      swap3\n      swap2\n      swap1\n      dup2\n      dup2\n      mstore\n      0x20\n      add\n      dup3\n      dup1\n      sload\n      0x01\n      dup2\n      0x01\n      and\n      iszero\n      0x0100\n      mul\n      sub\n      and\n      0x02\n      swap1\n      div\n      dup1\n      iszero\n      tag_128\n      jumpi\n      dup1\n      0x1f\n      lt\n      tag_129\n      jumpi\n      0x0100\n      dup1\n      dup4\n      sload\n      div\n      mul\n      dup4\n      mstore\n      swap2\n      0x20\n      add\n      swap2\n      jump(tag_128)\n    tag_129:\n      dup3\n      add\n      swap2\n      swap1\n      0x00\n      mstore\n      keccak256(0x00, 0x20)\n      swap1\n    tag_130:\n      dup2\n      sload\n      dup2\n      mstore\n      swap1\n      0x01\n      add\n      swap1\n      0x20\n      add\n      dup1\n      dup4\n      gt\n      tag_130\n      jumpi\n      dup3\n      swap1\n      sub\n      0x1f\n      and\n      dup3\n      add\n      swap2\n    tag_128:\n      pop\n      pop\n      pop\n      pop\n      pop\n      swap6\n      pop\n      dup5\n      dup1\n      sload\n      0x01\n      dup2\n      0x01\n      and\n      iszero\n      0x0100\n      mul\n      sub\n      and\n      0x02\n      swap1\n      div\n      dup1\n      0x1f\n      add\n      0x20\n      dup1\n      swap2\n      div\n      mul\n      0x20\n      add\n      mload(0x40)\n      swap1\n      dup2\n      add\n      0x40\n      mstore\n      dup1\n      swap3\n      swap2\n      swap1\n      dup2\n      dup2\n      mstore\n      0x20\n      add\n      dup3\n      dup1\n      sload\n      0x01\n      dup2\n      0x01\n      and\n      iszero\n      0x0100\n      mul\n      sub\n      and\n      0x02\n      swap1\n      div\n      dup1\n      iszero\n      tag_131\n      jumpi\n      dup1\n      0x1f\n      lt\n      tag_132\n      jumpi\n      0x0100\n      dup1\n      dup4\n      sload\n      div\n      mul\n      dup4\n      mstore\n      swap2\n      0x20\n      add\n      swap2\n      jump(tag_131)\n    tag_132:\n      dup3\n      add\n      swap2\n      swap1\n      0x00\n      mstore\n      keccak256(0x00, 0x20)\n      swap1\n    tag_133:\n      dup2\n      sload\n      dup2\n      mstore\n      swap1\n      0x01\n      add\n      swap1\n      0x20\n      add\n      dup1\n      dup4\n      gt\n      tag_133\n      jumpi\n      dup3\n      swap1\n      sub\n      0x1f\n      and\n      dup3\n      add\n      swap2\n    tag_131:\n      pop\n      pop\n      pop\n      pop\n      pop\n      swap5\n      pop\n      dup4\n      dup1\n      sload\n      0x01\n      dup2\n      0x01\n      and\n      iszero\n      0x0100\n      mul\n      sub\n      and\n      0x02\n      swap1\n      div\n      dup1\n      0x1f\n      add\n      0x20\n      dup1\n      swap2\n      div\n      mul\n      0x20\n      add\n      mload(0x40)\n      swap1\n      dup2\n      add\n      0x40\n      mstore\n      dup1\n      swap3\n      swap2\n      swap1\n      dup2\n      dup2\n      mstore\n      0x20\n      add\n      dup3\n      dup1\n      sload\n      0x01\n      dup2\n      0x01\n      and\n      iszero\n      0x0100\n      mul\n      sub\n      and\n      0x02\n      swap1\n      div\n      dup1\n      iszero\n      tag_134\n      jumpi\n      dup1\n      0x1f\n      lt\n      tag_135\n      jumpi\n      0x0100\n      dup1\n      dup4\n      sload\n      div\n      mul\n      dup4\n      mstore\n      swap2\n      0x20\n      add\n      swap2\n      jump(tag_134)\n    tag_135:\n      dup3\n      add\n      swap2\n      swap1\n      0x00\n      mstore\n      keccak256(0x00, 0x20)\n      swap1\n    tag_136:\n      dup2\n      sload\n      dup2\n      mstore\n      swap1\n      0x01\n      add\n      swap1\n      0x20\n      add\n      dup1\n      dup4\n      gt\n      tag_136\n      jumpi\n      dup3\n      swap1\n      sub\n      0x1f\n      and\n      dup3\n      add\n      swap2\n    tag_134:\n      pop\n      pop\n      pop\n      pop\n      pop\n      swap4\n      pop\n      dup1\n      dup1\n      sload\n      dup1\n      0x20\n      mul\n      0x20\n      add\n      mload(0x40)\n      swap1\n      dup2\n      add\n      0x40\n      mstore\n      dup1\n      swap3\n      swap2\n      swap1\n      dup2\n      dup2\n      mstore\n      0x20\n      add\n      0x00\n      swap1\n    tag_137:\n      dup3\n      dup3\n      lt\n      iszero\n      tag_138\n      jumpi\n      dup4\n      dup3\n      swap1\n      0x00\n      mstore\n      keccak256(0x00, 0x20)\n      add\n      dup1\n      sload\n      0x01\n      dup2\n      0x01\n      and\n      iszero\n      0x0100\n      mul\n      sub\n      and\n      0x02\n      swap1\n      div\n      dup1\n      0x1f\n      add\n      0x20\n      dup1\n      swap2\n      div\n      mul\n      0x20\n      add\n      mload(0x40)\n      swap1\n      dup2\n      add\n      0x40\n      mstore\n      dup1\n      swap3\n      swap2\n      swap1\n      dup2\n      dup2\n      mstore\n      0x20\n      add\n      dup3\n      dup1\n      sload\n      0x01\n      dup2\n      0x01\n      and\n      iszero\n      0x0100\n      mul\n      sub\n      and\n      0x02\n      swap1\n      div\n      dup1\n      iszero\n      tag_140\n      jumpi\n      dup1\n      0x1f\n      lt\n      tag_141\n      jumpi\n      0x0100\n      dup1\n      dup4\n      sload\n      div\n      mul\n      dup4\n      mstore\n      swap2\n      0x20\n      add\n      swap2\n      jump(tag_140)\n    tag_141:\n      dup3\n      add\n      swap2\n      swap1\n      0x00\n      mstore\n      keccak256(0x00, 0x20)\n      swap1\n    tag_142:\n      dup2\n      sload\n      dup2\n      mstore\n      swap1\n      0x01\n      add\n      swap1\n      0x20\n      add\n      dup1\n      dup4\n      gt\n      tag_142\n      jumpi\n      dup3\n      swap1\n      sub\n      0x1f\n      and\n      dup3\n      add\n      swap2\n    tag_140:\n      pop\n      pop\n      pop\n      pop\n      pop\n      dup2\n      mstore\n      0x20\n      add\n      swap1\n      0x01\n      add\n      swap1\n      jump(tag_137)\n    tag_138:\n      pop\n      pop\n      pop\n      pop\n      swap1\n      pop\n      swap10\n      pop\n      swap10\n      pop\n      swap10\n      pop\n      swap10\n      pop\n      swap10\n      pop\n      swap10\n      pop\n      swap10\n      pop\n      swap10\n      pop\n      swap10\n      pop\n      pop\n      jump(tag_96)\n        /* \"Ehealth.sol\":3119:3421  if(keccak256(bytes(_nik)) == keccak256(bytes(pasienList[i].nik))){\r... */\n    tag_103:\n        /* \"Ehealth.sol\":3100:3103  i++ */\n      dup1\n      dup1\n      0x01\n      add\n      swap2\n      pop\n      pop\n        /* \"Ehealth.sol\":3068:3432  for(uint i; i<pasienList.length;i++){\r... */\n      jump(tag_97)\n    tag_98:\n      pop\n        /* \"Ehealth.sol\":5184:5185  _ */\n    tag_96:\n        /* \"Ehealth.sol\":2878:3439  function getpasien_rs(string memory _nik) isRs public view returns(string memory, string memory, uint8, string memory, string memory, string memory, uint8, uint8, string[] memory){\r... */\n      swap2\n      swap4\n      swap6\n      swap8\n      swap10\n      swap1\n      swap3\n      swap5\n      swap7\n      swap9\n      pop\n      jump\t// out\n        /* \"Ehealth.sol\":1829:2181  function addPenyakit (string memory _id, string memory _penyakit) isRs public {\r... */\n    tag_31:\n        /* \"Ehealth.sol\":5162:5172  check_rs() */\n      tag_144\n        /* \"Ehealth.sol\":5162:5170  check_rs */\n      tag_14\n        /* \"Ehealth.sol\":5162:5172  check_rs() */\n      jump\t// in\n    tag_144:\n        /* \"Ehealth.sol\":5153:5173  require (check_rs()) */\n      tag_145\n      jumpi\n        /* \"--CODEGEN--\":12:13   */\n      0x00\n        /* \"--CODEGEN--\":9:10   */\n      dup1\n        /* \"--CODEGEN--\":2:14   */\n      revert\n        /* \"Ehealth.sol\":5153:5173  require (check_rs()) */\n    tag_145:\n        /* \"Ehealth.sol\":1952:1953  0 */\n      0x00\n        /* \"Ehealth.sol\":1932:1941  _penyakit */\n      dup2\n        /* \"Ehealth.sol\":1926:1949  bytes(_penyakit).length */\n      mload\n        /* \"Ehealth.sol\":1926:1953  bytes(_penyakit).length > 0 */\n      gt\n        /* \"Ehealth.sol\":1918:1954  require(bytes(_penyakit).length > 0) */\n      tag_147\n      jumpi\n        /* \"--CODEGEN--\":12:13   */\n      0x00\n        /* \"--CODEGEN--\":9:10   */\n      dup1\n        /* \"--CODEGEN--\":2:14   */\n      revert\n        /* \"Ehealth.sol\":1918:1954  require(bytes(_penyakit).length > 0) */\n    tag_147:\n        /* \"Ehealth.sol\":1969:1975  uint i */\n      0x00\n        /* \"Ehealth.sol\":1965:2174  for(uint i; i<pasienList.length;i++){\r... */\n    tag_148:\n        /* \"Ehealth.sol\":1979:1989  pasienList */\n      0x02\n        /* \"Ehealth.sol\":1979:1996  pasienList.length */\n      dup1\n      sload\n      swap1\n      pop\n        /* \"Ehealth.sol\":1977:1978  i */\n      dup2\n        /* \"Ehealth.sol\":1977:1996  i<pasienList.length */\n      lt\n        /* \"Ehealth.sol\":1965:2174  for(uint i; i<pasienList.length;i++){\r... */\n      iszero\n      tag_149\n      jumpi\n        /* \"Ehealth.sol\":2060:2070  pasienList */\n      0x02\n        /* \"Ehealth.sol\":2071:2072  i */\n      dup2\n        /* \"Ehealth.sol\":2060:2073  pasienList[i] */\n      dup2\n      sload\n      dup2\n      lt\n      tag_151\n      jumpi\n      invalid\n    tag_151:\n      swap1\n      0x00\n      mstore\n      keccak256(0x00, 0x20)\n      swap1\n      0x08\n      mul\n      add\n        /* \"Ehealth.sol\":2060:2077  pasienList[i].nik */\n      0x00\n      add\n        /* \"Ehealth.sol\":2044:2079  keccak256(bytes(pasienList[i].nik)) */\n      mload(0x40)\n      tag_153\n      swap2\n      swap1\n      jump(tag_70)\n    tag_153:\n      mload(0x40)\n      dup1\n      swap2\n      sub\n      swap1\n      keccak256\n        /* \"Ehealth.sol\":2035:2038  _id */\n      dup4\n        /* \"Ehealth.sol\":2019:2040  keccak256(bytes(_id)) */\n      dup1\n      mload\n      swap1\n      0x20\n      add\n      keccak256\n        /* \"Ehealth.sol\":2019:2079  keccak256(bytes(_id)) == keccak256(bytes(pasienList[i].nik)) */\n      eq\n        /* \"Ehealth.sol\":2016:2163  if(keccak256(bytes(_id)) == keccak256(bytes(pasienList[i].nik))){\r... */\n      iszero\n      tag_154\n      jumpi\n        /* \"Ehealth.sol\":2099:2109  pasienList */\n      0x02\n        /* \"Ehealth.sol\":2110:2111  i */\n      dup2\n        /* \"Ehealth.sol\":2099:2112  pasienList[i] */\n      dup2\n      sload\n      dup2\n      lt\n      tag_155\n      jumpi\n      invalid\n    tag_155:\n      swap1\n      0x00\n      mstore\n      keccak256(0x00, 0x20)\n      swap1\n      0x08\n      mul\n      add\n        /* \"Ehealth.sol\":2099:2131  pasienList[i].informasi_penyakit */\n      0x07\n      add\n        /* \"Ehealth.sol\":2137:2146  _penyakit */\n      dup3\n        /* \"Ehealth.sol\":2099:2147  pasienList[i].informasi_penyakit.push(_penyakit) */\n      swap1\n      dup1\n        /* \"--CODEGEN--\":39:40   */\n      0x01\n        /* \"--CODEGEN--\":33:36   */\n      dup2\n        /* \"--CODEGEN--\":27:37   */\n      sload\n        /* \"--CODEGEN--\":23:41   */\n      add\n        /* \"--CODEGEN--\":57:67   */\n      dup1\n        /* \"--CODEGEN--\":52:55   */\n      dup3\n        /* \"--CODEGEN--\":45:68   */\n      sstore\n        /* \"--CODEGEN--\":79:89   */\n      dup1\n        /* \"--CODEGEN--\":72:89   */\n      swap2\n      pop\n        /* \"--CODEGEN--\":0:93   */\n      pop\n        /* \"Ehealth.sol\":2099:2147  pasienList[i].informasi_penyakit.push(_penyakit) */\n      0x01\n      swap1\n      sub\n      swap1\n      0x00\n      mstore\n      keccak256(0x00, 0x20)\n      add\n      0x00\n      swap1\n      swap2\n      swap1\n      swap2\n      swap1\n      swap2\n      pop\n      swap1\n      dup1\n      mload\n      swap1\n      0x20\n      add\n      swap1\n      tag_158\n      swap3\n      swap2\n      swap1\n      tag_159\n      jump\t// in\n    tag_158:\n      pop\n        /* \"Ehealth.sol\":2016:2163  if(keccak256(bytes(_id)) == keccak256(bytes(pasienList[i].nik))){\r... */\n    tag_154:\n        /* \"Ehealth.sol\":1997:2000  i++ */\n      dup1\n      dup1\n      0x01\n      add\n      swap2\n      pop\n      pop\n        /* \"Ehealth.sol\":1965:2174  for(uint i; i<pasienList.length;i++){\r... */\n      jump(tag_148)\n    tag_149:\n      pop\n        /* \"Ehealth.sol\":1829:2181  function addPenyakit (string memory _id, string memory _penyakit) isRs public {\r... */\n      pop\n      pop\n      jump\t// out\n        /* \"Ehealth.sol\":1478:1823  function addRumahSakit(address _ethaddress, string memory _nama, string memory _idRS, string memory _alamat) isManager public {\r... */\n    tag_35:\n        /* \"Ehealth.sol\":5090:5100  msg.sender */\n      caller\n        /* \"Ehealth.sol\":5079:5100  manager == msg.sender */\n      0xffffffffffffffffffffffffffffffffffffffff\n      and\n        /* \"Ehealth.sol\":5079:5086  manager */\n      0x00\n      dup1\n      swap1\n      sload\n      swap1\n      0x0100\n      exp\n      swap1\n      div\n      0xffffffffffffffffffffffffffffffffffffffff\n      and\n        /* \"Ehealth.sol\":5079:5100  manager == msg.sender */\n      0xffffffffffffffffffffffffffffffffffffffff\n      and\n      eq\n        /* \"Ehealth.sol\":5070:5101  require (manager == msg.sender) */\n      tag_161\n      jumpi\n        /* \"--CODEGEN--\":12:13   */\n      0x00\n        /* \"--CODEGEN--\":9:10   */\n      dup1\n        /* \"--CODEGEN--\":2:14   */\n      revert\n        /* \"Ehealth.sol\":5070:5101  require (manager == msg.sender) */\n    tag_161:\n        /* \"Ehealth.sol\":1615:1641  Rumah_Sakit memory newData */\n      tag_163\n      tag_164\n      jump\t// in\n    tag_163:\n        /* \"Ehealth.sol\":1644:1784  Rumah_Sakit({\r... */\n      mload(0x40)\n      dup1\n      0x80\n      add\n      0x40\n      mstore\n      dup1\n        /* \"Ehealth.sol\":1682:1693  _ethaddress */\n      dup7\n        /* \"Ehealth.sol\":1644:1784  Rumah_Sakit({\r... */\n      0xffffffffffffffffffffffffffffffffffffffff\n      and\n      dup2\n      mstore\n      0x20\n      add\n        /* \"Ehealth.sol\":1713:1718  _nama */\n      dup6\n        /* \"Ehealth.sol\":1644:1784  Rumah_Sakit({\r... */\n      dup2\n      mstore\n      0x20\n      add\n        /* \"Ehealth.sol\":1738:1743  _idRS */\n      dup5\n        /* \"Ehealth.sol\":1644:1784  Rumah_Sakit({\r... */\n      dup2\n      mstore\n      0x20\n      add\n        /* \"Ehealth.sol\":1765:1772  _alamat */\n      dup4\n        /* \"Ehealth.sol\":1644:1784  Rumah_Sakit({\r... */\n      dup2\n      mstore\n      pop\n        /* \"Ehealth.sol\":1615:1784  Rumah_Sakit memory newData = Rumah_Sakit({\r... */\n      swap1\n      pop\n        /* \"Ehealth.sol\":1795:1801  rsList */\n      0x03\n        /* \"Ehealth.sol\":1807:1814  newData */\n      dup2\n        /* \"Ehealth.sol\":1795:1815  rsList.push(newData) */\n      swap1\n      dup1\n        /* \"--CODEGEN--\":39:40   */\n      0x01\n        /* \"--CODEGEN--\":33:36   */\n      dup2\n        /* \"--CODEGEN--\":27:37   */\n      sload\n        /* \"--CODEGEN--\":23:41   */\n      add\n        /* \"--CODEGEN--\":57:67   */\n      dup1\n        /* \"--CODEGEN--\":52:55   */\n      dup3\n        /* \"--CODEGEN--\":45:68   */\n      sstore\n        /* \"--CODEGEN--\":79:89   */\n      dup1\n        /* \"--CODEGEN--\":72:89   */\n      swap2\n      pop\n        /* \"--CODEGEN--\":0:93   */\n      pop\n        /* \"Ehealth.sol\":1795:1815  rsList.push(newData) */\n      0x01\n      swap1\n      sub\n      swap1\n      0x00\n      mstore\n      keccak256(0x00, 0x20)\n      swap1\n      0x04\n      mul\n      add\n      0x00\n      swap1\n      swap2\n      swap1\n      swap2\n      swap1\n      swap2\n      pop\n      0x00\n      dup3\n      add\n      mload\n      dup2\n      0x00\n      add\n      exp(0x0100, 0x00)\n      dup2\n      sload\n      dup2\n      0xffffffffffffffffffffffffffffffffffffffff\n      mul\n      not\n      and\n      swap1\n      dup4\n      0xffffffffffffffffffffffffffffffffffffffff\n      and\n      mul\n      or\n      swap1\n      sstore\n      pop\n      0x20\n      dup3\n      add\n      mload\n      dup2\n      0x01\n      add\n      swap1\n      dup1\n      mload\n      swap1\n      0x20\n      add\n      swap1\n      tag_166\n      swap3\n      swap2\n      swap1\n      tag_159\n      jump\t// in\n    tag_166:\n      pop\n      0x40\n      dup3\n      add\n      mload\n      dup2\n      0x02\n      add\n      swap1\n      dup1\n      mload\n      swap1\n      0x20\n      add\n      swap1\n      tag_167\n      swap3\n      swap2\n      swap1\n      tag_159\n      jump\t// in\n    tag_167:\n      pop\n      0x60\n      dup3\n      add\n      mload\n      dup2\n      0x03\n      add\n      swap1\n      dup1\n      mload\n      swap1\n      0x20\n      add\n      swap1\n      tag_168\n      swap3\n      swap2\n      swap1\n      tag_159\n      jump\t// in\n    tag_168:\n      pop\n      pop\n      pop\n        /* \"Ehealth.sol\":5112:5113  _ */\n      pop\n        /* \"Ehealth.sol\":1478:1823  function addRumahSakit(address _ethaddress, string memory _nama, string memory _idRS, string memory _alamat) isManager public {\r... */\n      pop\n      pop\n      pop\n      pop\n      jump\t// out\n        /* \"Ehealth.sol\":1017:1466  function addPasien(string memory _nik, string memory _nama, uint8 _umur, string memory _alamat) isRs public{\r... */\n    tag_39:\n        /* \"Ehealth.sol\":5162:5172  check_rs() */\n      tag_170\n        /* \"Ehealth.sol\":5162:5170  check_rs */\n      tag_14\n        /* \"Ehealth.sol\":5162:5172  check_rs() */\n      jump\t// in\n    tag_170:\n        /* \"Ehealth.sol\":5153:5173  require (check_rs()) */\n      tag_171\n      jumpi\n        /* \"--CODEGEN--\":12:13   */\n      0x00\n        /* \"--CODEGEN--\":9:10   */\n      dup1\n        /* \"--CODEGEN--\":2:14   */\n      revert\n        /* \"Ehealth.sol\":5153:5173  require (check_rs()) */\n    tag_171:\n        /* \"Ehealth.sol\":1135:1158  Pasien memory newPasien */\n      tag_173\n      tag_174\n      jump\t// in\n    tag_173:\n        /* \"Ehealth.sol\":1162:1421  Pasien({\r... */\n      mload(0x40)\n      dup1\n      0x0120\n      add\n      0x40\n      mstore\n      dup1\n        /* \"Ehealth.sol\":1187:1191  _nik */\n      dup7\n        /* \"Ehealth.sol\":1162:1421  Pasien({\r... */\n      dup2\n      mstore\n      0x20\n      add\n        /* \"Ehealth.sol\":1211:1216  _nama */\n      dup6\n        /* \"Ehealth.sol\":1162:1421  Pasien({\r... */\n      dup2\n      mstore\n      0x20\n      add\n        /* \"Ehealth.sol\":1236:1241  _umur */\n      dup5\n        /* \"Ehealth.sol\":1162:1421  Pasien({\r... */\n      0xff\n      and\n      dup2\n      mstore\n      0x20\n      add\n        /* \"Ehealth.sol\":1262:1269  _alamat */\n      dup4\n        /* \"Ehealth.sol\":1162:1421  Pasien({\r... */\n      dup2\n      mstore\n      0x20\n      add\n      mload(0x40)\n      dup1\n      0x20\n      add\n      0x40\n      mstore\n      dup1\n      0x00\n      dup2\n      mstore\n      pop\n      dup2\n      mstore\n      0x20\n      add\n      mload(0x40)\n      dup1\n      0x20\n      add\n      0x40\n      mstore\n      dup1\n      0x00\n      dup2\n      mstore\n      pop\n      dup2\n      mstore\n      0x20\n      add\n        /* \"Ehealth.sol\":1359:1360  0 */\n      0x00\n        /* \"Ehealth.sol\":1162:1421  Pasien({\r... */\n      0xff\n      and\n      dup2\n      mstore\n      0x20\n      add\n        /* \"Ehealth.sol\":1341:1342  0 */\n      0x00\n        /* \"Ehealth.sol\":1162:1421  Pasien({\r... */\n      0xff\n      and\n      dup2\n      mstore\n      0x20\n      add\n        /* \"Ehealth.sol\":1407:1408  0 */\n      0x00\n        /* \"Ehealth.sol\":1394:1409  new string[](0) */\n      0xffffffffffffffff\n      dup2\n      gt\n        /* \"--CODEGEN--\":5:14   */\n      dup1\n        /* \"--CODEGEN--\":2:4   */\n      iszero\n      tag_175\n      jumpi\n        /* \"--CODEGEN--\":27:28   */\n      0x00\n        /* \"--CODEGEN--\":24:25   */\n      dup1\n        /* \"--CODEGEN--\":17:29   */\n      revert\n        /* \"--CODEGEN--\":2:4   */\n    tag_175:\n        /* \"Ehealth.sol\":1394:1409  new string[](0) */\n      pop\n      mload(0x40)\n      swap1\n      dup1\n      dup3\n      mstore\n      dup1\n      0x20\n      mul\n      0x20\n      add\n      dup3\n      add\n      0x40\n      mstore\n      dup1\n      iszero\n      tag_176\n      jumpi\n      dup2\n      0x20\n      add\n    tag_177:\n      0x60\n      dup2\n      mstore\n      0x20\n      add\n      swap1\n      0x01\n      swap1\n      sub\n      swap1\n      dup2\n      tag_177\n      jumpi\n      swap1\n      pop\n    tag_176:\n      pop\n        /* \"Ehealth.sol\":1162:1421  Pasien({\r... */\n      dup2\n      mstore\n      pop\n        /* \"Ehealth.sol\":1135:1421  Pasien memory newPasien =  Pasien({\r... */\n      swap1\n      pop\n        /* \"Ehealth.sol\":1432:1442  pasienList */\n      0x02\n        /* \"Ehealth.sol\":1448:1457  newPasien */\n      dup2\n        /* \"Ehealth.sol\":1432:1458  pasienList.push(newPasien) */\n      swap1\n      dup1\n        /* \"--CODEGEN--\":39:40   */\n      0x01\n        /* \"--CODEGEN--\":33:36   */\n      dup2\n        /* \"--CODEGEN--\":27:37   */\n      sload\n        /* \"--CODEGEN--\":23:41   */\n      add\n        /* \"--CODEGEN--\":57:67   */\n      dup1\n        /* \"--CODEGEN--\":52:55   */\n      dup3\n        /* \"--CODEGEN--\":45:68   */\n      sstore\n        /* \"--CODEGEN--\":79:89   */\n      dup1\n        /* \"--CODEGEN--\":72:89   */\n      swap2\n      pop\n        /* \"--CODEGEN--\":0:93   */\n      pop\n        /* \"Ehealth.sol\":1432:1458  pasienList.push(newPasien) */\n      0x01\n      swap1\n      sub\n      swap1\n      0x00\n      mstore\n      keccak256(0x00, 0x20)\n      swap1\n      0x08\n      mul\n      add\n      0x00\n      swap1\n      swap2\n      swap1\n      swap2\n      swap1\n      swap2\n      pop\n      0x00\n      dup3\n      add\n      mload\n      dup2\n      0x00\n      add\n      swap1\n      dup1\n      mload\n      swap1\n      0x20\n      add\n      swap1\n      tag_179\n      swap3\n      swap2\n      swap1\n      tag_159\n      jump\t// in\n    tag_179:\n      pop\n      0x20\n      dup3\n      add\n      mload\n      dup2\n      0x01\n      add\n      swap1\n      dup1\n      mload\n      swap1\n      0x20\n      add\n      swap1\n      tag_180\n      swap3\n      swap2\n      swap1\n      tag_159\n      jump\t// in\n    tag_180:\n      pop\n      0x40\n      dup3\n      add\n      mload\n      dup2\n      0x02\n      add\n      exp(0x0100, 0x00)\n      dup2\n      sload\n      dup2\n      0xff\n      mul\n      not\n      and\n      swap1\n      dup4\n      0xff\n      and\n      mul\n      or\n      swap1\n      sstore\n      pop\n      0x60\n      dup3\n      add\n      mload\n      dup2\n      0x03\n      add\n      swap1\n      dup1\n      mload\n      swap1\n      0x20\n      add\n      swap1\n      tag_181\n      swap3\n      swap2\n      swap1\n      tag_159\n      jump\t// in\n    tag_181:\n      pop\n      0x80\n      dup3\n      add\n      mload\n      dup2\n      0x04\n      add\n      swap1\n      dup1\n      mload\n      swap1\n      0x20\n      add\n      swap1\n      tag_182\n      swap3\n      swap2\n      swap1\n      tag_159\n      jump\t// in\n    tag_182:\n      pop\n      0xa0\n      dup3\n      add\n      mload\n      dup2\n      0x05\n      add\n      swap1\n      dup1\n      mload\n      swap1\n      0x20\n      add\n      swap1\n      tag_183\n      swap3\n      swap2\n      swap1\n      tag_159\n      jump\t// in\n    tag_183:\n      pop\n      0xc0\n      dup3\n      add\n      mload\n      dup2\n      0x06\n      add\n      exp(0x0100, 0x00)\n      dup2\n      sload\n      dup2\n      0xff\n      mul\n      not\n      and\n      swap1\n      dup4\n      0xff\n      and\n      mul\n      or\n      swap1\n      sstore\n      pop\n      0xe0\n      dup3\n      add\n      mload\n      dup2\n      0x06\n      add\n      exp(0x0100, 0x01)\n      dup2\n      sload\n      dup2\n      0xff\n      mul\n      not\n      and\n      swap1\n      dup4\n      0xff\n      and\n      mul\n      or\n      swap1\n      sstore\n      pop\n      0x0100\n      dup3\n      add\n      mload\n      dup2\n      0x07\n      add\n      swap1\n      dup1\n      mload\n      swap1\n      0x20\n      add\n      swap1\n      tag_184\n      swap3\n      swap2\n      swap1\n      tag_185\n      jump\t// in\n    tag_184:\n      pop\n      pop\n      pop\n        /* \"Ehealth.sol\":5184:5185  _ */\n      pop\n        /* \"Ehealth.sol\":1017:1466  function addPasien(string memory _nik, string memory _nama, uint8 _umur, string memory _alamat) isRs public{\r... */\n      pop\n      pop\n      pop\n      pop\n      jump\t// out\n        /* \"Ehealth.sol\":2187:2731  function addInfoKesehatan (string memory _id, string memory _gulaDarah, string memory _tekananDarah, uint8 _bb, uint8 _tb) isRs public {\r... */\n    tag_43:\n        /* \"Ehealth.sol\":5162:5172  check_rs() */\n      tag_187\n        /* \"Ehealth.sol\":5162:5170  check_rs */\n      tag_14\n        /* \"Ehealth.sol\":5162:5172  check_rs() */\n      jump\t// in\n    tag_187:\n        /* \"Ehealth.sol\":5153:5173  require (check_rs()) */\n      tag_188\n      jumpi\n        /* \"--CODEGEN--\":12:13   */\n      0x00\n        /* \"--CODEGEN--\":9:10   */\n      dup1\n        /* \"--CODEGEN--\":2:14   */\n      revert\n        /* \"Ehealth.sol\":5153:5173  require (check_rs()) */\n    tag_188:\n        /* \"Ehealth.sol\":2337:2343  uint i */\n      0x00\n        /* \"Ehealth.sol\":2333:2724  for(uint i; i<pasienList.length; i++){\r... */\n    tag_190:\n        /* \"Ehealth.sol\":2347:2357  pasienList */\n      0x02\n        /* \"Ehealth.sol\":2347:2364  pasienList.length */\n      dup1\n      sload\n      swap1\n      pop\n        /* \"Ehealth.sol\":2345:2346  i */\n      dup2\n        /* \"Ehealth.sol\":2345:2364  i<pasienList.length */\n      lt\n        /* \"Ehealth.sol\":2333:2724  for(uint i; i<pasienList.length; i++){\r... */\n      iszero\n      tag_191\n      jumpi\n        /* \"Ehealth.sol\":2429:2439  pasienList */\n      0x02\n        /* \"Ehealth.sol\":2440:2441  i */\n      dup2\n        /* \"Ehealth.sol\":2429:2442  pasienList[i] */\n      dup2\n      sload\n      dup2\n      lt\n      tag_193\n      jumpi\n      invalid\n    tag_193:\n      swap1\n      0x00\n      mstore\n      keccak256(0x00, 0x20)\n      swap1\n      0x08\n      mul\n      add\n        /* \"Ehealth.sol\":2429:2446  pasienList[i].nik */\n      0x00\n      add\n        /* \"Ehealth.sol\":2413:2448  keccak256(bytes(pasienList[i].nik)) */\n      mload(0x40)\n      tag_195\n      swap2\n      swap1\n      jump(tag_70)\n    tag_195:\n      mload(0x40)\n      dup1\n      swap2\n      sub\n      swap1\n      keccak256\n        /* \"Ehealth.sol\":2404:2407  _id */\n      dup7\n        /* \"Ehealth.sol\":2388:2409  keccak256(bytes(_id)) */\n      dup1\n      mload\n      swap1\n      0x20\n      add\n      keccak256\n        /* \"Ehealth.sol\":2388:2448  keccak256(bytes(_id)) == keccak256(bytes(pasienList[i].nik)) */\n      eq\n        /* \"Ehealth.sol\":2385:2713  if(keccak256(bytes(_id)) == keccak256(bytes(pasienList[i].nik))){\r... */\n      iszero\n      tag_196\n      jumpi\n        /* \"Ehealth.sol\":2492:2502  _gulaDarah */\n      dup5\n        /* \"Ehealth.sol\":2468:2478  pasienList */\n      0x02\n        /* \"Ehealth.sol\":2479:2480  i */\n      dup3\n        /* \"Ehealth.sol\":2468:2481  pasienList[i] */\n      dup2\n      sload\n      dup2\n      lt\n      tag_197\n      jumpi\n      invalid\n    tag_197:\n      swap1\n      0x00\n      mstore\n      keccak256(0x00, 0x20)\n      swap1\n      0x08\n      mul\n      add\n        /* \"Ehealth.sol\":2468:2491  pasienList[i].gulaDarah */\n      0x04\n      add\n        /* \"Ehealth.sol\":2468:2502  pasienList[i].gulaDarah=_gulaDarah */\n      swap1\n      dup1\n      mload\n      swap1\n      0x20\n      add\n      swap1\n      tag_199\n      swap3\n      swap2\n      swap1\n      tag_159\n      jump\t// in\n    tag_199:\n      pop\n        /* \"Ehealth.sol\":2548:2561  _tekananDarah */\n      dup4\n        /* \"Ehealth.sol\":2521:2531  pasienList */\n      0x02\n        /* \"Ehealth.sol\":2532:2533  i */\n      dup3\n        /* \"Ehealth.sol\":2521:2534  pasienList[i] */\n      dup2\n      sload\n      dup2\n      lt\n      tag_200\n      jumpi\n      invalid\n    tag_200:\n      swap1\n      0x00\n      mstore\n      keccak256(0x00, 0x20)\n      swap1\n      0x08\n      mul\n      add\n        /* \"Ehealth.sol\":2521:2547  pasienList[i].tekananDarah */\n      0x05\n      add\n        /* \"Ehealth.sol\":2521:2561  pasienList[i].tekananDarah=_tekananDarah */\n      swap1\n      dup1\n      mload\n      swap1\n      0x20\n      add\n      swap1\n      tag_202\n      swap3\n      swap2\n      swap1\n      tag_159\n      jump\t// in\n    tag_202:\n      pop\n        /* \"Ehealth.sol\":2597:2600  _bb */\n      dup3\n        /* \"Ehealth.sol\":2580:2590  pasienList */\n      0x02\n        /* \"Ehealth.sol\":2591:2592  i */\n      dup3\n        /* \"Ehealth.sol\":2580:2593  pasienList[i] */\n      dup2\n      sload\n      dup2\n      lt\n      tag_203\n      jumpi\n      invalid\n    tag_203:\n      swap1\n      0x00\n      mstore\n      keccak256(0x00, 0x20)\n      swap1\n      0x08\n      mul\n      add\n        /* \"Ehealth.sol\":2580:2596  pasienList[i].bb */\n      0x06\n      add\n      0x01\n        /* \"Ehealth.sol\":2580:2600  pasienList[i].bb=_bb */\n      0x0100\n      exp\n      dup2\n      sload\n      dup2\n      0xff\n      mul\n      not\n      and\n      swap1\n      dup4\n      0xff\n      and\n      mul\n      or\n      swap1\n      sstore\n      pop\n        /* \"Ehealth.sol\":2636:2639  _tb */\n      dup2\n        /* \"Ehealth.sol\":2619:2629  pasienList */\n      0x02\n        /* \"Ehealth.sol\":2630:2631  i */\n      dup3\n        /* \"Ehealth.sol\":2619:2632  pasienList[i] */\n      dup2\n      sload\n      dup2\n      lt\n      tag_205\n      jumpi\n      invalid\n    tag_205:\n      swap1\n      0x00\n      mstore\n      keccak256(0x00, 0x20)\n      swap1\n      0x08\n      mul\n      add\n        /* \"Ehealth.sol\":2619:2635  pasienList[i].tb */\n      0x06\n      add\n      0x00\n        /* \"Ehealth.sol\":2619:2639  pasienList[i].tb=_tb */\n      0x0100\n      exp\n      dup2\n      sload\n      dup2\n      0xff\n      mul\n      not\n      and\n      swap1\n      dup4\n      0xff\n      and\n      mul\n      or\n      swap1\n      sstore\n      pop\n        /* \"Ehealth.sol\":2385:2713  if(keccak256(bytes(_id)) == keccak256(bytes(pasienList[i].nik))){\r... */\n      jump(tag_207)\n    tag_196:\n        /* \"Ehealth.sol\":2678:2697  revert(\"NIK Salah\") */\n      mload(0x40)\n      0x08c379a000000000000000000000000000000000000000000000000000000000\n      dup2\n      mstore\n      0x04\n      add\n      tag_208\n      swap1\n      jump(tag_209)\n    tag_208:\n      mload(0x40)\n      dup1\n      swap2\n      sub\n      swap1\n      revert\n        /* \"Ehealth.sol\":2385:2713  if(keccak256(bytes(_id)) == keccak256(bytes(pasienList[i].nik))){\r... */\n    tag_207:\n        /* \"Ehealth.sol\":2366:2369  i++ */\n      dup1\n      dup1\n      0x01\n      add\n      swap2\n      pop\n      pop\n        /* \"Ehealth.sol\":2333:2724  for(uint i; i<pasienList.length; i++){\r... */\n      jump(tag_190)\n    tag_191:\n      pop\n        /* \"Ehealth.sol\":2187:2731  function addInfoKesehatan (string memory _id, string memory _gulaDarah, string memory _tekananDarah, uint8 _bb, uint8 _tb) isRs public {\r... */\n      pop\n      pop\n      pop\n      pop\n      pop\n      jump\t// out\n        /* \"Ehealth.sol\":846:930  function getManager() public view returns(address) {\r... */\n    tag_45:\n        /* \"Ehealth.sol\":888:895  address */\n      0x00\n        /* \"Ehealth.sol\":915:922  manager */\n      dup1\n      0x00\n      swap1\n      sload\n      swap1\n      0x0100\n      exp\n      swap1\n      div\n      0xffffffffffffffffffffffffffffffffffffffff\n      and\n        /* \"Ehealth.sol\":908:922  return manager */\n      swap1\n      pop\n        /* \"Ehealth.sol\":846:930  function getManager() public view returns(address) {\r... */\n      swap1\n      jump\t// out\n        /* \"Ehealth.sol\":4126:4803  function getinfors(string memory _idRS) isManager public view returns(address, string memory, string memory, string memory){\r... */\n    tag_50:\n        /* \"Ehealth.sol\":4196:4203  address */\n      0x00\n        /* \"Ehealth.sol\":4205:4218  string memory */\n      0x60\n        /* \"Ehealth.sol\":4220:4233  string memory */\n      dup1\n        /* \"Ehealth.sol\":4235:4248  string memory */\n      0x60\n        /* \"Ehealth.sol\":5090:5100  msg.sender */\n      caller\n        /* \"Ehealth.sol\":5079:5100  manager == msg.sender */\n      0xffffffffffffffffffffffffffffffffffffffff\n      and\n        /* \"Ehealth.sol\":5079:5086  manager */\n      0x00\n      dup1\n      swap1\n      sload\n      swap1\n      0x0100\n      exp\n      swap1\n      div\n      0xffffffffffffffffffffffffffffffffffffffff\n      and\n        /* \"Ehealth.sol\":5079:5100  manager == msg.sender */\n      0xffffffffffffffffffffffffffffffffffffffff\n      and\n      eq\n        /* \"Ehealth.sol\":5070:5101  require (manager == msg.sender) */\n      tag_212\n      jumpi\n        /* \"--CODEGEN--\":12:13   */\n      0x00\n        /* \"--CODEGEN--\":9:10   */\n      dup1\n        /* \"--CODEGEN--\":2:14   */\n      revert\n        /* \"Ehealth.sol\":5070:5101  require (manager == msg.sender) */\n    tag_212:\n        /* \"Ehealth.sol\":4260:4279  address _ethaddress */\n      0x00\n        /* \"Ehealth.sol\":4290:4309  string memory _nama */\n      0x60\n        /* \"Ehealth.sol\":4320:4341  string memory _alamat */\n      dup1\n        /* \"Ehealth.sol\":4366:4372  uint i */\n      0x00\n        /* \"Ehealth.sol\":4375:4376  0 */\n      dup1\n        /* \"Ehealth.sol\":4366:4376  uint i = 0 */\n      swap1\n      pop\n        /* \"Ehealth.sol\":4362:4743  for(uint i = 0; i<rsList.length;i++){\r... */\n    tag_214:\n        /* \"Ehealth.sol\":4380:4386  rsList */\n      0x03\n        /* \"Ehealth.sol\":4380:4393  rsList.length */\n      dup1\n      sload\n      swap1\n      pop\n        /* \"Ehealth.sol\":4378:4379  i */\n      dup2\n        /* \"Ehealth.sol\":4378:4393  i<rsList.length */\n      lt\n        /* \"Ehealth.sol\":4362:4743  for(uint i = 0; i<rsList.length;i++){\r... */\n      iszero\n      tag_215\n      jumpi\n        /* \"Ehealth.sol\":4459:4465  rsList */\n      0x03\n        /* \"Ehealth.sol\":4466:4467  i */\n      dup2\n        /* \"Ehealth.sol\":4459:4468  rsList[i] */\n      dup2\n      sload\n      dup2\n      lt\n      tag_217\n      jumpi\n      invalid\n    tag_217:\n      swap1\n      0x00\n      mstore\n      keccak256(0x00, 0x20)\n      swap1\n      0x04\n      mul\n      add\n        /* \"Ehealth.sol\":4459:4473  rsList[i].idRS */\n      0x02\n      add\n        /* \"Ehealth.sol\":4443:4475  keccak256(bytes(rsList[i].idRS)) */\n      mload(0x40)\n      tag_219\n      swap2\n      swap1\n      jump(tag_70)\n    tag_219:\n      mload(0x40)\n      dup1\n      swap2\n      sub\n      swap1\n      keccak256\n        /* \"Ehealth.sol\":4432:4437  _idRS */\n      dup10\n        /* \"Ehealth.sol\":4416:4439  keccak256(bytes(_idRS)) */\n      dup1\n      mload\n      swap1\n      0x20\n      add\n      keccak256\n        /* \"Ehealth.sol\":4416:4475  keccak256(bytes(_idRS)) == keccak256(bytes(rsList[i].idRS)) */\n      eq\n        /* \"Ehealth.sol\":4413:4732  if(keccak256(bytes(_idRS)) == keccak256(bytes(rsList[i].idRS))){\r... */\n      iszero\n      tag_220\n      jumpi\n        /* \"Ehealth.sol\":4509:4515  rsList */\n      0x03\n        /* \"Ehealth.sol\":4516:4517  i */\n      dup2\n        /* \"Ehealth.sol\":4509:4518  rsList[i] */\n      dup2\n      sload\n      dup2\n      lt\n      tag_221\n      jumpi\n      invalid\n    tag_221:\n      swap1\n      0x00\n      mstore\n      keccak256(0x00, 0x20)\n      swap1\n      0x04\n      mul\n      add\n        /* \"Ehealth.sol\":4509:4529  rsList[i].ethaddress */\n      0x00\n      add\n      0x00\n      swap1\n      sload\n      swap1\n      0x0100\n      exp\n      swap1\n      div\n      0xffffffffffffffffffffffffffffffffffffffff\n      and\n        /* \"Ehealth.sol\":4495:4529  _ethaddress = rsList[i].ethaddress */\n      swap4\n      pop\n        /* \"Ehealth.sol\":4556:4562  rsList */\n      0x03\n        /* \"Ehealth.sol\":4563:4564  i */\n      dup2\n        /* \"Ehealth.sol\":4556:4565  rsList[i] */\n      dup2\n      sload\n      dup2\n      lt\n      tag_223\n      jumpi\n      invalid\n    tag_223:\n      swap1\n      0x00\n      mstore\n      keccak256(0x00, 0x20)\n      swap1\n      0x04\n      mul\n      add\n        /* \"Ehealth.sol\":4556:4570  rsList[i].nama */\n      0x01\n      add\n        /* \"Ehealth.sol\":4548:4570  _nama = rsList[i].nama */\n      dup1\n      sload\n      0x01\n      dup2\n      0x01\n      and\n      iszero\n      0x0100\n      mul\n      sub\n      and\n      0x02\n      swap1\n      div\n      dup1\n      0x1f\n      add\n      0x20\n      dup1\n      swap2\n      div\n      mul\n      0x20\n      add\n      mload(0x40)\n      swap1\n      dup2\n      add\n      0x40\n      mstore\n      dup1\n      swap3\n      swap2\n      swap1\n      dup2\n      dup2\n      mstore\n      0x20\n      add\n      dup3\n      dup1\n      sload\n      0x01\n      dup2\n      0x01\n      and\n      iszero\n      0x0100\n      mul\n      sub\n      and\n      0x02\n      swap1\n      div\n      dup1\n      iszero\n      tag_225\n      jumpi\n      dup1\n      0x1f\n      lt\n      tag_226\n      jumpi\n      0x0100\n      dup1\n      dup4\n      sload\n      div\n      mul\n      dup4\n      mstore\n      swap2\n      0x20\n      add\n      swap2\n      jump(tag_225)\n    tag_226:\n      dup3\n      add\n      swap2\n      swap1\n      0x00\n      mstore\n      keccak256(0x00, 0x20)\n      swap1\n    tag_227:\n      dup2\n      sload\n      dup2\n      mstore\n      swap1\n      0x01\n      add\n      swap1\n      0x20\n      add\n      dup1\n      dup4\n      gt\n      tag_227\n      jumpi\n      dup3\n      swap1\n      sub\n      0x1f\n      and\n      dup3\n      add\n      swap2\n    tag_225:\n      pop\n      pop\n      pop\n      pop\n      pop\n      swap3\n      pop\n        /* \"Ehealth.sol\":4597:4603  rsList */\n      0x03\n        /* \"Ehealth.sol\":4604:4605  i */\n      dup2\n        /* \"Ehealth.sol\":4597:4606  rsList[i] */\n      dup2\n      sload\n      dup2\n      lt\n      tag_228\n      jumpi\n      invalid\n    tag_228:\n      swap1\n      0x00\n      mstore\n      keccak256(0x00, 0x20)\n      swap1\n      0x04\n      mul\n      add\n        /* \"Ehealth.sol\":4597:4611  rsList[i].idRS */\n      0x02\n      add\n        /* \"Ehealth.sol\":4589:4611  _idRS = rsList[i].idRS */\n      dup1\n      sload\n      0x01\n      dup2\n      0x01\n      and\n      iszero\n      0x0100\n      mul\n      sub\n      and\n      0x02\n      swap1\n      div\n      dup1\n      0x1f\n      add\n      0x20\n      dup1\n      swap2\n      div\n      mul\n      0x20\n      add\n      mload(0x40)\n      swap1\n      dup2\n      add\n      0x40\n      mstore\n      dup1\n      swap3\n      swap2\n      swap1\n      dup2\n      dup2\n      mstore\n      0x20\n      add\n      dup3\n      dup1\n      sload\n      0x01\n      dup2\n      0x01\n      and\n      iszero\n      0x0100\n      mul\n      sub\n      and\n      0x02\n      swap1\n      div\n      dup1\n      iszero\n      tag_230\n      jumpi\n      dup1\n      0x1f\n      lt\n      tag_231\n      jumpi\n      0x0100\n      dup1\n      dup4\n      sload\n      div\n      mul\n      dup4\n      mstore\n      swap2\n      0x20\n      add\n      swap2\n      jump(tag_230)\n    tag_231:\n      dup3\n      add\n      swap2\n      swap1\n      0x00\n      mstore\n      keccak256(0x00, 0x20)\n      swap1\n    tag_232:\n      dup2\n      sload\n      dup2\n      mstore\n      swap1\n      0x01\n      add\n      swap1\n      0x20\n      add\n      dup1\n      dup4\n      gt\n      tag_232\n      jumpi\n      dup3\n      swap1\n      sub\n      0x1f\n      and\n      dup3\n      add\n      swap2\n    tag_230:\n      pop\n      pop\n      pop\n      pop\n      pop\n      swap9\n      pop\n        /* \"Ehealth.sol\":4640:4646  rsList */\n      0x03\n        /* \"Ehealth.sol\":4647:4648  i */\n      dup2\n        /* \"Ehealth.sol\":4640:4649  rsList[i] */\n      dup2\n      sload\n      dup2\n      lt\n      tag_233\n      jumpi\n      invalid\n    tag_233:\n      swap1\n      0x00\n      mstore\n      keccak256(0x00, 0x20)\n      swap1\n      0x04\n      mul\n      add\n        /* \"Ehealth.sol\":4640:4656  rsList[i].alamat */\n      0x03\n      add\n        /* \"Ehealth.sol\":4630:4656  _alamat = rsList[i].alamat */\n      dup1\n      sload\n      0x01\n      dup2\n      0x01\n      and\n      iszero\n      0x0100\n      mul\n      sub\n      and\n      0x02\n      swap1\n      div\n      dup1\n      0x1f\n      add\n      0x20\n      dup1\n      swap2\n      div\n      mul\n      0x20\n      add\n      mload(0x40)\n      swap1\n      dup2\n      add\n      0x40\n      mstore\n      dup1\n      swap3\n      swap2\n      swap1\n      dup2\n      dup2\n      mstore\n      0x20\n      add\n      dup3\n      dup1\n      sload\n      0x01\n      dup2\n      0x01\n      and\n      iszero\n      0x0100\n      mul\n      sub\n      and\n      0x02\n      swap1\n      div\n      dup1\n      iszero\n      tag_235\n      jumpi\n      dup1\n      0x1f\n      lt\n      tag_236\n      jumpi\n      0x0100\n      dup1\n      dup4\n      sload\n      div\n      mul\n      dup4\n      mstore\n      swap2\n      0x20\n      add\n      swap2\n      jump(tag_235)\n    tag_236:\n      dup3\n      add\n      swap2\n      swap1\n      0x00\n      mstore\n      keccak256(0x00, 0x20)\n      swap1\n    tag_237:\n      dup2\n      sload\n      dup2\n      mstore\n      swap1\n      0x01\n      add\n      swap1\n      0x20\n      add\n      dup1\n      dup4\n      gt\n      tag_237\n      jumpi\n      dup3\n      swap1\n      sub\n      0x1f\n      and\n      dup3\n      add\n      swap2\n    tag_235:\n      pop\n      pop\n      pop\n      pop\n      pop\n      swap2\n      pop\n        /* \"Ehealth.sol\":4413:4732  if(keccak256(bytes(_idRS)) == keccak256(bytes(rsList[i].idRS))){\r... */\n      jump(tag_238)\n    tag_220:\n        /* \"Ehealth.sol\":4695:4716  revert(\"ID RS Salah\") */\n      mload(0x40)\n      0x08c379a000000000000000000000000000000000000000000000000000000000\n      dup2\n      mstore\n      0x04\n      add\n      tag_239\n      swap1\n      jump(tag_240)\n    tag_239:\n      mload(0x40)\n      dup1\n      swap2\n      sub\n      swap1\n      revert\n        /* \"Ehealth.sol\":4413:4732  if(keccak256(bytes(_idRS)) == keccak256(bytes(rsList[i].idRS))){\r... */\n    tag_238:\n        /* \"Ehealth.sol\":4394:4397  i++ */\n      dup1\n      dup1\n      0x01\n      add\n      swap2\n      pop\n      pop\n        /* \"Ehealth.sol\":4362:4743  for(uint i = 0; i<rsList.length;i++){\r... */\n      jump(tag_214)\n    tag_215:\n      pop\n        /* \"Ehealth.sol\":4760:4771  _ethaddress */\n      dup3\n        /* \"Ehealth.sol\":4773:4778  _nama */\n      dup3\n        /* \"Ehealth.sol\":4780:4785  _idRS */\n      dup10\n        /* \"Ehealth.sol\":4787:4794  _alamat */\n      dup4\n        /* \"Ehealth.sol\":4753:4795  return(_ethaddress, _nama, _idRS, _alamat) */\n      swap7\n      pop\n      swap7\n      pop\n      swap7\n      pop\n      swap7\n      pop\n      pop\n      pop\n      pop\n        /* \"Ehealth.sol\":4126:4803  function getinfors(string memory _idRS) isManager public view returns(address, string memory, string memory, string memory){\r... */\n      swap2\n      swap4\n      pop\n      swap2\n      swap4\n      jump\t// out\n        /* \"Ehealth.sol\":95:5196  contract Ehealth{\r... */\n    tag_159:\n      dup3\n      dup1\n      sload\n      0x01\n      dup2\n      0x01\n      and\n      iszero\n      0x0100\n      mul\n      sub\n      and\n      0x02\n      swap1\n      div\n      swap1\n      0x00\n      mstore\n      keccak256(0x00, 0x20)\n      swap1\n      0x1f\n      add\n      0x20\n      swap1\n      div\n      dup2\n      add\n      swap3\n      dup3\n      0x1f\n      lt\n      tag_242\n      jumpi\n      dup1\n      mload\n      not(0xff)\n      and\n      dup4\n      dup1\n      add\n      or\n      dup6\n      sstore\n      jump(tag_241)\n    tag_242:\n      dup3\n      dup1\n      add\n      0x01\n      add\n      dup6\n      sstore\n      dup3\n      iszero\n      tag_241\n      jumpi\n      swap2\n      dup3\n      add\n    tag_243:\n      dup3\n      dup2\n      gt\n      iszero\n      tag_244\n      jumpi\n      dup3\n      mload\n      dup3\n      sstore\n      swap2\n      0x20\n      add\n      swap2\n      swap1\n      0x01\n      add\n      swap1\n      jump(tag_243)\n    tag_244:\n    tag_241:\n      pop\n      swap1\n      pop\n      tag_245\n      swap2\n      swap1\n      tag_246\n      jump\t// in\n    tag_245:\n      pop\n      swap1\n      jump\t// out\n    tag_164:\n      mload(0x40)\n      dup1\n      0x80\n      add\n      0x40\n      mstore\n      dup1\n      and(0xffffffffffffffffffffffffffffffffffffffff, 0x00)\n      dup2\n      mstore\n      0x20\n      add\n      0x60\n      dup2\n      mstore\n      0x20\n      add\n      0x60\n      dup2\n      mstore\n      0x20\n      add\n      0x60\n      dup2\n      mstore\n      pop\n      swap1\n      jump\t// out\n    tag_174:\n      mload(0x40)\n      dup1\n      0x0120\n      add\n      0x40\n      mstore\n      dup1\n      0x60\n      dup2\n      mstore\n      0x20\n      add\n      0x60\n      dup2\n      mstore\n      0x20\n      add\n      and(0xff, 0x00)\n      dup2\n      mstore\n      0x20\n      add\n      0x60\n      dup2\n      mstore\n      0x20\n      add\n      0x60\n      dup2\n      mstore\n      0x20\n      add\n      0x60\n      dup2\n      mstore\n      0x20\n      add\n      and(0xff, 0x00)\n      dup2\n      mstore\n      0x20\n      add\n      and(0xff, 0x00)\n      dup2\n      mstore\n      0x20\n      add\n      0x60\n      dup2\n      mstore\n      pop\n      swap1\n      jump\t// out\n    tag_185:\n      dup3\n      dup1\n      sload\n      dup3\n      dup3\n      sstore\n      swap1\n      0x00\n      mstore\n      keccak256(0x00, 0x20)\n      swap1\n      dup2\n      add\n      swap3\n      dup3\n      iszero\n      tag_247\n      jumpi\n      swap2\n      0x20\n      mul\n      dup3\n      add\n    tag_248:\n      dup3\n      dup2\n      gt\n      iszero\n      tag_249\n      jumpi\n      dup3\n      mload\n      dup3\n      swap1\n      dup1\n      mload\n      swap1\n      0x20\n      add\n      swap1\n      tag_250\n      swap3\n      swap2\n      swap1\n      tag_159\n      jump\t// in\n    tag_250:\n      pop\n      swap2\n      0x20\n      add\n      swap2\n      swap1\n      0x01\n      add\n      swap1\n      jump(tag_248)\n    tag_249:\n    tag_247:\n      pop\n      swap1\n      pop\n      tag_251\n      swap2\n      swap1\n      tag_252\n      jump\t// in\n    tag_251:\n      pop\n      swap1\n      jump\t// out\n    tag_246:\n      tag_253\n      swap2\n      swap1\n    tag_254:\n      dup1\n      dup3\n      gt\n      iszero\n      tag_255\n      jumpi\n      0x00\n      dup2\n      0x00\n      swap1\n      sstore\n      pop\n      0x01\n      add\n      jump(tag_254)\n    tag_255:\n      pop\n      swap1\n      jump\n    tag_253:\n      swap1\n      jump\t// out\n    tag_252:\n      tag_256\n      swap2\n      swap1\n    tag_257:\n      dup1\n      dup3\n      gt\n      iszero\n      tag_258\n      jumpi\n      0x00\n      dup2\n      dup2\n      tag_259\n      swap2\n      swap1\n      tag_260\n      jump\t// in\n    tag_259:\n      pop\n      0x01\n      add\n      jump(tag_257)\n    tag_258:\n      pop\n      swap1\n      jump\n    tag_256:\n      swap1\n      jump\t// out\n    tag_260:\n      pop\n      dup1\n      sload\n      0x01\n      dup2\n      0x01\n      and\n      iszero\n      0x0100\n      mul\n      sub\n      and\n      0x02\n      swap1\n      div\n      0x00\n      dup3\n      sstore\n      dup1\n      0x1f\n      lt\n      tag_262\n      jumpi\n      pop\n      jump(tag_261)\n    tag_262:\n      0x1f\n      add\n      0x20\n      swap1\n      div\n      swap1\n      0x00\n      mstore\n      keccak256(0x00, 0x20)\n      swap1\n      dup2\n      add\n      swap1\n      tag_263\n      swap2\n      swap1\n      tag_246\n      jump\t// in\n    tag_263:\n    tag_261:\n      pop\n      jump\t// out\n        /* \"--CODEGEN--\":5:135   */\n    tag_265:\n      0x00\n        /* \"--CODEGEN--\":85:91   */\n      dup2\n        /* \"--CODEGEN--\":72:92   */\n      calldataload\n        /* \"--CODEGEN--\":63:92   */\n      swap1\n      pop\n        /* \"--CODEGEN--\":97:130   */\n      tag_267\n        /* \"--CODEGEN--\":124:129   */\n      dup2\n        /* \"--CODEGEN--\":97:130   */\n      jump(tag_268)\n    tag_267:\n        /* \"--CODEGEN--\":57:135   */\n      swap3\n      swap2\n      pop\n      pop\n      jump\n        /* \"--CODEGEN--\":143:585   */\n    tag_269:\n      0x00\n        /* \"--CODEGEN--\":245:248   */\n      dup3\n        /* \"--CODEGEN--\":238:242   */\n      0x1f\n        /* \"--CODEGEN--\":230:236   */\n      dup4\n        /* \"--CODEGEN--\":226:243   */\n      add\n        /* \"--CODEGEN--\":222:249   */\n      slt\n        /* \"--CODEGEN--\":212:214   */\n      tag_271\n      jumpi\n        /* \"--CODEGEN--\":263:264   */\n      0x00\n        /* \"--CODEGEN--\":260:261   */\n      dup1\n        /* \"--CODEGEN--\":253:265   */\n      revert\n        /* \"--CODEGEN--\":212:214   */\n    tag_271:\n        /* \"--CODEGEN--\":300:306   */\n      dup2\n        /* \"--CODEGEN--\":287:307   */\n      calldataload\n        /* \"--CODEGEN--\":322:387   */\n      tag_272\n        /* \"--CODEGEN--\":337:386   */\n      tag_273\n        /* \"--CODEGEN--\":379:385   */\n      dup3\n        /* \"--CODEGEN--\":337:386   */\n      jump(tag_274)\n    tag_273:\n        /* \"--CODEGEN--\":322:387   */\n      jump(tag_275)\n    tag_272:\n        /* \"--CODEGEN--\":313:387   */\n      swap2\n      pop\n        /* \"--CODEGEN--\":407:413   */\n      dup1\n        /* \"--CODEGEN--\":400:405   */\n      dup3\n        /* \"--CODEGEN--\":393:414   */\n      mstore\n        /* \"--CODEGEN--\":443:447   */\n      0x20\n        /* \"--CODEGEN--\":435:441   */\n      dup4\n        /* \"--CODEGEN--\":431:448   */\n      add\n        /* \"--CODEGEN--\":476:480   */\n      0x20\n        /* \"--CODEGEN--\":469:474   */\n      dup4\n        /* \"--CODEGEN--\":465:481   */\n      add\n        /* \"--CODEGEN--\":511:514   */\n      dup6\n        /* \"--CODEGEN--\":502:508   */\n      dup4\n        /* \"--CODEGEN--\":497:500   */\n      dup4\n        /* \"--CODEGEN--\":493:509   */\n      add\n        /* \"--CODEGEN--\":490:515   */\n      gt\n        /* \"--CODEGEN--\":487:489   */\n      iszero\n      tag_276\n      jumpi\n        /* \"--CODEGEN--\":528:529   */\n      0x00\n        /* \"--CODEGEN--\":525:526   */\n      dup1\n        /* \"--CODEGEN--\":518:530   */\n      revert\n        /* \"--CODEGEN--\":487:489   */\n    tag_276:\n        /* \"--CODEGEN--\":538:579   */\n      tag_277\n        /* \"--CODEGEN--\":572:578   */\n      dup4\n        /* \"--CODEGEN--\":567:570   */\n      dup3\n        /* \"--CODEGEN--\":562:565   */\n      dup5\n        /* \"--CODEGEN--\":538:579   */\n      jump(tag_278)\n    tag_277:\n        /* \"--CODEGEN--\":205:585   */\n      pop\n      pop\n      pop\n      swap3\n      swap2\n      pop\n      pop\n      jump\n        /* \"--CODEGEN--\":593:719   */\n    tag_279:\n      0x00\n        /* \"--CODEGEN--\":671:677   */\n      dup2\n        /* \"--CODEGEN--\":658:678   */\n      calldataload\n        /* \"--CODEGEN--\":649:678   */\n      swap1\n      pop\n        /* \"--CODEGEN--\":683:714   */\n      tag_281\n        /* \"--CODEGEN--\":708:713   */\n      dup2\n        /* \"--CODEGEN--\":683:714   */\n      jump(tag_282)\n    tag_281:\n        /* \"--CODEGEN--\":643:719   */\n      swap3\n      swap2\n      pop\n      pop\n      jump\n        /* \"--CODEGEN--\":726:1661   */\n    tag_34:\n      0x00\n      dup1\n      0x00\n      dup1\n        /* \"--CODEGEN--\":911:914   */\n      0x80\n        /* \"--CODEGEN--\":899:908   */\n      dup6\n        /* \"--CODEGEN--\":890:897   */\n      dup8\n        /* \"--CODEGEN--\":886:909   */\n      sub\n        /* \"--CODEGEN--\":882:915   */\n      slt\n        /* \"--CODEGEN--\":879:881   */\n      iszero\n      tag_284\n      jumpi\n        /* \"--CODEGEN--\":928:929   */\n      0x00\n        /* \"--CODEGEN--\":925:926   */\n      dup1\n        /* \"--CODEGEN--\":918:930   */\n      revert\n        /* \"--CODEGEN--\":879:881   */\n    tag_284:\n        /* \"--CODEGEN--\":963:964   */\n      0x00\n        /* \"--CODEGEN--\":980:1033   */\n      tag_285\n        /* \"--CODEGEN--\":1025:1032   */\n      dup8\n        /* \"--CODEGEN--\":1016:1022   */\n      dup3\n        /* \"--CODEGEN--\":1005:1014   */\n      dup9\n        /* \"--CODEGEN--\":1001:1023   */\n      add\n        /* \"--CODEGEN--\":980:1033   */\n      jump(tag_265)\n    tag_285:\n        /* \"--CODEGEN--\":970:1033   */\n      swap5\n      pop\n        /* \"--CODEGEN--\":942:1039   */\n      pop\n        /* \"--CODEGEN--\":1098:1100   */\n      0x20\n        /* \"--CODEGEN--\":1087:1096   */\n      dup6\n        /* \"--CODEGEN--\":1083:1101   */\n      add\n        /* \"--CODEGEN--\":1070:1102   */\n      calldataload\n        /* \"--CODEGEN--\":1122:1140   */\n      0xffffffffffffffff\n        /* \"--CODEGEN--\":1114:1120   */\n      dup2\n        /* \"--CODEGEN--\":1111:1141   */\n      gt\n        /* \"--CODEGEN--\":1108:1110   */\n      iszero\n      tag_286\n      jumpi\n        /* \"--CODEGEN--\":1154:1155   */\n      0x00\n        /* \"--CODEGEN--\":1151:1152   */\n      dup1\n        /* \"--CODEGEN--\":1144:1156   */\n      revert\n        /* \"--CODEGEN--\":1108:1110   */\n    tag_286:\n        /* \"--CODEGEN--\":1174:1237   */\n      tag_287\n        /* \"--CODEGEN--\":1229:1236   */\n      dup8\n        /* \"--CODEGEN--\":1220:1226   */\n      dup3\n        /* \"--CODEGEN--\":1209:1218   */\n      dup9\n        /* \"--CODEGEN--\":1205:1227   */\n      add\n        /* \"--CODEGEN--\":1174:1237   */\n      jump(tag_269)\n    tag_287:\n        /* \"--CODEGEN--\":1164:1237   */\n      swap4\n      pop\n        /* \"--CODEGEN--\":1049:1243   */\n      pop\n        /* \"--CODEGEN--\":1302:1304   */\n      0x40\n        /* \"--CODEGEN--\":1291:1300   */\n      dup6\n        /* \"--CODEGEN--\":1287:1305   */\n      add\n        /* \"--CODEGEN--\":1274:1306   */\n      calldataload\n        /* \"--CODEGEN--\":1326:1344   */\n      0xffffffffffffffff\n        /* \"--CODEGEN--\":1318:1324   */\n      dup2\n        /* \"--CODEGEN--\":1315:1345   */\n      gt\n        /* \"--CODEGEN--\":1312:1314   */\n      iszero\n      tag_288\n      jumpi\n        /* \"--CODEGEN--\":1358:1359   */\n      0x00\n        /* \"--CODEGEN--\":1355:1356   */\n      dup1\n        /* \"--CODEGEN--\":1348:1360   */\n      revert\n        /* \"--CODEGEN--\":1312:1314   */\n    tag_288:\n        /* \"--CODEGEN--\":1378:1441   */\n      tag_289\n        /* \"--CODEGEN--\":1433:1440   */\n      dup8\n        /* \"--CODEGEN--\":1424:1430   */\n      dup3\n        /* \"--CODEGEN--\":1413:1422   */\n      dup9\n        /* \"--CODEGEN--\":1409:1431   */\n      add\n        /* \"--CODEGEN--\":1378:1441   */\n      jump(tag_269)\n    tag_289:\n        /* \"--CODEGEN--\":1368:1441   */\n      swap3\n      pop\n        /* \"--CODEGEN--\":1253:1447   */\n      pop\n        /* \"--CODEGEN--\":1506:1508   */\n      0x60\n        /* \"--CODEGEN--\":1495:1504   */\n      dup6\n        /* \"--CODEGEN--\":1491:1509   */\n      add\n        /* \"--CODEGEN--\":1478:1510   */\n      calldataload\n        /* \"--CODEGEN--\":1530:1548   */\n      0xffffffffffffffff\n        /* \"--CODEGEN--\":1522:1528   */\n      dup2\n        /* \"--CODEGEN--\":1519:1549   */\n      gt\n        /* \"--CODEGEN--\":1516:1518   */\n      iszero\n      tag_290\n      jumpi\n        /* \"--CODEGEN--\":1562:1563   */\n      0x00\n        /* \"--CODEGEN--\":1559:1560   */\n      dup1\n        /* \"--CODEGEN--\":1552:1564   */\n      revert\n        /* \"--CODEGEN--\":1516:1518   */\n    tag_290:\n        /* \"--CODEGEN--\":1582:1645   */\n      tag_291\n        /* \"--CODEGEN--\":1637:1644   */\n      dup8\n        /* \"--CODEGEN--\":1628:1634   */\n      dup3\n        /* \"--CODEGEN--\":1617:1626   */\n      dup9\n        /* \"--CODEGEN--\":1613:1635   */\n      add\n        /* \"--CODEGEN--\":1582:1645   */\n      jump(tag_269)\n    tag_291:\n        /* \"--CODEGEN--\":1572:1645   */\n      swap2\n      pop\n        /* \"--CODEGEN--\":1457:1651   */\n      pop\n        /* \"--CODEGEN--\":873:1661   */\n      swap3\n      swap6\n      swap2\n      swap5\n      pop\n      swap3\n      pop\n      jump\n        /* \"--CODEGEN--\":1668:2015   */\n    tag_19:\n      0x00\n        /* \"--CODEGEN--\":1782:1784   */\n      0x20\n        /* \"--CODEGEN--\":1770:1779   */\n      dup3\n        /* \"--CODEGEN--\":1761:1768   */\n      dup5\n        /* \"--CODEGEN--\":1757:1780   */\n      sub\n        /* \"--CODEGEN--\":1753:1785   */\n      slt\n        /* \"--CODEGEN--\":1750:1752   */\n      iszero\n      tag_293\n      jumpi\n        /* \"--CODEGEN--\":1798:1799   */\n      0x00\n        /* \"--CODEGEN--\":1795:1796   */\n      dup1\n        /* \"--CODEGEN--\":1788:1800   */\n      revert\n        /* \"--CODEGEN--\":1750:1752   */\n    tag_293:\n        /* \"--CODEGEN--\":1861:1862   */\n      0x00\n        /* \"--CODEGEN--\":1850:1859   */\n      dup3\n        /* \"--CODEGEN--\":1846:1863   */\n      add\n        /* \"--CODEGEN--\":1833:1864   */\n      calldataload\n        /* \"--CODEGEN--\":1884:1902   */\n      0xffffffffffffffff\n        /* \"--CODEGEN--\":1876:1882   */\n      dup2\n        /* \"--CODEGEN--\":1873:1903   */\n      gt\n        /* \"--CODEGEN--\":1870:1872   */\n      iszero\n      tag_294\n      jumpi\n        /* \"--CODEGEN--\":1916:1917   */\n      0x00\n        /* \"--CODEGEN--\":1913:1914   */\n      dup1\n        /* \"--CODEGEN--\":1906:1918   */\n      revert\n        /* \"--CODEGEN--\":1870:1872   */\n    tag_294:\n        /* \"--CODEGEN--\":1936:1999   */\n      tag_295\n        /* \"--CODEGEN--\":1991:1998   */\n      dup5\n        /* \"--CODEGEN--\":1982:1988   */\n      dup3\n        /* \"--CODEGEN--\":1971:1980   */\n      dup6\n        /* \"--CODEGEN--\":1967:1989   */\n      add\n        /* \"--CODEGEN--\":1936:1999   */\n      jump(tag_269)\n    tag_295:\n        /* \"--CODEGEN--\":1926:1999   */\n      swap2\n      pop\n        /* \"--CODEGEN--\":1812:2005   */\n      pop\n        /* \"--CODEGEN--\":1744:2015   */\n      swap3\n      swap2\n      pop\n      pop\n      jump\n        /* \"--CODEGEN--\":2022:2600   */\n    tag_30:\n      0x00\n      dup1\n        /* \"--CODEGEN--\":2163:2165   */\n      0x40\n        /* \"--CODEGEN--\":2151:2160   */\n      dup4\n        /* \"--CODEGEN--\":2142:2149   */\n      dup6\n        /* \"--CODEGEN--\":2138:2161   */\n      sub\n        /* \"--CODEGEN--\":2134:2166   */\n      slt\n        /* \"--CODEGEN--\":2131:2133   */\n      iszero\n      tag_297\n      jumpi\n        /* \"--CODEGEN--\":2179:2180   */\n      0x00\n        /* \"--CODEGEN--\":2176:2177   */\n      dup1\n        /* \"--CODEGEN--\":2169:2181   */\n      revert\n        /* \"--CODEGEN--\":2131:2133   */\n    tag_297:\n        /* \"--CODEGEN--\":2242:2243   */\n      0x00\n        /* \"--CODEGEN--\":2231:2240   */\n      dup4\n        /* \"--CODEGEN--\":2227:2244   */\n      add\n        /* \"--CODEGEN--\":2214:2245   */\n      calldataload\n        /* \"--CODEGEN--\":2265:2283   */\n      0xffffffffffffffff\n        /* \"--CODEGEN--\":2257:2263   */\n      dup2\n        /* \"--CODEGEN--\":2254:2284   */\n      gt\n        /* \"--CODEGEN--\":2251:2253   */\n      iszero\n      tag_298\n      jumpi\n        /* \"--CODEGEN--\":2297:2298   */\n      0x00\n        /* \"--CODEGEN--\":2294:2295   */\n      dup1\n        /* \"--CODEGEN--\":2287:2299   */\n      revert\n        /* \"--CODEGEN--\":2251:2253   */\n    tag_298:\n        /* \"--CODEGEN--\":2317:2380   */\n      tag_299\n        /* \"--CODEGEN--\":2372:2379   */\n      dup6\n        /* \"--CODEGEN--\":2363:2369   */\n      dup3\n        /* \"--CODEGEN--\":2352:2361   */\n      dup7\n        /* \"--CODEGEN--\":2348:2370   */\n      add\n        /* \"--CODEGEN--\":2317:2380   */\n      jump(tag_269)\n    tag_299:\n        /* \"--CODEGEN--\":2307:2380   */\n      swap3\n      pop\n        /* \"--CODEGEN--\":2193:2386   */\n      pop\n        /* \"--CODEGEN--\":2445:2447   */\n      0x20\n        /* \"--CODEGEN--\":2434:2443   */\n      dup4\n        /* \"--CODEGEN--\":2430:2448   */\n      add\n        /* \"--CODEGEN--\":2417:2449   */\n      calldataload\n        /* \"--CODEGEN--\":2469:2487   */\n      0xffffffffffffffff\n        /* \"--CODEGEN--\":2461:2467   */\n      dup2\n        /* \"--CODEGEN--\":2458:2488   */\n      gt\n        /* \"--CODEGEN--\":2455:2457   */\n      iszero\n      tag_300\n      jumpi\n        /* \"--CODEGEN--\":2501:2502   */\n      0x00\n        /* \"--CODEGEN--\":2498:2499   */\n      dup1\n        /* \"--CODEGEN--\":2491:2503   */\n      revert\n        /* \"--CODEGEN--\":2455:2457   */\n    tag_300:\n        /* \"--CODEGEN--\":2521:2584   */\n      tag_301\n        /* \"--CODEGEN--\":2576:2583   */\n      dup6\n        /* \"--CODEGEN--\":2567:2573   */\n      dup3\n        /* \"--CODEGEN--\":2556:2565   */\n      dup7\n        /* \"--CODEGEN--\":2552:2574   */\n      add\n        /* \"--CODEGEN--\":2521:2584   */\n      jump(tag_269)\n    tag_301:\n        /* \"--CODEGEN--\":2511:2584   */\n      swap2\n      pop\n        /* \"--CODEGEN--\":2396:2590   */\n      pop\n        /* \"--CODEGEN--\":2125:2600   */\n      swap3\n      pop\n      swap3\n      swap1\n      pop\n      jump\n        /* \"--CODEGEN--\":2607:3660   */\n    tag_42:\n      0x00\n      dup1\n      0x00\n      dup1\n      0x00\n        /* \"--CODEGEN--\":2805:2808   */\n      0xa0\n        /* \"--CODEGEN--\":2793:2802   */\n      dup7\n        /* \"--CODEGEN--\":2784:2791   */\n      dup9\n        /* \"--CODEGEN--\":2780:2803   */\n      sub\n        /* \"--CODEGEN--\":2776:2809   */\n      slt\n        /* \"--CODEGEN--\":2773:2775   */\n      iszero\n      tag_303\n      jumpi\n        /* \"--CODEGEN--\":2822:2823   */\n      0x00\n        /* \"--CODEGEN--\":2819:2820   */\n      dup1\n        /* \"--CODEGEN--\":2812:2824   */\n      revert\n        /* \"--CODEGEN--\":2773:2775   */\n    tag_303:\n        /* \"--CODEGEN--\":2885:2886   */\n      0x00\n        /* \"--CODEGEN--\":2874:2883   */\n      dup7\n        /* \"--CODEGEN--\":2870:2887   */\n      add\n        /* \"--CODEGEN--\":2857:2888   */\n      calldataload\n        /* \"--CODEGEN--\":2908:2926   */\n      0xffffffffffffffff\n        /* \"--CODEGEN--\":2900:2906   */\n      dup2\n        /* \"--CODEGEN--\":2897:2927   */\n      gt\n        /* \"--CODEGEN--\":2894:2896   */\n      iszero\n      tag_304\n      jumpi\n        /* \"--CODEGEN--\":2940:2941   */\n      0x00\n        /* \"--CODEGEN--\":2937:2938   */\n      dup1\n        /* \"--CODEGEN--\":2930:2942   */\n      revert\n        /* \"--CODEGEN--\":2894:2896   */\n    tag_304:\n        /* \"--CODEGEN--\":2960:3023   */\n      tag_305\n        /* \"--CODEGEN--\":3015:3022   */\n      dup9\n        /* \"--CODEGEN--\":3006:3012   */\n      dup3\n        /* \"--CODEGEN--\":2995:3004   */\n      dup10\n        /* \"--CODEGEN--\":2991:3013   */\n      add\n        /* \"--CODEGEN--\":2960:3023   */\n      jump(tag_269)\n    tag_305:\n        /* \"--CODEGEN--\":2950:3023   */\n      swap6\n      pop\n        /* \"--CODEGEN--\":2836:3029   */\n      pop\n        /* \"--CODEGEN--\":3088:3090   */\n      0x20\n        /* \"--CODEGEN--\":3077:3086   */\n      dup7\n        /* \"--CODEGEN--\":3073:3091   */\n      add\n        /* \"--CODEGEN--\":3060:3092   */\n      calldataload\n        /* \"--CODEGEN--\":3112:3130   */\n      0xffffffffffffffff\n        /* \"--CODEGEN--\":3104:3110   */\n      dup2\n        /* \"--CODEGEN--\":3101:3131   */\n      gt\n        /* \"--CODEGEN--\":3098:3100   */\n      iszero\n      tag_306\n      jumpi\n        /* \"--CODEGEN--\":3144:3145   */\n      0x00\n        /* \"--CODEGEN--\":3141:3142   */\n      dup1\n        /* \"--CODEGEN--\":3134:3146   */\n      revert\n        /* \"--CODEGEN--\":3098:3100   */\n    tag_306:\n        /* \"--CODEGEN--\":3164:3227   */\n      tag_307\n        /* \"--CODEGEN--\":3219:3226   */\n      dup9\n        /* \"--CODEGEN--\":3210:3216   */\n      dup3\n        /* \"--CODEGEN--\":3199:3208   */\n      dup10\n        /* \"--CODEGEN--\":3195:3217   */\n      add\n        /* \"--CODEGEN--\":3164:3227   */\n      jump(tag_269)\n    tag_307:\n        /* \"--CODEGEN--\":3154:3227   */\n      swap5\n      pop\n        /* \"--CODEGEN--\":3039:3233   */\n      pop\n        /* \"--CODEGEN--\":3292:3294   */\n      0x40\n        /* \"--CODEGEN--\":3281:3290   */\n      dup7\n        /* \"--CODEGEN--\":3277:3295   */\n      add\n        /* \"--CODEGEN--\":3264:3296   */\n      calldataload\n        /* \"--CODEGEN--\":3316:3334   */\n      0xffffffffffffffff\n        /* \"--CODEGEN--\":3308:3314   */\n      dup2\n        /* \"--CODEGEN--\":3305:3335   */\n      gt\n        /* \"--CODEGEN--\":3302:3304   */\n      iszero\n      tag_308\n      jumpi\n        /* \"--CODEGEN--\":3348:3349   */\n      0x00\n        /* \"--CODEGEN--\":3345:3346   */\n      dup1\n        /* \"--CODEGEN--\":3338:3350   */\n      revert\n        /* \"--CODEGEN--\":3302:3304   */\n    tag_308:\n        /* \"--CODEGEN--\":3368:3431   */\n      tag_309\n        /* \"--CODEGEN--\":3423:3430   */\n      dup9\n        /* \"--CODEGEN--\":3414:3420   */\n      dup3\n        /* \"--CODEGEN--\":3403:3412   */\n      dup10\n        /* \"--CODEGEN--\":3399:3421   */\n      add\n        /* \"--CODEGEN--\":3368:3431   */\n      jump(tag_269)\n    tag_309:\n        /* \"--CODEGEN--\":3358:3431   */\n      swap4\n      pop\n        /* \"--CODEGEN--\":3243:3437   */\n      pop\n        /* \"--CODEGEN--\":3468:3470   */\n      0x60\n        /* \"--CODEGEN--\":3486:3537   */\n      tag_310\n        /* \"--CODEGEN--\":3529:3536   */\n      dup9\n        /* \"--CODEGEN--\":3520:3526   */\n      dup3\n        /* \"--CODEGEN--\":3509:3518   */\n      dup10\n        /* \"--CODEGEN--\":3505:3527   */\n      add\n        /* \"--CODEGEN--\":3486:3537   */\n      jump(tag_279)\n    tag_310:\n        /* \"--CODEGEN--\":3476:3537   */\n      swap3\n      pop\n        /* \"--CODEGEN--\":3447:3543   */\n      pop\n        /* \"--CODEGEN--\":3574:3577   */\n      0x80\n        /* \"--CODEGEN--\":3593:3644   */\n      tag_311\n        /* \"--CODEGEN--\":3636:3643   */\n      dup9\n        /* \"--CODEGEN--\":3627:3633   */\n      dup3\n        /* \"--CODEGEN--\":3616:3625   */\n      dup10\n        /* \"--CODEGEN--\":3612:3634   */\n      add\n        /* \"--CODEGEN--\":3593:3644   */\n      jump(tag_279)\n    tag_311:\n        /* \"--CODEGEN--\":3583:3644   */\n      swap2\n      pop\n        /* \"--CODEGEN--\":3553:3650   */\n      pop\n        /* \"--CODEGEN--\":2767:3660   */\n      swap3\n      swap6\n      pop\n      swap3\n      swap6\n      swap1\n      swap4\n      pop\n      jump\n        /* \"--CODEGEN--\":3667:4598   */\n    tag_38:\n      0x00\n      dup1\n      0x00\n      dup1\n        /* \"--CODEGEN--\":3850:3853   */\n      0x80\n        /* \"--CODEGEN--\":3838:3847   */\n      dup6\n        /* \"--CODEGEN--\":3829:3836   */\n      dup8\n        /* \"--CODEGEN--\":3825:3848   */\n      sub\n        /* \"--CODEGEN--\":3821:3854   */\n      slt\n        /* \"--CODEGEN--\":3818:3820   */\n      iszero\n      tag_313\n      jumpi\n        /* \"--CODEGEN--\":3867:3868   */\n      0x00\n        /* \"--CODEGEN--\":3864:3865   */\n      dup1\n        /* \"--CODEGEN--\":3857:3869   */\n      revert\n        /* \"--CODEGEN--\":3818:3820   */\n    tag_313:\n        /* \"--CODEGEN--\":3930:3931   */\n      0x00\n        /* \"--CODEGEN--\":3919:3928   */\n      dup6\n        /* \"--CODEGEN--\":3915:3932   */\n      add\n        /* \"--CODEGEN--\":3902:3933   */\n      calldataload\n        /* \"--CODEGEN--\":3953:3971   */\n      0xffffffffffffffff\n        /* \"--CODEGEN--\":3945:3951   */\n      dup2\n        /* \"--CODEGEN--\":3942:3972   */\n      gt\n        /* \"--CODEGEN--\":3939:3941   */\n      iszero\n      tag_314\n      jumpi\n        /* \"--CODEGEN--\":3985:3986   */\n      0x00\n        /* \"--CODEGEN--\":3982:3983   */\n      dup1\n        /* \"--CODEGEN--\":3975:3987   */\n      revert\n        /* \"--CODEGEN--\":3939:3941   */\n    tag_314:\n        /* \"--CODEGEN--\":4005:4068   */\n      tag_315\n        /* \"--CODEGEN--\":4060:4067   */\n      dup8\n        /* \"--CODEGEN--\":4051:4057   */\n      dup3\n        /* \"--CODEGEN--\":4040:4049   */\n      dup9\n        /* \"--CODEGEN--\":4036:4058   */\n      add\n        /* \"--CODEGEN--\":4005:4068   */\n      jump(tag_269)\n    tag_315:\n        /* \"--CODEGEN--\":3995:4068   */\n      swap5\n      pop\n        /* \"--CODEGEN--\":3881:4074   */\n      pop\n        /* \"--CODEGEN--\":4133:4135   */\n      0x20\n        /* \"--CODEGEN--\":4122:4131   */\n      dup6\n        /* \"--CODEGEN--\":4118:4136   */\n      add\n        /* \"--CODEGEN--\":4105:4137   */\n      calldataload\n        /* \"--CODEGEN--\":4157:4175   */\n      0xffffffffffffffff\n        /* \"--CODEGEN--\":4149:4155   */\n      dup2\n        /* \"--CODEGEN--\":4146:4176   */\n      gt\n        /* \"--CODEGEN--\":4143:4145   */\n      iszero\n      tag_316\n      jumpi\n        /* \"--CODEGEN--\":4189:4190   */\n      0x00\n        /* \"--CODEGEN--\":4186:4187   */\n      dup1\n        /* \"--CODEGEN--\":4179:4191   */\n      revert\n        /* \"--CODEGEN--\":4143:4145   */\n    tag_316:\n        /* \"--CODEGEN--\":4209:4272   */\n      tag_317\n        /* \"--CODEGEN--\":4264:4271   */\n      dup8\n        /* \"--CODEGEN--\":4255:4261   */\n      dup3\n        /* \"--CODEGEN--\":4244:4253   */\n      dup9\n        /* \"--CODEGEN--\":4240:4262   */\n      add\n        /* \"--CODEGEN--\":4209:4272   */\n      jump(tag_269)\n    tag_317:\n        /* \"--CODEGEN--\":4199:4272   */\n      swap4\n      pop\n        /* \"--CODEGEN--\":4084:4278   */\n      pop\n        /* \"--CODEGEN--\":4309:4311   */\n      0x40\n        /* \"--CODEGEN--\":4327:4378   */\n      tag_318\n        /* \"--CODEGEN--\":4370:4377   */\n      dup8\n        /* \"--CODEGEN--\":4361:4367   */\n      dup3\n        /* \"--CODEGEN--\":4350:4359   */\n      dup9\n        /* \"--CODEGEN--\":4346:4368   */\n      add\n        /* \"--CODEGEN--\":4327:4378   */\n      jump(tag_279)\n    tag_318:\n        /* \"--CODEGEN--\":4317:4378   */\n      swap3\n      pop\n        /* \"--CODEGEN--\":4288:4384   */\n      pop\n        /* \"--CODEGEN--\":4443:4445   */\n      0x60\n        /* \"--CODEGEN--\":4432:4441   */\n      dup6\n        /* \"--CODEGEN--\":4428:4446   */\n      add\n        /* \"--CODEGEN--\":4415:4447   */\n      calldataload\n        /* \"--CODEGEN--\":4467:4485   */\n      0xffffffffffffffff\n        /* \"--CODEGEN--\":4459:4465   */\n      dup2\n        /* \"--CODEGEN--\":4456:4486   */\n      gt\n        /* \"--CODEGEN--\":4453:4455   */\n      iszero\n      tag_319\n      jumpi\n        /* \"--CODEGEN--\":4499:4500   */\n      0x00\n        /* \"--CODEGEN--\":4496:4497   */\n      dup1\n        /* \"--CODEGEN--\":4489:4501   */\n      revert\n        /* \"--CODEGEN--\":4453:4455   */\n    tag_319:\n        /* \"--CODEGEN--\":4519:4582   */\n      tag_320\n        /* \"--CODEGEN--\":4574:4581   */\n      dup8\n        /* \"--CODEGEN--\":4565:4571   */\n      dup3\n        /* \"--CODEGEN--\":4554:4563   */\n      dup9\n        /* \"--CODEGEN--\":4550:4572   */\n      add\n        /* \"--CODEGEN--\":4519:4582   */\n      jump(tag_269)\n    tag_320:\n        /* \"--CODEGEN--\":4509:4582   */\n      swap2\n      pop\n        /* \"--CODEGEN--\":4394:4588   */\n      pop\n        /* \"--CODEGEN--\":3812:4598   */\n      swap3\n      swap6\n      swap2\n      swap5\n      pop\n      swap3\n      pop\n      jump\n        /* \"--CODEGEN--\":4606:4799   */\n    tag_321:\n      0x00\n        /* \"--CODEGEN--\":4727:4793   */\n      tag_323\n        /* \"--CODEGEN--\":4789:4792   */\n      dup4\n        /* \"--CODEGEN--\":4781:4787   */\n      dup4\n        /* \"--CODEGEN--\":4727:4793   */\n      jump(tag_324)\n    tag_323:\n        /* \"--CODEGEN--\":4713:4793   */\n      swap1\n      pop\n        /* \"--CODEGEN--\":4706:4799   */\n      swap3\n      swap2\n      pop\n      pop\n      jump\n        /* \"--CODEGEN--\":4807:4920   */\n    tag_325:\n        /* \"--CODEGEN--\":4890:4914   */\n      tag_327\n        /* \"--CODEGEN--\":4908:4913   */\n      dup2\n        /* \"--CODEGEN--\":4890:4914   */\n      jump(tag_328)\n    tag_327:\n        /* \"--CODEGEN--\":4885:4888   */\n      dup3\n        /* \"--CODEGEN--\":4878:4915   */\n      mstore\n        /* \"--CODEGEN--\":4872:4920   */\n      pop\n      pop\n      jump\n        /* \"--CODEGEN--\":4956:5884   */\n    tag_329:\n      0x00\n        /* \"--CODEGEN--\":5121:5185   */\n      tag_331\n        /* \"--CODEGEN--\":5179:5184   */\n      dup3\n        /* \"--CODEGEN--\":5121:5185   */\n      jump(tag_332)\n    tag_331:\n        /* \"--CODEGEN--\":5198:5294   */\n      tag_333\n        /* \"--CODEGEN--\":5287:5293   */\n      dup2\n        /* \"--CODEGEN--\":5282:5285   */\n      dup6\n        /* \"--CODEGEN--\":5198:5294   */\n      jump(tag_334)\n    tag_333:\n        /* \"--CODEGEN--\":5191:5294   */\n      swap4\n      pop\n        /* \"--CODEGEN--\":5317:5320   */\n      dup4\n        /* \"--CODEGEN--\":5359:5363   */\n      0x20\n        /* \"--CODEGEN--\":5351:5357   */\n      dup3\n        /* \"--CODEGEN--\":5347:5364   */\n      mul\n        /* \"--CODEGEN--\":5342:5345   */\n      dup6\n        /* \"--CODEGEN--\":5338:5365   */\n      add\n        /* \"--CODEGEN--\":5386:5452   */\n      tag_335\n        /* \"--CODEGEN--\":5446:5451   */\n      dup6\n        /* \"--CODEGEN--\":5386:5452   */\n      jump(tag_336)\n    tag_335:\n        /* \"--CODEGEN--\":5472:5479   */\n      dup1\n        /* \"--CODEGEN--\":5500:5501   */\n      0x00\n        /* \"--CODEGEN--\":5485:5845   */\n    tag_337:\n        /* \"--CODEGEN--\":5510:5516   */\n      dup6\n        /* \"--CODEGEN--\":5507:5508   */\n      dup2\n        /* \"--CODEGEN--\":5504:5517   */\n      lt\n        /* \"--CODEGEN--\":5485:5845   */\n      iszero\n      tag_339\n      jumpi\n        /* \"--CODEGEN--\":5572:5581   */\n      dup5\n        /* \"--CODEGEN--\":5566:5570   */\n      dup5\n        /* \"--CODEGEN--\":5562:5582   */\n      sub\n        /* \"--CODEGEN--\":5557:5560   */\n      dup10\n        /* \"--CODEGEN--\":5550:5583   */\n      mstore\n        /* \"--CODEGEN--\":5617:5623   */\n      dup2\n        /* \"--CODEGEN--\":5611:5624   */\n      mload\n        /* \"--CODEGEN--\":5639:5723   */\n      tag_340\n        /* \"--CODEGEN--\":5718:5722   */\n      dup6\n        /* \"--CODEGEN--\":5703:5716   */\n      dup3\n        /* \"--CODEGEN--\":5639:5723   */\n      jump(tag_321)\n    tag_340:\n        /* \"--CODEGEN--\":5631:5723   */\n      swap5\n      pop\n        /* \"--CODEGEN--\":5740:5810   */\n      tag_341\n        /* \"--CODEGEN--\":5803:5809   */\n      dup4\n        /* \"--CODEGEN--\":5740:5810   */\n      jump(tag_342)\n    tag_341:\n        /* \"--CODEGEN--\":5730:5810   */\n      swap3\n      pop\n        /* \"--CODEGEN--\":5833:5837   */\n      0x20\n        /* \"--CODEGEN--\":5828:5831   */\n      dup11\n        /* \"--CODEGEN--\":5824:5838   */\n      add\n        /* \"--CODEGEN--\":5817:5838   */\n      swap10\n      pop\n        /* \"--CODEGEN--\":5542:5845   */\n      pop\n        /* \"--CODEGEN--\":5532:5533   */\n      0x01\n        /* \"--CODEGEN--\":5529:5530   */\n      dup2\n        /* \"--CODEGEN--\":5525:5534   */\n      add\n        /* \"--CODEGEN--\":5520:5534   */\n      swap1\n      pop\n        /* \"--CODEGEN--\":5485:5845   */\n      jump(tag_337)\n    tag_339:\n        /* \"--CODEGEN--\":5489:5503   */\n      pop\n        /* \"--CODEGEN--\":5858:5862   */\n      dup3\n        /* \"--CODEGEN--\":5851:5862   */\n      swap8\n      pop\n        /* \"--CODEGEN--\":5875:5878   */\n      dup8\n        /* \"--CODEGEN--\":5868:5878   */\n      swap6\n      pop\n        /* \"--CODEGEN--\":5100:5884   */\n      pop\n      pop\n      pop\n      pop\n      pop\n      swap3\n      swap2\n      pop\n      pop\n      jump\n        /* \"--CODEGEN--\":5892:5996   */\n    tag_343:\n        /* \"--CODEGEN--\":5969:5990   */\n      tag_345\n        /* \"--CODEGEN--\":5984:5989   */\n      dup2\n        /* \"--CODEGEN--\":5969:5990   */\n      jump(tag_346)\n    tag_345:\n        /* \"--CODEGEN--\":5964:5967   */\n      dup3\n        /* \"--CODEGEN--\":5957:5991   */\n      mstore\n        /* \"--CODEGEN--\":5951:5996   */\n      pop\n      pop\n      jump\n        /* \"--CODEGEN--\":6026:6913   */\n    tag_347:\n      0x00\n        /* \"--CODEGEN--\":6165:6170   */\n      dup2\n        /* \"--CODEGEN--\":6159:6171   */\n      sload\n        /* \"--CODEGEN--\":6199:6200   */\n      0x01\n        /* \"--CODEGEN--\":6188:6197   */\n      dup2\n        /* \"--CODEGEN--\":6184:6201   */\n      and\n        /* \"--CODEGEN--\":6212:6213   */\n      0x00\n        /* \"--CODEGEN--\":6207:6474   */\n      dup2\n      eq\n      tag_350\n      jumpi\n        /* \"--CODEGEN--\":6485:6486   */\n      0x01\n        /* \"--CODEGEN--\":6480:6907   */\n      dup2\n      eq\n      tag_351\n      jumpi\n        /* \"--CODEGEN--\":6177:6907   */\n      jump(tag_349)\n        /* \"--CODEGEN--\":6207:6474   */\n    tag_350:\n        /* \"--CODEGEN--\":6285:6289   */\n      0x7f\n        /* \"--CODEGEN--\":6281:6282   */\n      0x02\n        /* \"--CODEGEN--\":6270:6279   */\n      dup4\n        /* \"--CODEGEN--\":6266:6283   */\n      div\n        /* \"--CODEGEN--\":6262:6290   */\n      and\n        /* \"--CODEGEN--\":6304:6392   */\n      tag_352\n        /* \"--CODEGEN--\":6385:6391   */\n      dup2\n        /* \"--CODEGEN--\":6380:6383   */\n      dup8\n        /* \"--CODEGEN--\":6304:6392   */\n      jump(tag_353)\n    tag_352:\n        /* \"--CODEGEN--\":6297:6392   */\n      swap6\n      pop\n        /* \"--CODEGEN--\":6430:6434   */\n      0xff\n        /* \"--CODEGEN--\":6426:6435   */\n      not\n        /* \"--CODEGEN--\":6415:6424   */\n      dup4\n        /* \"--CODEGEN--\":6411:6436   */\n      and\n        /* \"--CODEGEN--\":6406:6409   */\n      dup7\n        /* \"--CODEGEN--\":6399:6437   */\n      mstore\n        /* \"--CODEGEN--\":6460:6466   */\n      dup1\n        /* \"--CODEGEN--\":6455:6458   */\n      dup7\n        /* \"--CODEGEN--\":6451:6467   */\n      add\n        /* \"--CODEGEN--\":6444:6467   */\n      swap4\n      pop\n        /* \"--CODEGEN--\":6214:6474   */\n      pop\n        /* \"--CODEGEN--\":6207:6474   */\n      jump(tag_349)\n        /* \"--CODEGEN--\":6480:6907   */\n    tag_351:\n        /* \"--CODEGEN--\":6549:6550   */\n      0x02\n        /* \"--CODEGEN--\":6538:6547   */\n      dup3\n        /* \"--CODEGEN--\":6534:6551   */\n      div\n        /* \"--CODEGEN--\":6565:6653   */\n      tag_354\n        /* \"--CODEGEN--\":6646:6652   */\n      dup2\n        /* \"--CODEGEN--\":6641:6644   */\n      dup8\n        /* \"--CODEGEN--\":6565:6653   */\n      jump(tag_353)\n    tag_354:\n        /* \"--CODEGEN--\":6558:6653   */\n      swap6\n      pop\n        /* \"--CODEGEN--\":6675:6716   */\n      tag_355\n        /* \"--CODEGEN--\":6710:6715   */\n      dup6\n        /* \"--CODEGEN--\":6675:6716   */\n      jump(tag_356)\n    tag_355:\n        /* \"--CODEGEN--\":6732:6733   */\n      0x00\n        /* \"--CODEGEN--\":6740:6870   */\n    tag_357:\n        /* \"--CODEGEN--\":6754:6760   */\n      dup3\n        /* \"--CODEGEN--\":6751:6752   */\n      dup2\n        /* \"--CODEGEN--\":6748:6761   */\n      lt\n        /* \"--CODEGEN--\":6740:6870   */\n      iszero\n      tag_359\n      jumpi\n        /* \"--CODEGEN--\":6819:6826   */\n      dup2\n        /* \"--CODEGEN--\":6813:6827   */\n      sload\n        /* \"--CODEGEN--\":6809:6810   */\n      dup2\n        /* \"--CODEGEN--\":6804:6807   */\n      dup10\n        /* \"--CODEGEN--\":6800:6811   */\n      add\n        /* \"--CODEGEN--\":6793:6828   */\n      mstore\n        /* \"--CODEGEN--\":6860:6861   */\n      0x01\n        /* \"--CODEGEN--\":6851:6858   */\n      dup3\n        /* \"--CODEGEN--\":6847:6862   */\n      add\n        /* \"--CODEGEN--\":6836:6862   */\n      swap2\n      pop\n        /* \"--CODEGEN--\":6776:6780   */\n      0x20\n        /* \"--CODEGEN--\":6773:6774   */\n      dup2\n        /* \"--CODEGEN--\":6769:6781   */\n      add\n        /* \"--CODEGEN--\":6764:6781   */\n      swap1\n      pop\n        /* \"--CODEGEN--\":6740:6870   */\n      jump(tag_357)\n    tag_359:\n        /* \"--CODEGEN--\":6893:6899   */\n      dup3\n        /* \"--CODEGEN--\":6888:6891   */\n      dup9\n        /* \"--CODEGEN--\":6884:6900   */\n      add\n        /* \"--CODEGEN--\":6877:6900   */\n      swap6\n      pop\n        /* \"--CODEGEN--\":6487:6907   */\n      pop\n      pop\n      pop\n        /* \"--CODEGEN--\":6177:6907   */\n    tag_349:\n      pop\n        /* \"--CODEGEN--\":6135:6913   */\n      pop\n      swap3\n      swap2\n      pop\n      pop\n      jump\n        /* \"--CODEGEN--\":6921:7248   */\n    tag_324:\n      0x00\n        /* \"--CODEGEN--\":7023:7062   */\n      tag_361\n        /* \"--CODEGEN--\":7056:7061   */\n      dup3\n        /* \"--CODEGEN--\":7023:7062   */\n      jump(tag_362)\n    tag_361:\n        /* \"--CODEGEN--\":7074:7135   */\n      tag_363\n        /* \"--CODEGEN--\":7128:7134   */\n      dup2\n        /* \"--CODEGEN--\":7123:7126   */\n      dup6\n        /* \"--CODEGEN--\":7074:7135   */\n      jump(tag_364)\n    tag_363:\n        /* \"--CODEGEN--\":7067:7135   */\n      swap4\n      pop\n        /* \"--CODEGEN--\":7140:7192   */\n      tag_365\n        /* \"--CODEGEN--\":7185:7191   */\n      dup2\n        /* \"--CODEGEN--\":7180:7183   */\n      dup6\n        /* \"--CODEGEN--\":7173:7177   */\n      0x20\n        /* \"--CODEGEN--\":7166:7171   */\n      dup7\n        /* \"--CODEGEN--\":7162:7178   */\n      add\n        /* \"--CODEGEN--\":7140:7192   */\n      jump(tag_366)\n    tag_365:\n        /* \"--CODEGEN--\":7213:7242   */\n      tag_367\n        /* \"--CODEGEN--\":7235:7241   */\n      dup2\n        /* \"--CODEGEN--\":7213:7242   */\n      jump(tag_368)\n    tag_367:\n        /* \"--CODEGEN--\":7208:7211   */\n      dup5\n        /* \"--CODEGEN--\":7204:7243   */\n      add\n        /* \"--CODEGEN--\":7197:7243   */\n      swap2\n      pop\n        /* \"--CODEGEN--\":7003:7248   */\n      pop\n      swap3\n      swap2\n      pop\n      pop\n      jump\n        /* \"--CODEGEN--\":7255:7602   */\n    tag_369:\n      0x00\n        /* \"--CODEGEN--\":7367:7406   */\n      tag_371\n        /* \"--CODEGEN--\":7400:7405   */\n      dup3\n        /* \"--CODEGEN--\":7367:7406   */\n      jump(tag_362)\n    tag_371:\n        /* \"--CODEGEN--\":7418:7489   */\n      tag_372\n        /* \"--CODEGEN--\":7482:7488   */\n      dup2\n        /* \"--CODEGEN--\":7477:7480   */\n      dup6\n        /* \"--CODEGEN--\":7418:7489   */\n      jump(tag_373)\n    tag_372:\n        /* \"--CODEGEN--\":7411:7489   */\n      swap4\n      pop\n        /* \"--CODEGEN--\":7494:7546   */\n      tag_374\n        /* \"--CODEGEN--\":7539:7545   */\n      dup2\n        /* \"--CODEGEN--\":7534:7537   */\n      dup6\n        /* \"--CODEGEN--\":7527:7531   */\n      0x20\n        /* \"--CODEGEN--\":7520:7525   */\n      dup7\n        /* \"--CODEGEN--\":7516:7532   */\n      add\n        /* \"--CODEGEN--\":7494:7546   */\n      jump(tag_366)\n    tag_374:\n        /* \"--CODEGEN--\":7567:7596   */\n      tag_375\n        /* \"--CODEGEN--\":7589:7595   */\n      dup2\n        /* \"--CODEGEN--\":7567:7596   */\n      jump(tag_368)\n    tag_375:\n        /* \"--CODEGEN--\":7562:7565   */\n      dup5\n        /* \"--CODEGEN--\":7558:7597   */\n      add\n        /* \"--CODEGEN--\":7551:7597   */\n      swap2\n      pop\n        /* \"--CODEGEN--\":7347:7602   */\n      pop\n      swap3\n      swap2\n      pop\n      pop\n      jump\n        /* \"--CODEGEN--\":7610:7918   */\n    tag_376:\n      0x00\n        /* \"--CODEGEN--\":7770:7836   */\n      tag_378\n        /* \"--CODEGEN--\":7834:7835   */\n      0x09\n        /* \"--CODEGEN--\":7829:7832   */\n      dup4\n        /* \"--CODEGEN--\":7770:7836   */\n      jump(tag_373)\n    tag_378:\n        /* \"--CODEGEN--\":7763:7836   */\n      swap2\n      pop\n        /* \"--CODEGEN--\":7869:7880   */\n      0x4e494b2073616c61680000000000000000000000000000000000000000000000\n        /* \"--CODEGEN--\":7865:7866   */\n      0x00\n        /* \"--CODEGEN--\":7860:7863   */\n      dup4\n        /* \"--CODEGEN--\":7856:7867   */\n      add\n        /* \"--CODEGEN--\":7849:7881   */\n      mstore\n        /* \"--CODEGEN--\":7909:7911   */\n      0x20\n        /* \"--CODEGEN--\":7904:7907   */\n      dup3\n        /* \"--CODEGEN--\":7900:7912   */\n      add\n        /* \"--CODEGEN--\":7893:7912   */\n      swap1\n      pop\n        /* \"--CODEGEN--\":7756:7918   */\n      swap2\n      swap1\n      pop\n      jump\n        /* \"--CODEGEN--\":7927:8238   */\n    tag_379:\n      0x00\n        /* \"--CODEGEN--\":8087:8154   */\n      tag_381\n        /* \"--CODEGEN--\":8151:8153   */\n      0x0b\n        /* \"--CODEGEN--\":8146:8149   */\n      dup4\n        /* \"--CODEGEN--\":8087:8154   */\n      jump(tag_373)\n    tag_381:\n        /* \"--CODEGEN--\":8080:8154   */\n      swap2\n      pop\n        /* \"--CODEGEN--\":8187:8200   */\n      0x49442052532053616c6168000000000000000000000000000000000000000000\n        /* \"--CODEGEN--\":8183:8184   */\n      0x00\n        /* \"--CODEGEN--\":8178:8181   */\n      dup4\n        /* \"--CODEGEN--\":8174:8185   */\n      add\n        /* \"--CODEGEN--\":8167:8201   */\n      mstore\n        /* \"--CODEGEN--\":8229:8231   */\n      0x20\n        /* \"--CODEGEN--\":8224:8227   */\n      dup3\n        /* \"--CODEGEN--\":8220:8232   */\n      add\n        /* \"--CODEGEN--\":8213:8232   */\n      swap1\n      pop\n        /* \"--CODEGEN--\":8073:8238   */\n      swap2\n      swap1\n      pop\n      jump\n        /* \"--CODEGEN--\":8247:8555   */\n    tag_382:\n      0x00\n        /* \"--CODEGEN--\":8407:8473   */\n      tag_384\n        /* \"--CODEGEN--\":8471:8472   */\n      0x09\n        /* \"--CODEGEN--\":8466:8469   */\n      dup4\n        /* \"--CODEGEN--\":8407:8473   */\n      jump(tag_373)\n    tag_384:\n        /* \"--CODEGEN--\":8400:8473   */\n      swap2\n      pop\n        /* \"--CODEGEN--\":8506:8517   */\n      0x4e494b2053616c61680000000000000000000000000000000000000000000000\n        /* \"--CODEGEN--\":8502:8503   */\n      0x00\n        /* \"--CODEGEN--\":8497:8500   */\n      dup4\n        /* \"--CODEGEN--\":8493:8504   */\n      add\n        /* \"--CODEGEN--\":8486:8518   */\n      mstore\n        /* \"--CODEGEN--\":8546:8548   */\n      0x20\n        /* \"--CODEGEN--\":8541:8544   */\n      dup3\n        /* \"--CODEGEN--\":8537:8549   */\n      add\n        /* \"--CODEGEN--\":8530:8549   */\n      swap1\n      pop\n        /* \"--CODEGEN--\":8393:8555   */\n      swap2\n      swap1\n      pop\n      jump\n        /* \"--CODEGEN--\":8563:8670   */\n    tag_385:\n        /* \"--CODEGEN--\":8642:8664   */\n      tag_387\n        /* \"--CODEGEN--\":8658:8663   */\n      dup2\n        /* \"--CODEGEN--\":8642:8664   */\n      jump(tag_388)\n    tag_387:\n        /* \"--CODEGEN--\":8637:8640   */\n      dup3\n        /* \"--CODEGEN--\":8630:8665   */\n      mstore\n        /* \"--CODEGEN--\":8624:8670   */\n      pop\n      pop\n      jump\n        /* \"--CODEGEN--\":8677:8941   */\n    tag_70:\n      0x00\n        /* \"--CODEGEN--\":8822:8916   */\n      tag_390\n        /* \"--CODEGEN--\":8912:8915   */\n      dup3\n        /* \"--CODEGEN--\":8903:8909   */\n      dup5\n        /* \"--CODEGEN--\":8822:8916   */\n      jump(tag_347)\n    tag_390:\n        /* \"--CODEGEN--\":8815:8916   */\n      swap2\n      pop\n        /* \"--CODEGEN--\":8933:8936   */\n      dup2\n        /* \"--CODEGEN--\":8926:8936   */\n      swap1\n      pop\n        /* \"--CODEGEN--\":8803:8941   */\n      swap3\n      swap2\n      pop\n      pop\n      jump\n        /* \"--CODEGEN--\":8948:9161   */\n    tag_47:\n      0x00\n        /* \"--CODEGEN--\":9066:9068   */\n      0x20\n        /* \"--CODEGEN--\":9055:9064   */\n      dup3\n        /* \"--CODEGEN--\":9051:9069   */\n      add\n        /* \"--CODEGEN--\":9043:9069   */\n      swap1\n      pop\n        /* \"--CODEGEN--\":9080:9151   */\n      tag_392\n        /* \"--CODEGEN--\":9148:9149   */\n      0x00\n        /* \"--CODEGEN--\":9137:9146   */\n      dup4\n        /* \"--CODEGEN--\":9133:9150   */\n      add\n        /* \"--CODEGEN--\":9124:9130   */\n      dup5\n        /* \"--CODEGEN--\":9080:9151   */\n      jump(tag_325)\n    tag_392:\n        /* \"--CODEGEN--\":9037:9161   */\n      swap3\n      swap2\n      pop\n      pop\n      jump\n        /* \"--CODEGEN--\":9168:9979   */\n    tag_52:\n      0x00\n        /* \"--CODEGEN--\":9430:9433   */\n      0x80\n        /* \"--CODEGEN--\":9419:9428   */\n      dup3\n        /* \"--CODEGEN--\":9415:9434   */\n      add\n        /* \"--CODEGEN--\":9407:9434   */\n      swap1\n      pop\n        /* \"--CODEGEN--\":9445:9516   */\n      tag_394\n        /* \"--CODEGEN--\":9513:9514   */\n      0x00\n        /* \"--CODEGEN--\":9502:9511   */\n      dup4\n        /* \"--CODEGEN--\":9498:9515   */\n      add\n        /* \"--CODEGEN--\":9489:9495   */\n      dup8\n        /* \"--CODEGEN--\":9445:9516   */\n      jump(tag_325)\n    tag_394:\n        /* \"--CODEGEN--\":9564:9573   */\n      dup2\n        /* \"--CODEGEN--\":9558:9562   */\n      dup2\n        /* \"--CODEGEN--\":9554:9574   */\n      sub\n        /* \"--CODEGEN--\":9549:9551   */\n      0x20\n        /* \"--CODEGEN--\":9538:9547   */\n      dup4\n        /* \"--CODEGEN--\":9534:9552   */\n      add\n        /* \"--CODEGEN--\":9527:9575   */\n      mstore\n        /* \"--CODEGEN--\":9589:9667   */\n      tag_395\n        /* \"--CODEGEN--\":9662:9666   */\n      dup2\n        /* \"--CODEGEN--\":9653:9659   */\n      dup7\n        /* \"--CODEGEN--\":9589:9667   */\n      jump(tag_369)\n    tag_395:\n        /* \"--CODEGEN--\":9581:9667   */\n      swap1\n      pop\n        /* \"--CODEGEN--\":9715:9724   */\n      dup2\n        /* \"--CODEGEN--\":9709:9713   */\n      dup2\n        /* \"--CODEGEN--\":9705:9725   */\n      sub\n        /* \"--CODEGEN--\":9700:9702   */\n      0x40\n        /* \"--CODEGEN--\":9689:9698   */\n      dup4\n        /* \"--CODEGEN--\":9685:9703   */\n      add\n        /* \"--CODEGEN--\":9678:9726   */\n      mstore\n        /* \"--CODEGEN--\":9740:9818   */\n      tag_396\n        /* \"--CODEGEN--\":9813:9817   */\n      dup2\n        /* \"--CODEGEN--\":9804:9810   */\n      dup6\n        /* \"--CODEGEN--\":9740:9818   */\n      jump(tag_369)\n    tag_396:\n        /* \"--CODEGEN--\":9732:9818   */\n      swap1\n      pop\n        /* \"--CODEGEN--\":9866:9875   */\n      dup2\n        /* \"--CODEGEN--\":9860:9864   */\n      dup2\n        /* \"--CODEGEN--\":9856:9876   */\n      sub\n        /* \"--CODEGEN--\":9851:9853   */\n      0x60\n        /* \"--CODEGEN--\":9840:9849   */\n      dup4\n        /* \"--CODEGEN--\":9836:9854   */\n      add\n        /* \"--CODEGEN--\":9829:9877   */\n      mstore\n        /* \"--CODEGEN--\":9891:9969   */\n      tag_397\n        /* \"--CODEGEN--\":9964:9968   */\n      dup2\n        /* \"--CODEGEN--\":9955:9961   */\n      dup5\n        /* \"--CODEGEN--\":9891:9969   */\n      jump(tag_369)\n    tag_397:\n        /* \"--CODEGEN--\":9883:9969   */\n      swap1\n      pop\n        /* \"--CODEGEN--\":9401:9979   */\n      swap6\n      swap5\n      pop\n      pop\n      pop\n      pop\n      pop\n      jump\n        /* \"--CODEGEN--\":9986:10387   */\n    tag_22:\n      0x00\n        /* \"--CODEGEN--\":10174:10176   */\n      0x20\n        /* \"--CODEGEN--\":10163:10172   */\n      dup3\n        /* \"--CODEGEN--\":10159:10177   */\n      add\n        /* \"--CODEGEN--\":10151:10177   */\n      swap1\n      pop\n        /* \"--CODEGEN--\":10224:10233   */\n      dup2\n        /* \"--CODEGEN--\":10218:10222   */\n      dup2\n        /* \"--CODEGEN--\":10214:10234   */\n      sub\n        /* \"--CODEGEN--\":10210:10211   */\n      0x00\n        /* \"--CODEGEN--\":10199:10208   */\n      dup4\n        /* \"--CODEGEN--\":10195:10212   */\n      add\n        /* \"--CODEGEN--\":10188:10235   */\n      mstore\n        /* \"--CODEGEN--\":10249:10377   */\n      tag_399\n        /* \"--CODEGEN--\":10372:10376   */\n      dup2\n        /* \"--CODEGEN--\":10363:10369   */\n      dup5\n        /* \"--CODEGEN--\":10249:10377   */\n      jump(tag_329)\n    tag_399:\n        /* \"--CODEGEN--\":10241:10377   */\n      swap1\n      pop\n        /* \"--CODEGEN--\":10145:10387   */\n      swap3\n      swap2\n      pop\n      pop\n      jump\n        /* \"--CODEGEN--\":10394:10595   */\n    tag_16:\n      0x00\n        /* \"--CODEGEN--\":10506:10508   */\n      0x20\n        /* \"--CODEGEN--\":10495:10504   */\n      dup3\n        /* \"--CODEGEN--\":10491:10509   */\n      add\n        /* \"--CODEGEN--\":10483:10509   */\n      swap1\n      pop\n        /* \"--CODEGEN--\":10520:10585   */\n      tag_401\n        /* \"--CODEGEN--\":10582:10583   */\n      0x00\n        /* \"--CODEGEN--\":10571:10580   */\n      dup4\n        /* \"--CODEGEN--\":10567:10584   */\n      add\n        /* \"--CODEGEN--\":10558:10564   */\n      dup5\n        /* \"--CODEGEN--\":10520:10585   */\n      jump(tag_343)\n    tag_401:\n        /* \"--CODEGEN--\":10477:10595   */\n      swap3\n      swap2\n      pop\n      pop\n      jump\n        /* \"--CODEGEN--\":10602:12313   */\n    tag_27:\n      0x00\n        /* \"--CODEGEN--\":11102:11105   */\n      0x0120\n        /* \"--CODEGEN--\":11091:11100   */\n      dup3\n        /* \"--CODEGEN--\":11087:11106   */\n      add\n        /* \"--CODEGEN--\":11079:11106   */\n      swap1\n      pop\n        /* \"--CODEGEN--\":11153:11162   */\n      dup2\n        /* \"--CODEGEN--\":11147:11151   */\n      dup2\n        /* \"--CODEGEN--\":11143:11163   */\n      sub\n        /* \"--CODEGEN--\":11139:11140   */\n      0x00\n        /* \"--CODEGEN--\":11128:11137   */\n      dup4\n        /* \"--CODEGEN--\":11124:11141   */\n      add\n        /* \"--CODEGEN--\":11117:11164   */\n      mstore\n        /* \"--CODEGEN--\":11178:11256   */\n      tag_403\n        /* \"--CODEGEN--\":11251:11255   */\n      dup2\n        /* \"--CODEGEN--\":11242:11248   */\n      dup13\n        /* \"--CODEGEN--\":11178:11256   */\n      jump(tag_369)\n    tag_403:\n        /* \"--CODEGEN--\":11170:11256   */\n      swap1\n      pop\n        /* \"--CODEGEN--\":11304:11313   */\n      dup2\n        /* \"--CODEGEN--\":11298:11302   */\n      dup2\n        /* \"--CODEGEN--\":11294:11314   */\n      sub\n        /* \"--CODEGEN--\":11289:11291   */\n      0x20\n        /* \"--CODEGEN--\":11278:11287   */\n      dup4\n        /* \"--CODEGEN--\":11274:11292   */\n      add\n        /* \"--CODEGEN--\":11267:11315   */\n      mstore\n        /* \"--CODEGEN--\":11329:11407   */\n      tag_404\n        /* \"--CODEGEN--\":11402:11406   */\n      dup2\n        /* \"--CODEGEN--\":11393:11399   */\n      dup12\n        /* \"--CODEGEN--\":11329:11407   */\n      jump(tag_369)\n    tag_404:\n        /* \"--CODEGEN--\":11321:11407   */\n      swap1\n      pop\n        /* \"--CODEGEN--\":11418:11486   */\n      tag_405\n        /* \"--CODEGEN--\":11482:11484   */\n      0x40\n        /* \"--CODEGEN--\":11471:11480   */\n      dup4\n        /* \"--CODEGEN--\":11467:11485   */\n      add\n        /* \"--CODEGEN--\":11458:11464   */\n      dup11\n        /* \"--CODEGEN--\":11418:11486   */\n      jump(tag_385)\n    tag_405:\n        /* \"--CODEGEN--\":11534:11543   */\n      dup2\n        /* \"--CODEGEN--\":11528:11532   */\n      dup2\n        /* \"--CODEGEN--\":11524:11544   */\n      sub\n        /* \"--CODEGEN--\":11519:11521   */\n      0x60\n        /* \"--CODEGEN--\":11508:11517   */\n      dup4\n        /* \"--CODEGEN--\":11504:11522   */\n      add\n        /* \"--CODEGEN--\":11497:11545   */\n      mstore\n        /* \"--CODEGEN--\":11559:11637   */\n      tag_406\n        /* \"--CODEGEN--\":11632:11636   */\n      dup2\n        /* \"--CODEGEN--\":11623:11629   */\n      dup10\n        /* \"--CODEGEN--\":11559:11637   */\n      jump(tag_369)\n    tag_406:\n        /* \"--CODEGEN--\":11551:11637   */\n      swap1\n      pop\n        /* \"--CODEGEN--\":11686:11695   */\n      dup2\n        /* \"--CODEGEN--\":11680:11684   */\n      dup2\n        /* \"--CODEGEN--\":11676:11696   */\n      sub\n        /* \"--CODEGEN--\":11670:11673   */\n      0x80\n        /* \"--CODEGEN--\":11659:11668   */\n      dup4\n        /* \"--CODEGEN--\":11655:11674   */\n      add\n        /* \"--CODEGEN--\":11648:11697   */\n      mstore\n        /* \"--CODEGEN--\":11711:11789   */\n      tag_407\n        /* \"--CODEGEN--\":11784:11788   */\n      dup2\n        /* \"--CODEGEN--\":11775:11781   */\n      dup9\n        /* \"--CODEGEN--\":11711:11789   */\n      jump(tag_369)\n    tag_407:\n        /* \"--CODEGEN--\":11703:11789   */\n      swap1\n      pop\n        /* \"--CODEGEN--\":11838:11847   */\n      dup2\n        /* \"--CODEGEN--\":11832:11836   */\n      dup2\n        /* \"--CODEGEN--\":11828:11848   */\n      sub\n        /* \"--CODEGEN--\":11822:11825   */\n      0xa0\n        /* \"--CODEGEN--\":11811:11820   */\n      dup4\n        /* \"--CODEGEN--\":11807:11826   */\n      add\n        /* \"--CODEGEN--\":11800:11849   */\n      mstore\n        /* \"--CODEGEN--\":11863:11941   */\n      tag_408\n        /* \"--CODEGEN--\":11936:11940   */\n      dup2\n        /* \"--CODEGEN--\":11927:11933   */\n      dup8\n        /* \"--CODEGEN--\":11863:11941   */\n      jump(tag_369)\n    tag_408:\n        /* \"--CODEGEN--\":11855:11941   */\n      swap1\n      pop\n        /* \"--CODEGEN--\":11952:12021   */\n      tag_409\n        /* \"--CODEGEN--\":12016:12019   */\n      0xc0\n        /* \"--CODEGEN--\":12005:12014   */\n      dup4\n        /* \"--CODEGEN--\":12001:12020   */\n      add\n        /* \"--CODEGEN--\":11992:11998   */\n      dup7\n        /* \"--CODEGEN--\":11952:12021   */\n      jump(tag_385)\n    tag_409:\n        /* \"--CODEGEN--\":12032:12101   */\n      tag_410\n        /* \"--CODEGEN--\":12096:12099   */\n      0xe0\n        /* \"--CODEGEN--\":12085:12094   */\n      dup4\n        /* \"--CODEGEN--\":12081:12100   */\n      add\n        /* \"--CODEGEN--\":12072:12078   */\n      dup6\n        /* \"--CODEGEN--\":12032:12101   */\n      jump(tag_385)\n    tag_410:\n        /* \"--CODEGEN--\":12150:12159   */\n      dup2\n        /* \"--CODEGEN--\":12144:12148   */\n      dup2\n        /* \"--CODEGEN--\":12140:12160   */\n      sub\n        /* \"--CODEGEN--\":12134:12137   */\n      0x0100\n        /* \"--CODEGEN--\":12123:12132   */\n      dup4\n        /* \"--CODEGEN--\":12119:12138   */\n      add\n        /* \"--CODEGEN--\":12112:12161   */\n      mstore\n        /* \"--CODEGEN--\":12175:12303   */\n      tag_411\n        /* \"--CODEGEN--\":12298:12302   */\n      dup2\n        /* \"--CODEGEN--\":12289:12295   */\n      dup5\n        /* \"--CODEGEN--\":12175:12303   */\n      jump(tag_329)\n    tag_411:\n        /* \"--CODEGEN--\":12167:12303   */\n      swap1\n      pop\n        /* \"--CODEGEN--\":11073:12313   */\n      swap11\n      swap10\n      pop\n      pop\n      pop\n      pop\n      pop\n      pop\n      pop\n      pop\n      pop\n      pop\n      jump\n        /* \"--CODEGEN--\":12320:12727   */\n    tag_92:\n      0x00\n        /* \"--CODEGEN--\":12511:12513   */\n      0x20\n        /* \"--CODEGEN--\":12500:12509   */\n      dup3\n        /* \"--CODEGEN--\":12496:12514   */\n      add\n        /* \"--CODEGEN--\":12488:12514   */\n      swap1\n      pop\n        /* \"--CODEGEN--\":12561:12570   */\n      dup2\n        /* \"--CODEGEN--\":12555:12559   */\n      dup2\n        /* \"--CODEGEN--\":12551:12571   */\n      sub\n        /* \"--CODEGEN--\":12547:12548   */\n      0x00\n        /* \"--CODEGEN--\":12536:12545   */\n      dup4\n        /* \"--CODEGEN--\":12532:12549   */\n      add\n        /* \"--CODEGEN--\":12525:12572   */\n      mstore\n        /* \"--CODEGEN--\":12586:12717   */\n      tag_413\n        /* \"--CODEGEN--\":12712:12716   */\n      dup2\n        /* \"--CODEGEN--\":12586:12717   */\n      jump(tag_376)\n    tag_413:\n        /* \"--CODEGEN--\":12578:12717   */\n      swap1\n      pop\n        /* \"--CODEGEN--\":12482:12727   */\n      swap2\n      swap1\n      pop\n      jump\n        /* \"--CODEGEN--\":12734:13141   */\n    tag_240:\n      0x00\n        /* \"--CODEGEN--\":12925:12927   */\n      0x20\n        /* \"--CODEGEN--\":12914:12923   */\n      dup3\n        /* \"--CODEGEN--\":12910:12928   */\n      add\n        /* \"--CODEGEN--\":12902:12928   */\n      swap1\n      pop\n        /* \"--CODEGEN--\":12975:12984   */\n      dup2\n        /* \"--CODEGEN--\":12969:12973   */\n      dup2\n        /* \"--CODEGEN--\":12965:12985   */\n      sub\n        /* \"--CODEGEN--\":12961:12962   */\n      0x00\n        /* \"--CODEGEN--\":12950:12959   */\n      dup4\n        /* \"--CODEGEN--\":12946:12963   */\n      add\n        /* \"--CODEGEN--\":12939:12986   */\n      mstore\n        /* \"--CODEGEN--\":13000:13131   */\n      tag_415\n        /* \"--CODEGEN--\":13126:13130   */\n      dup2\n        /* \"--CODEGEN--\":13000:13131   */\n      jump(tag_379)\n    tag_415:\n        /* \"--CODEGEN--\":12992:13131   */\n      swap1\n      pop\n        /* \"--CODEGEN--\":12896:13141   */\n      swap2\n      swap1\n      pop\n      jump\n        /* \"--CODEGEN--\":13148:13555   */\n    tag_209:\n      0x00\n        /* \"--CODEGEN--\":13339:13341   */\n      0x20\n        /* \"--CODEGEN--\":13328:13337   */\n      dup3\n        /* \"--CODEGEN--\":13324:13342   */\n      add\n        /* \"--CODEGEN--\":13316:13342   */\n      swap1\n      pop\n        /* \"--CODEGEN--\":13389:13398   */\n      dup2\n        /* \"--CODEGEN--\":13383:13387   */\n      dup2\n        /* \"--CODEGEN--\":13379:13399   */\n      sub\n        /* \"--CODEGEN--\":13375:13376   */\n      0x00\n        /* \"--CODEGEN--\":13364:13373   */\n      dup4\n        /* \"--CODEGEN--\":13360:13377   */\n      add\n        /* \"--CODEGEN--\":13353:13400   */\n      mstore\n        /* \"--CODEGEN--\":13414:13545   */\n      tag_417\n        /* \"--CODEGEN--\":13540:13544   */\n      dup2\n        /* \"--CODEGEN--\":13414:13545   */\n      jump(tag_382)\n    tag_417:\n        /* \"--CODEGEN--\":13406:13545   */\n      swap1\n      pop\n        /* \"--CODEGEN--\":13310:13555   */\n      swap2\n      swap1\n      pop\n      jump\n        /* \"--CODEGEN--\":13562:13818   */\n    tag_275:\n      0x00\n        /* \"--CODEGEN--\":13624:13626   */\n      0x40\n        /* \"--CODEGEN--\":13618:13627   */\n      mload\n        /* \"--CODEGEN--\":13608:13627   */\n      swap1\n      pop\n        /* \"--CODEGEN--\":13662:13666   */\n      dup2\n        /* \"--CODEGEN--\":13654:13660   */\n      dup2\n        /* \"--CODEGEN--\":13650:13667   */\n      add\n        /* \"--CODEGEN--\":13761:13767   */\n      dup2\n        /* \"--CODEGEN--\":13749:13759   */\n      dup2\n        /* \"--CODEGEN--\":13746:13768   */\n      lt\n        /* \"--CODEGEN--\":13725:13743   */\n      0xffffffffffffffff\n        /* \"--CODEGEN--\":13713:13723   */\n      dup3\n        /* \"--CODEGEN--\":13710:13744   */\n      gt\n        /* \"--CODEGEN--\":13707:13769   */\n      or\n        /* \"--CODEGEN--\":13704:13706   */\n      iszero\n      tag_419\n      jumpi\n        /* \"--CODEGEN--\":13782:13783   */\n      0x00\n        /* \"--CODEGEN--\":13779:13780   */\n      dup1\n        /* \"--CODEGEN--\":13772:13784   */\n      revert\n        /* \"--CODEGEN--\":13704:13706   */\n    tag_419:\n        /* \"--CODEGEN--\":13802:13812   */\n      dup1\n        /* \"--CODEGEN--\":13798:13800   */\n      0x40\n        /* \"--CODEGEN--\":13791:13813   */\n      mstore\n        /* \"--CODEGEN--\":13602:13818   */\n      pop\n      swap2\n      swap1\n      pop\n      jump\n        /* \"--CODEGEN--\":13825:14147   */\n    tag_274:\n      0x00\n        /* \"--CODEGEN--\":13969:13987   */\n      0xffffffffffffffff\n        /* \"--CODEGEN--\":13961:13967   */\n      dup3\n        /* \"--CODEGEN--\":13958:13988   */\n      gt\n        /* \"--CODEGEN--\":13955:13957   */\n      iszero\n      tag_421\n      jumpi\n        /* \"--CODEGEN--\":14001:14002   */\n      0x00\n        /* \"--CODEGEN--\":13998:13999   */\n      dup1\n        /* \"--CODEGEN--\":13991:14003   */\n      revert\n        /* \"--CODEGEN--\":13955:13957   */\n    tag_421:\n        /* \"--CODEGEN--\":14068:14072   */\n      0x1f\n        /* \"--CODEGEN--\":14064:14073   */\n      not\n        /* \"--CODEGEN--\":14057:14061   */\n      0x1f\n        /* \"--CODEGEN--\":14049:14055   */\n      dup4\n        /* \"--CODEGEN--\":14045:14062   */\n      add\n        /* \"--CODEGEN--\":14041:14074   */\n      and\n        /* \"--CODEGEN--\":14033:14074   */\n      swap1\n      pop\n        /* \"--CODEGEN--\":14132:14136   */\n      0x20\n        /* \"--CODEGEN--\":14126:14130   */\n      dup2\n        /* \"--CODEGEN--\":14122:14137   */\n      add\n        /* \"--CODEGEN--\":14114:14137   */\n      swap1\n      pop\n        /* \"--CODEGEN--\":13892:14147   */\n      swap2\n      swap1\n      pop\n      jump\n        /* \"--CODEGEN--\":14154:14315   */\n    tag_336:\n      0x00\n        /* \"--CODEGEN--\":14250:14253   */\n      dup2\n        /* \"--CODEGEN--\":14242:14253   */\n      swap1\n      pop\n        /* \"--CODEGEN--\":14288:14292   */\n      0x20\n        /* \"--CODEGEN--\":14283:14286   */\n      dup3\n        /* \"--CODEGEN--\":14279:14293   */\n      add\n        /* \"--CODEGEN--\":14271:14293   */\n      swap1\n      pop\n        /* \"--CODEGEN--\":14236:14315   */\n      swap2\n      swap1\n      pop\n      jump\n        /* \"--CODEGEN--\":14322:14483   */\n    tag_356:\n      0x00\n        /* \"--CODEGEN--\":14393:14396   */\n      dup2\n        /* \"--CODEGEN--\":14385:14396   */\n      swap1\n      pop\n        /* \"--CODEGEN--\":14430:14433   */\n      dup2\n        /* \"--CODEGEN--\":14427:14428   */\n      0x00\n        /* \"--CODEGEN--\":14420:14434   */\n      mstore\n        /* \"--CODEGEN--\":14462:14466   */\n      0x20\n        /* \"--CODEGEN--\":14459:14460   */\n      0x00\n        /* \"--CODEGEN--\":14449:14467   */\n      keccak256\n        /* \"--CODEGEN--\":14441:14467   */\n      swap1\n      pop\n        /* \"--CODEGEN--\":14379:14483   */\n      swap2\n      swap1\n      pop\n      jump\n        /* \"--CODEGEN--\":14490:14637   */\n    tag_332:\n      0x00\n        /* \"--CODEGEN--\":14609:14614   */\n      dup2\n        /* \"--CODEGEN--\":14603:14615   */\n      mload\n        /* \"--CODEGEN--\":14593:14615   */\n      swap1\n      pop\n        /* \"--CODEGEN--\":14574:14637   */\n      swap2\n      swap1\n      pop\n      jump\n        /* \"--CODEGEN--\":14644:14766   */\n    tag_362:\n      0x00\n        /* \"--CODEGEN--\":14738:14743   */\n      dup2\n        /* \"--CODEGEN--\":14732:14744   */\n      mload\n        /* \"--CODEGEN--\":14722:14744   */\n      swap1\n      pop\n        /* \"--CODEGEN--\":14703:14766   */\n      swap2\n      swap1\n      pop\n      jump\n        /* \"--CODEGEN--\":14773:14891   */\n    tag_342:\n      0x00\n        /* \"--CODEGEN--\":14881:14885   */\n      0x20\n        /* \"--CODEGEN--\":14876:14879   */\n      dup3\n        /* \"--CODEGEN--\":14872:14886   */\n      add\n        /* \"--CODEGEN--\":14864:14886   */\n      swap1\n      pop\n        /* \"--CODEGEN--\":14858:14891   */\n      swap2\n      swap1\n      pop\n      jump\n        /* \"--CODEGEN--\":14899:15087   */\n    tag_334:\n      0x00\n        /* \"--CODEGEN--\":15039:15045   */\n      dup3\n        /* \"--CODEGEN--\":15034:15037   */\n      dup3\n        /* \"--CODEGEN--\":15027:15046   */\n      mstore\n        /* \"--CODEGEN--\":15076:15080   */\n      0x20\n        /* \"--CODEGEN--\":15071:15074   */\n      dup3\n        /* \"--CODEGEN--\":15067:15081   */\n      add\n        /* \"--CODEGEN--\":15052:15081   */\n      swap1\n      pop\n        /* \"--CODEGEN--\":15020:15087   */\n      swap3\n      swap2\n      pop\n      pop\n      jump\n        /* \"--CODEGEN--\":15096:15240   */\n    tag_353:\n      0x00\n        /* \"--CODEGEN--\":15231:15234   */\n      dup2\n        /* \"--CODEGEN--\":15216:15234   */\n      swap1\n      pop\n        /* \"--CODEGEN--\":15209:15240   */\n      swap3\n      swap2\n      pop\n      pop\n      jump\n        /* \"--CODEGEN--\":15249:15402   */\n    tag_364:\n      0x00\n        /* \"--CODEGEN--\":15354:15360   */\n      dup3\n        /* \"--CODEGEN--\":15349:15352   */\n      dup3\n        /* \"--CODEGEN--\":15342:15361   */\n      mstore\n        /* \"--CODEGEN--\":15391:15395   */\n      0x20\n        /* \"--CODEGEN--\":15386:15389   */\n      dup3\n        /* \"--CODEGEN--\":15382:15396   */\n      add\n        /* \"--CODEGEN--\":15367:15396   */\n      swap1\n      pop\n        /* \"--CODEGEN--\":15335:15402   */\n      swap3\n      swap2\n      pop\n      pop\n      jump\n        /* \"--CODEGEN--\":15411:15574   */\n    tag_373:\n      0x00\n        /* \"--CODEGEN--\":15526:15532   */\n      dup3\n        /* \"--CODEGEN--\":15521:15524   */\n      dup3\n        /* \"--CODEGEN--\":15514:15533   */\n      mstore\n        /* \"--CODEGEN--\":15563:15567   */\n      0x20\n        /* \"--CODEGEN--\":15558:15561   */\n      dup3\n        /* \"--CODEGEN--\":15554:15568   */\n      add\n        /* \"--CODEGEN--\":15539:15568   */\n      swap1\n      pop\n        /* \"--CODEGEN--\":15507:15574   */\n      swap3\n      swap2\n      pop\n      pop\n      jump\n        /* \"--CODEGEN--\":15582:15673   */\n    tag_328:\n      0x00\n        /* \"--CODEGEN--\":15644:15668   */\n      tag_432\n        /* \"--CODEGEN--\":15662:15667   */\n      dup3\n        /* \"--CODEGEN--\":15644:15668   */\n      jump(tag_433)\n    tag_432:\n        /* \"--CODEGEN--\":15633:15668   */\n      swap1\n      pop\n        /* \"--CODEGEN--\":15627:15673   */\n      swap2\n      swap1\n      pop\n      jump\n        /* \"--CODEGEN--\":15680:15765   */\n    tag_346:\n      0x00\n        /* \"--CODEGEN--\":15753:15758   */\n      dup2\n        /* \"--CODEGEN--\":15746:15759   */\n      iszero\n        /* \"--CODEGEN--\":15739:15760   */\n      iszero\n        /* \"--CODEGEN--\":15728:15760   */\n      swap1\n      pop\n        /* \"--CODEGEN--\":15722:15765   */\n      swap2\n      swap1\n      pop\n      jump\n        /* \"--CODEGEN--\":15772:15893   */\n    tag_433:\n      0x00\n        /* \"--CODEGEN--\":15845:15887   */\n      0xffffffffffffffffffffffffffffffffffffffff\n        /* \"--CODEGEN--\":15838:15843   */\n      dup3\n        /* \"--CODEGEN--\":15834:15888   */\n      and\n        /* \"--CODEGEN--\":15823:15888   */\n      swap1\n      pop\n        /* \"--CODEGEN--\":15817:15893   */\n      swap2\n      swap1\n      pop\n      jump\n        /* \"--CODEGEN--\":15900:15981   */\n    tag_388:\n      0x00\n        /* \"--CODEGEN--\":15971:15975   */\n      0xff\n        /* \"--CODEGEN--\":15964:15969   */\n      dup3\n        /* \"--CODEGEN--\":15960:15976   */\n      and\n        /* \"--CODEGEN--\":15949:15976   */\n      swap1\n      pop\n        /* \"--CODEGEN--\":15943:15981   */\n      swap2\n      swap1\n      pop\n      jump\n        /* \"--CODEGEN--\":15989:16134   */\n    tag_278:\n        /* \"--CODEGEN--\":16070:16076   */\n      dup3\n        /* \"--CODEGEN--\":16065:16068   */\n      dup2\n        /* \"--CODEGEN--\":16060:16063   */\n      dup4\n        /* \"--CODEGEN--\":16047:16077   */\n      calldatacopy\n        /* \"--CODEGEN--\":16126:16127   */\n      0x00\n        /* \"--CODEGEN--\":16117:16123   */\n      dup4\n        /* \"--CODEGEN--\":16112:16115   */\n      dup4\n        /* \"--CODEGEN--\":16108:16124   */\n      add\n        /* \"--CODEGEN--\":16101:16128   */\n      mstore\n        /* \"--CODEGEN--\":16040:16134   */\n      pop\n      pop\n      pop\n      jump\n        /* \"--CODEGEN--\":16143:16411   */\n    tag_366:\n        /* \"--CODEGEN--\":16208:16209   */\n      0x00\n        /* \"--CODEGEN--\":16215:16316   */\n    tag_439:\n        /* \"--CODEGEN--\":16229:16235   */\n      dup4\n        /* \"--CODEGEN--\":16226:16227   */\n      dup2\n        /* \"--CODEGEN--\":16223:16236   */\n      lt\n        /* \"--CODEGEN--\":16215:16316   */\n      iszero\n      tag_441\n      jumpi\n        /* \"--CODEGEN--\":16305:16306   */\n      dup1\n        /* \"--CODEGEN--\":16300:16303   */\n      dup3\n        /* \"--CODEGEN--\":16296:16307   */\n      add\n        /* \"--CODEGEN--\":16290:16308   */\n      mload\n        /* \"--CODEGEN--\":16286:16287   */\n      dup2\n        /* \"--CODEGEN--\":16281:16284   */\n      dup5\n        /* \"--CODEGEN--\":16277:16288   */\n      add\n        /* \"--CODEGEN--\":16270:16309   */\n      mstore\n        /* \"--CODEGEN--\":16251:16253   */\n      0x20\n        /* \"--CODEGEN--\":16248:16249   */\n      dup2\n        /* \"--CODEGEN--\":16244:16254   */\n      add\n        /* \"--CODEGEN--\":16239:16254   */\n      swap1\n      pop\n        /* \"--CODEGEN--\":16215:16316   */\n      jump(tag_439)\n    tag_441:\n        /* \"--CODEGEN--\":16331:16337   */\n      dup4\n        /* \"--CODEGEN--\":16328:16329   */\n      dup2\n        /* \"--CODEGEN--\":16325:16338   */\n      gt\n        /* \"--CODEGEN--\":16322:16324   */\n      iszero\n      tag_442\n      jumpi\n        /* \"--CODEGEN--\":16396:16397   */\n      0x00\n        /* \"--CODEGEN--\":16387:16393   */\n      dup5\n        /* \"--CODEGEN--\":16382:16385   */\n      dup5\n        /* \"--CODEGEN--\":16378:16394   */\n      add\n        /* \"--CODEGEN--\":16371:16398   */\n      mstore\n        /* \"--CODEGEN--\":16322:16324   */\n    tag_442:\n        /* \"--CODEGEN--\":16192:16411   */\n      pop\n      pop\n      pop\n      pop\n      jump\n        /* \"--CODEGEN--\":16419:16516   */\n    tag_368:\n      0x00\n        /* \"--CODEGEN--\":16507:16509   */\n      0x1f\n        /* \"--CODEGEN--\":16503:16510   */\n      not\n        /* \"--CODEGEN--\":16498:16500   */\n      0x1f\n        /* \"--CODEGEN--\":16491:16496   */\n      dup4\n        /* \"--CODEGEN--\":16487:16501   */\n      add\n        /* \"--CODEGEN--\":16483:16511   */\n      and\n        /* \"--CODEGEN--\":16473:16511   */\n      swap1\n      pop\n        /* \"--CODEGEN--\":16467:16516   */\n      swap2\n      swap1\n      pop\n      jump\n        /* \"--CODEGEN--\":16524:16641   */\n    tag_268:\n        /* \"--CODEGEN--\":16593:16617   */\n      tag_445\n        /* \"--CODEGEN--\":16611:16616   */\n      dup2\n        /* \"--CODEGEN--\":16593:16617   */\n      jump(tag_328)\n    tag_445:\n        /* \"--CODEGEN--\":16586:16591   */\n      dup2\n        /* \"--CODEGEN--\":16583:16618   */\n      eq\n        /* \"--CODEGEN--\":16573:16575   */\n      tag_446\n      jumpi\n        /* \"--CODEGEN--\":16632:16633   */\n      0x00\n        /* \"--CODEGEN--\":16629:16630   */\n      dup1\n        /* \"--CODEGEN--\":16622:16634   */\n      revert\n        /* \"--CODEGEN--\":16573:16575   */\n    tag_446:\n        /* \"--CODEGEN--\":16567:16641   */\n      pop\n      jump\n        /* \"--CODEGEN--\":16648:16761   */\n    tag_282:\n        /* \"--CODEGEN--\":16715:16737   */\n      tag_448\n        /* \"--CODEGEN--\":16731:16736   */\n      dup2\n        /* \"--CODEGEN--\":16715:16737   */\n      jump(tag_388)\n    tag_448:\n        /* \"--CODEGEN--\":16708:16713   */\n      dup2\n        /* \"--CODEGEN--\":16705:16738   */\n      eq\n        /* \"--CODEGEN--\":16695:16697   */\n      tag_449\n      jumpi\n        /* \"--CODEGEN--\":16752:16753   */\n      0x00\n        /* \"--CODEGEN--\":16749:16750   */\n      dup1\n        /* \"--CODEGEN--\":16742:16754   */\n      revert\n        /* \"--CODEGEN--\":16695:16697   */\n    tag_449:\n        /* \"--CODEGEN--\":16689:16761   */\n      pop\n      jump\n\n    auxdata: 0xa2646970667358221220e772da914aed3c16c8754dacc5060d5fc9f160e7172d9a9b888b7e419aa8767764736f6c63430006060033\n}\n",
    "bytecode": {
      "linkReferences": {},
      "object": "60806040523480156200001157600080fd5b50336000806101000a81548173ffffffffffffffffffffffffffffffffffffffff021916908373ffffffffffffffffffffffffffffffffffffffff160217905550600060018190555062000121738bd997ab0abd89e9a23ff3ccce5a71dde6326f9a6040518060400160405280601981526020017f52756d61682053616b69742057696a61796120576979756e67000000000000008152506040518060400160405280600381526020017f31323300000000000000000000000000000000000000000000000000000000008152506040518060400160405280600f81526020017f576979756e6720537572616261796100000000000000000000000000000000008152506200012760201b60201c565b6200038a565b3373ffffffffffffffffffffffffffffffffffffffff166000809054906101000a900473ffffffffffffffffffffffffffffffffffffffff1673ffffffffffffffffffffffffffffffffffffffff16146200018157600080fd5b6200018b6200029d565b60405180608001604052808673ffffffffffffffffffffffffffffffffffffffff168152602001858152602001848152602001838152509050600381908060018154018082558091505060019003906000526020600020906004020160009091909190915060008201518160000160006101000a81548173ffffffffffffffffffffffffffffffffffffffff021916908373ffffffffffffffffffffffffffffffffffffffff160217905550602082015181600101908051906020019062000255929190620002db565b50604082015181600201908051906020019062000274929190620002db565b50606082015181600301908051906020019062000293929190620002db565b5050505050505050565b6040518060800160405280600073ffffffffffffffffffffffffffffffffffffffff1681526020016060815260200160608152602001606081525090565b828054600181600116156101000203166002900490600052602060002090601f016020900481019282601f106200031e57805160ff19168380011785556200034f565b828001600101855582156200034f579182015b828111156200034e57825182559160200191906001019062000331565b5b5090506200035e919062000362565b5090565b6200038791905b808211156200038357600081600090555060010162000369565b5090565b90565b611fbc806200039a6000396000f3fe608060405234801561001057600080fd5b50600436106100935760003560e01c8063a3e9b55811610066578063a3e9b5581461013a578063a480fef314610156578063a61cef0c14610172578063d50095841461018e578063e39be646146101ac57610093565b8063115ada66146100985780632db67237146100b6578063571f2ac1146100e6578063694e54bf1461011e575b600080fd5b6100a06101df565b6040516100ad9190611ca9565b60405180910390f35b6100d060048036038101906100cb919061176e565b610282565b6040516100dd9190611c87565b60405180910390f35b61010060048036038101906100fb919061176e565b6104d1565b60405161011599989796959493929190611cc4565b60405180910390f35b610138600480360381019061013391906117af565b610a9d565b005b610154600480360381019061014f91906116c3565b610b78565b005b610170600480360381019061016b91906118da565b610ce5565b005b61018c6004803603810190610187919061181b565b610efc565b005b610196611087565b6040516101a39190611c12565b60405180910390f35b6101c660048036038101906101c1919061176e565b6110b0565b6040516101d69493929190611c2d565b60405180910390f35b600080600090505b60038054905081101561027d576003818154811061020157fe5b906000526020600020906004020160000160009054906101000a900473ffffffffffffffffffffffffffffffffffffffff1673ffffffffffffffffffffffffffffffffffffffff163373ffffffffffffffffffffffffffffffffffffffff16141561027057600191505061027f565b80806001019150506101e7565b505b90565b606061028c6101df565b61029557600080fd5b606060008090505b6002805490508110156104c757600281815481106102b757fe5b90600052602060002090600802016000016040516102d59190611bfb565b60405180910390208480519060200120141561047f57600281815481106102f857fe5b90600052602060002090600802016007018054905067ffffffffffffffff8111801561032357600080fd5b5060405190808252806020026020018201604052801561035757816020015b60608152602001906001900390816103425790505b50915060008090505b6002828154811061036d57fe5b906000526020600020906008020160070180549050811015610479576002828154811061039657fe5b906000526020600020906008020160070181815481106103b257fe5b906000526020600020018054600181600116156101000203166002900480601f0160208091040260200160405190810160405280929190818152602001828054600181600116156101000203166002900480156104505780601f1061042557610100808354040283529160200191610450565b820191906000526020600020905b81548152906001019060200180831161043357829003601f168201915b505050505083828151811061046157fe5b60200260200101819052508080600101915050610360565b506104ba565b6040517f08c379a00000000000000000000000000000000000000000000000000000000081526004016104b190611d7b565b60405180910390fd5b808060010191505061029d565b5080915050919050565b6060806000606080606060008060606104e86101df565b6104f157600080fd5b60005b600280549050811015610a8e576002818154811061050e57fe5b906000526020600020906008020160000160405161052c9190611bfb565b60405180910390208b805190602001201415610a81576002818154811061054f57fe5b90600052602060002090600802016000016002828154811061056d57fe5b90600052602060002090600802016001016002838154811061058b57fe5b906000526020600020906008020160020160009054906101000a900460ff16600284815481106105b757fe5b9060005260206000209060080201600301600285815481106105d557fe5b9060005260206000209060080201600401600286815481106105f357fe5b90600052602060002090600802016005016002878154811061061157fe5b906000526020600020906008020160060160019054906101000a900460ff166002888154811061063d57fe5b906000526020600020906008020160060160009054906101000a900460ff166002898154811061066957fe5b9060005260206000209060080201600701888054600181600116156101000203166002900480601f01602080910402602001604051908101604052809291908181526020018280546001816001161561010002031660029004801561070f5780601f106106e45761010080835404028352916020019161070f565b820191906000526020600020905b8154815290600101906020018083116106f257829003601f168201915b50505050509850878054600181600116156101000203166002900480601f0160208091040260200160405190810160405280929190818152602001828054600181600116156101000203166002900480156107ab5780601f10610780576101008083540402835291602001916107ab565b820191906000526020600020905b81548152906001019060200180831161078e57829003601f168201915b50505050509750858054600181600116156101000203166002900480601f0160208091040260200160405190810160405280929190818152602001828054600181600116156101000203166002900480156108475780601f1061081c57610100808354040283529160200191610847565b820191906000526020600020905b81548152906001019060200180831161082a57829003601f168201915b50505050509550848054600181600116156101000203166002900480601f0160208091040260200160405190810160405280929190818152602001828054600181600116156101000203166002900480156108e35780601f106108b8576101008083540402835291602001916108e3565b820191906000526020600020905b8154815290600101906020018083116108c657829003601f168201915b50505050509450838054600181600116156101000203166002900480601f01602080910402602001604051908101604052809291908181526020018280546001816001161561010002031660029004801561097f5780601f106109545761010080835404028352916020019161097f565b820191906000526020600020905b81548152906001019060200180831161096257829003601f168201915b5050505050935080805480602002602001604051908101604052809291908181526020016000905b82821015610a63578382906000526020600020018054600181600116156101000203166002900480601f016020809104026020016040519081016040528092919081815260200182805460018160011615610100020316600290048015610a4f5780601f10610a2457610100808354040283529160200191610a4f565b820191906000526020600020905b815481529060010190602001808311610a3257829003601f168201915b5050505050815260200190600101906109a7565b50505050905099509950995099509950995099509950995050610a90565b80806001019150506104f4565b505b9193959799909294969850565b610aa56101df565b610aae57600080fd5b6000815111610abc57600080fd5b60005b600280549050811015610b735760028181548110610ad957fe5b9060005260206000209060080201600001604051610af79190611bfb565b604051809103902083805190602001201415610b665760028181548110610b1a57fe5b906000526020600020906008020160070182908060018154018082558091505060019003906000526020600020016000909190919091509080519060200190610b64929190611439565b505b8080600101915050610abf565b505050565b3373ffffffffffffffffffffffffffffffffffffffff166000809054906101000a900473ffffffffffffffffffffffffffffffffffffffff1673ffffffffffffffffffffffffffffffffffffffff1614610bd157600080fd5b610bd96114b9565b60405180608001604052808673ffffffffffffffffffffffffffffffffffffffff168152602001858152602001848152602001838152509050600381908060018154018082558091505060019003906000526020600020906004020160009091909190915060008201518160000160006101000a81548173ffffffffffffffffffffffffffffffffffffffff021916908373ffffffffffffffffffffffffffffffffffffffff1602179055506020820151816001019080519060200190610ca1929190611439565b506040820151816002019080519060200190610cbe929190611439565b506060820151816003019080519060200190610cdb929190611439565b5050505050505050565b610ced6101df565b610cf657600080fd5b610cfe6114f7565b6040518061012001604052808681526020018581526020018460ff168152602001838152602001604051806020016040528060008152508152602001604051806020016040528060008152508152602001600060ff168152602001600060ff168152602001600067ffffffffffffffff81118015610d7b57600080fd5b50604051908082528060200260200182016040528015610daf57816020015b6060815260200190600190039081610d9a5790505b50815250905060028190806001815401808255809150506001900390600052602060002090600802016000909190919091506000820151816000019080519060200190610dfd929190611439565b506020820151816001019080519060200190610e1a929190611439565b5060408201518160020160006101000a81548160ff021916908360ff1602179055506060820151816003019080519060200190610e58929190611439565b506080820151816004019080519060200190610e75929190611439565b5060a0820151816005019080519060200190610e92929190611439565b5060c08201518160060160006101000a81548160ff021916908360ff16021790555060e08201518160060160016101000a81548160ff021916908360ff160217905550610100820151816007019080519060200190610ef292919061154c565b5050505050505050565b610f046101df565b610f0d57600080fd5b60005b60028054905081101561107f5760028181548110610f2a57fe5b9060005260206000209060080201600001604051610f489190611bfb565b604051809103902086805190602001201415611037578460028281548110610f6c57fe5b90600052602060002090600802016004019080519060200190610f90929190611439565b508360028281548110610f9f57fe5b90600052602060002090600802016005019080519060200190610fc3929190611439565b508260028281548110610fd257fe5b906000526020600020906008020160060160016101000a81548160ff021916908360ff160217905550816002828154811061100957fe5b906000526020600020906008020160060160006101000a81548160ff021916908360ff160217905550611072565b6040517f08c379a000000000000000000000000000000000000000000000000000000000815260040161106990611dbb565b60405180910390fd5b8080600101915050610f10565b505050505050565b60008060009054906101000a900473ffffffffffffffffffffffffffffffffffffffff16905090565b600060608060603373ffffffffffffffffffffffffffffffffffffffff166000809054906101000a900473ffffffffffffffffffffffffffffffffffffffff1673ffffffffffffffffffffffffffffffffffffffff161461111057600080fd5b600060608060008090505b600380549050811015611422576003818154811061113557fe5b90600052602060002090600402016002016040516111539190611bfb565b6040518091039020898051906020012014156113da576003818154811061117657fe5b906000526020600020906004020160000160009054906101000a900473ffffffffffffffffffffffffffffffffffffffff169350600381815481106111b757fe5b90600052602060002090600402016001018054600181600116156101000203166002900480601f01602080910402602001604051908101604052809291908181526020018280546001816001161561010002031660029004801561125c5780601f106112315761010080835404028352916020019161125c565b820191906000526020600020905b81548152906001019060200180831161123f57829003601f168201915b505050505092506003818154811061127057fe5b90600052602060002090600402016002018054600181600116156101000203166002900480601f0160208091040260200160405190810160405280929190818152602001828054600181600116156101000203166002900480156113155780601f106112ea57610100808354040283529160200191611315565b820191906000526020600020905b8154815290600101906020018083116112f857829003601f168201915b505050505098506003818154811061132957fe5b90600052602060002090600402016003018054600181600116156101000203166002900480601f0160208091040260200160405190810160405280929190818152602001828054600181600116156101000203166002900480156113ce5780601f106113a3576101008083540402835291602001916113ce565b820191906000526020600020905b8154815290600101906020018083116113b157829003601f168201915b50505050509150611415565b6040517f08c379a000000000000000000000000000000000000000000000000000000000815260040161140c90611d9b565b60405180910390fd5b808060010191505061111b565b508282898396509650965096505050509193509193565b828054600181600116156101000203166002900490600052602060002090601f016020900481019282601f1061147a57805160ff19168380011785556114a8565b828001600101855582156114a8579182015b828111156114a757825182559160200191906001019061148c565b5b5090506114b591906115ac565b5090565b6040518060800160405280600073ffffffffffffffffffffffffffffffffffffffff1681526020016060815260200160608152602001606081525090565b6040518061012001604052806060815260200160608152602001600060ff168152602001606081526020016060815260200160608152602001600060ff168152602001600060ff168152602001606081525090565b82805482825590600052602060002090810192821561159b579160200282015b8281111561159a57825182908051906020019061158a929190611439565b509160200191906001019061156c565b5b5090506115a891906115d1565b5090565b6115ce91905b808211156115ca5760008160009055506001016115b2565b5090565b90565b6115fa91905b808211156115f657600081816115ed91906115fd565b506001016115d7565b5090565b90565b50805460018160011615610100020316600290046000825580601f106116235750611642565b601f01602090049060005260206000209081019061164191906115ac565b5b50565b60008135905061165481611f58565b92915050565b600082601f83011261166b57600080fd5b813561167e61167982611e08565b611ddb565b9150808252602083016020830185838301111561169a57600080fd5b6116a5838284611f05565b50505092915050565b6000813590506116bd81611f6f565b92915050565b600080600080608085870312156116d957600080fd5b60006116e787828801611645565b945050602085013567ffffffffffffffff81111561170457600080fd5b6117108782880161165a565b935050604085013567ffffffffffffffff81111561172d57600080fd5b6117398782880161165a565b925050606085013567ffffffffffffffff81111561175657600080fd5b6117628782880161165a565b91505092959194509250565b60006020828403121561178057600080fd5b600082013567ffffffffffffffff81111561179a57600080fd5b6117a68482850161165a565b91505092915050565b600080604083850312156117c257600080fd5b600083013567ffffffffffffffff8111156117dc57600080fd5b6117e88582860161165a565b925050602083013567ffffffffffffffff81111561180557600080fd5b6118118582860161165a565b9150509250929050565b600080600080600060a0868803121561183357600080fd5b600086013567ffffffffffffffff81111561184d57600080fd5b6118598882890161165a565b955050602086013567ffffffffffffffff81111561187657600080fd5b6118828882890161165a565b945050604086013567ffffffffffffffff81111561189f57600080fd5b6118ab8882890161165a565b93505060606118bc888289016116ae565b92505060806118cd888289016116ae565b9150509295509295909350565b600080600080608085870312156118f057600080fd5b600085013567ffffffffffffffff81111561190a57600080fd5b6119168782880161165a565b945050602085013567ffffffffffffffff81111561193357600080fd5b61193f8782880161165a565b9350506040611950878288016116ae565b925050606085013567ffffffffffffffff81111561196d57600080fd5b6119798782880161165a565b91505092959194509250565b60006119918383611aba565b905092915050565b6119a281611eba565b82525050565b60006119b382611e59565b6119bd8185611e7c565b9350836020820285016119cf85611e34565b8060005b85811015611a0b57848403895281516119ec8582611985565b94506119f783611e6f565b925060208a019950506001810190506119d3565b50829750879550505050505092915050565b611a2681611ecc565b82525050565b600081546001811660008114611a495760018114611a6e57611ab2565b607f6002830416611a5a8187611e8d565b955060ff1983168652808601935050611ab2565b60028204611a7c8187611e8d565b9550611a8785611e44565b60005b82811015611aa957815481890152600182019150602081019050611a8a565b82880195505050505b505092915050565b6000611ac582611e64565b611acf8185611e98565b9350611adf818560208601611f14565b611ae881611f47565b840191505092915050565b6000611afe82611e64565b611b088185611ea9565b9350611b18818560208601611f14565b611b2181611f47565b840191505092915050565b6000611b39600983611ea9565b91507f4e494b2073616c616800000000000000000000000000000000000000000000006000830152602082019050919050565b6000611b79600b83611ea9565b91507f49442052532053616c61680000000000000000000000000000000000000000006000830152602082019050919050565b6000611bb9600983611ea9565b91507f4e494b2053616c616800000000000000000000000000000000000000000000006000830152602082019050919050565b611bf581611ef8565b82525050565b6000611c078284611a2c565b915081905092915050565b6000602082019050611c276000830184611999565b92915050565b6000608082019050611c426000830187611999565b8181036020830152611c548186611af3565b90508181036040830152611c688185611af3565b90508181036060830152611c7c8184611af3565b905095945050505050565b60006020820190508181036000830152611ca181846119a8565b905092915050565b6000602082019050611cbe6000830184611a1d565b92915050565b6000610120820190508181036000830152611cdf818c611af3565b90508181036020830152611cf3818b611af3565b9050611d02604083018a611bec565b8181036060830152611d148189611af3565b90508181036080830152611d288188611af3565b905081810360a0830152611d3c8187611af3565b9050611d4b60c0830186611bec565b611d5860e0830185611bec565b818103610100830152611d6b81846119a8565b90509a9950505050505050505050565b60006020820190508181036000830152611d9481611b2c565b9050919050565b60006020820190508181036000830152611db481611b6c565b9050919050565b60006020820190508181036000830152611dd481611bac565b9050919050565b6000604051905081810181811067ffffffffffffffff82111715611dfe57600080fd5b8060405250919050565b600067ffffffffffffffff821115611e1f57600080fd5b601f19601f8301169050602081019050919050565b6000819050602082019050919050565b60008190508160005260206000209050919050565b600081519050919050565b600081519050919050565b6000602082019050919050565b600082825260208201905092915050565b600081905092915050565b600082825260208201905092915050565b600082825260208201905092915050565b6000611ec582611ed8565b9050919050565b60008115159050919050565b600073ffffffffffffffffffffffffffffffffffffffff82169050919050565b600060ff82169050919050565b82818337600083830152505050565b60005b83811015611f32578082015181840152602081019050611f17565b83811115611f41576000848401525b50505050565b6000601f19601f8301169050919050565b611f6181611eba565b8114611f6c57600080fd5b50565b611f7881611ef8565b8114611f8357600080fd5b5056fea2646970667358221220e772da914aed3c16c8754dacc5060d5fc9f160e7172d9a9b888b7e419aa8767764736f6c63430006060033",
      "opcodes": "PUSH1 0x80 PUSH1 0x40 MSTORE CALLVALUE DUP1 ISZERO PUSH3 0x11 JUMPI PUSH1 0x0 DUP1 REVERT JUMPDEST POP CALLER PUSH1 0x0 DUP1 PUSH2 0x100 EXP DUP2 SLOAD DUP2 PUSH20 0xFFFFFFFFFFFFFFFFFFFFFFFFFFFFFFFFFFFFFFFF MUL NOT AND SWAP1 DUP4 PUSH20 0xFFFFFFFFFFFFFFFFFFFFFFFFFFFFFFFFFFFFFFFF AND MUL OR SWAP1 SSTORE POP PUSH1 0x0 PUSH1 0x1 DUP2 SWAP1 SSTORE POP PUSH3 0x121 PUSH20 0x8BD997AB0ABD89E9A23FF3CCCE5A71DDE6326F9A PUSH1 0x40 MLOAD DUP1 PUSH1 0x40 ADD PUSH1 0x40 MSTORE DUP1 PUSH1 0x19 DUP2 MSTORE PUSH1 0x20 ADD PUSH32 0x52756D61682053616B69742057696A61796120576979756E6700000000000000 DUP2 MSTORE POP PUSH1 0x40 MLOAD DUP1 PUSH1 0x40 ADD PUSH1 0x40 MSTORE DUP1 PUSH1 0x3 DUP2 MSTORE PUSH1 0x20 ADD PUSH32 0x3132330000000000000000000000000000000000000000000000000000000000 DUP2 MSTORE POP PUSH1 0x40 MLOAD DUP1 PUSH1 0x40 ADD PUSH1 0x40 MSTORE DUP1 PUSH1 0xF DUP2 MSTORE PUSH1 0x20 ADD PUSH32 0x576979756E672053757261626179610000000000000000000000000000000000 DUP2 MSTORE POP PUSH3 0x127 PUSH1 0x20 SHL PUSH1 0x20 SHR JUMP JUMPDEST PUSH3 0x38A JUMP JUMPDEST CALLER PUSH20 0xFFFFFFFFFFFFFFFFFFFFFFFFFFFFFFFFFFFFFFFF AND PUSH1 0x0 DUP1 SWAP1 SLOAD SWAP1 PUSH2 0x100 EXP SWAP1 DIV PUSH20 0xFFFFFFFFFFFFFFFFFFFFFFFFFFFFFFFFFFFFFFFF AND PUSH20 0xFFFFFFFFFFFFFFFFFFFFFFFFFFFFFFFFFFFFFFFF AND EQ PUSH3 0x181 JUMPI PUSH1 0x0 DUP1 REVERT JUMPDEST PUSH3 0x18B PUSH3 0x29D JUMP JUMPDEST PUSH1 0x40 MLOAD DUP1 PUSH1 0x80 ADD PUSH1 0x40 MSTORE DUP1 DUP7 PUSH20 0xFFFFFFFFFFFFFFFFFFFFFFFFFFFFFFFFFFFFFFFF AND DUP2 MSTORE PUSH1 0x20 ADD DUP6 DUP2 MSTORE PUSH1 0x20 ADD DUP5 DUP2 MSTORE PUSH1 0x20 ADD DUP4 DUP2 MSTORE POP SWAP1 POP PUSH1 0x3 DUP2 SWAP1 DUP1 PUSH1 0x1 DUP2 SLOAD ADD DUP1 DUP3 SSTORE DUP1 SWAP2 POP POP PUSH1 0x1 SWAP1 SUB SWAP1 PUSH1 0x0 MSTORE PUSH1 0x20 PUSH1 0x0 KECCAK256 SWAP1 PUSH1 0x4 MUL ADD PUSH1 0x0 SWAP1 SWAP2 SWAP1 SWAP2 SWAP1 SWAP2 POP PUSH1 0x0 DUP3 ADD MLOAD DUP2 PUSH1 0x0 ADD PUSH1 0x0 PUSH2 0x100 EXP DUP2 SLOAD DUP2 PUSH20 0xFFFFFFFFFFFFFFFFFFFFFFFFFFFFFFFFFFFFFFFF MUL NOT AND SWAP1 DUP4 PUSH20 0xFFFFFFFFFFFFFFFFFFFFFFFFFFFFFFFFFFFFFFFF AND MUL OR SWAP1 SSTORE POP PUSH1 0x20 DUP3 ADD MLOAD DUP2 PUSH1 0x1 ADD SWAP1 DUP1 MLOAD SWAP1 PUSH1 0x20 ADD SWAP1 PUSH3 0x255 SWAP3 SWAP2 SWAP1 PUSH3 0x2DB JUMP JUMPDEST POP PUSH1 0x40 DUP3 ADD MLOAD DUP2 PUSH1 0x2 ADD SWAP1 DUP1 MLOAD SWAP1 PUSH1 0x20 ADD SWAP1 PUSH3 0x274 SWAP3 SWAP2 SWAP1 PUSH3 0x2DB JUMP JUMPDEST POP PUSH1 0x60 DUP3 ADD MLOAD DUP2 PUSH1 0x3 ADD SWAP1 DUP1 MLOAD SWAP1 PUSH1 0x20 ADD SWAP1 PUSH3 0x293 SWAP3 SWAP2 SWAP1 PUSH3 0x2DB JUMP JUMPDEST POP POP POP POP POP POP POP POP JUMP JUMPDEST PUSH1 0x40 MLOAD DUP1 PUSH1 0x80 ADD PUSH1 0x40 MSTORE DUP1 PUSH1 0x0 PUSH20 0xFFFFFFFFFFFFFFFFFFFFFFFFFFFFFFFFFFFFFFFF AND DUP2 MSTORE PUSH1 0x20 ADD PUSH1 0x60 DUP2 MSTORE PUSH1 0x20 ADD PUSH1 0x60 DUP2 MSTORE PUSH1 0x20 ADD PUSH1 0x60 DUP2 MSTORE POP SWAP1 JUMP JUMPDEST DUP3 DUP1 SLOAD PUSH1 0x1 DUP2 PUSH1 0x1 AND ISZERO PUSH2 0x100 MUL SUB AND PUSH1 0x2 SWAP1 DIV SWAP1 PUSH1 0x0 MSTORE PUSH1 0x20 PUSH1 0x0 KECCAK256 SWAP1 PUSH1 0x1F ADD PUSH1 0x20 SWAP1 DIV DUP2 ADD SWAP3 DUP3 PUSH1 0x1F LT PUSH3 0x31E JUMPI DUP1 MLOAD PUSH1 0xFF NOT AND DUP4 DUP1 ADD OR DUP6 SSTORE PUSH3 0x34F JUMP JUMPDEST DUP3 DUP1 ADD PUSH1 0x1 ADD DUP6 SSTORE DUP3 ISZERO PUSH3 0x34F JUMPI SWAP2 DUP3 ADD JUMPDEST DUP3 DUP2 GT ISZERO PUSH3 0x34E JUMPI DUP3 MLOAD DUP3 SSTORE SWAP2 PUSH1 0x20 ADD SWAP2 SWAP1 PUSH1 0x1 ADD SWAP1 PUSH3 0x331 JUMP JUMPDEST JUMPDEST POP SWAP1 POP PUSH3 0x35E SWAP2 SWAP1 PUSH3 0x362 JUMP JUMPDEST POP SWAP1 JUMP JUMPDEST PUSH3 0x387 SWAP2 SWAP1 JUMPDEST DUP1 DUP3 GT ISZERO PUSH3 0x383 JUMPI PUSH1 0x0 DUP2 PUSH1 0x0 SWAP1 SSTORE POP PUSH1 0x1 ADD PUSH3 0x369 JUMP JUMPDEST POP SWAP1 JUMP JUMPDEST SWAP1 JUMP JUMPDEST PUSH2 0x1FBC DUP1 PUSH3 0x39A PUSH1 0x0 CODECOPY PUSH1 0x0 RETURN INVALID PUSH1 0x80 PUSH1 0x40 MSTORE CALLVALUE DUP1 ISZERO PUSH2 0x10 JUMPI PUSH1 0x0 DUP1 REVERT JUMPDEST POP PUSH1 0x4 CALLDATASIZE LT PUSH2 0x93 JUMPI PUSH1 0x0 CALLDATALOAD PUSH1 0xE0 SHR DUP1 PUSH4 0xA3E9B558 GT PUSH2 0x66 JUMPI DUP1 PUSH4 0xA3E9B558 EQ PUSH2 0x13A JUMPI DUP1 PUSH4 0xA480FEF3 EQ PUSH2 0x156 JUMPI DUP1 PUSH4 0xA61CEF0C EQ PUSH2 0x172 JUMPI DUP1 PUSH4 0xD5009584 EQ PUSH2 0x18E JUMPI DUP1 PUSH4 0xE39BE646 EQ PUSH2 0x1AC JUMPI PUSH2 0x93 JUMP JUMPDEST DUP1 PUSH4 0x115ADA66 EQ PUSH2 0x98 JUMPI DUP1 PUSH4 0x2DB67237 EQ PUSH2 0xB6 JUMPI DUP1 PUSH4 0x571F2AC1 EQ PUSH2 0xE6 JUMPI DUP1 PUSH4 0x694E54BF EQ PUSH2 0x11E JUMPI JUMPDEST PUSH1 0x0 DUP1 REVERT JUMPDEST PUSH2 0xA0 PUSH2 0x1DF JUMP JUMPDEST PUSH1 0x40 MLOAD PUSH2 0xAD SWAP2 SWAP1 PUSH2 0x1CA9 JUMP JUMPDEST PUSH1 0x40 MLOAD DUP1 SWAP2 SUB SWAP1 RETURN JUMPDEST PUSH2 0xD0 PUSH1 0x4 DUP1 CALLDATASIZE SUB DUP2 ADD SWAP1 PUSH2 0xCB SWAP2 SWAP1 PUSH2 0x176E JUMP JUMPDEST PUSH2 0x282 JUMP JUMPDEST PUSH1 0x40 MLOAD PUSH2 0xDD SWAP2 SWAP1 PUSH2 0x1C87 JUMP JUMPDEST PUSH1 0x40 MLOAD DUP1 SWAP2 SUB SWAP1 RETURN JUMPDEST PUSH2 0x100 PUSH1 0x4 DUP1 CALLDATASIZE SUB DUP2 ADD SWAP1 PUSH2 0xFB SWAP2 SWAP1 PUSH2 0x176E JUMP JUMPDEST PUSH2 0x4D1 JUMP JUMPDEST PUSH1 0x40 MLOAD PUSH2 0x115 SWAP10 SWAP9 SWAP8 SWAP7 SWAP6 SWAP5 SWAP4 SWAP3 SWAP2 SWAP1 PUSH2 0x1CC4 JUMP JUMPDEST PUSH1 0x40 MLOAD DUP1 SWAP2 SUB SWAP1 RETURN JUMPDEST PUSH2 0x138 PUSH1 0x4 DUP1 CALLDATASIZE SUB DUP2 ADD SWAP1 PUSH2 0x133 SWAP2 SWAP1 PUSH2 0x17AF JUMP JUMPDEST PUSH2 0xA9D JUMP JUMPDEST STOP JUMPDEST PUSH2 0x154 PUSH1 0x4 DUP1 CALLDATASIZE SUB DUP2 ADD SWAP1 PUSH2 0x14F SWAP2 SWAP1 PUSH2 0x16C3 JUMP JUMPDEST PUSH2 0xB78 JUMP JUMPDEST STOP JUMPDEST PUSH2 0x170 PUSH1 0x4 DUP1 CALLDATASIZE SUB DUP2 ADD SWAP1 PUSH2 0x16B SWAP2 SWAP1 PUSH2 0x18DA JUMP JUMPDEST PUSH2 0xCE5 JUMP JUMPDEST STOP JUMPDEST PUSH2 0x18C PUSH1 0x4 DUP1 CALLDATASIZE SUB DUP2 ADD SWAP1 PUSH2 0x187 SWAP2 SWAP1 PUSH2 0x181B JUMP JUMPDEST PUSH2 0xEFC JUMP JUMPDEST STOP JUMPDEST PUSH2 0x196 PUSH2 0x1087 JUMP JUMPDEST PUSH1 0x40 MLOAD PUSH2 0x1A3 SWAP2 SWAP1 PUSH2 0x1C12 JUMP JUMPDEST PUSH1 0x40 MLOAD DUP1 SWAP2 SUB SWAP1 RETURN JUMPDEST PUSH2 0x1C6 PUSH1 0x4 DUP1 CALLDATASIZE SUB DUP2 ADD SWAP1 PUSH2 0x1C1 SWAP2 SWAP1 PUSH2 0x176E JUMP JUMPDEST PUSH2 0x10B0 JUMP JUMPDEST PUSH1 0x40 MLOAD PUSH2 0x1D6 SWAP5 SWAP4 SWAP3 SWAP2 SWAP1 PUSH2 0x1C2D JUMP JUMPDEST PUSH1 0x40 MLOAD DUP1 SWAP2 SUB SWAP1 RETURN JUMPDEST PUSH1 0x0 DUP1 PUSH1 0x0 SWAP1 POP JUMPDEST PUSH1 0x3 DUP1 SLOAD SWAP1 POP DUP2 LT ISZERO PUSH2 0x27D JUMPI PUSH1 0x3 DUP2 DUP2 SLOAD DUP2 LT PUSH2 0x201 JUMPI INVALID JUMPDEST SWAP1 PUSH1 0x0 MSTORE PUSH1 0x20 PUSH1 0x0 KECCAK256 SWAP1 PUSH1 0x4 MUL ADD PUSH1 0x0 ADD PUSH1 0x0 SWAP1 SLOAD SWAP1 PUSH2 0x100 EXP SWAP1 DIV PUSH20 0xFFFFFFFFFFFFFFFFFFFFFFFFFFFFFFFFFFFFFFFF AND PUSH20 0xFFFFFFFFFFFFFFFFFFFFFFFFFFFFFFFFFFFFFFFF AND CALLER PUSH20 0xFFFFFFFFFFFFFFFFFFFFFFFFFFFFFFFFFFFFFFFF AND EQ ISZERO PUSH2 0x270 JUMPI PUSH1 0x1 SWAP2 POP POP PUSH2 0x27F JUMP JUMPDEST DUP1 DUP1 PUSH1 0x1 ADD SWAP2 POP POP PUSH2 0x1E7 JUMP JUMPDEST POP JUMPDEST SWAP1 JUMP JUMPDEST PUSH1 0x60 PUSH2 0x28C PUSH2 0x1DF JUMP JUMPDEST PUSH2 0x295 JUMPI PUSH1 0x0 DUP1 REVERT JUMPDEST PUSH1 0x60 PUSH1 0x0 DUP1 SWAP1 POP JUMPDEST PUSH1 0x2 DUP1 SLOAD SWAP1 POP DUP2 LT ISZERO PUSH2 0x4C7 JUMPI PUSH1 0x2 DUP2 DUP2 SLOAD DUP2 LT PUSH2 0x2B7 JUMPI INVALID JUMPDEST SWAP1 PUSH1 0x0 MSTORE PUSH1 0x20 PUSH1 0x0 KECCAK256 SWAP1 PUSH1 0x8 MUL ADD PUSH1 0x0 ADD PUSH1 0x40 MLOAD PUSH2 0x2D5 SWAP2 SWAP1 PUSH2 0x1BFB JUMP JUMPDEST PUSH1 0x40 MLOAD DUP1 SWAP2 SUB SWAP1 KECCAK256 DUP5 DUP1 MLOAD SWAP1 PUSH1 0x20 ADD KECCAK256 EQ ISZERO PUSH2 0x47F JUMPI PUSH1 0x2 DUP2 DUP2 SLOAD DUP2 LT PUSH2 0x2F8 JUMPI INVALID JUMPDEST SWAP1 PUSH1 0x0 MSTORE PUSH1 0x20 PUSH1 0x0 KECCAK256 SWAP1 PUSH1 0x8 MUL ADD PUSH1 0x7 ADD DUP1 SLOAD SWAP1 POP PUSH8 0xFFFFFFFFFFFFFFFF DUP2 GT DUP1 ISZERO PUSH2 0x323 JUMPI PUSH1 0x0 DUP1 REVERT JUMPDEST POP PUSH1 0x40 MLOAD SWAP1 DUP1 DUP3 MSTORE DUP1 PUSH1 0x20 MUL PUSH1 0x20 ADD DUP3 ADD PUSH1 0x40 MSTORE DUP1 ISZERO PUSH2 0x357 JUMPI DUP2 PUSH1 0x20 ADD JUMPDEST PUSH1 0x60 DUP2 MSTORE PUSH1 0x20 ADD SWAP1 PUSH1 0x1 SWAP1 SUB SWAP1 DUP2 PUSH2 0x342 JUMPI SWAP1 POP JUMPDEST POP SWAP2 POP PUSH1 0x0 DUP1 SWAP1 POP JUMPDEST PUSH1 0x2 DUP3 DUP2 SLOAD DUP2 LT PUSH2 0x36D JUMPI INVALID JUMPDEST SWAP1 PUSH1 0x0 MSTORE PUSH1 0x20 PUSH1 0x0 KECCAK256 SWAP1 PUSH1 0x8 MUL ADD PUSH1 0x7 ADD DUP1 SLOAD SWAP1 POP DUP2 LT ISZERO PUSH2 0x479 JUMPI PUSH1 0x2 DUP3 DUP2 SLOAD DUP2 LT PUSH2 0x396 JUMPI INVALID JUMPDEST SWAP1 PUSH1 0x0 MSTORE PUSH1 0x20 PUSH1 0x0 KECCAK256 SWAP1 PUSH1 0x8 MUL ADD PUSH1 0x7 ADD DUP2 DUP2 SLOAD DUP2 LT PUSH2 0x3B2 JUMPI INVALID JUMPDEST SWAP1 PUSH1 0x0 MSTORE PUSH1 0x20 PUSH1 0x0 KECCAK256 ADD DUP1 SLOAD PUSH1 0x1 DUP2 PUSH1 0x1 AND ISZERO PUSH2 0x100 MUL SUB AND PUSH1 0x2 SWAP1 DIV DUP1 PUSH1 0x1F ADD PUSH1 0x20 DUP1 SWAP2 DIV MUL PUSH1 0x20 ADD PUSH1 0x40 MLOAD SWAP1 DUP2 ADD PUSH1 0x40 MSTORE DUP1 SWAP3 SWAP2 SWAP1 DUP2 DUP2 MSTORE PUSH1 0x20 ADD DUP3 DUP1 SLOAD PUSH1 0x1 DUP2 PUSH1 0x1 AND ISZERO PUSH2 0x100 MUL SUB AND PUSH1 0x2 SWAP1 DIV DUP1 ISZERO PUSH2 0x450 JUMPI DUP1 PUSH1 0x1F LT PUSH2 0x425 JUMPI PUSH2 0x100 DUP1 DUP4 SLOAD DIV MUL DUP4 MSTORE SWAP2 PUSH1 0x20 ADD SWAP2 PUSH2 0x450 JUMP JUMPDEST DUP3 ADD SWAP2 SWAP1 PUSH1 0x0 MSTORE PUSH1 0x20 PUSH1 0x0 KECCAK256 SWAP1 JUMPDEST DUP2 SLOAD DUP2 MSTORE SWAP1 PUSH1 0x1 ADD SWAP1 PUSH1 0x20 ADD DUP1 DUP4 GT PUSH2 0x433 JUMPI DUP3 SWAP1 SUB PUSH1 0x1F AND DUP3 ADD SWAP2 JUMPDEST POP POP POP POP POP DUP4 DUP3 DUP2 MLOAD DUP2 LT PUSH2 0x461 JUMPI INVALID JUMPDEST PUSH1 0x20 MUL PUSH1 0x20 ADD ADD DUP2 SWAP1 MSTORE POP DUP1 DUP1 PUSH1 0x1 ADD SWAP2 POP POP PUSH2 0x360 JUMP JUMPDEST POP PUSH2 0x4BA JUMP JUMPDEST PUSH1 0x40 MLOAD PUSH32 0x8C379A000000000000000000000000000000000000000000000000000000000 DUP2 MSTORE PUSH1 0x4 ADD PUSH2 0x4B1 SWAP1 PUSH2 0x1D7B JUMP JUMPDEST PUSH1 0x40 MLOAD DUP1 SWAP2 SUB SWAP1 REVERT JUMPDEST DUP1 DUP1 PUSH1 0x1 ADD SWAP2 POP POP PUSH2 0x29D JUMP JUMPDEST POP DUP1 SWAP2 POP POP SWAP2 SWAP1 POP JUMP JUMPDEST PUSH1 0x60 DUP1 PUSH1 0x0 PUSH1 0x60 DUP1 PUSH1 0x60 PUSH1 0x0 DUP1 PUSH1 0x60 PUSH2 0x4E8 PUSH2 0x1DF JUMP JUMPDEST PUSH2 0x4F1 JUMPI PUSH1 0x0 DUP1 REVERT JUMPDEST PUSH1 0x0 JUMPDEST PUSH1 0x2 DUP1 SLOAD SWAP1 POP DUP2 LT ISZERO PUSH2 0xA8E JUMPI PUSH1 0x2 DUP2 DUP2 SLOAD DUP2 LT PUSH2 0x50E JUMPI INVALID JUMPDEST SWAP1 PUSH1 0x0 MSTORE PUSH1 0x20 PUSH1 0x0 KECCAK256 SWAP1 PUSH1 0x8 MUL ADD PUSH1 0x0 ADD PUSH1 0x40 MLOAD PUSH2 0x52C SWAP2 SWAP1 PUSH2 0x1BFB JUMP JUMPDEST PUSH1 0x40 MLOAD DUP1 SWAP2 SUB SWAP1 KECCAK256 DUP12 DUP1 MLOAD SWAP1 PUSH1 0x20 ADD KECCAK256 EQ ISZERO PUSH2 0xA81 JUMPI PUSH1 0x2 DUP2 DUP2 SLOAD DUP2 LT PUSH2 0x54F JUMPI INVALID JUMPDEST SWAP1 PUSH1 0x0 MSTORE PUSH1 0x20 PUSH1 0x0 KECCAK256 SWAP1 PUSH1 0x8 MUL ADD PUSH1 0x0 ADD PUSH1 0x2 DUP3 DUP2 SLOAD DUP2 LT PUSH2 0x56D JUMPI INVALID JUMPDEST SWAP1 PUSH1 0x0 MSTORE PUSH1 0x20 PUSH1 0x0 KECCAK256 SWAP1 PUSH1 0x8 MUL ADD PUSH1 0x1 ADD PUSH1 0x2 DUP4 DUP2 SLOAD DUP2 LT PUSH2 0x58B JUMPI INVALID JUMPDEST SWAP1 PUSH1 0x0 MSTORE PUSH1 0x20 PUSH1 0x0 KECCAK256 SWAP1 PUSH1 0x8 MUL ADD PUSH1 0x2 ADD PUSH1 0x0 SWAP1 SLOAD SWAP1 PUSH2 0x100 EXP SWAP1 DIV PUSH1 0xFF AND PUSH1 0x2 DUP5 DUP2 SLOAD DUP2 LT PUSH2 0x5B7 JUMPI INVALID JUMPDEST SWAP1 PUSH1 0x0 MSTORE PUSH1 0x20 PUSH1 0x0 KECCAK256 SWAP1 PUSH1 0x8 MUL ADD PUSH1 0x3 ADD PUSH1 0x2 DUP6 DUP2 SLOAD DUP2 LT PUSH2 0x5D5 JUMPI INVALID JUMPDEST SWAP1 PUSH1 0x0 MSTORE PUSH1 0x20 PUSH1 0x0 KECCAK256 SWAP1 PUSH1 0x8 MUL ADD PUSH1 0x4 ADD PUSH1 0x2 DUP7 DUP2 SLOAD DUP2 LT PUSH2 0x5F3 JUMPI INVALID JUMPDEST SWAP1 PUSH1 0x0 MSTORE PUSH1 0x20 PUSH1 0x0 KECCAK256 SWAP1 PUSH1 0x8 MUL ADD PUSH1 0x5 ADD PUSH1 0x2 DUP8 DUP2 SLOAD DUP2 LT PUSH2 0x611 JUMPI INVALID JUMPDEST SWAP1 PUSH1 0x0 MSTORE PUSH1 0x20 PUSH1 0x0 KECCAK256 SWAP1 PUSH1 0x8 MUL ADD PUSH1 0x6 ADD PUSH1 0x1 SWAP1 SLOAD SWAP1 PUSH2 0x100 EXP SWAP1 DIV PUSH1 0xFF AND PUSH1 0x2 DUP9 DUP2 SLOAD DUP2 LT PUSH2 0x63D JUMPI INVALID JUMPDEST SWAP1 PUSH1 0x0 MSTORE PUSH1 0x20 PUSH1 0x0 KECCAK256 SWAP1 PUSH1 0x8 MUL ADD PUSH1 0x6 ADD PUSH1 0x0 SWAP1 SLOAD SWAP1 PUSH2 0x100 EXP SWAP1 DIV PUSH1 0xFF AND PUSH1 0x2 DUP10 DUP2 SLOAD DUP2 LT PUSH2 0x669 JUMPI INVALID JUMPDEST SWAP1 PUSH1 0x0 MSTORE PUSH1 0x20 PUSH1 0x0 KECCAK256 SWAP1 PUSH1 0x8 MUL ADD PUSH1 0x7 ADD DUP9 DUP1 SLOAD PUSH1 0x1 DUP2 PUSH1 0x1 AND ISZERO PUSH2 0x100 MUL SUB AND PUSH1 0x2 SWAP1 DIV DUP1 PUSH1 0x1F ADD PUSH1 0x20 DUP1 SWAP2 DIV MUL PUSH1 0x20 ADD PUSH1 0x40 MLOAD SWAP1 DUP2 ADD PUSH1 0x40 MSTORE DUP1 SWAP3 SWAP2 SWAP1 DUP2 DUP2 MSTORE PUSH1 0x20 ADD DUP3 DUP1 SLOAD PUSH1 0x1 DUP2 PUSH1 0x1 AND ISZERO PUSH2 0x100 MUL SUB AND PUSH1 0x2 SWAP1 DIV DUP1 ISZERO PUSH2 0x70F JUMPI DUP1 PUSH1 0x1F LT PUSH2 0x6E4 JUMPI PUSH2 0x100 DUP1 DUP4 SLOAD DIV MUL DUP4 MSTORE SWAP2 PUSH1 0x20 ADD SWAP2 PUSH2 0x70F JUMP JUMPDEST DUP3 ADD SWAP2 SWAP1 PUSH1 0x0 MSTORE PUSH1 0x20 PUSH1 0x0 KECCAK256 SWAP1 JUMPDEST DUP2 SLOAD DUP2 MSTORE SWAP1 PUSH1 0x1 ADD SWAP1 PUSH1 0x20 ADD DUP1 DUP4 GT PUSH2 0x6F2 JUMPI DUP3 SWAP1 SUB PUSH1 0x1F AND DUP3 ADD SWAP2 JUMPDEST POP POP POP POP POP SWAP9 POP DUP8 DUP1 SLOAD PUSH1 0x1 DUP2 PUSH1 0x1 AND ISZERO PUSH2 0x100 MUL SUB AND PUSH1 0x2 SWAP1 DIV DUP1 PUSH1 0x1F ADD PUSH1 0x20 DUP1 SWAP2 DIV MUL PUSH1 0x20 ADD PUSH1 0x40 MLOAD SWAP1 DUP2 ADD PUSH1 0x40 MSTORE DUP1 SWAP3 SWAP2 SWAP1 DUP2 DUP2 MSTORE PUSH1 0x20 ADD DUP3 DUP1 SLOAD PUSH1 0x1 DUP2 PUSH1 0x1 AND ISZERO PUSH2 0x100 MUL SUB AND PUSH1 0x2 SWAP1 DIV DUP1 ISZERO PUSH2 0x7AB JUMPI DUP1 PUSH1 0x1F LT PUSH2 0x780 JUMPI PUSH2 0x100 DUP1 DUP4 SLOAD DIV MUL DUP4 MSTORE SWAP2 PUSH1 0x20 ADD SWAP2 PUSH2 0x7AB JUMP JUMPDEST DUP3 ADD SWAP2 SWAP1 PUSH1 0x0 MSTORE PUSH1 0x20 PUSH1 0x0 KECCAK256 SWAP1 JUMPDEST DUP2 SLOAD DUP2 MSTORE SWAP1 PUSH1 0x1 ADD SWAP1 PUSH1 0x20 ADD DUP1 DUP4 GT PUSH2 0x78E JUMPI DUP3 SWAP1 SUB PUSH1 0x1F AND DUP3 ADD SWAP2 JUMPDEST POP POP POP POP POP SWAP8 POP DUP6 DUP1 SLOAD PUSH1 0x1 DUP2 PUSH1 0x1 AND ISZERO PUSH2 0x100 MUL SUB AND PUSH1 0x2 SWAP1 DIV DUP1 PUSH1 0x1F ADD PUSH1 0x20 DUP1 SWAP2 DIV MUL PUSH1 0x20 ADD PUSH1 0x40 MLOAD SWAP1 DUP2 ADD PUSH1 0x40 MSTORE DUP1 SWAP3 SWAP2 SWAP1 DUP2 DUP2 MSTORE PUSH1 0x20 ADD DUP3 DUP1 SLOAD PUSH1 0x1 DUP2 PUSH1 0x1 AND ISZERO PUSH2 0x100 MUL SUB AND PUSH1 0x2 SWAP1 DIV DUP1 ISZERO PUSH2 0x847 JUMPI DUP1 PUSH1 0x1F LT PUSH2 0x81C JUMPI PUSH2 0x100 DUP1 DUP4 SLOAD DIV MUL DUP4 MSTORE SWAP2 PUSH1 0x20 ADD SWAP2 PUSH2 0x847 JUMP JUMPDEST DUP3 ADD SWAP2 SWAP1 PUSH1 0x0 MSTORE PUSH1 0x20 PUSH1 0x0 KECCAK256 SWAP1 JUMPDEST DUP2 SLOAD DUP2 MSTORE SWAP1 PUSH1 0x1 ADD SWAP1 PUSH1 0x20 ADD DUP1 DUP4 GT PUSH2 0x82A JUMPI DUP3 SWAP1 SUB PUSH1 0x1F AND DUP3 ADD SWAP2 JUMPDEST POP POP POP POP POP SWAP6 POP DUP5 DUP1 SLOAD PUSH1 0x1 DUP2 PUSH1 0x1 AND ISZERO PUSH2 0x100 MUL SUB AND PUSH1 0x2 SWAP1 DIV DUP1 PUSH1 0x1F ADD PUSH1 0x20 DUP1 SWAP2 DIV MUL PUSH1 0x20 ADD PUSH1 0x40 MLOAD SWAP1 DUP2 ADD PUSH1 0x40 MSTORE DUP1 SWAP3 SWAP2 SWAP1 DUP2 DUP2 MSTORE PUSH1 0x20 ADD DUP3 DUP1 SLOAD PUSH1 0x1 DUP2 PUSH1 0x1 AND ISZERO PUSH2 0x100 MUL SUB AND PUSH1 0x2 SWAP1 DIV DUP1 ISZERO PUSH2 0x8E3 JUMPI DUP1 PUSH1 0x1F LT PUSH2 0x8B8 JUMPI PUSH2 0x100 DUP1 DUP4 SLOAD DIV MUL DUP4 MSTORE SWAP2 PUSH1 0x20 ADD SWAP2 PUSH2 0x8E3 JUMP JUMPDEST DUP3 ADD SWAP2 SWAP1 PUSH1 0x0 MSTORE PUSH1 0x20 PUSH1 0x0 KECCAK256 SWAP1 JUMPDEST DUP2 SLOAD DUP2 MSTORE SWAP1 PUSH1 0x1 ADD SWAP1 PUSH1 0x20 ADD DUP1 DUP4 GT PUSH2 0x8C6 JUMPI DUP3 SWAP1 SUB PUSH1 0x1F AND DUP3 ADD SWAP2 JUMPDEST POP POP POP POP POP SWAP5 POP DUP4 DUP1 SLOAD PUSH1 0x1 DUP2 PUSH1 0x1 AND ISZERO PUSH2 0x100 MUL SUB AND PUSH1 0x2 SWAP1 DIV DUP1 PUSH1 0x1F ADD PUSH1 0x20 DUP1 SWAP2 DIV MUL PUSH1 0x20 ADD PUSH1 0x40 MLOAD SWAP1 DUP2 ADD PUSH1 0x40 MSTORE DUP1 SWAP3 SWAP2 SWAP1 DUP2 DUP2 MSTORE PUSH1 0x20 ADD DUP3 DUP1 SLOAD PUSH1 0x1 DUP2 PUSH1 0x1 AND ISZERO PUSH2 0x100 MUL SUB AND PUSH1 0x2 SWAP1 DIV DUP1 ISZERO PUSH2 0x97F JUMPI DUP1 PUSH1 0x1F LT PUSH2 0x954 JUMPI PUSH2 0x100 DUP1 DUP4 SLOAD DIV MUL DUP4 MSTORE SWAP2 PUSH1 0x20 ADD SWAP2 PUSH2 0x97F JUMP JUMPDEST DUP3 ADD SWAP2 SWAP1 PUSH1 0x0 MSTORE PUSH1 0x20 PUSH1 0x0 KECCAK256 SWAP1 JUMPDEST DUP2 SLOAD DUP2 MSTORE SWAP1 PUSH1 0x1 ADD SWAP1 PUSH1 0x20 ADD DUP1 DUP4 GT PUSH2 0x962 JUMPI DUP3 SWAP1 SUB PUSH1 0x1F AND DUP3 ADD SWAP2 JUMPDEST POP POP POP POP POP SWAP4 POP DUP1 DUP1 SLOAD DUP1 PUSH1 0x20 MUL PUSH1 0x20 ADD PUSH1 0x40 MLOAD SWAP1 DUP2 ADD PUSH1 0x40 MSTORE DUP1 SWAP3 SWAP2 SWAP1 DUP2 DUP2 MSTORE PUSH1 0x20 ADD PUSH1 0x0 SWAP1 JUMPDEST DUP3 DUP3 LT ISZERO PUSH2 0xA63 JUMPI DUP4 DUP3 SWAP1 PUSH1 0x0 MSTORE PUSH1 0x20 PUSH1 0x0 KECCAK256 ADD DUP1 SLOAD PUSH1 0x1 DUP2 PUSH1 0x1 AND ISZERO PUSH2 0x100 MUL SUB AND PUSH1 0x2 SWAP1 DIV DUP1 PUSH1 0x1F ADD PUSH1 0x20 DUP1 SWAP2 DIV MUL PUSH1 0x20 ADD PUSH1 0x40 MLOAD SWAP1 DUP2 ADD PUSH1 0x40 MSTORE DUP1 SWAP3 SWAP2 SWAP1 DUP2 DUP2 MSTORE PUSH1 0x20 ADD DUP3 DUP1 SLOAD PUSH1 0x1 DUP2 PUSH1 0x1 AND ISZERO PUSH2 0x100 MUL SUB AND PUSH1 0x2 SWAP1 DIV DUP1 ISZERO PUSH2 0xA4F JUMPI DUP1 PUSH1 0x1F LT PUSH2 0xA24 JUMPI PUSH2 0x100 DUP1 DUP4 SLOAD DIV MUL DUP4 MSTORE SWAP2 PUSH1 0x20 ADD SWAP2 PUSH2 0xA4F JUMP JUMPDEST DUP3 ADD SWAP2 SWAP1 PUSH1 0x0 MSTORE PUSH1 0x20 PUSH1 0x0 KECCAK256 SWAP1 JUMPDEST DUP2 SLOAD DUP2 MSTORE SWAP1 PUSH1 0x1 ADD SWAP1 PUSH1 0x20 ADD DUP1 DUP4 GT PUSH2 0xA32 JUMPI DUP3 SWAP1 SUB PUSH1 0x1F AND DUP3 ADD SWAP2 JUMPDEST POP POP POP POP POP DUP2 MSTORE PUSH1 0x20 ADD SWAP1 PUSH1 0x1 ADD SWAP1 PUSH2 0x9A7 JUMP JUMPDEST POP POP POP POP SWAP1 POP SWAP10 POP SWAP10 POP SWAP10 POP SWAP10 POP SWAP10 POP SWAP10 POP SWAP10 POP SWAP10 POP SWAP10 POP POP PUSH2 0xA90 JUMP JUMPDEST DUP1 DUP1 PUSH1 0x1 ADD SWAP2 POP POP PUSH2 0x4F4 JUMP JUMPDEST POP JUMPDEST SWAP2 SWAP4 SWAP6 SWAP8 SWAP10 SWAP1 SWAP3 SWAP5 SWAP7 SWAP9 POP JUMP JUMPDEST PUSH2 0xAA5 PUSH2 0x1DF JUMP JUMPDEST PUSH2 0xAAE JUMPI PUSH1 0x0 DUP1 REVERT JUMPDEST PUSH1 0x0 DUP2 MLOAD GT PUSH2 0xABC JUMPI PUSH1 0x0 DUP1 REVERT JUMPDEST PUSH1 0x0 JUMPDEST PUSH1 0x2 DUP1 SLOAD SWAP1 POP DUP2 LT ISZERO PUSH2 0xB73 JUMPI PUSH1 0x2 DUP2 DUP2 SLOAD DUP2 LT PUSH2 0xAD9 JUMPI INVALID JUMPDEST SWAP1 PUSH1 0x0 MSTORE PUSH1 0x20 PUSH1 0x0 KECCAK256 SWAP1 PUSH1 0x8 MUL ADD PUSH1 0x0 ADD PUSH1 0x40 MLOAD PUSH2 0xAF7 SWAP2 SWAP1 PUSH2 0x1BFB JUMP JUMPDEST PUSH1 0x40 MLOAD DUP1 SWAP2 SUB SWAP1 KECCAK256 DUP4 DUP1 MLOAD SWAP1 PUSH1 0x20 ADD KECCAK256 EQ ISZERO PUSH2 0xB66 JUMPI PUSH1 0x2 DUP2 DUP2 SLOAD DUP2 LT PUSH2 0xB1A JUMPI INVALID JUMPDEST SWAP1 PUSH1 0x0 MSTORE PUSH1 0x20 PUSH1 0x0 KECCAK256 SWAP1 PUSH1 0x8 MUL ADD PUSH1 0x7 ADD DUP3 SWAP1 DUP1 PUSH1 0x1 DUP2 SLOAD ADD DUP1 DUP3 SSTORE DUP1 SWAP2 POP POP PUSH1 0x1 SWAP1 SUB SWAP1 PUSH1 0x0 MSTORE PUSH1 0x20 PUSH1 0x0 KECCAK256 ADD PUSH1 0x0 SWAP1 SWAP2 SWAP1 SWAP2 SWAP1 SWAP2 POP SWAP1 DUP1 MLOAD SWAP1 PUSH1 0x20 ADD SWAP1 PUSH2 0xB64 SWAP3 SWAP2 SWAP1 PUSH2 0x1439 JUMP JUMPDEST POP JUMPDEST DUP1 DUP1 PUSH1 0x1 ADD SWAP2 POP POP PUSH2 0xABF JUMP JUMPDEST POP POP POP JUMP JUMPDEST CALLER PUSH20 0xFFFFFFFFFFFFFFFFFFFFFFFFFFFFFFFFFFFFFFFF AND PUSH1 0x0 DUP1 SWAP1 SLOAD SWAP1 PUSH2 0x100 EXP SWAP1 DIV PUSH20 0xFFFFFFFFFFFFFFFFFFFFFFFFFFFFFFFFFFFFFFFF AND PUSH20 0xFFFFFFFFFFFFFFFFFFFFFFFFFFFFFFFFFFFFFFFF AND EQ PUSH2 0xBD1 JUMPI PUSH1 0x0 DUP1 REVERT JUMPDEST PUSH2 0xBD9 PUSH2 0x14B9 JUMP JUMPDEST PUSH1 0x40 MLOAD DUP1 PUSH1 0x80 ADD PUSH1 0x40 MSTORE DUP1 DUP7 PUSH20 0xFFFFFFFFFFFFFFFFFFFFFFFFFFFFFFFFFFFFFFFF AND DUP2 MSTORE PUSH1 0x20 ADD DUP6 DUP2 MSTORE PUSH1 0x20 ADD DUP5 DUP2 MSTORE PUSH1 0x20 ADD DUP4 DUP2 MSTORE POP SWAP1 POP PUSH1 0x3 DUP2 SWAP1 DUP1 PUSH1 0x1 DUP2 SLOAD ADD DUP1 DUP3 SSTORE DUP1 SWAP2 POP POP PUSH1 0x1 SWAP1 SUB SWAP1 PUSH1 0x0 MSTORE PUSH1 0x20 PUSH1 0x0 KECCAK256 SWAP1 PUSH1 0x4 MUL ADD PUSH1 0x0 SWAP1 SWAP2 SWAP1 SWAP2 SWAP1 SWAP2 POP PUSH1 0x0 DUP3 ADD MLOAD DUP2 PUSH1 0x0 ADD PUSH1 0x0 PUSH2 0x100 EXP DUP2 SLOAD DUP2 PUSH20 0xFFFFFFFFFFFFFFFFFFFFFFFFFFFFFFFFFFFFFFFF MUL NOT AND SWAP1 DUP4 PUSH20 0xFFFFFFFFFFFFFFFFFFFFFFFFFFFFFFFFFFFFFFFF AND MUL OR SWAP1 SSTORE POP PUSH1 0x20 DUP3 ADD MLOAD DUP2 PUSH1 0x1 ADD SWAP1 DUP1 MLOAD SWAP1 PUSH1 0x20 ADD SWAP1 PUSH2 0xCA1 SWAP3 SWAP2 SWAP1 PUSH2 0x1439 JUMP JUMPDEST POP PUSH1 0x40 DUP3 ADD MLOAD DUP2 PUSH1 0x2 ADD SWAP1 DUP1 MLOAD SWAP1 PUSH1 0x20 ADD SWAP1 PUSH2 0xCBE SWAP3 SWAP2 SWAP1 PUSH2 0x1439 JUMP JUMPDEST POP PUSH1 0x60 DUP3 ADD MLOAD DUP2 PUSH1 0x3 ADD SWAP1 DUP1 MLOAD SWAP1 PUSH1 0x20 ADD SWAP1 PUSH2 0xCDB SWAP3 SWAP2 SWAP1 PUSH2 0x1439 JUMP JUMPDEST POP POP POP POP POP POP POP POP JUMP JUMPDEST PUSH2 0xCED PUSH2 0x1DF JUMP JUMPDEST PUSH2 0xCF6 JUMPI PUSH1 0x0 DUP1 REVERT JUMPDEST PUSH2 0xCFE PUSH2 0x14F7 JUMP JUMPDEST PUSH1 0x40 MLOAD DUP1 PUSH2 0x120 ADD PUSH1 0x40 MSTORE DUP1 DUP7 DUP2 MSTORE PUSH1 0x20 ADD DUP6 DUP2 MSTORE PUSH1 0x20 ADD DUP5 PUSH1 0xFF AND DUP2 MSTORE PUSH1 0x20 ADD DUP4 DUP2 MSTORE PUSH1 0x20 ADD PUSH1 0x40 MLOAD DUP1 PUSH1 0x20 ADD PUSH1 0x40 MSTORE DUP1 PUSH1 0x0 DUP2 MSTORE POP DUP2 MSTORE PUSH1 0x20 ADD PUSH1 0x40 MLOAD DUP1 PUSH1 0x20 ADD PUSH1 0x40 MSTORE DUP1 PUSH1 0x0 DUP2 MSTORE POP DUP2 MSTORE PUSH1 0x20 ADD PUSH1 0x0 PUSH1 0xFF AND DUP2 MSTORE PUSH1 0x20 ADD PUSH1 0x0 PUSH1 0xFF AND DUP2 MSTORE PUSH1 0x20 ADD PUSH1 0x0 PUSH8 0xFFFFFFFFFFFFFFFF DUP2 GT DUP1 ISZERO PUSH2 0xD7B JUMPI PUSH1 0x0 DUP1 REVERT JUMPDEST POP PUSH1 0x40 MLOAD SWAP1 DUP1 DUP3 MSTORE DUP1 PUSH1 0x20 MUL PUSH1 0x20 ADD DUP3 ADD PUSH1 0x40 MSTORE DUP1 ISZERO PUSH2 0xDAF JUMPI DUP2 PUSH1 0x20 ADD JUMPDEST PUSH1 0x60 DUP2 MSTORE PUSH1 0x20 ADD SWAP1 PUSH1 0x1 SWAP1 SUB SWAP1 DUP2 PUSH2 0xD9A JUMPI SWAP1 POP JUMPDEST POP DUP2 MSTORE POP SWAP1 POP PUSH1 0x2 DUP2 SWAP1 DUP1 PUSH1 0x1 DUP2 SLOAD ADD DUP1 DUP3 SSTORE DUP1 SWAP2 POP POP PUSH1 0x1 SWAP1 SUB SWAP1 PUSH1 0x0 MSTORE PUSH1 0x20 PUSH1 0x0 KECCAK256 SWAP1 PUSH1 0x8 MUL ADD PUSH1 0x0 SWAP1 SWAP2 SWAP1 SWAP2 SWAP1 SWAP2 POP PUSH1 0x0 DUP3 ADD MLOAD DUP2 PUSH1 0x0 ADD SWAP1 DUP1 MLOAD SWAP1 PUSH1 0x20 ADD SWAP1 PUSH2 0xDFD SWAP3 SWAP2 SWAP1 PUSH2 0x1439 JUMP JUMPDEST POP PUSH1 0x20 DUP3 ADD MLOAD DUP2 PUSH1 0x1 ADD SWAP1 DUP1 MLOAD SWAP1 PUSH1 0x20 ADD SWAP1 PUSH2 0xE1A SWAP3 SWAP2 SWAP1 PUSH2 0x1439 JUMP JUMPDEST POP PUSH1 0x40 DUP3 ADD MLOAD DUP2 PUSH1 0x2 ADD PUSH1 0x0 PUSH2 0x100 EXP DUP2 SLOAD DUP2 PUSH1 0xFF MUL NOT AND SWAP1 DUP4 PUSH1 0xFF AND MUL OR SWAP1 SSTORE POP PUSH1 0x60 DUP3 ADD MLOAD DUP2 PUSH1 0x3 ADD SWAP1 DUP1 MLOAD SWAP1 PUSH1 0x20 ADD SWAP1 PUSH2 0xE58 SWAP3 SWAP2 SWAP1 PUSH2 0x1439 JUMP JUMPDEST POP PUSH1 0x80 DUP3 ADD MLOAD DUP2 PUSH1 0x4 ADD SWAP1 DUP1 MLOAD SWAP1 PUSH1 0x20 ADD SWAP1 PUSH2 0xE75 SWAP3 SWAP2 SWAP1 PUSH2 0x1439 JUMP JUMPDEST POP PUSH1 0xA0 DUP3 ADD MLOAD DUP2 PUSH1 0x5 ADD SWAP1 DUP1 MLOAD SWAP1 PUSH1 0x20 ADD SWAP1 PUSH2 0xE92 SWAP3 SWAP2 SWAP1 PUSH2 0x1439 JUMP JUMPDEST POP PUSH1 0xC0 DUP3 ADD MLOAD DUP2 PUSH1 0x6 ADD PUSH1 0x0 PUSH2 0x100 EXP DUP2 SLOAD DUP2 PUSH1 0xFF MUL NOT AND SWAP1 DUP4 PUSH1 0xFF AND MUL OR SWAP1 SSTORE POP PUSH1 0xE0 DUP3 ADD MLOAD DUP2 PUSH1 0x6 ADD PUSH1 0x1 PUSH2 0x100 EXP DUP2 SLOAD DUP2 PUSH1 0xFF MUL NOT AND SWAP1 DUP4 PUSH1 0xFF AND MUL OR SWAP1 SSTORE POP PUSH2 0x100 DUP3 ADD MLOAD DUP2 PUSH1 0x7 ADD SWAP1 DUP1 MLOAD SWAP1 PUSH1 0x20 ADD SWAP1 PUSH2 0xEF2 SWAP3 SWAP2 SWAP1 PUSH2 0x154C JUMP JUMPDEST POP POP POP POP POP POP POP POP JUMP JUMPDEST PUSH2 0xF04 PUSH2 0x1DF JUMP JUMPDEST PUSH2 0xF0D JUMPI PUSH1 0x0 DUP1 REVERT JUMPDEST PUSH1 0x0 JUMPDEST PUSH1 0x2 DUP1 SLOAD SWAP1 POP DUP2 LT ISZERO PUSH2 0x107F JUMPI PUSH1 0x2 DUP2 DUP2 SLOAD DUP2 LT PUSH2 0xF2A JUMPI INVALID JUMPDEST SWAP1 PUSH1 0x0 MSTORE PUSH1 0x20 PUSH1 0x0 KECCAK256 SWAP1 PUSH1 0x8 MUL ADD PUSH1 0x0 ADD PUSH1 0x40 MLOAD PUSH2 0xF48 SWAP2 SWAP1 PUSH2 0x1BFB JUMP JUMPDEST PUSH1 0x40 MLOAD DUP1 SWAP2 SUB SWAP1 KECCAK256 DUP7 DUP1 MLOAD SWAP1 PUSH1 0x20 ADD KECCAK256 EQ ISZERO PUSH2 0x1037 JUMPI DUP5 PUSH1 0x2 DUP3 DUP2 SLOAD DUP2 LT PUSH2 0xF6C JUMPI INVALID JUMPDEST SWAP1 PUSH1 0x0 MSTORE PUSH1 0x20 PUSH1 0x0 KECCAK256 SWAP1 PUSH1 0x8 MUL ADD PUSH1 0x4 ADD SWAP1 DUP1 MLOAD SWAP1 PUSH1 0x20 ADD SWAP1 PUSH2 0xF90 SWAP3 SWAP2 SWAP1 PUSH2 0x1439 JUMP JUMPDEST POP DUP4 PUSH1 0x2 DUP3 DUP2 SLOAD DUP2 LT PUSH2 0xF9F JUMPI INVALID JUMPDEST SWAP1 PUSH1 0x0 MSTORE PUSH1 0x20 PUSH1 0x0 KECCAK256 SWAP1 PUSH1 0x8 MUL ADD PUSH1 0x5 ADD SWAP1 DUP1 MLOAD SWAP1 PUSH1 0x20 ADD SWAP1 PUSH2 0xFC3 SWAP3 SWAP2 SWAP1 PUSH2 0x1439 JUMP JUMPDEST POP DUP3 PUSH1 0x2 DUP3 DUP2 SLOAD DUP2 LT PUSH2 0xFD2 JUMPI INVALID JUMPDEST SWAP1 PUSH1 0x0 MSTORE PUSH1 0x20 PUSH1 0x0 KECCAK256 SWAP1 PUSH1 0x8 MUL ADD PUSH1 0x6 ADD PUSH1 0x1 PUSH2 0x100 EXP DUP2 SLOAD DUP2 PUSH1 0xFF MUL NOT AND SWAP1 DUP4 PUSH1 0xFF AND MUL OR SWAP1 SSTORE POP DUP2 PUSH1 0x2 DUP3 DUP2 SLOAD DUP2 LT PUSH2 0x1009 JUMPI INVALID JUMPDEST SWAP1 PUSH1 0x0 MSTORE PUSH1 0x20 PUSH1 0x0 KECCAK256 SWAP1 PUSH1 0x8 MUL ADD PUSH1 0x6 ADD PUSH1 0x0 PUSH2 0x100 EXP DUP2 SLOAD DUP2 PUSH1 0xFF MUL NOT AND SWAP1 DUP4 PUSH1 0xFF AND MUL OR SWAP1 SSTORE POP PUSH2 0x1072 JUMP JUMPDEST PUSH1 0x40 MLOAD PUSH32 0x8C379A000000000000000000000000000000000000000000000000000000000 DUP2 MSTORE PUSH1 0x4 ADD PUSH2 0x1069 SWAP1 PUSH2 0x1DBB JUMP JUMPDEST PUSH1 0x40 MLOAD DUP1 SWAP2 SUB SWAP1 REVERT JUMPDEST DUP1 DUP1 PUSH1 0x1 ADD SWAP2 POP POP PUSH2 0xF10 JUMP JUMPDEST POP POP POP POP POP POP JUMP JUMPDEST PUSH1 0x0 DUP1 PUSH1 0x0 SWAP1 SLOAD SWAP1 PUSH2 0x100 EXP SWAP1 DIV PUSH20 0xFFFFFFFFFFFFFFFFFFFFFFFFFFFFFFFFFFFFFFFF AND SWAP1 POP SWAP1 JUMP JUMPDEST PUSH1 0x0 PUSH1 0x60 DUP1 PUSH1 0x60 CALLER PUSH20 0xFFFFFFFFFFFFFFFFFFFFFFFFFFFFFFFFFFFFFFFF AND PUSH1 0x0 DUP1 SWAP1 SLOAD SWAP1 PUSH2 0x100 EXP SWAP1 DIV PUSH20 0xFFFFFFFFFFFFFFFFFFFFFFFFFFFFFFFFFFFFFFFF AND PUSH20 0xFFFFFFFFFFFFFFFFFFFFFFFFFFFFFFFFFFFFFFFF AND EQ PUSH2 0x1110 JUMPI PUSH1 0x0 DUP1 REVERT JUMPDEST PUSH1 0x0 PUSH1 0x60 DUP1 PUSH1 0x0 DUP1 SWAP1 POP JUMPDEST PUSH1 0x3 DUP1 SLOAD SWAP1 POP DUP2 LT ISZERO PUSH2 0x1422 JUMPI PUSH1 0x3 DUP2 DUP2 SLOAD DUP2 LT PUSH2 0x1135 JUMPI INVALID JUMPDEST SWAP1 PUSH1 0x0 MSTORE PUSH1 0x20 PUSH1 0x0 KECCAK256 SWAP1 PUSH1 0x4 MUL ADD PUSH1 0x2 ADD PUSH1 0x40 MLOAD PUSH2 0x1153 SWAP2 SWAP1 PUSH2 0x1BFB JUMP JUMPDEST PUSH1 0x40 MLOAD DUP1 SWAP2 SUB SWAP1 KECCAK256 DUP10 DUP1 MLOAD SWAP1 PUSH1 0x20 ADD KECCAK256 EQ ISZERO PUSH2 0x13DA JUMPI PUSH1 0x3 DUP2 DUP2 SLOAD DUP2 LT PUSH2 0x1176 JUMPI INVALID JUMPDEST SWAP1 PUSH1 0x0 MSTORE PUSH1 0x20 PUSH1 0x0 KECCAK256 SWAP1 PUSH1 0x4 MUL ADD PUSH1 0x0 ADD PUSH1 0x0 SWAP1 SLOAD SWAP1 PUSH2 0x100 EXP SWAP1 DIV PUSH20 0xFFFFFFFFFFFFFFFFFFFFFFFFFFFFFFFFFFFFFFFF AND SWAP4 POP PUSH1 0x3 DUP2 DUP2 SLOAD DUP2 LT PUSH2 0x11B7 JUMPI INVALID JUMPDEST SWAP1 PUSH1 0x0 MSTORE PUSH1 0x20 PUSH1 0x0 KECCAK256 SWAP1 PUSH1 0x4 MUL ADD PUSH1 0x1 ADD DUP1 SLOAD PUSH1 0x1 DUP2 PUSH1 0x1 AND ISZERO PUSH2 0x100 MUL SUB AND PUSH1 0x2 SWAP1 DIV DUP1 PUSH1 0x1F ADD PUSH1 0x20 DUP1 SWAP2 DIV MUL PUSH1 0x20 ADD PUSH1 0x40 MLOAD SWAP1 DUP2 ADD PUSH1 0x40 MSTORE DUP1 SWAP3 SWAP2 SWAP1 DUP2 DUP2 MSTORE PUSH1 0x20 ADD DUP3 DUP1 SLOAD PUSH1 0x1 DUP2 PUSH1 0x1 AND ISZERO PUSH2 0x100 MUL SUB AND PUSH1 0x2 SWAP1 DIV DUP1 ISZERO PUSH2 0x125C JUMPI DUP1 PUSH1 0x1F LT PUSH2 0x1231 JUMPI PUSH2 0x100 DUP1 DUP4 SLOAD DIV MUL DUP4 MSTORE SWAP2 PUSH1 0x20 ADD SWAP2 PUSH2 0x125C JUMP JUMPDEST DUP3 ADD SWAP2 SWAP1 PUSH1 0x0 MSTORE PUSH1 0x20 PUSH1 0x0 KECCAK256 SWAP1 JUMPDEST DUP2 SLOAD DUP2 MSTORE SWAP1 PUSH1 0x1 ADD SWAP1 PUSH1 0x20 ADD DUP1 DUP4 GT PUSH2 0x123F JUMPI DUP3 SWAP1 SUB PUSH1 0x1F AND DUP3 ADD SWAP2 JUMPDEST POP POP POP POP POP SWAP3 POP PUSH1 0x3 DUP2 DUP2 SLOAD DUP2 LT PUSH2 0x1270 JUMPI INVALID JUMPDEST SWAP1 PUSH1 0x0 MSTORE PUSH1 0x20 PUSH1 0x0 KECCAK256 SWAP1 PUSH1 0x4 MUL ADD PUSH1 0x2 ADD DUP1 SLOAD PUSH1 0x1 DUP2 PUSH1 0x1 AND ISZERO PUSH2 0x100 MUL SUB AND PUSH1 0x2 SWAP1 DIV DUP1 PUSH1 0x1F ADD PUSH1 0x20 DUP1 SWAP2 DIV MUL PUSH1 0x20 ADD PUSH1 0x40 MLOAD SWAP1 DUP2 ADD PUSH1 0x40 MSTORE DUP1 SWAP3 SWAP2 SWAP1 DUP2 DUP2 MSTORE PUSH1 0x20 ADD DUP3 DUP1 SLOAD PUSH1 0x1 DUP2 PUSH1 0x1 AND ISZERO PUSH2 0x100 MUL SUB AND PUSH1 0x2 SWAP1 DIV DUP1 ISZERO PUSH2 0x1315 JUMPI DUP1 PUSH1 0x1F LT PUSH2 0x12EA JUMPI PUSH2 0x100 DUP1 DUP4 SLOAD DIV MUL DUP4 MSTORE SWAP2 PUSH1 0x20 ADD SWAP2 PUSH2 0x1315 JUMP JUMPDEST DUP3 ADD SWAP2 SWAP1 PUSH1 0x0 MSTORE PUSH1 0x20 PUSH1 0x0 KECCAK256 SWAP1 JUMPDEST DUP2 SLOAD DUP2 MSTORE SWAP1 PUSH1 0x1 ADD SWAP1 PUSH1 0x20 ADD DUP1 DUP4 GT PUSH2 0x12F8 JUMPI DUP3 SWAP1 SUB PUSH1 0x1F AND DUP3 ADD SWAP2 JUMPDEST POP POP POP POP POP SWAP9 POP PUSH1 0x3 DUP2 DUP2 SLOAD DUP2 LT PUSH2 0x1329 JUMPI INVALID JUMPDEST SWAP1 PUSH1 0x0 MSTORE PUSH1 0x20 PUSH1 0x0 KECCAK256 SWAP1 PUSH1 0x4 MUL ADD PUSH1 0x3 ADD DUP1 SLOAD PUSH1 0x1 DUP2 PUSH1 0x1 AND ISZERO PUSH2 0x100 MUL SUB AND PUSH1 0x2 SWAP1 DIV DUP1 PUSH1 0x1F ADD PUSH1 0x20 DUP1 SWAP2 DIV MUL PUSH1 0x20 ADD PUSH1 0x40 MLOAD SWAP1 DUP2 ADD PUSH1 0x40 MSTORE DUP1 SWAP3 SWAP2 SWAP1 DUP2 DUP2 MSTORE PUSH1 0x20 ADD DUP3 DUP1 SLOAD PUSH1 0x1 DUP2 PUSH1 0x1 AND ISZERO PUSH2 0x100 MUL SUB AND PUSH1 0x2 SWAP1 DIV DUP1 ISZERO PUSH2 0x13CE JUMPI DUP1 PUSH1 0x1F LT PUSH2 0x13A3 JUMPI PUSH2 0x100 DUP1 DUP4 SLOAD DIV MUL DUP4 MSTORE SWAP2 PUSH1 0x20 ADD SWAP2 PUSH2 0x13CE JUMP JUMPDEST DUP3 ADD SWAP2 SWAP1 PUSH1 0x0 MSTORE PUSH1 0x20 PUSH1 0x0 KECCAK256 SWAP1 JUMPDEST DUP2 SLOAD DUP2 MSTORE SWAP1 PUSH1 0x1 ADD SWAP1 PUSH1 0x20 ADD DUP1 DUP4 GT PUSH2 0x13B1 JUMPI DUP3 SWAP1 SUB PUSH1 0x1F AND DUP3 ADD SWAP2 JUMPDEST POP POP POP POP POP SWAP2 POP PUSH2 0x1415 JUMP JUMPDEST PUSH1 0x40 MLOAD PUSH32 0x8C379A000000000000000000000000000000000000000000000000000000000 DUP2 MSTORE PUSH1 0x4 ADD PUSH2 0x140C SWAP1 PUSH2 0x1D9B JUMP JUMPDEST PUSH1 0x40 MLOAD DUP1 SWAP2 SUB SWAP1 REVERT JUMPDEST DUP1 DUP1 PUSH1 0x1 ADD SWAP2 POP POP PUSH2 0x111B JUMP JUMPDEST POP DUP3 DUP3 DUP10 DUP4 SWAP7 POP SWAP7 POP SWAP7 POP SWAP7 POP POP POP POP SWAP2 SWAP4 POP SWAP2 SWAP4 JUMP JUMPDEST DUP3 DUP1 SLOAD PUSH1 0x1 DUP2 PUSH1 0x1 AND ISZERO PUSH2 0x100 MUL SUB AND PUSH1 0x2 SWAP1 DIV SWAP1 PUSH1 0x0 MSTORE PUSH1 0x20 PUSH1 0x0 KECCAK256 SWAP1 PUSH1 0x1F ADD PUSH1 0x20 SWAP1 DIV DUP2 ADD SWAP3 DUP3 PUSH1 0x1F LT PUSH2 0x147A JUMPI DUP1 MLOAD PUSH1 0xFF NOT AND DUP4 DUP1 ADD OR DUP6 SSTORE PUSH2 0x14A8 JUMP JUMPDEST DUP3 DUP1 ADD PUSH1 0x1 ADD DUP6 SSTORE DUP3 ISZERO PUSH2 0x14A8 JUMPI SWAP2 DUP3 ADD JUMPDEST DUP3 DUP2 GT ISZERO PUSH2 0x14A7 JUMPI DUP3 MLOAD DUP3 SSTORE SWAP2 PUSH1 0x20 ADD SWAP2 SWAP1 PUSH1 0x1 ADD SWAP1 PUSH2 0x148C JUMP JUMPDEST JUMPDEST POP SWAP1 POP PUSH2 0x14B5 SWAP2 SWAP1 PUSH2 0x15AC JUMP JUMPDEST POP SWAP1 JUMP JUMPDEST PUSH1 0x40 MLOAD DUP1 PUSH1 0x80 ADD PUSH1 0x40 MSTORE DUP1 PUSH1 0x0 PUSH20 0xFFFFFFFFFFFFFFFFFFFFFFFFFFFFFFFFFFFFFFFF AND DUP2 MSTORE PUSH1 0x20 ADD PUSH1 0x60 DUP2 MSTORE PUSH1 0x20 ADD PUSH1 0x60 DUP2 MSTORE PUSH1 0x20 ADD PUSH1 0x60 DUP2 MSTORE POP SWAP1 JUMP JUMPDEST PUSH1 0x40 MLOAD DUP1 PUSH2 0x120 ADD PUSH1 0x40 MSTORE DUP1 PUSH1 0x60 DUP2 MSTORE PUSH1 0x20 ADD PUSH1 0x60 DUP2 MSTORE PUSH1 0x20 ADD PUSH1 0x0 PUSH1 0xFF AND DUP2 MSTORE PUSH1 0x20 ADD PUSH1 0x60 DUP2 MSTORE PUSH1 0x20 ADD PUSH1 0x60 DUP2 MSTORE PUSH1 0x20 ADD PUSH1 0x60 DUP2 MSTORE PUSH1 0x20 ADD PUSH1 0x0 PUSH1 0xFF AND DUP2 MSTORE PUSH1 0x20 ADD PUSH1 0x0 PUSH1 0xFF AND DUP2 MSTORE PUSH1 0x20 ADD PUSH1 0x60 DUP2 MSTORE POP SWAP1 JUMP JUMPDEST DUP3 DUP1 SLOAD DUP3 DUP3 SSTORE SWAP1 PUSH1 0x0 MSTORE PUSH1 0x20 PUSH1 0x0 KECCAK256 SWAP1 DUP2 ADD SWAP3 DUP3 ISZERO PUSH2 0x159B JUMPI SWAP2 PUSH1 0x20 MUL DUP3 ADD JUMPDEST DUP3 DUP2 GT ISZERO PUSH2 0x159A JUMPI DUP3 MLOAD DUP3 SWAP1 DUP1 MLOAD SWAP1 PUSH1 0x20 ADD SWAP1 PUSH2 0x158A SWAP3 SWAP2 SWAP1 PUSH2 0x1439 JUMP JUMPDEST POP SWAP2 PUSH1 0x20 ADD SWAP2 SWAP1 PUSH1 0x1 ADD SWAP1 PUSH2 0x156C JUMP JUMPDEST JUMPDEST POP SWAP1 POP PUSH2 0x15A8 SWAP2 SWAP1 PUSH2 0x15D1 JUMP JUMPDEST POP SWAP1 JUMP JUMPDEST PUSH2 0x15CE SWAP2 SWAP1 JUMPDEST DUP1 DUP3 GT ISZERO PUSH2 0x15CA JUMPI PUSH1 0x0 DUP2 PUSH1 0x0 SWAP1 SSTORE POP PUSH1 0x1 ADD PUSH2 0x15B2 JUMP JUMPDEST POP SWAP1 JUMP JUMPDEST SWAP1 JUMP JUMPDEST PUSH2 0x15FA SWAP2 SWAP1 JUMPDEST DUP1 DUP3 GT ISZERO PUSH2 0x15F6 JUMPI PUSH1 0x0 DUP2 DUP2 PUSH2 0x15ED SWAP2 SWAP1 PUSH2 0x15FD JUMP JUMPDEST POP PUSH1 0x1 ADD PUSH2 0x15D7 JUMP JUMPDEST POP SWAP1 JUMP JUMPDEST SWAP1 JUMP JUMPDEST POP DUP1 SLOAD PUSH1 0x1 DUP2 PUSH1 0x1 AND ISZERO PUSH2 0x100 MUL SUB AND PUSH1 0x2 SWAP1 DIV PUSH1 0x0 DUP3 SSTORE DUP1 PUSH1 0x1F LT PUSH2 0x1623 JUMPI POP PUSH2 0x1642 JUMP JUMPDEST PUSH1 0x1F ADD PUSH1 0x20 SWAP1 DIV SWAP1 PUSH1 0x0 MSTORE PUSH1 0x20 PUSH1 0x0 KECCAK256 SWAP1 DUP2 ADD SWAP1 PUSH2 0x1641 SWAP2 SWAP1 PUSH2 0x15AC JUMP JUMPDEST JUMPDEST POP JUMP JUMPDEST PUSH1 0x0 DUP2 CALLDATALOAD SWAP1 POP PUSH2 0x1654 DUP2 PUSH2 0x1F58 JUMP JUMPDEST SWAP3 SWAP2 POP POP JUMP JUMPDEST PUSH1 0x0 DUP3 PUSH1 0x1F DUP4 ADD SLT PUSH2 0x166B JUMPI PUSH1 0x0 DUP1 REVERT JUMPDEST DUP2 CALLDATALOAD PUSH2 0x167E PUSH2 0x1679 DUP3 PUSH2 0x1E08 JUMP JUMPDEST PUSH2 0x1DDB JUMP JUMPDEST SWAP2 POP DUP1 DUP3 MSTORE PUSH1 0x20 DUP4 ADD PUSH1 0x20 DUP4 ADD DUP6 DUP4 DUP4 ADD GT ISZERO PUSH2 0x169A JUMPI PUSH1 0x0 DUP1 REVERT JUMPDEST PUSH2 0x16A5 DUP4 DUP3 DUP5 PUSH2 0x1F05 JUMP JUMPDEST POP POP POP SWAP3 SWAP2 POP POP JUMP JUMPDEST PUSH1 0x0 DUP2 CALLDATALOAD SWAP1 POP PUSH2 0x16BD DUP2 PUSH2 0x1F6F JUMP JUMPDEST SWAP3 SWAP2 POP POP JUMP JUMPDEST PUSH1 0x0 DUP1 PUSH1 0x0 DUP1 PUSH1 0x80 DUP6 DUP8 SUB SLT ISZERO PUSH2 0x16D9 JUMPI PUSH1 0x0 DUP1 REVERT JUMPDEST PUSH1 0x0 PUSH2 0x16E7 DUP8 DUP3 DUP9 ADD PUSH2 0x1645 JUMP JUMPDEST SWAP5 POP POP PUSH1 0x20 DUP6 ADD CALLDATALOAD PUSH8 0xFFFFFFFFFFFFFFFF DUP2 GT ISZERO PUSH2 0x1704 JUMPI PUSH1 0x0 DUP1 REVERT JUMPDEST PUSH2 0x1710 DUP8 DUP3 DUP9 ADD PUSH2 0x165A JUMP JUMPDEST SWAP4 POP POP PUSH1 0x40 DUP6 ADD CALLDATALOAD PUSH8 0xFFFFFFFFFFFFFFFF DUP2 GT ISZERO PUSH2 0x172D JUMPI PUSH1 0x0 DUP1 REVERT JUMPDEST PUSH2 0x1739 DUP8 DUP3 DUP9 ADD PUSH2 0x165A JUMP JUMPDEST SWAP3 POP POP PUSH1 0x60 DUP6 ADD CALLDATALOAD PUSH8 0xFFFFFFFFFFFFFFFF DUP2 GT ISZERO PUSH2 0x1756 JUMPI PUSH1 0x0 DUP1 REVERT JUMPDEST PUSH2 0x1762 DUP8 DUP3 DUP9 ADD PUSH2 0x165A JUMP JUMPDEST SWAP2 POP POP SWAP3 SWAP6 SWAP2 SWAP5 POP SWAP3 POP JUMP JUMPDEST PUSH1 0x0 PUSH1 0x20 DUP3 DUP5 SUB SLT ISZERO PUSH2 0x1780 JUMPI PUSH1 0x0 DUP1 REVERT JUMPDEST PUSH1 0x0 DUP3 ADD CALLDATALOAD PUSH8 0xFFFFFFFFFFFFFFFF DUP2 GT ISZERO PUSH2 0x179A JUMPI PUSH1 0x0 DUP1 REVERT JUMPDEST PUSH2 0x17A6 DUP5 DUP3 DUP6 ADD PUSH2 0x165A JUMP JUMPDEST SWAP2 POP POP SWAP3 SWAP2 POP POP JUMP JUMPDEST PUSH1 0x0 DUP1 PUSH1 0x40 DUP4 DUP6 SUB SLT ISZERO PUSH2 0x17C2 JUMPI PUSH1 0x0 DUP1 REVERT JUMPDEST PUSH1 0x0 DUP4 ADD CALLDATALOAD PUSH8 0xFFFFFFFFFFFFFFFF DUP2 GT ISZERO PUSH2 0x17DC JUMPI PUSH1 0x0 DUP1 REVERT JUMPDEST PUSH2 0x17E8 DUP6 DUP3 DUP7 ADD PUSH2 0x165A JUMP JUMPDEST SWAP3 POP POP PUSH1 0x20 DUP4 ADD CALLDATALOAD PUSH8 0xFFFFFFFFFFFFFFFF DUP2 GT ISZERO PUSH2 0x1805 JUMPI PUSH1 0x0 DUP1 REVERT JUMPDEST PUSH2 0x1811 DUP6 DUP3 DUP7 ADD PUSH2 0x165A JUMP JUMPDEST SWAP2 POP POP SWAP3 POP SWAP3 SWAP1 POP JUMP JUMPDEST PUSH1 0x0 DUP1 PUSH1 0x0 DUP1 PUSH1 0x0 PUSH1 0xA0 DUP7 DUP9 SUB SLT ISZERO PUSH2 0x1833 JUMPI PUSH1 0x0 DUP1 REVERT JUMPDEST PUSH1 0x0 DUP7 ADD CALLDATALOAD PUSH8 0xFFFFFFFFFFFFFFFF DUP2 GT ISZERO PUSH2 0x184D JUMPI PUSH1 0x0 DUP1 REVERT JUMPDEST PUSH2 0x1859 DUP9 DUP3 DUP10 ADD PUSH2 0x165A JUMP JUMPDEST SWAP6 POP POP PUSH1 0x20 DUP7 ADD CALLDATALOAD PUSH8 0xFFFFFFFFFFFFFFFF DUP2 GT ISZERO PUSH2 0x1876 JUMPI PUSH1 0x0 DUP1 REVERT JUMPDEST PUSH2 0x1882 DUP9 DUP3 DUP10 ADD PUSH2 0x165A JUMP JUMPDEST SWAP5 POP POP PUSH1 0x40 DUP7 ADD CALLDATALOAD PUSH8 0xFFFFFFFFFFFFFFFF DUP2 GT ISZERO PUSH2 0x189F JUMPI PUSH1 0x0 DUP1 REVERT JUMPDEST PUSH2 0x18AB DUP9 DUP3 DUP10 ADD PUSH2 0x165A JUMP JUMPDEST SWAP4 POP POP PUSH1 0x60 PUSH2 0x18BC DUP9 DUP3 DUP10 ADD PUSH2 0x16AE JUMP JUMPDEST SWAP3 POP POP PUSH1 0x80 PUSH2 0x18CD DUP9 DUP3 DUP10 ADD PUSH2 0x16AE JUMP JUMPDEST SWAP2 POP POP SWAP3 SWAP6 POP SWAP3 SWAP6 SWAP1 SWAP4 POP JUMP JUMPDEST PUSH1 0x0 DUP1 PUSH1 0x0 DUP1 PUSH1 0x80 DUP6 DUP8 SUB SLT ISZERO PUSH2 0x18F0 JUMPI PUSH1 0x0 DUP1 REVERT JUMPDEST PUSH1 0x0 DUP6 ADD CALLDATALOAD PUSH8 0xFFFFFFFFFFFFFFFF DUP2 GT ISZERO PUSH2 0x190A JUMPI PUSH1 0x0 DUP1 REVERT JUMPDEST PUSH2 0x1916 DUP8 DUP3 DUP9 ADD PUSH2 0x165A JUMP JUMPDEST SWAP5 POP POP PUSH1 0x20 DUP6 ADD CALLDATALOAD PUSH8 0xFFFFFFFFFFFFFFFF DUP2 GT ISZERO PUSH2 0x1933 JUMPI PUSH1 0x0 DUP1 REVERT JUMPDEST PUSH2 0x193F DUP8 DUP3 DUP9 ADD PUSH2 0x165A JUMP JUMPDEST SWAP4 POP POP PUSH1 0x40 PUSH2 0x1950 DUP8 DUP3 DUP9 ADD PUSH2 0x16AE JUMP JUMPDEST SWAP3 POP POP PUSH1 0x60 DUP6 ADD CALLDATALOAD PUSH8 0xFFFFFFFFFFFFFFFF DUP2 GT ISZERO PUSH2 0x196D JUMPI PUSH1 0x0 DUP1 REVERT JUMPDEST PUSH2 0x1979 DUP8 DUP3 DUP9 ADD PUSH2 0x165A JUMP JUMPDEST SWAP2 POP POP SWAP3 SWAP6 SWAP2 SWAP5 POP SWAP3 POP JUMP JUMPDEST PUSH1 0x0 PUSH2 0x1991 DUP4 DUP4 PUSH2 0x1ABA JUMP JUMPDEST SWAP1 POP SWAP3 SWAP2 POP POP JUMP JUMPDEST PUSH2 0x19A2 DUP2 PUSH2 0x1EBA JUMP JUMPDEST DUP3 MSTORE POP POP JUMP JUMPDEST PUSH1 0x0 PUSH2 0x19B3 DUP3 PUSH2 0x1E59 JUMP JUMPDEST PUSH2 0x19BD DUP2 DUP6 PUSH2 0x1E7C JUMP JUMPDEST SWAP4 POP DUP4 PUSH1 0x20 DUP3 MUL DUP6 ADD PUSH2 0x19CF DUP6 PUSH2 0x1E34 JUMP JUMPDEST DUP1 PUSH1 0x0 JUMPDEST DUP6 DUP2 LT ISZERO PUSH2 0x1A0B JUMPI DUP5 DUP5 SUB DUP10 MSTORE DUP2 MLOAD PUSH2 0x19EC DUP6 DUP3 PUSH2 0x1985 JUMP JUMPDEST SWAP5 POP PUSH2 0x19F7 DUP4 PUSH2 0x1E6F JUMP JUMPDEST SWAP3 POP PUSH1 0x20 DUP11 ADD SWAP10 POP POP PUSH1 0x1 DUP2 ADD SWAP1 POP PUSH2 0x19D3 JUMP JUMPDEST POP DUP3 SWAP8 POP DUP8 SWAP6 POP POP POP POP POP POP SWAP3 SWAP2 POP POP JUMP JUMPDEST PUSH2 0x1A26 DUP2 PUSH2 0x1ECC JUMP JUMPDEST DUP3 MSTORE POP POP JUMP JUMPDEST PUSH1 0x0 DUP2 SLOAD PUSH1 0x1 DUP2 AND PUSH1 0x0 DUP2 EQ PUSH2 0x1A49 JUMPI PUSH1 0x1 DUP2 EQ PUSH2 0x1A6E JUMPI PUSH2 0x1AB2 JUMP JUMPDEST PUSH1 0x7F PUSH1 0x2 DUP4 DIV AND PUSH2 0x1A5A DUP2 DUP8 PUSH2 0x1E8D JUMP JUMPDEST SWAP6 POP PUSH1 0xFF NOT DUP4 AND DUP7 MSTORE DUP1 DUP7 ADD SWAP4 POP POP PUSH2 0x1AB2 JUMP JUMPDEST PUSH1 0x2 DUP3 DIV PUSH2 0x1A7C DUP2 DUP8 PUSH2 0x1E8D JUMP JUMPDEST SWAP6 POP PUSH2 0x1A87 DUP6 PUSH2 0x1E44 JUMP JUMPDEST PUSH1 0x0 JUMPDEST DUP3 DUP2 LT ISZERO PUSH2 0x1AA9 JUMPI DUP2 SLOAD DUP2 DUP10 ADD MSTORE PUSH1 0x1 DUP3 ADD SWAP2 POP PUSH1 0x20 DUP2 ADD SWAP1 POP PUSH2 0x1A8A JUMP JUMPDEST DUP3 DUP9 ADD SWAP6 POP POP POP POP JUMPDEST POP POP SWAP3 SWAP2 POP POP JUMP JUMPDEST PUSH1 0x0 PUSH2 0x1AC5 DUP3 PUSH2 0x1E64 JUMP JUMPDEST PUSH2 0x1ACF DUP2 DUP6 PUSH2 0x1E98 JUMP JUMPDEST SWAP4 POP PUSH2 0x1ADF DUP2 DUP6 PUSH1 0x20 DUP7 ADD PUSH2 0x1F14 JUMP JUMPDEST PUSH2 0x1AE8 DUP2 PUSH2 0x1F47 JUMP JUMPDEST DUP5 ADD SWAP2 POP POP SWAP3 SWAP2 POP POP JUMP JUMPDEST PUSH1 0x0 PUSH2 0x1AFE DUP3 PUSH2 0x1E64 JUMP JUMPDEST PUSH2 0x1B08 DUP2 DUP6 PUSH2 0x1EA9 JUMP JUMPDEST SWAP4 POP PUSH2 0x1B18 DUP2 DUP6 PUSH1 0x20 DUP7 ADD PUSH2 0x1F14 JUMP JUMPDEST PUSH2 0x1B21 DUP2 PUSH2 0x1F47 JUMP JUMPDEST DUP5 ADD SWAP2 POP POP SWAP3 SWAP2 POP POP JUMP JUMPDEST PUSH1 0x0 PUSH2 0x1B39 PUSH1 0x9 DUP4 PUSH2 0x1EA9 JUMP JUMPDEST SWAP2 POP PUSH32 0x4E494B2073616C61680000000000000000000000000000000000000000000000 PUSH1 0x0 DUP4 ADD MSTORE PUSH1 0x20 DUP3 ADD SWAP1 POP SWAP2 SWAP1 POP JUMP JUMPDEST PUSH1 0x0 PUSH2 0x1B79 PUSH1 0xB DUP4 PUSH2 0x1EA9 JUMP JUMPDEST SWAP2 POP PUSH32 0x49442052532053616C6168000000000000000000000000000000000000000000 PUSH1 0x0 DUP4 ADD MSTORE PUSH1 0x20 DUP3 ADD SWAP1 POP SWAP2 SWAP1 POP JUMP JUMPDEST PUSH1 0x0 PUSH2 0x1BB9 PUSH1 0x9 DUP4 PUSH2 0x1EA9 JUMP JUMPDEST SWAP2 POP PUSH32 0x4E494B2053616C61680000000000000000000000000000000000000000000000 PUSH1 0x0 DUP4 ADD MSTORE PUSH1 0x20 DUP3 ADD SWAP1 POP SWAP2 SWAP1 POP JUMP JUMPDEST PUSH2 0x1BF5 DUP2 PUSH2 0x1EF8 JUMP JUMPDEST DUP3 MSTORE POP POP JUMP JUMPDEST PUSH1 0x0 PUSH2 0x1C07 DUP3 DUP5 PUSH2 0x1A2C JUMP JUMPDEST SWAP2 POP DUP2 SWAP1 POP SWAP3 SWAP2 POP POP JUMP JUMPDEST PUSH1 0x0 PUSH1 0x20 DUP3 ADD SWAP1 POP PUSH2 0x1C27 PUSH1 0x0 DUP4 ADD DUP5 PUSH2 0x1999 JUMP JUMPDEST SWAP3 SWAP2 POP POP JUMP JUMPDEST PUSH1 0x0 PUSH1 0x80 DUP3 ADD SWAP1 POP PUSH2 0x1C42 PUSH1 0x0 DUP4 ADD DUP8 PUSH2 0x1999 JUMP JUMPDEST DUP2 DUP2 SUB PUSH1 0x20 DUP4 ADD MSTORE PUSH2 0x1C54 DUP2 DUP7 PUSH2 0x1AF3 JUMP JUMPDEST SWAP1 POP DUP2 DUP2 SUB PUSH1 0x40 DUP4 ADD MSTORE PUSH2 0x1C68 DUP2 DUP6 PUSH2 0x1AF3 JUMP JUMPDEST SWAP1 POP DUP2 DUP2 SUB PUSH1 0x60 DUP4 ADD MSTORE PUSH2 0x1C7C DUP2 DUP5 PUSH2 0x1AF3 JUMP JUMPDEST SWAP1 POP SWAP6 SWAP5 POP POP POP POP POP JUMP JUMPDEST PUSH1 0x0 PUSH1 0x20 DUP3 ADD SWAP1 POP DUP2 DUP2 SUB PUSH1 0x0 DUP4 ADD MSTORE PUSH2 0x1CA1 DUP2 DUP5 PUSH2 0x19A8 JUMP JUMPDEST SWAP1 POP SWAP3 SWAP2 POP POP JUMP JUMPDEST PUSH1 0x0 PUSH1 0x20 DUP3 ADD SWAP1 POP PUSH2 0x1CBE PUSH1 0x0 DUP4 ADD DUP5 PUSH2 0x1A1D JUMP JUMPDEST SWAP3 SWAP2 POP POP JUMP JUMPDEST PUSH1 0x0 PUSH2 0x120 DUP3 ADD SWAP1 POP DUP2 DUP2 SUB PUSH1 0x0 DUP4 ADD MSTORE PUSH2 0x1CDF DUP2 DUP13 PUSH2 0x1AF3 JUMP JUMPDEST SWAP1 POP DUP2 DUP2 SUB PUSH1 0x20 DUP4 ADD MSTORE PUSH2 0x1CF3 DUP2 DUP12 PUSH2 0x1AF3 JUMP JUMPDEST SWAP1 POP PUSH2 0x1D02 PUSH1 0x40 DUP4 ADD DUP11 PUSH2 0x1BEC JUMP JUMPDEST DUP2 DUP2 SUB PUSH1 0x60 DUP4 ADD MSTORE PUSH2 0x1D14 DUP2 DUP10 PUSH2 0x1AF3 JUMP JUMPDEST SWAP1 POP DUP2 DUP2 SUB PUSH1 0x80 DUP4 ADD MSTORE PUSH2 0x1D28 DUP2 DUP9 PUSH2 0x1AF3 JUMP JUMPDEST SWAP1 POP DUP2 DUP2 SUB PUSH1 0xA0 DUP4 ADD MSTORE PUSH2 0x1D3C DUP2 DUP8 PUSH2 0x1AF3 JUMP JUMPDEST SWAP1 POP PUSH2 0x1D4B PUSH1 0xC0 DUP4 ADD DUP7 PUSH2 0x1BEC JUMP JUMPDEST PUSH2 0x1D58 PUSH1 0xE0 DUP4 ADD DUP6 PUSH2 0x1BEC JUMP JUMPDEST DUP2 DUP2 SUB PUSH2 0x100 DUP4 ADD MSTORE PUSH2 0x1D6B DUP2 DUP5 PUSH2 0x19A8 JUMP JUMPDEST SWAP1 POP SWAP11 SWAP10 POP POP POP POP POP POP POP POP POP POP JUMP JUMPDEST PUSH1 0x0 PUSH1 0x20 DUP3 ADD SWAP1 POP DUP2 DUP2 SUB PUSH1 0x0 DUP4 ADD MSTORE PUSH2 0x1D94 DUP2 PUSH2 0x1B2C JUMP JUMPDEST SWAP1 POP SWAP2 SWAP1 POP JUMP JUMPDEST PUSH1 0x0 PUSH1 0x20 DUP3 ADD SWAP1 POP DUP2 DUP2 SUB PUSH1 0x0 DUP4 ADD MSTORE PUSH2 0x1DB4 DUP2 PUSH2 0x1B6C JUMP JUMPDEST SWAP1 POP SWAP2 SWAP1 POP JUMP JUMPDEST PUSH1 0x0 PUSH1 0x20 DUP3 ADD SWAP1 POP DUP2 DUP2 SUB PUSH1 0x0 DUP4 ADD MSTORE PUSH2 0x1DD4 DUP2 PUSH2 0x1BAC JUMP JUMPDEST SWAP1 POP SWAP2 SWAP1 POP JUMP JUMPDEST PUSH1 0x0 PUSH1 0x40 MLOAD SWAP1 POP DUP2 DUP2 ADD DUP2 DUP2 LT PUSH8 0xFFFFFFFFFFFFFFFF DUP3 GT OR ISZERO PUSH2 0x1DFE JUMPI PUSH1 0x0 DUP1 REVERT JUMPDEST DUP1 PUSH1 0x40 MSTORE POP SWAP2 SWAP1 POP JUMP JUMPDEST PUSH1 0x0 PUSH8 0xFFFFFFFFFFFFFFFF DUP3 GT ISZERO PUSH2 0x1E1F JUMPI PUSH1 0x0 DUP1 REVERT JUMPDEST PUSH1 0x1F NOT PUSH1 0x1F DUP4 ADD AND SWAP1 POP PUSH1 0x20 DUP2 ADD SWAP1 POP SWAP2 SWAP1 POP JUMP JUMPDEST PUSH1 0x0 DUP2 SWAP1 POP PUSH1 0x20 DUP3 ADD SWAP1 POP SWAP2 SWAP1 POP JUMP JUMPDEST PUSH1 0x0 DUP2 SWAP1 POP DUP2 PUSH1 0x0 MSTORE PUSH1 0x20 PUSH1 0x0 KECCAK256 SWAP1 POP SWAP2 SWAP1 POP JUMP JUMPDEST PUSH1 0x0 DUP2 MLOAD SWAP1 POP SWAP2 SWAP1 POP JUMP JUMPDEST PUSH1 0x0 DUP2 MLOAD SWAP1 POP SWAP2 SWAP1 POP JUMP JUMPDEST PUSH1 0x0 PUSH1 0x20 DUP3 ADD SWAP1 POP SWAP2 SWAP1 POP JUMP JUMPDEST PUSH1 0x0 DUP3 DUP3 MSTORE PUSH1 0x20 DUP3 ADD SWAP1 POP SWAP3 SWAP2 POP POP JUMP JUMPDEST PUSH1 0x0 DUP2 SWAP1 POP SWAP3 SWAP2 POP POP JUMP JUMPDEST PUSH1 0x0 DUP3 DUP3 MSTORE PUSH1 0x20 DUP3 ADD SWAP1 POP SWAP3 SWAP2 POP POP JUMP JUMPDEST PUSH1 0x0 DUP3 DUP3 MSTORE PUSH1 0x20 DUP3 ADD SWAP1 POP SWAP3 SWAP2 POP POP JUMP JUMPDEST PUSH1 0x0 PUSH2 0x1EC5 DUP3 PUSH2 0x1ED8 JUMP JUMPDEST SWAP1 POP SWAP2 SWAP1 POP JUMP JUMPDEST PUSH1 0x0 DUP2 ISZERO ISZERO SWAP1 POP SWAP2 SWAP1 POP JUMP JUMPDEST PUSH1 0x0 PUSH20 0xFFFFFFFFFFFFFFFFFFFFFFFFFFFFFFFFFFFFFFFF DUP3 AND SWAP1 POP SWAP2 SWAP1 POP JUMP JUMPDEST PUSH1 0x0 PUSH1 0xFF DUP3 AND SWAP1 POP SWAP2 SWAP1 POP JUMP JUMPDEST DUP3 DUP2 DUP4 CALLDATACOPY PUSH1 0x0 DUP4 DUP4 ADD MSTORE POP POP POP JUMP JUMPDEST PUSH1 0x0 JUMPDEST DUP4 DUP2 LT ISZERO PUSH2 0x1F32 JUMPI DUP1 DUP3 ADD MLOAD DUP2 DUP5 ADD MSTORE PUSH1 0x20 DUP2 ADD SWAP1 POP PUSH2 0x1F17 JUMP JUMPDEST DUP4 DUP2 GT ISZERO PUSH2 0x1F41 JUMPI PUSH1 0x0 DUP5 DUP5 ADD MSTORE JUMPDEST POP POP POP POP JUMP JUMPDEST PUSH1 0x0 PUSH1 0x1F NOT PUSH1 0x1F DUP4 ADD AND SWAP1 POP SWAP2 SWAP1 POP JUMP JUMPDEST PUSH2 0x1F61 DUP2 PUSH2 0x1EBA JUMP JUMPDEST DUP2 EQ PUSH2 0x1F6C JUMPI PUSH1 0x0 DUP1 REVERT JUMPDEST POP JUMP JUMPDEST PUSH2 0x1F78 DUP2 PUSH2 0x1EF8 JUMP JUMPDEST DUP2 EQ PUSH2 0x1F83 JUMPI PUSH1 0x0 DUP1 REVERT JUMPDEST POP JUMP INVALID LOG2 PUSH5 0x6970667358 0x22 SLT KECCAK256 0xE7 PUSH19 0xDA914AED3C16C8754DACC5060D5FC9F160E717 0x2D SWAP11 SWAP12 DUP9 DUP12 PUSH31 0x419AA8767764736F6C63430006060033000000000000000000000000000000 "
    },
    "gasEstimates": {
      "creation": {
        "codeDepositCost": "1624800",
        "executionCost": "infinite",
        "totalCost": "infinite"
      },
      "external": {
        "addInfoKesehatan(string,string,string,uint8,uint8)": "infinite",
        "addPasien(string,string,uint8,string)": "infinite",
        "addPenyakit(string,string)": "infinite",
        "addRumahSakit(address,string,string,string)": "infinite",
        "check_rs()": "infinite",
        "getManager()": "1288",
        "getinfors(string)": "infinite",
        "getpasien_rs(string)": "infinite",
        "getpenyakit_rs(string)": "infinite"
      }
    },
    "methodIdentifiers": {
      "addInfoKesehatan(string,string,string,uint8,uint8)": "a61cef0c",
      "addPasien(string,string,uint8,string)": "a480fef3",
      "addPenyakit(string,string)": "694e54bf",
      "addRumahSakit(address,string,string,string)": "a3e9b558",
      "check_rs()": "115ada66",
      "getManager()": "d5009584",
      "getinfors(string)": "e39be646",
      "getpasien_rs(string)": "571f2ac1",
      "getpenyakit_rs(string)": "2db67237"
    }
  },
  "storageLayout": {
    "storage": [
      {
        "astId": 4,
        "contract": "Ehealth.sol:Ehealth",
        "label": "manager",
        "offset": 0,
        "slot": "0",
        "type": "t_address"
      },
      {
        "astId": 6,
        "contract": "Ehealth.sol:Ehealth",
        "label": "idCounter",
        "offset": 0,
        "slot": "1",
        "type": "t_uint256"
      },
      {
        "astId": 58,
        "contract": "Ehealth.sol:Ehealth",
        "label": "pasienList",
        "offset": 0,
        "slot": "2",
        "type": "t_array(t_struct(Pasien)46_storage)dyn_storage"
      },
      {
        "astId": 61,
        "contract": "Ehealth.sol:Ehealth",
        "label": "rsList",
        "offset": 0,
        "slot": "3",
        "type": "t_array(t_struct(Rumah_Sakit)55_storage)dyn_storage"
      }
    ],
    "types": {
      "t_address": {
        "encoding": "inplace",
        "label": "address",
        "numberOfBytes": "20"
      },
      "t_array(t_string_storage)dyn_storage": {
        "base": "t_string_storage",
        "encoding": "dynamic_array",
        "label": "string[]",
        "numberOfBytes": "32"
      },
      "t_array(t_struct(Pasien)46_storage)dyn_storage": {
        "base": "t_struct(Pasien)46_storage",
        "encoding": "dynamic_array",
        "label": "struct Ehealth.Pasien[]",
        "numberOfBytes": "32"
      },
      "t_array(t_struct(Rumah_Sakit)55_storage)dyn_storage": {
        "base": "t_struct(Rumah_Sakit)55_storage",
        "encoding": "dynamic_array",
        "label": "struct Ehealth.Rumah_Sakit[]",
        "numberOfBytes": "32"
      },
      "t_string_storage": {
        "encoding": "bytes",
        "label": "string",
        "numberOfBytes": "32"
      },
      "t_struct(Pasien)46_storage": {
        "encoding": "inplace",
        "label": "struct Ehealth.Pasien",
        "members": [
          {
            "astId": 28,
            "contract": "Ehealth.sol:Ehealth",
            "label": "nik",
            "offset": 0,
            "slot": "0",
            "type": "t_string_storage"
          },
          {
            "astId": 30,
            "contract": "Ehealth.sol:Ehealth",
            "label": "nama",
            "offset": 0,
            "slot": "1",
            "type": "t_string_storage"
          },
          {
            "astId": 32,
            "contract": "Ehealth.sol:Ehealth",
            "label": "umur",
            "offset": 0,
            "slot": "2",
            "type": "t_uint8"
          },
          {
            "astId": 34,
            "contract": "Ehealth.sol:Ehealth",
            "label": "alamat",
            "offset": 0,
            "slot": "3",
            "type": "t_string_storage"
          },
          {
            "astId": 36,
            "contract": "Ehealth.sol:Ehealth",
            "label": "gulaDarah",
            "offset": 0,
            "slot": "4",
            "type": "t_string_storage"
          },
          {
            "astId": 38,
            "contract": "Ehealth.sol:Ehealth",
            "label": "tekananDarah",
            "offset": 0,
            "slot": "5",
            "type": "t_string_storage"
          },
          {
            "astId": 40,
            "contract": "Ehealth.sol:Ehealth",
            "label": "tb",
            "offset": 0,
            "slot": "6",
            "type": "t_uint8"
          },
          {
            "astId": 42,
            "contract": "Ehealth.sol:Ehealth",
            "label": "bb",
            "offset": 1,
            "slot": "6",
            "type": "t_uint8"
          },
          {
            "astId": 45,
            "contract": "Ehealth.sol:Ehealth",
            "label": "informasi_penyakit",
            "offset": 0,
            "slot": "7",
            "type": "t_array(t_string_storage)dyn_storage"
          }
        ],
        "numberOfBytes": "256"
      },
      "t_struct(Rumah_Sakit)55_storage": {
        "encoding": "inplace",
        "label": "struct Ehealth.Rumah_Sakit",
        "members": [
          {
            "astId": 48,
            "contract": "Ehealth.sol:Ehealth",
            "label": "ethaddress",
            "offset": 0,
            "slot": "0",
            "type": "t_address"
          },
          {
            "astId": 50,
            "contract": "Ehealth.sol:Ehealth",
            "label": "nama",
            "offset": 0,
            "slot": "1",
            "type": "t_string_storage"
          },
          {
            "astId": 52,
            "contract": "Ehealth.sol:Ehealth",
            "label": "idRS",
            "offset": 0,
            "slot": "2",
            "type": "t_string_storage"
          },
          {
            "astId": 54,
            "contract": "Ehealth.sol:Ehealth",
            "label": "alamat",
            "offset": 0,
            "slot": "3",
            "type": "t_string_storage"
          }
        ],
        "numberOfBytes": "128"
      },
      "t_uint256": {
        "encoding": "inplace",
        "label": "uint256",
        "numberOfBytes": "32"
      },
      "t_uint8": {
        "encoding": "inplace",
        "label": "uint8",
        "numberOfBytes": "1"
      }
    }
  },
  "userdoc": {
    "methods": {}
  }
}