{
  "abi": [
    {
      "inputs": [],
      "stateMutability": "nonpayable",
      "type": "constructor"
    },
    {
      "inputs": [
        {
          "internalType": "string",
          "name": "_id",
          "type": "string"
        },
        {
          "internalType": "string",
          "name": "_gulaDarah",
          "type": "string"
        },
        {
          "internalType": "string",
          "name": "_tekananDarah",
          "type": "string"
        },
        {
          "internalType": "uint8",
          "name": "_bb",
          "type": "uint8"
        },
        {
          "internalType": "uint8",
          "name": "_tb",
          "type": "uint8"
        }
      ],
      "name": "addInfoKesehatan",
      "outputs": [],
      "stateMutability": "nonpayable",
      "type": "function"
    },
    {
      "inputs": [
        {
          "internalType": "string",
          "name": "_nik",
          "type": "string"
        },
        {
          "internalType": "string",
          "name": "_nama",
          "type": "string"
        },
        {
          "internalType": "uint8",
          "name": "_umur",
          "type": "uint8"
        },
        {
          "internalType": "string",
          "name": "_alamat",
          "type": "string"
        }
      ],
      "name": "addPasien",
      "outputs": [],
      "stateMutability": "nonpayable",
      "type": "function"
    },
    {
      "inputs": [
        {
          "internalType": "string",
          "name": "_id",
          "type": "string"
        },
        {
          "internalType": "string",
          "name": "_penyakit",
          "type": "string"
        }
      ],
      "name": "addPenyakit",
      "outputs": [],
      "stateMutability": "nonpayable",
      "type": "function"
    },
    {
      "inputs": [
        {
          "internalType": "address",
          "name": "_ethaddress",
          "type": "address"
        },
        {
          "internalType": "string",
          "name": "_nama",
          "type": "string"
        },
        {
          "internalType": "string",
          "name": "_idRS",
          "type": "string"
        },
        {
          "internalType": "string",
          "name": "_alamat",
          "type": "string"
        }
      ],
      "name": "addRumahSakit",
      "outputs": [],
      "stateMutability": "nonpayable",
      "type": "function"
    },
    {
      "inputs": [],
      "name": "check_manager",
      "outputs": [
        {
          "internalType": "bool",
          "name": "",
          "type": "bool"
        }
      ],
      "stateMutability": "view",
      "type": "function"
    },
    {
      "inputs": [],
      "name": "check_rs",
      "outputs": [
        {
          "internalType": "bool",
          "name": "",
          "type": "bool"
        }
      ],
      "stateMutability": "view",
      "type": "function"
    },
    {
      "inputs": [],
      "name": "getManager",
      "outputs": [
        {
          "internalType": "address",
          "name": "",
          "type": "address"
        }
      ],
      "stateMutability": "view",
      "type": "function"
    },
    {
      "inputs": [
        {
          "internalType": "string",
          "name": "_idRS",
          "type": "string"
        }
      ],
      "name": "getinfors",
      "outputs": [
        {
          "internalType": "address",
          "name": "",
          "type": "address"
        },
        {
          "internalType": "string",
          "name": "",
          "type": "string"
        },
        {
          "internalType": "string",
          "name": "",
          "type": "string"
        },
        {
          "internalType": "string",
          "name": "",
          "type": "string"
        }
      ],
      "stateMutability": "view",
      "type": "function"
    },
    {
      "inputs": [
        {
          "internalType": "string",
          "name": "_nik",
          "type": "string"
        }
      ],
      "name": "getpasien_rs",
      "outputs": [
        {
          "internalType": "string",
          "name": "",
          "type": "string"
        },
        {
          "internalType": "string",
          "name": "",
          "type": "string"
        },
        {
          "internalType": "uint8",
          "name": "",
          "type": "uint8"
        },
        {
          "internalType": "string",
          "name": "",
          "type": "string"
        },
        {
          "internalType": "string",
          "name": "",
          "type": "string"
        },
        {
          "internalType": "string",
          "name": "",
          "type": "string"
        },
        {
          "internalType": "uint8",
          "name": "",
          "type": "uint8"
        },
        {
          "internalType": "uint8",
          "name": "",
          "type": "uint8"
        },
        {
          "internalType": "string[]",
          "name": "",
          "type": "string[]"
        }
      ],
      "stateMutability": "view",
      "type": "function"
    },
    {
      "inputs": [
        {
          "internalType": "string",
          "name": "_nik",
          "type": "string"
        }
      ],
      "name": "getpenyakit_rs",
      "outputs": [
        {
          "internalType": "string[]",
          "name": "",
          "type": "string[]"
        }
      ],
      "stateMutability": "view",
      "type": "function"
    }
  ],
  "devdoc": {
    "methods": {}
  },
  "evm": {
    "assembly": "    /* \"Ehealth.sol\":95:5274  contract Ehealth{\r... */\n  mstore(0x40, 0x80)\n    /* \"Ehealth.sol\":169:375  constructor () public {\r... */\n  callvalue\n    /* \"--CODEGEN--\":5:14   */\n  dup1\n    /* \"--CODEGEN--\":2:4   */\n  iszero\n  tag_1\n  jumpi\n    /* \"--CODEGEN--\":27:28   */\n  0x00\n    /* \"--CODEGEN--\":24:25   */\n  dup1\n    /* \"--CODEGEN--\":17:29   */\n  revert\n    /* \"--CODEGEN--\":2:4   */\ntag_1:\n    /* \"Ehealth.sol\":169:375  constructor () public {\r... */\n  pop\n    /* \"Ehealth.sol\":212:222  msg.sender */\n  caller\n    /* \"Ehealth.sol\":202:209  manager */\n  0x00\n  dup1\n    /* \"Ehealth.sol\":202:222  manager = msg.sender */\n  0x0100\n  exp\n  dup2\n  sload\n  dup2\n  0xffffffffffffffffffffffffffffffffffffffff\n  mul\n  not\n  and\n  swap1\n  dup4\n  0xffffffffffffffffffffffffffffffffffffffff\n  and\n  mul\n  or\n  swap1\n  sstore\n  pop\n    /* \"Ehealth.sol\":245:246  0 */\n  0x00\n    /* \"Ehealth.sol\":233:242  idCounter */\n  0x01\n    /* \"Ehealth.sol\":233:246  idCounter = 0 */\n  dup2\n  swap1\n  sstore\n  pop\n    /* \"Ehealth.sol\":257:367  addRumahSakit(0x8bD997ab0ABd89E9A23ff3cCCE5A71ddE6326f9A, \"Rumah Sakit Wijaya Wiyung\",\"123\",\"Wiyung Surabaya\") */\n  tag_4\n    /* \"Ehealth.sol\":271:313  0x8bD997ab0ABd89E9A23ff3cCCE5A71ddE6326f9A */\n  0x8bd997ab0abd89e9a23ff3ccce5a71dde6326f9a\n    /* \"Ehealth.sol\":257:367  addRumahSakit(0x8bD997ab0ABd89E9A23ff3cCCE5A71ddE6326f9A, \"Rumah Sakit Wijaya Wiyung\",\"123\",\"Wiyung Surabaya\") */\n  mload(0x40)\n  dup1\n  0x40\n  add\n  0x40\n  mstore\n  dup1\n  0x19\n  dup2\n  mstore\n  0x20\n  add\n  0x52756d61682053616b69742057696a61796120576979756e6700000000000000\n  dup2\n  mstore\n  pop\n  mload(0x40)\n  dup1\n  0x40\n  add\n  0x40\n  mstore\n  dup1\n  0x03\n  dup2\n  mstore\n  0x20\n  add\n  0x3132330000000000000000000000000000000000000000000000000000000000\n  dup2\n  mstore\n  pop\n  mload(0x40)\n  dup1\n  0x40\n  add\n  0x40\n  mstore\n  dup1\n  0x0f\n  dup2\n  mstore\n  0x20\n  add\n  0x576979756e672053757261626179610000000000000000000000000000000000\n  dup2\n  mstore\n  pop\n    /* \"Ehealth.sol\":257:270  addRumahSakit */\n  shl(0x20, tag_5)\n    /* \"Ehealth.sol\":257:367  addRumahSakit(0x8bD997ab0ABd89E9A23ff3cCCE5A71ddE6326f9A, \"Rumah Sakit Wijaya Wiyung\",\"123\",\"Wiyung Surabaya\") */\n  0x20\n  shr\n  jump\t// in\ntag_4:\n    /* \"Ehealth.sol\":95:5274  contract Ehealth{\r... */\n  jump(tag_6)\n    /* \"Ehealth.sol\":1478:1823  function addRumahSakit(address _ethaddress, string memory _nama, string memory _idRS, string memory _alamat) isManager public {\r... */\ntag_5:\n    /* \"Ehealth.sol\":5168:5178  msg.sender */\n  caller\n    /* \"Ehealth.sol\":5157:5178  manager == msg.sender */\n  0xffffffffffffffffffffffffffffffffffffffff\n  and\n    /* \"Ehealth.sol\":5157:5164  manager */\n  0x00\n  dup1\n  swap1\n  sload\n  swap1\n  0x0100\n  exp\n  swap1\n  div\n  0xffffffffffffffffffffffffffffffffffffffff\n  and\n    /* \"Ehealth.sol\":5157:5178  manager == msg.sender */\n  0xffffffffffffffffffffffffffffffffffffffff\n  and\n  eq\n    /* \"Ehealth.sol\":5148:5179  require (manager == msg.sender) */\n  tag_8\n  jumpi\n    /* \"--CODEGEN--\":12:13   */\n  0x00\n    /* \"--CODEGEN--\":9:10   */\n  dup1\n    /* \"--CODEGEN--\":2:14   */\n  revert\n    /* \"Ehealth.sol\":5148:5179  require (manager == msg.sender) */\ntag_8:\n    /* \"Ehealth.sol\":1615:1641  Rumah_Sakit memory newData */\n  tag_10\n  tag_11\n  jump\t// in\ntag_10:\n    /* \"Ehealth.sol\":1644:1784  Rumah_Sakit({\r... */\n  mload(0x40)\n  dup1\n  0x80\n  add\n  0x40\n  mstore\n  dup1\n    /* \"Ehealth.sol\":1682:1693  _ethaddress */\n  dup7\n    /* \"Ehealth.sol\":1644:1784  Rumah_Sakit({\r... */\n  0xffffffffffffffffffffffffffffffffffffffff\n  and\n  dup2\n  mstore\n  0x20\n  add\n    /* \"Ehealth.sol\":1713:1718  _nama */\n  dup6\n    /* \"Ehealth.sol\":1644:1784  Rumah_Sakit({\r... */\n  dup2\n  mstore\n  0x20\n  add\n    /* \"Ehealth.sol\":1738:1743  _idRS */\n  dup5\n    /* \"Ehealth.sol\":1644:1784  Rumah_Sakit({\r... */\n  dup2\n  mstore\n  0x20\n  add\n    /* \"Ehealth.sol\":1765:1772  _alamat */\n  dup4\n    /* \"Ehealth.sol\":1644:1784  Rumah_Sakit({\r... */\n  dup2\n  mstore\n  pop\n    /* \"Ehealth.sol\":1615:1784  Rumah_Sakit memory newData = Rumah_Sakit({\r... */\n  swap1\n  pop\n    /* \"Ehealth.sol\":1795:1801  rsList */\n  0x03\n    /* \"Ehealth.sol\":1807:1814  newData */\n  dup2\n    /* \"Ehealth.sol\":1795:1815  rsList.push(newData) */\n  swap1\n  dup1\n    /* \"--CODEGEN--\":39:40   */\n  0x01\n    /* \"--CODEGEN--\":33:36   */\n  dup2\n    /* \"--CODEGEN--\":27:37   */\n  sload\n    /* \"--CODEGEN--\":23:41   */\n  add\n    /* \"--CODEGEN--\":57:67   */\n  dup1\n    /* \"--CODEGEN--\":52:55   */\n  dup3\n    /* \"--CODEGEN--\":45:68   */\n  sstore\n    /* \"--CODEGEN--\":79:89   */\n  dup1\n    /* \"--CODEGEN--\":72:89   */\n  swap2\n  pop\n    /* \"--CODEGEN--\":0:93   */\n  pop\n    /* \"Ehealth.sol\":1795:1815  rsList.push(newData) */\n  0x01\n  swap1\n  sub\n  swap1\n  0x00\n  mstore\n  keccak256(0x00, 0x20)\n  swap1\n  0x04\n  mul\n  add\n  0x00\n  swap1\n  swap2\n  swap1\n  swap2\n  swap1\n  swap2\n  pop\n  0x00\n  dup3\n  add\n  mload\n  dup2\n  0x00\n  add\n  exp(0x0100, 0x00)\n  dup2\n  sload\n  dup2\n  0xffffffffffffffffffffffffffffffffffffffff\n  mul\n  not\n  and\n  swap1\n  dup4\n  0xffffffffffffffffffffffffffffffffffffffff\n  and\n  mul\n  or\n  swap1\n  sstore\n  pop\n  0x20\n  dup3\n  add\n  mload\n  dup2\n  0x01\n  add\n  swap1\n  dup1\n  mload\n  swap1\n  0x20\n  add\n  swap1\n  tag_13\n  swap3\n  swap2\n  swap1\n  tag_14\n  jump\t// in\ntag_13:\n  pop\n  0x40\n  dup3\n  add\n  mload\n  dup2\n  0x02\n  add\n  swap1\n  dup1\n  mload\n  swap1\n  0x20\n  add\n  swap1\n  tag_15\n  swap3\n  swap2\n  swap1\n  tag_14\n  jump\t// in\ntag_15:\n  pop\n  0x60\n  dup3\n  add\n  mload\n  dup2\n  0x03\n  add\n  swap1\n  dup1\n  mload\n  swap1\n  0x20\n  add\n  swap1\n  tag_16\n  swap3\n  swap2\n  swap1\n  tag_14\n  jump\t// in\ntag_16:\n  pop\n  pop\n  pop\n    /* \"Ehealth.sol\":5190:5191  _ */\n  pop\n    /* \"Ehealth.sol\":1478:1823  function addRumahSakit(address _ethaddress, string memory _nama, string memory _idRS, string memory _alamat) isManager public {\r... */\n  pop\n  pop\n  pop\n  pop\n  jump\t// out\n    /* \"Ehealth.sol\":95:5274  contract Ehealth{\r... */\ntag_11:\n  mload(0x40)\n  dup1\n  0x80\n  add\n  0x40\n  mstore\n  dup1\n  and(0xffffffffffffffffffffffffffffffffffffffff, 0x00)\n  dup2\n  mstore\n  0x20\n  add\n  0x60\n  dup2\n  mstore\n  0x20\n  add\n  0x60\n  dup2\n  mstore\n  0x20\n  add\n  0x60\n  dup2\n  mstore\n  pop\n  swap1\n  jump\t// out\ntag_14:\n  dup3\n  dup1\n  sload\n  0x01\n  dup2\n  0x01\n  and\n  iszero\n  0x0100\n  mul\n  sub\n  and\n  0x02\n  swap1\n  div\n  swap1\n  0x00\n  mstore\n  keccak256(0x00, 0x20)\n  swap1\n  0x1f\n  add\n  0x20\n  swap1\n  div\n  dup2\n  add\n  swap3\n  dup3\n  0x1f\n  lt\n  tag_18\n  jumpi\n  dup1\n  mload\n  not(0xff)\n  and\n  dup4\n  dup1\n  add\n  or\n  dup6\n  sstore\n  jump(tag_17)\ntag_18:\n  dup3\n  dup1\n  add\n  0x01\n  add\n  dup6\n  sstore\n  dup3\n  iszero\n  tag_17\n  jumpi\n  swap2\n  dup3\n  add\ntag_19:\n  dup3\n  dup2\n  gt\n  iszero\n  tag_20\n  jumpi\n  dup3\n  mload\n  dup3\n  sstore\n  swap2\n  0x20\n  add\n  swap2\n  swap1\n  0x01\n  add\n  swap1\n  jump(tag_19)\ntag_20:\ntag_17:\n  pop\n  swap1\n  pop\n  tag_21\n  swap2\n  swap1\n  tag_22\n  jump\t// in\ntag_21:\n  pop\n  swap1\n  jump\t// out\ntag_22:\n  tag_23\n  swap2\n  swap1\ntag_24:\n  dup1\n  dup3\n  gt\n  iszero\n  tag_25\n  jumpi\n  0x00\n  dup2\n  0x00\n  swap1\n  sstore\n  pop\n  0x01\n  add\n  jump(tag_24)\ntag_25:\n  pop\n  swap1\n  jump\ntag_23:\n  swap1\n  jump\t// out\ntag_6:\n  dataSize(sub_0)\n  dup1\n  dataOffset(sub_0)\n  0x00\n  codecopy\n  0x00\n  return\nstop\n\nsub_0: assembly {\n        /* \"Ehealth.sol\":95:5274  contract Ehealth{\r... */\n      mstore(0x40, 0x80)\n      callvalue\n        /* \"--CODEGEN--\":5:14   */\n      dup1\n        /* \"--CODEGEN--\":2:4   */\n      iszero\n      tag_1\n      jumpi\n        /* \"--CODEGEN--\":27:28   */\n      0x00\n        /* \"--CODEGEN--\":24:25   */\n      dup1\n        /* \"--CODEGEN--\":17:29   */\n      revert\n        /* \"--CODEGEN--\":2:4   */\n    tag_1:\n        /* \"Ehealth.sol\":95:5274  contract Ehealth{\r... */\n      pop\n      jumpi(tag_2, lt(calldatasize, 0x04))\n      shr(0xe0, calldataload(0x00))\n      dup1\n      0xa480fef3\n      gt\n      tag_13\n      jumpi\n      dup1\n      0xa480fef3\n      eq\n      tag_8\n      jumpi\n      dup1\n      0xa61cef0c\n      eq\n      tag_9\n      jumpi\n      dup1\n      0xd5009584\n      eq\n      tag_10\n      jumpi\n      dup1\n      0xe39be646\n      eq\n      tag_11\n      jumpi\n      dup1\n      0xfb2cb8f3\n      eq\n      tag_12\n      jumpi\n      jump(tag_2)\n    tag_13:\n      dup1\n      0x115ada66\n      eq\n      tag_3\n      jumpi\n      dup1\n      0x2db67237\n      eq\n      tag_4\n      jumpi\n      dup1\n      0x571f2ac1\n      eq\n      tag_5\n      jumpi\n      dup1\n      0x694e54bf\n      eq\n      tag_6\n      jumpi\n      dup1\n      0xa3e9b558\n      eq\n      tag_7\n      jumpi\n    tag_2:\n        /* \"--CODEGEN--\":12:13   */\n      0x00\n        /* \"--CODEGEN--\":9:10   */\n      dup1\n        /* \"--CODEGEN--\":2:14   */\n      revert\n        /* \"Ehealth.sol\":4761:4971  function check_rs() public view returns(bool) {\r... */\n    tag_3:\n      tag_14\n      tag_15\n      jump\t// in\n    tag_14:\n      mload(0x40)\n      tag_16\n      swap2\n      swap1\n      jump(tag_17)\n    tag_16:\n      mload(0x40)\n      dup1\n      swap2\n      sub\n      swap1\n      return\n        /* \"Ehealth.sol\":3445:4056  function getpenyakit_rs(string memory _nik) isRs public view returns(string[] memory){\r... */\n    tag_4:\n      tag_18\n      0x04\n      dup1\n      calldatasize\n      sub\n      dup2\n      add\n      swap1\n      tag_19\n      swap2\n      swap1\n      jump(tag_20)\n    tag_19:\n      tag_21\n      jump\t// in\n    tag_18:\n      mload(0x40)\n      tag_22\n      swap2\n      swap1\n      jump(tag_23)\n    tag_22:\n      mload(0x40)\n      dup1\n      swap2\n      sub\n      swap1\n      return\n        /* \"Ehealth.sol\":2878:3439  function getpasien_rs(string memory _nik) isRs public view returns(string memory, string memory, uint8, string memory, string memory, string memory, uint8, uint8, string[] memory){\r... */\n    tag_5:\n      tag_24\n      0x04\n      dup1\n      calldatasize\n      sub\n      dup2\n      add\n      swap1\n      tag_25\n      swap2\n      swap1\n      jump(tag_20)\n    tag_25:\n      tag_26\n      jump\t// in\n    tag_24:\n      mload(0x40)\n      tag_27\n      swap10\n      swap9\n      swap8\n      swap7\n      swap6\n      swap5\n      swap4\n      swap3\n      swap2\n      swap1\n      jump(tag_28)\n    tag_27:\n      mload(0x40)\n      dup1\n      swap2\n      sub\n      swap1\n      return\n        /* \"Ehealth.sol\":1829:2181  function addPenyakit (string memory _id, string memory _penyakit) isRs public {\r... */\n    tag_6:\n      tag_29\n      0x04\n      dup1\n      calldatasize\n      sub\n      dup2\n      add\n      swap1\n      tag_30\n      swap2\n      swap1\n      jump(tag_31)\n    tag_30:\n      tag_32\n      jump\t// in\n    tag_29:\n      stop\n        /* \"Ehealth.sol\":1478:1823  function addRumahSakit(address _ethaddress, string memory _nama, string memory _idRS, string memory _alamat) isManager public {\r... */\n    tag_7:\n      tag_33\n      0x04\n      dup1\n      calldatasize\n      sub\n      dup2\n      add\n      swap1\n      tag_34\n      swap2\n      swap1\n      jump(tag_35)\n    tag_34:\n      tag_36\n      jump\t// in\n    tag_33:\n      stop\n        /* \"Ehealth.sol\":1017:1466  function addPasien(string memory _nik, string memory _nama, uint8 _umur, string memory _alamat) isRs public{\r... */\n    tag_8:\n      tag_37\n      0x04\n      dup1\n      calldatasize\n      sub\n      dup2\n      add\n      swap1\n      tag_38\n      swap2\n      swap1\n      jump(tag_39)\n    tag_38:\n      tag_40\n      jump\t// in\n    tag_37:\n      stop\n        /* \"Ehealth.sol\":2187:2731  function addInfoKesehatan (string memory _id, string memory _gulaDarah, string memory _tekananDarah, uint8 _bb, uint8 _tb) isRs public {\r... */\n    tag_9:\n      tag_41\n      0x04\n      dup1\n      calldatasize\n      sub\n      dup2\n      add\n      swap1\n      tag_42\n      swap2\n      swap1\n      jump(tag_43)\n    tag_42:\n      tag_44\n      jump\t// in\n    tag_41:\n      stop\n        /* \"Ehealth.sol\":846:930  function getManager() public view returns(address) {\r... */\n    tag_10:\n      tag_45\n      tag_46\n      jump\t// in\n    tag_45:\n      mload(0x40)\n      tag_47\n      swap2\n      swap1\n      jump(tag_48)\n    tag_47:\n      mload(0x40)\n      dup1\n      swap2\n      sub\n      swap1\n      return\n        /* \"Ehealth.sol\":4126:4743  function getinfors(string memory _idRS) isManager public view returns(address, string memory, string memory, string memory){\r... */\n    tag_11:\n      tag_49\n      0x04\n      dup1\n      calldatasize\n      sub\n      dup2\n      add\n      swap1\n      tag_50\n      swap2\n      swap1\n      jump(tag_20)\n    tag_50:\n      tag_51\n      jump\t// in\n    tag_49:\n      mload(0x40)\n      tag_52\n      swap5\n      swap4\n      swap3\n      swap2\n      swap1\n      jump(tag_53)\n    tag_52:\n      mload(0x40)\n      dup1\n      swap2\n      sub\n      swap1\n      return\n        /* \"Ehealth.sol\":4977:5109  function check_manager() public view returns(bool) {\r... */\n    tag_12:\n      tag_54\n      tag_55\n      jump\t// in\n    tag_54:\n      mload(0x40)\n      tag_56\n      swap2\n      swap1\n      jump(tag_17)\n    tag_56:\n      mload(0x40)\n      dup1\n      swap2\n      sub\n      swap1\n      return\n        /* \"Ehealth.sol\":4761:4971  function check_rs() public view returns(bool) {\r... */\n    tag_15:\n        /* \"Ehealth.sol\":4801:4805  bool */\n      0x00\n        /* \"Ehealth.sol\":4822:4828  uint i */\n      dup1\n        /* \"Ehealth.sol\":4831:4832  0 */\n      0x00\n        /* \"Ehealth.sol\":4822:4832  uint i = 0 */\n      swap1\n      pop\n        /* \"Ehealth.sol\":4818:4964  for(uint i = 0; i<rsList.length;i++){\r... */\n    tag_58:\n        /* \"Ehealth.sol\":4836:4842  rsList */\n      0x03\n        /* \"Ehealth.sol\":4836:4849  rsList.length */\n      dup1\n      sload\n      swap1\n      pop\n        /* \"Ehealth.sol\":4834:4835  i */\n      dup2\n        /* \"Ehealth.sol\":4834:4849  i<rsList.length */\n      lt\n        /* \"Ehealth.sol\":4818:4964  for(uint i = 0; i<rsList.length;i++){\r... */\n      iszero\n      tag_59\n      jumpi\n        /* \"Ehealth.sol\":4886:4892  rsList */\n      0x03\n        /* \"Ehealth.sol\":4893:4894  i */\n      dup2\n        /* \"Ehealth.sol\":4886:4895  rsList[i] */\n      dup2\n      sload\n      dup2\n      lt\n      tag_61\n      jumpi\n      invalid\n    tag_61:\n      swap1\n      0x00\n      mstore\n      keccak256(0x00, 0x20)\n      swap1\n      0x04\n      mul\n      add\n        /* \"Ehealth.sol\":4886:4906  rsList[i].ethaddress */\n      0x00\n      add\n      0x00\n      swap1\n      sload\n      swap1\n      0x0100\n      exp\n      swap1\n      div\n      0xffffffffffffffffffffffffffffffffffffffff\n      and\n        /* \"Ehealth.sol\":4872:4906  msg.sender == rsList[i].ethaddress */\n      0xffffffffffffffffffffffffffffffffffffffff\n      and\n        /* \"Ehealth.sol\":4872:4882  msg.sender */\n      caller\n        /* \"Ehealth.sol\":4872:4906  msg.sender == rsList[i].ethaddress */\n      0xffffffffffffffffffffffffffffffffffffffff\n      and\n      eq\n        /* \"Ehealth.sol\":4869:4953  if(msg.sender == rsList[i].ethaddress){\r... */\n      iszero\n      tag_63\n      jumpi\n        /* \"Ehealth.sol\":4933:4937  true */\n      0x01\n        /* \"Ehealth.sol\":4926:4937  return true */\n      swap2\n      pop\n      pop\n      jump(tag_57)\n        /* \"Ehealth.sol\":4869:4953  if(msg.sender == rsList[i].ethaddress){\r... */\n    tag_63:\n        /* \"Ehealth.sol\":4850:4853  i++ */\n      dup1\n      dup1\n      0x01\n      add\n      swap2\n      pop\n      pop\n        /* \"Ehealth.sol\":4818:4964  for(uint i = 0; i<rsList.length;i++){\r... */\n      jump(tag_58)\n    tag_59:\n      pop\n        /* \"Ehealth.sol\":4761:4971  function check_rs() public view returns(bool) {\r... */\n    tag_57:\n      swap1\n      jump\t// out\n        /* \"Ehealth.sol\":3445:4056  function getpenyakit_rs(string memory _nik) isRs public view returns(string[] memory){\r... */\n    tag_21:\n        /* \"Ehealth.sol\":3514:3529  string[] memory */\n      0x60\n        /* \"Ehealth.sol\":5240:5250  check_rs() */\n      tag_65\n        /* \"Ehealth.sol\":5240:5248  check_rs */\n      tag_15\n        /* \"Ehealth.sol\":5240:5250  check_rs() */\n      jump\t// in\n    tag_65:\n        /* \"Ehealth.sol\":5231:5251  require (check_rs()) */\n      tag_66\n      jumpi\n        /* \"--CODEGEN--\":12:13   */\n      0x00\n        /* \"--CODEGEN--\":9:10   */\n      dup1\n        /* \"--CODEGEN--\":2:14   */\n      revert\n        /* \"Ehealth.sol\":5231:5251  require (check_rs()) */\n    tag_66:\n        /* \"Ehealth.sol\":3541:3562  string[] memory _info */\n      0x60\n        /* \"Ehealth.sol\":3577:3583  uint i */\n      0x00\n        /* \"Ehealth.sol\":3586:3587  0 */\n      dup1\n        /* \"Ehealth.sol\":3577:3587  uint i = 0 */\n      swap1\n      pop\n        /* \"Ehealth.sol\":3573:4025  for(uint i = 0;i<pasienList.length;i++){\r... */\n    tag_68:\n        /* \"Ehealth.sol\":3590:3600  pasienList */\n      0x02\n        /* \"Ehealth.sol\":3590:3607  pasienList.length */\n      dup1\n      sload\n      swap1\n      pop\n        /* \"Ehealth.sol\":3588:3589  i */\n      dup2\n        /* \"Ehealth.sol\":3588:3607  i<pasienList.length */\n      lt\n        /* \"Ehealth.sol\":3573:4025  for(uint i = 0;i<pasienList.length;i++){\r... */\n      iszero\n      tag_69\n      jumpi\n        /* \"Ehealth.sol\":3672:3682  pasienList */\n      0x02\n        /* \"Ehealth.sol\":3683:3684  i */\n      dup2\n        /* \"Ehealth.sol\":3672:3685  pasienList[i] */\n      dup2\n      sload\n      dup2\n      lt\n      tag_71\n      jumpi\n      invalid\n    tag_71:\n      swap1\n      0x00\n      mstore\n      keccak256(0x00, 0x20)\n      swap1\n      0x08\n      mul\n      add\n        /* \"Ehealth.sol\":3672:3689  pasienList[i].nik */\n      0x00\n      add\n        /* \"Ehealth.sol\":3656:3691  keccak256(bytes(pasienList[i].nik)) */\n      mload(0x40)\n      tag_73\n      swap2\n      swap1\n      jump(tag_74)\n    tag_73:\n      mload(0x40)\n      dup1\n      swap2\n      sub\n      swap1\n      keccak256\n        /* \"Ehealth.sol\":3646:3650  _nik */\n      dup5\n        /* \"Ehealth.sol\":3630:3652  keccak256(bytes(_nik)) */\n      dup1\n      mload\n      swap1\n      0x20\n      add\n      keccak256\n        /* \"Ehealth.sol\":3630:3691  keccak256(bytes(_nik)) == keccak256(bytes(pasienList[i].nik)) */\n      eq\n        /* \"Ehealth.sol\":3627:4014  if(keccak256(bytes(_nik)) == keccak256(bytes(pasienList[i].nik))){\r... */\n      iszero\n      tag_75\n      jumpi\n        /* \"Ehealth.sol\":3732:3742  pasienList */\n      0x02\n        /* \"Ehealth.sol\":3743:3744  i */\n      dup2\n        /* \"Ehealth.sol\":3732:3745  pasienList[i] */\n      dup2\n      sload\n      dup2\n      lt\n      tag_76\n      jumpi\n      invalid\n    tag_76:\n      swap1\n      0x00\n      mstore\n      keccak256(0x00, 0x20)\n      swap1\n      0x08\n      mul\n      add\n        /* \"Ehealth.sol\":3732:3764  pasienList[i].informasi_penyakit */\n      0x07\n      add\n        /* \"Ehealth.sol\":3732:3771  pasienList[i].informasi_penyakit.length */\n      dup1\n      sload\n      swap1\n      pop\n        /* \"Ehealth.sol\":3719:3772  new string[](pasienList[i].informasi_penyakit.length) */\n      0xffffffffffffffff\n      dup2\n      gt\n        /* \"--CODEGEN--\":5:14   */\n      dup1\n        /* \"--CODEGEN--\":2:4   */\n      iszero\n      tag_78\n      jumpi\n        /* \"--CODEGEN--\":27:28   */\n      0x00\n        /* \"--CODEGEN--\":24:25   */\n      dup1\n        /* \"--CODEGEN--\":17:29   */\n      revert\n        /* \"--CODEGEN--\":2:4   */\n    tag_78:\n        /* \"Ehealth.sol\":3719:3772  new string[](pasienList[i].informasi_penyakit.length) */\n      pop\n      mload(0x40)\n      swap1\n      dup1\n      dup3\n      mstore\n      dup1\n      0x20\n      mul\n      0x20\n      add\n      dup3\n      add\n      0x40\n      mstore\n      dup1\n      iszero\n      tag_79\n      jumpi\n      dup2\n      0x20\n      add\n    tag_80:\n      0x60\n      dup2\n      mstore\n      0x20\n      add\n      swap1\n      0x01\n      swap1\n      sub\n      swap1\n      dup2\n      tag_80\n      jumpi\n      swap1\n      pop\n    tag_79:\n      pop\n        /* \"Ehealth.sol\":3711:3772  _info = new string[](pasienList[i].informasi_penyakit.length) */\n      swap2\n      pop\n        /* \"Ehealth.sol\":3795:3801  uint j */\n      0x00\n        /* \"Ehealth.sol\":3804:3805  0 */\n      dup1\n        /* \"Ehealth.sol\":3795:3805  uint j = 0 */\n      swap1\n      pop\n        /* \"Ehealth.sol\":3791:3941  for(uint j = 0;j<pasienList[i].informasi_penyakit.length;j++){\r... */\n    tag_81:\n        /* \"Ehealth.sol\":3808:3818  pasienList */\n      0x02\n        /* \"Ehealth.sol\":3819:3820  i */\n      dup3\n        /* \"Ehealth.sol\":3808:3821  pasienList[i] */\n      dup2\n      sload\n      dup2\n      lt\n      tag_84\n      jumpi\n      invalid\n    tag_84:\n      swap1\n      0x00\n      mstore\n      keccak256(0x00, 0x20)\n      swap1\n      0x08\n      mul\n      add\n        /* \"Ehealth.sol\":3808:3840  pasienList[i].informasi_penyakit */\n      0x07\n      add\n        /* \"Ehealth.sol\":3808:3847  pasienList[i].informasi_penyakit.length */\n      dup1\n      sload\n      swap1\n      pop\n        /* \"Ehealth.sol\":3806:3807  j */\n      dup2\n        /* \"Ehealth.sol\":3806:3847  j<pasienList[i].informasi_penyakit.length */\n      lt\n        /* \"Ehealth.sol\":3791:3941  for(uint j = 0;j<pasienList[i].informasi_penyakit.length;j++){\r... */\n      iszero\n      tag_82\n      jumpi\n        /* \"Ehealth.sol\":3886:3896  pasienList */\n      0x02\n        /* \"Ehealth.sol\":3897:3898  i */\n      dup3\n        /* \"Ehealth.sol\":3886:3899  pasienList[i] */\n      dup2\n      sload\n      dup2\n      lt\n      tag_86\n      jumpi\n      invalid\n    tag_86:\n      swap1\n      0x00\n      mstore\n      keccak256(0x00, 0x20)\n      swap1\n      0x08\n      mul\n      add\n        /* \"Ehealth.sol\":3886:3918  pasienList[i].informasi_penyakit */\n      0x07\n      add\n        /* \"Ehealth.sol\":3919:3920  j */\n      dup2\n        /* \"Ehealth.sol\":3886:3921  pasienList[i].informasi_penyakit[j] */\n      dup2\n      sload\n      dup2\n      lt\n      tag_88\n      jumpi\n      invalid\n    tag_88:\n      swap1\n      0x00\n      mstore\n      keccak256(0x00, 0x20)\n      add\n        /* \"Ehealth.sol\":3875:3921  _info[j] = pasienList[i].informasi_penyakit[j] */\n      dup1\n      sload\n      0x01\n      dup2\n      0x01\n      and\n      iszero\n      0x0100\n      mul\n      sub\n      and\n      0x02\n      swap1\n      div\n      dup1\n      0x1f\n      add\n      0x20\n      dup1\n      swap2\n      div\n      mul\n      0x20\n      add\n      mload(0x40)\n      swap1\n      dup2\n      add\n      0x40\n      mstore\n      dup1\n      swap3\n      swap2\n      swap1\n      dup2\n      dup2\n      mstore\n      0x20\n      add\n      dup3\n      dup1\n      sload\n      0x01\n      dup2\n      0x01\n      and\n      iszero\n      0x0100\n      mul\n      sub\n      and\n      0x02\n      swap1\n      div\n      dup1\n      iszero\n      tag_90\n      jumpi\n      dup1\n      0x1f\n      lt\n      tag_91\n      jumpi\n      0x0100\n      dup1\n      dup4\n      sload\n      div\n      mul\n      dup4\n      mstore\n      swap2\n      0x20\n      add\n      swap2\n      jump(tag_90)\n    tag_91:\n      dup3\n      add\n      swap2\n      swap1\n      0x00\n      mstore\n      keccak256(0x00, 0x20)\n      swap1\n    tag_92:\n      dup2\n      sload\n      dup2\n      mstore\n      swap1\n      0x01\n      add\n      swap1\n      0x20\n      add\n      dup1\n      dup4\n      gt\n      tag_92\n      jumpi\n      dup3\n      swap1\n      sub\n      0x1f\n      and\n      dup3\n      add\n      swap2\n    tag_90:\n      pop\n      pop\n      pop\n      pop\n      pop\n        /* \"Ehealth.sol\":3875:3880  _info */\n      dup4\n        /* \"Ehealth.sol\":3881:3882  j */\n      dup3\n        /* \"Ehealth.sol\":3875:3883  _info[j] */\n      dup2\n      mload\n      dup2\n      lt\n      tag_93\n      jumpi\n      invalid\n    tag_93:\n      0x20\n      mul\n      0x20\n      add\n      add\n        /* \"Ehealth.sol\":3875:3921  _info[j] = pasienList[i].informasi_penyakit[j] */\n      dup2\n      swap1\n      mstore\n      pop\n        /* \"Ehealth.sol\":3848:3851  j++ */\n      dup1\n      dup1\n      0x01\n      add\n      swap2\n      pop\n      pop\n        /* \"Ehealth.sol\":3791:3941  for(uint j = 0;j<pasienList[i].informasi_penyakit.length;j++){\r... */\n      jump(tag_81)\n    tag_82:\n      pop\n        /* \"Ehealth.sol\":3627:4014  if(keccak256(bytes(_nik)) == keccak256(bytes(pasienList[i].nik))){\r... */\n      jump(tag_94)\n    tag_75:\n        /* \"Ehealth.sol\":3979:3998  revert(\"NIK salah\") */\n      mload(0x40)\n      0x08c379a000000000000000000000000000000000000000000000000000000000\n      dup2\n      mstore\n      0x04\n      add\n      tag_95\n      swap1\n      jump(tag_96)\n    tag_95:\n      mload(0x40)\n      dup1\n      swap2\n      sub\n      swap1\n      revert\n        /* \"Ehealth.sol\":3627:4014  if(keccak256(bytes(_nik)) == keccak256(bytes(pasienList[i].nik))){\r... */\n    tag_94:\n        /* \"Ehealth.sol\":3608:3611  i++ */\n      dup1\n      dup1\n      0x01\n      add\n      swap2\n      pop\n      pop\n        /* \"Ehealth.sol\":3573:4025  for(uint i = 0;i<pasienList.length;i++){\r... */\n      jump(tag_68)\n    tag_69:\n      pop\n        /* \"Ehealth.sol\":4042:4047  _info */\n      dup1\n        /* \"Ehealth.sol\":4035:4048  return(_info) */\n      swap2\n      pop\n      pop\n        /* \"Ehealth.sol\":3445:4056  function getpenyakit_rs(string memory _nik) isRs public view returns(string[] memory){\r... */\n      swap2\n      swap1\n      pop\n      jump\t// out\n        /* \"Ehealth.sol\":2878:3439  function getpasien_rs(string memory _nik) isRs public view returns(string memory, string memory, uint8, string memory, string memory, string memory, uint8, uint8, string[] memory){\r... */\n    tag_26:\n        /* \"Ehealth.sol\":2945:2958  string memory */\n      0x60\n        /* \"Ehealth.sol\":2960:2973  string memory */\n      dup1\n        /* \"Ehealth.sol\":2975:2980  uint8 */\n      0x00\n        /* \"Ehealth.sol\":2982:2995  string memory */\n      0x60\n        /* \"Ehealth.sol\":2997:3010  string memory */\n      dup1\n        /* \"Ehealth.sol\":3012:3025  string memory */\n      0x60\n        /* \"Ehealth.sol\":3027:3032  uint8 */\n      0x00\n        /* \"Ehealth.sol\":3034:3039  uint8 */\n      dup1\n        /* \"Ehealth.sol\":3041:3056  string[] memory */\n      0x60\n        /* \"Ehealth.sol\":5240:5250  check_rs() */\n      tag_98\n        /* \"Ehealth.sol\":5240:5248  check_rs */\n      tag_15\n        /* \"Ehealth.sol\":5240:5250  check_rs() */\n      jump\t// in\n    tag_98:\n        /* \"Ehealth.sol\":5231:5251  require (check_rs()) */\n      tag_99\n      jumpi\n        /* \"--CODEGEN--\":12:13   */\n      0x00\n        /* \"--CODEGEN--\":9:10   */\n      dup1\n        /* \"--CODEGEN--\":2:14   */\n      revert\n        /* \"Ehealth.sol\":5231:5251  require (check_rs()) */\n    tag_99:\n        /* \"Ehealth.sol\":3072:3078  uint i */\n      0x00\n        /* \"Ehealth.sol\":3068:3432  for(uint i; i<pasienList.length;i++){\r... */\n    tag_101:\n        /* \"Ehealth.sol\":3082:3092  pasienList */\n      0x02\n        /* \"Ehealth.sol\":3082:3099  pasienList.length */\n      dup1\n      sload\n      swap1\n      pop\n        /* \"Ehealth.sol\":3080:3081  i */\n      dup2\n        /* \"Ehealth.sol\":3080:3099  i<pasienList.length */\n      lt\n        /* \"Ehealth.sol\":3068:3432  for(uint i; i<pasienList.length;i++){\r... */\n      iszero\n      tag_102\n      jumpi\n        /* \"Ehealth.sol\":3164:3174  pasienList */\n      0x02\n        /* \"Ehealth.sol\":3175:3176  i */\n      dup2\n        /* \"Ehealth.sol\":3164:3177  pasienList[i] */\n      dup2\n      sload\n      dup2\n      lt\n      tag_104\n      jumpi\n      invalid\n    tag_104:\n      swap1\n      0x00\n      mstore\n      keccak256(0x00, 0x20)\n      swap1\n      0x08\n      mul\n      add\n        /* \"Ehealth.sol\":3164:3181  pasienList[i].nik */\n      0x00\n      add\n        /* \"Ehealth.sol\":3148:3183  keccak256(bytes(pasienList[i].nik)) */\n      mload(0x40)\n      tag_106\n      swap2\n      swap1\n      jump(tag_74)\n    tag_106:\n      mload(0x40)\n      dup1\n      swap2\n      sub\n      swap1\n      keccak256\n        /* \"Ehealth.sol\":3138:3142  _nik */\n      dup12\n        /* \"Ehealth.sol\":3122:3144  keccak256(bytes(_nik)) */\n      dup1\n      mload\n      swap1\n      0x20\n      add\n      keccak256\n        /* \"Ehealth.sol\":3122:3183  keccak256(bytes(_nik)) == keccak256(bytes(pasienList[i].nik)) */\n      eq\n        /* \"Ehealth.sol\":3119:3421  if(keccak256(bytes(_nik)) == keccak256(bytes(pasienList[i].nik))){\r... */\n      iszero\n      tag_107\n      jumpi\n        /* \"Ehealth.sol\":3210:3220  pasienList */\n      0x02\n        /* \"Ehealth.sol\":3221:3222  i */\n      dup2\n        /* \"Ehealth.sol\":3210:3223  pasienList[i] */\n      dup2\n      sload\n      dup2\n      lt\n      tag_108\n      jumpi\n      invalid\n    tag_108:\n      swap1\n      0x00\n      mstore\n      keccak256(0x00, 0x20)\n      swap1\n      0x08\n      mul\n      add\n        /* \"Ehealth.sol\":3210:3227  pasienList[i].nik */\n      0x00\n      add\n        /* \"Ehealth.sol\":3228:3238  pasienList */\n      0x02\n        /* \"Ehealth.sol\":3239:3240  i */\n      dup3\n        /* \"Ehealth.sol\":3228:3241  pasienList[i] */\n      dup2\n      sload\n      dup2\n      lt\n      tag_110\n      jumpi\n      invalid\n    tag_110:\n      swap1\n      0x00\n      mstore\n      keccak256(0x00, 0x20)\n      swap1\n      0x08\n      mul\n      add\n        /* \"Ehealth.sol\":3228:3246  pasienList[i].nama */\n      0x01\n      add\n        /* \"Ehealth.sol\":3247:3257  pasienList */\n      0x02\n        /* \"Ehealth.sol\":3258:3259  i */\n      dup4\n        /* \"Ehealth.sol\":3247:3260  pasienList[i] */\n      dup2\n      sload\n      dup2\n      lt\n      tag_112\n      jumpi\n      invalid\n    tag_112:\n      swap1\n      0x00\n      mstore\n      keccak256(0x00, 0x20)\n      swap1\n      0x08\n      mul\n      add\n        /* \"Ehealth.sol\":3247:3265  pasienList[i].umur */\n      0x02\n      add\n      0x00\n      swap1\n      sload\n      swap1\n      0x0100\n      exp\n      swap1\n      div\n      0xff\n      and\n        /* \"Ehealth.sol\":3266:3276  pasienList */\n      0x02\n        /* \"Ehealth.sol\":3277:3278  i */\n      dup5\n        /* \"Ehealth.sol\":3266:3279  pasienList[i] */\n      dup2\n      sload\n      dup2\n      lt\n      tag_114\n      jumpi\n      invalid\n    tag_114:\n      swap1\n      0x00\n      mstore\n      keccak256(0x00, 0x20)\n      swap1\n      0x08\n      mul\n      add\n        /* \"Ehealth.sol\":3266:3286  pasienList[i].alamat */\n      0x03\n      add\n        /* \"Ehealth.sol\":3287:3297  pasienList */\n      0x02\n        /* \"Ehealth.sol\":3298:3299  i */\n      dup6\n        /* \"Ehealth.sol\":3287:3300  pasienList[i] */\n      dup2\n      sload\n      dup2\n      lt\n      tag_116\n      jumpi\n      invalid\n    tag_116:\n      swap1\n      0x00\n      mstore\n      keccak256(0x00, 0x20)\n      swap1\n      0x08\n      mul\n      add\n        /* \"Ehealth.sol\":3287:3310  pasienList[i].gulaDarah */\n      0x04\n      add\n        /* \"Ehealth.sol\":3311:3321  pasienList */\n      0x02\n        /* \"Ehealth.sol\":3322:3323  i */\n      dup7\n        /* \"Ehealth.sol\":3311:3324  pasienList[i] */\n      dup2\n      sload\n      dup2\n      lt\n      tag_118\n      jumpi\n      invalid\n    tag_118:\n      swap1\n      0x00\n      mstore\n      keccak256(0x00, 0x20)\n      swap1\n      0x08\n      mul\n      add\n        /* \"Ehealth.sol\":3311:3337  pasienList[i].tekananDarah */\n      0x05\n      add\n        /* \"Ehealth.sol\":3338:3348  pasienList */\n      0x02\n        /* \"Ehealth.sol\":3349:3350  i */\n      dup8\n        /* \"Ehealth.sol\":3338:3351  pasienList[i] */\n      dup2\n      sload\n      dup2\n      lt\n      tag_120\n      jumpi\n      invalid\n    tag_120:\n      swap1\n      0x00\n      mstore\n      keccak256(0x00, 0x20)\n      swap1\n      0x08\n      mul\n      add\n        /* \"Ehealth.sol\":3338:3354  pasienList[i].bb */\n      0x06\n      add\n      0x01\n      swap1\n      sload\n      swap1\n      0x0100\n      exp\n      swap1\n      div\n      0xff\n      and\n        /* \"Ehealth.sol\":3355:3365  pasienList */\n      0x02\n        /* \"Ehealth.sol\":3366:3367  i */\n      dup9\n        /* \"Ehealth.sol\":3355:3368  pasienList[i] */\n      dup2\n      sload\n      dup2\n      lt\n      tag_122\n      jumpi\n      invalid\n    tag_122:\n      swap1\n      0x00\n      mstore\n      keccak256(0x00, 0x20)\n      swap1\n      0x08\n      mul\n      add\n        /* \"Ehealth.sol\":3355:3371  pasienList[i].tb */\n      0x06\n      add\n      0x00\n      swap1\n      sload\n      swap1\n      0x0100\n      exp\n      swap1\n      div\n      0xff\n      and\n        /* \"Ehealth.sol\":3372:3382  pasienList */\n      0x02\n        /* \"Ehealth.sol\":3383:3384  i */\n      dup10\n        /* \"Ehealth.sol\":3372:3385  pasienList[i] */\n      dup2\n      sload\n      dup2\n      lt\n      tag_124\n      jumpi\n      invalid\n    tag_124:\n      swap1\n      0x00\n      mstore\n      keccak256(0x00, 0x20)\n      swap1\n      0x08\n      mul\n      add\n        /* \"Ehealth.sol\":3372:3404  pasienList[i].informasi_penyakit */\n      0x07\n      add\n        /* \"Ehealth.sol\":3203:3405  return(pasienList[i].nik,pasienList[i].nama,pasienList[i].umur,pasienList[i].alamat,pasienList[i].gulaDarah,pasienList[i].tekananDarah,pasienList[i].bb,pasienList[i].tb,pasienList[i].informasi_penyakit) */\n      dup9\n      dup1\n      sload\n      0x01\n      dup2\n      0x01\n      and\n      iszero\n      0x0100\n      mul\n      sub\n      and\n      0x02\n      swap1\n      div\n      dup1\n      0x1f\n      add\n      0x20\n      dup1\n      swap2\n      div\n      mul\n      0x20\n      add\n      mload(0x40)\n      swap1\n      dup2\n      add\n      0x40\n      mstore\n      dup1\n      swap3\n      swap2\n      swap1\n      dup2\n      dup2\n      mstore\n      0x20\n      add\n      dup3\n      dup1\n      sload\n      0x01\n      dup2\n      0x01\n      and\n      iszero\n      0x0100\n      mul\n      sub\n      and\n      0x02\n      swap1\n      div\n      dup1\n      iszero\n      tag_126\n      jumpi\n      dup1\n      0x1f\n      lt\n      tag_127\n      jumpi\n      0x0100\n      dup1\n      dup4\n      sload\n      div\n      mul\n      dup4\n      mstore\n      swap2\n      0x20\n      add\n      swap2\n      jump(tag_126)\n    tag_127:\n      dup3\n      add\n      swap2\n      swap1\n      0x00\n      mstore\n      keccak256(0x00, 0x20)\n      swap1\n    tag_128:\n      dup2\n      sload\n      dup2\n      mstore\n      swap1\n      0x01\n      add\n      swap1\n      0x20\n      add\n      dup1\n      dup4\n      gt\n      tag_128\n      jumpi\n      dup3\n      swap1\n      sub\n      0x1f\n      and\n      dup3\n      add\n      swap2\n    tag_126:\n      pop\n      pop\n      pop\n      pop\n      pop\n      swap9\n      pop\n      dup8\n      dup1\n      sload\n      0x01\n      dup2\n      0x01\n      and\n      iszero\n      0x0100\n      mul\n      sub\n      and\n      0x02\n      swap1\n      div\n      dup1\n      0x1f\n      add\n      0x20\n      dup1\n      swap2\n      div\n      mul\n      0x20\n      add\n      mload(0x40)\n      swap1\n      dup2\n      add\n      0x40\n      mstore\n      dup1\n      swap3\n      swap2\n      swap1\n      dup2\n      dup2\n      mstore\n      0x20\n      add\n      dup3\n      dup1\n      sload\n      0x01\n      dup2\n      0x01\n      and\n      iszero\n      0x0100\n      mul\n      sub\n      and\n      0x02\n      swap1\n      div\n      dup1\n      iszero\n      tag_129\n      jumpi\n      dup1\n      0x1f\n      lt\n      tag_130\n      jumpi\n      0x0100\n      dup1\n      dup4\n      sload\n      div\n      mul\n      dup4\n      mstore\n      swap2\n      0x20\n      add\n      swap2\n      jump(tag_129)\n    tag_130:\n      dup3\n      add\n      swap2\n      swap1\n      0x00\n      mstore\n      keccak256(0x00, 0x20)\n      swap1\n    tag_131:\n      dup2\n      sload\n      dup2\n      mstore\n      swap1\n      0x01\n      add\n      swap1\n      0x20\n      add\n      dup1\n      dup4\n      gt\n      tag_131\n      jumpi\n      dup3\n      swap1\n      sub\n      0x1f\n      and\n      dup3\n      add\n      swap2\n    tag_129:\n      pop\n      pop\n      pop\n      pop\n      pop\n      swap8\n      pop\n      dup6\n      dup1\n      sload\n      0x01\n      dup2\n      0x01\n      and\n      iszero\n      0x0100\n      mul\n      sub\n      and\n      0x02\n      swap1\n      div\n      dup1\n      0x1f\n      add\n      0x20\n      dup1\n      swap2\n      div\n      mul\n      0x20\n      add\n      mload(0x40)\n      swap1\n      dup2\n      add\n      0x40\n      mstore\n      dup1\n      swap3\n      swap2\n      swap1\n      dup2\n      dup2\n      mstore\n      0x20\n      add\n      dup3\n      dup1\n      sload\n      0x01\n      dup2\n      0x01\n      and\n      iszero\n      0x0100\n      mul\n      sub\n      and\n      0x02\n      swap1\n      div\n      dup1\n      iszero\n      tag_132\n      jumpi\n      dup1\n      0x1f\n      lt\n      tag_133\n      jumpi\n      0x0100\n      dup1\n      dup4\n      sload\n      div\n      mul\n      dup4\n      mstore\n      swap2\n      0x20\n      add\n      swap2\n      jump(tag_132)\n    tag_133:\n      dup3\n      add\n      swap2\n      swap1\n      0x00\n      mstore\n      keccak256(0x00, 0x20)\n      swap1\n    tag_134:\n      dup2\n      sload\n      dup2\n      mstore\n      swap1\n      0x01\n      add\n      swap1\n      0x20\n      add\n      dup1\n      dup4\n      gt\n      tag_134\n      jumpi\n      dup3\n      swap1\n      sub\n      0x1f\n      and\n      dup3\n      add\n      swap2\n    tag_132:\n      pop\n      pop\n      pop\n      pop\n      pop\n      swap6\n      pop\n      dup5\n      dup1\n      sload\n      0x01\n      dup2\n      0x01\n      and\n      iszero\n      0x0100\n      mul\n      sub\n      and\n      0x02\n      swap1\n      div\n      dup1\n      0x1f\n      add\n      0x20\n      dup1\n      swap2\n      div\n      mul\n      0x20\n      add\n      mload(0x40)\n      swap1\n      dup2\n      add\n      0x40\n      mstore\n      dup1\n      swap3\n      swap2\n      swap1\n      dup2\n      dup2\n      mstore\n      0x20\n      add\n      dup3\n      dup1\n      sload\n      0x01\n      dup2\n      0x01\n      and\n      iszero\n      0x0100\n      mul\n      sub\n      and\n      0x02\n      swap1\n      div\n      dup1\n      iszero\n      tag_135\n      jumpi\n      dup1\n      0x1f\n      lt\n      tag_136\n      jumpi\n      0x0100\n      dup1\n      dup4\n      sload\n      div\n      mul\n      dup4\n      mstore\n      swap2\n      0x20\n      add\n      swap2\n      jump(tag_135)\n    tag_136:\n      dup3\n      add\n      swap2\n      swap1\n      0x00\n      mstore\n      keccak256(0x00, 0x20)\n      swap1\n    tag_137:\n      dup2\n      sload\n      dup2\n      mstore\n      swap1\n      0x01\n      add\n      swap1\n      0x20\n      add\n      dup1\n      dup4\n      gt\n      tag_137\n      jumpi\n      dup3\n      swap1\n      sub\n      0x1f\n      and\n      dup3\n      add\n      swap2\n    tag_135:\n      pop\n      pop\n      pop\n      pop\n      pop\n      swap5\n      pop\n      dup4\n      dup1\n      sload\n      0x01\n      dup2\n      0x01\n      and\n      iszero\n      0x0100\n      mul\n      sub\n      and\n      0x02\n      swap1\n      div\n      dup1\n      0x1f\n      add\n      0x20\n      dup1\n      swap2\n      div\n      mul\n      0x20\n      add\n      mload(0x40)\n      swap1\n      dup2\n      add\n      0x40\n      mstore\n      dup1\n      swap3\n      swap2\n      swap1\n      dup2\n      dup2\n      mstore\n      0x20\n      add\n      dup3\n      dup1\n      sload\n      0x01\n      dup2\n      0x01\n      and\n      iszero\n      0x0100\n      mul\n      sub\n      and\n      0x02\n      swap1\n      div\n      dup1\n      iszero\n      tag_138\n      jumpi\n      dup1\n      0x1f\n      lt\n      tag_139\n      jumpi\n      0x0100\n      dup1\n      dup4\n      sload\n      div\n      mul\n      dup4\n      mstore\n      swap2\n      0x20\n      add\n      swap2\n      jump(tag_138)\n    tag_139:\n      dup3\n      add\n      swap2\n      swap1\n      0x00\n      mstore\n      keccak256(0x00, 0x20)\n      swap1\n    tag_140:\n      dup2\n      sload\n      dup2\n      mstore\n      swap1\n      0x01\n      add\n      swap1\n      0x20\n      add\n      dup1\n      dup4\n      gt\n      tag_140\n      jumpi\n      dup3\n      swap1\n      sub\n      0x1f\n      and\n      dup3\n      add\n      swap2\n    tag_138:\n      pop\n      pop\n      pop\n      pop\n      pop\n      swap4\n      pop\n      dup1\n      dup1\n      sload\n      dup1\n      0x20\n      mul\n      0x20\n      add\n      mload(0x40)\n      swap1\n      dup2\n      add\n      0x40\n      mstore\n      dup1\n      swap3\n      swap2\n      swap1\n      dup2\n      dup2\n      mstore\n      0x20\n      add\n      0x00\n      swap1\n    tag_141:\n      dup3\n      dup3\n      lt\n      iszero\n      tag_142\n      jumpi\n      dup4\n      dup3\n      swap1\n      0x00\n      mstore\n      keccak256(0x00, 0x20)\n      add\n      dup1\n      sload\n      0x01\n      dup2\n      0x01\n      and\n      iszero\n      0x0100\n      mul\n      sub\n      and\n      0x02\n      swap1\n      div\n      dup1\n      0x1f\n      add\n      0x20\n      dup1\n      swap2\n      div\n      mul\n      0x20\n      add\n      mload(0x40)\n      swap1\n      dup2\n      add\n      0x40\n      mstore\n      dup1\n      swap3\n      swap2\n      swap1\n      dup2\n      dup2\n      mstore\n      0x20\n      add\n      dup3\n      dup1\n      sload\n      0x01\n      dup2\n      0x01\n      and\n      iszero\n      0x0100\n      mul\n      sub\n      and\n      0x02\n      swap1\n      div\n      dup1\n      iszero\n      tag_144\n      jumpi\n      dup1\n      0x1f\n      lt\n      tag_145\n      jumpi\n      0x0100\n      dup1\n      dup4\n      sload\n      div\n      mul\n      dup4\n      mstore\n      swap2\n      0x20\n      add\n      swap2\n      jump(tag_144)\n    tag_145:\n      dup3\n      add\n      swap2\n      swap1\n      0x00\n      mstore\n      keccak256(0x00, 0x20)\n      swap1\n    tag_146:\n      dup2\n      sload\n      dup2\n      mstore\n      swap1\n      0x01\n      add\n      swap1\n      0x20\n      add\n      dup1\n      dup4\n      gt\n      tag_146\n      jumpi\n      dup3\n      swap1\n      sub\n      0x1f\n      and\n      dup3\n      add\n      swap2\n    tag_144:\n      pop\n      pop\n      pop\n      pop\n      pop\n      dup2\n      mstore\n      0x20\n      add\n      swap1\n      0x01\n      add\n      swap1\n      jump(tag_141)\n    tag_142:\n      pop\n      pop\n      pop\n      pop\n      swap1\n      pop\n      swap10\n      pop\n      swap10\n      pop\n      swap10\n      pop\n      swap10\n      pop\n      swap10\n      pop\n      swap10\n      pop\n      swap10\n      pop\n      swap10\n      pop\n      swap10\n      pop\n      pop\n      jump(tag_100)\n        /* \"Ehealth.sol\":3119:3421  if(keccak256(bytes(_nik)) == keccak256(bytes(pasienList[i].nik))){\r... */\n    tag_107:\n        /* \"Ehealth.sol\":3100:3103  i++ */\n      dup1\n      dup1\n      0x01\n      add\n      swap2\n      pop\n      pop\n        /* \"Ehealth.sol\":3068:3432  for(uint i; i<pasienList.length;i++){\r... */\n      jump(tag_101)\n    tag_102:\n      pop\n        /* \"Ehealth.sol\":5262:5263  _ */\n    tag_100:\n        /* \"Ehealth.sol\":2878:3439  function getpasien_rs(string memory _nik) isRs public view returns(string memory, string memory, uint8, string memory, string memory, string memory, uint8, uint8, string[] memory){\r... */\n      swap2\n      swap4\n      swap6\n      swap8\n      swap10\n      swap1\n      swap3\n      swap5\n      swap7\n      swap9\n      pop\n      jump\t// out\n        /* \"Ehealth.sol\":1829:2181  function addPenyakit (string memory _id, string memory _penyakit) isRs public {\r... */\n    tag_32:\n        /* \"Ehealth.sol\":5240:5250  check_rs() */\n      tag_148\n        /* \"Ehealth.sol\":5240:5248  check_rs */\n      tag_15\n        /* \"Ehealth.sol\":5240:5250  check_rs() */\n      jump\t// in\n    tag_148:\n        /* \"Ehealth.sol\":5231:5251  require (check_rs()) */\n      tag_149\n      jumpi\n        /* \"--CODEGEN--\":12:13   */\n      0x00\n        /* \"--CODEGEN--\":9:10   */\n      dup1\n        /* \"--CODEGEN--\":2:14   */\n      revert\n        /* \"Ehealth.sol\":5231:5251  require (check_rs()) */\n    tag_149:\n        /* \"Ehealth.sol\":1952:1953  0 */\n      0x00\n        /* \"Ehealth.sol\":1932:1941  _penyakit */\n      dup2\n        /* \"Ehealth.sol\":1926:1949  bytes(_penyakit).length */\n      mload\n        /* \"Ehealth.sol\":1926:1953  bytes(_penyakit).length > 0 */\n      gt\n        /* \"Ehealth.sol\":1918:1954  require(bytes(_penyakit).length > 0) */\n      tag_151\n      jumpi\n        /* \"--CODEGEN--\":12:13   */\n      0x00\n        /* \"--CODEGEN--\":9:10   */\n      dup1\n        /* \"--CODEGEN--\":2:14   */\n      revert\n        /* \"Ehealth.sol\":1918:1954  require(bytes(_penyakit).length > 0) */\n    tag_151:\n        /* \"Ehealth.sol\":1969:1975  uint i */\n      0x00\n        /* \"Ehealth.sol\":1965:2174  for(uint i; i<pasienList.length;i++){\r... */\n    tag_152:\n        /* \"Ehealth.sol\":1979:1989  pasienList */\n      0x02\n        /* \"Ehealth.sol\":1979:1996  pasienList.length */\n      dup1\n      sload\n      swap1\n      pop\n        /* \"Ehealth.sol\":1977:1978  i */\n      dup2\n        /* \"Ehealth.sol\":1977:1996  i<pasienList.length */\n      lt\n        /* \"Ehealth.sol\":1965:2174  for(uint i; i<pasienList.length;i++){\r... */\n      iszero\n      tag_153\n      jumpi\n        /* \"Ehealth.sol\":2060:2070  pasienList */\n      0x02\n        /* \"Ehealth.sol\":2071:2072  i */\n      dup2\n        /* \"Ehealth.sol\":2060:2073  pasienList[i] */\n      dup2\n      sload\n      dup2\n      lt\n      tag_155\n      jumpi\n      invalid\n    tag_155:\n      swap1\n      0x00\n      mstore\n      keccak256(0x00, 0x20)\n      swap1\n      0x08\n      mul\n      add\n        /* \"Ehealth.sol\":2060:2077  pasienList[i].nik */\n      0x00\n      add\n        /* \"Ehealth.sol\":2044:2079  keccak256(bytes(pasienList[i].nik)) */\n      mload(0x40)\n      tag_157\n      swap2\n      swap1\n      jump(tag_74)\n    tag_157:\n      mload(0x40)\n      dup1\n      swap2\n      sub\n      swap1\n      keccak256\n        /* \"Ehealth.sol\":2035:2038  _id */\n      dup4\n        /* \"Ehealth.sol\":2019:2040  keccak256(bytes(_id)) */\n      dup1\n      mload\n      swap1\n      0x20\n      add\n      keccak256\n        /* \"Ehealth.sol\":2019:2079  keccak256(bytes(_id)) == keccak256(bytes(pasienList[i].nik)) */\n      eq\n        /* \"Ehealth.sol\":2016:2163  if(keccak256(bytes(_id)) == keccak256(bytes(pasienList[i].nik))){\r... */\n      iszero\n      tag_158\n      jumpi\n        /* \"Ehealth.sol\":2099:2109  pasienList */\n      0x02\n        /* \"Ehealth.sol\":2110:2111  i */\n      dup2\n        /* \"Ehealth.sol\":2099:2112  pasienList[i] */\n      dup2\n      sload\n      dup2\n      lt\n      tag_159\n      jumpi\n      invalid\n    tag_159:\n      swap1\n      0x00\n      mstore\n      keccak256(0x00, 0x20)\n      swap1\n      0x08\n      mul\n      add\n        /* \"Ehealth.sol\":2099:2131  pasienList[i].informasi_penyakit */\n      0x07\n      add\n        /* \"Ehealth.sol\":2137:2146  _penyakit */\n      dup3\n        /* \"Ehealth.sol\":2099:2147  pasienList[i].informasi_penyakit.push(_penyakit) */\n      swap1\n      dup1\n        /* \"--CODEGEN--\":39:40   */\n      0x01\n        /* \"--CODEGEN--\":33:36   */\n      dup2\n        /* \"--CODEGEN--\":27:37   */\n      sload\n        /* \"--CODEGEN--\":23:41   */\n      add\n        /* \"--CODEGEN--\":57:67   */\n      dup1\n        /* \"--CODEGEN--\":52:55   */\n      dup3\n        /* \"--CODEGEN--\":45:68   */\n      sstore\n        /* \"--CODEGEN--\":79:89   */\n      dup1\n        /* \"--CODEGEN--\":72:89   */\n      swap2\n      pop\n        /* \"--CODEGEN--\":0:93   */\n      pop\n        /* \"Ehealth.sol\":2099:2147  pasienList[i].informasi_penyakit.push(_penyakit) */\n      0x01\n      swap1\n      sub\n      swap1\n      0x00\n      mstore\n      keccak256(0x00, 0x20)\n      add\n      0x00\n      swap1\n      swap2\n      swap1\n      swap2\n      swap1\n      swap2\n      pop\n      swap1\n      dup1\n      mload\n      swap1\n      0x20\n      add\n      swap1\n      tag_162\n      swap3\n      swap2\n      swap1\n      tag_163\n      jump\t// in\n    tag_162:\n      pop\n        /* \"Ehealth.sol\":2016:2163  if(keccak256(bytes(_id)) == keccak256(bytes(pasienList[i].nik))){\r... */\n    tag_158:\n        /* \"Ehealth.sol\":1997:2000  i++ */\n      dup1\n      dup1\n      0x01\n      add\n      swap2\n      pop\n      pop\n        /* \"Ehealth.sol\":1965:2174  for(uint i; i<pasienList.length;i++){\r... */\n      jump(tag_152)\n    tag_153:\n      pop\n        /* \"Ehealth.sol\":1829:2181  function addPenyakit (string memory _id, string memory _penyakit) isRs public {\r... */\n      pop\n      pop\n      jump\t// out\n        /* \"Ehealth.sol\":1478:1823  function addRumahSakit(address _ethaddress, string memory _nama, string memory _idRS, string memory _alamat) isManager public {\r... */\n    tag_36:\n        /* \"Ehealth.sol\":5168:5178  msg.sender */\n      caller\n        /* \"Ehealth.sol\":5157:5178  manager == msg.sender */\n      0xffffffffffffffffffffffffffffffffffffffff\n      and\n        /* \"Ehealth.sol\":5157:5164  manager */\n      0x00\n      dup1\n      swap1\n      sload\n      swap1\n      0x0100\n      exp\n      swap1\n      div\n      0xffffffffffffffffffffffffffffffffffffffff\n      and\n        /* \"Ehealth.sol\":5157:5178  manager == msg.sender */\n      0xffffffffffffffffffffffffffffffffffffffff\n      and\n      eq\n        /* \"Ehealth.sol\":5148:5179  require (manager == msg.sender) */\n      tag_165\n      jumpi\n        /* \"--CODEGEN--\":12:13   */\n      0x00\n        /* \"--CODEGEN--\":9:10   */\n      dup1\n        /* \"--CODEGEN--\":2:14   */\n      revert\n        /* \"Ehealth.sol\":5148:5179  require (manager == msg.sender) */\n    tag_165:\n        /* \"Ehealth.sol\":1615:1641  Rumah_Sakit memory newData */\n      tag_167\n      tag_168\n      jump\t// in\n    tag_167:\n        /* \"Ehealth.sol\":1644:1784  Rumah_Sakit({\r... */\n      mload(0x40)\n      dup1\n      0x80\n      add\n      0x40\n      mstore\n      dup1\n        /* \"Ehealth.sol\":1682:1693  _ethaddress */\n      dup7\n        /* \"Ehealth.sol\":1644:1784  Rumah_Sakit({\r... */\n      0xffffffffffffffffffffffffffffffffffffffff\n      and\n      dup2\n      mstore\n      0x20\n      add\n        /* \"Ehealth.sol\":1713:1718  _nama */\n      dup6\n        /* \"Ehealth.sol\":1644:1784  Rumah_Sakit({\r... */\n      dup2\n      mstore\n      0x20\n      add\n        /* \"Ehealth.sol\":1738:1743  _idRS */\n      dup5\n        /* \"Ehealth.sol\":1644:1784  Rumah_Sakit({\r... */\n      dup2\n      mstore\n      0x20\n      add\n        /* \"Ehealth.sol\":1765:1772  _alamat */\n      dup4\n        /* \"Ehealth.sol\":1644:1784  Rumah_Sakit({\r... */\n      dup2\n      mstore\n      pop\n        /* \"Ehealth.sol\":1615:1784  Rumah_Sakit memory newData = Rumah_Sakit({\r... */\n      swap1\n      pop\n        /* \"Ehealth.sol\":1795:1801  rsList */\n      0x03\n        /* \"Ehealth.sol\":1807:1814  newData */\n      dup2\n        /* \"Ehealth.sol\":1795:1815  rsList.push(newData) */\n      swap1\n      dup1\n        /* \"--CODEGEN--\":39:40   */\n      0x01\n        /* \"--CODEGEN--\":33:36   */\n      dup2\n        /* \"--CODEGEN--\":27:37   */\n      sload\n        /* \"--CODEGEN--\":23:41   */\n      add\n        /* \"--CODEGEN--\":57:67   */\n      dup1\n        /* \"--CODEGEN--\":52:55   */\n      dup3\n        /* \"--CODEGEN--\":45:68   */\n      sstore\n        /* \"--CODEGEN--\":79:89   */\n      dup1\n        /* \"--CODEGEN--\":72:89   */\n      swap2\n      pop\n        /* \"--CODEGEN--\":0:93   */\n      pop\n        /* \"Ehealth.sol\":1795:1815  rsList.push(newData) */\n      0x01\n      swap1\n      sub\n      swap1\n      0x00\n      mstore\n      keccak256(0x00, 0x20)\n      swap1\n      0x04\n      mul\n      add\n      0x00\n      swap1\n      swap2\n      swap1\n      swap2\n      swap1\n      swap2\n      pop\n      0x00\n      dup3\n      add\n      mload\n      dup2\n      0x00\n      add\n      exp(0x0100, 0x00)\n      dup2\n      sload\n      dup2\n      0xffffffffffffffffffffffffffffffffffffffff\n      mul\n      not\n      and\n      swap1\n      dup4\n      0xffffffffffffffffffffffffffffffffffffffff\n      and\n      mul\n      or\n      swap1\n      sstore\n      pop\n      0x20\n      dup3\n      add\n      mload\n      dup2\n      0x01\n      add\n      swap1\n      dup1\n      mload\n      swap1\n      0x20\n      add\n      swap1\n      tag_170\n      swap3\n      swap2\n      swap1\n      tag_163\n      jump\t// in\n    tag_170:\n      pop\n      0x40\n      dup3\n      add\n      mload\n      dup2\n      0x02\n      add\n      swap1\n      dup1\n      mload\n      swap1\n      0x20\n      add\n      swap1\n      tag_171\n      swap3\n      swap2\n      swap1\n      tag_163\n      jump\t// in\n    tag_171:\n      pop\n      0x60\n      dup3\n      add\n      mload\n      dup2\n      0x03\n      add\n      swap1\n      dup1\n      mload\n      swap1\n      0x20\n      add\n      swap1\n      tag_172\n      swap3\n      swap2\n      swap1\n      tag_163\n      jump\t// in\n    tag_172:\n      pop\n      pop\n      pop\n        /* \"Ehealth.sol\":5190:5191  _ */\n      pop\n        /* \"Ehealth.sol\":1478:1823  function addRumahSakit(address _ethaddress, string memory _nama, string memory _idRS, string memory _alamat) isManager public {\r... */\n      pop\n      pop\n      pop\n      pop\n      jump\t// out\n        /* \"Ehealth.sol\":1017:1466  function addPasien(string memory _nik, string memory _nama, uint8 _umur, string memory _alamat) isRs public{\r... */\n    tag_40:\n        /* \"Ehealth.sol\":5240:5250  check_rs() */\n      tag_174\n        /* \"Ehealth.sol\":5240:5248  check_rs */\n      tag_15\n        /* \"Ehealth.sol\":5240:5250  check_rs() */\n      jump\t// in\n    tag_174:\n        /* \"Ehealth.sol\":5231:5251  require (check_rs()) */\n      tag_175\n      jumpi\n        /* \"--CODEGEN--\":12:13   */\n      0x00\n        /* \"--CODEGEN--\":9:10   */\n      dup1\n        /* \"--CODEGEN--\":2:14   */\n      revert\n        /* \"Ehealth.sol\":5231:5251  require (check_rs()) */\n    tag_175:\n        /* \"Ehealth.sol\":1135:1158  Pasien memory newPasien */\n      tag_177\n      tag_178\n      jump\t// in\n    tag_177:\n        /* \"Ehealth.sol\":1162:1421  Pasien({\r... */\n      mload(0x40)\n      dup1\n      0x0120\n      add\n      0x40\n      mstore\n      dup1\n        /* \"Ehealth.sol\":1187:1191  _nik */\n      dup7\n        /* \"Ehealth.sol\":1162:1421  Pasien({\r... */\n      dup2\n      mstore\n      0x20\n      add\n        /* \"Ehealth.sol\":1211:1216  _nama */\n      dup6\n        /* \"Ehealth.sol\":1162:1421  Pasien({\r... */\n      dup2\n      mstore\n      0x20\n      add\n        /* \"Ehealth.sol\":1236:1241  _umur */\n      dup5\n        /* \"Ehealth.sol\":1162:1421  Pasien({\r... */\n      0xff\n      and\n      dup2\n      mstore\n      0x20\n      add\n        /* \"Ehealth.sol\":1262:1269  _alamat */\n      dup4\n        /* \"Ehealth.sol\":1162:1421  Pasien({\r... */\n      dup2\n      mstore\n      0x20\n      add\n      mload(0x40)\n      dup1\n      0x20\n      add\n      0x40\n      mstore\n      dup1\n      0x00\n      dup2\n      mstore\n      pop\n      dup2\n      mstore\n      0x20\n      add\n      mload(0x40)\n      dup1\n      0x20\n      add\n      0x40\n      mstore\n      dup1\n      0x00\n      dup2\n      mstore\n      pop\n      dup2\n      mstore\n      0x20\n      add\n        /* \"Ehealth.sol\":1359:1360  0 */\n      0x00\n        /* \"Ehealth.sol\":1162:1421  Pasien({\r... */\n      0xff\n      and\n      dup2\n      mstore\n      0x20\n      add\n        /* \"Ehealth.sol\":1341:1342  0 */\n      0x00\n        /* \"Ehealth.sol\":1162:1421  Pasien({\r... */\n      0xff\n      and\n      dup2\n      mstore\n      0x20\n      add\n        /* \"Ehealth.sol\":1407:1408  0 */\n      0x00\n        /* \"Ehealth.sol\":1394:1409  new string[](0) */\n      0xffffffffffffffff\n      dup2\n      gt\n        /* \"--CODEGEN--\":5:14   */\n      dup1\n        /* \"--CODEGEN--\":2:4   */\n      iszero\n      tag_179\n      jumpi\n        /* \"--CODEGEN--\":27:28   */\n      0x00\n        /* \"--CODEGEN--\":24:25   */\n      dup1\n        /* \"--CODEGEN--\":17:29   */\n      revert\n        /* \"--CODEGEN--\":2:4   */\n    tag_179:\n        /* \"Ehealth.sol\":1394:1409  new string[](0) */\n      pop\n      mload(0x40)\n      swap1\n      dup1\n      dup3\n      mstore\n      dup1\n      0x20\n      mul\n      0x20\n      add\n      dup3\n      add\n      0x40\n      mstore\n      dup1\n      iszero\n      tag_180\n      jumpi\n      dup2\n      0x20\n      add\n    tag_181:\n      0x60\n      dup2\n      mstore\n      0x20\n      add\n      swap1\n      0x01\n      swap1\n      sub\n      swap1\n      dup2\n      tag_181\n      jumpi\n      swap1\n      pop\n    tag_180:\n      pop\n        /* \"Ehealth.sol\":1162:1421  Pasien({\r... */\n      dup2\n      mstore\n      pop\n        /* \"Ehealth.sol\":1135:1421  Pasien memory newPasien =  Pasien({\r... */\n      swap1\n      pop\n        /* \"Ehealth.sol\":1432:1442  pasienList */\n      0x02\n        /* \"Ehealth.sol\":1448:1457  newPasien */\n      dup2\n        /* \"Ehealth.sol\":1432:1458  pasienList.push(newPasien) */\n      swap1\n      dup1\n        /* \"--CODEGEN--\":39:40   */\n      0x01\n        /* \"--CODEGEN--\":33:36   */\n      dup2\n        /* \"--CODEGEN--\":27:37   */\n      sload\n        /* \"--CODEGEN--\":23:41   */\n      add\n        /* \"--CODEGEN--\":57:67   */\n      dup1\n        /* \"--CODEGEN--\":52:55   */\n      dup3\n        /* \"--CODEGEN--\":45:68   */\n      sstore\n        /* \"--CODEGEN--\":79:89   */\n      dup1\n        /* \"--CODEGEN--\":72:89   */\n      swap2\n      pop\n        /* \"--CODEGEN--\":0:93   */\n      pop\n        /* \"Ehealth.sol\":1432:1458  pasienList.push(newPasien) */\n      0x01\n      swap1\n      sub\n      swap1\n      0x00\n      mstore\n      keccak256(0x00, 0x20)\n      swap1\n      0x08\n      mul\n      add\n      0x00\n      swap1\n      swap2\n      swap1\n      swap2\n      swap1\n      swap2\n      pop\n      0x00\n      dup3\n      add\n      mload\n      dup2\n      0x00\n      add\n      swap1\n      dup1\n      mload\n      swap1\n      0x20\n      add\n      swap1\n      tag_183\n      swap3\n      swap2\n      swap1\n      tag_163\n      jump\t// in\n    tag_183:\n      pop\n      0x20\n      dup3\n      add\n      mload\n      dup2\n      0x01\n      add\n      swap1\n      dup1\n      mload\n      swap1\n      0x20\n      add\n      swap1\n      tag_184\n      swap3\n      swap2\n      swap1\n      tag_163\n      jump\t// in\n    tag_184:\n      pop\n      0x40\n      dup3\n      add\n      mload\n      dup2\n      0x02\n      add\n      exp(0x0100, 0x00)\n      dup2\n      sload\n      dup2\n      0xff\n      mul\n      not\n      and\n      swap1\n      dup4\n      0xff\n      and\n      mul\n      or\n      swap1\n      sstore\n      pop\n      0x60\n      dup3\n      add\n      mload\n      dup2\n      0x03\n      add\n      swap1\n      dup1\n      mload\n      swap1\n      0x20\n      add\n      swap1\n      tag_185\n      swap3\n      swap2\n      swap1\n      tag_163\n      jump\t// in\n    tag_185:\n      pop\n      0x80\n      dup3\n      add\n      mload\n      dup2\n      0x04\n      add\n      swap1\n      dup1\n      mload\n      swap1\n      0x20\n      add\n      swap1\n      tag_186\n      swap3\n      swap2\n      swap1\n      tag_163\n      jump\t// in\n    tag_186:\n      pop\n      0xa0\n      dup3\n      add\n      mload\n      dup2\n      0x05\n      add\n      swap1\n      dup1\n      mload\n      swap1\n      0x20\n      add\n      swap1\n      tag_187\n      swap3\n      swap2\n      swap1\n      tag_163\n      jump\t// in\n    tag_187:\n      pop\n      0xc0\n      dup3\n      add\n      mload\n      dup2\n      0x06\n      add\n      exp(0x0100, 0x00)\n      dup2\n      sload\n      dup2\n      0xff\n      mul\n      not\n      and\n      swap1\n      dup4\n      0xff\n      and\n      mul\n      or\n      swap1\n      sstore\n      pop\n      0xe0\n      dup3\n      add\n      mload\n      dup2\n      0x06\n      add\n      exp(0x0100, 0x01)\n      dup2\n      sload\n      dup2\n      0xff\n      mul\n      not\n      and\n      swap1\n      dup4\n      0xff\n      and\n      mul\n      or\n      swap1\n      sstore\n      pop\n      0x0100\n      dup3\n      add\n      mload\n      dup2\n      0x07\n      add\n      swap1\n      dup1\n      mload\n      swap1\n      0x20\n      add\n      swap1\n      tag_188\n      swap3\n      swap2\n      swap1\n      tag_189\n      jump\t// in\n    tag_188:\n      pop\n      pop\n      pop\n        /* \"Ehealth.sol\":5262:5263  _ */\n      pop\n        /* \"Ehealth.sol\":1017:1466  function addPasien(string memory _nik, string memory _nama, uint8 _umur, string memory _alamat) isRs public{\r... */\n      pop\n      pop\n      pop\n      pop\n      jump\t// out\n        /* \"Ehealth.sol\":2187:2731  function addInfoKesehatan (string memory _id, string memory _gulaDarah, string memory _tekananDarah, uint8 _bb, uint8 _tb) isRs public {\r... */\n    tag_44:\n        /* \"Ehealth.sol\":5240:5250  check_rs() */\n      tag_191\n        /* \"Ehealth.sol\":5240:5248  check_rs */\n      tag_15\n        /* \"Ehealth.sol\":5240:5250  check_rs() */\n      jump\t// in\n    tag_191:\n        /* \"Ehealth.sol\":5231:5251  require (check_rs()) */\n      tag_192\n      jumpi\n        /* \"--CODEGEN--\":12:13   */\n      0x00\n        /* \"--CODEGEN--\":9:10   */\n      dup1\n        /* \"--CODEGEN--\":2:14   */\n      revert\n        /* \"Ehealth.sol\":5231:5251  require (check_rs()) */\n    tag_192:\n        /* \"Ehealth.sol\":2337:2343  uint i */\n      0x00\n        /* \"Ehealth.sol\":2333:2724  for(uint i; i<pasienList.length; i++){\r... */\n    tag_194:\n        /* \"Ehealth.sol\":2347:2357  pasienList */\n      0x02\n        /* \"Ehealth.sol\":2347:2364  pasienList.length */\n      dup1\n      sload\n      swap1\n      pop\n        /* \"Ehealth.sol\":2345:2346  i */\n      dup2\n        /* \"Ehealth.sol\":2345:2364  i<pasienList.length */\n      lt\n        /* \"Ehealth.sol\":2333:2724  for(uint i; i<pasienList.length; i++){\r... */\n      iszero\n      tag_195\n      jumpi\n        /* \"Ehealth.sol\":2429:2439  pasienList */\n      0x02\n        /* \"Ehealth.sol\":2440:2441  i */\n      dup2\n        /* \"Ehealth.sol\":2429:2442  pasienList[i] */\n      dup2\n      sload\n      dup2\n      lt\n      tag_197\n      jumpi\n      invalid\n    tag_197:\n      swap1\n      0x00\n      mstore\n      keccak256(0x00, 0x20)\n      swap1\n      0x08\n      mul\n      add\n        /* \"Ehealth.sol\":2429:2446  pasienList[i].nik */\n      0x00\n      add\n        /* \"Ehealth.sol\":2413:2448  keccak256(bytes(pasienList[i].nik)) */\n      mload(0x40)\n      tag_199\n      swap2\n      swap1\n      jump(tag_74)\n    tag_199:\n      mload(0x40)\n      dup1\n      swap2\n      sub\n      swap1\n      keccak256\n        /* \"Ehealth.sol\":2404:2407  _id */\n      dup7\n        /* \"Ehealth.sol\":2388:2409  keccak256(bytes(_id)) */\n      dup1\n      mload\n      swap1\n      0x20\n      add\n      keccak256\n        /* \"Ehealth.sol\":2388:2448  keccak256(bytes(_id)) == keccak256(bytes(pasienList[i].nik)) */\n      eq\n        /* \"Ehealth.sol\":2385:2713  if(keccak256(bytes(_id)) == keccak256(bytes(pasienList[i].nik))){\r... */\n      iszero\n      tag_200\n      jumpi\n        /* \"Ehealth.sol\":2492:2502  _gulaDarah */\n      dup5\n        /* \"Ehealth.sol\":2468:2478  pasienList */\n      0x02\n        /* \"Ehealth.sol\":2479:2480  i */\n      dup3\n        /* \"Ehealth.sol\":2468:2481  pasienList[i] */\n      dup2\n      sload\n      dup2\n      lt\n      tag_201\n      jumpi\n      invalid\n    tag_201:\n      swap1\n      0x00\n      mstore\n      keccak256(0x00, 0x20)\n      swap1\n      0x08\n      mul\n      add\n        /* \"Ehealth.sol\":2468:2491  pasienList[i].gulaDarah */\n      0x04\n      add\n        /* \"Ehealth.sol\":2468:2502  pasienList[i].gulaDarah=_gulaDarah */\n      swap1\n      dup1\n      mload\n      swap1\n      0x20\n      add\n      swap1\n      tag_203\n      swap3\n      swap2\n      swap1\n      tag_163\n      jump\t// in\n    tag_203:\n      pop\n        /* \"Ehealth.sol\":2548:2561  _tekananDarah */\n      dup4\n        /* \"Ehealth.sol\":2521:2531  pasienList */\n      0x02\n        /* \"Ehealth.sol\":2532:2533  i */\n      dup3\n        /* \"Ehealth.sol\":2521:2534  pasienList[i] */\n      dup2\n      sload\n      dup2\n      lt\n      tag_204\n      jumpi\n      invalid\n    tag_204:\n      swap1\n      0x00\n      mstore\n      keccak256(0x00, 0x20)\n      swap1\n      0x08\n      mul\n      add\n        /* \"Ehealth.sol\":2521:2547  pasienList[i].tekananDarah */\n      0x05\n      add\n        /* \"Ehealth.sol\":2521:2561  pasienList[i].tekananDarah=_tekananDarah */\n      swap1\n      dup1\n      mload\n      swap1\n      0x20\n      add\n      swap1\n      tag_206\n      swap3\n      swap2\n      swap1\n      tag_163\n      jump\t// in\n    tag_206:\n      pop\n        /* \"Ehealth.sol\":2597:2600  _bb */\n      dup3\n        /* \"Ehealth.sol\":2580:2590  pasienList */\n      0x02\n        /* \"Ehealth.sol\":2591:2592  i */\n      dup3\n        /* \"Ehealth.sol\":2580:2593  pasienList[i] */\n      dup2\n      sload\n      dup2\n      lt\n      tag_207\n      jumpi\n      invalid\n    tag_207:\n      swap1\n      0x00\n      mstore\n      keccak256(0x00, 0x20)\n      swap1\n      0x08\n      mul\n      add\n        /* \"Ehealth.sol\":2580:2596  pasienList[i].bb */\n      0x06\n      add\n      0x01\n        /* \"Ehealth.sol\":2580:2600  pasienList[i].bb=_bb */\n      0x0100\n      exp\n      dup2\n      sload\n      dup2\n      0xff\n      mul\n      not\n      and\n      swap1\n      dup4\n      0xff\n      and\n      mul\n      or\n      swap1\n      sstore\n      pop\n        /* \"Ehealth.sol\":2636:2639  _tb */\n      dup2\n        /* \"Ehealth.sol\":2619:2629  pasienList */\n      0x02\n        /* \"Ehealth.sol\":2630:2631  i */\n      dup3\n        /* \"Ehealth.sol\":2619:2632  pasienList[i] */\n      dup2\n      sload\n      dup2\n      lt\n      tag_209\n      jumpi\n      invalid\n    tag_209:\n      swap1\n      0x00\n      mstore\n      keccak256(0x00, 0x20)\n      swap1\n      0x08\n      mul\n      add\n        /* \"Ehealth.sol\":2619:2635  pasienList[i].tb */\n      0x06\n      add\n      0x00\n        /* \"Ehealth.sol\":2619:2639  pasienList[i].tb=_tb */\n      0x0100\n      exp\n      dup2\n      sload\n      dup2\n      0xff\n      mul\n      not\n      and\n      swap1\n      dup4\n      0xff\n      and\n      mul\n      or\n      swap1\n      sstore\n      pop\n        /* \"Ehealth.sol\":2385:2713  if(keccak256(bytes(_id)) == keccak256(bytes(pasienList[i].nik))){\r... */\n      jump(tag_211)\n    tag_200:\n        /* \"Ehealth.sol\":2678:2697  revert(\"NIK Salah\") */\n      mload(0x40)\n      0x08c379a000000000000000000000000000000000000000000000000000000000\n      dup2\n      mstore\n      0x04\n      add\n      tag_212\n      swap1\n      jump(tag_213)\n    tag_212:\n      mload(0x40)\n      dup1\n      swap2\n      sub\n      swap1\n      revert\n        /* \"Ehealth.sol\":2385:2713  if(keccak256(bytes(_id)) == keccak256(bytes(pasienList[i].nik))){\r... */\n    tag_211:\n        /* \"Ehealth.sol\":2366:2369  i++ */\n      dup1\n      dup1\n      0x01\n      add\n      swap2\n      pop\n      pop\n        /* \"Ehealth.sol\":2333:2724  for(uint i; i<pasienList.length; i++){\r... */\n      jump(tag_194)\n    tag_195:\n      pop\n        /* \"Ehealth.sol\":2187:2731  function addInfoKesehatan (string memory _id, string memory _gulaDarah, string memory _tekananDarah, uint8 _bb, uint8 _tb) isRs public {\r... */\n      pop\n      pop\n      pop\n      pop\n      pop\n      jump\t// out\n        /* \"Ehealth.sol\":846:930  function getManager() public view returns(address) {\r... */\n    tag_46:\n        /* \"Ehealth.sol\":888:895  address */\n      0x00\n        /* \"Ehealth.sol\":915:922  manager */\n      dup1\n      0x00\n      swap1\n      sload\n      swap1\n      0x0100\n      exp\n      swap1\n      div\n      0xffffffffffffffffffffffffffffffffffffffff\n      and\n        /* \"Ehealth.sol\":908:922  return manager */\n      swap1\n      pop\n        /* \"Ehealth.sol\":846:930  function getManager() public view returns(address) {\r... */\n      swap1\n      jump\t// out\n        /* \"Ehealth.sol\":4126:4743  function getinfors(string memory _idRS) isManager public view returns(address, string memory, string memory, string memory){\r... */\n    tag_51:\n        /* \"Ehealth.sol\":4196:4203  address */\n      0x00\n        /* \"Ehealth.sol\":4205:4218  string memory */\n      0x60\n        /* \"Ehealth.sol\":4220:4233  string memory */\n      dup1\n        /* \"Ehealth.sol\":4235:4248  string memory */\n      0x60\n        /* \"Ehealth.sol\":5168:5178  msg.sender */\n      caller\n        /* \"Ehealth.sol\":5157:5178  manager == msg.sender */\n      0xffffffffffffffffffffffffffffffffffffffff\n      and\n        /* \"Ehealth.sol\":5157:5164  manager */\n      0x00\n      dup1\n      swap1\n      sload\n      swap1\n      0x0100\n      exp\n      swap1\n      div\n      0xffffffffffffffffffffffffffffffffffffffff\n      and\n        /* \"Ehealth.sol\":5157:5178  manager == msg.sender */\n      0xffffffffffffffffffffffffffffffffffffffff\n      and\n      eq\n        /* \"Ehealth.sol\":5148:5179  require (manager == msg.sender) */\n      tag_216\n      jumpi\n        /* \"--CODEGEN--\":12:13   */\n      0x00\n        /* \"--CODEGEN--\":9:10   */\n      dup1\n        /* \"--CODEGEN--\":2:14   */\n      revert\n        /* \"Ehealth.sol\":5148:5179  require (manager == msg.sender) */\n    tag_216:\n        /* \"Ehealth.sol\":4260:4279  address _ethaddress */\n      0x00\n        /* \"Ehealth.sol\":4290:4309  string memory _nama */\n      0x60\n        /* \"Ehealth.sol\":4320:4341  string memory _alamat */\n      dup1\n        /* \"Ehealth.sol\":4366:4372  uint i */\n      0x00\n        /* \"Ehealth.sol\":4375:4376  0 */\n      dup1\n        /* \"Ehealth.sol\":4366:4376  uint i = 0 */\n      swap1\n      pop\n        /* \"Ehealth.sol\":4362:4683  for(uint i = 0; i<rsList.length;i++){\r... */\n    tag_218:\n        /* \"Ehealth.sol\":4380:4386  rsList */\n      0x03\n        /* \"Ehealth.sol\":4380:4393  rsList.length */\n      dup1\n      sload\n      swap1\n      pop\n        /* \"Ehealth.sol\":4378:4379  i */\n      dup2\n        /* \"Ehealth.sol\":4378:4393  i<rsList.length */\n      lt\n        /* \"Ehealth.sol\":4362:4683  for(uint i = 0; i<rsList.length;i++){\r... */\n      iszero\n      tag_219\n      jumpi\n        /* \"Ehealth.sol\":4459:4465  rsList */\n      0x03\n        /* \"Ehealth.sol\":4466:4467  i */\n      dup2\n        /* \"Ehealth.sol\":4459:4468  rsList[i] */\n      dup2\n      sload\n      dup2\n      lt\n      tag_221\n      jumpi\n      invalid\n    tag_221:\n      swap1\n      0x00\n      mstore\n      keccak256(0x00, 0x20)\n      swap1\n      0x04\n      mul\n      add\n        /* \"Ehealth.sol\":4459:4473  rsList[i].idRS */\n      0x02\n      add\n        /* \"Ehealth.sol\":4443:4475  keccak256(bytes(rsList[i].idRS)) */\n      mload(0x40)\n      tag_223\n      swap2\n      swap1\n      jump(tag_74)\n    tag_223:\n      mload(0x40)\n      dup1\n      swap2\n      sub\n      swap1\n      keccak256\n        /* \"Ehealth.sol\":4432:4437  _idRS */\n      dup10\n        /* \"Ehealth.sol\":4416:4439  keccak256(bytes(_idRS)) */\n      dup1\n      mload\n      swap1\n      0x20\n      add\n      keccak256\n        /* \"Ehealth.sol\":4416:4475  keccak256(bytes(_idRS)) == keccak256(bytes(rsList[i].idRS)) */\n      eq\n        /* \"Ehealth.sol\":4413:4672  if(keccak256(bytes(_idRS)) == keccak256(bytes(rsList[i].idRS))){\r... */\n      iszero\n      tag_224\n      jumpi\n        /* \"Ehealth.sol\":4509:4515  rsList */\n      0x03\n        /* \"Ehealth.sol\":4516:4517  i */\n      dup2\n        /* \"Ehealth.sol\":4509:4518  rsList[i] */\n      dup2\n      sload\n      dup2\n      lt\n      tag_225\n      jumpi\n      invalid\n    tag_225:\n      swap1\n      0x00\n      mstore\n      keccak256(0x00, 0x20)\n      swap1\n      0x04\n      mul\n      add\n        /* \"Ehealth.sol\":4509:4529  rsList[i].ethaddress */\n      0x00\n      add\n      0x00\n      swap1\n      sload\n      swap1\n      0x0100\n      exp\n      swap1\n      div\n      0xffffffffffffffffffffffffffffffffffffffff\n      and\n        /* \"Ehealth.sol\":4495:4529  _ethaddress = rsList[i].ethaddress */\n      swap4\n      pop\n        /* \"Ehealth.sol\":4556:4562  rsList */\n      0x03\n        /* \"Ehealth.sol\":4563:4564  i */\n      dup2\n        /* \"Ehealth.sol\":4556:4565  rsList[i] */\n      dup2\n      sload\n      dup2\n      lt\n      tag_227\n      jumpi\n      invalid\n    tag_227:\n      swap1\n      0x00\n      mstore\n      keccak256(0x00, 0x20)\n      swap1\n      0x04\n      mul\n      add\n        /* \"Ehealth.sol\":4556:4570  rsList[i].nama */\n      0x01\n      add\n        /* \"Ehealth.sol\":4548:4570  _nama = rsList[i].nama */\n      dup1\n      sload\n      0x01\n      dup2\n      0x01\n      and\n      iszero\n      0x0100\n      mul\n      sub\n      and\n      0x02\n      swap1\n      div\n      dup1\n      0x1f\n      add\n      0x20\n      dup1\n      swap2\n      div\n      mul\n      0x20\n      add\n      mload(0x40)\n      swap1\n      dup2\n      add\n      0x40\n      mstore\n      dup1\n      swap3\n      swap2\n      swap1\n      dup2\n      dup2\n      mstore\n      0x20\n      add\n      dup3\n      dup1\n      sload\n      0x01\n      dup2\n      0x01\n      and\n      iszero\n      0x0100\n      mul\n      sub\n      and\n      0x02\n      swap1\n      div\n      dup1\n      iszero\n      tag_229\n      jumpi\n      dup1\n      0x1f\n      lt\n      tag_230\n      jumpi\n      0x0100\n      dup1\n      dup4\n      sload\n      div\n      mul\n      dup4\n      mstore\n      swap2\n      0x20\n      add\n      swap2\n      jump(tag_229)\n    tag_230:\n      dup3\n      add\n      swap2\n      swap1\n      0x00\n      mstore\n      keccak256(0x00, 0x20)\n      swap1\n    tag_231:\n      dup2\n      sload\n      dup2\n      mstore\n      swap1\n      0x01\n      add\n      swap1\n      0x20\n      add\n      dup1\n      dup4\n      gt\n      tag_231\n      jumpi\n      dup3\n      swap1\n      sub\n      0x1f\n      and\n      dup3\n      add\n      swap2\n    tag_229:\n      pop\n      pop\n      pop\n      pop\n      pop\n      swap3\n      pop\n        /* \"Ehealth.sol\":4597:4603  rsList */\n      0x03\n        /* \"Ehealth.sol\":4604:4605  i */\n      dup2\n        /* \"Ehealth.sol\":4597:4606  rsList[i] */\n      dup2\n      sload\n      dup2\n      lt\n      tag_232\n      jumpi\n      invalid\n    tag_232:\n      swap1\n      0x00\n      mstore\n      keccak256(0x00, 0x20)\n      swap1\n      0x04\n      mul\n      add\n        /* \"Ehealth.sol\":4597:4611  rsList[i].idRS */\n      0x02\n      add\n        /* \"Ehealth.sol\":4589:4611  _idRS = rsList[i].idRS */\n      dup1\n      sload\n      0x01\n      dup2\n      0x01\n      and\n      iszero\n      0x0100\n      mul\n      sub\n      and\n      0x02\n      swap1\n      div\n      dup1\n      0x1f\n      add\n      0x20\n      dup1\n      swap2\n      div\n      mul\n      0x20\n      add\n      mload(0x40)\n      swap1\n      dup2\n      add\n      0x40\n      mstore\n      dup1\n      swap3\n      swap2\n      swap1\n      dup2\n      dup2\n      mstore\n      0x20\n      add\n      dup3\n      dup1\n      sload\n      0x01\n      dup2\n      0x01\n      and\n      iszero\n      0x0100\n      mul\n      sub\n      and\n      0x02\n      swap1\n      div\n      dup1\n      iszero\n      tag_234\n      jumpi\n      dup1\n      0x1f\n      lt\n      tag_235\n      jumpi\n      0x0100\n      dup1\n      dup4\n      sload\n      div\n      mul\n      dup4\n      mstore\n      swap2\n      0x20\n      add\n      swap2\n      jump(tag_234)\n    tag_235:\n      dup3\n      add\n      swap2\n      swap1\n      0x00\n      mstore\n      keccak256(0x00, 0x20)\n      swap1\n    tag_236:\n      dup2\n      sload\n      dup2\n      mstore\n      swap1\n      0x01\n      add\n      swap1\n      0x20\n      add\n      dup1\n      dup4\n      gt\n      tag_236\n      jumpi\n      dup3\n      swap1\n      sub\n      0x1f\n      and\n      dup3\n      add\n      swap2\n    tag_234:\n      pop\n      pop\n      pop\n      pop\n      pop\n      swap9\n      pop\n        /* \"Ehealth.sol\":4640:4646  rsList */\n      0x03\n        /* \"Ehealth.sol\":4647:4648  i */\n      dup2\n        /* \"Ehealth.sol\":4640:4649  rsList[i] */\n      dup2\n      sload\n      dup2\n      lt\n      tag_237\n      jumpi\n      invalid\n    tag_237:\n      swap1\n      0x00\n      mstore\n      keccak256(0x00, 0x20)\n      swap1\n      0x04\n      mul\n      add\n        /* \"Ehealth.sol\":4640:4656  rsList[i].alamat */\n      0x03\n      add\n        /* \"Ehealth.sol\":4630:4656  _alamat = rsList[i].alamat */\n      dup1\n      sload\n      0x01\n      dup2\n      0x01\n      and\n      iszero\n      0x0100\n      mul\n      sub\n      and\n      0x02\n      swap1\n      div\n      dup1\n      0x1f\n      add\n      0x20\n      dup1\n      swap2\n      div\n      mul\n      0x20\n      add\n      mload(0x40)\n      swap1\n      dup2\n      add\n      0x40\n      mstore\n      dup1\n      swap3\n      swap2\n      swap1\n      dup2\n      dup2\n      mstore\n      0x20\n      add\n      dup3\n      dup1\n      sload\n      0x01\n      dup2\n      0x01\n      and\n      iszero\n      0x0100\n      mul\n      sub\n      and\n      0x02\n      swap1\n      div\n      dup1\n      iszero\n      tag_239\n      jumpi\n      dup1\n      0x1f\n      lt\n      tag_240\n      jumpi\n      0x0100\n      dup1\n      dup4\n      sload\n      div\n      mul\n      dup4\n      mstore\n      swap2\n      0x20\n      add\n      swap2\n      jump(tag_239)\n    tag_240:\n      dup3\n      add\n      swap2\n      swap1\n      0x00\n      mstore\n      keccak256(0x00, 0x20)\n      swap1\n    tag_241:\n      dup2\n      sload\n      dup2\n      mstore\n      swap1\n      0x01\n      add\n      swap1\n      0x20\n      add\n      dup1\n      dup4\n      gt\n      tag_241\n      jumpi\n      dup3\n      swap1\n      sub\n      0x1f\n      and\n      dup3\n      add\n      swap2\n    tag_239:\n      pop\n      pop\n      pop\n      pop\n      pop\n      swap2\n      pop\n        /* \"Ehealth.sol\":4413:4672  if(keccak256(bytes(_idRS)) == keccak256(bytes(rsList[i].idRS))){\r... */\n    tag_224:\n        /* \"Ehealth.sol\":4394:4397  i++ */\n      dup1\n      dup1\n      0x01\n      add\n      swap2\n      pop\n      pop\n        /* \"Ehealth.sol\":4362:4683  for(uint i = 0; i<rsList.length;i++){\r... */\n      jump(tag_218)\n    tag_219:\n      pop\n        /* \"Ehealth.sol\":4700:4711  _ethaddress */\n      dup3\n        /* \"Ehealth.sol\":4713:4718  _nama */\n      dup3\n        /* \"Ehealth.sol\":4720:4725  _idRS */\n      dup10\n        /* \"Ehealth.sol\":4727:4734  _alamat */\n      dup4\n        /* \"Ehealth.sol\":4693:4735  return(_ethaddress, _nama, _idRS, _alamat) */\n      swap7\n      pop\n      swap7\n      pop\n      swap7\n      pop\n      swap7\n      pop\n      pop\n      pop\n      pop\n        /* \"Ehealth.sol\":4126:4743  function getinfors(string memory _idRS) isManager public view returns(address, string memory, string memory, string memory){\r... */\n      swap2\n      swap4\n      pop\n      swap2\n      swap4\n      jump\t// out\n        /* \"Ehealth.sol\":4977:5109  function check_manager() public view returns(bool) {\r... */\n    tag_55:\n        /* \"Ehealth.sol\":5022:5026  bool */\n      0x00\n        /* \"Ehealth.sol\":5053:5063  msg.sender */\n      caller\n        /* \"Ehealth.sol\":5042:5063  manager == msg.sender */\n      0xffffffffffffffffffffffffffffffffffffffff\n      and\n        /* \"Ehealth.sol\":5042:5049  manager */\n      0x00\n      dup1\n      swap1\n      sload\n      swap1\n      0x0100\n      exp\n      swap1\n      div\n      0xffffffffffffffffffffffffffffffffffffffff\n      and\n        /* \"Ehealth.sol\":5042:5063  manager == msg.sender */\n      0xffffffffffffffffffffffffffffffffffffffff\n      and\n      eq\n        /* \"Ehealth.sol\":5039:5102  if(manager == msg.sender){\r... */\n      iszero\n      tag_243\n      jumpi\n        /* \"Ehealth.sol\":5086:5090  true */\n      0x01\n        /* \"Ehealth.sol\":5079:5090  return true */\n      swap1\n      pop\n      jump(tag_242)\n        /* \"Ehealth.sol\":5039:5102  if(manager == msg.sender){\r... */\n    tag_243:\n        /* \"Ehealth.sol\":4977:5109  function check_manager() public view returns(bool) {\r... */\n    tag_242:\n      swap1\n      jump\t// out\n        /* \"Ehealth.sol\":95:5274  contract Ehealth{\r... */\n    tag_163:\n      dup3\n      dup1\n      sload\n      0x01\n      dup2\n      0x01\n      and\n      iszero\n      0x0100\n      mul\n      sub\n      and\n      0x02\n      swap1\n      div\n      swap1\n      0x00\n      mstore\n      keccak256(0x00, 0x20)\n      swap1\n      0x1f\n      add\n      0x20\n      swap1\n      div\n      dup2\n      add\n      swap3\n      dup3\n      0x1f\n      lt\n      tag_245\n      jumpi\n      dup1\n      mload\n      not(0xff)\n      and\n      dup4\n      dup1\n      add\n      or\n      dup6\n      sstore\n      jump(tag_244)\n    tag_245:\n      dup3\n      dup1\n      add\n      0x01\n      add\n      dup6\n      sstore\n      dup3\n      iszero\n      tag_244\n      jumpi\n      swap2\n      dup3\n      add\n    tag_246:\n      dup3\n      dup2\n      gt\n      iszero\n      tag_247\n      jumpi\n      dup3\n      mload\n      dup3\n      sstore\n      swap2\n      0x20\n      add\n      swap2\n      swap1\n      0x01\n      add\n      swap1\n      jump(tag_246)\n    tag_247:\n    tag_244:\n      pop\n      swap1\n      pop\n      tag_248\n      swap2\n      swap1\n      tag_249\n      jump\t// in\n    tag_248:\n      pop\n      swap1\n      jump\t// out\n    tag_168:\n      mload(0x40)\n      dup1\n      0x80\n      add\n      0x40\n      mstore\n      dup1\n      and(0xffffffffffffffffffffffffffffffffffffffff, 0x00)\n      dup2\n      mstore\n      0x20\n      add\n      0x60\n      dup2\n      mstore\n      0x20\n      add\n      0x60\n      dup2\n      mstore\n      0x20\n      add\n      0x60\n      dup2\n      mstore\n      pop\n      swap1\n      jump\t// out\n    tag_178:\n      mload(0x40)\n      dup1\n      0x0120\n      add\n      0x40\n      mstore\n      dup1\n      0x60\n      dup2\n      mstore\n      0x20\n      add\n      0x60\n      dup2\n      mstore\n      0x20\n      add\n      and(0xff, 0x00)\n      dup2\n      mstore\n      0x20\n      add\n      0x60\n      dup2\n      mstore\n      0x20\n      add\n      0x60\n      dup2\n      mstore\n      0x20\n      add\n      0x60\n      dup2\n      mstore\n      0x20\n      add\n      and(0xff, 0x00)\n      dup2\n      mstore\n      0x20\n      add\n      and(0xff, 0x00)\n      dup2\n      mstore\n      0x20\n      add\n      0x60\n      dup2\n      mstore\n      pop\n      swap1\n      jump\t// out\n    tag_189:\n      dup3\n      dup1\n      sload\n      dup3\n      dup3\n      sstore\n      swap1\n      0x00\n      mstore\n      keccak256(0x00, 0x20)\n      swap1\n      dup2\n      add\n      swap3\n      dup3\n      iszero\n      tag_250\n      jumpi\n      swap2\n      0x20\n      mul\n      dup3\n      add\n    tag_251:\n      dup3\n      dup2\n      gt\n      iszero\n      tag_252\n      jumpi\n      dup3\n      mload\n      dup3\n      swap1\n      dup1\n      mload\n      swap1\n      0x20\n      add\n      swap1\n      tag_253\n      swap3\n      swap2\n      swap1\n      tag_163\n      jump\t// in\n    tag_253:\n      pop\n      swap2\n      0x20\n      add\n      swap2\n      swap1\n      0x01\n      add\n      swap1\n      jump(tag_251)\n    tag_252:\n    tag_250:\n      pop\n      swap1\n      pop\n      tag_254\n      swap2\n      swap1\n      tag_255\n      jump\t// in\n    tag_254:\n      pop\n      swap1\n      jump\t// out\n    tag_249:\n      tag_256\n      swap2\n      swap1\n    tag_257:\n      dup1\n      dup3\n      gt\n      iszero\n      tag_258\n      jumpi\n      0x00\n      dup2\n      0x00\n      swap1\n      sstore\n      pop\n      0x01\n      add\n      jump(tag_257)\n    tag_258:\n      pop\n      swap1\n      jump\n    tag_256:\n      swap1\n      jump\t// out\n    tag_255:\n      tag_259\n      swap2\n      swap1\n    tag_260:\n      dup1\n      dup3\n      gt\n      iszero\n      tag_261\n      jumpi\n      0x00\n      dup2\n      dup2\n      tag_262\n      swap2\n      swap1\n      tag_263\n      jump\t// in\n    tag_262:\n      pop\n      0x01\n      add\n      jump(tag_260)\n    tag_261:\n      pop\n      swap1\n      jump\n    tag_259:\n      swap1\n      jump\t// out\n    tag_263:\n      pop\n      dup1\n      sload\n      0x01\n      dup2\n      0x01\n      and\n      iszero\n      0x0100\n      mul\n      sub\n      and\n      0x02\n      swap1\n      div\n      0x00\n      dup3\n      sstore\n      dup1\n      0x1f\n      lt\n      tag_265\n      jumpi\n      pop\n      jump(tag_264)\n    tag_265:\n      0x1f\n      add\n      0x20\n      swap1\n      div\n      swap1\n      0x00\n      mstore\n      keccak256(0x00, 0x20)\n      swap1\n      dup2\n      add\n      swap1\n      tag_266\n      swap2\n      swap1\n      tag_249\n      jump\t// in\n    tag_266:\n    tag_264:\n      pop\n      jump\t// out\n        /* \"--CODEGEN--\":5:135   */\n    tag_268:\n      0x00\n        /* \"--CODEGEN--\":85:91   */\n      dup2\n        /* \"--CODEGEN--\":72:92   */\n      calldataload\n        /* \"--CODEGEN--\":63:92   */\n      swap1\n      pop\n        /* \"--CODEGEN--\":97:130   */\n      tag_270\n        /* \"--CODEGEN--\":124:129   */\n      dup2\n        /* \"--CODEGEN--\":97:130   */\n      jump(tag_271)\n    tag_270:\n        /* \"--CODEGEN--\":57:135   */\n      swap3\n      swap2\n      pop\n      pop\n      jump\n        /* \"--CODEGEN--\":143:585   */\n    tag_272:\n      0x00\n        /* \"--CODEGEN--\":245:248   */\n      dup3\n        /* \"--CODEGEN--\":238:242   */\n      0x1f\n        /* \"--CODEGEN--\":230:236   */\n      dup4\n        /* \"--CODEGEN--\":226:243   */\n      add\n        /* \"--CODEGEN--\":222:249   */\n      slt\n        /* \"--CODEGEN--\":212:214   */\n      tag_274\n      jumpi\n        /* \"--CODEGEN--\":263:264   */\n      0x00\n        /* \"--CODEGEN--\":260:261   */\n      dup1\n        /* \"--CODEGEN--\":253:265   */\n      revert\n        /* \"--CODEGEN--\":212:214   */\n    tag_274:\n        /* \"--CODEGEN--\":300:306   */\n      dup2\n        /* \"--CODEGEN--\":287:307   */\n      calldataload\n        /* \"--CODEGEN--\":322:387   */\n      tag_275\n        /* \"--CODEGEN--\":337:386   */\n      tag_276\n        /* \"--CODEGEN--\":379:385   */\n      dup3\n        /* \"--CODEGEN--\":337:386   */\n      jump(tag_277)\n    tag_276:\n        /* \"--CODEGEN--\":322:387   */\n      jump(tag_278)\n    tag_275:\n        /* \"--CODEGEN--\":313:387   */\n      swap2\n      pop\n        /* \"--CODEGEN--\":407:413   */\n      dup1\n        /* \"--CODEGEN--\":400:405   */\n      dup3\n        /* \"--CODEGEN--\":393:414   */\n      mstore\n        /* \"--CODEGEN--\":443:447   */\n      0x20\n        /* \"--CODEGEN--\":435:441   */\n      dup4\n        /* \"--CODEGEN--\":431:448   */\n      add\n        /* \"--CODEGEN--\":476:480   */\n      0x20\n        /* \"--CODEGEN--\":469:474   */\n      dup4\n        /* \"--CODEGEN--\":465:481   */\n      add\n        /* \"--CODEGEN--\":511:514   */\n      dup6\n        /* \"--CODEGEN--\":502:508   */\n      dup4\n        /* \"--CODEGEN--\":497:500   */\n      dup4\n        /* \"--CODEGEN--\":493:509   */\n      add\n        /* \"--CODEGEN--\":490:515   */\n      gt\n        /* \"--CODEGEN--\":487:489   */\n      iszero\n      tag_279\n      jumpi\n        /* \"--CODEGEN--\":528:529   */\n      0x00\n        /* \"--CODEGEN--\":525:526   */\n      dup1\n        /* \"--CODEGEN--\":518:530   */\n      revert\n        /* \"--CODEGEN--\":487:489   */\n    tag_279:\n        /* \"--CODEGEN--\":538:579   */\n      tag_280\n        /* \"--CODEGEN--\":572:578   */\n      dup4\n        /* \"--CODEGEN--\":567:570   */\n      dup3\n        /* \"--CODEGEN--\":562:565   */\n      dup5\n        /* \"--CODEGEN--\":538:579   */\n      jump(tag_281)\n    tag_280:\n        /* \"--CODEGEN--\":205:585   */\n      pop\n      pop\n      pop\n      swap3\n      swap2\n      pop\n      pop\n      jump\n        /* \"--CODEGEN--\":593:719   */\n    tag_282:\n      0x00\n        /* \"--CODEGEN--\":671:677   */\n      dup2\n        /* \"--CODEGEN--\":658:678   */\n      calldataload\n        /* \"--CODEGEN--\":649:678   */\n      swap1\n      pop\n        /* \"--CODEGEN--\":683:714   */\n      tag_284\n        /* \"--CODEGEN--\":708:713   */\n      dup2\n        /* \"--CODEGEN--\":683:714   */\n      jump(tag_285)\n    tag_284:\n        /* \"--CODEGEN--\":643:719   */\n      swap3\n      swap2\n      pop\n      pop\n      jump\n        /* \"--CODEGEN--\":726:1661   */\n    tag_35:\n      0x00\n      dup1\n      0x00\n      dup1\n        /* \"--CODEGEN--\":911:914   */\n      0x80\n        /* \"--CODEGEN--\":899:908   */\n      dup6\n        /* \"--CODEGEN--\":890:897   */\n      dup8\n        /* \"--CODEGEN--\":886:909   */\n      sub\n        /* \"--CODEGEN--\":882:915   */\n      slt\n        /* \"--CODEGEN--\":879:881   */\n      iszero\n      tag_287\n      jumpi\n        /* \"--CODEGEN--\":928:929   */\n      0x00\n        /* \"--CODEGEN--\":925:926   */\n      dup1\n        /* \"--CODEGEN--\":918:930   */\n      revert\n        /* \"--CODEGEN--\":879:881   */\n    tag_287:\n        /* \"--CODEGEN--\":963:964   */\n      0x00\n        /* \"--CODEGEN--\":980:1033   */\n      tag_288\n        /* \"--CODEGEN--\":1025:1032   */\n      dup8\n        /* \"--CODEGEN--\":1016:1022   */\n      dup3\n        /* \"--CODEGEN--\":1005:1014   */\n      dup9\n        /* \"--CODEGEN--\":1001:1023   */\n      add\n        /* \"--CODEGEN--\":980:1033   */\n      jump(tag_268)\n    tag_288:\n        /* \"--CODEGEN--\":970:1033   */\n      swap5\n      pop\n        /* \"--CODEGEN--\":942:1039   */\n      pop\n        /* \"--CODEGEN--\":1098:1100   */\n      0x20\n        /* \"--CODEGEN--\":1087:1096   */\n      dup6\n        /* \"--CODEGEN--\":1083:1101   */\n      add\n        /* \"--CODEGEN--\":1070:1102   */\n      calldataload\n        /* \"--CODEGEN--\":1122:1140   */\n      0xffffffffffffffff\n        /* \"--CODEGEN--\":1114:1120   */\n      dup2\n        /* \"--CODEGEN--\":1111:1141   */\n      gt\n        /* \"--CODEGEN--\":1108:1110   */\n      iszero\n      tag_289\n      jumpi\n        /* \"--CODEGEN--\":1154:1155   */\n      0x00\n        /* \"--CODEGEN--\":1151:1152   */\n      dup1\n        /* \"--CODEGEN--\":1144:1156   */\n      revert\n        /* \"--CODEGEN--\":1108:1110   */\n    tag_289:\n        /* \"--CODEGEN--\":1174:1237   */\n      tag_290\n        /* \"--CODEGEN--\":1229:1236   */\n      dup8\n        /* \"--CODEGEN--\":1220:1226   */\n      dup3\n        /* \"--CODEGEN--\":1209:1218   */\n      dup9\n        /* \"--CODEGEN--\":1205:1227   */\n      add\n        /* \"--CODEGEN--\":1174:1237   */\n      jump(tag_272)\n    tag_290:\n        /* \"--CODEGEN--\":1164:1237   */\n      swap4\n      pop\n        /* \"--CODEGEN--\":1049:1243   */\n      pop\n        /* \"--CODEGEN--\":1302:1304   */\n      0x40\n        /* \"--CODEGEN--\":1291:1300   */\n      dup6\n        /* \"--CODEGEN--\":1287:1305   */\n      add\n        /* \"--CODEGEN--\":1274:1306   */\n      calldataload\n        /* \"--CODEGEN--\":1326:1344   */\n      0xffffffffffffffff\n        /* \"--CODEGEN--\":1318:1324   */\n      dup2\n        /* \"--CODEGEN--\":1315:1345   */\n      gt\n        /* \"--CODEGEN--\":1312:1314   */\n      iszero\n      tag_291\n      jumpi\n        /* \"--CODEGEN--\":1358:1359   */\n      0x00\n        /* \"--CODEGEN--\":1355:1356   */\n      dup1\n        /* \"--CODEGEN--\":1348:1360   */\n      revert\n        /* \"--CODEGEN--\":1312:1314   */\n    tag_291:\n        /* \"--CODEGEN--\":1378:1441   */\n      tag_292\n        /* \"--CODEGEN--\":1433:1440   */\n      dup8\n        /* \"--CODEGEN--\":1424:1430   */\n      dup3\n        /* \"--CODEGEN--\":1413:1422   */\n      dup9\n        /* \"--CODEGEN--\":1409:1431   */\n      add\n        /* \"--CODEGEN--\":1378:1441   */\n      jump(tag_272)\n    tag_292:\n        /* \"--CODEGEN--\":1368:1441   */\n      swap3\n      pop\n        /* \"--CODEGEN--\":1253:1447   */\n      pop\n        /* \"--CODEGEN--\":1506:1508   */\n      0x60\n        /* \"--CODEGEN--\":1495:1504   */\n      dup6\n        /* \"--CODEGEN--\":1491:1509   */\n      add\n        /* \"--CODEGEN--\":1478:1510   */\n      calldataload\n        /* \"--CODEGEN--\":1530:1548   */\n      0xffffffffffffffff\n        /* \"--CODEGEN--\":1522:1528   */\n      dup2\n        /* \"--CODEGEN--\":1519:1549   */\n      gt\n        /* \"--CODEGEN--\":1516:1518   */\n      iszero\n      tag_293\n      jumpi\n        /* \"--CODEGEN--\":1562:1563   */\n      0x00\n        /* \"--CODEGEN--\":1559:1560   */\n      dup1\n        /* \"--CODEGEN--\":1552:1564   */\n      revert\n        /* \"--CODEGEN--\":1516:1518   */\n    tag_293:\n        /* \"--CODEGEN--\":1582:1645   */\n      tag_294\n        /* \"--CODEGEN--\":1637:1644   */\n      dup8\n        /* \"--CODEGEN--\":1628:1634   */\n      dup3\n        /* \"--CODEGEN--\":1617:1626   */\n      dup9\n        /* \"--CODEGEN--\":1613:1635   */\n      add\n        /* \"--CODEGEN--\":1582:1645   */\n      jump(tag_272)\n    tag_294:\n        /* \"--CODEGEN--\":1572:1645   */\n      swap2\n      pop\n        /* \"--CODEGEN--\":1457:1651   */\n      pop\n        /* \"--CODEGEN--\":873:1661   */\n      swap3\n      swap6\n      swap2\n      swap5\n      pop\n      swap3\n      pop\n      jump\n        /* \"--CODEGEN--\":1668:2015   */\n    tag_20:\n      0x00\n        /* \"--CODEGEN--\":1782:1784   */\n      0x20\n        /* \"--CODEGEN--\":1770:1779   */\n      dup3\n        /* \"--CODEGEN--\":1761:1768   */\n      dup5\n        /* \"--CODEGEN--\":1757:1780   */\n      sub\n        /* \"--CODEGEN--\":1753:1785   */\n      slt\n        /* \"--CODEGEN--\":1750:1752   */\n      iszero\n      tag_296\n      jumpi\n        /* \"--CODEGEN--\":1798:1799   */\n      0x00\n        /* \"--CODEGEN--\":1795:1796   */\n      dup1\n        /* \"--CODEGEN--\":1788:1800   */\n      revert\n        /* \"--CODEGEN--\":1750:1752   */\n    tag_296:\n        /* \"--CODEGEN--\":1861:1862   */\n      0x00\n        /* \"--CODEGEN--\":1850:1859   */\n      dup3\n        /* \"--CODEGEN--\":1846:1863   */\n      add\n        /* \"--CODEGEN--\":1833:1864   */\n      calldataload\n        /* \"--CODEGEN--\":1884:1902   */\n      0xffffffffffffffff\n        /* \"--CODEGEN--\":1876:1882   */\n      dup2\n        /* \"--CODEGEN--\":1873:1903   */\n      gt\n        /* \"--CODEGEN--\":1870:1872   */\n      iszero\n      tag_297\n      jumpi\n        /* \"--CODEGEN--\":1916:1917   */\n      0x00\n        /* \"--CODEGEN--\":1913:1914   */\n      dup1\n        /* \"--CODEGEN--\":1906:1918   */\n      revert\n        /* \"--CODEGEN--\":1870:1872   */\n    tag_297:\n        /* \"--CODEGEN--\":1936:1999   */\n      tag_298\n        /* \"--CODEGEN--\":1991:1998   */\n      dup5\n        /* \"--CODEGEN--\":1982:1988   */\n      dup3\n        /* \"--CODEGEN--\":1971:1980   */\n      dup6\n        /* \"--CODEGEN--\":1967:1989   */\n      add\n        /* \"--CODEGEN--\":1936:1999   */\n      jump(tag_272)\n    tag_298:\n        /* \"--CODEGEN--\":1926:1999   */\n      swap2\n      pop\n        /* \"--CODEGEN--\":1812:2005   */\n      pop\n        /* \"--CODEGEN--\":1744:2015   */\n      swap3\n      swap2\n      pop\n      pop\n      jump\n        /* \"--CODEGEN--\":2022:2600   */\n    tag_31:\n      0x00\n      dup1\n        /* \"--CODEGEN--\":2163:2165   */\n      0x40\n        /* \"--CODEGEN--\":2151:2160   */\n      dup4\n        /* \"--CODEGEN--\":2142:2149   */\n      dup6\n        /* \"--CODEGEN--\":2138:2161   */\n      sub\n        /* \"--CODEGEN--\":2134:2166   */\n      slt\n        /* \"--CODEGEN--\":2131:2133   */\n      iszero\n      tag_300\n      jumpi\n        /* \"--CODEGEN--\":2179:2180   */\n      0x00\n        /* \"--CODEGEN--\":2176:2177   */\n      dup1\n        /* \"--CODEGEN--\":2169:2181   */\n      revert\n        /* \"--CODEGEN--\":2131:2133   */\n    tag_300:\n        /* \"--CODEGEN--\":2242:2243   */\n      0x00\n        /* \"--CODEGEN--\":2231:2240   */\n      dup4\n        /* \"--CODEGEN--\":2227:2244   */\n      add\n        /* \"--CODEGEN--\":2214:2245   */\n      calldataload\n        /* \"--CODEGEN--\":2265:2283   */\n      0xffffffffffffffff\n        /* \"--CODEGEN--\":2257:2263   */\n      dup2\n        /* \"--CODEGEN--\":2254:2284   */\n      gt\n        /* \"--CODEGEN--\":2251:2253   */\n      iszero\n      tag_301\n      jumpi\n        /* \"--CODEGEN--\":2297:2298   */\n      0x00\n        /* \"--CODEGEN--\":2294:2295   */\n      dup1\n        /* \"--CODEGEN--\":2287:2299   */\n      revert\n        /* \"--CODEGEN--\":2251:2253   */\n    tag_301:\n        /* \"--CODEGEN--\":2317:2380   */\n      tag_302\n        /* \"--CODEGEN--\":2372:2379   */\n      dup6\n        /* \"--CODEGEN--\":2363:2369   */\n      dup3\n        /* \"--CODEGEN--\":2352:2361   */\n      dup7\n        /* \"--CODEGEN--\":2348:2370   */\n      add\n        /* \"--CODEGEN--\":2317:2380   */\n      jump(tag_272)\n    tag_302:\n        /* \"--CODEGEN--\":2307:2380   */\n      swap3\n      pop\n        /* \"--CODEGEN--\":2193:2386   */\n      pop\n        /* \"--CODEGEN--\":2445:2447   */\n      0x20\n        /* \"--CODEGEN--\":2434:2443   */\n      dup4\n        /* \"--CODEGEN--\":2430:2448   */\n      add\n        /* \"--CODEGEN--\":2417:2449   */\n      calldataload\n        /* \"--CODEGEN--\":2469:2487   */\n      0xffffffffffffffff\n        /* \"--CODEGEN--\":2461:2467   */\n      dup2\n        /* \"--CODEGEN--\":2458:2488   */\n      gt\n        /* \"--CODEGEN--\":2455:2457   */\n      iszero\n      tag_303\n      jumpi\n        /* \"--CODEGEN--\":2501:2502   */\n      0x00\n        /* \"--CODEGEN--\":2498:2499   */\n      dup1\n        /* \"--CODEGEN--\":2491:2503   */\n      revert\n        /* \"--CODEGEN--\":2455:2457   */\n    tag_303:\n        /* \"--CODEGEN--\":2521:2584   */\n      tag_304\n        /* \"--CODEGEN--\":2576:2583   */\n      dup6\n        /* \"--CODEGEN--\":2567:2573   */\n      dup3\n        /* \"--CODEGEN--\":2556:2565   */\n      dup7\n        /* \"--CODEGEN--\":2552:2574   */\n      add\n        /* \"--CODEGEN--\":2521:2584   */\n      jump(tag_272)\n    tag_304:\n        /* \"--CODEGEN--\":2511:2584   */\n      swap2\n      pop\n        /* \"--CODEGEN--\":2396:2590   */\n      pop\n        /* \"--CODEGEN--\":2125:2600   */\n      swap3\n      pop\n      swap3\n      swap1\n      pop\n      jump\n        /* \"--CODEGEN--\":2607:3660   */\n    tag_43:\n      0x00\n      dup1\n      0x00\n      dup1\n      0x00\n        /* \"--CODEGEN--\":2805:2808   */\n      0xa0\n        /* \"--CODEGEN--\":2793:2802   */\n      dup7\n        /* \"--CODEGEN--\":2784:2791   */\n      dup9\n        /* \"--CODEGEN--\":2780:2803   */\n      sub\n        /* \"--CODEGEN--\":2776:2809   */\n      slt\n        /* \"--CODEGEN--\":2773:2775   */\n      iszero\n      tag_306\n      jumpi\n        /* \"--CODEGEN--\":2822:2823   */\n      0x00\n        /* \"--CODEGEN--\":2819:2820   */\n      dup1\n        /* \"--CODEGEN--\":2812:2824   */\n      revert\n        /* \"--CODEGEN--\":2773:2775   */\n    tag_306:\n        /* \"--CODEGEN--\":2885:2886   */\n      0x00\n        /* \"--CODEGEN--\":2874:2883   */\n      dup7\n        /* \"--CODEGEN--\":2870:2887   */\n      add\n        /* \"--CODEGEN--\":2857:2888   */\n      calldataload\n        /* \"--CODEGEN--\":2908:2926   */\n      0xffffffffffffffff\n        /* \"--CODEGEN--\":2900:2906   */\n      dup2\n        /* \"--CODEGEN--\":2897:2927   */\n      gt\n        /* \"--CODEGEN--\":2894:2896   */\n      iszero\n      tag_307\n      jumpi\n        /* \"--CODEGEN--\":2940:2941   */\n      0x00\n        /* \"--CODEGEN--\":2937:2938   */\n      dup1\n        /* \"--CODEGEN--\":2930:2942   */\n      revert\n        /* \"--CODEGEN--\":2894:2896   */\n    tag_307:\n        /* \"--CODEGEN--\":2960:3023   */\n      tag_308\n        /* \"--CODEGEN--\":3015:3022   */\n      dup9\n        /* \"--CODEGEN--\":3006:3012   */\n      dup3\n        /* \"--CODEGEN--\":2995:3004   */\n      dup10\n        /* \"--CODEGEN--\":2991:3013   */\n      add\n        /* \"--CODEGEN--\":2960:3023   */\n      jump(tag_272)\n    tag_308:\n        /* \"--CODEGEN--\":2950:3023   */\n      swap6\n      pop\n        /* \"--CODEGEN--\":2836:3029   */\n      pop\n        /* \"--CODEGEN--\":3088:3090   */\n      0x20\n        /* \"--CODEGEN--\":3077:3086   */\n      dup7\n        /* \"--CODEGEN--\":3073:3091   */\n      add\n        /* \"--CODEGEN--\":3060:3092   */\n      calldataload\n        /* \"--CODEGEN--\":3112:3130   */\n      0xffffffffffffffff\n        /* \"--CODEGEN--\":3104:3110   */\n      dup2\n        /* \"--CODEGEN--\":3101:3131   */\n      gt\n        /* \"--CODEGEN--\":3098:3100   */\n      iszero\n      tag_309\n      jumpi\n        /* \"--CODEGEN--\":3144:3145   */\n      0x00\n        /* \"--CODEGEN--\":3141:3142   */\n      dup1\n        /* \"--CODEGEN--\":3134:3146   */\n      revert\n        /* \"--CODEGEN--\":3098:3100   */\n    tag_309:\n        /* \"--CODEGEN--\":3164:3227   */\n      tag_310\n        /* \"--CODEGEN--\":3219:3226   */\n      dup9\n        /* \"--CODEGEN--\":3210:3216   */\n      dup3\n        /* \"--CODEGEN--\":3199:3208   */\n      dup10\n        /* \"--CODEGEN--\":3195:3217   */\n      add\n        /* \"--CODEGEN--\":3164:3227   */\n      jump(tag_272)\n    tag_310:\n        /* \"--CODEGEN--\":3154:3227   */\n      swap5\n      pop\n        /* \"--CODEGEN--\":3039:3233   */\n      pop\n        /* \"--CODEGEN--\":3292:3294   */\n      0x40\n        /* \"--CODEGEN--\":3281:3290   */\n      dup7\n        /* \"--CODEGEN--\":3277:3295   */\n      add\n        /* \"--CODEGEN--\":3264:3296   */\n      calldataload\n        /* \"--CODEGEN--\":3316:3334   */\n      0xffffffffffffffff\n        /* \"--CODEGEN--\":3308:3314   */\n      dup2\n        /* \"--CODEGEN--\":3305:3335   */\n      gt\n        /* \"--CODEGEN--\":3302:3304   */\n      iszero\n      tag_311\n      jumpi\n        /* \"--CODEGEN--\":3348:3349   */\n      0x00\n        /* \"--CODEGEN--\":3345:3346   */\n      dup1\n        /* \"--CODEGEN--\":3338:3350   */\n      revert\n        /* \"--CODEGEN--\":3302:3304   */\n    tag_311:\n        /* \"--CODEGEN--\":3368:3431   */\n      tag_312\n        /* \"--CODEGEN--\":3423:3430   */\n      dup9\n        /* \"--CODEGEN--\":3414:3420   */\n      dup3\n        /* \"--CODEGEN--\":3403:3412   */\n      dup10\n        /* \"--CODEGEN--\":3399:3421   */\n      add\n        /* \"--CODEGEN--\":3368:3431   */\n      jump(tag_272)\n    tag_312:\n        /* \"--CODEGEN--\":3358:3431   */\n      swap4\n      pop\n        /* \"--CODEGEN--\":3243:3437   */\n      pop\n        /* \"--CODEGEN--\":3468:3470   */\n      0x60\n        /* \"--CODEGEN--\":3486:3537   */\n      tag_313\n        /* \"--CODEGEN--\":3529:3536   */\n      dup9\n        /* \"--CODEGEN--\":3520:3526   */\n      dup3\n        /* \"--CODEGEN--\":3509:3518   */\n      dup10\n        /* \"--CODEGEN--\":3505:3527   */\n      add\n        /* \"--CODEGEN--\":3486:3537   */\n      jump(tag_282)\n    tag_313:\n        /* \"--CODEGEN--\":3476:3537   */\n      swap3\n      pop\n        /* \"--CODEGEN--\":3447:3543   */\n      pop\n        /* \"--CODEGEN--\":3574:3577   */\n      0x80\n        /* \"--CODEGEN--\":3593:3644   */\n      tag_314\n        /* \"--CODEGEN--\":3636:3643   */\n      dup9\n        /* \"--CODEGEN--\":3627:3633   */\n      dup3\n        /* \"--CODEGEN--\":3616:3625   */\n      dup10\n        /* \"--CODEGEN--\":3612:3634   */\n      add\n        /* \"--CODEGEN--\":3593:3644   */\n      jump(tag_282)\n    tag_314:\n        /* \"--CODEGEN--\":3583:3644   */\n      swap2\n      pop\n        /* \"--CODEGEN--\":3553:3650   */\n      pop\n        /* \"--CODEGEN--\":2767:3660   */\n      swap3\n      swap6\n      pop\n      swap3\n      swap6\n      swap1\n      swap4\n      pop\n      jump\n        /* \"--CODEGEN--\":3667:4598   */\n    tag_39:\n      0x00\n      dup1\n      0x00\n      dup1\n        /* \"--CODEGEN--\":3850:3853   */\n      0x80\n        /* \"--CODEGEN--\":3838:3847   */\n      dup6\n        /* \"--CODEGEN--\":3829:3836   */\n      dup8\n        /* \"--CODEGEN--\":3825:3848   */\n      sub\n        /* \"--CODEGEN--\":3821:3854   */\n      slt\n        /* \"--CODEGEN--\":3818:3820   */\n      iszero\n      tag_316\n      jumpi\n        /* \"--CODEGEN--\":3867:3868   */\n      0x00\n        /* \"--CODEGEN--\":3864:3865   */\n      dup1\n        /* \"--CODEGEN--\":3857:3869   */\n      revert\n        /* \"--CODEGEN--\":3818:3820   */\n    tag_316:\n        /* \"--CODEGEN--\":3930:3931   */\n      0x00\n        /* \"--CODEGEN--\":3919:3928   */\n      dup6\n        /* \"--CODEGEN--\":3915:3932   */\n      add\n        /* \"--CODEGEN--\":3902:3933   */\n      calldataload\n        /* \"--CODEGEN--\":3953:3971   */\n      0xffffffffffffffff\n        /* \"--CODEGEN--\":3945:3951   */\n      dup2\n        /* \"--CODEGEN--\":3942:3972   */\n      gt\n        /* \"--CODEGEN--\":3939:3941   */\n      iszero\n      tag_317\n      jumpi\n        /* \"--CODEGEN--\":3985:3986   */\n      0x00\n        /* \"--CODEGEN--\":3982:3983   */\n      dup1\n        /* \"--CODEGEN--\":3975:3987   */\n      revert\n        /* \"--CODEGEN--\":3939:3941   */\n    tag_317:\n        /* \"--CODEGEN--\":4005:4068   */\n      tag_318\n        /* \"--CODEGEN--\":4060:4067   */\n      dup8\n        /* \"--CODEGEN--\":4051:4057   */\n      dup3\n        /* \"--CODEGEN--\":4040:4049   */\n      dup9\n        /* \"--CODEGEN--\":4036:4058   */\n      add\n        /* \"--CODEGEN--\":4005:4068   */\n      jump(tag_272)\n    tag_318:\n        /* \"--CODEGEN--\":3995:4068   */\n      swap5\n      pop\n        /* \"--CODEGEN--\":3881:4074   */\n      pop\n        /* \"--CODEGEN--\":4133:4135   */\n      0x20\n        /* \"--CODEGEN--\":4122:4131   */\n      dup6\n        /* \"--CODEGEN--\":4118:4136   */\n      add\n        /* \"--CODEGEN--\":4105:4137   */\n      calldataload\n        /* \"--CODEGEN--\":4157:4175   */\n      0xffffffffffffffff\n        /* \"--CODEGEN--\":4149:4155   */\n      dup2\n        /* \"--CODEGEN--\":4146:4176   */\n      gt\n        /* \"--CODEGEN--\":4143:4145   */\n      iszero\n      tag_319\n      jumpi\n        /* \"--CODEGEN--\":4189:4190   */\n      0x00\n        /* \"--CODEGEN--\":4186:4187   */\n      dup1\n        /* \"--CODEGEN--\":4179:4191   */\n      revert\n        /* \"--CODEGEN--\":4143:4145   */\n    tag_319:\n        /* \"--CODEGEN--\":4209:4272   */\n      tag_320\n        /* \"--CODEGEN--\":4264:4271   */\n      dup8\n        /* \"--CODEGEN--\":4255:4261   */\n      dup3\n        /* \"--CODEGEN--\":4244:4253   */\n      dup9\n        /* \"--CODEGEN--\":4240:4262   */\n      add\n        /* \"--CODEGEN--\":4209:4272   */\n      jump(tag_272)\n    tag_320:\n        /* \"--CODEGEN--\":4199:4272   */\n      swap4\n      pop\n        /* \"--CODEGEN--\":4084:4278   */\n      pop\n        /* \"--CODEGEN--\":4309:4311   */\n      0x40\n        /* \"--CODEGEN--\":4327:4378   */\n      tag_321\n        /* \"--CODEGEN--\":4370:4377   */\n      dup8\n        /* \"--CODEGEN--\":4361:4367   */\n      dup3\n        /* \"--CODEGEN--\":4350:4359   */\n      dup9\n        /* \"--CODEGEN--\":4346:4368   */\n      add\n        /* \"--CODEGEN--\":4327:4378   */\n      jump(tag_282)\n    tag_321:\n        /* \"--CODEGEN--\":4317:4378   */\n      swap3\n      pop\n        /* \"--CODEGEN--\":4288:4384   */\n      pop\n        /* \"--CODEGEN--\":4443:4445   */\n      0x60\n        /* \"--CODEGEN--\":4432:4441   */\n      dup6\n        /* \"--CODEGEN--\":4428:4446   */\n      add\n        /* \"--CODEGEN--\":4415:4447   */\n      calldataload\n        /* \"--CODEGEN--\":4467:4485   */\n      0xffffffffffffffff\n        /* \"--CODEGEN--\":4459:4465   */\n      dup2\n        /* \"--CODEGEN--\":4456:4486   */\n      gt\n        /* \"--CODEGEN--\":4453:4455   */\n      iszero\n      tag_322\n      jumpi\n        /* \"--CODEGEN--\":4499:4500   */\n      0x00\n        /* \"--CODEGEN--\":4496:4497   */\n      dup1\n        /* \"--CODEGEN--\":4489:4501   */\n      revert\n        /* \"--CODEGEN--\":4453:4455   */\n    tag_322:\n        /* \"--CODEGEN--\":4519:4582   */\n      tag_323\n        /* \"--CODEGEN--\":4574:4581   */\n      dup8\n        /* \"--CODEGEN--\":4565:4571   */\n      dup3\n        /* \"--CODEGEN--\":4554:4563   */\n      dup9\n        /* \"--CODEGEN--\":4550:4572   */\n      add\n        /* \"--CODEGEN--\":4519:4582   */\n      jump(tag_272)\n    tag_323:\n        /* \"--CODEGEN--\":4509:4582   */\n      swap2\n      pop\n        /* \"--CODEGEN--\":4394:4588   */\n      pop\n        /* \"--CODEGEN--\":3812:4598   */\n      swap3\n      swap6\n      swap2\n      swap5\n      pop\n      swap3\n      pop\n      jump\n        /* \"--CODEGEN--\":4606:4799   */\n    tag_324:\n      0x00\n        /* \"--CODEGEN--\":4727:4793   */\n      tag_326\n        /* \"--CODEGEN--\":4789:4792   */\n      dup4\n        /* \"--CODEGEN--\":4781:4787   */\n      dup4\n        /* \"--CODEGEN--\":4727:4793   */\n      jump(tag_327)\n    tag_326:\n        /* \"--CODEGEN--\":4713:4793   */\n      swap1\n      pop\n        /* \"--CODEGEN--\":4706:4799   */\n      swap3\n      swap2\n      pop\n      pop\n      jump\n        /* \"--CODEGEN--\":4807:4920   */\n    tag_328:\n        /* \"--CODEGEN--\":4890:4914   */\n      tag_330\n        /* \"--CODEGEN--\":4908:4913   */\n      dup2\n        /* \"--CODEGEN--\":4890:4914   */\n      jump(tag_331)\n    tag_330:\n        /* \"--CODEGEN--\":4885:4888   */\n      dup3\n        /* \"--CODEGEN--\":4878:4915   */\n      mstore\n        /* \"--CODEGEN--\":4872:4920   */\n      pop\n      pop\n      jump\n        /* \"--CODEGEN--\":4956:5884   */\n    tag_332:\n      0x00\n        /* \"--CODEGEN--\":5121:5185   */\n      tag_334\n        /* \"--CODEGEN--\":5179:5184   */\n      dup3\n        /* \"--CODEGEN--\":5121:5185   */\n      jump(tag_335)\n    tag_334:\n        /* \"--CODEGEN--\":5198:5294   */\n      tag_336\n        /* \"--CODEGEN--\":5287:5293   */\n      dup2\n        /* \"--CODEGEN--\":5282:5285   */\n      dup6\n        /* \"--CODEGEN--\":5198:5294   */\n      jump(tag_337)\n    tag_336:\n        /* \"--CODEGEN--\":5191:5294   */\n      swap4\n      pop\n        /* \"--CODEGEN--\":5317:5320   */\n      dup4\n        /* \"--CODEGEN--\":5359:5363   */\n      0x20\n        /* \"--CODEGEN--\":5351:5357   */\n      dup3\n        /* \"--CODEGEN--\":5347:5364   */\n      mul\n        /* \"--CODEGEN--\":5342:5345   */\n      dup6\n        /* \"--CODEGEN--\":5338:5365   */\n      add\n        /* \"--CODEGEN--\":5386:5452   */\n      tag_338\n        /* \"--CODEGEN--\":5446:5451   */\n      dup6\n        /* \"--CODEGEN--\":5386:5452   */\n      jump(tag_339)\n    tag_338:\n        /* \"--CODEGEN--\":5472:5479   */\n      dup1\n        /* \"--CODEGEN--\":5500:5501   */\n      0x00\n        /* \"--CODEGEN--\":5485:5845   */\n    tag_340:\n        /* \"--CODEGEN--\":5510:5516   */\n      dup6\n        /* \"--CODEGEN--\":5507:5508   */\n      dup2\n        /* \"--CODEGEN--\":5504:5517   */\n      lt\n        /* \"--CODEGEN--\":5485:5845   */\n      iszero\n      tag_342\n      jumpi\n        /* \"--CODEGEN--\":5572:5581   */\n      dup5\n        /* \"--CODEGEN--\":5566:5570   */\n      dup5\n        /* \"--CODEGEN--\":5562:5582   */\n      sub\n        /* \"--CODEGEN--\":5557:5560   */\n      dup10\n        /* \"--CODEGEN--\":5550:5583   */\n      mstore\n        /* \"--CODEGEN--\":5617:5623   */\n      dup2\n        /* \"--CODEGEN--\":5611:5624   */\n      mload\n        /* \"--CODEGEN--\":5639:5723   */\n      tag_343\n        /* \"--CODEGEN--\":5718:5722   */\n      dup6\n        /* \"--CODEGEN--\":5703:5716   */\n      dup3\n        /* \"--CODEGEN--\":5639:5723   */\n      jump(tag_324)\n    tag_343:\n        /* \"--CODEGEN--\":5631:5723   */\n      swap5\n      pop\n        /* \"--CODEGEN--\":5740:5810   */\n      tag_344\n        /* \"--CODEGEN--\":5803:5809   */\n      dup4\n        /* \"--CODEGEN--\":5740:5810   */\n      jump(tag_345)\n    tag_344:\n        /* \"--CODEGEN--\":5730:5810   */\n      swap3\n      pop\n        /* \"--CODEGEN--\":5833:5837   */\n      0x20\n        /* \"--CODEGEN--\":5828:5831   */\n      dup11\n        /* \"--CODEGEN--\":5824:5838   */\n      add\n        /* \"--CODEGEN--\":5817:5838   */\n      swap10\n      pop\n        /* \"--CODEGEN--\":5542:5845   */\n      pop\n        /* \"--CODEGEN--\":5532:5533   */\n      0x01\n        /* \"--CODEGEN--\":5529:5530   */\n      dup2\n        /* \"--CODEGEN--\":5525:5534   */\n      add\n        /* \"--CODEGEN--\":5520:5534   */\n      swap1\n      pop\n        /* \"--CODEGEN--\":5485:5845   */\n      jump(tag_340)\n    tag_342:\n        /* \"--CODEGEN--\":5489:5503   */\n      pop\n        /* \"--CODEGEN--\":5858:5862   */\n      dup3\n        /* \"--CODEGEN--\":5851:5862   */\n      swap8\n      pop\n        /* \"--CODEGEN--\":5875:5878   */\n      dup8\n        /* \"--CODEGEN--\":5868:5878   */\n      swap6\n      pop\n        /* \"--CODEGEN--\":5100:5884   */\n      pop\n      pop\n      pop\n      pop\n      pop\n      swap3\n      swap2\n      pop\n      pop\n      jump\n        /* \"--CODEGEN--\":5892:5996   */\n    tag_346:\n        /* \"--CODEGEN--\":5969:5990   */\n      tag_348\n        /* \"--CODEGEN--\":5984:5989   */\n      dup2\n        /* \"--CODEGEN--\":5969:5990   */\n      jump(tag_349)\n    tag_348:\n        /* \"--CODEGEN--\":5964:5967   */\n      dup3\n        /* \"--CODEGEN--\":5957:5991   */\n      mstore\n        /* \"--CODEGEN--\":5951:5996   */\n      pop\n      pop\n      jump\n        /* \"--CODEGEN--\":6026:6913   */\n    tag_350:\n      0x00\n        /* \"--CODEGEN--\":6165:6170   */\n      dup2\n        /* \"--CODEGEN--\":6159:6171   */\n      sload\n        /* \"--CODEGEN--\":6199:6200   */\n      0x01\n        /* \"--CODEGEN--\":6188:6197   */\n      dup2\n        /* \"--CODEGEN--\":6184:6201   */\n      and\n        /* \"--CODEGEN--\":6212:6213   */\n      0x00\n        /* \"--CODEGEN--\":6207:6474   */\n      dup2\n      eq\n      tag_353\n      jumpi\n        /* \"--CODEGEN--\":6485:6486   */\n      0x01\n        /* \"--CODEGEN--\":6480:6907   */\n      dup2\n      eq\n      tag_354\n      jumpi\n        /* \"--CODEGEN--\":6177:6907   */\n      jump(tag_352)\n        /* \"--CODEGEN--\":6207:6474   */\n    tag_353:\n        /* \"--CODEGEN--\":6285:6289   */\n      0x7f\n        /* \"--CODEGEN--\":6281:6282   */\n      0x02\n        /* \"--CODEGEN--\":6270:6279   */\n      dup4\n        /* \"--CODEGEN--\":6266:6283   */\n      div\n        /* \"--CODEGEN--\":6262:6290   */\n      and\n        /* \"--CODEGEN--\":6304:6392   */\n      tag_355\n        /* \"--CODEGEN--\":6385:6391   */\n      dup2\n        /* \"--CODEGEN--\":6380:6383   */\n      dup8\n        /* \"--CODEGEN--\":6304:6392   */\n      jump(tag_356)\n    tag_355:\n        /* \"--CODEGEN--\":6297:6392   */\n      swap6\n      pop\n        /* \"--CODEGEN--\":6430:6434   */\n      0xff\n        /* \"--CODEGEN--\":6426:6435   */\n      not\n        /* \"--CODEGEN--\":6415:6424   */\n      dup4\n        /* \"--CODEGEN--\":6411:6436   */\n      and\n        /* \"--CODEGEN--\":6406:6409   */\n      dup7\n        /* \"--CODEGEN--\":6399:6437   */\n      mstore\n        /* \"--CODEGEN--\":6460:6466   */\n      dup1\n        /* \"--CODEGEN--\":6455:6458   */\n      dup7\n        /* \"--CODEGEN--\":6451:6467   */\n      add\n        /* \"--CODEGEN--\":6444:6467   */\n      swap4\n      pop\n        /* \"--CODEGEN--\":6214:6474   */\n      pop\n        /* \"--CODEGEN--\":6207:6474   */\n      jump(tag_352)\n        /* \"--CODEGEN--\":6480:6907   */\n    tag_354:\n        /* \"--CODEGEN--\":6549:6550   */\n      0x02\n        /* \"--CODEGEN--\":6538:6547   */\n      dup3\n        /* \"--CODEGEN--\":6534:6551   */\n      div\n        /* \"--CODEGEN--\":6565:6653   */\n      tag_357\n        /* \"--CODEGEN--\":6646:6652   */\n      dup2\n        /* \"--CODEGEN--\":6641:6644   */\n      dup8\n        /* \"--CODEGEN--\":6565:6653   */\n      jump(tag_356)\n    tag_357:\n        /* \"--CODEGEN--\":6558:6653   */\n      swap6\n      pop\n        /* \"--CODEGEN--\":6675:6716   */\n      tag_358\n        /* \"--CODEGEN--\":6710:6715   */\n      dup6\n        /* \"--CODEGEN--\":6675:6716   */\n      jump(tag_359)\n    tag_358:\n        /* \"--CODEGEN--\":6732:6733   */\n      0x00\n        /* \"--CODEGEN--\":6740:6870   */\n    tag_360:\n        /* \"--CODEGEN--\":6754:6760   */\n      dup3\n        /* \"--CODEGEN--\":6751:6752   */\n      dup2\n        /* \"--CODEGEN--\":6748:6761   */\n      lt\n        /* \"--CODEGEN--\":6740:6870   */\n      iszero\n      tag_362\n      jumpi\n        /* \"--CODEGEN--\":6819:6826   */\n      dup2\n        /* \"--CODEGEN--\":6813:6827   */\n      sload\n        /* \"--CODEGEN--\":6809:6810   */\n      dup2\n        /* \"--CODEGEN--\":6804:6807   */\n      dup10\n        /* \"--CODEGEN--\":6800:6811   */\n      add\n        /* \"--CODEGEN--\":6793:6828   */\n      mstore\n        /* \"--CODEGEN--\":6860:6861   */\n      0x01\n        /* \"--CODEGEN--\":6851:6858   */\n      dup3\n        /* \"--CODEGEN--\":6847:6862   */\n      add\n        /* \"--CODEGEN--\":6836:6862   */\n      swap2\n      pop\n        /* \"--CODEGEN--\":6776:6780   */\n      0x20\n        /* \"--CODEGEN--\":6773:6774   */\n      dup2\n        /* \"--CODEGEN--\":6769:6781   */\n      add\n        /* \"--CODEGEN--\":6764:6781   */\n      swap1\n      pop\n        /* \"--CODEGEN--\":6740:6870   */\n      jump(tag_360)\n    tag_362:\n        /* \"--CODEGEN--\":6893:6899   */\n      dup3\n        /* \"--CODEGEN--\":6888:6891   */\n      dup9\n        /* \"--CODEGEN--\":6884:6900   */\n      add\n        /* \"--CODEGEN--\":6877:6900   */\n      swap6\n      pop\n        /* \"--CODEGEN--\":6487:6907   */\n      pop\n      pop\n      pop\n        /* \"--CODEGEN--\":6177:6907   */\n    tag_352:\n      pop\n        /* \"--CODEGEN--\":6135:6913   */\n      pop\n      swap3\n      swap2\n      pop\n      pop\n      jump\n        /* \"--CODEGEN--\":6921:7248   */\n    tag_327:\n      0x00\n        /* \"--CODEGEN--\":7023:7062   */\n      tag_364\n        /* \"--CODEGEN--\":7056:7061   */\n      dup3\n        /* \"--CODEGEN--\":7023:7062   */\n      jump(tag_365)\n    tag_364:\n        /* \"--CODEGEN--\":7074:7135   */\n      tag_366\n        /* \"--CODEGEN--\":7128:7134   */\n      dup2\n        /* \"--CODEGEN--\":7123:7126   */\n      dup6\n        /* \"--CODEGEN--\":7074:7135   */\n      jump(tag_367)\n    tag_366:\n        /* \"--CODEGEN--\":7067:7135   */\n      swap4\n      pop\n        /* \"--CODEGEN--\":7140:7192   */\n      tag_368\n        /* \"--CODEGEN--\":7185:7191   */\n      dup2\n        /* \"--CODEGEN--\":7180:7183   */\n      dup6\n        /* \"--CODEGEN--\":7173:7177   */\n      0x20\n        /* \"--CODEGEN--\":7166:7171   */\n      dup7\n        /* \"--CODEGEN--\":7162:7178   */\n      add\n        /* \"--CODEGEN--\":7140:7192   */\n      jump(tag_369)\n    tag_368:\n        /* \"--CODEGEN--\":7213:7242   */\n      tag_370\n        /* \"--CODEGEN--\":7235:7241   */\n      dup2\n        /* \"--CODEGEN--\":7213:7242   */\n      jump(tag_371)\n    tag_370:\n        /* \"--CODEGEN--\":7208:7211   */\n      dup5\n        /* \"--CODEGEN--\":7204:7243   */\n      add\n        /* \"--CODEGEN--\":7197:7243   */\n      swap2\n      pop\n        /* \"--CODEGEN--\":7003:7248   */\n      pop\n      swap3\n      swap2\n      pop\n      pop\n      jump\n        /* \"--CODEGEN--\":7255:7602   */\n    tag_372:\n      0x00\n        /* \"--CODEGEN--\":7367:7406   */\n      tag_374\n        /* \"--CODEGEN--\":7400:7405   */\n      dup3\n        /* \"--CODEGEN--\":7367:7406   */\n      jump(tag_365)\n    tag_374:\n        /* \"--CODEGEN--\":7418:7489   */\n      tag_375\n        /* \"--CODEGEN--\":7482:7488   */\n      dup2\n        /* \"--CODEGEN--\":7477:7480   */\n      dup6\n        /* \"--CODEGEN--\":7418:7489   */\n      jump(tag_376)\n    tag_375:\n        /* \"--CODEGEN--\":7411:7489   */\n      swap4\n      pop\n        /* \"--CODEGEN--\":7494:7546   */\n      tag_377\n        /* \"--CODEGEN--\":7539:7545   */\n      dup2\n        /* \"--CODEGEN--\":7534:7537   */\n      dup6\n        /* \"--CODEGEN--\":7527:7531   */\n      0x20\n        /* \"--CODEGEN--\":7520:7525   */\n      dup7\n        /* \"--CODEGEN--\":7516:7532   */\n      add\n        /* \"--CODEGEN--\":7494:7546   */\n      jump(tag_369)\n    tag_377:\n        /* \"--CODEGEN--\":7567:7596   */\n      tag_378\n        /* \"--CODEGEN--\":7589:7595   */\n      dup2\n        /* \"--CODEGEN--\":7567:7596   */\n      jump(tag_371)\n    tag_378:\n        /* \"--CODEGEN--\":7562:7565   */\n      dup5\n        /* \"--CODEGEN--\":7558:7597   */\n      add\n        /* \"--CODEGEN--\":7551:7597   */\n      swap2\n      pop\n        /* \"--CODEGEN--\":7347:7602   */\n      pop\n      swap3\n      swap2\n      pop\n      pop\n      jump\n        /* \"--CODEGEN--\":7610:7918   */\n    tag_379:\n      0x00\n        /* \"--CODEGEN--\":7770:7836   */\n      tag_381\n        /* \"--CODEGEN--\":7834:7835   */\n      0x09\n        /* \"--CODEGEN--\":7829:7832   */\n      dup4\n        /* \"--CODEGEN--\":7770:7836   */\n      jump(tag_376)\n    tag_381:\n        /* \"--CODEGEN--\":7763:7836   */\n      swap2\n      pop\n        /* \"--CODEGEN--\":7869:7880   */\n      0x4e494b2073616c61680000000000000000000000000000000000000000000000\n        /* \"--CODEGEN--\":7865:7866   */\n      0x00\n        /* \"--CODEGEN--\":7860:7863   */\n      dup4\n        /* \"--CODEGEN--\":7856:7867   */\n      add\n        /* \"--CODEGEN--\":7849:7881   */\n      mstore\n        /* \"--CODEGEN--\":7909:7911   */\n      0x20\n        /* \"--CODEGEN--\":7904:7907   */\n      dup3\n        /* \"--CODEGEN--\":7900:7912   */\n      add\n        /* \"--CODEGEN--\":7893:7912   */\n      swap1\n      pop\n        /* \"--CODEGEN--\":7756:7918   */\n      swap2\n      swap1\n      pop\n      jump\n        /* \"--CODEGEN--\":7927:8235   */\n    tag_382:\n      0x00\n        /* \"--CODEGEN--\":8087:8153   */\n      tag_384\n        /* \"--CODEGEN--\":8151:8152   */\n      0x09\n        /* \"--CODEGEN--\":8146:8149   */\n      dup4\n        /* \"--CODEGEN--\":8087:8153   */\n      jump(tag_376)\n    tag_384:\n        /* \"--CODEGEN--\":8080:8153   */\n      swap2\n      pop\n        /* \"--CODEGEN--\":8186:8197   */\n      0x4e494b2053616c61680000000000000000000000000000000000000000000000\n        /* \"--CODEGEN--\":8182:8183   */\n      0x00\n        /* \"--CODEGEN--\":8177:8180   */\n      dup4\n        /* \"--CODEGEN--\":8173:8184   */\n      add\n        /* \"--CODEGEN--\":8166:8198   */\n      mstore\n        /* \"--CODEGEN--\":8226:8228   */\n      0x20\n        /* \"--CODEGEN--\":8221:8224   */\n      dup3\n        /* \"--CODEGEN--\":8217:8229   */\n      add\n        /* \"--CODEGEN--\":8210:8229   */\n      swap1\n      pop\n        /* \"--CODEGEN--\":8073:8235   */\n      swap2\n      swap1\n      pop\n      jump\n        /* \"--CODEGEN--\":8243:8350   */\n    tag_385:\n        /* \"--CODEGEN--\":8322:8344   */\n      tag_387\n        /* \"--CODEGEN--\":8338:8343   */\n      dup2\n        /* \"--CODEGEN--\":8322:8344   */\n      jump(tag_388)\n    tag_387:\n        /* \"--CODEGEN--\":8317:8320   */\n      dup3\n        /* \"--CODEGEN--\":8310:8345   */\n      mstore\n        /* \"--CODEGEN--\":8304:8350   */\n      pop\n      pop\n      jump\n        /* \"--CODEGEN--\":8357:8621   */\n    tag_74:\n      0x00\n        /* \"--CODEGEN--\":8502:8596   */\n      tag_390\n        /* \"--CODEGEN--\":8592:8595   */\n      dup3\n        /* \"--CODEGEN--\":8583:8589   */\n      dup5\n        /* \"--CODEGEN--\":8502:8596   */\n      jump(tag_350)\n    tag_390:\n        /* \"--CODEGEN--\":8495:8596   */\n      swap2\n      pop\n        /* \"--CODEGEN--\":8613:8616   */\n      dup2\n        /* \"--CODEGEN--\":8606:8616   */\n      swap1\n      pop\n        /* \"--CODEGEN--\":8483:8621   */\n      swap3\n      swap2\n      pop\n      pop\n      jump\n        /* \"--CODEGEN--\":8628:8841   */\n    tag_48:\n      0x00\n        /* \"--CODEGEN--\":8746:8748   */\n      0x20\n        /* \"--CODEGEN--\":8735:8744   */\n      dup3\n        /* \"--CODEGEN--\":8731:8749   */\n      add\n        /* \"--CODEGEN--\":8723:8749   */\n      swap1\n      pop\n        /* \"--CODEGEN--\":8760:8831   */\n      tag_392\n        /* \"--CODEGEN--\":8828:8829   */\n      0x00\n        /* \"--CODEGEN--\":8817:8826   */\n      dup4\n        /* \"--CODEGEN--\":8813:8830   */\n      add\n        /* \"--CODEGEN--\":8804:8810   */\n      dup5\n        /* \"--CODEGEN--\":8760:8831   */\n      jump(tag_328)\n    tag_392:\n        /* \"--CODEGEN--\":8717:8841   */\n      swap3\n      swap2\n      pop\n      pop\n      jump\n        /* \"--CODEGEN--\":8848:9659   */\n    tag_53:\n      0x00\n        /* \"--CODEGEN--\":9110:9113   */\n      0x80\n        /* \"--CODEGEN--\":9099:9108   */\n      dup3\n        /* \"--CODEGEN--\":9095:9114   */\n      add\n        /* \"--CODEGEN--\":9087:9114   */\n      swap1\n      pop\n        /* \"--CODEGEN--\":9125:9196   */\n      tag_394\n        /* \"--CODEGEN--\":9193:9194   */\n      0x00\n        /* \"--CODEGEN--\":9182:9191   */\n      dup4\n        /* \"--CODEGEN--\":9178:9195   */\n      add\n        /* \"--CODEGEN--\":9169:9175   */\n      dup8\n        /* \"--CODEGEN--\":9125:9196   */\n      jump(tag_328)\n    tag_394:\n        /* \"--CODEGEN--\":9244:9253   */\n      dup2\n        /* \"--CODEGEN--\":9238:9242   */\n      dup2\n        /* \"--CODEGEN--\":9234:9254   */\n      sub\n        /* \"--CODEGEN--\":9229:9231   */\n      0x20\n        /* \"--CODEGEN--\":9218:9227   */\n      dup4\n        /* \"--CODEGEN--\":9214:9232   */\n      add\n        /* \"--CODEGEN--\":9207:9255   */\n      mstore\n        /* \"--CODEGEN--\":9269:9347   */\n      tag_395\n        /* \"--CODEGEN--\":9342:9346   */\n      dup2\n        /* \"--CODEGEN--\":9333:9339   */\n      dup7\n        /* \"--CODEGEN--\":9269:9347   */\n      jump(tag_372)\n    tag_395:\n        /* \"--CODEGEN--\":9261:9347   */\n      swap1\n      pop\n        /* \"--CODEGEN--\":9395:9404   */\n      dup2\n        /* \"--CODEGEN--\":9389:9393   */\n      dup2\n        /* \"--CODEGEN--\":9385:9405   */\n      sub\n        /* \"--CODEGEN--\":9380:9382   */\n      0x40\n        /* \"--CODEGEN--\":9369:9378   */\n      dup4\n        /* \"--CODEGEN--\":9365:9383   */\n      add\n        /* \"--CODEGEN--\":9358:9406   */\n      mstore\n        /* \"--CODEGEN--\":9420:9498   */\n      tag_396\n        /* \"--CODEGEN--\":9493:9497   */\n      dup2\n        /* \"--CODEGEN--\":9484:9490   */\n      dup6\n        /* \"--CODEGEN--\":9420:9498   */\n      jump(tag_372)\n    tag_396:\n        /* \"--CODEGEN--\":9412:9498   */\n      swap1\n      pop\n        /* \"--CODEGEN--\":9546:9555   */\n      dup2\n        /* \"--CODEGEN--\":9540:9544   */\n      dup2\n        /* \"--CODEGEN--\":9536:9556   */\n      sub\n        /* \"--CODEGEN--\":9531:9533   */\n      0x60\n        /* \"--CODEGEN--\":9520:9529   */\n      dup4\n        /* \"--CODEGEN--\":9516:9534   */\n      add\n        /* \"--CODEGEN--\":9509:9557   */\n      mstore\n        /* \"--CODEGEN--\":9571:9649   */\n      tag_397\n        /* \"--CODEGEN--\":9644:9648   */\n      dup2\n        /* \"--CODEGEN--\":9635:9641   */\n      dup5\n        /* \"--CODEGEN--\":9571:9649   */\n      jump(tag_372)\n    tag_397:\n        /* \"--CODEGEN--\":9563:9649   */\n      swap1\n      pop\n        /* \"--CODEGEN--\":9081:9659   */\n      swap6\n      swap5\n      pop\n      pop\n      pop\n      pop\n      pop\n      jump\n        /* \"--CODEGEN--\":9666:10067   */\n    tag_23:\n      0x00\n        /* \"--CODEGEN--\":9854:9856   */\n      0x20\n        /* \"--CODEGEN--\":9843:9852   */\n      dup3\n        /* \"--CODEGEN--\":9839:9857   */\n      add\n        /* \"--CODEGEN--\":9831:9857   */\n      swap1\n      pop\n        /* \"--CODEGEN--\":9904:9913   */\n      dup2\n        /* \"--CODEGEN--\":9898:9902   */\n      dup2\n        /* \"--CODEGEN--\":9894:9914   */\n      sub\n        /* \"--CODEGEN--\":9890:9891   */\n      0x00\n        /* \"--CODEGEN--\":9879:9888   */\n      dup4\n        /* \"--CODEGEN--\":9875:9892   */\n      add\n        /* \"--CODEGEN--\":9868:9915   */\n      mstore\n        /* \"--CODEGEN--\":9929:10057   */\n      tag_399\n        /* \"--CODEGEN--\":10052:10056   */\n      dup2\n        /* \"--CODEGEN--\":10043:10049   */\n      dup5\n        /* \"--CODEGEN--\":9929:10057   */\n      jump(tag_332)\n    tag_399:\n        /* \"--CODEGEN--\":9921:10057   */\n      swap1\n      pop\n        /* \"--CODEGEN--\":9825:10067   */\n      swap3\n      swap2\n      pop\n      pop\n      jump\n        /* \"--CODEGEN--\":10074:10275   */\n    tag_17:\n      0x00\n        /* \"--CODEGEN--\":10186:10188   */\n      0x20\n        /* \"--CODEGEN--\":10175:10184   */\n      dup3\n        /* \"--CODEGEN--\":10171:10189   */\n      add\n        /* \"--CODEGEN--\":10163:10189   */\n      swap1\n      pop\n        /* \"--CODEGEN--\":10200:10265   */\n      tag_401\n        /* \"--CODEGEN--\":10262:10263   */\n      0x00\n        /* \"--CODEGEN--\":10251:10260   */\n      dup4\n        /* \"--CODEGEN--\":10247:10264   */\n      add\n        /* \"--CODEGEN--\":10238:10244   */\n      dup5\n        /* \"--CODEGEN--\":10200:10265   */\n      jump(tag_346)\n    tag_401:\n        /* \"--CODEGEN--\":10157:10275   */\n      swap3\n      swap2\n      pop\n      pop\n      jump\n        /* \"--CODEGEN--\":10282:11993   */\n    tag_28:\n      0x00\n        /* \"--CODEGEN--\":10782:10785   */\n      0x0120\n        /* \"--CODEGEN--\":10771:10780   */\n      dup3\n        /* \"--CODEGEN--\":10767:10786   */\n      add\n        /* \"--CODEGEN--\":10759:10786   */\n      swap1\n      pop\n        /* \"--CODEGEN--\":10833:10842   */\n      dup2\n        /* \"--CODEGEN--\":10827:10831   */\n      dup2\n        /* \"--CODEGEN--\":10823:10843   */\n      sub\n        /* \"--CODEGEN--\":10819:10820   */\n      0x00\n        /* \"--CODEGEN--\":10808:10817   */\n      dup4\n        /* \"--CODEGEN--\":10804:10821   */\n      add\n        /* \"--CODEGEN--\":10797:10844   */\n      mstore\n        /* \"--CODEGEN--\":10858:10936   */\n      tag_403\n        /* \"--CODEGEN--\":10931:10935   */\n      dup2\n        /* \"--CODEGEN--\":10922:10928   */\n      dup13\n        /* \"--CODEGEN--\":10858:10936   */\n      jump(tag_372)\n    tag_403:\n        /* \"--CODEGEN--\":10850:10936   */\n      swap1\n      pop\n        /* \"--CODEGEN--\":10984:10993   */\n      dup2\n        /* \"--CODEGEN--\":10978:10982   */\n      dup2\n        /* \"--CODEGEN--\":10974:10994   */\n      sub\n        /* \"--CODEGEN--\":10969:10971   */\n      0x20\n        /* \"--CODEGEN--\":10958:10967   */\n      dup4\n        /* \"--CODEGEN--\":10954:10972   */\n      add\n        /* \"--CODEGEN--\":10947:10995   */\n      mstore\n        /* \"--CODEGEN--\":11009:11087   */\n      tag_404\n        /* \"--CODEGEN--\":11082:11086   */\n      dup2\n        /* \"--CODEGEN--\":11073:11079   */\n      dup12\n        /* \"--CODEGEN--\":11009:11087   */\n      jump(tag_372)\n    tag_404:\n        /* \"--CODEGEN--\":11001:11087   */\n      swap1\n      pop\n        /* \"--CODEGEN--\":11098:11166   */\n      tag_405\n        /* \"--CODEGEN--\":11162:11164   */\n      0x40\n        /* \"--CODEGEN--\":11151:11160   */\n      dup4\n        /* \"--CODEGEN--\":11147:11165   */\n      add\n        /* \"--CODEGEN--\":11138:11144   */\n      dup11\n        /* \"--CODEGEN--\":11098:11166   */\n      jump(tag_385)\n    tag_405:\n        /* \"--CODEGEN--\":11214:11223   */\n      dup2\n        /* \"--CODEGEN--\":11208:11212   */\n      dup2\n        /* \"--CODEGEN--\":11204:11224   */\n      sub\n        /* \"--CODEGEN--\":11199:11201   */\n      0x60\n        /* \"--CODEGEN--\":11188:11197   */\n      dup4\n        /* \"--CODEGEN--\":11184:11202   */\n      add\n        /* \"--CODEGEN--\":11177:11225   */\n      mstore\n        /* \"--CODEGEN--\":11239:11317   */\n      tag_406\n        /* \"--CODEGEN--\":11312:11316   */\n      dup2\n        /* \"--CODEGEN--\":11303:11309   */\n      dup10\n        /* \"--CODEGEN--\":11239:11317   */\n      jump(tag_372)\n    tag_406:\n        /* \"--CODEGEN--\":11231:11317   */\n      swap1\n      pop\n        /* \"--CODEGEN--\":11366:11375   */\n      dup2\n        /* \"--CODEGEN--\":11360:11364   */\n      dup2\n        /* \"--CODEGEN--\":11356:11376   */\n      sub\n        /* \"--CODEGEN--\":11350:11353   */\n      0x80\n        /* \"--CODEGEN--\":11339:11348   */\n      dup4\n        /* \"--CODEGEN--\":11335:11354   */\n      add\n        /* \"--CODEGEN--\":11328:11377   */\n      mstore\n        /* \"--CODEGEN--\":11391:11469   */\n      tag_407\n        /* \"--CODEGEN--\":11464:11468   */\n      dup2\n        /* \"--CODEGEN--\":11455:11461   */\n      dup9\n        /* \"--CODEGEN--\":11391:11469   */\n      jump(tag_372)\n    tag_407:\n        /* \"--CODEGEN--\":11383:11469   */\n      swap1\n      pop\n        /* \"--CODEGEN--\":11518:11527   */\n      dup2\n        /* \"--CODEGEN--\":11512:11516   */\n      dup2\n        /* \"--CODEGEN--\":11508:11528   */\n      sub\n        /* \"--CODEGEN--\":11502:11505   */\n      0xa0\n        /* \"--CODEGEN--\":11491:11500   */\n      dup4\n        /* \"--CODEGEN--\":11487:11506   */\n      add\n        /* \"--CODEGEN--\":11480:11529   */\n      mstore\n        /* \"--CODEGEN--\":11543:11621   */\n      tag_408\n        /* \"--CODEGEN--\":11616:11620   */\n      dup2\n        /* \"--CODEGEN--\":11607:11613   */\n      dup8\n        /* \"--CODEGEN--\":11543:11621   */\n      jump(tag_372)\n    tag_408:\n        /* \"--CODEGEN--\":11535:11621   */\n      swap1\n      pop\n        /* \"--CODEGEN--\":11632:11701   */\n      tag_409\n        /* \"--CODEGEN--\":11696:11699   */\n      0xc0\n        /* \"--CODEGEN--\":11685:11694   */\n      dup4\n        /* \"--CODEGEN--\":11681:11700   */\n      add\n        /* \"--CODEGEN--\":11672:11678   */\n      dup7\n        /* \"--CODEGEN--\":11632:11701   */\n      jump(tag_385)\n    tag_409:\n        /* \"--CODEGEN--\":11712:11781   */\n      tag_410\n        /* \"--CODEGEN--\":11776:11779   */\n      0xe0\n        /* \"--CODEGEN--\":11765:11774   */\n      dup4\n        /* \"--CODEGEN--\":11761:11780   */\n      add\n        /* \"--CODEGEN--\":11752:11758   */\n      dup6\n        /* \"--CODEGEN--\":11712:11781   */\n      jump(tag_385)\n    tag_410:\n        /* \"--CODEGEN--\":11830:11839   */\n      dup2\n        /* \"--CODEGEN--\":11824:11828   */\n      dup2\n        /* \"--CODEGEN--\":11820:11840   */\n      sub\n        /* \"--CODEGEN--\":11814:11817   */\n      0x0100\n        /* \"--CODEGEN--\":11803:11812   */\n      dup4\n        /* \"--CODEGEN--\":11799:11818   */\n      add\n        /* \"--CODEGEN--\":11792:11841   */\n      mstore\n        /* \"--CODEGEN--\":11855:11983   */\n      tag_411\n        /* \"--CODEGEN--\":11978:11982   */\n      dup2\n        /* \"--CODEGEN--\":11969:11975   */\n      dup5\n        /* \"--CODEGEN--\":11855:11983   */\n      jump(tag_332)\n    tag_411:\n        /* \"--CODEGEN--\":11847:11983   */\n      swap1\n      pop\n        /* \"--CODEGEN--\":10753:11993   */\n      swap11\n      swap10\n      pop\n      pop\n      pop\n      pop\n      pop\n      pop\n      pop\n      pop\n      pop\n      pop\n      jump\n        /* \"--CODEGEN--\":12000:12407   */\n    tag_96:\n      0x00\n        /* \"--CODEGEN--\":12191:12193   */\n      0x20\n        /* \"--CODEGEN--\":12180:12189   */\n      dup3\n        /* \"--CODEGEN--\":12176:12194   */\n      add\n        /* \"--CODEGEN--\":12168:12194   */\n      swap1\n      pop\n        /* \"--CODEGEN--\":12241:12250   */\n      dup2\n        /* \"--CODEGEN--\":12235:12239   */\n      dup2\n        /* \"--CODEGEN--\":12231:12251   */\n      sub\n        /* \"--CODEGEN--\":12227:12228   */\n      0x00\n        /* \"--CODEGEN--\":12216:12225   */\n      dup4\n        /* \"--CODEGEN--\":12212:12229   */\n      add\n        /* \"--CODEGEN--\":12205:12252   */\n      mstore\n        /* \"--CODEGEN--\":12266:12397   */\n      tag_413\n        /* \"--CODEGEN--\":12392:12396   */\n      dup2\n        /* \"--CODEGEN--\":12266:12397   */\n      jump(tag_379)\n    tag_413:\n        /* \"--CODEGEN--\":12258:12397   */\n      swap1\n      pop\n        /* \"--CODEGEN--\":12162:12407   */\n      swap2\n      swap1\n      pop\n      jump\n        /* \"--CODEGEN--\":12414:12821   */\n    tag_213:\n      0x00\n        /* \"--CODEGEN--\":12605:12607   */\n      0x20\n        /* \"--CODEGEN--\":12594:12603   */\n      dup3\n        /* \"--CODEGEN--\":12590:12608   */\n      add\n        /* \"--CODEGEN--\":12582:12608   */\n      swap1\n      pop\n        /* \"--CODEGEN--\":12655:12664   */\n      dup2\n        /* \"--CODEGEN--\":12649:12653   */\n      dup2\n        /* \"--CODEGEN--\":12645:12665   */\n      sub\n        /* \"--CODEGEN--\":12641:12642   */\n      0x00\n        /* \"--CODEGEN--\":12630:12639   */\n      dup4\n        /* \"--CODEGEN--\":12626:12643   */\n      add\n        /* \"--CODEGEN--\":12619:12666   */\n      mstore\n        /* \"--CODEGEN--\":12680:12811   */\n      tag_415\n        /* \"--CODEGEN--\":12806:12810   */\n      dup2\n        /* \"--CODEGEN--\":12680:12811   */\n      jump(tag_382)\n    tag_415:\n        /* \"--CODEGEN--\":12672:12811   */\n      swap1\n      pop\n        /* \"--CODEGEN--\":12576:12821   */\n      swap2\n      swap1\n      pop\n      jump\n        /* \"--CODEGEN--\":12828:13084   */\n    tag_278:\n      0x00\n        /* \"--CODEGEN--\":12890:12892   */\n      0x40\n        /* \"--CODEGEN--\":12884:12893   */\n      mload\n        /* \"--CODEGEN--\":12874:12893   */\n      swap1\n      pop\n        /* \"--CODEGEN--\":12928:12932   */\n      dup2\n        /* \"--CODEGEN--\":12920:12926   */\n      dup2\n        /* \"--CODEGEN--\":12916:12933   */\n      add\n        /* \"--CODEGEN--\":13027:13033   */\n      dup2\n        /* \"--CODEGEN--\":13015:13025   */\n      dup2\n        /* \"--CODEGEN--\":13012:13034   */\n      lt\n        /* \"--CODEGEN--\":12991:13009   */\n      0xffffffffffffffff\n        /* \"--CODEGEN--\":12979:12989   */\n      dup3\n        /* \"--CODEGEN--\":12976:13010   */\n      gt\n        /* \"--CODEGEN--\":12973:13035   */\n      or\n        /* \"--CODEGEN--\":12970:12972   */\n      iszero\n      tag_417\n      jumpi\n        /* \"--CODEGEN--\":13048:13049   */\n      0x00\n        /* \"--CODEGEN--\":13045:13046   */\n      dup1\n        /* \"--CODEGEN--\":13038:13050   */\n      revert\n        /* \"--CODEGEN--\":12970:12972   */\n    tag_417:\n        /* \"--CODEGEN--\":13068:13078   */\n      dup1\n        /* \"--CODEGEN--\":13064:13066   */\n      0x40\n        /* \"--CODEGEN--\":13057:13079   */\n      mstore\n        /* \"--CODEGEN--\":12868:13084   */\n      pop\n      swap2\n      swap1\n      pop\n      jump\n        /* \"--CODEGEN--\":13091:13413   */\n    tag_277:\n      0x00\n        /* \"--CODEGEN--\":13235:13253   */\n      0xffffffffffffffff\n        /* \"--CODEGEN--\":13227:13233   */\n      dup3\n        /* \"--CODEGEN--\":13224:13254   */\n      gt\n        /* \"--CODEGEN--\":13221:13223   */\n      iszero\n      tag_419\n      jumpi\n        /* \"--CODEGEN--\":13267:13268   */\n      0x00\n        /* \"--CODEGEN--\":13264:13265   */\n      dup1\n        /* \"--CODEGEN--\":13257:13269   */\n      revert\n        /* \"--CODEGEN--\":13221:13223   */\n    tag_419:\n        /* \"--CODEGEN--\":13334:13338   */\n      0x1f\n        /* \"--CODEGEN--\":13330:13339   */\n      not\n        /* \"--CODEGEN--\":13323:13327   */\n      0x1f\n        /* \"--CODEGEN--\":13315:13321   */\n      dup4\n        /* \"--CODEGEN--\":13311:13328   */\n      add\n        /* \"--CODEGEN--\":13307:13340   */\n      and\n        /* \"--CODEGEN--\":13299:13340   */\n      swap1\n      pop\n        /* \"--CODEGEN--\":13398:13402   */\n      0x20\n        /* \"--CODEGEN--\":13392:13396   */\n      dup2\n        /* \"--CODEGEN--\":13388:13403   */\n      add\n        /* \"--CODEGEN--\":13380:13403   */\n      swap1\n      pop\n        /* \"--CODEGEN--\":13158:13413   */\n      swap2\n      swap1\n      pop\n      jump\n        /* \"--CODEGEN--\":13420:13581   */\n    tag_339:\n      0x00\n        /* \"--CODEGEN--\":13516:13519   */\n      dup2\n        /* \"--CODEGEN--\":13508:13519   */\n      swap1\n      pop\n        /* \"--CODEGEN--\":13554:13558   */\n      0x20\n        /* \"--CODEGEN--\":13549:13552   */\n      dup3\n        /* \"--CODEGEN--\":13545:13559   */\n      add\n        /* \"--CODEGEN--\":13537:13559   */\n      swap1\n      pop\n        /* \"--CODEGEN--\":13502:13581   */\n      swap2\n      swap1\n      pop\n      jump\n        /* \"--CODEGEN--\":13588:13749   */\n    tag_359:\n      0x00\n        /* \"--CODEGEN--\":13659:13662   */\n      dup2\n        /* \"--CODEGEN--\":13651:13662   */\n      swap1\n      pop\n        /* \"--CODEGEN--\":13696:13699   */\n      dup2\n        /* \"--CODEGEN--\":13693:13694   */\n      0x00\n        /* \"--CODEGEN--\":13686:13700   */\n      mstore\n        /* \"--CODEGEN--\":13728:13732   */\n      0x20\n        /* \"--CODEGEN--\":13725:13726   */\n      0x00\n        /* \"--CODEGEN--\":13715:13733   */\n      keccak256\n        /* \"--CODEGEN--\":13707:13733   */\n      swap1\n      pop\n        /* \"--CODEGEN--\":13645:13749   */\n      swap2\n      swap1\n      pop\n      jump\n        /* \"--CODEGEN--\":13756:13903   */\n    tag_335:\n      0x00\n        /* \"--CODEGEN--\":13875:13880   */\n      dup2\n        /* \"--CODEGEN--\":13869:13881   */\n      mload\n        /* \"--CODEGEN--\":13859:13881   */\n      swap1\n      pop\n        /* \"--CODEGEN--\":13840:13903   */\n      swap2\n      swap1\n      pop\n      jump\n        /* \"--CODEGEN--\":13910:14032   */\n    tag_365:\n      0x00\n        /* \"--CODEGEN--\":14004:14009   */\n      dup2\n        /* \"--CODEGEN--\":13998:14010   */\n      mload\n        /* \"--CODEGEN--\":13988:14010   */\n      swap1\n      pop\n        /* \"--CODEGEN--\":13969:14032   */\n      swap2\n      swap1\n      pop\n      jump\n        /* \"--CODEGEN--\":14039:14157   */\n    tag_345:\n      0x00\n        /* \"--CODEGEN--\":14147:14151   */\n      0x20\n        /* \"--CODEGEN--\":14142:14145   */\n      dup3\n        /* \"--CODEGEN--\":14138:14152   */\n      add\n        /* \"--CODEGEN--\":14130:14152   */\n      swap1\n      pop\n        /* \"--CODEGEN--\":14124:14157   */\n      swap2\n      swap1\n      pop\n      jump\n        /* \"--CODEGEN--\":14165:14353   */\n    tag_337:\n      0x00\n        /* \"--CODEGEN--\":14305:14311   */\n      dup3\n        /* \"--CODEGEN--\":14300:14303   */\n      dup3\n        /* \"--CODEGEN--\":14293:14312   */\n      mstore\n        /* \"--CODEGEN--\":14342:14346   */\n      0x20\n        /* \"--CODEGEN--\":14337:14340   */\n      dup3\n        /* \"--CODEGEN--\":14333:14347   */\n      add\n        /* \"--CODEGEN--\":14318:14347   */\n      swap1\n      pop\n        /* \"--CODEGEN--\":14286:14353   */\n      swap3\n      swap2\n      pop\n      pop\n      jump\n        /* \"--CODEGEN--\":14362:14506   */\n    tag_356:\n      0x00\n        /* \"--CODEGEN--\":14497:14500   */\n      dup2\n        /* \"--CODEGEN--\":14482:14500   */\n      swap1\n      pop\n        /* \"--CODEGEN--\":14475:14506   */\n      swap3\n      swap2\n      pop\n      pop\n      jump\n        /* \"--CODEGEN--\":14515:14668   */\n    tag_367:\n      0x00\n        /* \"--CODEGEN--\":14620:14626   */\n      dup3\n        /* \"--CODEGEN--\":14615:14618   */\n      dup3\n        /* \"--CODEGEN--\":14608:14627   */\n      mstore\n        /* \"--CODEGEN--\":14657:14661   */\n      0x20\n        /* \"--CODEGEN--\":14652:14655   */\n      dup3\n        /* \"--CODEGEN--\":14648:14662   */\n      add\n        /* \"--CODEGEN--\":14633:14662   */\n      swap1\n      pop\n        /* \"--CODEGEN--\":14601:14668   */\n      swap3\n      swap2\n      pop\n      pop\n      jump\n        /* \"--CODEGEN--\":14677:14840   */\n    tag_376:\n      0x00\n        /* \"--CODEGEN--\":14792:14798   */\n      dup3\n        /* \"--CODEGEN--\":14787:14790   */\n      dup3\n        /* \"--CODEGEN--\":14780:14799   */\n      mstore\n        /* \"--CODEGEN--\":14829:14833   */\n      0x20\n        /* \"--CODEGEN--\":14824:14827   */\n      dup3\n        /* \"--CODEGEN--\":14820:14834   */\n      add\n        /* \"--CODEGEN--\":14805:14834   */\n      swap1\n      pop\n        /* \"--CODEGEN--\":14773:14840   */\n      swap3\n      swap2\n      pop\n      pop\n      jump\n        /* \"--CODEGEN--\":14848:14939   */\n    tag_331:\n      0x00\n        /* \"--CODEGEN--\":14910:14934   */\n      tag_430\n        /* \"--CODEGEN--\":14928:14933   */\n      dup3\n        /* \"--CODEGEN--\":14910:14934   */\n      jump(tag_431)\n    tag_430:\n        /* \"--CODEGEN--\":14899:14934   */\n      swap1\n      pop\n        /* \"--CODEGEN--\":14893:14939   */\n      swap2\n      swap1\n      pop\n      jump\n        /* \"--CODEGEN--\":14946:15031   */\n    tag_349:\n      0x00\n        /* \"--CODEGEN--\":15019:15024   */\n      dup2\n        /* \"--CODEGEN--\":15012:15025   */\n      iszero\n        /* \"--CODEGEN--\":15005:15026   */\n      iszero\n        /* \"--CODEGEN--\":14994:15026   */\n      swap1\n      pop\n        /* \"--CODEGEN--\":14988:15031   */\n      swap2\n      swap1\n      pop\n      jump\n        /* \"--CODEGEN--\":15038:15159   */\n    tag_431:\n      0x00\n        /* \"--CODEGEN--\":15111:15153   */\n      0xffffffffffffffffffffffffffffffffffffffff\n        /* \"--CODEGEN--\":15104:15109   */\n      dup3\n        /* \"--CODEGEN--\":15100:15154   */\n      and\n        /* \"--CODEGEN--\":15089:15154   */\n      swap1\n      pop\n        /* \"--CODEGEN--\":15083:15159   */\n      swap2\n      swap1\n      pop\n      jump\n        /* \"--CODEGEN--\":15166:15247   */\n    tag_388:\n      0x00\n        /* \"--CODEGEN--\":15237:15241   */\n      0xff\n        /* \"--CODEGEN--\":15230:15235   */\n      dup3\n        /* \"--CODEGEN--\":15226:15242   */\n      and\n        /* \"--CODEGEN--\":15215:15242   */\n      swap1\n      pop\n        /* \"--CODEGEN--\":15209:15247   */\n      swap2\n      swap1\n      pop\n      jump\n        /* \"--CODEGEN--\":15255:15400   */\n    tag_281:\n        /* \"--CODEGEN--\":15336:15342   */\n      dup3\n        /* \"--CODEGEN--\":15331:15334   */\n      dup2\n        /* \"--CODEGEN--\":15326:15329   */\n      dup4\n        /* \"--CODEGEN--\":15313:15343   */\n      calldatacopy\n        /* \"--CODEGEN--\":15392:15393   */\n      0x00\n        /* \"--CODEGEN--\":15383:15389   */\n      dup4\n        /* \"--CODEGEN--\":15378:15381   */\n      dup4\n        /* \"--CODEGEN--\":15374:15390   */\n      add\n        /* \"--CODEGEN--\":15367:15394   */\n      mstore\n        /* \"--CODEGEN--\":15306:15400   */\n      pop\n      pop\n      pop\n      jump\n        /* \"--CODEGEN--\":15409:15677   */\n    tag_369:\n        /* \"--CODEGEN--\":15474:15475   */\n      0x00\n        /* \"--CODEGEN--\":15481:15582   */\n    tag_437:\n        /* \"--CODEGEN--\":15495:15501   */\n      dup4\n        /* \"--CODEGEN--\":15492:15493   */\n      dup2\n        /* \"--CODEGEN--\":15489:15502   */\n      lt\n        /* \"--CODEGEN--\":15481:15582   */\n      iszero\n      tag_439\n      jumpi\n        /* \"--CODEGEN--\":15571:15572   */\n      dup1\n        /* \"--CODEGEN--\":15566:15569   */\n      dup3\n        /* \"--CODEGEN--\":15562:15573   */\n      add\n        /* \"--CODEGEN--\":15556:15574   */\n      mload\n        /* \"--CODEGEN--\":15552:15553   */\n      dup2\n        /* \"--CODEGEN--\":15547:15550   */\n      dup5\n        /* \"--CODEGEN--\":15543:15554   */\n      add\n        /* \"--CODEGEN--\":15536:15575   */\n      mstore\n        /* \"--CODEGEN--\":15517:15519   */\n      0x20\n        /* \"--CODEGEN--\":15514:15515   */\n      dup2\n        /* \"--CODEGEN--\":15510:15520   */\n      add\n        /* \"--CODEGEN--\":15505:15520   */\n      swap1\n      pop\n        /* \"--CODEGEN--\":15481:15582   */\n      jump(tag_437)\n    tag_439:\n        /* \"--CODEGEN--\":15597:15603   */\n      dup4\n        /* \"--CODEGEN--\":15594:15595   */\n      dup2\n        /* \"--CODEGEN--\":15591:15604   */\n      gt\n        /* \"--CODEGEN--\":15588:15590   */\n      iszero\n      tag_440\n      jumpi\n        /* \"--CODEGEN--\":15662:15663   */\n      0x00\n        /* \"--CODEGEN--\":15653:15659   */\n      dup5\n        /* \"--CODEGEN--\":15648:15651   */\n      dup5\n        /* \"--CODEGEN--\":15644:15660   */\n      add\n        /* \"--CODEGEN--\":15637:15664   */\n      mstore\n        /* \"--CODEGEN--\":15588:15590   */\n    tag_440:\n        /* \"--CODEGEN--\":15458:15677   */\n      pop\n      pop\n      pop\n      pop\n      jump\n        /* \"--CODEGEN--\":15685:15782   */\n    tag_371:\n      0x00\n        /* \"--CODEGEN--\":15773:15775   */\n      0x1f\n        /* \"--CODEGEN--\":15769:15776   */\n      not\n        /* \"--CODEGEN--\":15764:15766   */\n      0x1f\n        /* \"--CODEGEN--\":15757:15762   */\n      dup4\n        /* \"--CODEGEN--\":15753:15767   */\n      add\n        /* \"--CODEGEN--\":15749:15777   */\n      and\n        /* \"--CODEGEN--\":15739:15777   */\n      swap1\n      pop\n        /* \"--CODEGEN--\":15733:15782   */\n      swap2\n      swap1\n      pop\n      jump\n        /* \"--CODEGEN--\":15790:15907   */\n    tag_271:\n        /* \"--CODEGEN--\":15859:15883   */\n      tag_443\n        /* \"--CODEGEN--\":15877:15882   */\n      dup2\n        /* \"--CODEGEN--\":15859:15883   */\n      jump(tag_331)\n    tag_443:\n        /* \"--CODEGEN--\":15852:15857   */\n      dup2\n        /* \"--CODEGEN--\":15849:15884   */\n      eq\n        /* \"--CODEGEN--\":15839:15841   */\n      tag_444\n      jumpi\n        /* \"--CODEGEN--\":15898:15899   */\n      0x00\n        /* \"--CODEGEN--\":15895:15896   */\n      dup1\n        /* \"--CODEGEN--\":15888:15900   */\n      revert\n        /* \"--CODEGEN--\":15839:15841   */\n    tag_444:\n        /* \"--CODEGEN--\":15833:15907   */\n      pop\n      jump\n        /* \"--CODEGEN--\":15914:16027   */\n    tag_285:\n        /* \"--CODEGEN--\":15981:16003   */\n      tag_446\n        /* \"--CODEGEN--\":15997:16002   */\n      dup2\n        /* \"--CODEGEN--\":15981:16003   */\n      jump(tag_388)\n    tag_446:\n        /* \"--CODEGEN--\":15974:15979   */\n      dup2\n        /* \"--CODEGEN--\":15971:16004   */\n      eq\n        /* \"--CODEGEN--\":15961:15963   */\n      tag_447\n      jumpi\n        /* \"--CODEGEN--\":16018:16019   */\n      0x00\n        /* \"--CODEGEN--\":16015:16016   */\n      dup1\n        /* \"--CODEGEN--\":16008:16020   */\n      revert\n        /* \"--CODEGEN--\":15961:15963   */\n    tag_447:\n        /* \"--CODEGEN--\":15955:16027   */\n      pop\n      jump\n\n    auxdata: 0xa26469706673582212203d23cc0a9a25c5b8dd2ad9226324dbfedf241469e929d198338aa4696e74b2b464736f6c63430006060033\n}\n",
    "bytecode": {
      "linkReferences": {},
      "object": "60806040523480156200001157600080fd5b50336000806101000a81548173ffffffffffffffffffffffffffffffffffffffff021916908373ffffffffffffffffffffffffffffffffffffffff160217905550600060018190555062000121738bd997ab0abd89e9a23ff3ccce5a71dde6326f9a6040518060400160405280601981526020017f52756d61682053616b69742057696a61796120576979756e67000000000000008152506040518060400160405280600381526020017f31323300000000000000000000000000000000000000000000000000000000008152506040518060400160405280600f81526020017f576979756e6720537572616261796100000000000000000000000000000000008152506200012760201b60201c565b6200038a565b3373ffffffffffffffffffffffffffffffffffffffff166000809054906101000a900473ffffffffffffffffffffffffffffffffffffffff1673ffffffffffffffffffffffffffffffffffffffff16146200018157600080fd5b6200018b6200029d565b60405180608001604052808673ffffffffffffffffffffffffffffffffffffffff168152602001858152602001848152602001838152509050600381908060018154018082558091505060019003906000526020600020906004020160009091909190915060008201518160000160006101000a81548173ffffffffffffffffffffffffffffffffffffffff021916908373ffffffffffffffffffffffffffffffffffffffff160217905550602082015181600101908051906020019062000255929190620002db565b50604082015181600201908051906020019062000274929190620002db565b50606082015181600301908051906020019062000293929190620002db565b5050505050505050565b6040518060800160405280600073ffffffffffffffffffffffffffffffffffffffff1681526020016060815260200160608152602001606081525090565b828054600181600116156101000203166002900490600052602060002090601f016020900481019282601f106200031e57805160ff19168380011785556200034f565b828001600101855582156200034f579182015b828111156200034e57825182559160200191906001019062000331565b5b5090506200035e919062000362565b5090565b6200038791905b808211156200038357600081600090555060010162000369565b5090565b90565b611faa806200039a6000396000f3fe608060405234801561001057600080fd5b506004361061009e5760003560e01c8063a480fef311610066578063a480fef314610161578063a61cef0c1461017d578063d500958414610199578063e39be646146101b7578063fb2cb8f3146101ea5761009e565b8063115ada66146100a35780632db67237146100c1578063571f2ac1146100f1578063694e54bf14610129578063a3e9b55814610145575b600080fd5b6100ab610208565b6040516100b89190611cb7565b60405180910390f35b6100db60048036038101906100d691906117bc565b6102ab565b6040516100e89190611c95565b60405180910390f35b61010b600480360381019061010691906117bc565b6104fa565b60405161012099989796959493929190611cd2565b60405180910390f35b610143600480360381019061013e91906117fd565b610ac6565b005b61015f600480360381019061015a9190611711565b610ba1565b005b61017b60048036038101906101769190611928565b610d0e565b005b61019760048036038101906101929190611869565b610f25565b005b6101a16110b0565b6040516101ae9190611c20565b60405180910390f35b6101d160048036038101906101cc91906117bc565b6110d9565b6040516101e19493929190611c3b565b60405180910390f35b6101f2611423565b6040516101ff9190611cb7565b60405180910390f35b600080600090505b6003805490508110156102a6576003818154811061022a57fe5b906000526020600020906004020160000160009054906101000a900473ffffffffffffffffffffffffffffffffffffffff1673ffffffffffffffffffffffffffffffffffffffff163373ffffffffffffffffffffffffffffffffffffffff1614156102995760019150506102a8565b8080600101915050610210565b505b90565b60606102b5610208565b6102be57600080fd5b606060008090505b6002805490508110156104f057600281815481106102e057fe5b90600052602060002090600802016000016040516102fe9190611c09565b6040518091039020848051906020012014156104a8576002818154811061032157fe5b90600052602060002090600802016007018054905067ffffffffffffffff8111801561034c57600080fd5b5060405190808252806020026020018201604052801561038057816020015b606081526020019060019003908161036b5790505b50915060008090505b6002828154811061039657fe5b9060005260206000209060080201600701805490508110156104a257600282815481106103bf57fe5b906000526020600020906008020160070181815481106103db57fe5b906000526020600020018054600181600116156101000203166002900480601f0160208091040260200160405190810160405280929190818152602001828054600181600116156101000203166002900480156104795780601f1061044e57610100808354040283529160200191610479565b820191906000526020600020905b81548152906001019060200180831161045c57829003601f168201915b505050505083828151811061048a57fe5b60200260200101819052508080600101915050610389565b506104e3565b6040517f08c379a00000000000000000000000000000000000000000000000000000000081526004016104da90611d89565b60405180910390fd5b80806001019150506102c6565b5080915050919050565b606080600060608060606000806060610511610208565b61051a57600080fd5b60005b600280549050811015610ab7576002818154811061053757fe5b90600052602060002090600802016000016040516105559190611c09565b60405180910390208b805190602001201415610aaa576002818154811061057857fe5b90600052602060002090600802016000016002828154811061059657fe5b9060005260206000209060080201600101600283815481106105b457fe5b906000526020600020906008020160020160009054906101000a900460ff16600284815481106105e057fe5b9060005260206000209060080201600301600285815481106105fe57fe5b90600052602060002090600802016004016002868154811061061c57fe5b90600052602060002090600802016005016002878154811061063a57fe5b906000526020600020906008020160060160019054906101000a900460ff166002888154811061066657fe5b906000526020600020906008020160060160009054906101000a900460ff166002898154811061069257fe5b9060005260206000209060080201600701888054600181600116156101000203166002900480601f0160208091040260200160405190810160405280929190818152602001828054600181600116156101000203166002900480156107385780601f1061070d57610100808354040283529160200191610738565b820191906000526020600020905b81548152906001019060200180831161071b57829003601f168201915b50505050509850878054600181600116156101000203166002900480601f0160208091040260200160405190810160405280929190818152602001828054600181600116156101000203166002900480156107d45780601f106107a9576101008083540402835291602001916107d4565b820191906000526020600020905b8154815290600101906020018083116107b757829003601f168201915b50505050509750858054600181600116156101000203166002900480601f0160208091040260200160405190810160405280929190818152602001828054600181600116156101000203166002900480156108705780601f1061084557610100808354040283529160200191610870565b820191906000526020600020905b81548152906001019060200180831161085357829003601f168201915b50505050509550848054600181600116156101000203166002900480601f01602080910402602001604051908101604052809291908181526020018280546001816001161561010002031660029004801561090c5780601f106108e15761010080835404028352916020019161090c565b820191906000526020600020905b8154815290600101906020018083116108ef57829003601f168201915b50505050509450838054600181600116156101000203166002900480601f0160208091040260200160405190810160405280929190818152602001828054600181600116156101000203166002900480156109a85780601f1061097d576101008083540402835291602001916109a8565b820191906000526020600020905b81548152906001019060200180831161098b57829003601f168201915b5050505050935080805480602002602001604051908101604052809291908181526020016000905b82821015610a8c578382906000526020600020018054600181600116156101000203166002900480601f016020809104026020016040519081016040528092919081815260200182805460018160011615610100020316600290048015610a785780601f10610a4d57610100808354040283529160200191610a78565b820191906000526020600020905b815481529060010190602001808311610a5b57829003601f168201915b5050505050815260200190600101906109d0565b50505050905099509950995099509950995099509950995050610ab9565b808060010191505061051d565b505b9193959799909294969850565b610ace610208565b610ad757600080fd5b6000815111610ae557600080fd5b60005b600280549050811015610b9c5760028181548110610b0257fe5b9060005260206000209060080201600001604051610b209190611c09565b604051809103902083805190602001201415610b8f5760028181548110610b4357fe5b906000526020600020906008020160070182908060018154018082558091505060019003906000526020600020016000909190919091509080519060200190610b8d929190611487565b505b8080600101915050610ae8565b505050565b3373ffffffffffffffffffffffffffffffffffffffff166000809054906101000a900473ffffffffffffffffffffffffffffffffffffffff1673ffffffffffffffffffffffffffffffffffffffff1614610bfa57600080fd5b610c02611507565b60405180608001604052808673ffffffffffffffffffffffffffffffffffffffff168152602001858152602001848152602001838152509050600381908060018154018082558091505060019003906000526020600020906004020160009091909190915060008201518160000160006101000a81548173ffffffffffffffffffffffffffffffffffffffff021916908373ffffffffffffffffffffffffffffffffffffffff1602179055506020820151816001019080519060200190610cca929190611487565b506040820151816002019080519060200190610ce7929190611487565b506060820151816003019080519060200190610d04929190611487565b5050505050505050565b610d16610208565b610d1f57600080fd5b610d27611545565b6040518061012001604052808681526020018581526020018460ff168152602001838152602001604051806020016040528060008152508152602001604051806020016040528060008152508152602001600060ff168152602001600060ff168152602001600067ffffffffffffffff81118015610da457600080fd5b50604051908082528060200260200182016040528015610dd857816020015b6060815260200190600190039081610dc35790505b50815250905060028190806001815401808255809150506001900390600052602060002090600802016000909190919091506000820151816000019080519060200190610e26929190611487565b506020820151816001019080519060200190610e43929190611487565b5060408201518160020160006101000a81548160ff021916908360ff1602179055506060820151816003019080519060200190610e81929190611487565b506080820151816004019080519060200190610e9e929190611487565b5060a0820151816005019080519060200190610ebb929190611487565b5060c08201518160060160006101000a81548160ff021916908360ff16021790555060e08201518160060160016101000a81548160ff021916908360ff160217905550610100820151816007019080519060200190610f1b92919061159a565b5050505050505050565b610f2d610208565b610f3657600080fd5b60005b6002805490508110156110a85760028181548110610f5357fe5b9060005260206000209060080201600001604051610f719190611c09565b604051809103902086805190602001201415611060578460028281548110610f9557fe5b90600052602060002090600802016004019080519060200190610fb9929190611487565b508360028281548110610fc857fe5b90600052602060002090600802016005019080519060200190610fec929190611487565b508260028281548110610ffb57fe5b906000526020600020906008020160060160016101000a81548160ff021916908360ff160217905550816002828154811061103257fe5b906000526020600020906008020160060160006101000a81548160ff021916908360ff16021790555061109b565b6040517f08c379a000000000000000000000000000000000000000000000000000000000815260040161109290611da9565b60405180910390fd5b8080600101915050610f39565b505050505050565b60008060009054906101000a900473ffffffffffffffffffffffffffffffffffffffff16905090565b600060608060603373ffffffffffffffffffffffffffffffffffffffff166000809054906101000a900473ffffffffffffffffffffffffffffffffffffffff1673ffffffffffffffffffffffffffffffffffffffff161461113957600080fd5b600060608060008090505b60038054905081101561140c576003818154811061115e57fe5b906000526020600020906004020160020160405161117c9190611c09565b6040518091039020898051906020012014156113ff576003818154811061119f57fe5b906000526020600020906004020160000160009054906101000a900473ffffffffffffffffffffffffffffffffffffffff169350600381815481106111e057fe5b90600052602060002090600402016001018054600181600116156101000203166002900480601f0160208091040260200160405190810160405280929190818152602001828054600181600116156101000203166002900480156112855780601f1061125a57610100808354040283529160200191611285565b820191906000526020600020905b81548152906001019060200180831161126857829003601f168201915b505050505092506003818154811061129957fe5b90600052602060002090600402016002018054600181600116156101000203166002900480601f01602080910402602001604051908101604052809291908181526020018280546001816001161561010002031660029004801561133e5780601f106113135761010080835404028352916020019161133e565b820191906000526020600020905b81548152906001019060200180831161132157829003601f168201915b505050505098506003818154811061135257fe5b90600052602060002090600402016003018054600181600116156101000203166002900480601f0160208091040260200160405190810160405280929190818152602001828054600181600116156101000203166002900480156113f75780601f106113cc576101008083540402835291602001916113f7565b820191906000526020600020905b8154815290600101906020018083116113da57829003601f168201915b505050505091505b8080600101915050611144565b508282898396509650965096505050509193509193565b60003373ffffffffffffffffffffffffffffffffffffffff166000809054906101000a900473ffffffffffffffffffffffffffffffffffffffff1673ffffffffffffffffffffffffffffffffffffffff1614156114835760019050611484565b5b90565b828054600181600116156101000203166002900490600052602060002090601f016020900481019282601f106114c857805160ff19168380011785556114f6565b828001600101855582156114f6579182015b828111156114f55782518255916020019190600101906114da565b5b50905061150391906115fa565b5090565b6040518060800160405280600073ffffffffffffffffffffffffffffffffffffffff1681526020016060815260200160608152602001606081525090565b6040518061012001604052806060815260200160608152602001600060ff168152602001606081526020016060815260200160608152602001600060ff168152602001600060ff168152602001606081525090565b8280548282559060005260206000209081019282156115e9579160200282015b828111156115e85782518290805190602001906115d8929190611487565b50916020019190600101906115ba565b5b5090506115f6919061161f565b5090565b61161c91905b80821115611618576000816000905550600101611600565b5090565b90565b61164891905b80821115611644576000818161163b919061164b565b50600101611625565b5090565b90565b50805460018160011615610100020316600290046000825580601f106116715750611690565b601f01602090049060005260206000209081019061168f91906115fa565b5b50565b6000813590506116a281611f46565b92915050565b600082601f8301126116b957600080fd5b81356116cc6116c782611df6565b611dc9565b915080825260208301602083018583830111156116e857600080fd5b6116f3838284611ef3565b50505092915050565b60008135905061170b81611f5d565b92915050565b6000806000806080858703121561172757600080fd5b600061173587828801611693565b945050602085013567ffffffffffffffff81111561175257600080fd5b61175e878288016116a8565b935050604085013567ffffffffffffffff81111561177b57600080fd5b611787878288016116a8565b925050606085013567ffffffffffffffff8111156117a457600080fd5b6117b0878288016116a8565b91505092959194509250565b6000602082840312156117ce57600080fd5b600082013567ffffffffffffffff8111156117e857600080fd5b6117f4848285016116a8565b91505092915050565b6000806040838503121561181057600080fd5b600083013567ffffffffffffffff81111561182a57600080fd5b611836858286016116a8565b925050602083013567ffffffffffffffff81111561185357600080fd5b61185f858286016116a8565b9150509250929050565b600080600080600060a0868803121561188157600080fd5b600086013567ffffffffffffffff81111561189b57600080fd5b6118a7888289016116a8565b955050602086013567ffffffffffffffff8111156118c457600080fd5b6118d0888289016116a8565b945050604086013567ffffffffffffffff8111156118ed57600080fd5b6118f9888289016116a8565b935050606061190a888289016116fc565b925050608061191b888289016116fc565b9150509295509295909350565b6000806000806080858703121561193e57600080fd5b600085013567ffffffffffffffff81111561195857600080fd5b611964878288016116a8565b945050602085013567ffffffffffffffff81111561198157600080fd5b61198d878288016116a8565b935050604061199e878288016116fc565b925050606085013567ffffffffffffffff8111156119bb57600080fd5b6119c7878288016116a8565b91505092959194509250565b60006119df8383611b08565b905092915050565b6119f081611ea8565b82525050565b6000611a0182611e47565b611a0b8185611e6a565b935083602082028501611a1d85611e22565b8060005b85811015611a595784840389528151611a3a85826119d3565b9450611a4583611e5d565b925060208a01995050600181019050611a21565b50829750879550505050505092915050565b611a7481611eba565b82525050565b600081546001811660008114611a975760018114611abc57611b00565b607f6002830416611aa88187611e7b565b955060ff1983168652808601935050611b00565b60028204611aca8187611e7b565b9550611ad585611e32565b60005b82811015611af757815481890152600182019150602081019050611ad8565b82880195505050505b505092915050565b6000611b1382611e52565b611b1d8185611e86565b9350611b2d818560208601611f02565b611b3681611f35565b840191505092915050565b6000611b4c82611e52565b611b568185611e97565b9350611b66818560208601611f02565b611b6f81611f35565b840191505092915050565b6000611b87600983611e97565b91507f4e494b2073616c616800000000000000000000000000000000000000000000006000830152602082019050919050565b6000611bc7600983611e97565b91507f4e494b2053616c616800000000000000000000000000000000000000000000006000830152602082019050919050565b611c0381611ee6565b82525050565b6000611c158284611a7a565b915081905092915050565b6000602082019050611c3560008301846119e7565b92915050565b6000608082019050611c5060008301876119e7565b8181036020830152611c628186611b41565b90508181036040830152611c768185611b41565b90508181036060830152611c8a8184611b41565b905095945050505050565b60006020820190508181036000830152611caf81846119f6565b905092915050565b6000602082019050611ccc6000830184611a6b565b92915050565b6000610120820190508181036000830152611ced818c611b41565b90508181036020830152611d01818b611b41565b9050611d10604083018a611bfa565b8181036060830152611d228189611b41565b90508181036080830152611d368188611b41565b905081810360a0830152611d4a8187611b41565b9050611d5960c0830186611bfa565b611d6660e0830185611bfa565b818103610100830152611d7981846119f6565b90509a9950505050505050505050565b60006020820190508181036000830152611da281611b7a565b9050919050565b60006020820190508181036000830152611dc281611bba565b9050919050565b6000604051905081810181811067ffffffffffffffff82111715611dec57600080fd5b8060405250919050565b600067ffffffffffffffff821115611e0d57600080fd5b601f19601f8301169050602081019050919050565b6000819050602082019050919050565b60008190508160005260206000209050919050565b600081519050919050565b600081519050919050565b6000602082019050919050565b600082825260208201905092915050565b600081905092915050565b600082825260208201905092915050565b600082825260208201905092915050565b6000611eb382611ec6565b9050919050565b60008115159050919050565b600073ffffffffffffffffffffffffffffffffffffffff82169050919050565b600060ff82169050919050565b82818337600083830152505050565b60005b83811015611f20578082015181840152602081019050611f05565b83811115611f2f576000848401525b50505050565b6000601f19601f8301169050919050565b611f4f81611ea8565b8114611f5a57600080fd5b50565b611f6681611ee6565b8114611f7157600080fd5b5056fea26469706673582212203d23cc0a9a25c5b8dd2ad9226324dbfedf241469e929d198338aa4696e74b2b464736f6c63430006060033",
      "opcodes": "PUSH1 0x80 PUSH1 0x40 MSTORE CALLVALUE DUP1 ISZERO PUSH3 0x11 JUMPI PUSH1 0x0 DUP1 REVERT JUMPDEST POP CALLER PUSH1 0x0 DUP1 PUSH2 0x100 EXP DUP2 SLOAD DUP2 PUSH20 0xFFFFFFFFFFFFFFFFFFFFFFFFFFFFFFFFFFFFFFFF MUL NOT AND SWAP1 DUP4 PUSH20 0xFFFFFFFFFFFFFFFFFFFFFFFFFFFFFFFFFFFFFFFF AND MUL OR SWAP1 SSTORE POP PUSH1 0x0 PUSH1 0x1 DUP2 SWAP1 SSTORE POP PUSH3 0x121 PUSH20 0x8BD997AB0ABD89E9A23FF3CCCE5A71DDE6326F9A PUSH1 0x40 MLOAD DUP1 PUSH1 0x40 ADD PUSH1 0x40 MSTORE DUP1 PUSH1 0x19 DUP2 MSTORE PUSH1 0x20 ADD PUSH32 0x52756D61682053616B69742057696A61796120576979756E6700000000000000 DUP2 MSTORE POP PUSH1 0x40 MLOAD DUP1 PUSH1 0x40 ADD PUSH1 0x40 MSTORE DUP1 PUSH1 0x3 DUP2 MSTORE PUSH1 0x20 ADD PUSH32 0x3132330000000000000000000000000000000000000000000000000000000000 DUP2 MSTORE POP PUSH1 0x40 MLOAD DUP1 PUSH1 0x40 ADD PUSH1 0x40 MSTORE DUP1 PUSH1 0xF DUP2 MSTORE PUSH1 0x20 ADD PUSH32 0x576979756E672053757261626179610000000000000000000000000000000000 DUP2 MSTORE POP PUSH3 0x127 PUSH1 0x20 SHL PUSH1 0x20 SHR JUMP JUMPDEST PUSH3 0x38A JUMP JUMPDEST CALLER PUSH20 0xFFFFFFFFFFFFFFFFFFFFFFFFFFFFFFFFFFFFFFFF AND PUSH1 0x0 DUP1 SWAP1 SLOAD SWAP1 PUSH2 0x100 EXP SWAP1 DIV PUSH20 0xFFFFFFFFFFFFFFFFFFFFFFFFFFFFFFFFFFFFFFFF AND PUSH20 0xFFFFFFFFFFFFFFFFFFFFFFFFFFFFFFFFFFFFFFFF AND EQ PUSH3 0x181 JUMPI PUSH1 0x0 DUP1 REVERT JUMPDEST PUSH3 0x18B PUSH3 0x29D JUMP JUMPDEST PUSH1 0x40 MLOAD DUP1 PUSH1 0x80 ADD PUSH1 0x40 MSTORE DUP1 DUP7 PUSH20 0xFFFFFFFFFFFFFFFFFFFFFFFFFFFFFFFFFFFFFFFF AND DUP2 MSTORE PUSH1 0x20 ADD DUP6 DUP2 MSTORE PUSH1 0x20 ADD DUP5 DUP2 MSTORE PUSH1 0x20 ADD DUP4 DUP2 MSTORE POP SWAP1 POP PUSH1 0x3 DUP2 SWAP1 DUP1 PUSH1 0x1 DUP2 SLOAD ADD DUP1 DUP3 SSTORE DUP1 SWAP2 POP POP PUSH1 0x1 SWAP1 SUB SWAP1 PUSH1 0x0 MSTORE PUSH1 0x20 PUSH1 0x0 KECCAK256 SWAP1 PUSH1 0x4 MUL ADD PUSH1 0x0 SWAP1 SWAP2 SWAP1 SWAP2 SWAP1 SWAP2 POP PUSH1 0x0 DUP3 ADD MLOAD DUP2 PUSH1 0x0 ADD PUSH1 0x0 PUSH2 0x100 EXP DUP2 SLOAD DUP2 PUSH20 0xFFFFFFFFFFFFFFFFFFFFFFFFFFFFFFFFFFFFFFFF MUL NOT AND SWAP1 DUP4 PUSH20 0xFFFFFFFFFFFFFFFFFFFFFFFFFFFFFFFFFFFFFFFF AND MUL OR SWAP1 SSTORE POP PUSH1 0x20 DUP3 ADD MLOAD DUP2 PUSH1 0x1 ADD SWAP1 DUP1 MLOAD SWAP1 PUSH1 0x20 ADD SWAP1 PUSH3 0x255 SWAP3 SWAP2 SWAP1 PUSH3 0x2DB JUMP JUMPDEST POP PUSH1 0x40 DUP3 ADD MLOAD DUP2 PUSH1 0x2 ADD SWAP1 DUP1 MLOAD SWAP1 PUSH1 0x20 ADD SWAP1 PUSH3 0x274 SWAP3 SWAP2 SWAP1 PUSH3 0x2DB JUMP JUMPDEST POP PUSH1 0x60 DUP3 ADD MLOAD DUP2 PUSH1 0x3 ADD SWAP1 DUP1 MLOAD SWAP1 PUSH1 0x20 ADD SWAP1 PUSH3 0x293 SWAP3 SWAP2 SWAP1 PUSH3 0x2DB JUMP JUMPDEST POP POP POP POP POP POP POP POP JUMP JUMPDEST PUSH1 0x40 MLOAD DUP1 PUSH1 0x80 ADD PUSH1 0x40 MSTORE DUP1 PUSH1 0x0 PUSH20 0xFFFFFFFFFFFFFFFFFFFFFFFFFFFFFFFFFFFFFFFF AND DUP2 MSTORE PUSH1 0x20 ADD PUSH1 0x60 DUP2 MSTORE PUSH1 0x20 ADD PUSH1 0x60 DUP2 MSTORE PUSH1 0x20 ADD PUSH1 0x60 DUP2 MSTORE POP SWAP1 JUMP JUMPDEST DUP3 DUP1 SLOAD PUSH1 0x1 DUP2 PUSH1 0x1 AND ISZERO PUSH2 0x100 MUL SUB AND PUSH1 0x2 SWAP1 DIV SWAP1 PUSH1 0x0 MSTORE PUSH1 0x20 PUSH1 0x0 KECCAK256 SWAP1 PUSH1 0x1F ADD PUSH1 0x20 SWAP1 DIV DUP2 ADD SWAP3 DUP3 PUSH1 0x1F LT PUSH3 0x31E JUMPI DUP1 MLOAD PUSH1 0xFF NOT AND DUP4 DUP1 ADD OR DUP6 SSTORE PUSH3 0x34F JUMP JUMPDEST DUP3 DUP1 ADD PUSH1 0x1 ADD DUP6 SSTORE DUP3 ISZERO PUSH3 0x34F JUMPI SWAP2 DUP3 ADD JUMPDEST DUP3 DUP2 GT ISZERO PUSH3 0x34E JUMPI DUP3 MLOAD DUP3 SSTORE SWAP2 PUSH1 0x20 ADD SWAP2 SWAP1 PUSH1 0x1 ADD SWAP1 PUSH3 0x331 JUMP JUMPDEST JUMPDEST POP SWAP1 POP PUSH3 0x35E SWAP2 SWAP1 PUSH3 0x362 JUMP JUMPDEST POP SWAP1 JUMP JUMPDEST PUSH3 0x387 SWAP2 SWAP1 JUMPDEST DUP1 DUP3 GT ISZERO PUSH3 0x383 JUMPI PUSH1 0x0 DUP2 PUSH1 0x0 SWAP1 SSTORE POP PUSH1 0x1 ADD PUSH3 0x369 JUMP JUMPDEST POP SWAP1 JUMP JUMPDEST SWAP1 JUMP JUMPDEST PUSH2 0x1FAA DUP1 PUSH3 0x39A PUSH1 0x0 CODECOPY PUSH1 0x0 RETURN INVALID PUSH1 0x80 PUSH1 0x40 MSTORE CALLVALUE DUP1 ISZERO PUSH2 0x10 JUMPI PUSH1 0x0 DUP1 REVERT JUMPDEST POP PUSH1 0x4 CALLDATASIZE LT PUSH2 0x9E JUMPI PUSH1 0x0 CALLDATALOAD PUSH1 0xE0 SHR DUP1 PUSH4 0xA480FEF3 GT PUSH2 0x66 JUMPI DUP1 PUSH4 0xA480FEF3 EQ PUSH2 0x161 JUMPI DUP1 PUSH4 0xA61CEF0C EQ PUSH2 0x17D JUMPI DUP1 PUSH4 0xD5009584 EQ PUSH2 0x199 JUMPI DUP1 PUSH4 0xE39BE646 EQ PUSH2 0x1B7 JUMPI DUP1 PUSH4 0xFB2CB8F3 EQ PUSH2 0x1EA JUMPI PUSH2 0x9E JUMP JUMPDEST DUP1 PUSH4 0x115ADA66 EQ PUSH2 0xA3 JUMPI DUP1 PUSH4 0x2DB67237 EQ PUSH2 0xC1 JUMPI DUP1 PUSH4 0x571F2AC1 EQ PUSH2 0xF1 JUMPI DUP1 PUSH4 0x694E54BF EQ PUSH2 0x129 JUMPI DUP1 PUSH4 0xA3E9B558 EQ PUSH2 0x145 JUMPI JUMPDEST PUSH1 0x0 DUP1 REVERT JUMPDEST PUSH2 0xAB PUSH2 0x208 JUMP JUMPDEST PUSH1 0x40 MLOAD PUSH2 0xB8 SWAP2 SWAP1 PUSH2 0x1CB7 JUMP JUMPDEST PUSH1 0x40 MLOAD DUP1 SWAP2 SUB SWAP1 RETURN JUMPDEST PUSH2 0xDB PUSH1 0x4 DUP1 CALLDATASIZE SUB DUP2 ADD SWAP1 PUSH2 0xD6 SWAP2 SWAP1 PUSH2 0x17BC JUMP JUMPDEST PUSH2 0x2AB JUMP JUMPDEST PUSH1 0x40 MLOAD PUSH2 0xE8 SWAP2 SWAP1 PUSH2 0x1C95 JUMP JUMPDEST PUSH1 0x40 MLOAD DUP1 SWAP2 SUB SWAP1 RETURN JUMPDEST PUSH2 0x10B PUSH1 0x4 DUP1 CALLDATASIZE SUB DUP2 ADD SWAP1 PUSH2 0x106 SWAP2 SWAP1 PUSH2 0x17BC JUMP JUMPDEST PUSH2 0x4FA JUMP JUMPDEST PUSH1 0x40 MLOAD PUSH2 0x120 SWAP10 SWAP9 SWAP8 SWAP7 SWAP6 SWAP5 SWAP4 SWAP3 SWAP2 SWAP1 PUSH2 0x1CD2 JUMP JUMPDEST PUSH1 0x40 MLOAD DUP1 SWAP2 SUB SWAP1 RETURN JUMPDEST PUSH2 0x143 PUSH1 0x4 DUP1 CALLDATASIZE SUB DUP2 ADD SWAP1 PUSH2 0x13E SWAP2 SWAP1 PUSH2 0x17FD JUMP JUMPDEST PUSH2 0xAC6 JUMP JUMPDEST STOP JUMPDEST PUSH2 0x15F PUSH1 0x4 DUP1 CALLDATASIZE SUB DUP2 ADD SWAP1 PUSH2 0x15A SWAP2 SWAP1 PUSH2 0x1711 JUMP JUMPDEST PUSH2 0xBA1 JUMP JUMPDEST STOP JUMPDEST PUSH2 0x17B PUSH1 0x4 DUP1 CALLDATASIZE SUB DUP2 ADD SWAP1 PUSH2 0x176 SWAP2 SWAP1 PUSH2 0x1928 JUMP JUMPDEST PUSH2 0xD0E JUMP JUMPDEST STOP JUMPDEST PUSH2 0x197 PUSH1 0x4 DUP1 CALLDATASIZE SUB DUP2 ADD SWAP1 PUSH2 0x192 SWAP2 SWAP1 PUSH2 0x1869 JUMP JUMPDEST PUSH2 0xF25 JUMP JUMPDEST STOP JUMPDEST PUSH2 0x1A1 PUSH2 0x10B0 JUMP JUMPDEST PUSH1 0x40 MLOAD PUSH2 0x1AE SWAP2 SWAP1 PUSH2 0x1C20 JUMP JUMPDEST PUSH1 0x40 MLOAD DUP1 SWAP2 SUB SWAP1 RETURN JUMPDEST PUSH2 0x1D1 PUSH1 0x4 DUP1 CALLDATASIZE SUB DUP2 ADD SWAP1 PUSH2 0x1CC SWAP2 SWAP1 PUSH2 0x17BC JUMP JUMPDEST PUSH2 0x10D9 JUMP JUMPDEST PUSH1 0x40 MLOAD PUSH2 0x1E1 SWAP5 SWAP4 SWAP3 SWAP2 SWAP1 PUSH2 0x1C3B JUMP JUMPDEST PUSH1 0x40 MLOAD DUP1 SWAP2 SUB SWAP1 RETURN JUMPDEST PUSH2 0x1F2 PUSH2 0x1423 JUMP JUMPDEST PUSH1 0x40 MLOAD PUSH2 0x1FF SWAP2 SWAP1 PUSH2 0x1CB7 JUMP JUMPDEST PUSH1 0x40 MLOAD DUP1 SWAP2 SUB SWAP1 RETURN JUMPDEST PUSH1 0x0 DUP1 PUSH1 0x0 SWAP1 POP JUMPDEST PUSH1 0x3 DUP1 SLOAD SWAP1 POP DUP2 LT ISZERO PUSH2 0x2A6 JUMPI PUSH1 0x3 DUP2 DUP2 SLOAD DUP2 LT PUSH2 0x22A JUMPI INVALID JUMPDEST SWAP1 PUSH1 0x0 MSTORE PUSH1 0x20 PUSH1 0x0 KECCAK256 SWAP1 PUSH1 0x4 MUL ADD PUSH1 0x0 ADD PUSH1 0x0 SWAP1 SLOAD SWAP1 PUSH2 0x100 EXP SWAP1 DIV PUSH20 0xFFFFFFFFFFFFFFFFFFFFFFFFFFFFFFFFFFFFFFFF AND PUSH20 0xFFFFFFFFFFFFFFFFFFFFFFFFFFFFFFFFFFFFFFFF AND CALLER PUSH20 0xFFFFFFFFFFFFFFFFFFFFFFFFFFFFFFFFFFFFFFFF AND EQ ISZERO PUSH2 0x299 JUMPI PUSH1 0x1 SWAP2 POP POP PUSH2 0x2A8 JUMP JUMPDEST DUP1 DUP1 PUSH1 0x1 ADD SWAP2 POP POP PUSH2 0x210 JUMP JUMPDEST POP JUMPDEST SWAP1 JUMP JUMPDEST PUSH1 0x60 PUSH2 0x2B5 PUSH2 0x208 JUMP JUMPDEST PUSH2 0x2BE JUMPI PUSH1 0x0 DUP1 REVERT JUMPDEST PUSH1 0x60 PUSH1 0x0 DUP1 SWAP1 POP JUMPDEST PUSH1 0x2 DUP1 SLOAD SWAP1 POP DUP2 LT ISZERO PUSH2 0x4F0 JUMPI PUSH1 0x2 DUP2 DUP2 SLOAD DUP2 LT PUSH2 0x2E0 JUMPI INVALID JUMPDEST SWAP1 PUSH1 0x0 MSTORE PUSH1 0x20 PUSH1 0x0 KECCAK256 SWAP1 PUSH1 0x8 MUL ADD PUSH1 0x0 ADD PUSH1 0x40 MLOAD PUSH2 0x2FE SWAP2 SWAP1 PUSH2 0x1C09 JUMP JUMPDEST PUSH1 0x40 MLOAD DUP1 SWAP2 SUB SWAP1 KECCAK256 DUP5 DUP1 MLOAD SWAP1 PUSH1 0x20 ADD KECCAK256 EQ ISZERO PUSH2 0x4A8 JUMPI PUSH1 0x2 DUP2 DUP2 SLOAD DUP2 LT PUSH2 0x321 JUMPI INVALID JUMPDEST SWAP1 PUSH1 0x0 MSTORE PUSH1 0x20 PUSH1 0x0 KECCAK256 SWAP1 PUSH1 0x8 MUL ADD PUSH1 0x7 ADD DUP1 SLOAD SWAP1 POP PUSH8 0xFFFFFFFFFFFFFFFF DUP2 GT DUP1 ISZERO PUSH2 0x34C JUMPI PUSH1 0x0 DUP1 REVERT JUMPDEST POP PUSH1 0x40 MLOAD SWAP1 DUP1 DUP3 MSTORE DUP1 PUSH1 0x20 MUL PUSH1 0x20 ADD DUP3 ADD PUSH1 0x40 MSTORE DUP1 ISZERO PUSH2 0x380 JUMPI DUP2 PUSH1 0x20 ADD JUMPDEST PUSH1 0x60 DUP2 MSTORE PUSH1 0x20 ADD SWAP1 PUSH1 0x1 SWAP1 SUB SWAP1 DUP2 PUSH2 0x36B JUMPI SWAP1 POP JUMPDEST POP SWAP2 POP PUSH1 0x0 DUP1 SWAP1 POP JUMPDEST PUSH1 0x2 DUP3 DUP2 SLOAD DUP2 LT PUSH2 0x396 JUMPI INVALID JUMPDEST SWAP1 PUSH1 0x0 MSTORE PUSH1 0x20 PUSH1 0x0 KECCAK256 SWAP1 PUSH1 0x8 MUL ADD PUSH1 0x7 ADD DUP1 SLOAD SWAP1 POP DUP2 LT ISZERO PUSH2 0x4A2 JUMPI PUSH1 0x2 DUP3 DUP2 SLOAD DUP2 LT PUSH2 0x3BF JUMPI INVALID JUMPDEST SWAP1 PUSH1 0x0 MSTORE PUSH1 0x20 PUSH1 0x0 KECCAK256 SWAP1 PUSH1 0x8 MUL ADD PUSH1 0x7 ADD DUP2 DUP2 SLOAD DUP2 LT PUSH2 0x3DB JUMPI INVALID JUMPDEST SWAP1 PUSH1 0x0 MSTORE PUSH1 0x20 PUSH1 0x0 KECCAK256 ADD DUP1 SLOAD PUSH1 0x1 DUP2 PUSH1 0x1 AND ISZERO PUSH2 0x100 MUL SUB AND PUSH1 0x2 SWAP1 DIV DUP1 PUSH1 0x1F ADD PUSH1 0x20 DUP1 SWAP2 DIV MUL PUSH1 0x20 ADD PUSH1 0x40 MLOAD SWAP1 DUP2 ADD PUSH1 0x40 MSTORE DUP1 SWAP3 SWAP2 SWAP1 DUP2 DUP2 MSTORE PUSH1 0x20 ADD DUP3 DUP1 SLOAD PUSH1 0x1 DUP2 PUSH1 0x1 AND ISZERO PUSH2 0x100 MUL SUB AND PUSH1 0x2 SWAP1 DIV DUP1 ISZERO PUSH2 0x479 JUMPI DUP1 PUSH1 0x1F LT PUSH2 0x44E JUMPI PUSH2 0x100 DUP1 DUP4 SLOAD DIV MUL DUP4 MSTORE SWAP2 PUSH1 0x20 ADD SWAP2 PUSH2 0x479 JUMP JUMPDEST DUP3 ADD SWAP2 SWAP1 PUSH1 0x0 MSTORE PUSH1 0x20 PUSH1 0x0 KECCAK256 SWAP1 JUMPDEST DUP2 SLOAD DUP2 MSTORE SWAP1 PUSH1 0x1 ADD SWAP1 PUSH1 0x20 ADD DUP1 DUP4 GT PUSH2 0x45C JUMPI DUP3 SWAP1 SUB PUSH1 0x1F AND DUP3 ADD SWAP2 JUMPDEST POP POP POP POP POP DUP4 DUP3 DUP2 MLOAD DUP2 LT PUSH2 0x48A JUMPI INVALID JUMPDEST PUSH1 0x20 MUL PUSH1 0x20 ADD ADD DUP2 SWAP1 MSTORE POP DUP1 DUP1 PUSH1 0x1 ADD SWAP2 POP POP PUSH2 0x389 JUMP JUMPDEST POP PUSH2 0x4E3 JUMP JUMPDEST PUSH1 0x40 MLOAD PUSH32 0x8C379A000000000000000000000000000000000000000000000000000000000 DUP2 MSTORE PUSH1 0x4 ADD PUSH2 0x4DA SWAP1 PUSH2 0x1D89 JUMP JUMPDEST PUSH1 0x40 MLOAD DUP1 SWAP2 SUB SWAP1 REVERT JUMPDEST DUP1 DUP1 PUSH1 0x1 ADD SWAP2 POP POP PUSH2 0x2C6 JUMP JUMPDEST POP DUP1 SWAP2 POP POP SWAP2 SWAP1 POP JUMP JUMPDEST PUSH1 0x60 DUP1 PUSH1 0x0 PUSH1 0x60 DUP1 PUSH1 0x60 PUSH1 0x0 DUP1 PUSH1 0x60 PUSH2 0x511 PUSH2 0x208 JUMP JUMPDEST PUSH2 0x51A JUMPI PUSH1 0x0 DUP1 REVERT JUMPDEST PUSH1 0x0 JUMPDEST PUSH1 0x2 DUP1 SLOAD SWAP1 POP DUP2 LT ISZERO PUSH2 0xAB7 JUMPI PUSH1 0x2 DUP2 DUP2 SLOAD DUP2 LT PUSH2 0x537 JUMPI INVALID JUMPDEST SWAP1 PUSH1 0x0 MSTORE PUSH1 0x20 PUSH1 0x0 KECCAK256 SWAP1 PUSH1 0x8 MUL ADD PUSH1 0x0 ADD PUSH1 0x40 MLOAD PUSH2 0x555 SWAP2 SWAP1 PUSH2 0x1C09 JUMP JUMPDEST PUSH1 0x40 MLOAD DUP1 SWAP2 SUB SWAP1 KECCAK256 DUP12 DUP1 MLOAD SWAP1 PUSH1 0x20 ADD KECCAK256 EQ ISZERO PUSH2 0xAAA JUMPI PUSH1 0x2 DUP2 DUP2 SLOAD DUP2 LT PUSH2 0x578 JUMPI INVALID JUMPDEST SWAP1 PUSH1 0x0 MSTORE PUSH1 0x20 PUSH1 0x0 KECCAK256 SWAP1 PUSH1 0x8 MUL ADD PUSH1 0x0 ADD PUSH1 0x2 DUP3 DUP2 SLOAD DUP2 LT PUSH2 0x596 JUMPI INVALID JUMPDEST SWAP1 PUSH1 0x0 MSTORE PUSH1 0x20 PUSH1 0x0 KECCAK256 SWAP1 PUSH1 0x8 MUL ADD PUSH1 0x1 ADD PUSH1 0x2 DUP4 DUP2 SLOAD DUP2 LT PUSH2 0x5B4 JUMPI INVALID JUMPDEST SWAP1 PUSH1 0x0 MSTORE PUSH1 0x20 PUSH1 0x0 KECCAK256 SWAP1 PUSH1 0x8 MUL ADD PUSH1 0x2 ADD PUSH1 0x0 SWAP1 SLOAD SWAP1 PUSH2 0x100 EXP SWAP1 DIV PUSH1 0xFF AND PUSH1 0x2 DUP5 DUP2 SLOAD DUP2 LT PUSH2 0x5E0 JUMPI INVALID JUMPDEST SWAP1 PUSH1 0x0 MSTORE PUSH1 0x20 PUSH1 0x0 KECCAK256 SWAP1 PUSH1 0x8 MUL ADD PUSH1 0x3 ADD PUSH1 0x2 DUP6 DUP2 SLOAD DUP2 LT PUSH2 0x5FE JUMPI INVALID JUMPDEST SWAP1 PUSH1 0x0 MSTORE PUSH1 0x20 PUSH1 0x0 KECCAK256 SWAP1 PUSH1 0x8 MUL ADD PUSH1 0x4 ADD PUSH1 0x2 DUP7 DUP2 SLOAD DUP2 LT PUSH2 0x61C JUMPI INVALID JUMPDEST SWAP1 PUSH1 0x0 MSTORE PUSH1 0x20 PUSH1 0x0 KECCAK256 SWAP1 PUSH1 0x8 MUL ADD PUSH1 0x5 ADD PUSH1 0x2 DUP8 DUP2 SLOAD DUP2 LT PUSH2 0x63A JUMPI INVALID JUMPDEST SWAP1 PUSH1 0x0 MSTORE PUSH1 0x20 PUSH1 0x0 KECCAK256 SWAP1 PUSH1 0x8 MUL ADD PUSH1 0x6 ADD PUSH1 0x1 SWAP1 SLOAD SWAP1 PUSH2 0x100 EXP SWAP1 DIV PUSH1 0xFF AND PUSH1 0x2 DUP9 DUP2 SLOAD DUP2 LT PUSH2 0x666 JUMPI INVALID JUMPDEST SWAP1 PUSH1 0x0 MSTORE PUSH1 0x20 PUSH1 0x0 KECCAK256 SWAP1 PUSH1 0x8 MUL ADD PUSH1 0x6 ADD PUSH1 0x0 SWAP1 SLOAD SWAP1 PUSH2 0x100 EXP SWAP1 DIV PUSH1 0xFF AND PUSH1 0x2 DUP10 DUP2 SLOAD DUP2 LT PUSH2 0x692 JUMPI INVALID JUMPDEST SWAP1 PUSH1 0x0 MSTORE PUSH1 0x20 PUSH1 0x0 KECCAK256 SWAP1 PUSH1 0x8 MUL ADD PUSH1 0x7 ADD DUP9 DUP1 SLOAD PUSH1 0x1 DUP2 PUSH1 0x1 AND ISZERO PUSH2 0x100 MUL SUB AND PUSH1 0x2 SWAP1 DIV DUP1 PUSH1 0x1F ADD PUSH1 0x20 DUP1 SWAP2 DIV MUL PUSH1 0x20 ADD PUSH1 0x40 MLOAD SWAP1 DUP2 ADD PUSH1 0x40 MSTORE DUP1 SWAP3 SWAP2 SWAP1 DUP2 DUP2 MSTORE PUSH1 0x20 ADD DUP3 DUP1 SLOAD PUSH1 0x1 DUP2 PUSH1 0x1 AND ISZERO PUSH2 0x100 MUL SUB AND PUSH1 0x2 SWAP1 DIV DUP1 ISZERO PUSH2 0x738 JUMPI DUP1 PUSH1 0x1F LT PUSH2 0x70D JUMPI PUSH2 0x100 DUP1 DUP4 SLOAD DIV MUL DUP4 MSTORE SWAP2 PUSH1 0x20 ADD SWAP2 PUSH2 0x738 JUMP JUMPDEST DUP3 ADD SWAP2 SWAP1 PUSH1 0x0 MSTORE PUSH1 0x20 PUSH1 0x0 KECCAK256 SWAP1 JUMPDEST DUP2 SLOAD DUP2 MSTORE SWAP1 PUSH1 0x1 ADD SWAP1 PUSH1 0x20 ADD DUP1 DUP4 GT PUSH2 0x71B JUMPI DUP3 SWAP1 SUB PUSH1 0x1F AND DUP3 ADD SWAP2 JUMPDEST POP POP POP POP POP SWAP9 POP DUP8 DUP1 SLOAD PUSH1 0x1 DUP2 PUSH1 0x1 AND ISZERO PUSH2 0x100 MUL SUB AND PUSH1 0x2 SWAP1 DIV DUP1 PUSH1 0x1F ADD PUSH1 0x20 DUP1 SWAP2 DIV MUL PUSH1 0x20 ADD PUSH1 0x40 MLOAD SWAP1 DUP2 ADD PUSH1 0x40 MSTORE DUP1 SWAP3 SWAP2 SWAP1 DUP2 DUP2 MSTORE PUSH1 0x20 ADD DUP3 DUP1 SLOAD PUSH1 0x1 DUP2 PUSH1 0x1 AND ISZERO PUSH2 0x100 MUL SUB AND PUSH1 0x2 SWAP1 DIV DUP1 ISZERO PUSH2 0x7D4 JUMPI DUP1 PUSH1 0x1F LT PUSH2 0x7A9 JUMPI PUSH2 0x100 DUP1 DUP4 SLOAD DIV MUL DUP4 MSTORE SWAP2 PUSH1 0x20 ADD SWAP2 PUSH2 0x7D4 JUMP JUMPDEST DUP3 ADD SWAP2 SWAP1 PUSH1 0x0 MSTORE PUSH1 0x20 PUSH1 0x0 KECCAK256 SWAP1 JUMPDEST DUP2 SLOAD DUP2 MSTORE SWAP1 PUSH1 0x1 ADD SWAP1 PUSH1 0x20 ADD DUP1 DUP4 GT PUSH2 0x7B7 JUMPI DUP3 SWAP1 SUB PUSH1 0x1F AND DUP3 ADD SWAP2 JUMPDEST POP POP POP POP POP SWAP8 POP DUP6 DUP1 SLOAD PUSH1 0x1 DUP2 PUSH1 0x1 AND ISZERO PUSH2 0x100 MUL SUB AND PUSH1 0x2 SWAP1 DIV DUP1 PUSH1 0x1F ADD PUSH1 0x20 DUP1 SWAP2 DIV MUL PUSH1 0x20 ADD PUSH1 0x40 MLOAD SWAP1 DUP2 ADD PUSH1 0x40 MSTORE DUP1 SWAP3 SWAP2 SWAP1 DUP2 DUP2 MSTORE PUSH1 0x20 ADD DUP3 DUP1 SLOAD PUSH1 0x1 DUP2 PUSH1 0x1 AND ISZERO PUSH2 0x100 MUL SUB AND PUSH1 0x2 SWAP1 DIV DUP1 ISZERO PUSH2 0x870 JUMPI DUP1 PUSH1 0x1F LT PUSH2 0x845 JUMPI PUSH2 0x100 DUP1 DUP4 SLOAD DIV MUL DUP4 MSTORE SWAP2 PUSH1 0x20 ADD SWAP2 PUSH2 0x870 JUMP JUMPDEST DUP3 ADD SWAP2 SWAP1 PUSH1 0x0 MSTORE PUSH1 0x20 PUSH1 0x0 KECCAK256 SWAP1 JUMPDEST DUP2 SLOAD DUP2 MSTORE SWAP1 PUSH1 0x1 ADD SWAP1 PUSH1 0x20 ADD DUP1 DUP4 GT PUSH2 0x853 JUMPI DUP3 SWAP1 SUB PUSH1 0x1F AND DUP3 ADD SWAP2 JUMPDEST POP POP POP POP POP SWAP6 POP DUP5 DUP1 SLOAD PUSH1 0x1 DUP2 PUSH1 0x1 AND ISZERO PUSH2 0x100 MUL SUB AND PUSH1 0x2 SWAP1 DIV DUP1 PUSH1 0x1F ADD PUSH1 0x20 DUP1 SWAP2 DIV MUL PUSH1 0x20 ADD PUSH1 0x40 MLOAD SWAP1 DUP2 ADD PUSH1 0x40 MSTORE DUP1 SWAP3 SWAP2 SWAP1 DUP2 DUP2 MSTORE PUSH1 0x20 ADD DUP3 DUP1 SLOAD PUSH1 0x1 DUP2 PUSH1 0x1 AND ISZERO PUSH2 0x100 MUL SUB AND PUSH1 0x2 SWAP1 DIV DUP1 ISZERO PUSH2 0x90C JUMPI DUP1 PUSH1 0x1F LT PUSH2 0x8E1 JUMPI PUSH2 0x100 DUP1 DUP4 SLOAD DIV MUL DUP4 MSTORE SWAP2 PUSH1 0x20 ADD SWAP2 PUSH2 0x90C JUMP JUMPDEST DUP3 ADD SWAP2 SWAP1 PUSH1 0x0 MSTORE PUSH1 0x20 PUSH1 0x0 KECCAK256 SWAP1 JUMPDEST DUP2 SLOAD DUP2 MSTORE SWAP1 PUSH1 0x1 ADD SWAP1 PUSH1 0x20 ADD DUP1 DUP4 GT PUSH2 0x8EF JUMPI DUP3 SWAP1 SUB PUSH1 0x1F AND DUP3 ADD SWAP2 JUMPDEST POP POP POP POP POP SWAP5 POP DUP4 DUP1 SLOAD PUSH1 0x1 DUP2 PUSH1 0x1 AND ISZERO PUSH2 0x100 MUL SUB AND PUSH1 0x2 SWAP1 DIV DUP1 PUSH1 0x1F ADD PUSH1 0x20 DUP1 SWAP2 DIV MUL PUSH1 0x20 ADD PUSH1 0x40 MLOAD SWAP1 DUP2 ADD PUSH1 0x40 MSTORE DUP1 SWAP3 SWAP2 SWAP1 DUP2 DUP2 MSTORE PUSH1 0x20 ADD DUP3 DUP1 SLOAD PUSH1 0x1 DUP2 PUSH1 0x1 AND ISZERO PUSH2 0x100 MUL SUB AND PUSH1 0x2 SWAP1 DIV DUP1 ISZERO PUSH2 0x9A8 JUMPI DUP1 PUSH1 0x1F LT PUSH2 0x97D JUMPI PUSH2 0x100 DUP1 DUP4 SLOAD DIV MUL DUP4 MSTORE SWAP2 PUSH1 0x20 ADD SWAP2 PUSH2 0x9A8 JUMP JUMPDEST DUP3 ADD SWAP2 SWAP1 PUSH1 0x0 MSTORE PUSH1 0x20 PUSH1 0x0 KECCAK256 SWAP1 JUMPDEST DUP2 SLOAD DUP2 MSTORE SWAP1 PUSH1 0x1 ADD SWAP1 PUSH1 0x20 ADD DUP1 DUP4 GT PUSH2 0x98B JUMPI DUP3 SWAP1 SUB PUSH1 0x1F AND DUP3 ADD SWAP2 JUMPDEST POP POP POP POP POP SWAP4 POP DUP1 DUP1 SLOAD DUP1 PUSH1 0x20 MUL PUSH1 0x20 ADD PUSH1 0x40 MLOAD SWAP1 DUP2 ADD PUSH1 0x40 MSTORE DUP1 SWAP3 SWAP2 SWAP1 DUP2 DUP2 MSTORE PUSH1 0x20 ADD PUSH1 0x0 SWAP1 JUMPDEST DUP3 DUP3 LT ISZERO PUSH2 0xA8C JUMPI DUP4 DUP3 SWAP1 PUSH1 0x0 MSTORE PUSH1 0x20 PUSH1 0x0 KECCAK256 ADD DUP1 SLOAD PUSH1 0x1 DUP2 PUSH1 0x1 AND ISZERO PUSH2 0x100 MUL SUB AND PUSH1 0x2 SWAP1 DIV DUP1 PUSH1 0x1F ADD PUSH1 0x20 DUP1 SWAP2 DIV MUL PUSH1 0x20 ADD PUSH1 0x40 MLOAD SWAP1 DUP2 ADD PUSH1 0x40 MSTORE DUP1 SWAP3 SWAP2 SWAP1 DUP2 DUP2 MSTORE PUSH1 0x20 ADD DUP3 DUP1 SLOAD PUSH1 0x1 DUP2 PUSH1 0x1 AND ISZERO PUSH2 0x100 MUL SUB AND PUSH1 0x2 SWAP1 DIV DUP1 ISZERO PUSH2 0xA78 JUMPI DUP1 PUSH1 0x1F LT PUSH2 0xA4D JUMPI PUSH2 0x100 DUP1 DUP4 SLOAD DIV MUL DUP4 MSTORE SWAP2 PUSH1 0x20 ADD SWAP2 PUSH2 0xA78 JUMP JUMPDEST DUP3 ADD SWAP2 SWAP1 PUSH1 0x0 MSTORE PUSH1 0x20 PUSH1 0x0 KECCAK256 SWAP1 JUMPDEST DUP2 SLOAD DUP2 MSTORE SWAP1 PUSH1 0x1 ADD SWAP1 PUSH1 0x20 ADD DUP1 DUP4 GT PUSH2 0xA5B JUMPI DUP3 SWAP1 SUB PUSH1 0x1F AND DUP3 ADD SWAP2 JUMPDEST POP POP POP POP POP DUP2 MSTORE PUSH1 0x20 ADD SWAP1 PUSH1 0x1 ADD SWAP1 PUSH2 0x9D0 JUMP JUMPDEST POP POP POP POP SWAP1 POP SWAP10 POP SWAP10 POP SWAP10 POP SWAP10 POP SWAP10 POP SWAP10 POP SWAP10 POP SWAP10 POP SWAP10 POP POP PUSH2 0xAB9 JUMP JUMPDEST DUP1 DUP1 PUSH1 0x1 ADD SWAP2 POP POP PUSH2 0x51D JUMP JUMPDEST POP JUMPDEST SWAP2 SWAP4 SWAP6 SWAP8 SWAP10 SWAP1 SWAP3 SWAP5 SWAP7 SWAP9 POP JUMP JUMPDEST PUSH2 0xACE PUSH2 0x208 JUMP JUMPDEST PUSH2 0xAD7 JUMPI PUSH1 0x0 DUP1 REVERT JUMPDEST PUSH1 0x0 DUP2 MLOAD GT PUSH2 0xAE5 JUMPI PUSH1 0x0 DUP1 REVERT JUMPDEST PUSH1 0x0 JUMPDEST PUSH1 0x2 DUP1 SLOAD SWAP1 POP DUP2 LT ISZERO PUSH2 0xB9C JUMPI PUSH1 0x2 DUP2 DUP2 SLOAD DUP2 LT PUSH2 0xB02 JUMPI INVALID JUMPDEST SWAP1 PUSH1 0x0 MSTORE PUSH1 0x20 PUSH1 0x0 KECCAK256 SWAP1 PUSH1 0x8 MUL ADD PUSH1 0x0 ADD PUSH1 0x40 MLOAD PUSH2 0xB20 SWAP2 SWAP1 PUSH2 0x1C09 JUMP JUMPDEST PUSH1 0x40 MLOAD DUP1 SWAP2 SUB SWAP1 KECCAK256 DUP4 DUP1 MLOAD SWAP1 PUSH1 0x20 ADD KECCAK256 EQ ISZERO PUSH2 0xB8F JUMPI PUSH1 0x2 DUP2 DUP2 SLOAD DUP2 LT PUSH2 0xB43 JUMPI INVALID JUMPDEST SWAP1 PUSH1 0x0 MSTORE PUSH1 0x20 PUSH1 0x0 KECCAK256 SWAP1 PUSH1 0x8 MUL ADD PUSH1 0x7 ADD DUP3 SWAP1 DUP1 PUSH1 0x1 DUP2 SLOAD ADD DUP1 DUP3 SSTORE DUP1 SWAP2 POP POP PUSH1 0x1 SWAP1 SUB SWAP1 PUSH1 0x0 MSTORE PUSH1 0x20 PUSH1 0x0 KECCAK256 ADD PUSH1 0x0 SWAP1 SWAP2 SWAP1 SWAP2 SWAP1 SWAP2 POP SWAP1 DUP1 MLOAD SWAP1 PUSH1 0x20 ADD SWAP1 PUSH2 0xB8D SWAP3 SWAP2 SWAP1 PUSH2 0x1487 JUMP JUMPDEST POP JUMPDEST DUP1 DUP1 PUSH1 0x1 ADD SWAP2 POP POP PUSH2 0xAE8 JUMP JUMPDEST POP POP POP JUMP JUMPDEST CALLER PUSH20 0xFFFFFFFFFFFFFFFFFFFFFFFFFFFFFFFFFFFFFFFF AND PUSH1 0x0 DUP1 SWAP1 SLOAD SWAP1 PUSH2 0x100 EXP SWAP1 DIV PUSH20 0xFFFFFFFFFFFFFFFFFFFFFFFFFFFFFFFFFFFFFFFF AND PUSH20 0xFFFFFFFFFFFFFFFFFFFFFFFFFFFFFFFFFFFFFFFF AND EQ PUSH2 0xBFA JUMPI PUSH1 0x0 DUP1 REVERT JUMPDEST PUSH2 0xC02 PUSH2 0x1507 JUMP JUMPDEST PUSH1 0x40 MLOAD DUP1 PUSH1 0x80 ADD PUSH1 0x40 MSTORE DUP1 DUP7 PUSH20 0xFFFFFFFFFFFFFFFFFFFFFFFFFFFFFFFFFFFFFFFF AND DUP2 MSTORE PUSH1 0x20 ADD DUP6 DUP2 MSTORE PUSH1 0x20 ADD DUP5 DUP2 MSTORE PUSH1 0x20 ADD DUP4 DUP2 MSTORE POP SWAP1 POP PUSH1 0x3 DUP2 SWAP1 DUP1 PUSH1 0x1 DUP2 SLOAD ADD DUP1 DUP3 SSTORE DUP1 SWAP2 POP POP PUSH1 0x1 SWAP1 SUB SWAP1 PUSH1 0x0 MSTORE PUSH1 0x20 PUSH1 0x0 KECCAK256 SWAP1 PUSH1 0x4 MUL ADD PUSH1 0x0 SWAP1 SWAP2 SWAP1 SWAP2 SWAP1 SWAP2 POP PUSH1 0x0 DUP3 ADD MLOAD DUP2 PUSH1 0x0 ADD PUSH1 0x0 PUSH2 0x100 EXP DUP2 SLOAD DUP2 PUSH20 0xFFFFFFFFFFFFFFFFFFFFFFFFFFFFFFFFFFFFFFFF MUL NOT AND SWAP1 DUP4 PUSH20 0xFFFFFFFFFFFFFFFFFFFFFFFFFFFFFFFFFFFFFFFF AND MUL OR SWAP1 SSTORE POP PUSH1 0x20 DUP3 ADD MLOAD DUP2 PUSH1 0x1 ADD SWAP1 DUP1 MLOAD SWAP1 PUSH1 0x20 ADD SWAP1 PUSH2 0xCCA SWAP3 SWAP2 SWAP1 PUSH2 0x1487 JUMP JUMPDEST POP PUSH1 0x40 DUP3 ADD MLOAD DUP2 PUSH1 0x2 ADD SWAP1 DUP1 MLOAD SWAP1 PUSH1 0x20 ADD SWAP1 PUSH2 0xCE7 SWAP3 SWAP2 SWAP1 PUSH2 0x1487 JUMP JUMPDEST POP PUSH1 0x60 DUP3 ADD MLOAD DUP2 PUSH1 0x3 ADD SWAP1 DUP1 MLOAD SWAP1 PUSH1 0x20 ADD SWAP1 PUSH2 0xD04 SWAP3 SWAP2 SWAP1 PUSH2 0x1487 JUMP JUMPDEST POP POP POP POP POP POP POP POP JUMP JUMPDEST PUSH2 0xD16 PUSH2 0x208 JUMP JUMPDEST PUSH2 0xD1F JUMPI PUSH1 0x0 DUP1 REVERT JUMPDEST PUSH2 0xD27 PUSH2 0x1545 JUMP JUMPDEST PUSH1 0x40 MLOAD DUP1 PUSH2 0x120 ADD PUSH1 0x40 MSTORE DUP1 DUP7 DUP2 MSTORE PUSH1 0x20 ADD DUP6 DUP2 MSTORE PUSH1 0x20 ADD DUP5 PUSH1 0xFF AND DUP2 MSTORE PUSH1 0x20 ADD DUP4 DUP2 MSTORE PUSH1 0x20 ADD PUSH1 0x40 MLOAD DUP1 PUSH1 0x20 ADD PUSH1 0x40 MSTORE DUP1 PUSH1 0x0 DUP2 MSTORE POP DUP2 MSTORE PUSH1 0x20 ADD PUSH1 0x40 MLOAD DUP1 PUSH1 0x20 ADD PUSH1 0x40 MSTORE DUP1 PUSH1 0x0 DUP2 MSTORE POP DUP2 MSTORE PUSH1 0x20 ADD PUSH1 0x0 PUSH1 0xFF AND DUP2 MSTORE PUSH1 0x20 ADD PUSH1 0x0 PUSH1 0xFF AND DUP2 MSTORE PUSH1 0x20 ADD PUSH1 0x0 PUSH8 0xFFFFFFFFFFFFFFFF DUP2 GT DUP1 ISZERO PUSH2 0xDA4 JUMPI PUSH1 0x0 DUP1 REVERT JUMPDEST POP PUSH1 0x40 MLOAD SWAP1 DUP1 DUP3 MSTORE DUP1 PUSH1 0x20 MUL PUSH1 0x20 ADD DUP3 ADD PUSH1 0x40 MSTORE DUP1 ISZERO PUSH2 0xDD8 JUMPI DUP2 PUSH1 0x20 ADD JUMPDEST PUSH1 0x60 DUP2 MSTORE PUSH1 0x20 ADD SWAP1 PUSH1 0x1 SWAP1 SUB SWAP1 DUP2 PUSH2 0xDC3 JUMPI SWAP1 POP JUMPDEST POP DUP2 MSTORE POP SWAP1 POP PUSH1 0x2 DUP2 SWAP1 DUP1 PUSH1 0x1 DUP2 SLOAD ADD DUP1 DUP3 SSTORE DUP1 SWAP2 POP POP PUSH1 0x1 SWAP1 SUB SWAP1 PUSH1 0x0 MSTORE PUSH1 0x20 PUSH1 0x0 KECCAK256 SWAP1 PUSH1 0x8 MUL ADD PUSH1 0x0 SWAP1 SWAP2 SWAP1 SWAP2 SWAP1 SWAP2 POP PUSH1 0x0 DUP3 ADD MLOAD DUP2 PUSH1 0x0 ADD SWAP1 DUP1 MLOAD SWAP1 PUSH1 0x20 ADD SWAP1 PUSH2 0xE26 SWAP3 SWAP2 SWAP1 PUSH2 0x1487 JUMP JUMPDEST POP PUSH1 0x20 DUP3 ADD MLOAD DUP2 PUSH1 0x1 ADD SWAP1 DUP1 MLOAD SWAP1 PUSH1 0x20 ADD SWAP1 PUSH2 0xE43 SWAP3 SWAP2 SWAP1 PUSH2 0x1487 JUMP JUMPDEST POP PUSH1 0x40 DUP3 ADD MLOAD DUP2 PUSH1 0x2 ADD PUSH1 0x0 PUSH2 0x100 EXP DUP2 SLOAD DUP2 PUSH1 0xFF MUL NOT AND SWAP1 DUP4 PUSH1 0xFF AND MUL OR SWAP1 SSTORE POP PUSH1 0x60 DUP3 ADD MLOAD DUP2 PUSH1 0x3 ADD SWAP1 DUP1 MLOAD SWAP1 PUSH1 0x20 ADD SWAP1 PUSH2 0xE81 SWAP3 SWAP2 SWAP1 PUSH2 0x1487 JUMP JUMPDEST POP PUSH1 0x80 DUP3 ADD MLOAD DUP2 PUSH1 0x4 ADD SWAP1 DUP1 MLOAD SWAP1 PUSH1 0x20 ADD SWAP1 PUSH2 0xE9E SWAP3 SWAP2 SWAP1 PUSH2 0x1487 JUMP JUMPDEST POP PUSH1 0xA0 DUP3 ADD MLOAD DUP2 PUSH1 0x5 ADD SWAP1 DUP1 MLOAD SWAP1 PUSH1 0x20 ADD SWAP1 PUSH2 0xEBB SWAP3 SWAP2 SWAP1 PUSH2 0x1487 JUMP JUMPDEST POP PUSH1 0xC0 DUP3 ADD MLOAD DUP2 PUSH1 0x6 ADD PUSH1 0x0 PUSH2 0x100 EXP DUP2 SLOAD DUP2 PUSH1 0xFF MUL NOT AND SWAP1 DUP4 PUSH1 0xFF AND MUL OR SWAP1 SSTORE POP PUSH1 0xE0 DUP3 ADD MLOAD DUP2 PUSH1 0x6 ADD PUSH1 0x1 PUSH2 0x100 EXP DUP2 SLOAD DUP2 PUSH1 0xFF MUL NOT AND SWAP1 DUP4 PUSH1 0xFF AND MUL OR SWAP1 SSTORE POP PUSH2 0x100 DUP3 ADD MLOAD DUP2 PUSH1 0x7 ADD SWAP1 DUP1 MLOAD SWAP1 PUSH1 0x20 ADD SWAP1 PUSH2 0xF1B SWAP3 SWAP2 SWAP1 PUSH2 0x159A JUMP JUMPDEST POP POP POP POP POP POP POP POP JUMP JUMPDEST PUSH2 0xF2D PUSH2 0x208 JUMP JUMPDEST PUSH2 0xF36 JUMPI PUSH1 0x0 DUP1 REVERT JUMPDEST PUSH1 0x0 JUMPDEST PUSH1 0x2 DUP1 SLOAD SWAP1 POP DUP2 LT ISZERO PUSH2 0x10A8 JUMPI PUSH1 0x2 DUP2 DUP2 SLOAD DUP2 LT PUSH2 0xF53 JUMPI INVALID JUMPDEST SWAP1 PUSH1 0x0 MSTORE PUSH1 0x20 PUSH1 0x0 KECCAK256 SWAP1 PUSH1 0x8 MUL ADD PUSH1 0x0 ADD PUSH1 0x40 MLOAD PUSH2 0xF71 SWAP2 SWAP1 PUSH2 0x1C09 JUMP JUMPDEST PUSH1 0x40 MLOAD DUP1 SWAP2 SUB SWAP1 KECCAK256 DUP7 DUP1 MLOAD SWAP1 PUSH1 0x20 ADD KECCAK256 EQ ISZERO PUSH2 0x1060 JUMPI DUP5 PUSH1 0x2 DUP3 DUP2 SLOAD DUP2 LT PUSH2 0xF95 JUMPI INVALID JUMPDEST SWAP1 PUSH1 0x0 MSTORE PUSH1 0x20 PUSH1 0x0 KECCAK256 SWAP1 PUSH1 0x8 MUL ADD PUSH1 0x4 ADD SWAP1 DUP1 MLOAD SWAP1 PUSH1 0x20 ADD SWAP1 PUSH2 0xFB9 SWAP3 SWAP2 SWAP1 PUSH2 0x1487 JUMP JUMPDEST POP DUP4 PUSH1 0x2 DUP3 DUP2 SLOAD DUP2 LT PUSH2 0xFC8 JUMPI INVALID JUMPDEST SWAP1 PUSH1 0x0 MSTORE PUSH1 0x20 PUSH1 0x0 KECCAK256 SWAP1 PUSH1 0x8 MUL ADD PUSH1 0x5 ADD SWAP1 DUP1 MLOAD SWAP1 PUSH1 0x20 ADD SWAP1 PUSH2 0xFEC SWAP3 SWAP2 SWAP1 PUSH2 0x1487 JUMP JUMPDEST POP DUP3 PUSH1 0x2 DUP3 DUP2 SLOAD DUP2 LT PUSH2 0xFFB JUMPI INVALID JUMPDEST SWAP1 PUSH1 0x0 MSTORE PUSH1 0x20 PUSH1 0x0 KECCAK256 SWAP1 PUSH1 0x8 MUL ADD PUSH1 0x6 ADD PUSH1 0x1 PUSH2 0x100 EXP DUP2 SLOAD DUP2 PUSH1 0xFF MUL NOT AND SWAP1 DUP4 PUSH1 0xFF AND MUL OR SWAP1 SSTORE POP DUP2 PUSH1 0x2 DUP3 DUP2 SLOAD DUP2 LT PUSH2 0x1032 JUMPI INVALID JUMPDEST SWAP1 PUSH1 0x0 MSTORE PUSH1 0x20 PUSH1 0x0 KECCAK256 SWAP1 PUSH1 0x8 MUL ADD PUSH1 0x6 ADD PUSH1 0x0 PUSH2 0x100 EXP DUP2 SLOAD DUP2 PUSH1 0xFF MUL NOT AND SWAP1 DUP4 PUSH1 0xFF AND MUL OR SWAP1 SSTORE POP PUSH2 0x109B JUMP JUMPDEST PUSH1 0x40 MLOAD PUSH32 0x8C379A000000000000000000000000000000000000000000000000000000000 DUP2 MSTORE PUSH1 0x4 ADD PUSH2 0x1092 SWAP1 PUSH2 0x1DA9 JUMP JUMPDEST PUSH1 0x40 MLOAD DUP1 SWAP2 SUB SWAP1 REVERT JUMPDEST DUP1 DUP1 PUSH1 0x1 ADD SWAP2 POP POP PUSH2 0xF39 JUMP JUMPDEST POP POP POP POP POP POP JUMP JUMPDEST PUSH1 0x0 DUP1 PUSH1 0x0 SWAP1 SLOAD SWAP1 PUSH2 0x100 EXP SWAP1 DIV PUSH20 0xFFFFFFFFFFFFFFFFFFFFFFFFFFFFFFFFFFFFFFFF AND SWAP1 POP SWAP1 JUMP JUMPDEST PUSH1 0x0 PUSH1 0x60 DUP1 PUSH1 0x60 CALLER PUSH20 0xFFFFFFFFFFFFFFFFFFFFFFFFFFFFFFFFFFFFFFFF AND PUSH1 0x0 DUP1 SWAP1 SLOAD SWAP1 PUSH2 0x100 EXP SWAP1 DIV PUSH20 0xFFFFFFFFFFFFFFFFFFFFFFFFFFFFFFFFFFFFFFFF AND PUSH20 0xFFFFFFFFFFFFFFFFFFFFFFFFFFFFFFFFFFFFFFFF AND EQ PUSH2 0x1139 JUMPI PUSH1 0x0 DUP1 REVERT JUMPDEST PUSH1 0x0 PUSH1 0x60 DUP1 PUSH1 0x0 DUP1 SWAP1 POP JUMPDEST PUSH1 0x3 DUP1 SLOAD SWAP1 POP DUP2 LT ISZERO PUSH2 0x140C JUMPI PUSH1 0x3 DUP2 DUP2 SLOAD DUP2 LT PUSH2 0x115E JUMPI INVALID JUMPDEST SWAP1 PUSH1 0x0 MSTORE PUSH1 0x20 PUSH1 0x0 KECCAK256 SWAP1 PUSH1 0x4 MUL ADD PUSH1 0x2 ADD PUSH1 0x40 MLOAD PUSH2 0x117C SWAP2 SWAP1 PUSH2 0x1C09 JUMP JUMPDEST PUSH1 0x40 MLOAD DUP1 SWAP2 SUB SWAP1 KECCAK256 DUP10 DUP1 MLOAD SWAP1 PUSH1 0x20 ADD KECCAK256 EQ ISZERO PUSH2 0x13FF JUMPI PUSH1 0x3 DUP2 DUP2 SLOAD DUP2 LT PUSH2 0x119F JUMPI INVALID JUMPDEST SWAP1 PUSH1 0x0 MSTORE PUSH1 0x20 PUSH1 0x0 KECCAK256 SWAP1 PUSH1 0x4 MUL ADD PUSH1 0x0 ADD PUSH1 0x0 SWAP1 SLOAD SWAP1 PUSH2 0x100 EXP SWAP1 DIV PUSH20 0xFFFFFFFFFFFFFFFFFFFFFFFFFFFFFFFFFFFFFFFF AND SWAP4 POP PUSH1 0x3 DUP2 DUP2 SLOAD DUP2 LT PUSH2 0x11E0 JUMPI INVALID JUMPDEST SWAP1 PUSH1 0x0 MSTORE PUSH1 0x20 PUSH1 0x0 KECCAK256 SWAP1 PUSH1 0x4 MUL ADD PUSH1 0x1 ADD DUP1 SLOAD PUSH1 0x1 DUP2 PUSH1 0x1 AND ISZERO PUSH2 0x100 MUL SUB AND PUSH1 0x2 SWAP1 DIV DUP1 PUSH1 0x1F ADD PUSH1 0x20 DUP1 SWAP2 DIV MUL PUSH1 0x20 ADD PUSH1 0x40 MLOAD SWAP1 DUP2 ADD PUSH1 0x40 MSTORE DUP1 SWAP3 SWAP2 SWAP1 DUP2 DUP2 MSTORE PUSH1 0x20 ADD DUP3 DUP1 SLOAD PUSH1 0x1 DUP2 PUSH1 0x1 AND ISZERO PUSH2 0x100 MUL SUB AND PUSH1 0x2 SWAP1 DIV DUP1 ISZERO PUSH2 0x1285 JUMPI DUP1 PUSH1 0x1F LT PUSH2 0x125A JUMPI PUSH2 0x100 DUP1 DUP4 SLOAD DIV MUL DUP4 MSTORE SWAP2 PUSH1 0x20 ADD SWAP2 PUSH2 0x1285 JUMP JUMPDEST DUP3 ADD SWAP2 SWAP1 PUSH1 0x0 MSTORE PUSH1 0x20 PUSH1 0x0 KECCAK256 SWAP1 JUMPDEST DUP2 SLOAD DUP2 MSTORE SWAP1 PUSH1 0x1 ADD SWAP1 PUSH1 0x20 ADD DUP1 DUP4 GT PUSH2 0x1268 JUMPI DUP3 SWAP1 SUB PUSH1 0x1F AND DUP3 ADD SWAP2 JUMPDEST POP POP POP POP POP SWAP3 POP PUSH1 0x3 DUP2 DUP2 SLOAD DUP2 LT PUSH2 0x1299 JUMPI INVALID JUMPDEST SWAP1 PUSH1 0x0 MSTORE PUSH1 0x20 PUSH1 0x0 KECCAK256 SWAP1 PUSH1 0x4 MUL ADD PUSH1 0x2 ADD DUP1 SLOAD PUSH1 0x1 DUP2 PUSH1 0x1 AND ISZERO PUSH2 0x100 MUL SUB AND PUSH1 0x2 SWAP1 DIV DUP1 PUSH1 0x1F ADD PUSH1 0x20 DUP1 SWAP2 DIV MUL PUSH1 0x20 ADD PUSH1 0x40 MLOAD SWAP1 DUP2 ADD PUSH1 0x40 MSTORE DUP1 SWAP3 SWAP2 SWAP1 DUP2 DUP2 MSTORE PUSH1 0x20 ADD DUP3 DUP1 SLOAD PUSH1 0x1 DUP2 PUSH1 0x1 AND ISZERO PUSH2 0x100 MUL SUB AND PUSH1 0x2 SWAP1 DIV DUP1 ISZERO PUSH2 0x133E JUMPI DUP1 PUSH1 0x1F LT PUSH2 0x1313 JUMPI PUSH2 0x100 DUP1 DUP4 SLOAD DIV MUL DUP4 MSTORE SWAP2 PUSH1 0x20 ADD SWAP2 PUSH2 0x133E JUMP JUMPDEST DUP3 ADD SWAP2 SWAP1 PUSH1 0x0 MSTORE PUSH1 0x20 PUSH1 0x0 KECCAK256 SWAP1 JUMPDEST DUP2 SLOAD DUP2 MSTORE SWAP1 PUSH1 0x1 ADD SWAP1 PUSH1 0x20 ADD DUP1 DUP4 GT PUSH2 0x1321 JUMPI DUP3 SWAP1 SUB PUSH1 0x1F AND DUP3 ADD SWAP2 JUMPDEST POP POP POP POP POP SWAP9 POP PUSH1 0x3 DUP2 DUP2 SLOAD DUP2 LT PUSH2 0x1352 JUMPI INVALID JUMPDEST SWAP1 PUSH1 0x0 MSTORE PUSH1 0x20 PUSH1 0x0 KECCAK256 SWAP1 PUSH1 0x4 MUL ADD PUSH1 0x3 ADD DUP1 SLOAD PUSH1 0x1 DUP2 PUSH1 0x1 AND ISZERO PUSH2 0x100 MUL SUB AND PUSH1 0x2 SWAP1 DIV DUP1 PUSH1 0x1F ADD PUSH1 0x20 DUP1 SWAP2 DIV MUL PUSH1 0x20 ADD PUSH1 0x40 MLOAD SWAP1 DUP2 ADD PUSH1 0x40 MSTORE DUP1 SWAP3 SWAP2 SWAP1 DUP2 DUP2 MSTORE PUSH1 0x20 ADD DUP3 DUP1 SLOAD PUSH1 0x1 DUP2 PUSH1 0x1 AND ISZERO PUSH2 0x100 MUL SUB AND PUSH1 0x2 SWAP1 DIV DUP1 ISZERO PUSH2 0x13F7 JUMPI DUP1 PUSH1 0x1F LT PUSH2 0x13CC JUMPI PUSH2 0x100 DUP1 DUP4 SLOAD DIV MUL DUP4 MSTORE SWAP2 PUSH1 0x20 ADD SWAP2 PUSH2 0x13F7 JUMP JUMPDEST DUP3 ADD SWAP2 SWAP1 PUSH1 0x0 MSTORE PUSH1 0x20 PUSH1 0x0 KECCAK256 SWAP1 JUMPDEST DUP2 SLOAD DUP2 MSTORE SWAP1 PUSH1 0x1 ADD SWAP1 PUSH1 0x20 ADD DUP1 DUP4 GT PUSH2 0x13DA JUMPI DUP3 SWAP1 SUB PUSH1 0x1F AND DUP3 ADD SWAP2 JUMPDEST POP POP POP POP POP SWAP2 POP JUMPDEST DUP1 DUP1 PUSH1 0x1 ADD SWAP2 POP POP PUSH2 0x1144 JUMP JUMPDEST POP DUP3 DUP3 DUP10 DUP4 SWAP7 POP SWAP7 POP SWAP7 POP SWAP7 POP POP POP POP SWAP2 SWAP4 POP SWAP2 SWAP4 JUMP JUMPDEST PUSH1 0x0 CALLER PUSH20 0xFFFFFFFFFFFFFFFFFFFFFFFFFFFFFFFFFFFFFFFF AND PUSH1 0x0 DUP1 SWAP1 SLOAD SWAP1 PUSH2 0x100 EXP SWAP1 DIV PUSH20 0xFFFFFFFFFFFFFFFFFFFFFFFFFFFFFFFFFFFFFFFF AND PUSH20 0xFFFFFFFFFFFFFFFFFFFFFFFFFFFFFFFFFFFFFFFF AND EQ ISZERO PUSH2 0x1483 JUMPI PUSH1 0x1 SWAP1 POP PUSH2 0x1484 JUMP JUMPDEST JUMPDEST SWAP1 JUMP JUMPDEST DUP3 DUP1 SLOAD PUSH1 0x1 DUP2 PUSH1 0x1 AND ISZERO PUSH2 0x100 MUL SUB AND PUSH1 0x2 SWAP1 DIV SWAP1 PUSH1 0x0 MSTORE PUSH1 0x20 PUSH1 0x0 KECCAK256 SWAP1 PUSH1 0x1F ADD PUSH1 0x20 SWAP1 DIV DUP2 ADD SWAP3 DUP3 PUSH1 0x1F LT PUSH2 0x14C8 JUMPI DUP1 MLOAD PUSH1 0xFF NOT AND DUP4 DUP1 ADD OR DUP6 SSTORE PUSH2 0x14F6 JUMP JUMPDEST DUP3 DUP1 ADD PUSH1 0x1 ADD DUP6 SSTORE DUP3 ISZERO PUSH2 0x14F6 JUMPI SWAP2 DUP3 ADD JUMPDEST DUP3 DUP2 GT ISZERO PUSH2 0x14F5 JUMPI DUP3 MLOAD DUP3 SSTORE SWAP2 PUSH1 0x20 ADD SWAP2 SWAP1 PUSH1 0x1 ADD SWAP1 PUSH2 0x14DA JUMP JUMPDEST JUMPDEST POP SWAP1 POP PUSH2 0x1503 SWAP2 SWAP1 PUSH2 0x15FA JUMP JUMPDEST POP SWAP1 JUMP JUMPDEST PUSH1 0x40 MLOAD DUP1 PUSH1 0x80 ADD PUSH1 0x40 MSTORE DUP1 PUSH1 0x0 PUSH20 0xFFFFFFFFFFFFFFFFFFFFFFFFFFFFFFFFFFFFFFFF AND DUP2 MSTORE PUSH1 0x20 ADD PUSH1 0x60 DUP2 MSTORE PUSH1 0x20 ADD PUSH1 0x60 DUP2 MSTORE PUSH1 0x20 ADD PUSH1 0x60 DUP2 MSTORE POP SWAP1 JUMP JUMPDEST PUSH1 0x40 MLOAD DUP1 PUSH2 0x120 ADD PUSH1 0x40 MSTORE DUP1 PUSH1 0x60 DUP2 MSTORE PUSH1 0x20 ADD PUSH1 0x60 DUP2 MSTORE PUSH1 0x20 ADD PUSH1 0x0 PUSH1 0xFF AND DUP2 MSTORE PUSH1 0x20 ADD PUSH1 0x60 DUP2 MSTORE PUSH1 0x20 ADD PUSH1 0x60 DUP2 MSTORE PUSH1 0x20 ADD PUSH1 0x60 DUP2 MSTORE PUSH1 0x20 ADD PUSH1 0x0 PUSH1 0xFF AND DUP2 MSTORE PUSH1 0x20 ADD PUSH1 0x0 PUSH1 0xFF AND DUP2 MSTORE PUSH1 0x20 ADD PUSH1 0x60 DUP2 MSTORE POP SWAP1 JUMP JUMPDEST DUP3 DUP1 SLOAD DUP3 DUP3 SSTORE SWAP1 PUSH1 0x0 MSTORE PUSH1 0x20 PUSH1 0x0 KECCAK256 SWAP1 DUP2 ADD SWAP3 DUP3 ISZERO PUSH2 0x15E9 JUMPI SWAP2 PUSH1 0x20 MUL DUP3 ADD JUMPDEST DUP3 DUP2 GT ISZERO PUSH2 0x15E8 JUMPI DUP3 MLOAD DUP3 SWAP1 DUP1 MLOAD SWAP1 PUSH1 0x20 ADD SWAP1 PUSH2 0x15D8 SWAP3 SWAP2 SWAP1 PUSH2 0x1487 JUMP JUMPDEST POP SWAP2 PUSH1 0x20 ADD SWAP2 SWAP1 PUSH1 0x1 ADD SWAP1 PUSH2 0x15BA JUMP JUMPDEST JUMPDEST POP SWAP1 POP PUSH2 0x15F6 SWAP2 SWAP1 PUSH2 0x161F JUMP JUMPDEST POP SWAP1 JUMP JUMPDEST PUSH2 0x161C SWAP2 SWAP1 JUMPDEST DUP1 DUP3 GT ISZERO PUSH2 0x1618 JUMPI PUSH1 0x0 DUP2 PUSH1 0x0 SWAP1 SSTORE POP PUSH1 0x1 ADD PUSH2 0x1600 JUMP JUMPDEST POP SWAP1 JUMP JUMPDEST SWAP1 JUMP JUMPDEST PUSH2 0x1648 SWAP2 SWAP1 JUMPDEST DUP1 DUP3 GT ISZERO PUSH2 0x1644 JUMPI PUSH1 0x0 DUP2 DUP2 PUSH2 0x163B SWAP2 SWAP1 PUSH2 0x164B JUMP JUMPDEST POP PUSH1 0x1 ADD PUSH2 0x1625 JUMP JUMPDEST POP SWAP1 JUMP JUMPDEST SWAP1 JUMP JUMPDEST POP DUP1 SLOAD PUSH1 0x1 DUP2 PUSH1 0x1 AND ISZERO PUSH2 0x100 MUL SUB AND PUSH1 0x2 SWAP1 DIV PUSH1 0x0 DUP3 SSTORE DUP1 PUSH1 0x1F LT PUSH2 0x1671 JUMPI POP PUSH2 0x1690 JUMP JUMPDEST PUSH1 0x1F ADD PUSH1 0x20 SWAP1 DIV SWAP1 PUSH1 0x0 MSTORE PUSH1 0x20 PUSH1 0x0 KECCAK256 SWAP1 DUP2 ADD SWAP1 PUSH2 0x168F SWAP2 SWAP1 PUSH2 0x15FA JUMP JUMPDEST JUMPDEST POP JUMP JUMPDEST PUSH1 0x0 DUP2 CALLDATALOAD SWAP1 POP PUSH2 0x16A2 DUP2 PUSH2 0x1F46 JUMP JUMPDEST SWAP3 SWAP2 POP POP JUMP JUMPDEST PUSH1 0x0 DUP3 PUSH1 0x1F DUP4 ADD SLT PUSH2 0x16B9 JUMPI PUSH1 0x0 DUP1 REVERT JUMPDEST DUP2 CALLDATALOAD PUSH2 0x16CC PUSH2 0x16C7 DUP3 PUSH2 0x1DF6 JUMP JUMPDEST PUSH2 0x1DC9 JUMP JUMPDEST SWAP2 POP DUP1 DUP3 MSTORE PUSH1 0x20 DUP4 ADD PUSH1 0x20 DUP4 ADD DUP6 DUP4 DUP4 ADD GT ISZERO PUSH2 0x16E8 JUMPI PUSH1 0x0 DUP1 REVERT JUMPDEST PUSH2 0x16F3 DUP4 DUP3 DUP5 PUSH2 0x1EF3 JUMP JUMPDEST POP POP POP SWAP3 SWAP2 POP POP JUMP JUMPDEST PUSH1 0x0 DUP2 CALLDATALOAD SWAP1 POP PUSH2 0x170B DUP2 PUSH2 0x1F5D JUMP JUMPDEST SWAP3 SWAP2 POP POP JUMP JUMPDEST PUSH1 0x0 DUP1 PUSH1 0x0 DUP1 PUSH1 0x80 DUP6 DUP8 SUB SLT ISZERO PUSH2 0x1727 JUMPI PUSH1 0x0 DUP1 REVERT JUMPDEST PUSH1 0x0 PUSH2 0x1735 DUP8 DUP3 DUP9 ADD PUSH2 0x1693 JUMP JUMPDEST SWAP5 POP POP PUSH1 0x20 DUP6 ADD CALLDATALOAD PUSH8 0xFFFFFFFFFFFFFFFF DUP2 GT ISZERO PUSH2 0x1752 JUMPI PUSH1 0x0 DUP1 REVERT JUMPDEST PUSH2 0x175E DUP8 DUP3 DUP9 ADD PUSH2 0x16A8 JUMP JUMPDEST SWAP4 POP POP PUSH1 0x40 DUP6 ADD CALLDATALOAD PUSH8 0xFFFFFFFFFFFFFFFF DUP2 GT ISZERO PUSH2 0x177B JUMPI PUSH1 0x0 DUP1 REVERT JUMPDEST PUSH2 0x1787 DUP8 DUP3 DUP9 ADD PUSH2 0x16A8 JUMP JUMPDEST SWAP3 POP POP PUSH1 0x60 DUP6 ADD CALLDATALOAD PUSH8 0xFFFFFFFFFFFFFFFF DUP2 GT ISZERO PUSH2 0x17A4 JUMPI PUSH1 0x0 DUP1 REVERT JUMPDEST PUSH2 0x17B0 DUP8 DUP3 DUP9 ADD PUSH2 0x16A8 JUMP JUMPDEST SWAP2 POP POP SWAP3 SWAP6 SWAP2 SWAP5 POP SWAP3 POP JUMP JUMPDEST PUSH1 0x0 PUSH1 0x20 DUP3 DUP5 SUB SLT ISZERO PUSH2 0x17CE JUMPI PUSH1 0x0 DUP1 REVERT JUMPDEST PUSH1 0x0 DUP3 ADD CALLDATALOAD PUSH8 0xFFFFFFFFFFFFFFFF DUP2 GT ISZERO PUSH2 0x17E8 JUMPI PUSH1 0x0 DUP1 REVERT JUMPDEST PUSH2 0x17F4 DUP5 DUP3 DUP6 ADD PUSH2 0x16A8 JUMP JUMPDEST SWAP2 POP POP SWAP3 SWAP2 POP POP JUMP JUMPDEST PUSH1 0x0 DUP1 PUSH1 0x40 DUP4 DUP6 SUB SLT ISZERO PUSH2 0x1810 JUMPI PUSH1 0x0 DUP1 REVERT JUMPDEST PUSH1 0x0 DUP4 ADD CALLDATALOAD PUSH8 0xFFFFFFFFFFFFFFFF DUP2 GT ISZERO PUSH2 0x182A JUMPI PUSH1 0x0 DUP1 REVERT JUMPDEST PUSH2 0x1836 DUP6 DUP3 DUP7 ADD PUSH2 0x16A8 JUMP JUMPDEST SWAP3 POP POP PUSH1 0x20 DUP4 ADD CALLDATALOAD PUSH8 0xFFFFFFFFFFFFFFFF DUP2 GT ISZERO PUSH2 0x1853 JUMPI PUSH1 0x0 DUP1 REVERT JUMPDEST PUSH2 0x185F DUP6 DUP3 DUP7 ADD PUSH2 0x16A8 JUMP JUMPDEST SWAP2 POP POP SWAP3 POP SWAP3 SWAP1 POP JUMP JUMPDEST PUSH1 0x0 DUP1 PUSH1 0x0 DUP1 PUSH1 0x0 PUSH1 0xA0 DUP7 DUP9 SUB SLT ISZERO PUSH2 0x1881 JUMPI PUSH1 0x0 DUP1 REVERT JUMPDEST PUSH1 0x0 DUP7 ADD CALLDATALOAD PUSH8 0xFFFFFFFFFFFFFFFF DUP2 GT ISZERO PUSH2 0x189B JUMPI PUSH1 0x0 DUP1 REVERT JUMPDEST PUSH2 0x18A7 DUP9 DUP3 DUP10 ADD PUSH2 0x16A8 JUMP JUMPDEST SWAP6 POP POP PUSH1 0x20 DUP7 ADD CALLDATALOAD PUSH8 0xFFFFFFFFFFFFFFFF DUP2 GT ISZERO PUSH2 0x18C4 JUMPI PUSH1 0x0 DUP1 REVERT JUMPDEST PUSH2 0x18D0 DUP9 DUP3 DUP10 ADD PUSH2 0x16A8 JUMP JUMPDEST SWAP5 POP POP PUSH1 0x40 DUP7 ADD CALLDATALOAD PUSH8 0xFFFFFFFFFFFFFFFF DUP2 GT ISZERO PUSH2 0x18ED JUMPI PUSH1 0x0 DUP1 REVERT JUMPDEST PUSH2 0x18F9 DUP9 DUP3 DUP10 ADD PUSH2 0x16A8 JUMP JUMPDEST SWAP4 POP POP PUSH1 0x60 PUSH2 0x190A DUP9 DUP3 DUP10 ADD PUSH2 0x16FC JUMP JUMPDEST SWAP3 POP POP PUSH1 0x80 PUSH2 0x191B DUP9 DUP3 DUP10 ADD PUSH2 0x16FC JUMP JUMPDEST SWAP2 POP POP SWAP3 SWAP6 POP SWAP3 SWAP6 SWAP1 SWAP4 POP JUMP JUMPDEST PUSH1 0x0 DUP1 PUSH1 0x0 DUP1 PUSH1 0x80 DUP6 DUP8 SUB SLT ISZERO PUSH2 0x193E JUMPI PUSH1 0x0 DUP1 REVERT JUMPDEST PUSH1 0x0 DUP6 ADD CALLDATALOAD PUSH8 0xFFFFFFFFFFFFFFFF DUP2 GT ISZERO PUSH2 0x1958 JUMPI PUSH1 0x0 DUP1 REVERT JUMPDEST PUSH2 0x1964 DUP8 DUP3 DUP9 ADD PUSH2 0x16A8 JUMP JUMPDEST SWAP5 POP POP PUSH1 0x20 DUP6 ADD CALLDATALOAD PUSH8 0xFFFFFFFFFFFFFFFF DUP2 GT ISZERO PUSH2 0x1981 JUMPI PUSH1 0x0 DUP1 REVERT JUMPDEST PUSH2 0x198D DUP8 DUP3 DUP9 ADD PUSH2 0x16A8 JUMP JUMPDEST SWAP4 POP POP PUSH1 0x40 PUSH2 0x199E DUP8 DUP3 DUP9 ADD PUSH2 0x16FC JUMP JUMPDEST SWAP3 POP POP PUSH1 0x60 DUP6 ADD CALLDATALOAD PUSH8 0xFFFFFFFFFFFFFFFF DUP2 GT ISZERO PUSH2 0x19BB JUMPI PUSH1 0x0 DUP1 REVERT JUMPDEST PUSH2 0x19C7 DUP8 DUP3 DUP9 ADD PUSH2 0x16A8 JUMP JUMPDEST SWAP2 POP POP SWAP3 SWAP6 SWAP2 SWAP5 POP SWAP3 POP JUMP JUMPDEST PUSH1 0x0 PUSH2 0x19DF DUP4 DUP4 PUSH2 0x1B08 JUMP JUMPDEST SWAP1 POP SWAP3 SWAP2 POP POP JUMP JUMPDEST PUSH2 0x19F0 DUP2 PUSH2 0x1EA8 JUMP JUMPDEST DUP3 MSTORE POP POP JUMP JUMPDEST PUSH1 0x0 PUSH2 0x1A01 DUP3 PUSH2 0x1E47 JUMP JUMPDEST PUSH2 0x1A0B DUP2 DUP6 PUSH2 0x1E6A JUMP JUMPDEST SWAP4 POP DUP4 PUSH1 0x20 DUP3 MUL DUP6 ADD PUSH2 0x1A1D DUP6 PUSH2 0x1E22 JUMP JUMPDEST DUP1 PUSH1 0x0 JUMPDEST DUP6 DUP2 LT ISZERO PUSH2 0x1A59 JUMPI DUP5 DUP5 SUB DUP10 MSTORE DUP2 MLOAD PUSH2 0x1A3A DUP6 DUP3 PUSH2 0x19D3 JUMP JUMPDEST SWAP5 POP PUSH2 0x1A45 DUP4 PUSH2 0x1E5D JUMP JUMPDEST SWAP3 POP PUSH1 0x20 DUP11 ADD SWAP10 POP POP PUSH1 0x1 DUP2 ADD SWAP1 POP PUSH2 0x1A21 JUMP JUMPDEST POP DUP3 SWAP8 POP DUP8 SWAP6 POP POP POP POP POP POP SWAP3 SWAP2 POP POP JUMP JUMPDEST PUSH2 0x1A74 DUP2 PUSH2 0x1EBA JUMP JUMPDEST DUP3 MSTORE POP POP JUMP JUMPDEST PUSH1 0x0 DUP2 SLOAD PUSH1 0x1 DUP2 AND PUSH1 0x0 DUP2 EQ PUSH2 0x1A97 JUMPI PUSH1 0x1 DUP2 EQ PUSH2 0x1ABC JUMPI PUSH2 0x1B00 JUMP JUMPDEST PUSH1 0x7F PUSH1 0x2 DUP4 DIV AND PUSH2 0x1AA8 DUP2 DUP8 PUSH2 0x1E7B JUMP JUMPDEST SWAP6 POP PUSH1 0xFF NOT DUP4 AND DUP7 MSTORE DUP1 DUP7 ADD SWAP4 POP POP PUSH2 0x1B00 JUMP JUMPDEST PUSH1 0x2 DUP3 DIV PUSH2 0x1ACA DUP2 DUP8 PUSH2 0x1E7B JUMP JUMPDEST SWAP6 POP PUSH2 0x1AD5 DUP6 PUSH2 0x1E32 JUMP JUMPDEST PUSH1 0x0 JUMPDEST DUP3 DUP2 LT ISZERO PUSH2 0x1AF7 JUMPI DUP2 SLOAD DUP2 DUP10 ADD MSTORE PUSH1 0x1 DUP3 ADD SWAP2 POP PUSH1 0x20 DUP2 ADD SWAP1 POP PUSH2 0x1AD8 JUMP JUMPDEST DUP3 DUP9 ADD SWAP6 POP POP POP POP JUMPDEST POP POP SWAP3 SWAP2 POP POP JUMP JUMPDEST PUSH1 0x0 PUSH2 0x1B13 DUP3 PUSH2 0x1E52 JUMP JUMPDEST PUSH2 0x1B1D DUP2 DUP6 PUSH2 0x1E86 JUMP JUMPDEST SWAP4 POP PUSH2 0x1B2D DUP2 DUP6 PUSH1 0x20 DUP7 ADD PUSH2 0x1F02 JUMP JUMPDEST PUSH2 0x1B36 DUP2 PUSH2 0x1F35 JUMP JUMPDEST DUP5 ADD SWAP2 POP POP SWAP3 SWAP2 POP POP JUMP JUMPDEST PUSH1 0x0 PUSH2 0x1B4C DUP3 PUSH2 0x1E52 JUMP JUMPDEST PUSH2 0x1B56 DUP2 DUP6 PUSH2 0x1E97 JUMP JUMPDEST SWAP4 POP PUSH2 0x1B66 DUP2 DUP6 PUSH1 0x20 DUP7 ADD PUSH2 0x1F02 JUMP JUMPDEST PUSH2 0x1B6F DUP2 PUSH2 0x1F35 JUMP JUMPDEST DUP5 ADD SWAP2 POP POP SWAP3 SWAP2 POP POP JUMP JUMPDEST PUSH1 0x0 PUSH2 0x1B87 PUSH1 0x9 DUP4 PUSH2 0x1E97 JUMP JUMPDEST SWAP2 POP PUSH32 0x4E494B2073616C61680000000000000000000000000000000000000000000000 PUSH1 0x0 DUP4 ADD MSTORE PUSH1 0x20 DUP3 ADD SWAP1 POP SWAP2 SWAP1 POP JUMP JUMPDEST PUSH1 0x0 PUSH2 0x1BC7 PUSH1 0x9 DUP4 PUSH2 0x1E97 JUMP JUMPDEST SWAP2 POP PUSH32 0x4E494B2053616C61680000000000000000000000000000000000000000000000 PUSH1 0x0 DUP4 ADD MSTORE PUSH1 0x20 DUP3 ADD SWAP1 POP SWAP2 SWAP1 POP JUMP JUMPDEST PUSH2 0x1C03 DUP2 PUSH2 0x1EE6 JUMP JUMPDEST DUP3 MSTORE POP POP JUMP JUMPDEST PUSH1 0x0 PUSH2 0x1C15 DUP3 DUP5 PUSH2 0x1A7A JUMP JUMPDEST SWAP2 POP DUP2 SWAP1 POP SWAP3 SWAP2 POP POP JUMP JUMPDEST PUSH1 0x0 PUSH1 0x20 DUP3 ADD SWAP1 POP PUSH2 0x1C35 PUSH1 0x0 DUP4 ADD DUP5 PUSH2 0x19E7 JUMP JUMPDEST SWAP3 SWAP2 POP POP JUMP JUMPDEST PUSH1 0x0 PUSH1 0x80 DUP3 ADD SWAP1 POP PUSH2 0x1C50 PUSH1 0x0 DUP4 ADD DUP8 PUSH2 0x19E7 JUMP JUMPDEST DUP2 DUP2 SUB PUSH1 0x20 DUP4 ADD MSTORE PUSH2 0x1C62 DUP2 DUP7 PUSH2 0x1B41 JUMP JUMPDEST SWAP1 POP DUP2 DUP2 SUB PUSH1 0x40 DUP4 ADD MSTORE PUSH2 0x1C76 DUP2 DUP6 PUSH2 0x1B41 JUMP JUMPDEST SWAP1 POP DUP2 DUP2 SUB PUSH1 0x60 DUP4 ADD MSTORE PUSH2 0x1C8A DUP2 DUP5 PUSH2 0x1B41 JUMP JUMPDEST SWAP1 POP SWAP6 SWAP5 POP POP POP POP POP JUMP JUMPDEST PUSH1 0x0 PUSH1 0x20 DUP3 ADD SWAP1 POP DUP2 DUP2 SUB PUSH1 0x0 DUP4 ADD MSTORE PUSH2 0x1CAF DUP2 DUP5 PUSH2 0x19F6 JUMP JUMPDEST SWAP1 POP SWAP3 SWAP2 POP POP JUMP JUMPDEST PUSH1 0x0 PUSH1 0x20 DUP3 ADD SWAP1 POP PUSH2 0x1CCC PUSH1 0x0 DUP4 ADD DUP5 PUSH2 0x1A6B JUMP JUMPDEST SWAP3 SWAP2 POP POP JUMP JUMPDEST PUSH1 0x0 PUSH2 0x120 DUP3 ADD SWAP1 POP DUP2 DUP2 SUB PUSH1 0x0 DUP4 ADD MSTORE PUSH2 0x1CED DUP2 DUP13 PUSH2 0x1B41 JUMP JUMPDEST SWAP1 POP DUP2 DUP2 SUB PUSH1 0x20 DUP4 ADD MSTORE PUSH2 0x1D01 DUP2 DUP12 PUSH2 0x1B41 JUMP JUMPDEST SWAP1 POP PUSH2 0x1D10 PUSH1 0x40 DUP4 ADD DUP11 PUSH2 0x1BFA JUMP JUMPDEST DUP2 DUP2 SUB PUSH1 0x60 DUP4 ADD MSTORE PUSH2 0x1D22 DUP2 DUP10 PUSH2 0x1B41 JUMP JUMPDEST SWAP1 POP DUP2 DUP2 SUB PUSH1 0x80 DUP4 ADD MSTORE PUSH2 0x1D36 DUP2 DUP9 PUSH2 0x1B41 JUMP JUMPDEST SWAP1 POP DUP2 DUP2 SUB PUSH1 0xA0 DUP4 ADD MSTORE PUSH2 0x1D4A DUP2 DUP8 PUSH2 0x1B41 JUMP JUMPDEST SWAP1 POP PUSH2 0x1D59 PUSH1 0xC0 DUP4 ADD DUP7 PUSH2 0x1BFA JUMP JUMPDEST PUSH2 0x1D66 PUSH1 0xE0 DUP4 ADD DUP6 PUSH2 0x1BFA JUMP JUMPDEST DUP2 DUP2 SUB PUSH2 0x100 DUP4 ADD MSTORE PUSH2 0x1D79 DUP2 DUP5 PUSH2 0x19F6 JUMP JUMPDEST SWAP1 POP SWAP11 SWAP10 POP POP POP POP POP POP POP POP POP POP JUMP JUMPDEST PUSH1 0x0 PUSH1 0x20 DUP3 ADD SWAP1 POP DUP2 DUP2 SUB PUSH1 0x0 DUP4 ADD MSTORE PUSH2 0x1DA2 DUP2 PUSH2 0x1B7A JUMP JUMPDEST SWAP1 POP SWAP2 SWAP1 POP JUMP JUMPDEST PUSH1 0x0 PUSH1 0x20 DUP3 ADD SWAP1 POP DUP2 DUP2 SUB PUSH1 0x0 DUP4 ADD MSTORE PUSH2 0x1DC2 DUP2 PUSH2 0x1BBA JUMP JUMPDEST SWAP1 POP SWAP2 SWAP1 POP JUMP JUMPDEST PUSH1 0x0 PUSH1 0x40 MLOAD SWAP1 POP DUP2 DUP2 ADD DUP2 DUP2 LT PUSH8 0xFFFFFFFFFFFFFFFF DUP3 GT OR ISZERO PUSH2 0x1DEC JUMPI PUSH1 0x0 DUP1 REVERT JUMPDEST DUP1 PUSH1 0x40 MSTORE POP SWAP2 SWAP1 POP JUMP JUMPDEST PUSH1 0x0 PUSH8 0xFFFFFFFFFFFFFFFF DUP3 GT ISZERO PUSH2 0x1E0D JUMPI PUSH1 0x0 DUP1 REVERT JUMPDEST PUSH1 0x1F NOT PUSH1 0x1F DUP4 ADD AND SWAP1 POP PUSH1 0x20 DUP2 ADD SWAP1 POP SWAP2 SWAP1 POP JUMP JUMPDEST PUSH1 0x0 DUP2 SWAP1 POP PUSH1 0x20 DUP3 ADD SWAP1 POP SWAP2 SWAP1 POP JUMP JUMPDEST PUSH1 0x0 DUP2 SWAP1 POP DUP2 PUSH1 0x0 MSTORE PUSH1 0x20 PUSH1 0x0 KECCAK256 SWAP1 POP SWAP2 SWAP1 POP JUMP JUMPDEST PUSH1 0x0 DUP2 MLOAD SWAP1 POP SWAP2 SWAP1 POP JUMP JUMPDEST PUSH1 0x0 DUP2 MLOAD SWAP1 POP SWAP2 SWAP1 POP JUMP JUMPDEST PUSH1 0x0 PUSH1 0x20 DUP3 ADD SWAP1 POP SWAP2 SWAP1 POP JUMP JUMPDEST PUSH1 0x0 DUP3 DUP3 MSTORE PUSH1 0x20 DUP3 ADD SWAP1 POP SWAP3 SWAP2 POP POP JUMP JUMPDEST PUSH1 0x0 DUP2 SWAP1 POP SWAP3 SWAP2 POP POP JUMP JUMPDEST PUSH1 0x0 DUP3 DUP3 MSTORE PUSH1 0x20 DUP3 ADD SWAP1 POP SWAP3 SWAP2 POP POP JUMP JUMPDEST PUSH1 0x0 DUP3 DUP3 MSTORE PUSH1 0x20 DUP3 ADD SWAP1 POP SWAP3 SWAP2 POP POP JUMP JUMPDEST PUSH1 0x0 PUSH2 0x1EB3 DUP3 PUSH2 0x1EC6 JUMP JUMPDEST SWAP1 POP SWAP2 SWAP1 POP JUMP JUMPDEST PUSH1 0x0 DUP2 ISZERO ISZERO SWAP1 POP SWAP2 SWAP1 POP JUMP JUMPDEST PUSH1 0x0 PUSH20 0xFFFFFFFFFFFFFFFFFFFFFFFFFFFFFFFFFFFFFFFF DUP3 AND SWAP1 POP SWAP2 SWAP1 POP JUMP JUMPDEST PUSH1 0x0 PUSH1 0xFF DUP3 AND SWAP1 POP SWAP2 SWAP1 POP JUMP JUMPDEST DUP3 DUP2 DUP4 CALLDATACOPY PUSH1 0x0 DUP4 DUP4 ADD MSTORE POP POP POP JUMP JUMPDEST PUSH1 0x0 JUMPDEST DUP4 DUP2 LT ISZERO PUSH2 0x1F20 JUMPI DUP1 DUP3 ADD MLOAD DUP2 DUP5 ADD MSTORE PUSH1 0x20 DUP2 ADD SWAP1 POP PUSH2 0x1F05 JUMP JUMPDEST DUP4 DUP2 GT ISZERO PUSH2 0x1F2F JUMPI PUSH1 0x0 DUP5 DUP5 ADD MSTORE JUMPDEST POP POP POP POP JUMP JUMPDEST PUSH1 0x0 PUSH1 0x1F NOT PUSH1 0x1F DUP4 ADD AND SWAP1 POP SWAP2 SWAP1 POP JUMP JUMPDEST PUSH2 0x1F4F DUP2 PUSH2 0x1EA8 JUMP JUMPDEST DUP2 EQ PUSH2 0x1F5A JUMPI PUSH1 0x0 DUP1 REVERT JUMPDEST POP JUMP JUMPDEST PUSH2 0x1F66 DUP2 PUSH2 0x1EE6 JUMP JUMPDEST DUP2 EQ PUSH2 0x1F71 JUMPI PUSH1 0x0 DUP1 REVERT JUMPDEST POP JUMP INVALID LOG2 PUSH5 0x6970667358 0x22 SLT KECCAK256 RETURNDATASIZE 0x23 0xCC EXP SWAP11 0x25 0xC5 0xB8 0xDD 0x2A 0xD9 0x22 PUSH4 0x24DBFEDF 0x24 EQ PUSH10 0xE929D198338AA4696E74 0xB2 0xB4 PUSH5 0x736F6C6343 STOP MOD MOD STOP CALLER "
    },
    "gasEstimates": {
      "creation": {
        "codeDepositCost": "1621200",
        "executionCost": "infinite",
        "totalCost": "infinite"
      },
      "external": {
        "addInfoKesehatan(string,string,string,uint8,uint8)": "infinite",
        "addPasien(string,string,uint8,string)": "infinite",
        "addPenyakit(string,string)": "infinite",
        "addRumahSakit(address,string,string,string)": "infinite",
        "check_manager()": "1315",
        "check_rs()": "infinite",
        "getManager()": "1266",
        "getinfors(string)": "infinite",
        "getpasien_rs(string)": "infinite",
        "getpenyakit_rs(string)": "infinite"
      }
    },
    "methodIdentifiers": {
      "addInfoKesehatan(string,string,string,uint8,uint8)": "a61cef0c",
      "addPasien(string,string,uint8,string)": "a480fef3",
      "addPenyakit(string,string)": "694e54bf",
      "addRumahSakit(address,string,string,string)": "a3e9b558",
      "check_manager()": "fb2cb8f3",
      "check_rs()": "115ada66",
      "getManager()": "d5009584",
      "getinfors(string)": "e39be646",
      "getpasien_rs(string)": "571f2ac1",
      "getpenyakit_rs(string)": "2db67237"
    }
  },
  "storageLayout": {
    "storage": [
      {
        "astId": 4,
        "contract": "Ehealth.sol:Ehealth",
        "label": "manager",
        "offset": 0,
        "slot": "0",
        "type": "t_address"
      },
      {
        "astId": 6,
        "contract": "Ehealth.sol:Ehealth",
        "label": "idCounter",
        "offset": 0,
        "slot": "1",
        "type": "t_uint256"
      },
      {
        "astId": 58,
        "contract": "Ehealth.sol:Ehealth",
        "label": "pasienList",
        "offset": 0,
        "slot": "2",
        "type": "t_array(t_struct(Pasien)46_storage)dyn_storage"
      },
      {
        "astId": 61,
        "contract": "Ehealth.sol:Ehealth",
        "label": "rsList",
        "offset": 0,
        "slot": "3",
        "type": "t_array(t_struct(Rumah_Sakit)55_storage)dyn_storage"
      }
    ],
    "types": {
      "t_address": {
        "encoding": "inplace",
        "label": "address",
        "numberOfBytes": "20"
      },
      "t_array(t_string_storage)dyn_storage": {
        "base": "t_string_storage",
        "encoding": "dynamic_array",
        "label": "string[]",
        "numberOfBytes": "32"
      },
      "t_array(t_struct(Pasien)46_storage)dyn_storage": {
        "base": "t_struct(Pasien)46_storage",
        "encoding": "dynamic_array",
        "label": "struct Ehealth.Pasien[]",
        "numberOfBytes": "32"
      },
      "t_array(t_struct(Rumah_Sakit)55_storage)dyn_storage": {
        "base": "t_struct(Rumah_Sakit)55_storage",
        "encoding": "dynamic_array",
        "label": "struct Ehealth.Rumah_Sakit[]",
        "numberOfBytes": "32"
      },
      "t_string_storage": {
        "encoding": "bytes",
        "label": "string",
        "numberOfBytes": "32"
      },
      "t_struct(Pasien)46_storage": {
        "encoding": "inplace",
        "label": "struct Ehealth.Pasien",
        "members": [
          {
            "astId": 28,
            "contract": "Ehealth.sol:Ehealth",
            "label": "nik",
            "offset": 0,
            "slot": "0",
            "type": "t_string_storage"
          },
          {
            "astId": 30,
            "contract": "Ehealth.sol:Ehealth",
            "label": "nama",
            "offset": 0,
            "slot": "1",
            "type": "t_string_storage"
          },
          {
            "astId": 32,
            "contract": "Ehealth.sol:Ehealth",
            "label": "umur",
            "offset": 0,
            "slot": "2",
            "type": "t_uint8"
          },
          {
            "astId": 34,
            "contract": "Ehealth.sol:Ehealth",
            "label": "alamat",
            "offset": 0,
            "slot": "3",
            "type": "t_string_storage"
          },
          {
            "astId": 36,
            "contract": "Ehealth.sol:Ehealth",
            "label": "gulaDarah",
            "offset": 0,
            "slot": "4",
            "type": "t_string_storage"
          },
          {
            "astId": 38,
            "contract": "Ehealth.sol:Ehealth",
            "label": "tekananDarah",
            "offset": 0,
            "slot": "5",
            "type": "t_string_storage"
          },
          {
            "astId": 40,
            "contract": "Ehealth.sol:Ehealth",
            "label": "tb",
            "offset": 0,
            "slot": "6",
            "type": "t_uint8"
          },
          {
            "astId": 42,
            "contract": "Ehealth.sol:Ehealth",
            "label": "bb",
            "offset": 1,
            "slot": "6",
            "type": "t_uint8"
          },
          {
            "astId": 45,
            "contract": "Ehealth.sol:Ehealth",
            "label": "informasi_penyakit",
            "offset": 0,
            "slot": "7",
            "type": "t_array(t_string_storage)dyn_storage"
          }
        ],
        "numberOfBytes": "256"
      },
      "t_struct(Rumah_Sakit)55_storage": {
        "encoding": "inplace",
        "label": "struct Ehealth.Rumah_Sakit",
        "members": [
          {
            "astId": 48,
            "contract": "Ehealth.sol:Ehealth",
            "label": "ethaddress",
            "offset": 0,
            "slot": "0",
            "type": "t_address"
          },
          {
            "astId": 50,
            "contract": "Ehealth.sol:Ehealth",
            "label": "nama",
            "offset": 0,
            "slot": "1",
            "type": "t_string_storage"
          },
          {
            "astId": 52,
            "contract": "Ehealth.sol:Ehealth",
            "label": "idRS",
            "offset": 0,
            "slot": "2",
            "type": "t_string_storage"
          },
          {
            "astId": 54,
            "contract": "Ehealth.sol:Ehealth",
            "label": "alamat",
            "offset": 0,
            "slot": "3",
            "type": "t_string_storage"
          }
        ],
        "numberOfBytes": "128"
      },
      "t_uint256": {
        "encoding": "inplace",
        "label": "uint256",
        "numberOfBytes": "32"
      },
      "t_uint8": {
        "encoding": "inplace",
        "label": "uint8",
        "numberOfBytes": "1"
      }
    }
  },
  "userdoc": {
    "methods": {}
  }
}